{
  "contractName": "BBDispute",
  "abi": [
    {
      "constant": true,
      "inputs": [],
      "name": "bbo",
      "outputs": [
        {
          "name": "",
          "type": "address"
        }
      ],
      "payable": false,
      "stateMutability": "view",
      "type": "function"
    },
    {
      "constant": true,
      "inputs": [],
      "name": "bbs",
      "outputs": [
        {
          "name": "",
          "type": "address"
        }
      ],
      "payable": false,
      "stateMutability": "view",
      "type": "function"
    },
    {
      "constant": true,
      "inputs": [],
      "name": "payment",
      "outputs": [
        {
          "name": "",
          "type": "address"
        }
      ],
      "payable": false,
      "stateMutability": "view",
      "type": "function"
    },
    {
      "constant": false,
      "inputs": [],
      "name": "renounceOwnership",
      "outputs": [],
      "payable": false,
      "stateMutability": "nonpayable",
      "type": "function"
    },
    {
      "constant": false,
      "inputs": [
        {
          "name": "BBOAddress",
          "type": "address"
        }
      ],
      "name": "setBBO",
      "outputs": [],
      "payable": false,
      "stateMutability": "nonpayable",
      "type": "function"
    },
    {
      "constant": true,
      "inputs": [],
      "name": "owner",
      "outputs": [
        {
          "name": "",
          "type": "address"
        }
      ],
      "payable": false,
      "stateMutability": "view",
      "type": "function"
    },
    {
      "constant": false,
      "inputs": [
        {
          "name": "anyToken",
          "type": "address"
        }
      ],
      "name": "emergencyERC20Drain",
      "outputs": [],
      "payable": false,
      "stateMutability": "nonpayable",
      "type": "function"
    },
    {
      "constant": false,
      "inputs": [
        {
          "name": "storageAddress",
          "type": "address"
        }
      ],
      "name": "setStorage",
      "outputs": [],
      "payable": false,
      "stateMutability": "nonpayable",
      "type": "function"
    },
    {
      "constant": false,
      "inputs": [
        {
          "name": "_newOwner",
          "type": "address"
        }
      ],
      "name": "transferOwnership",
      "outputs": [],
      "payable": false,
      "stateMutability": "nonpayable",
      "type": "function"
    },
    {
      "anonymous": false,
      "inputs": [
        {
          "indexed": true,
          "name": "indexJobHash",
          "type": "bytes32"
        },
        {
          "indexed": false,
          "name": "proofHash",
          "type": "bytes"
        },
        {
          "indexed": true,
          "name": "creator",
          "type": "address"
        },
        {
          "indexed": false,
          "name": "jobHash",
          "type": "bytes"
        }
      ],
      "name": "PollStarted",
      "type": "event"
    },
    {
      "anonymous": false,
      "inputs": [
        {
          "indexed": true,
          "name": "indexJobHash",
          "type": "bytes32"
        },
        {
          "indexed": true,
          "name": "creator",
          "type": "address"
        },
        {
          "indexed": false,
          "name": "proofHash",
          "type": "bytes"
        },
        {
          "indexed": false,
          "name": "jobHash",
          "type": "bytes"
        }
      ],
      "name": "PollAgainsted",
      "type": "event"
    },
    {
      "anonymous": false,
      "inputs": [
        {
          "indexed": true,
          "name": "indexJobHash",
          "type": "bytes32"
        },
        {
          "indexed": false,
          "name": "jobOwnerVotes",
          "type": "uint256"
        },
        {
          "indexed": false,
          "name": "freelancerVotes",
          "type": "uint256"
        },
        {
          "indexed": false,
          "name": "jobHash",
          "type": "bytes"
        }
      ],
      "name": "PollFinalized",
      "type": "event"
    },
    {
      "anonymous": false,
      "inputs": [
        {
          "indexed": true,
          "name": "indexJobHash",
          "type": "bytes32"
        },
        {
          "indexed": false,
          "name": "jobHash",
          "type": "bytes"
        },
        {
          "indexed": false,
          "name": "whiteFlag",
          "type": "bool"
        }
      ],
      "name": "PollUpdated",
      "type": "event"
    },
    {
      "anonymous": false,
      "inputs": [
        {
          "indexed": true,
          "name": "previousOwner",
          "type": "address"
        }
      ],
      "name": "OwnershipRenounced",
      "type": "event"
    },
    {
      "anonymous": false,
      "inputs": [
        {
          "indexed": true,
          "name": "previousOwner",
          "type": "address"
        },
        {
          "indexed": true,
          "name": "newOwner",
          "type": "address"
        }
      ],
      "name": "OwnershipTransferred",
      "type": "event"
    },
    {
      "constant": false,
      "inputs": [
        {
          "name": "p",
          "type": "address"
        }
      ],
      "name": "setPayment",
      "outputs": [],
      "payable": false,
      "stateMutability": "nonpayable",
      "type": "function"
    },
    {
      "constant": true,
      "inputs": [
        {
          "name": "jobHash",
          "type": "bytes"
        }
      ],
      "name": "isAgaintsPoll",
      "outputs": [
        {
          "name": "r",
          "type": "bool"
        }
      ],
      "payable": false,
      "stateMutability": "view",
      "type": "function"
    },
    {
      "constant": false,
      "inputs": [
        {
          "name": "jobHash",
          "type": "bytes"
        }
      ],
      "name": "finalizePoll",
      "outputs": [],
      "payable": false,
      "stateMutability": "nonpayable",
      "type": "function"
    },
    {
      "constant": true,
      "inputs": [
        {
          "name": "jobHash",
          "type": "bytes"
        }
      ],
      "name": "getPoll",
      "outputs": [
        {
          "name": "",
          "type": "uint256"
        },
        {
          "name": "",
          "type": "uint256"
        },
        {
          "name": "",
          "type": "address"
        },
        {
          "name": "",
          "type": "address"
        },
        {
          "name": "",
          "type": "uint256"
        }
      ],
      "payable": false,
      "stateMutability": "view",
      "type": "function"
    },
    {
      "constant": true,
      "inputs": [
        {
          "name": "jobHash",
          "type": "bytes"
        }
      ],
      "name": "getPollTiming",
      "outputs": [
        {
          "name": "",
          "type": "uint256"
        },
        {
          "name": "",
          "type": "uint256"
        },
        {
          "name": "",
          "type": "uint256"
        }
      ],
      "payable": false,
      "stateMutability": "view",
      "type": "function"
    },
    {
      "constant": false,
      "inputs": [
        {
          "name": "jobHash",
          "type": "bytes"
        },
        {
          "name": "proofHash",
          "type": "bytes"
        }
      ],
      "name": "startPoll",
      "outputs": [],
      "payable": false,
      "stateMutability": "nonpayable",
      "type": "function"
    },
    {
      "constant": false,
      "inputs": [
        {
          "name": "jobHash",
          "type": "bytes"
        },
        {
          "name": "againstProofHash",
          "type": "bytes"
        }
      ],
      "name": "againstPoll",
      "outputs": [],
      "payable": false,
      "stateMutability": "nonpayable",
      "type": "function"
    },
    {
      "constant": false,
      "inputs": [
        {
          "name": "jobHash",
          "type": "bytes"
        },
        {
          "name": "whiteFlag",
          "type": "bool"
        }
      ],
      "name": "updatePoll",
      "outputs": [],
      "payable": false,
      "stateMutability": "nonpayable",
      "type": "function"
    }
  ],
  "bytecode": "0x60806040526000600160006101000a81548173ffffffffffffffffffffffffffffffffffffffff021916908373ffffffffffffffffffffffffffffffffffffffff1602179055506000600260006101000a81548173ffffffffffffffffffffffffffffffffffffffff021916908373ffffffffffffffffffffffffffffffffffffffff1602179055506000600360006101000a81548173ffffffffffffffffffffffffffffffffffffffff021916908373ffffffffffffffffffffffffffffffffffffffff160217905550336000806101000a81548173ffffffffffffffffffffffffffffffffffffffff021916908373ffffffffffffffffffffffffffffffffffffffff160217905550615e84806101196000396000f3006080604052600436106100f1576000357c0100000000000000000000000000000000000000000000000000000000900463ffffffff1680630e95870b146100f65780631e89bf06146101a55780631fde23a4146101fc57806342f6487a14610253578063715018a6146102aa5780637937f46d146102c1578063793ac21e14610304578063839bd27f146103795780638da5cb5b1461046a57806390e8d82f146104c15780639137c1a7146105045780639ab06fcb14610547578063a648b3411461058a578063aacd61e014610615578063b2f481ed146106c4578063b774629a14610745578063f2fde38b146107ae575b600080fd5b34801561010257600080fd5b506101a3600480360381019080803590602001908201803590602001908080601f0160208091040260200160405190810160405280939291908181526020018383808284378201915050505050509192919290803590602001908201803590602001908080601f01602080910402602001604051908101604052809392919081815260200183838082843782019150505050505091929192905050506107f1565b005b3480156101b157600080fd5b506101ba610adc565b604051808273ffffffffffffffffffffffffffffffffffffffff1673ffffffffffffffffffffffffffffffffffffffff16815260200191505060405180910390f35b34801561020857600080fd5b50610211610b02565b604051808273ffffffffffffffffffffffffffffffffffffffff1673ffffffffffffffffffffffffffffffffffffffff16815260200191505060405180910390f35b34801561025f57600080fd5b50610268610b28565b604051808273ffffffffffffffffffffffffffffffffffffffff1673ffffffffffffffffffffffffffffffffffffffff16815260200191505060405180910390f35b3480156102b657600080fd5b506102bf610b4e565b005b3480156102cd57600080fd5b50610302600480360381019080803573ffffffffffffffffffffffffffffffffffffffff169060200190929190505050610c50565b005b34801561031057600080fd5b50610377600480360381019080803590602001908201803590602001908080601f0160208091040260200160405190810160405280939291908181526020018383808284378201915050505050509192919290803515159060200190929190505050610cef565b005b34801561038557600080fd5b506103e0600480360381019080803590602001908201803590602001908080601f0160208091040260200160405190810160405280939291908181526020018383808284378201915050505050509192919290505050611889565b604051808681526020018581526020018473ffffffffffffffffffffffffffffffffffffffff1673ffffffffffffffffffffffffffffffffffffffff1681526020018373ffffffffffffffffffffffffffffffffffffffff1673ffffffffffffffffffffffffffffffffffffffff1681526020018281526020019550505050505060405180910390f35b34801561047657600080fd5b5061047f611cde565b604051808273ffffffffffffffffffffffffffffffffffffffff1673ffffffffffffffffffffffffffffffffffffffff16815260200191505060405180910390f35b3480156104cd57600080fd5b50610502600480360381019080803573ffffffffffffffffffffffffffffffffffffffff169060200190929190505050611d03565b005b34801561051057600080fd5b50610545600480360381019080803573ffffffffffffffffffffffffffffffffffffffff169060200190929190505050612017565b005b34801561055357600080fd5b50610588600480360381019080803573ffffffffffffffffffffffffffffffffffffffff1690602001909291905050506120b6565b005b34801561059657600080fd5b506105f1600480360381019080803590602001908201803590602001908080601f0160208091040260200160405190810160405280939291908181526020018383808284378201915050505050509192919290505050612155565b60405180848152602001838152602001828152602001935050505060405180910390f35b34801561062157600080fd5b506106c2600480360381019080803590602001908201803590602001908080601f0160208091040260200160405190810160405280939291908181526020018383808284378201915050505050509192919290803590602001908201803590602001908080601f01602080910402602001604051908101604052809392919081815260200183838082843782019150505050505091929192905050506124be565b005b3480156106d057600080fd5b5061072b600480360381019080803590602001908201803590602001908080601f016020809104026020016040519081016040528093929190818152602001838380828437820191505050505050919291929050505061264e565b604051808215151515815260200191505060405180910390f35b34801561075157600080fd5b506107ac600480360381019080803590602001908201803590602001908080601f01602080910402602001604051908101604052809392919081815260200183838082843782019150505050505091929192905050506127f3565b005b3480156107ba57600080fd5b506107ef600480360381019080803573ffffffffffffffffffffffffffffffffffffffff1690602001909291905050506139d9565b005b6000806107fd84613a98565b91506001151561080c85613bb3565b151514151561081a57600080fd5b6001151561082785613e18565b151514151561083557600080fd5b600160009054906101000a900473ffffffffffffffffffffffffffffffffffffffff1673ffffffffffffffffffffffffffffffffffffffff166321f8a7216108b2866040805190810160405280600c81526020017f504f4c4c5f53544152544544000000000000000000000000000000000000000081525061408a565b6040518263ffffffff167c0100000000000000000000000000000000000000000000000000000000028152600401808260001916600019168152602001915050602060405180830381600087803b15801561090c57600080fd5b505af1158015610920573d6000803e3d6000fd5b505050506040513d602081101561093657600080fd5b8101908080519060200190929190505050905060008173ffffffffffffffffffffffffffffffffffffffff161415151561096f57600080fd5b3373ffffffffffffffffffffffffffffffffffffffff168173ffffffffffffffffffffffffffffffffffffffff16141515156109aa57600080fd5b42600160009054906101000a900473ffffffffffffffffffffffffffffffffffffffff1673ffffffffffffffffffffffffffffffffffffffff1663bd02d0f5610a2987866040805190810160405280601181526020017f4556454944454e43455f454e44444154450000000000000000000000000000008152506141b8565b6040518263ffffffff167c0100000000000000000000000000000000000000000000000000000000028152600401808260001916600019168152602001915050602060405180830381600087803b158015610a8357600080fd5b505af1158015610a97573d6000803e3d6000fd5b505050506040513d6020811015610aad57600080fd5b8101908080519060200190929190505050111515610aca57600080fd5b610ad6848484846142ef565b50505050565b600260009054906101000a900473ffffffffffffffffffffffffffffffffffffffff1681565b600160009054906101000a900473ffffffffffffffffffffffffffffffffffffffff1681565b600360009054906101000a900473ffffffffffffffffffffffffffffffffffffffff1681565b6000809054906101000a900473ffffffffffffffffffffffffffffffffffffffff1673ffffffffffffffffffffffffffffffffffffffff163373ffffffffffffffffffffffffffffffffffffffff16141515610ba957600080fd5b6000809054906101000a900473ffffffffffffffffffffffffffffffffffffffff1673ffffffffffffffffffffffffffffffffffffffff167ff8df31144d9c2f0f6b59d69b8b98abd5459d07f2742c4df920b25aae33c6482060405160405180910390a260008060006101000a81548173ffffffffffffffffffffffffffffffffffffffff021916908373ffffffffffffffffffffffffffffffffffffffff160217905550565b6000809054906101000a900473ffffffffffffffffffffffffffffffffffffffff1673ffffffffffffffffffffffffffffffffffffffff163373ffffffffffffffffffffffffffffffffffffffff16141515610cab57600080fd5b80600260006101000a81548173ffffffffffffffffffffffffffffffffffffffff021916908373ffffffffffffffffffffffffffffffffffffffff16021790555050565b600080600080600080600080600080600060011515610d0d8e613bb3565b1515141515610d1b57600080fd5b60011515610d288e613e18565b1515141515610d3657600080fd5b610d3f8d611889565b9a509a509a509a509a5060008b141515610d5857600080fd5b60008a141515610d6757600080fd5b600115158c1515141561133b57600160009054906101000a900473ffffffffffffffffffffffffffffffffffffffff1673ffffffffffffffffffffffffffffffffffffffff1663ca446dd9610df18f6040805190810160405280600e81526020017f444953505554455f57494e4e455200000000000000000000000000000000000081525061408a565b8b73ffffffffffffffffffffffffffffffffffffffff163373ffffffffffffffffffffffffffffffffffffffff1614610e2a578b610e2c565b8a5b6040518363ffffffff167c01000000000000000000000000000000000000000000000000000000000281526004018083600019166000191681526020018273ffffffffffffffffffffffffffffffffffffffff1673ffffffffffffffffffffffffffffffffffffffff16815260200192505050600060405180830381600087803b158015610eb957600080fd5b505af1158015610ecd573d6000803e3d6000fd5b50505050600160009054906101000a900473ffffffffffffffffffffffffffffffffffffffff1673ffffffffffffffffffffffffffffffffffffffff1663bd02d0f5610f508f8a6040805190810160405280600e81526020017f5354414b45445f4445504f5349540000000000000000000000000000000000008152508e6148d0565b6040518263ffffffff167c0100000000000000000000000000000000000000000000000000000000028152600401808260001916600019168152602001915050602060405180830381600087803b158015610faa57600080fd5b505af1158015610fbe573d6000803e3d6000fd5b505050506040513d6020811015610fd457600080fd5b81019080805190602001909291905050509550600260009054906101000a900473ffffffffffffffffffffffffffffffffffffffff1673ffffffffffffffffffffffffffffffffffffffff1663a9059cbb8a886040518363ffffffff167c0100000000000000000000000000000000000000000000000000000000028152600401808373ffffffffffffffffffffffffffffffffffffffff1673ffffffffffffffffffffffffffffffffffffffff16815260200182815260200192505050602060405180830381600087803b1580156110ac57600080fd5b505af11580156110c0573d6000803e3d6000fd5b505050506040513d60208110156110d657600080fd5b810190808051906020019092919050505015156110f257600080fd5b600260009054906101000a900473ffffffffffffffffffffffffffffffffffffffff1673ffffffffffffffffffffffffffffffffffffffff1663a9059cbb89886040518363ffffffff167c0100000000000000000000000000000000000000000000000000000000028152600401808373ffffffffffffffffffffffffffffffffffffffff1673ffffffffffffffffffffffffffffffffffffffff16815260200182815260200192505050602060405180830381600087803b1580156111b757600080fd5b505af11580156111cb573d6000803e3d6000fd5b505050506040513d60208110156111e157600080fd5b810190808051906020019092919050505015156111fd57600080fd5b600360009054906101000a900473ffffffffffffffffffffffffffffffffffffffff1673ffffffffffffffffffffffffffffffffffffffff16632f6aee258e6040518263ffffffff167c01000000000000000000000000000000000000000000000000000000000281526004018080602001828103825283818151815260200191508051906020019080838360005b838110156112a757808201518184015260208101905061128c565b50505050905090810190601f1680156112d45780820380516001836020036101000a031916815260200191505b5092505050602060405180830381600087803b1580156112f357600080fd5b505af1158015611307573d6000803e3d6000fd5b505050506040513d602081101561131d57600080fd5b8101908080519060200190929190505050151561133657fe5b6117c5565b6113448d612155565b945094509450428311151561135857600080fd5b428410151561136657600080fd5b600160009054906101000a900473ffffffffffffffffffffffffffffffffffffffff1673ffffffffffffffffffffffffffffffffffffffff1663bd02d0f56113e26040805190810160405280600f81526020017f434f4d4d49545f4455524154494f4e0000000000000000000000000000000000815250614a4b565b6040518263ffffffff167c0100000000000000000000000000000000000000000000000000000000028152600401808260001916600019168152602001915050602060405180830381600087803b15801561143c57600080fd5b505af1158015611450573d6000803e3d6000fd5b505050506040513d602081101561146657600080fd5b8101908080519060200190929190505050915060008211151561148857600080fd5b600160009054906101000a900473ffffffffffffffffffffffffffffffffffffffff1673ffffffffffffffffffffffffffffffffffffffff1663bd02d0f56115046040805190810160405280600f81526020017f52455645414c5f4455524154494f4e0000000000000000000000000000000000815250614a4b565b6040518263ffffffff167c0100000000000000000000000000000000000000000000000000000000028152600401808260001916600019168152602001915050602060405180830381600087803b15801561155e57600080fd5b505af1158015611572573d6000803e3d6000fd5b505050506040513d602081101561158857600080fd5b810190808051906020019092919050505090506000811115156115aa57600080fd5b6115bd8242614b2390919063ffffffff16565b93506115d28185614b2390919063ffffffff16565b9250600160009054906101000a900473ffffffffffffffffffffffffffffffffffffffff1673ffffffffffffffffffffffffffffffffffffffff1663e2a4853a6116528f8a6040805190810160405280600e81526020017f434f4d4d49545f454e44444154450000000000000000000000000000000000008152506141b8565b866040518363ffffffff167c010000000000000000000000000000000000000000000000000000000002815260040180836000191660001916815260200182815260200192505050600060405180830381600087803b1580156116b457600080fd5b505af11580156116c8573d6000803e3d6000fd5b50505050600160009054906101000a900473ffffffffffffffffffffffffffffffffffffffff1673ffffffffffffffffffffffffffffffffffffffff1663e2a4853a61174a8f8a6040805190810160405280600e81526020017f52455645414c5f454e44444154450000000000000000000000000000000000008152506141b8565b856040518363ffffffff167c010000000000000000000000000000000000000000000000000000000002815260040180836000191660001916815260200182815260200192505050600060405180830381600087803b1580156117ac57600080fd5b505af11580156117c0573d6000803e3d6000fd5b505050505b6117ce8d614a4b565b600019167ff421d6f05f89d73fd45857581674811d4094e888692dd0c28c4729df589cbcea8e8e604051808060200183151515158152602001828103825284818151815260200191508051906020019080838360005b8381101561183f578082015181840152602081019050611824565b50505050905090810190601f16801561186c5780820380516001836020036101000a031916815260200191505b50935050505060405180910390a250505050505050505050505050565b6000806000806000806000806000806118a18b613a98565b9450600160009054906101000a900473ffffffffffffffffffffffffffffffffffffffff1673ffffffffffffffffffffffffffffffffffffffff166321f8a7216118ea8d614a4b565b6040518263ffffffff167c0100000000000000000000000000000000000000000000000000000000028152600401808260001916600019168152602001915050602060405180830381600087803b15801561194457600080fd5b505af1158015611958573d6000803e3d6000fd5b505050506040513d602081101561196e57600080fd5b81019080805190602001909291905050509350600160009054906101000a900473ffffffffffffffffffffffffffffffffffffffff1673ffffffffffffffffffffffffffffffffffffffff166321f8a7216119fe8d6040805190810160405280600a81526020017f465245454c414e4345520000000000000000000000000000000000000000000081525061408a565b6040518263ffffffff167c0100000000000000000000000000000000000000000000000000000000028152600401808260001916600019168152602001915050602060405180830381600087803b158015611a5857600080fd5b505af1158015611a6c573d6000803e3d6000fd5b505050506040513d6020811015611a8257600080fd5b81019080805190602001909291905050509250600160009054906101000a900473ffffffffffffffffffffffffffffffffffffffff1673ffffffffffffffffffffffffffffffffffffffff1663bd02d0f5611b148d886040805190810160405280600881526020017f564f54455f464f52000000000000000000000000000000000000000000000000815250896148d0565b6040518263ffffffff167c0100000000000000000000000000000000000000000000000000000000028152600401808260001916600019168152602001915050602060405180830381600087803b158015611b6e57600080fd5b505af1158015611b82573d6000803e3d6000fd5b505050506040513d6020811015611b9857600080fd5b81019080805190602001909291905050509150600160009054906101000a900473ffffffffffffffffffffffffffffffffffffffff1673ffffffffffffffffffffffffffffffffffffffff1663bd02d0f5611c2a8d886040805190810160405280600881526020017f564f54455f464f52000000000000000000000000000000000000000000000000815250886148d0565b6040518263ffffffff167c0100000000000000000000000000000000000000000000000000000000028152600401808260001916600019168152602001915050602060405180830381600087803b158015611c8457600080fd5b505af1158015611c98573d6000803e3d6000fd5b505050506040513d6020811015611cae57600080fd5b81019080805190602001909291905050509050818185858899509950995099509950505050505091939590929450565b6000809054906101000a900473ffffffffffffffffffffffffffffffffffffffff1681565b6000809054906101000a900473ffffffffffffffffffffffffffffffffffffffff1673ffffffffffffffffffffffffffffffffffffffff163373ffffffffffffffffffffffffffffffffffffffff16141515611d5e57600080fd5b60003073ffffffffffffffffffffffffffffffffffffffff16311115611dfe576000809054906101000a900473ffffffffffffffffffffffffffffffffffffffff1673ffffffffffffffffffffffffffffffffffffffff166108fc3073ffffffffffffffffffffffffffffffffffffffff16319081150290604051600060405180830381858888f19350505050158015611dfc573d6000803e3d6000fd5b505b600073ffffffffffffffffffffffffffffffffffffffff168173ffffffffffffffffffffffffffffffffffffffff16141515612014578073ffffffffffffffffffffffffffffffffffffffff1663a9059cbb6000809054906101000a900473ffffffffffffffffffffffffffffffffffffffff168373ffffffffffffffffffffffffffffffffffffffff166370a08231306040518263ffffffff167c0100000000000000000000000000000000000000000000000000000000028152600401808273ffffffffffffffffffffffffffffffffffffffff1673ffffffffffffffffffffffffffffffffffffffff168152602001915050602060405180830381600087803b158015611f0d57600080fd5b505af1158015611f21573d6000803e3d6000fd5b505050506040513d6020811015611f3757600080fd5b81019080805190602001909291905050506040518363ffffffff167c0100000000000000000000000000000000000000000000000000000000028152600401808373ffffffffffffffffffffffffffffffffffffffff1673ffffffffffffffffffffffffffffffffffffffff16815260200182815260200192505050602060405180830381600087803b158015611fcd57600080fd5b505af1158015611fe1573d6000803e3d6000fd5b505050506040513d6020811015611ff757600080fd5b8101908080519060200190929190505050151561201357600080fd5b5b50565b6000809054906101000a900473ffffffffffffffffffffffffffffffffffffffff1673ffffffffffffffffffffffffffffffffffffffff163373ffffffffffffffffffffffffffffffffffffffff1614151561207257600080fd5b80600160006101000a81548173ffffffffffffffffffffffffffffffffffffffff021916908373ffffffffffffffffffffffffffffffffffffffff16021790555050565b6000809054906101000a900473ffffffffffffffffffffffffffffffffffffffff1673ffffffffffffffffffffffffffffffffffffffff163373ffffffffffffffffffffffffffffffffffffffff1614151561211157600080fd5b80600360006101000a81548173ffffffffffffffffffffffffffffffffffffffff021916908373ffffffffffffffffffffffffffffffffffffffff16021790555050565b600080600080600080600061216988613a98565b9350600160009054906101000a900473ffffffffffffffffffffffffffffffffffffffff1673ffffffffffffffffffffffffffffffffffffffff1663bd02d0f56121e98a876040805190810160405280601181526020017f4556454944454e43455f454e44444154450000000000000000000000000000008152506141b8565b6040518263ffffffff167c0100000000000000000000000000000000000000000000000000000000028152600401808260001916600019168152602001915050602060405180830381600087803b15801561224357600080fd5b505af1158015612257573d6000803e3d6000fd5b505050506040513d602081101561226d57600080fd5b81019080805190602001909291905050509250600160009054906101000a900473ffffffffffffffffffffffffffffffffffffffff1673ffffffffffffffffffffffffffffffffffffffff1663bd02d0f56122fe8a876040805190810160405280600e81526020017f434f4d4d49545f454e44444154450000000000000000000000000000000000008152506141b8565b6040518263ffffffff167c0100000000000000000000000000000000000000000000000000000000028152600401808260001916600019168152602001915050602060405180830381600087803b15801561235857600080fd5b505af115801561236c573d6000803e3d6000fd5b505050506040513d602081101561238257600080fd5b81019080805190602001909291905050509150600160009054906101000a900473ffffffffffffffffffffffffffffffffffffffff1673ffffffffffffffffffffffffffffffffffffffff1663bd02d0f56124138a876040805190810160405280600e81526020017f52455645414c5f454e44444154450000000000000000000000000000000000008152506141b8565b6040518263ffffffff167c0100000000000000000000000000000000000000000000000000000000028152600401808260001916600019168152602001915050602060405180830381600087803b15801561246d57600080fd5b505af1158015612481573d6000803e3d6000fd5b505050506040513d602081101561249757600080fd5b81019080805190602001909291905050509050828282965096509650505050509193909250565b600115156124cb83614b3f565b15151415156124d957600080fd5b600115156124e683613bb3565b15151415156124f457600080fd5b600073ffffffffffffffffffffffffffffffffffffffff16600160009054906101000a900473ffffffffffffffffffffffffffffffffffffffff1673ffffffffffffffffffffffffffffffffffffffff166321f8a721612589856040805190810160405280600c81526020017f504f4c4c5f53544152544544000000000000000000000000000000000000000081525061408a565b6040518263ffffffff167c0100000000000000000000000000000000000000000000000000000000028152600401808260001916600019168152602001915050602060405180830381600087803b1580156125e357600080fd5b505af11580156125f7573d6000803e3d6000fd5b505050506040513d602081101561260d57600080fd5b810190808051906020019092919050505073ffffffffffffffffffffffffffffffffffffffff1614151561264057600080fd5b61264a8282614db1565b5050565b60006126696020604051908101604052806000815250614a4b565b600019166127e6600160009054906101000a900473ffffffffffffffffffffffffffffffffffffffff1673ffffffffffffffffffffffffffffffffffffffff1663c031a1806126f6866126bb88613a98565b6040805190810160405280600d81526020017f414741494e53545f50524f4f46000000000000000000000000000000000000008152506141b8565b6040518263ffffffff167c0100000000000000000000000000000000000000000000000000000000028152600401808260001916600019168152602001915050600060405180830381600087803b15801561275057600080fd5b505af1158015612764573d6000803e3d6000fd5b505050506040513d6000823e3d601f19601f82011682018060405250602081101561278e57600080fd5b8101908080516401000000008111156127a657600080fd5b828101905060208101848111156127bc57600080fd5b81518560018202830111640100000000821117156127d957600080fd5b5050929190505050614a4b565b6000191614159050919050565b600080600080600080600061280788611889565b965096509650965096506001151561281e89613e18565b151514151561282c57600080fd5b600160009054906101000a900473ffffffffffffffffffffffffffffffffffffffff1673ffffffffffffffffffffffffffffffffffffffff166321f8a7216128a98a6040805190810160405280600c81526020017f504f4c4c5f53544152544544000000000000000000000000000000000000000081525061408a565b6040518263ffffffff167c0100000000000000000000000000000000000000000000000000000000028152600401808260001916600019168152602001915050602060405180830381600087803b15801561290357600080fd5b505af1158015612917573d6000803e3d6000fd5b505050506040513d602081101561292d57600080fd5b81019080805190602001909291905050509150600073ffffffffffffffffffffffffffffffffffffffff168273ffffffffffffffffffffffffffffffffffffffff161415151561297c57600080fd5b42600160009054906101000a900473ffffffffffffffffffffffffffffffffffffffff1673ffffffffffffffffffffffffffffffffffffffff1663bd02d0f56129fb8b876040805190810160405280601181526020017f4556454944454e43455f454e44444154450000000000000000000000000000008152506141b8565b6040518263ffffffff167c0100000000000000000000000000000000000000000000000000000000028152600401808260001916600019168152602001915050602060405180830381600087803b158015612a5557600080fd5b505af1158015612a69573d6000803e3d6000fd5b505050506040513d6020811015612a7f57600080fd5b810190808051906020019092919050505011151515612a9d57600080fd5b600160009054906101000a900473ffffffffffffffffffffffffffffffffffffffff1673ffffffffffffffffffffffffffffffffffffffff1663bd02d0f5612b1c8a866040805190810160405280600e81526020017f5354414b45445f4445504f534954000000000000000000000000000000000000815250876148d0565b6040518263ffffffff167c0100000000000000000000000000000000000000000000000000000000028152600401808260001916600019168152602001915050602060405180830381600087803b158015612b7657600080fd5b505af1158015612b8a573d6000803e3d6000fd5b505050506040513d6020811015612ba057600080fd5b81019080805190602001909291905050509050612bbc8861264e565b1515612f2e57600160009054906101000a900473ffffffffffffffffffffffffffffffffffffffff1673ffffffffffffffffffffffffffffffffffffffff1663ca446dd9612c3f8a6040805190810160405280600e81526020017f444953505554455f57494e4e455200000000000000000000000000000000000081525061408a565b846040518363ffffffff167c01000000000000000000000000000000000000000000000000000000000281526004018083600019166000191681526020018273ffffffffffffffffffffffffffffffffffffffff1673ffffffffffffffffffffffffffffffffffffffff16815260200192505050600060405180830381600087803b158015612ccd57600080fd5b505af1158015612ce1573d6000803e3d6000fd5b50505050600260009054906101000a900473ffffffffffffffffffffffffffffffffffffffff1673ffffffffffffffffffffffffffffffffffffffff1663a9059cbb83836040518363ffffffff167c0100000000000000000000000000000000000000000000000000000000028152600401808373ffffffffffffffffffffffffffffffffffffffff1673ffffffffffffffffffffffffffffffffffffffff16815260200182815260200192505050602060405180830381600087803b158015612daa57600080fd5b505af1158015612dbe573d6000803e3d6000fd5b505050506040513d6020811015612dd457600080fd5b81019080805190602001909291905050501515612df057600080fd5b600360009054906101000a900473ffffffffffffffffffffffffffffffffffffffff1673ffffffffffffffffffffffffffffffffffffffff16632f6aee25896040518263ffffffff167c01000000000000000000000000000000000000000000000000000000000281526004018080602001828103825283818151815260200191508051906020019080838360005b83811015612e9a578082015181840152602081019050612e7f565b50505050905090810190601f168015612ec75780820380516001836020036101000a031916815260200191505b5092505050602060405180830381600087803b158015612ee657600080fd5b505af1158015612efa573d6000803e3d6000fd5b505050506040513d6020811015612f1057600080fd5b81019080805190602001909291905050501515612f2957fe5b613916565b42600160009054906101000a900473ffffffffffffffffffffffffffffffffffffffff1673ffffffffffffffffffffffffffffffffffffffff1663bd02d0f5612fad8b876040805190810160405280600e81526020017f52455645414c5f454e44444154450000000000000000000000000000000000008152506141b8565b6040518263ffffffff167c0100000000000000000000000000000000000000000000000000000000028152600401808260001916600019168152602001915050602060405180830381600087803b15801561300757600080fd5b505af115801561301b573d6000803e3d6000fd5b505050506040513d602081101561303157600080fd5b81019080805190602001909291905050501115151561304f57600080fd5b8587141561348e57600160009054906101000a900473ffffffffffffffffffffffffffffffffffffffff1673ffffffffffffffffffffffffffffffffffffffff1663ca446dd96130d48a6040805190810160405280600c81526020017f504f4c4c5f53544152544544000000000000000000000000000000000000000081525061408a565b60006040518363ffffffff167c01000000000000000000000000000000000000000000000000000000000281526004018083600019166000191681526020018273ffffffffffffffffffffffffffffffffffffffff1673ffffffffffffffffffffffffffffffffffffffff16815260200192505050600060405180830381600087803b15801561316357600080fd5b505af1158015613177573d6000803e3d6000fd5b50505050600260009054906101000a900473ffffffffffffffffffffffffffffffffffffffff1673ffffffffffffffffffffffffffffffffffffffff1663a9059cbb86836040518363ffffffff167c0100000000000000000000000000000000000000000000000000000000028152600401808373ffffffffffffffffffffffffffffffffffffffff1673ffffffffffffffffffffffffffffffffffffffff16815260200182815260200192505050602060405180830381600087803b15801561324057600080fd5b505af1158015613254573d6000803e3d6000fd5b505050506040513d602081101561326a57600080fd5b8101908080519060200190929190505050151561328657600080fd5b600260009054906101000a900473ffffffffffffffffffffffffffffffffffffffff1673ffffffffffffffffffffffffffffffffffffffff1663a9059cbb85836040518363ffffffff167c0100000000000000000000000000000000000000000000000000000000028152600401808373ffffffffffffffffffffffffffffffffffffffff1673ffffffffffffffffffffffffffffffffffffffff16815260200182815260200192505050602060405180830381600087803b15801561334b57600080fd5b505af115801561335f573d6000803e3d6000fd5b505050506040513d602081101561337557600080fd5b8101908080519060200190929190505050151561339157600080fd5b600160009054906101000a900473ffffffffffffffffffffffffffffffffffffffff1673ffffffffffffffffffffffffffffffffffffffff1663e2a4853a61340e8a6040805190810160405280600681526020017f535441545553000000000000000000000000000000000000000000000000000081525061408a565b60046040518363ffffffff167c010000000000000000000000000000000000000000000000000000000002815260040180836000191660001916815260200182815260200192505050600060405180830381600087803b15801561347157600080fd5b505af1158015613485573d6000803e3d6000fd5b50505050613915565b600160009054906101000a900473ffffffffffffffffffffffffffffffffffffffff1673ffffffffffffffffffffffffffffffffffffffff1663ca446dd961350b8a6040805190810160405280600e81526020017f444953505554455f57494e4e455200000000000000000000000000000000000081525061408a565b888a11613518578661351a565b875b6040518363ffffffff167c01000000000000000000000000000000000000000000000000000000000281526004018083600019166000191681526020018273ffffffffffffffffffffffffffffffffffffffff1673ffffffffffffffffffffffffffffffffffffffff16815260200192505050600060405180830381600087803b1580156135a757600080fd5b505af11580156135bb573d6000803e3d6000fd5b50505050600260009054906101000a900473ffffffffffffffffffffffffffffffffffffffff1673ffffffffffffffffffffffffffffffffffffffff1663a9059cbb600160009054906101000a900473ffffffffffffffffffffffffffffffffffffffff1673ffffffffffffffffffffffffffffffffffffffff166321f8a72161367a8c6040805190810160405280600e81526020017f444953505554455f57494e4e455200000000000000000000000000000000000081525061408a565b6040518263ffffffff167c0100000000000000000000000000000000000000000000000000000000028152600401808260001916600019168152602001915050602060405180830381600087803b1580156136d457600080fd5b505af11580156136e8573d6000803e3d6000fd5b505050506040513d60208110156136fe57600080fd5b8101908080519060200190929190505050836040518363ffffffff167c0100000000000000000000000000000000000000000000000000000000028152600401808373ffffffffffffffffffffffffffffffffffffffff1673ffffffffffffffffffffffffffffffffffffffff16815260200182815260200192505050602060405180830381600087803b15801561379557600080fd5b505af11580156137a9573d6000803e3d6000fd5b505050506040513d60208110156137bf57600080fd5b810190808051906020019092919050505015156137db57600080fd5b600360009054906101000a900473ffffffffffffffffffffffffffffffffffffffff1673ffffffffffffffffffffffffffffffffffffffff16632f6aee25896040518263ffffffff167c01000000000000000000000000000000000000000000000000000000000281526004018080602001828103825283818151815260200191508051906020019080838360005b8381101561388557808201518184015260208101905061386a565b50505050905090810190601f1680156138b25780820380516001836020036101000a031916815260200191505b5092505050602060405180830381600087803b1580156138d157600080fd5b505af11580156138e5573d6000803e3d6000fd5b505050506040513d60208110156138fb57600080fd5b8101908080519060200190929190505050151561391457fe5b5b5b61391f88614a4b565b600019167f1bdbf7dc7c45c579e94c820f5f2d107ca885d42ec890d8cf89fe0da0ad8d9e9188888b6040518084815260200183815260200180602001828103825283818151815260200191508051906020019080838360005b83811015613993578082015181840152602081019050613978565b50505050905090810190601f1680156139c05780820380516001836020036101000a031916815260200191505b5094505050505060405180910390a25050505050505050565b600073ffffffffffffffffffffffffffffffffffffffff166000809054906101000a900473ffffffffffffffffffffffffffffffffffffffff1673ffffffffffffffffffffffffffffffffffffffff16141515613a8c576000809054906101000a900473ffffffffffffffffffffffffffffffffffffffff1673ffffffffffffffffffffffffffffffffffffffff163373ffffffffffffffffffffffffffffffffffffffff16141515613a8b57600080fd5b5b613a9581615d5e565b50565b6000600160009054906101000a900473ffffffffffffffffffffffffffffffffffffffff1673ffffffffffffffffffffffffffffffffffffffff1663bd02d0f5613b17846040805190810160405280600c81526020017f504f4c4c5f434f554e544552000000000000000000000000000000000000000081525061408a565b6040518263ffffffff167c0100000000000000000000000000000000000000000000000000000000028152600401808260001916600019168152602001915050602060405180830381600087803b158015613b7157600080fd5b505af1158015613b85573d6000803e3d6000fd5b505050506040513d6020811015613b9b57600080fd5b81019080805190602001909291905050509050919050565b6000806000600160009054906101000a900473ffffffffffffffffffffffffffffffffffffffff1673ffffffffffffffffffffffffffffffffffffffff166321f8a721613bff86614a4b565b6040518263ffffffff167c0100000000000000000000000000000000000000000000000000000000028152600401808260001916600019168152602001915050602060405180830381600087803b158015613c5957600080fd5b505af1158015613c6d573d6000803e3d6000fd5b505050506040513d6020811015613c8357600080fd5b81019080805190602001909291905050509150600160009054906101000a900473ffffffffffffffffffffffffffffffffffffffff1673ffffffffffffffffffffffffffffffffffffffff166321f8a721613d13866040805190810160405280600a81526020017f465245454c414e4345520000000000000000000000000000000000000000000081525061408a565b6040518263ffffffff167c0100000000000000000000000000000000000000000000000000000000028152600401808260001916600019168152602001915050602060405180830381600087803b158015613d6d57600080fd5b505af1158015613d81573d6000803e3d6000fd5b505050506040513d6020811015613d9757600080fd5b810190808051906020019092919050505090508173ffffffffffffffffffffffffffffffffffffffff163373ffffffffffffffffffffffffffffffffffffffff161480613e0f57508073ffffffffffffffffffffffffffffffffffffffff163373ffffffffffffffffffffffffffffffffffffffff16145b92505050919050565b6000806000600160009054906101000a900473ffffffffffffffffffffffffffffffffffffffff1673ffffffffffffffffffffffffffffffffffffffff1663bd02d0f5613e9a866040805190810160405280600681526020017f535441545553000000000000000000000000000000000000000000000000000081525061408a565b6040518263ffffffff167c0100000000000000000000000000000000000000000000000000000000028152600401808260001916600019168152602001915050602060405180830381600087803b158015613ef457600080fd5b505af1158015613f08573d6000803e3d6000fd5b505050506040513d6020811015613f1e57600080fd5b81019080805190602001909291905050509150600160009054906101000a900473ffffffffffffffffffffffffffffffffffffffff1673ffffffffffffffffffffffffffffffffffffffff166321f8a721613fae866040805190810160405280600e81526020017f444953505554455f57494e4e455200000000000000000000000000000000000081525061408a565b6040518263ffffffff167c0100000000000000000000000000000000000000000000000000000000028152600401808260001916600019168152602001915050602060405180830381600087803b15801561400857600080fd5b505af115801561401c573d6000803e3d6000fd5b505050506040513d602081101561403257600080fd5b810190808051906020019092919050505090506006821480156140815750600073ffffffffffffffffffffffffffffffffffffffff168173ffffffffffffffffffffffffffffffffffffffff16145b92505050919050565b600082826040516020018083805190602001908083835b6020831015156140c657805182526020820191506020810190506020830392506140a1565b6001836020036101000a03801982511681845116808217855250505050505090500182805190602001908083835b60208310151561411957805182526020820191506020810190506020830392506140f4565b6001836020036101000a038019825116818451168082178552505050505050905001925050506040516020818303038152906040526040518082805190602001908083835b602083101515614183578051825260208201915060208101905060208303925061415e565b6001836020036101000a0380198251168184511680821785525050505050509050019150506040518091039020905092915050565b60008383836040516020018084805190602001908083835b6020831015156141f557805182526020820191506020810190506020830392506141d0565b6001836020036101000a03801982511681845116808217855250505050505090500183815260200182805190602001908083835b60208310151561424e5780518252602082019150602081019050602083039250614229565b6001836020036101000a03801982511681845116808217855250505050505090500193505050506040516020818303038152906040526040518082805190602001908083835b6020831015156142b95780518252602082019150602081019050602083039250614294565b6001836020036101000a038019825116818451168082178552505050505050905001915050604051809103902090509392505050565b6000600160009054906101000a900473ffffffffffffffffffffffffffffffffffffffff1673ffffffffffffffffffffffffffffffffffffffff1663bd02d0f561437087866040805190810160405280600e81526020017f5354414b45445f4445504f534954000000000000000000000000000000000000815250876148d0565b6040518263ffffffff167c0100000000000000000000000000000000000000000000000000000000028152600401808260001916600019168152602001915050602060405180830381600087803b1580156143ca57600080fd5b505af11580156143de573d6000803e3d6000fd5b505050506040513d60208110156143f457600080fd5b81019080805190602001909291905050509050600260009054906101000a900473ffffffffffffffffffffffffffffffffffffffff1673ffffffffffffffffffffffffffffffffffffffff166323b872dd3330846040518463ffffffff167c0100000000000000000000000000000000000000000000000000000000028152600401808473ffffffffffffffffffffffffffffffffffffffff1673ffffffffffffffffffffffffffffffffffffffff1681526020018373ffffffffffffffffffffffffffffffffffffffff1673ffffffffffffffffffffffffffffffffffffffff1681526020018281526020019350505050602060405180830381600087803b15801561450057600080fd5b505af1158015614514573d6000803e3d6000fd5b505050506040513d602081101561452a57600080fd5b8101908080519060200190929190505050151561454657600080fd5b600160009054906101000a900473ffffffffffffffffffffffffffffffffffffffff1673ffffffffffffffffffffffffffffffffffffffff1663e2a4853a6145c587866040805190810160405280600e81526020017f5354414b45445f4445504f534954000000000000000000000000000000000000815250336148d0565b836040518363ffffffff167c010000000000000000000000000000000000000000000000000000000002815260040180836000191660001916815260200182815260200192505050600060405180830381600087803b15801561462757600080fd5b505af115801561463b573d6000803e3d6000fd5b50505050600160009054906101000a900473ffffffffffffffffffffffffffffffffffffffff1673ffffffffffffffffffffffffffffffffffffffff16632e28d0846146bd87866040805190810160405280600d81526020017f414741494e53545f50524f4f46000000000000000000000000000000000000008152506141b8565b866040518363ffffffff167c010000000000000000000000000000000000000000000000000000000002815260040180836000191660001916815260200180602001828103825283818151815260200191508051906020019080838360005b8381101561473757808201518184015260208101905061471c565b50505050905090810190601f1680156147645780820380516001836020036101000a031916815260200191505b509350505050600060405180830381600087803b15801561478457600080fd5b505af1158015614798573d6000803e3d6000fd5b505050503373ffffffffffffffffffffffffffffffffffffffff166147bc86614a4b565b600019167f3446ed7eee166279523c3e4edb6d0d7090f7c9e5493edd4e263b331f3e3a402a8688604051808060200180602001838103835285818151815260200191508051906020019080838360005b8381101561482757808201518184015260208101905061480c565b50505050905090810190601f1680156148545780820380516001836020036101000a031916815260200191505b50838103825284818151815260200191508051906020019080838360005b8381101561488d578082015181840152602081019050614872565b50505050905090810190601f1680156148ba5780820380516001836020036101000a031916815260200191505b5094505050505060405180910390a35050505050565b6000848484846040516020018085805190602001908083835b60208310151561490e57805182526020820191506020810190506020830392506148e9565b6001836020036101000a03801982511681845116808217855250505050505090500184815260200183805190602001908083835b6020831015156149675780518252602082019150602081019050602083039250614942565b6001836020036101000a0380198251168184511680821785525050505050509050018273ffffffffffffffffffffffffffffffffffffffff1673ffffffffffffffffffffffffffffffffffffffff166c010000000000000000000000000281526014019450505050506040516020818303038152906040526040518082805190602001908083835b602083101515614a1457805182526020820191506020810190506020830392506149ef565b6001836020036101000a03801982511681845116808217855250505050505090500191505060405180910390209050949350505050565b6000816040516020018082805190602001908083835b602083101515614a865780518252602082019150602081019050602083039250614a61565b6001836020036101000a0380198251168184511680821785525050505050509050019150506040516020818303038152906040526040518082805190602001908083835b602083101515614aef5780518252602082019150602081019050602083039250614aca565b6001836020036101000a03801982511681845116808217855250505050505090500191505060405180910390209050919050565b60008183019050828110151515614b3657fe5b80905092915050565b6000806000600160009054906101000a900473ffffffffffffffffffffffffffffffffffffffff1673ffffffffffffffffffffffffffffffffffffffff1663bd02d0f5614bc1866040805190810160405280600681526020017f535441545553000000000000000000000000000000000000000000000000000081525061408a565b6040518263ffffffff167c0100000000000000000000000000000000000000000000000000000000028152600401808260001916600019168152602001915050602060405180830381600087803b158015614c1b57600080fd5b505af1158015614c2f573d6000803e3d6000fd5b505050506040513d6020811015614c4557600080fd5b81019080805190602001909291905050509150600160009054906101000a900473ffffffffffffffffffffffffffffffffffffffff1673ffffffffffffffffffffffffffffffffffffffff166321f8a721614cd5866040805190810160405280600e81526020017f444953505554455f57494e4e455200000000000000000000000000000000000081525061408a565b6040518263ffffffff167c0100000000000000000000000000000000000000000000000000000000028152600401808260001916600019168152602001915050602060405180830381600087803b158015614d2f57600080fd5b505af1158015614d43573d6000803e3d6000fd5b505050506040513d6020811015614d5957600080fd5b81019080805190602001909291905050509050600482148015614da85750600073ffffffffffffffffffffffffffffffffffffffff168173ffffffffffffffffffffffffffffffffffffffff16145b92505050919050565b600080600080600080600080614dc68a613a98565b9750600160009054906101000a900473ffffffffffffffffffffffffffffffffffffffff1673ffffffffffffffffffffffffffffffffffffffff1663bd02d0f5614e446040805190810160405280601181526020017f45564944454e43455f4455524154494f4e000000000000000000000000000000815250614a4b565b6040518263ffffffff167c0100000000000000000000000000000000000000000000000000000000028152600401808260001916600019168152602001915050602060405180830381600087803b158015614e9e57600080fd5b505af1158015614eb2573d6000803e3d6000fd5b505050506040513d6020811015614ec857600080fd5b81019080805190602001909291905050509650600087111515614eea57600080fd5b600160009054906101000a900473ffffffffffffffffffffffffffffffffffffffff1673ffffffffffffffffffffffffffffffffffffffff1663bd02d0f5614f666040805190810160405280600f81526020017f434f4d4d49545f4455524154494f4e0000000000000000000000000000000000815250614a4b565b6040518263ffffffff167c0100000000000000000000000000000000000000000000000000000000028152600401808260001916600019168152602001915050602060405180830381600087803b158015614fc057600080fd5b505af1158015614fd4573d6000803e3d6000fd5b505050506040513d6020811015614fea57600080fd5b8101908080519060200190929190505050955060008611151561500c57600080fd5b600160009054906101000a900473ffffffffffffffffffffffffffffffffffffffff1673ffffffffffffffffffffffffffffffffffffffff1663bd02d0f56150886040805190810160405280600f81526020017f52455645414c5f4455524154494f4e0000000000000000000000000000000000815250614a4b565b6040518263ffffffff167c0100000000000000000000000000000000000000000000000000000000028152600401808260001916600019168152602001915050602060405180830381600087803b1580156150e257600080fd5b505af11580156150f6573d6000803e3d6000fd5b505050506040513d602081101561510c57600080fd5b8101908080519060200190929190505050945060008511151561512e57600080fd5b6151418742614b2390919063ffffffff16565b93506151568685614b2390919063ffffffff16565b925061516b8584614b2390919063ffffffff16565b9150600160009054906101000a900473ffffffffffffffffffffffffffffffffffffffff1673ffffffffffffffffffffffffffffffffffffffff1663bd02d0f56151e96040805190810160405280600e81526020017f5354414b45445f4445504f534954000000000000000000000000000000000000815250614a4b565b6040518263ffffffff167c0100000000000000000000000000000000000000000000000000000000028152600401808260001916600019168152602001915050602060405180830381600087803b15801561524357600080fd5b505af1158015615257573d6000803e3d6000fd5b505050506040513d602081101561526d57600080fd5b81019080805190602001909291905050509050600260009054906101000a900473ffffffffffffffffffffffffffffffffffffffff1673ffffffffffffffffffffffffffffffffffffffff166323b872dd3330846040518463ffffffff167c0100000000000000000000000000000000000000000000000000000000028152600401808473ffffffffffffffffffffffffffffffffffffffff1673ffffffffffffffffffffffffffffffffffffffff1681526020018373ffffffffffffffffffffffffffffffffffffffff1673ffffffffffffffffffffffffffffffffffffffff1681526020018281526020019350505050602060405180830381600087803b15801561537957600080fd5b505af115801561538d573d6000803e3d6000fd5b505050506040513d60208110156153a357600080fd5b810190808051906020019092919050505015156153bf57600080fd5b600160009054906101000a900473ffffffffffffffffffffffffffffffffffffffff1673ffffffffffffffffffffffffffffffffffffffff1663e2a4853a61543c8c6040805190810160405280600681526020017f535441545553000000000000000000000000000000000000000000000000000081525061408a565b60066040518363ffffffff167c010000000000000000000000000000000000000000000000000000000002815260040180836000191660001916815260200182815260200192505050600060405180830381600087803b15801561549f57600080fd5b505af11580156154b3573d6000803e3d6000fd5b505050506154cb600189614b2390919063ffffffff16565b9750600160009054906101000a900473ffffffffffffffffffffffffffffffffffffffff1673ffffffffffffffffffffffffffffffffffffffff1663e2a4853a61554a8c6040805190810160405280600c81526020017f504f4c4c5f434f554e544552000000000000000000000000000000000000000081525061408a565b8a6040518363ffffffff167c010000000000000000000000000000000000000000000000000000000002815260040180836000191660001916815260200182815260200192505050600060405180830381600087803b1580156155ac57600080fd5b505af11580156155c0573d6000803e3d6000fd5b50505050600160009054906101000a900473ffffffffffffffffffffffffffffffffffffffff1673ffffffffffffffffffffffffffffffffffffffff1663e2a4853a6156438c8b6040805190810160405280600e81526020017f5354414b45445f4445504f534954000000000000000000000000000000000000815250336148d0565b836040518363ffffffff167c010000000000000000000000000000000000000000000000000000000002815260040180836000191660001916815260200182815260200192505050600060405180830381600087803b1580156156a557600080fd5b505af11580156156b9573d6000803e3d6000fd5b50505050600160009054906101000a900473ffffffffffffffffffffffffffffffffffffffff1673ffffffffffffffffffffffffffffffffffffffff1663ca446dd961573a8c6040805190810160405280600c81526020017f504f4c4c5f53544152544544000000000000000000000000000000000000000081525061408a565b336040518363ffffffff167c01000000000000000000000000000000000000000000000000000000000281526004018083600019166000191681526020018273ffffffffffffffffffffffffffffffffffffffff1673ffffffffffffffffffffffffffffffffffffffff16815260200192505050600060405180830381600087803b1580156157c857600080fd5b505af11580156157dc573d6000803e3d6000fd5b50505050600160009054906101000a900473ffffffffffffffffffffffffffffffffffffffff1673ffffffffffffffffffffffffffffffffffffffff1663e2a4853a61585e8c8b6040805190810160405280601181526020017f4556454944454e43455f454e44444154450000000000000000000000000000008152506141b8565b866040518363ffffffff167c010000000000000000000000000000000000000000000000000000000002815260040180836000191660001916815260200182815260200192505050600060405180830381600087803b1580156158c057600080fd5b505af11580156158d4573d6000803e3d6000fd5b50505050600160009054906101000a900473ffffffffffffffffffffffffffffffffffffffff1673ffffffffffffffffffffffffffffffffffffffff1663e2a4853a6159568c8b6040805190810160405280600e81526020017f434f4d4d49545f454e44444154450000000000000000000000000000000000008152506141b8565b856040518363ffffffff167c010000000000000000000000000000000000000000000000000000000002815260040180836000191660001916815260200182815260200192505050600060405180830381600087803b1580156159b857600080fd5b505af11580156159cc573d6000803e3d6000fd5b50505050600160009054906101000a900473ffffffffffffffffffffffffffffffffffffffff1673ffffffffffffffffffffffffffffffffffffffff1663e2a4853a615a4e8c8b6040805190810160405280600e81526020017f52455645414c5f454e44444154450000000000000000000000000000000000008152506141b8565b846040518363ffffffff167c010000000000000000000000000000000000000000000000000000000002815260040180836000191660001916815260200182815260200192505050600060405180830381600087803b158015615ab057600080fd5b505af1158015615ac4573d6000803e3d6000fd5b50505050600160009054906101000a900473ffffffffffffffffffffffffffffffffffffffff1673ffffffffffffffffffffffffffffffffffffffff16632e28d084615b468c8b6040805190810160405280600d81526020017f43524541544f525f50524f4f46000000000000000000000000000000000000008152506141b8565b8b6040518363ffffffff167c010000000000000000000000000000000000000000000000000000000002815260040180836000191660001916815260200180602001828103825283818151815260200191508051906020019080838360005b83811015615bc0578082015181840152602081019050615ba5565b50505050905090810190601f168015615bed5780820380516001836020036101000a031916815260200191505b509350505050600060405180830381600087803b158015615c0d57600080fd5b505af1158015615c21573d6000803e3d6000fd5b505050503373ffffffffffffffffffffffffffffffffffffffff16615c458b614a4b565b600019167f55a5a1508ad6c6f9e85e20bf4ed779d73571f90ec2114d080bf8c27ae2a513368b8d604051808060200180602001838103835285818151815260200191508051906020019080838360005b83811015615cb0578082015181840152602081019050615c95565b50505050905090810190601f168015615cdd5780820380516001836020036101000a031916815260200191505b50838103825284818151815260200191508051906020019080838360005b83811015615d16578082015181840152602081019050615cfb565b50505050905090810190601f168015615d435780820380516001836020036101000a031916815260200191505b5094505050505060405180910390a350505050505050505050565b600073ffffffffffffffffffffffffffffffffffffffff168173ffffffffffffffffffffffffffffffffffffffff1614151515615d9a57600080fd5b8073ffffffffffffffffffffffffffffffffffffffff166000809054906101000a900473ffffffffffffffffffffffffffffffffffffffff1673ffffffffffffffffffffffffffffffffffffffff167f8be0079c531659141344cd1fd0a4f28419497f9722a3daafe3b4186f6b6457e060405160405180910390a3806000806101000a81548173ffffffffffffffffffffffffffffffffffffffff021916908373ffffffffffffffffffffffffffffffffffffffff160217905550505600a165627a7a72305820185da565ed7193648881eb480e5b95958280badf9a276950fa48fb8d6194db840029",
  "source": "pragma solidity ^0.4.24;\n\nimport './BBStandard.sol';\nimport './BBLib.sol';\nimport './BBFreelancerPayment.sol';\n\ncontract BBDispute is BBStandard{\n  BBFreelancerPayment public payment = BBFreelancerPayment(0x0);\n  function setPayment(address p) onlyOwner public  {\n    payment = BBFreelancerPayment(p);\n  }\n  event PollStarted(bytes32 indexed indexJobHash, bytes proofHash, address indexed creator, bytes jobHash);\n  event PollAgainsted(bytes32 indexed indexJobHash, address indexed creator,  bytes proofHash, bytes jobHash);\n  event PollFinalized(bytes32 indexed indexJobHash, uint256 jobOwnerVotes, uint256 freelancerVotes, bytes jobHash);\n  //event PollWhiteFlaged(bytes32 indexed indexJobHash, address indexed creator, bytes jobHash);\n  event PollUpdated(bytes32 indexed indexJobHash, bytes jobHash, bool whiteFlag);\n \n  function canCreatePoll(bytes jobHash) private constant returns (bool r){\n    address jobOwner = bbs.getAddress(BBLib.toB32(jobHash));\n    address freelancer = bbs.getAddress(BBLib.toB32(jobHash, 'FREELANCER'));\n    r = (msg.sender==jobOwner || msg.sender==freelancer);\n  }\n  function isDisputeJob(bytes jobHash) private constant returns(bool r){\n    uint256 jobStatus = bbs.getUint(BBLib.toB32(jobHash ,'STATUS'));\n    address winner = bbs.getAddress(BBLib.toB32(jobHash,'DISPUTE_WINNER'));\n    r = (jobStatus == 4 && winner==address(0x0));\n  }\n  function isDisputingJob(bytes jobHash) private constant returns(bool r){\n    uint256 jobStatus = bbs.getUint(BBLib.toB32(jobHash ,'STATUS'));\n    address winner = bbs.getAddress(BBLib.toB32(jobHash,'DISPUTE_WINNER'));\n    r = (jobStatus == 6 && winner==address(0x0));\n  }\n  function isAgaintsPoll(bytes jobHash) public constant returns(bool r){\n    r = BBLib.toB32(bbs.getBytes(BBLib.toB32(jobHash, getPollID(jobHash),'AGAINST_PROOF')))!=BBLib.toB32(\"\");\n  }\n  function getPollID(bytes jobHash) private constant returns(uint256 r){\n    r = bbs.getUint(BBLib.toB32(jobHash,'POLL_COUNTER'));\n  }\n\t/**\n  * @dev finalizePoll for poll\n  * @param jobHash Job Hash\n  * \n  */\n  function finalizePoll(bytes jobHash) public\n  {\n    (uint jobOwnerVotes, uint freelancerVotes, address jobOwner, address freelancer, uint256 pID) = getPoll(jobHash);\n    require(isDisputingJob(jobHash)==true);\n    address creator = bbs.getAddress(BBLib.toB32(jobHash, 'POLL_STARTED'));\n    require(creator!=address(0x0));\n    require(bbs.getUint(BBLib.toB32(jobHash, pID,'EVEIDENCE_ENDDATE'))<=now);\n\n    uint256 bboStake = bbs.getUint(BBLib.toB32(jobHash, pID,'STAKED_DEPOSIT',creator));\n\n    // check if not have against proof\n    if(!isAgaintsPoll(jobHash)){      \n      // set winner to creator \n      bbs.setAddress(BBLib.toB32(jobHash, 'DISPUTE_WINNER'),creator);\n      // refun staked for \n      require(bbo.transfer(creator,bboStake));\n      // cal finalizePayment\n      assert(payment.finalizeDispute(jobHash));\n    }else{\n      require(bbs.getUint(BBLib.toB32(jobHash, pID,'REVEAL_ENDDATE'))<=now);\n     \n      if(jobOwnerVotes == freelancerVotes){\n        // cancel poll\n        bbs.setAddress(BBLib.toB32(jobHash, 'POLL_STARTED'), address(0x0));\n        // refun money staked\n        require(bbo.transfer(jobOwner,bboStake));\n        require(bbo.transfer(freelancer,bboStake));\n        // status to 4\n        bbs.setUint(BBLib.toB32(jobHash, 'STATUS'), 4);\n        //TODO reset POLL\n      }else{\n        bbs.setAddress(BBLib.toB32(jobHash, 'DISPUTE_WINNER'), (jobOwnerVotes>freelancerVotes)?jobOwner:freelancer);\n        //refun money staked for winner\n        require(bbo.transfer(bbs.getAddress(BBLib.toB32(jobHash,'DISPUTE_WINNER')), bboStake));\n        // cal finalizePayment\n        assert(payment.finalizeDispute(jobHash));\n      }\n    }\n    emit PollFinalized(BBLib.toB32(jobHash), jobOwnerVotes, freelancerVotes, jobHash);\n  }\n\n  \n  /**\n  * @dev getPoll:\n  * @param jobHash Job Hash\n  * returns uint ownerVotes, uint freelancerVotes\n  * \n  */\n  function getPoll(bytes jobHash) public constant returns (uint256, uint256, address, address, uint256) {\n    uint256 pID = getPollID(jobHash);\n    address jobOwner = bbs.getAddress(BBLib.toB32(jobHash));\n    address freelancer = bbs.getAddress(BBLib.toB32(jobHash,'FREELANCER'));\n    uint jobOwnerVotes = bbs.getUint(BBLib.toB32(jobHash, pID,'VOTE_FOR',jobOwner));\n    uint freelancerVotes = bbs.getUint(BBLib.toB32(jobHash, pID,'VOTE_FOR',freelancer));    \n    return (jobOwnerVotes, freelancerVotes, jobOwner, freelancer, pID);\n  }\n  function getPollTiming(bytes jobHash) public view returns (uint256, uint256, uint256) {\n    uint256 pID = getPollID(jobHash);\n    uint256 evidenceEndDate = bbs.getUint(BBLib.toB32(jobHash, pID,'EVEIDENCE_ENDDATE'));\n    uint256 commitEndDate = bbs.getUint(BBLib.toB32(jobHash, pID,'COMMIT_ENDDATE'));\n    uint256 revealEndDate = bbs.getUint(BBLib.toB32(jobHash, pID,'REVEAL_ENDDATE'));\n    return (evidenceEndDate, commitEndDate, revealEndDate);\n  }\n  /**\n  * @dev startPoll\n  * @param jobHash Job Hash\n  * @param proofHash Hash of Proof \n  * \n  */\n  function startPoll(bytes jobHash, bytes proofHash) public \n  {\n    require(isDisputeJob(jobHash)==true);\n    require(canCreatePoll(jobHash)==true);\n    require(bbs.getAddress(BBLib.toB32(jobHash, 'POLL_STARTED'))==address(0x0));\n    return doStartPoll(jobHash, proofHash);\n  }\n  function doStartPoll(bytes jobHash, bytes proofHash) internal {\n    uint256 pID = getPollID(jobHash);\n    uint evidenceDuration = bbs.getUint(BBLib.toB32('EVIDENCE_DURATION'));\n    require(evidenceDuration > 0);\n    uint commitDuration = bbs.getUint(BBLib.toB32('COMMIT_DURATION'));\n    require(commitDuration > 0);\n    uint revealDuration = bbs.getUint(BBLib.toB32('REVEAL_DURATION'));\n    require(revealDuration > 0);\n    // evidenceEndDate\n    uint evidenceEndDate = block.timestamp.add(evidenceDuration);\n    // commitEndDate\n    uint commitEndDate = evidenceEndDate.add(commitDuration);\n    // revealEndDate\n    uint revealEndDate = commitEndDate.add(revealDuration);\n    \n    // require sender must staked \n    uint256 bboStake = bbs.getUint(BBLib.toB32('STAKED_DEPOSIT'));\n    require(bbo.transferFrom(msg.sender, address(this), bboStake));\n    //set status to 6\n    bbs.setUint(BBLib.toB32(jobHash ,'STATUS'), 6);\n    // save staked tokens\n    // incres pID\n    pID = pID.add(1);\n    bbs.setUint(BBLib.toB32(jobHash, 'POLL_COUNTER'), pID);\n    bbs.setUint(BBLib.toB32(jobHash, pID,'STAKED_DEPOSIT',msg.sender), bboStake);\n    // save startPoll address\n    bbs.setAddress(BBLib.toB32(jobHash, 'POLL_STARTED'), msg.sender);\n    \n    // save evidence,commit, reveal EndDate\n    bbs.setUint(BBLib.toB32(jobHash, pID,'EVEIDENCE_ENDDATE'), evidenceEndDate);\n    bbs.setUint(BBLib.toB32(jobHash, pID,'COMMIT_ENDDATE'), commitEndDate);\n    bbs.setUint(BBLib.toB32(jobHash, pID,'REVEAL_ENDDATE'), revealEndDate);\n    // save creator proofHash\n    bbs.setBytes(BBLib.toB32(jobHash, pID,'CREATOR_PROOF'), proofHash);\n\n    emit PollStarted(BBLib.toB32(jobHash), proofHash, msg.sender, jobHash);\n  }\n  /**\n  * @dev againstPoll\n  * @param jobHash Job Hash\n  * @param againstProofHash Hash of Against Proof \n  * \n  */\n  function againstPoll(bytes jobHash, bytes againstProofHash) public \n  {\n    uint256 pID = getPollID(jobHash);\n    require(canCreatePoll(jobHash)==true);\n    require(isDisputingJob(jobHash)==true);\n\n    address creator = bbs.getAddress(BBLib.toB32(jobHash, 'POLL_STARTED'));\n    require(creator!=0x0);\n    require(creator!=msg.sender);\n    require(bbs.getUint(BBLib.toB32(jobHash, pID,'EVEIDENCE_ENDDATE')) > now);\n    return doAgainstPoll(jobHash, againstProofHash, pID, creator);\n  }\n  function doAgainstPoll(bytes jobHash, bytes againstProofHash, uint256 pID, address creator) internal \n  {\n    // require sender must staked bbo equal the creator\n    uint256 bboStake = bbs.getUint(BBLib.toB32(jobHash, pID,'STAKED_DEPOSIT',creator));\n    require(bbo.transferFrom(msg.sender, address(this), bboStake));\n    bbs.setUint(BBLib.toB32(jobHash, pID,'STAKED_DEPOSIT',msg.sender), bboStake);\n\n    bbs.setBytes(BBLib.toB32(jobHash, pID,'AGAINST_PROOF'), againstProofHash);\n\n    emit PollAgainsted(BBLib.toB32(jobHash), msg.sender, againstProofHash, jobHash);\n  } \n\n  function updatePoll(bytes jobHash,bool whiteFlag) public {\n    require(canCreatePoll(jobHash)==true);\n    require(isDisputingJob(jobHash)==true);\n    (uint jobOwnerVotes, uint freelancerVotes, address jobOwner, address freelancer, uint256 pID) = getPoll(jobHash);\n    require(jobOwnerVotes==0);\n    require(freelancerVotes==0);    \n    if(whiteFlag == true){\n      bbs.setAddress(BBLib.toB32(jobHash, 'DISPUTE_WINNER'), (msg.sender==jobOwner)?freelancer:jobOwner);\n      uint256 bboStake = bbs.getUint(BBLib.toB32(jobHash, pID,'STAKED_DEPOSIT',jobOwner));\n      //refun money staked for users\n      require(bbo.transfer(jobOwner, bboStake));\n      require(bbo.transfer(freelancer, bboStake));\n      // // cal finalizePayment\n      assert(payment.finalizeDispute(jobHash));\n      \n    }else{\n      (uint evidenceEndDate, uint commitEndDate, uint revealEndDate) = getPollTiming(jobHash);\n      require(revealEndDate>now);\n      require(commitEndDate<now);\n      uint commitDuration = bbs.getUint(BBLib.toB32('COMMIT_DURATION'));\n      require(commitDuration > 0);\n      uint revealDuration = bbs.getUint(BBLib.toB32('REVEAL_DURATION'));\n      require(revealDuration > 0);\n      // commitEndDate\n      commitEndDate = block.timestamp.add(commitDuration);\n      // revealEndDate\n      revealEndDate = commitEndDate.add(revealDuration);\n\n      bbs.setUint(BBLib.toB32(jobHash, pID,'COMMIT_ENDDATE'), commitEndDate);\n      bbs.setUint(BBLib.toB32(jobHash, pID,'REVEAL_ENDDATE'), revealEndDate);\n    }\n    emit PollUpdated(BBLib.toB32(jobHash), jobHash, whiteFlag);\n  }\n\n  // function whiteflagPoll(bytes jobHash) public{\n  //   uint256 pID = getPollID(jobHash);\n  //   require(canCreatePoll(jobHash)==true);\n  //   require(isDisputingJob(jobHash)==true);\n  //   (uint jobOwnerVotes, uint freelancerVotes) = getPoll(jobHash);\n  //   require(jobOwnerVotes==0);\n  //   require(freelancerVotes==0);\n  //   address jobOwner = bbs.getAddress(BBLib.toB32(jobHash));\n  //   address freelancer = bbs.getAddress(BBLib.toB32(jobHash,'FREELANCER'));\n  //   address winner = (msg.sender==jobOwner)?freelancer:jobOwner;\n  //   bbs.setAddress(BBLib.toB32(jobHash, 'DISPUTE_WINNER'), winner);\n  //   uint256 bboStake = bbs.getUint(BBLib.toB32(jobHash, pID,'STAKED_DEPOSIT',jobOwner));\n  //   //refun money staked for users\n  //   require(bbo.transfer(jobOwner, bboStake));\n  //   require(bbo.transfer(freelancer, bboStake));\n  //   // // cal finalizePayment\n  //   assert(payment.finalizeDispute(jobHash));\n  //   emit PollWhiteFlaged(BBLib.toB32(jobHash), msg.sender, jobHash);\n  // }\n\n  // function extendPoll(bytes jobHash) public{\n  //   require(canCreatePoll(jobHash)==true);\n  //   require(isDisputingJob(jobHash)==true);\n  //   (uint jobOwnerVotes, uint freelancerVotes) = getPoll(jobHash);\n  //   require(jobOwnerVotes==0);\n  //   require(freelancerVotes==0);\n  //   (uint evidenceEndDate, uint commitEndDate, uint revealEndDate) = getPollTiming(jobHash);\n  //   require(revealEndDate>now);\n  //   require(commitEndDate<now);\n  //   uint256 pID = getPollID(jobHash);\n  //   uint commitDuration = bbs.getUint(BBLib.toB32('COMMIT_DURATION'));\n  //   require(commitDuration > 0);\n  //   uint revealDuration = bbs.getUint(BBLib.toB32('REVEAL_DURATION'));\n  //   require(revealDuration > 0);\n  //   // commitEndDate\n  //   commitEndDate = block.timestamp.add(commitDuration);\n  //   // revealEndDate\n  //   revealEndDate = commitEndDate.add(revealDuration);\n\n  //   bbs.setUint(BBLib.toB32(jobHash, pID,'COMMIT_ENDDATE'), commitEndDate);\n  //   bbs.setUint(BBLib.toB32(jobHash, pID,'REVEAL_ENDDATE'), revealEndDate);\n\n  //   emit PollExtended(BBLib.toB32(jobHash), jobHash);\n  // }\n\n}",
  "sourcePath": "/Users/yena/Documents/tuongnguyen/bigbom-digital-contract/src/contracts/BBDispute.sol",
  "compiler": {
    "name": "solc",
    "version": "0.4.24+commit.e67f0147.Emscripten.clang"
  },
  "schemaVersion": "2.0.1",
  "updatedAt": "2018-10-09T07:37:58.478Z"
}