{
  "contractName": "BBFreelancerBid",
  "abi": [
    {
      "constant": true,
      "inputs": [],
      "name": "bbo",
      "outputs": [
        {
          "name": "",
          "type": "address"
        }
      ],
      "payable": false,
      "stateMutability": "view",
      "type": "function"
    },
    {
      "constant": false,
      "inputs": [],
      "name": "getStorage",
      "outputs": [
        {
          "name": "",
          "type": "address"
        }
      ],
      "payable": false,
      "stateMutability": "nonpayable",
      "type": "function"
    },
    {
      "constant": false,
      "inputs": [],
      "name": "renounceOwnership",
      "outputs": [],
      "payable": false,
      "stateMutability": "nonpayable",
      "type": "function"
    },
    {
      "constant": false,
      "inputs": [
        {
          "name": "BBOAddress",
          "type": "address"
        }
      ],
      "name": "setBBO",
      "outputs": [],
      "payable": false,
      "stateMutability": "nonpayable",
      "type": "function"
    },
    {
      "constant": true,
      "inputs": [],
      "name": "owner",
      "outputs": [
        {
          "name": "",
          "type": "address"
        }
      ],
      "payable": false,
      "stateMutability": "view",
      "type": "function"
    },
    {
      "constant": false,
      "inputs": [
        {
          "name": "storageAddress",
          "type": "address"
        }
      ],
      "name": "setStorage",
      "outputs": [],
      "payable": false,
      "stateMutability": "nonpayable",
      "type": "function"
    },
    {
      "constant": false,
      "inputs": [
        {
          "name": "_newOwner",
          "type": "address"
        }
      ],
      "name": "transferOwnership",
      "outputs": [],
      "payable": false,
      "stateMutability": "nonpayable",
      "type": "function"
    },
    {
      "anonymous": false,
      "inputs": [
        {
          "indexed": false,
          "name": "jobHash",
          "type": "bytes"
        },
        {
          "indexed": true,
          "name": "owner",
          "type": "address"
        },
        {
          "indexed": false,
          "name": "bid",
          "type": "uint256"
        },
        {
          "indexed": false,
          "name": "created",
          "type": "uint256"
        }
      ],
      "name": "BidCreated",
      "type": ""
    },
    {
      "anonymous": false,
      "inputs": [
        {
          "indexed": false,
          "name": "jobHash",
          "type": "bytes"
        },
        {
          "indexed": true,
          "name": "owner",
          "type": "address"
        }
      ],
      "name": "BidCanceled",
      "type": ""
    },
    {
      "anonymous": false,
      "inputs": [
        {
          "indexed": false,
          "name": "jobHash",
          "type": "bytes"
        },
        {
          "indexed": true,
          "name": "freelancer",
          "type": "address"
        }
      ],
      "name": "BidAccepted",
      "type": ""
    },
    {
      "anonymous": false,
      "inputs": [
        {
          "indexed": true,
          "name": "previousOwner",
          "type": "address"
        }
      ],
      "name": "OwnershipRenounced",
      "type": ""
    },
    {
      "anonymous": false,
      "inputs": [
        {
          "indexed": true,
          "name": "previousOwner",
          "type": "address"
        },
        {
          "indexed": true,
          "name": "newOwner",
          "type": "address"
        }
      ],
      "name": "OwnershipTransferred",
      "type": ""
    },
    {
      "constant": false,
      "inputs": [
        {
          "name": "paymentAddress",
          "type": "address"
        }
      ],
      "name": "setPaymentContract",
      "outputs": [],
      "payable": false,
      "stateMutability": "nonpayable",
      "type": "function"
    },
    {
      "constant": false,
      "inputs": [],
      "name": "getPaymentContract",
      "outputs": [
        {
          "name": "",
          "type": "address"
        }
      ],
      "payable": false,
      "stateMutability": "nonpayable",
      "type": "function"
    },
    {
      "constant": false,
      "inputs": [
        {
          "name": "jobHash",
          "type": "bytes"
        },
        {
          "name": "bid",
          "type": "uint256"
        }
      ],
      "name": "createBid",
      "outputs": [],
      "payable": false,
      "stateMutability": "nonpayable",
      "type": "function"
    },
    {
      "constant": false,
      "inputs": [
        {
          "name": "jobHash",
          "type": "bytes"
        }
      ],
      "name": "cancelBid",
      "outputs": [],
      "payable": false,
      "stateMutability": "nonpayable",
      "type": "function"
    },
    {
      "constant": false,
      "inputs": [
        {
          "name": "jobHash",
          "type": "bytes"
        },
        {
          "name": "freelancer",
          "type": "address"
        }
      ],
      "name": "acceptBid",
      "outputs": [],
      "payable": false,
      "stateMutability": "nonpayable",
      "type": "function"
    }
  ],
  "bytecode": "0x60806040526000600160006101000a81548173ffffffffffffffffffffffffffffffffffffffff021916908373ffffffffffffffffffffffffffffffffffffffff1602179055506000600260006101000a81548173ffffffffffffffffffffffffffffffffffffffff021916908373ffffffffffffffffffffffffffffffffffffffff1602179055506000600360006101000a81548173ffffffffffffffffffffffffffffffffffffffff021916908373ffffffffffffffffffffffffffffffffffffffff160217905550336000806101000a81548173ffffffffffffffffffffffffffffffffffffffff021916908373ffffffffffffffffffffffffffffffffffffffff16021790555061310d806101196000396000f3006080604052600436106100ba576000357c0100000000000000000000000000000000000000000000000000000000900463ffffffff1680631e89bf06146100bf57806322f28b9c14610116578063243327411461016d5780633408f73a146101d65780636f519e891461022d578063715018a6146102a05780637937f46d146102b75780638abb20cc146102fa5780638da5cb5b1461033d5780639137c1a714610394578063c02060b0146103d7578063f2fde38b14610460575b600080fd5b3480156100cb57600080fd5b506100d46104a3565b604051808273ffffffffffffffffffffffffffffffffffffffff1673ffffffffffffffffffffffffffffffffffffffff16815260200191505060405180910390f35b34801561012257600080fd5b5061012b6104c9565b604051808273ffffffffffffffffffffffffffffffffffffffff1673ffffffffffffffffffffffffffffffffffffffff16815260200191505060405180910390f35b34801561017957600080fd5b506101d4600480360381019080803590602001908201803590602001908080601f016020809104026020016040519081016040528093929190818152602001838380828437820191505050505050919291929050505061054e565b005b3480156101e257600080fd5b506101eb610f46565b604051808273ffffffffffffffffffffffffffffffffffffffff1673ffffffffffffffffffffffffffffffffffffffff16815260200191505060405180910390f35b34801561023957600080fd5b5061029e600480360381019080803590602001908201803590602001908080601f016020809104026020016040519081016040528093929190818152602001838380828437820191505050505050919291929080359060200190929190505050610fcb565b005b3480156102ac57600080fd5b506102b561210d565b005b3480156102c357600080fd5b506102f8600480360381019080803573ffffffffffffffffffffffffffffffffffffffff16906020019092919050505061220f565b005b34801561030657600080fd5b5061033b600480360381019080803573ffffffffffffffffffffffffffffffffffffffff1690602001909291905050506122ae565b005b34801561034957600080fd5b5061035261234d565b604051808273ffffffffffffffffffffffffffffffffffffffff1673ffffffffffffffffffffffffffffffffffffffff16815260200191505060405180910390f35b3480156103a057600080fd5b506103d5600480360381019080803573ffffffffffffffffffffffffffffffffffffffff169060200190929190505050612372565b005b3480156103e357600080fd5b5061045e600480360381019080803590602001908201803590602001908080601f0160208091040260200160405190810160405280939291908181526020018383808284378201915050505050509192919290803573ffffffffffffffffffffffffffffffffffffffff169060200190929190505050612411565b005b34801561046c57600080fd5b506104a1600480360381019080803573ffffffffffffffffffffffffffffffffffffffff169060200190929190505050612f28565b005b600260009054906101000a900473ffffffffffffffffffffffffffffffffffffffff1681565b60008060009054906101000a900473ffffffffffffffffffffffffffffffffffffffff1673ffffffffffffffffffffffffffffffffffffffff163373ffffffffffffffffffffffffffffffffffffffff1614151561052657600080fd5b600360009054906101000a900473ffffffffffffffffffffffffffffffffffffffff16905090565b806000600160009054906101000a900473ffffffffffffffffffffffffffffffffffffffff1673ffffffffffffffffffffffffffffffffffffffff166321f8a721836040518082805190602001908083835b6020831015156105c557805182526020820191506020810190506020830392506105a0565b6001836020036101000a03801982511681845116808217855250505050505090500191505060405180910390206040518263ffffffff167c0100000000000000000000000000000000000000000000000000000000028152600401808260001916600019168152602001915050602060405180830381600087803b15801561064c57600080fd5b505af1158015610660573d6000803e3d6000fd5b505050506040513d602081101561067657600080fd5b8101908080519060200190929190505050905060008173ffffffffffffffffffffffffffffffffffffffff16141515156106af57600080fd5b8073ffffffffffffffffffffffffffffffffffffffff163373ffffffffffffffffffffffffffffffffffffffff16141515156106ea57600080fd5b6000600160009054906101000a900473ffffffffffffffffffffffffffffffffffffffff1673ffffffffffffffffffffffffffffffffffffffff1663bd02d0f585336040516020018083805190602001908083835b602083101515610764578051825260208201915060208101905060208303925061073f565b6001836020036101000a0380198251168184511680821785525050505050509050018273ffffffffffffffffffffffffffffffffffffffff1673ffffffffffffffffffffffffffffffffffffffff166c01000000000000000000000000028152601401925050506040516020818303038152906040526040518082805190602001908083835b60208310151561080f57805182526020820191506020810190506020830392506107ea565b6001836020036101000a03801982511681845116808217855250505050505090500191505060405180910390206040518263ffffffff167c0100000000000000000000000000000000000000000000000000000000028152600401808260001916600019168152602001915050602060405180830381600087803b15801561089657600080fd5b505af11580156108aa573d6000803e3d6000fd5b505050506040513d60208110156108c057600080fd5b8101908080519060200190929190505050141515156108de57600080fd5b6000600160009054906101000a900473ffffffffffffffffffffffffffffffffffffffff1673ffffffffffffffffffffffffffffffffffffffff166321f8a721856040516020018082805190602001908083835b6020831015156109575780518252602082019150602081019050602083039250610932565b6001836020036101000a038019825116818451168082178552505050505050905001807f667265656c616e63657200000000000000000000000000000000000000000000815250600a019150506040516020818303038152906040526040518082805190602001908083835b6020831015156109e857805182526020820191506020810190506020830392506109c3565b6001836020036101000a03801982511681845116808217855250505050505090500191505060405180910390206040518263ffffffff167c0100000000000000000000000000000000000000000000000000000000028152600401808260001916600019168152602001915050602060405180830381600087803b158015610a6f57600080fd5b505af1158015610a83573d6000803e3d6000fd5b505050506040513d6020811015610a9957600080fd5b810190808051906020019092919050505073ffffffffffffffffffffffffffffffffffffffff16141515610acc57600080fd5b600160009054906101000a900473ffffffffffffffffffffffffffffffffffffffff1673ffffffffffffffffffffffffffffffffffffffff1663e2a4853a84336040516020018083805190602001908083835b602083101515610b445780518252602082019150602081019050602083039250610b1f565b6001836020036101000a0380198251168184511680821785525050505050509050018273ffffffffffffffffffffffffffffffffffffffff1673ffffffffffffffffffffffffffffffffffffffff166c01000000000000000000000000028152601401925050506040516020818303038152906040526040518082805190602001908083835b602083101515610bef5780518252602082019150602081019050602083039250610bca565b6001836020036101000a038019825116818451168082178552505050505050905001915050604051809103902060006040518363ffffffff167c010000000000000000000000000000000000000000000000000000000002815260040180836000191660001916815260200182815260200192505050600060405180830381600087803b158015610c7f57600080fd5b505af1158015610c93573d6000803e3d6000fd5b50505050600160009054906101000a900473ffffffffffffffffffffffffffffffffffffffff1673ffffffffffffffffffffffffffffffffffffffff1663abfdcced84336040516020018083805190602001908083835b602083101515610d0f5780518252602082019150602081019050602083039250610cea565b6001836020036101000a0380198251168184511680821785525050505050509050018273ffffffffffffffffffffffffffffffffffffffff1673ffffffffffffffffffffffffffffffffffffffff166c01000000000000000000000000028152601401807f63616e63656c0000000000000000000000000000000000000000000000000000815250600601925050506040516020818303038152906040526040518082805190602001908083835b602083101515610de25780518252602082019150602081019050602083039250610dbd565b6001836020036101000a038019825116818451168082178552505050505050905001915050604051809103902060016040518363ffffffff167c01000000000000000000000000000000000000000000000000000000000281526004018083600019166000191681526020018215151515815260200192505050600060405180830381600087803b158015610e7657600080fd5b505af1158015610e8a573d6000803e3d6000fd5b505050503373ffffffffffffffffffffffffffffffffffffffff167f11b7466d1a33ad988a1a2754700ce760731862060f37570231447cc73895ce24846040518080602001828103825283818151815260200191508051906020019080838360005b83811015610f07578082015181840152602081019050610eec565b50505050905090810190601f168015610f345780820380516001836020036101000a031916815260200191505b509250505060405180910390a2505050565b60008060009054906101000a900473ffffffffffffffffffffffffffffffffffffffff1673ffffffffffffffffffffffffffffffffffffffff163373ffffffffffffffffffffffffffffffffffffffff16141515610fa357600080fd5b600160009054906101000a900473ffffffffffffffffffffffffffffffffffffffff16905090565b6000826000600160009054906101000a900473ffffffffffffffffffffffffffffffffffffffff1673ffffffffffffffffffffffffffffffffffffffff166321f8a721836040518082805190602001908083835b602083101515611044578051825260208201915060208101905060208303925061101f565b6001836020036101000a03801982511681845116808217855250505050505090500191505060405180910390206040518263ffffffff167c0100000000000000000000000000000000000000000000000000000000028152600401808260001916600019168152602001915050602060405180830381600087803b1580156110cb57600080fd5b505af11580156110df573d6000803e3d6000fd5b505050506040513d60208110156110f557600080fd5b8101908080519060200190929190505050905060008173ffffffffffffffffffffffffffffffffffffffff161415151561112e57600080fd5b8073ffffffffffffffffffffffffffffffffffffffff163373ffffffffffffffffffffffffffffffffffffffff161415151561116957600080fd5b8460011515600160009054906101000a900473ffffffffffffffffffffffffffffffffffffffff1673ffffffffffffffffffffffffffffffffffffffff16637ae1cfca836040516020018082805190602001908083835b6020831015156111e557805182526020820191506020810190506020830392506111c0565b6001836020036101000a038019825116818451168082178552505050505050905001807f63616e63656c00000000000000000000000000000000000000000000000000008152506006019150506040516020818303038152906040526040518082805190602001908083835b6020831015156112765780518252602082019150602081019050602083039250611251565b6001836020036101000a03801982511681845116808217855250505050505090500191505060405180910390206040518263ffffffff167c0100000000000000000000000000000000000000000000000000000000028152600401808260001916600019168152602001915050602060405180830381600087803b1580156112fd57600080fd5b505af1158015611311573d6000803e3d6000fd5b505050506040513d602081101561132757600080fd5b810190808051906020019092919050505015151415151561134757600080fd5b856000600160009054906101000a900473ffffffffffffffffffffffffffffffffffffffff1673ffffffffffffffffffffffffffffffffffffffff1663bd02d0f5836040516020018082805190602001908083835b6020831015156113c1578051825260208201915060208101905060208303925061139c565b6001836020036101000a038019825116818451168082178552505050505050905001807f73746174757300000000000000000000000000000000000000000000000000008152506006019150506040516020818303038152906040526040518082805190602001908083835b602083101515611452578051825260208201915060208101905060208303925061142d565b6001836020036101000a03801982511681845116808217855250505050505090500191505060405180910390206040518263ffffffff167c0100000000000000000000000000000000000000000000000000000000028152600401808260001916600019168152602001915050602060405180830381600087803b1580156114d957600080fd5b505af11580156114ed573d6000803e3d6000fd5b505050506040513d602081101561150357600080fd5b810190808051906020019092919050505014151561152057600080fd5b600160009054906101000a900473ffffffffffffffffffffffffffffffffffffffff1673ffffffffffffffffffffffffffffffffffffffff1663bd02d0f5886040516020018082805190602001908083835b6020831015156115975780518252602082019150602081019050602083039250611572565b6001836020036101000a038019825116818451168082178552505050505050905001807f62756467657400000000000000000000000000000000000000000000000000008152506006019150506040516020818303038152906040526040518082805190602001908083835b6020831015156116285780518252602082019150602081019050602083039250611603565b6001836020036101000a03801982511681845116808217855250505050505090500191505060405180910390206040518263ffffffff167c0100000000000000000000000000000000000000000000000000000000028152600401808260001916600019168152602001915050602060405180830381600087803b1580156116af57600080fd5b505af11580156116c3573d6000803e3d6000fd5b505050506040513d60208110156116d957600080fd5b810190808051906020019092919050505086111515156116f857600080fd5b60011515600160009054906101000a900473ffffffffffffffffffffffffffffffffffffffff1673ffffffffffffffffffffffffffffffffffffffff16637ae1cfca89336040516020018083805190602001908083835b602083101515611774578051825260208201915060208101905060208303925061174f565b6001836020036101000a0380198251168184511680821785525050505050509050018273ffffffffffffffffffffffffffffffffffffffff1673ffffffffffffffffffffffffffffffffffffffff166c01000000000000000000000000028152601401807f63616e63656c0000000000000000000000000000000000000000000000000000815250600601925050506040516020818303038152906040526040518082805190602001908083835b6020831015156118475780518252602082019150602081019050602083039250611822565b6001836020036101000a03801982511681845116808217855250505050505090500191505060405180910390206040518263ffffffff167c0100000000000000000000000000000000000000000000000000000000028152600401808260001916600019168152602001915050602060405180830381600087803b1580156118ce57600080fd5b505af11580156118e2573d6000803e3d6000fd5b505050506040513d60208110156118f857600080fd5b81019080805190602001909291905050501515141515611e7757600160009054906101000a900473ffffffffffffffffffffffffffffffffffffffff1673ffffffffffffffffffffffffffffffffffffffff1663bd02d0f5886040516020018082805190602001908083835b6020831015156119895780518252602082019150602081019050602083039250611964565b6001836020036101000a038019825116818451168082178552505050505050905001807f626964436f756e740000000000000000000000000000000000000000000000008152506008019150506040516020818303038152906040526040518082805190602001908083835b602083101515611a1a57805182526020820191506020810190506020830392506119f5565b6001836020036101000a03801982511681845116808217855250505050505090500191505060405180910390206040518263ffffffff167c0100000000000000000000000000000000000000000000000000000000028152600401808260001916600019168152602001915050602060405180830381600087803b158015611aa157600080fd5b505af1158015611ab5573d6000803e3d6000fd5b505050506040513d6020811015611acb57600080fd5b81019080805190602001909291905050509450600160009054906101000a900473ffffffffffffffffffffffffffffffffffffffff1673ffffffffffffffffffffffffffffffffffffffff1663e2a4853a886040516020018082805190602001908083835b602083101515611b555780518252602082019150602081019050602083039250611b30565b6001836020036101000a038019825116818451168082178552505050505050905001807f626964436f756e740000000000000000000000000000000000000000000000008152506008019150506040516020818303038152906040526040518082805190602001908083835b602083101515611be65780518252602082019150602081019050602083039250611bc1565b6001836020036101000a0380198251168184511680821785525050505050509050019150506040518091039020600188016040518363ffffffff167c010000000000000000000000000000000000000000000000000000000002815260040180836000191660001916815260200182815260200192505050600060405180830381600087803b158015611c7857600080fd5b505af1158015611c8c573d6000803e3d6000fd5b50505050600160009054906101000a900473ffffffffffffffffffffffffffffffffffffffff1673ffffffffffffffffffffffffffffffffffffffff1663ca446dd988600188016040516020018083805190602001908083835b602083101515611d0b5780518252602082019150602081019050602083039250611ce6565b6001836020036101000a038019825116818451168082178552505050505050905001807f6269640000000000000000000000000000000000000000000000000000000000815250600301828152602001925050506040516020818303038152906040526040518082805190602001908083835b602083101515611da35780518252602082019150602081019050602083039250611d7e565b6001836020036101000a0380198251168184511680821785525050505050509050019150506040518091039020336040518363ffffffff167c01000000000000000000000000000000000000000000000000000000000281526004018083600019166000191681526020018273ffffffffffffffffffffffffffffffffffffffff1673ffffffffffffffffffffffffffffffffffffffff16815260200192505050600060405180830381600087803b158015611e5e57600080fd5b505af1158015611e72573d6000803e3d6000fd5b505050505b600160009054906101000a900473ffffffffffffffffffffffffffffffffffffffff1673ffffffffffffffffffffffffffffffffffffffff1663e2a4853a88336040516020018083805190602001908083835b602083101515611eef5780518252602082019150602081019050602083039250611eca565b6001836020036101000a0380198251168184511680821785525050505050509050018273ffffffffffffffffffffffffffffffffffffffff1673ffffffffffffffffffffffffffffffffffffffff166c01000000000000000000000000028152601401925050506040516020818303038152906040526040518082805190602001908083835b602083101515611f9a5780518252602082019150602081019050602083039250611f75565b6001836020036101000a0380198251168184511680821785525050505050509050019150506040518091039020886040518363ffffffff167c010000000000000000000000000000000000000000000000000000000002815260040180836000191660001916815260200182815260200192505050600060405180830381600087803b15801561202957600080fd5b505af115801561203d573d6000803e3d6000fd5b505050503373ffffffffffffffffffffffffffffffffffffffff167f1c8cfb6e300418f00af7e8887491ab7e4079e5a90f5d475e60ea46b0780983fa8888426040518080602001848152602001838152602001828103825285818151815260200191508051906020019080838360005b838110156120c85780820151818401526020810190506120ad565b50505050905090810190601f1680156120f55780820380516001836020036101000a031916815260200191505b5094505050505060405180910390a250505050505050565b6000809054906101000a900473ffffffffffffffffffffffffffffffffffffffff1673ffffffffffffffffffffffffffffffffffffffff163373ffffffffffffffffffffffffffffffffffffffff1614151561216857600080fd5b6000809054906101000a900473ffffffffffffffffffffffffffffffffffffffff1673ffffffffffffffffffffffffffffffffffffffff167ff8df31144d9c2f0f6b59d69b8b98abd5459d07f2742c4df920b25aae33c6482060405160405180910390a260008060006101000a81548173ffffffffffffffffffffffffffffffffffffffff021916908373ffffffffffffffffffffffffffffffffffffffff160217905550565b6000809054906101000a900473ffffffffffffffffffffffffffffffffffffffff1673ffffffffffffffffffffffffffffffffffffffff163373ffffffffffffffffffffffffffffffffffffffff1614151561226a57600080fd5b80600260006101000a81548173ffffffffffffffffffffffffffffffffffffffff021916908373ffffffffffffffffffffffffffffffffffffffff16021790555050565b6000809054906101000a900473ffffffffffffffffffffffffffffffffffffffff1673ffffffffffffffffffffffffffffffffffffffff163373ffffffffffffffffffffffffffffffffffffffff1614151561230957600080fd5b80600360006101000a81548173ffffffffffffffffffffffffffffffffffffffff021916908373ffffffffffffffffffffffffffffffffffffffff16021790555050565b6000809054906101000a900473ffffffffffffffffffffffffffffffffffffffff1681565b6000809054906101000a900473ffffffffffffffffffffffffffffffffffffffff1673ffffffffffffffffffffffffffffffffffffffff163373ffffffffffffffffffffffffffffffffffffffff161415156123cd57600080fd5b80600160006101000a81548173ffffffffffffffffffffffffffffffffffffffff021916908373ffffffffffffffffffffffffffffffffffffffff16021790555050565b60003373ffffffffffffffffffffffffffffffffffffffff16600160009054906101000a900473ffffffffffffffffffffffffffffffffffffffff1673ffffffffffffffffffffffffffffffffffffffff166321f8a721856040518082805190602001908083835b60208310151561249e5780518252602082019150602081019050602083039250612479565b6001836020036101000a03801982511681845116808217855250505050505090500191505060405180910390206040518263ffffffff167c0100000000000000000000000000000000000000000000000000000000028152600401808260001916600019168152602001915050602060405180830381600087803b15801561252557600080fd5b505af1158015612539573d6000803e3d6000fd5b505050506040513d602081101561254f57600080fd5b810190808051906020019092919050505073ffffffffffffffffffffffffffffffffffffffff1614151561258257600080fd5b60011515600160009054906101000a900473ffffffffffffffffffffffffffffffffffffffff1673ffffffffffffffffffffffffffffffffffffffff16637ae1cfca856040516020018082805190602001908083835b6020831015156125fd57805182526020820191506020810190506020830392506125d8565b6001836020036101000a038019825116818451168082178552505050505050905001807f63616e63656c00000000000000000000000000000000000000000000000000008152506006019150506040516020818303038152906040526040518082805190602001908083835b60208310151561268e5780518252602082019150602081019050602083039250612669565b6001836020036101000a03801982511681845116808217855250505050505090500191505060405180910390206040518263ffffffff167c0100000000000000000000000000000000000000000000000000000000028152600401808260001916600019168152602001915050602060405180830381600087803b15801561271557600080fd5b505af1158015612729573d6000803e3d6000fd5b505050506040513d602081101561273f57600080fd5b810190808051906020019092919050505015151415151561275f57600080fd5b6000600160009054906101000a900473ffffffffffffffffffffffffffffffffffffffff1673ffffffffffffffffffffffffffffffffffffffff166321f8a721856040516020018082805190602001908083835b6020831015156127d857805182526020820191506020810190506020830392506127b3565b6001836020036101000a038019825116818451168082178552505050505050905001807f667265656c616e63657200000000000000000000000000000000000000000000815250600a019150506040516020818303038152906040526040518082805190602001908083835b6020831015156128695780518252602082019150602081019050602083039250612844565b6001836020036101000a03801982511681845116808217855250505050505090500191505060405180910390206040518263ffffffff167c0100000000000000000000000000000000000000000000000000000000028152600401808260001916600019168152602001915050602060405180830381600087803b1580156128f057600080fd5b505af1158015612904573d6000803e3d6000fd5b505050506040513d602081101561291a57600080fd5b810190808051906020019092919050505073ffffffffffffffffffffffffffffffffffffffff1614151561294d57600080fd5b600160009054906101000a900473ffffffffffffffffffffffffffffffffffffffff1673ffffffffffffffffffffffffffffffffffffffff1663ca446dd9846040516020018082805190602001908083835b6020831015156129c4578051825260208201915060208101905060208303925061299f565b6001836020036101000a038019825116818451168082178552505050505050905001807f667265656c616e63657200000000000000000000000000000000000000000000815250600a019150506040516020818303038152906040526040518082805190602001908083835b602083101515612a555780518252602082019150602081019050602083039250612a30565b6001836020036101000a0380198251168184511680821785525050505050509050019150506040518091039020846040518363ffffffff167c01000000000000000000000000000000000000000000000000000000000281526004018083600019166000191681526020018273ffffffffffffffffffffffffffffffffffffffff1673ffffffffffffffffffffffffffffffffffffffff16815260200192505050600060405180830381600087803b158015612b1057600080fd5b505af1158015612b24573d6000803e3d6000fd5b50505050600160009054906101000a900473ffffffffffffffffffffffffffffffffffffffff1673ffffffffffffffffffffffffffffffffffffffff1663bd02d0f584846040516020018083805190602001908083835b602083101515612ba05780518252602082019150602081019050602083039250612b7b565b6001836020036101000a0380198251168184511680821785525050505050509050018273ffffffffffffffffffffffffffffffffffffffff1673ffffffffffffffffffffffffffffffffffffffff166c01000000000000000000000000028152601401925050506040516020818303038152906040526040518082805190602001908083835b602083101515612c4b5780518252602082019150602081019050602083039250612c26565b6001836020036101000a03801982511681845116808217855250505050505090500191505060405180910390206040518263ffffffff167c0100000000000000000000000000000000000000000000000000000000028152600401808260001916600019168152602001915050602060405180830381600087803b158015612cd257600080fd5b505af1158015612ce6573d6000803e3d6000fd5b505050506040513d6020811015612cfc57600080fd5b81019080805190602001909291905050509050600260009054906101000a900473ffffffffffffffffffffffffffffffffffffffff1673ffffffffffffffffffffffffffffffffffffffff166323b872dd33600360009054906101000a900473ffffffffffffffffffffffffffffffffffffffff16846040518463ffffffff167c0100000000000000000000000000000000000000000000000000000000028152600401808473ffffffffffffffffffffffffffffffffffffffff1673ffffffffffffffffffffffffffffffffffffffff1681526020018373ffffffffffffffffffffffffffffffffffffffff1673ffffffffffffffffffffffffffffffffffffffff1681526020018281526020019350505050602060405180830381600087803b158015612e2a57600080fd5b505af1158015612e3e573d6000803e3d6000fd5b505050506040513d6020811015612e5457600080fd5b81019080805190602001909291905050501515612e7057600080fd5b8173ffffffffffffffffffffffffffffffffffffffff167ffcde7146e4d975bb5f78aab7a15e3a5605989baf701e612043031a73489f9fcd846040518080602001828103825283818151815260200191508051906020019080838360005b83811015612ee9578082015181840152602081019050612ece565b50505050905090810190601f168015612f165780820380516001836020036101000a031916815260200191505b509250505060405180910390a2505050565b600073ffffffffffffffffffffffffffffffffffffffff166000809054906101000a900473ffffffffffffffffffffffffffffffffffffffff1673ffffffffffffffffffffffffffffffffffffffff16141515612fdb576000809054906101000a900473ffffffffffffffffffffffffffffffffffffffff1673ffffffffffffffffffffffffffffffffffffffff163373ffffffffffffffffffffffffffffffffffffffff16141515612fda57600080fd5b5b612fe481612fe7565b50565b600073ffffffffffffffffffffffffffffffffffffffff168173ffffffffffffffffffffffffffffffffffffffff161415151561302357600080fd5b8073ffffffffffffffffffffffffffffffffffffffff166000809054906101000a900473ffffffffffffffffffffffffffffffffffffffff1673ffffffffffffffffffffffffffffffffffffffff167f8be0079c531659141344cd1fd0a4f28419497f9722a3daafe3b4186f6b6457e060405160405180910390a3806000806101000a81548173ffffffffffffffffffffffffffffffffffffffff021916908373ffffffffffffffffffffffffffffffffffffffff160217905550505600a165627a7a72305820d6489c6570237003381c97b431431d98fbbc100765e2d54dd27461baa8d751870029",
  "source": "pragma solidity ^0.4.24;\nimport './BBFreelancer.sol';\nimport './BBFreelancerPayment.sol';\n\ncontract BBFreelancerBid is BBFreelancer{\n\n  BBFreelancerPayment payment = BBFreelancerPayment(0x0);\n\n  function setPaymentContract(address paymentAddress) onlyOwner public {\n    payment = BBFreelancerPayment(paymentAddress);\n  }\n  function getPaymentContract() onlyOwner public returns (address)  {\n    return payment;\n  }\n\n   BidCreated(bytes jobHash, address indexed owner, uint256 bid, uint created);\n   BidCanceled(bytes jobHash, address indexed owner);\n   BidAccepted(bytes jobHash, address indexed freelancer);\n\n   // freelancer bid job\n  function createBid(bytes jobHash, uint256 bid) public \n   isNotOwnerJob(jobHash)\n   isNotCanceled(jobHash)\n   jobNotStarted(jobHash) {\n    \n    // bid must in range budget\n    require(bid <= bbs.getUint(keccak256(abi.encodePacked(jobHash, 'budget'))));\n    if(bbs.getBool(keccak256(abi.encodePacked(jobHash, msg.sender, 'cancel'))) != true){\n      // get number of bid total\n      uint256 jobBidCounter = bbs.getUint(keccak256(abi.encodePacked(jobHash,'bidCount')));\n      // set next user\n      bbs.setUint(keccak256(abi.encodePacked(jobHash,'bidCount')), jobBidCounter+1);\n      bbs.setAddress(keccak256(abi.encodePacked(jobHash,'bid', jobBidCounter+1)), msg.sender);\n    }\n    // set user bid value\n    bbs.setUint(keccak256(abi.encodePacked(jobHash,msg.sender)), bid);\n\n    emit BidCreated(jobHash, msg.sender, bid, now);\n  }\n  // freelancer cancel bid\n  function cancelBid(bytes jobHash) public isNotOwnerJob(jobHash) {\n    require(bbs.getUint(keccak256(abi.encodePacked(jobHash, msg.sender)))!=0x0);\n\n    // check the job is not has freelancer yet\n    require(bbs.getAddress(keccak256(abi.encodePacked(jobHash,'freelancer'))) == 0x0);\n    // set user bid value to 0\n    bbs.setUint(keccak256(abi.encodePacked(jobHash,msg.sender)), 0);\n    bbs.setBool(keccak256(abi.encodePacked(jobHash,msg.sender, 'cancel')), true);\n    emit BidCanceled(jobHash, msg.sender);\n  }\n\n  // hirer accept bid\n  function acceptBid(bytes jobHash, address freelancer) public {\n\n    require(bbs.getAddress(keccak256(jobHash))==msg.sender);\n    require(bbs.getBool(keccak256(abi.encodePacked(jobHash,'cancel'))) !=true);\n    require(bbs.getAddress(keccak256(abi.encodePacked(jobHash,'freelancer'))) == 0x0);\n\n    bbs.setAddress(keccak256(abi.encodePacked(jobHash,'freelancer')), freelancer);\n    uint256 bid = bbs.getUint(keccak256(abi.encodePacked(jobHash,freelancer)));\n    require(bbo.transferFrom(msg.sender, address(payment), bid));\n    emit BidAccepted(jobHash, freelancer);\n  }\n  \n}",
  "sourcePath": "/Users/yena/Documents/tuongnguyen/digital-contracts/src/contracts/BBFreelancerBid.sol",
  "compiler": {
    "name": "solc",
    "version": "0.4.24+commit.e67f0147.Emscripten.clang"
  },
  "schemaVersion": "2.0.1",
  "updatedAt": "2018-08-06T11:08:38.202Z"
}