{
  "contractName": "BBFreelancerPayment",
  "abi": [
    {
      "constant": true,
      "inputs": [],
      "name": "bbo",
      "outputs": [
        {
          "name": "",
          "type": "address"
        }
      ],
      "payable": false,
      "stateMutability": "view",
      "type": "function"
    },
    {
      "constant": false,
      "inputs": [],
      "name": "getStorage",
      "outputs": [
        {
          "name": "",
          "type": "address"
        }
      ],
      "payable": false,
      "stateMutability": "nonpayable",
      "type": "function"
    },
    {
      "constant": false,
      "inputs": [],
      "name": "renounceOwnership",
      "outputs": [],
      "payable": false,
      "stateMutability": "nonpayable",
      "type": "function"
    },
    {
      "constant": false,
      "inputs": [
        {
          "name": "BBOAddress",
          "type": "address"
        }
      ],
      "name": "setBBO",
      "outputs": [],
      "payable": false,
      "stateMutability": "nonpayable",
      "type": "function"
    },
    {
      "constant": true,
      "inputs": [],
      "name": "owner",
      "outputs": [
        {
          "name": "",
          "type": "address"
        }
      ],
      "payable": false,
      "stateMutability": "view",
      "type": "function"
    },
    {
      "constant": false,
      "inputs": [
        {
          "name": "storageAddress",
          "type": "address"
        }
      ],
      "name": "setStorage",
      "outputs": [],
      "payable": false,
      "stateMutability": "nonpayable",
      "type": "function"
    },
    {
      "constant": false,
      "inputs": [
        {
          "name": "_newOwner",
          "type": "address"
        }
      ],
      "name": "transferOwnership",
      "outputs": [],
      "payable": false,
      "stateMutability": "nonpayable",
      "type": "function"
    },
    {
      "anonymous": false,
      "inputs": [
        {
          "indexed": false,
          "name": "jobHash",
          "type": "bytes"
        },
        {
          "indexed": true,
          "name": "sender",
          "type": "address"
        }
      ],
      "name": "PaymentClaimed",
      "type": "event"
    },
    {
      "anonymous": false,
      "inputs": [
        {
          "indexed": false,
          "name": "jobHash",
          "type": "bytes"
        },
        {
          "indexed": true,
          "name": "sender",
          "type": "address"
        }
      ],
      "name": "PaymentAccepted",
      "type": "event"
    },
    {
      "anonymous": false,
      "inputs": [
        {
          "indexed": false,
          "name": "jobHash",
          "type": "bytes"
        },
        {
          "indexed": true,
          "name": "sender",
          "type": "address"
        }
      ],
      "name": "PaymentRejected",
      "type": "event"
    },
    {
      "anonymous": false,
      "inputs": [
        {
          "indexed": true,
          "name": "previousOwner",
          "type": "address"
        }
      ],
      "name": "OwnershipRenounced",
      "type": "event"
    },
    {
      "anonymous": false,
      "inputs": [
        {
          "indexed": true,
          "name": "previousOwner",
          "type": "address"
        },
        {
          "indexed": true,
          "name": "newOwner",
          "type": "address"
        }
      ],
      "name": "OwnershipTransferred",
      "type": "event"
    },
    {
      "constant": false,
      "inputs": [
        {
          "name": "jobHash",
          "type": "bytes"
        }
      ],
      "name": "acceptPayment",
      "outputs": [],
      "payable": false,
      "stateMutability": "nonpayable",
      "type": "function"
    },
    {
      "constant": false,
      "inputs": [
        {
          "name": "jobHash",
          "type": "bytes"
        }
      ],
      "name": "rejectPayment",
      "outputs": [],
      "payable": false,
      "stateMutability": "nonpayable",
      "type": "function"
    },
    {
      "constant": false,
      "inputs": [
        {
          "name": "jobHash",
          "type": "bytes"
        }
      ],
      "name": "claimePayment",
      "outputs": [],
      "payable": false,
      "stateMutability": "nonpayable",
      "type": "function"
    }
  ],
  "bytecode": "0x60806040526000600160006101000a81548173ffffffffffffffffffffffffffffffffffffffff021916908373ffffffffffffffffffffffffffffffffffffffff1602179055506000600260006101000a81548173ffffffffffffffffffffffffffffffffffffffff021916908373ffffffffffffffffffffffffffffffffffffffff160217905550336000806101000a81548173ffffffffffffffffffffffffffffffffffffffff021916908373ffffffffffffffffffffffffffffffffffffffff1602179055506122d6806100d76000396000f3006080604052600436106100a4576000357c0100000000000000000000000000000000000000000000000000000000900463ffffffff1680631e89bf06146100a95780632be76acc146101005780632de8385b146101695780633408f73a146101d25780636ab0fbe314610229578063715018a6146102925780637937f46d146102a95780638da5cb5b146102ec5780639137c1a714610343578063f2fde38b14610386575b600080fd5b3480156100b557600080fd5b506100be6103c9565b604051808273ffffffffffffffffffffffffffffffffffffffff1673ffffffffffffffffffffffffffffffffffffffff16815260200191505060405180910390f35b34801561010c57600080fd5b50610167600480360381019080803590602001908201803590602001908080601f01602080910402602001604051908101604052809392919081815260200183838082843782019150505050505091929192905050506103ef565b005b34801561017557600080fd5b506101d0600480360381019080803590602001908201803590602001908080601f016020809104026020016040519081016040528093929190818152602001838380828437820191505050505050919291929050505061099e565b005b3480156101de57600080fd5b506101e76111bb565b604051808273ffffffffffffffffffffffffffffffffffffffff1673ffffffffffffffffffffffffffffffffffffffff16815260200191505060405180910390f35b34801561023557600080fd5b50610290600480360381019080803590602001908201803590602001908080601f0160208091040260200160405190810160405280939291908181526020018383808284378201915050505050509192919290505050611240565b005b34801561029e57600080fd5b506102a7611e8c565b005b3480156102b557600080fd5b506102ea600480360381019080803573ffffffffffffffffffffffffffffffffffffffff169060200190929190505050611f8e565b005b3480156102f857600080fd5b5061030161202d565b604051808273ffffffffffffffffffffffffffffffffffffffff1673ffffffffffffffffffffffffffffffffffffffff16815260200191505060405180910390f35b34801561034f57600080fd5b50610384600480360381019080803573ffffffffffffffffffffffffffffffffffffffff169060200190929190505050612052565b005b34801561039257600080fd5b506103c7600480360381019080803573ffffffffffffffffffffffffffffffffffffffff1690602001909291905050506120f1565b005b600260009054906101000a900473ffffffffffffffffffffffffffffffffffffffff1681565b803373ffffffffffffffffffffffffffffffffffffffff16600160009054906101000a900473ffffffffffffffffffffffffffffffffffffffff1673ffffffffffffffffffffffffffffffffffffffff166321f8a721836040518082805190602001908083835b60208310151561047b5780518252602082019150602081019050602083039250610456565b6001836020036101000a03801982511681845116808217855250505050505090500191505060405180910390206040518263ffffffff167c0100000000000000000000000000000000000000000000000000000000028152600401808260001916600019168152602001915050602060405180830381600087803b15801561050257600080fd5b505af1158015610516573d6000803e3d6000fd5b505050506040513d602081101561052c57600080fd5b810190808051906020019092919050505073ffffffffffffffffffffffffffffffffffffffff1614151561055f57600080fd5b6002600160009054906101000a900473ffffffffffffffffffffffffffffffffffffffff1673ffffffffffffffffffffffffffffffffffffffff1663bd02d0f5846040516020018082805190602001908083835b6020831015156105d857805182526020820191506020810190506020830392506105b3565b6001836020036101000a038019825116818451168082178552505050505050905001807f73746174757300000000000000000000000000000000000000000000000000008152506006019150506040516020818303038152906040526040518082805190602001908083835b6020831015156106695780518252602082019150602081019050602083039250610644565b6001836020036101000a03801982511681845116808217855250505050505090500191505060405180910390206040518263ffffffff167c0100000000000000000000000000000000000000000000000000000000028152600401808260001916600019168152602001915050602060405180830381600087803b1580156106f057600080fd5b505af1158015610704573d6000803e3d6000fd5b505050506040513d602081101561071a57600080fd5b810190808051906020019092919050505014151561073757600080fd5b600160009054906101000a900473ffffffffffffffffffffffffffffffffffffffff1673ffffffffffffffffffffffffffffffffffffffff1663e2a4853a836040516020018082805190602001908083835b6020831015156107ae5780518252602082019150602081019050602083039250610789565b6001836020036101000a038019825116818451168082178552505050505050905001807f73746174757300000000000000000000000000000000000000000000000000008152506006019150506040516020818303038152906040526040518082805190602001908083835b60208310151561083f578051825260208201915060208101905060208303925061081a565b6001836020036101000a038019825116818451168082178552505050505050905001915050604051809103902060046040518363ffffffff167c010000000000000000000000000000000000000000000000000000000002815260040180836000191660001916815260200182815260200192505050600060405180830381600087803b1580156108cf57600080fd5b505af11580156108e3573d6000803e3d6000fd5b505050503373ffffffffffffffffffffffffffffffffffffffff167fd5992f984e49c16e9082f101e62b87b3d79137cd8dcc3d62f721677ecc01afe8836040518080602001828103825283818151815260200191508051906020019080838360005b83811015610960578082015181840152602081019050610945565b50505050905090810190601f16801561098d5780820380516001836020036101000a031916815260200191505b509250505060405180910390a25050565b803373ffffffffffffffffffffffffffffffffffffffff16600160009054906101000a900473ffffffffffffffffffffffffffffffffffffffff1673ffffffffffffffffffffffffffffffffffffffff166321f8a721836040516020018082805190602001908083835b602083101515610a2d5780518252602082019150602081019050602083039250610a08565b6001836020036101000a038019825116818451168082178552505050505050905001807f667265656c616e63657200000000000000000000000000000000000000000000815250600a019150506040516020818303038152906040526040518082805190602001908083835b602083101515610abe5780518252602082019150602081019050602083039250610a99565b6001836020036101000a03801982511681845116808217855250505050505090500191505060405180910390206040518263ffffffff167c0100000000000000000000000000000000000000000000000000000000028152600401808260001916600019168152602001915050602060405180830381600087803b158015610b4557600080fd5b505af1158015610b59573d6000803e3d6000fd5b505050506040513d6020811015610b6f57600080fd5b810190808051906020019092919050505073ffffffffffffffffffffffffffffffffffffffff16141515610ba257600080fd5b6002600160009054906101000a900473ffffffffffffffffffffffffffffffffffffffff1673ffffffffffffffffffffffffffffffffffffffff1663bd02d0f5846040516020018082805190602001908083835b602083101515610c1b5780518252602082019150602081019050602083039250610bf6565b6001836020036101000a038019825116818451168082178552505050505050905001807f73746174757300000000000000000000000000000000000000000000000000008152506006019150506040516020818303038152906040526040518082805190602001908083835b602083101515610cac5780518252602082019150602081019050602083039250610c87565b6001836020036101000a03801982511681845116808217855250505050505090500191505060405180910390206040518263ffffffff167c0100000000000000000000000000000000000000000000000000000000028152600401808260001916600019168152602001915050602060405180830381600087803b158015610d3357600080fd5b505af1158015610d47573d6000803e3d6000fd5b505050506040513d6020811015610d5d57600080fd5b810190808051906020019092919050505010151515610d7b57600080fd5b6009600160009054906101000a900473ffffffffffffffffffffffffffffffffffffffff1673ffffffffffffffffffffffffffffffffffffffff1663bd02d0f5846040516020018082805190602001908083835b602083101515610df45780518252602082019150602081019050602083039250610dcf565b6001836020036101000a038019825116818451168082178552505050505050905001807f73746174757300000000000000000000000000000000000000000000000000008152506006019150506040516020818303038152906040526040518082805190602001908083835b602083101515610e855780518252602082019150602081019050602083039250610e60565b6001836020036101000a03801982511681845116808217855250505050505090500191505060405180910390206040518263ffffffff167c0100000000000000000000000000000000000000000000000000000000028152600401808260001916600019168152602001915050602060405180830381600087803b158015610f0c57600080fd5b505af1158015610f20573d6000803e3d6000fd5b505050506040513d6020811015610f3657600080fd5b810190808051906020019092919050505014151515610f5457600080fd5b600160009054906101000a900473ffffffffffffffffffffffffffffffffffffffff1673ffffffffffffffffffffffffffffffffffffffff1663e2a4853a836040516020018082805190602001908083835b602083101515610fcb5780518252602082019150602081019050602083039250610fa6565b6001836020036101000a038019825116818451168082178552505050505050905001807f73746174757300000000000000000000000000000000000000000000000000008152506006019150506040516020818303038152906040526040518082805190602001908083835b60208310151561105c5780518252602082019150602081019050602083039250611037565b6001836020036101000a038019825116818451168082178552505050505050905001915050604051809103902060056040518363ffffffff167c010000000000000000000000000000000000000000000000000000000002815260040180836000191660001916815260200182815260200192505050600060405180830381600087803b1580156110ec57600080fd5b505af1158015611100573d6000803e3d6000fd5b505050503373ffffffffffffffffffffffffffffffffffffffff167f1b12fae60d4bf916e4b3da0e1389482769232aa8d895b8c527a948b715f2cd93836040518080602001828103825283818151815260200191508051906020019080838360005b8381101561117d578082015181840152602081019050611162565b50505050905090810190601f1680156111aa5780820380516001836020036101000a031916815260200191505b509250505060405180910390a25050565b60008060009054906101000a900473ffffffffffffffffffffffffffffffffffffffff1673ffffffffffffffffffffffffffffffffffffffff163373ffffffffffffffffffffffffffffffffffffffff1614151561121857600080fd5b600160009054906101000a900473ffffffffffffffffffffffffffffffffffffffff16905090565b600080823373ffffffffffffffffffffffffffffffffffffffff16600160009054906101000a900473ffffffffffffffffffffffffffffffffffffffff1673ffffffffffffffffffffffffffffffffffffffff166321f8a721836040518082805190602001908083835b6020831015156112cf57805182526020820191506020810190506020830392506112aa565b6001836020036101000a03801982511681845116808217855250505050505090500191505060405180910390206040518263ffffffff167c0100000000000000000000000000000000000000000000000000000000028152600401808260001916600019168152602001915050602060405180830381600087803b15801561135657600080fd5b505af115801561136a573d6000803e3d6000fd5b505050506040513d602081101561138057600080fd5b810190808051906020019092919050505073ffffffffffffffffffffffffffffffffffffffff161415156113b357600080fd5b6002600160009054906101000a900473ffffffffffffffffffffffffffffffffffffffff1673ffffffffffffffffffffffffffffffffffffffff1663bd02d0f5866040516020018082805190602001908083835b60208310151561142c5780518252602082019150602081019050602083039250611407565b6001836020036101000a038019825116818451168082178552505050505050905001807f73746174757300000000000000000000000000000000000000000000000000008152506006019150506040516020818303038152906040526040518082805190602001908083835b6020831015156114bd5780518252602082019150602081019050602083039250611498565b6001836020036101000a03801982511681845116808217855250505050505090500191505060405180910390206040518263ffffffff167c0100000000000000000000000000000000000000000000000000000000028152600401808260001916600019168152602001915050602060405180830381600087803b15801561154457600080fd5b505af1158015611558573d6000803e3d6000fd5b505050506040513d602081101561156e57600080fd5b81019080805190602001909291905050501015151561158c57600080fd5b6009600160009054906101000a900473ffffffffffffffffffffffffffffffffffffffff1673ffffffffffffffffffffffffffffffffffffffff1663bd02d0f5866040516020018082805190602001908083835b60208310151561160557805182526020820191506020810190506020830392506115e0565b6001836020036101000a038019825116818451168082178552505050505050905001807f73746174757300000000000000000000000000000000000000000000000000008152506006019150506040516020818303038152906040526040518082805190602001908083835b6020831015156116965780518252602082019150602081019050602083039250611671565b6001836020036101000a03801982511681845116808217855250505050505090500191505060405180910390206040518263ffffffff167c0100000000000000000000000000000000000000000000000000000000028152600401808260001916600019168152602001915050602060405180830381600087803b15801561171d57600080fd5b505af1158015611731573d6000803e3d6000fd5b505050506040513d602081101561174757600080fd5b81019080805190602001909291905050501415151561176557600080fd5b600160009054906101000a900473ffffffffffffffffffffffffffffffffffffffff1673ffffffffffffffffffffffffffffffffffffffff1663e2a4853a856040516020018082805190602001908083835b6020831015156117dc57805182526020820191506020810190506020830392506117b7565b6001836020036101000a038019825116818451168082178552505050505050905001807f73746174757300000000000000000000000000000000000000000000000000008152506006019150506040516020818303038152906040526040518082805190602001908083835b60208310151561186d5780518252602082019150602081019050602083039250611848565b6001836020036101000a038019825116818451168082178552505050505050905001915050604051809103902060096040518363ffffffff167c010000000000000000000000000000000000000000000000000000000002815260040180836000191660001916815260200182815260200192505050600060405180830381600087803b1580156118fd57600080fd5b505af1158015611911573d6000803e3d6000fd5b50505050600160009054906101000a900473ffffffffffffffffffffffffffffffffffffffff1673ffffffffffffffffffffffffffffffffffffffff166321f8a721856040516020018082805190602001908083835b60208310151561198c5780518252602082019150602081019050602083039250611967565b6001836020036101000a038019825116818451168082178552505050505050905001807f667265656c616e63657200000000000000000000000000000000000000000000815250600a019150506040516020818303038152906040526040518082805190602001908083835b602083101515611a1d57805182526020820191506020810190506020830392506119f8565b6001836020036101000a03801982511681845116808217855250505050505090500191505060405180910390206040518263ffffffff167c0100000000000000000000000000000000000000000000000000000000028152600401808260001916600019168152602001915050602060405180830381600087803b158015611aa457600080fd5b505af1158015611ab8573d6000803e3d6000fd5b505050506040513d6020811015611ace57600080fd5b81019080805190602001909291905050509250600160009054906101000a900473ffffffffffffffffffffffffffffffffffffffff1673ffffffffffffffffffffffffffffffffffffffff1663bd02d0f585856040516020018083805190602001908083835b602083101515611b595780518252602082019150602081019050602083039250611b34565b6001836020036101000a0380198251168184511680821785525050505050509050018273ffffffffffffffffffffffffffffffffffffffff1673ffffffffffffffffffffffffffffffffffffffff166c01000000000000000000000000028152601401925050506040516020818303038152906040526040518082805190602001908083835b602083101515611c045780518252602082019150602081019050602083039250611bdf565b6001836020036101000a03801982511681845116808217855250505050505090500191505060405180910390206040518263ffffffff167c0100000000000000000000000000000000000000000000000000000000028152600401808260001916600019168152602001915050602060405180830381600087803b158015611c8b57600080fd5b505af1158015611c9f573d6000803e3d6000fd5b505050506040513d6020811015611cb557600080fd5b81019080805190602001909291905050509150600260009054906101000a900473ffffffffffffffffffffffffffffffffffffffff1673ffffffffffffffffffffffffffffffffffffffff1663a9059cbb84846040518363ffffffff167c0100000000000000000000000000000000000000000000000000000000028152600401808373ffffffffffffffffffffffffffffffffffffffff1673ffffffffffffffffffffffffffffffffffffffff16815260200182815260200192505050602060405180830381600087803b158015611d8d57600080fd5b505af1158015611da1573d6000803e3d6000fd5b505050506040513d6020811015611db757600080fd5b81019080805190602001909291905050501515611dd357600080fd5b3373ffffffffffffffffffffffffffffffffffffffff167f7806707268d20331fff823a86de33fefb6af822e27e30e26c12e696fee000360856040518080602001828103825283818151815260200191508051906020019080838360005b83811015611e4c578082015181840152602081019050611e31565b50505050905090810190601f168015611e795780820380516001836020036101000a031916815260200191505b509250505060405180910390a250505050565b6000809054906101000a900473ffffffffffffffffffffffffffffffffffffffff1673ffffffffffffffffffffffffffffffffffffffff163373ffffffffffffffffffffffffffffffffffffffff16141515611ee757600080fd5b6000809054906101000a900473ffffffffffffffffffffffffffffffffffffffff1673ffffffffffffffffffffffffffffffffffffffff167ff8df31144d9c2f0f6b59d69b8b98abd5459d07f2742c4df920b25aae33c6482060405160405180910390a260008060006101000a81548173ffffffffffffffffffffffffffffffffffffffff021916908373ffffffffffffffffffffffffffffffffffffffff160217905550565b6000809054906101000a900473ffffffffffffffffffffffffffffffffffffffff1673ffffffffffffffffffffffffffffffffffffffff163373ffffffffffffffffffffffffffffffffffffffff16141515611fe957600080fd5b80600260006101000a81548173ffffffffffffffffffffffffffffffffffffffff021916908373ffffffffffffffffffffffffffffffffffffffff16021790555050565b6000809054906101000a900473ffffffffffffffffffffffffffffffffffffffff1681565b6000809054906101000a900473ffffffffffffffffffffffffffffffffffffffff1673ffffffffffffffffffffffffffffffffffffffff163373ffffffffffffffffffffffffffffffffffffffff161415156120ad57600080fd5b80600160006101000a81548173ffffffffffffffffffffffffffffffffffffffff021916908373ffffffffffffffffffffffffffffffffffffffff16021790555050565b600073ffffffffffffffffffffffffffffffffffffffff166000809054906101000a900473ffffffffffffffffffffffffffffffffffffffff1673ffffffffffffffffffffffffffffffffffffffff161415156121a4576000809054906101000a900473ffffffffffffffffffffffffffffffffffffffff1673ffffffffffffffffffffffffffffffffffffffff163373ffffffffffffffffffffffffffffffffffffffff161415156121a357600080fd5b5b6121ad816121b0565b50565b600073ffffffffffffffffffffffffffffffffffffffff168173ffffffffffffffffffffffffffffffffffffffff16141515156121ec57600080fd5b8073ffffffffffffffffffffffffffffffffffffffff166000809054906101000a900473ffffffffffffffffffffffffffffffffffffffff1673ffffffffffffffffffffffffffffffffffffffff167f8be0079c531659141344cd1fd0a4f28419497f9722a3daafe3b4186f6b6457e060405160405180910390a3806000806101000a81548173ffffffffffffffffffffffffffffffffffffffff021916908373ffffffffffffffffffffffffffffffffffffffff160217905550505600a165627a7a72305820fa13cf876f631e9c01b297eed4fcfc4e79c3b40f45c8d1ab6664538cac0d37640029",
  "source": "pragma solidity ^0.4.24;\nimport './BBFreelancer.sol';\n\ncontract BBFreelancerPayment is BBFreelancer{\n  event PaymentClaimed(bytes jobHash, address indexed sender);\n  event PaymentAccepted(bytes jobHash, address indexed sender);\n  event PaymentRejected(bytes jobHash, address indexed sender);\n\n  // hirer ok with finish Job\n  function acceptPayment(bytes jobHash)  public \n  isOwnerJob(jobHash) {\n    require(bbs.getUint(keccak256(abi.encodePacked(jobHash,'status'))) >= 2);\n    require(bbs.getUint(keccak256(abi.encodePacked(jobHash,'status'))) != 9);\n    bbs.setUint(keccak256(abi.encodePacked(jobHash,'status')), 9);\n    address freelancer = bbs.getAddress(keccak256(abi.encodePacked(jobHash,'freelancer')));\n    uint256 bid = bbs.getUint(keccak256(abi.encodePacked(jobHash,freelancer)));\n    //TODO release funs\n    require(bbo.transfer(freelancer, bid));\n    emit PaymentAccepted(jobHash, msg.sender);\n  }\n  // hirer not ok with finish Job\n  function rejectPayment(bytes jobHash) public \n  isOwnerJob(jobHash) {\n    require(bbs.getUint(keccak256(abi.encodePacked(jobHash,'status'))) == 2);\n    bbs.setUint(keccak256(abi.encodePacked(jobHash,'status')), 4);\n   emit PaymentRejected(jobHash, msg.sender);\n  }\n  // freelancer claimeJob with finish Job but hirer not accept payment \n  // need proof of work\n  function claimePayment(bytes jobHash) public isFreelancerOfJob(jobHash)\n  {\n    require(bbs.getUint(keccak256(abi.encodePacked(jobHash,'status'))) >= 2);\n    require(bbs.getUint(keccak256(abi.encodePacked(jobHash,'status'))) != 9);\n    bbs.setUint(keccak256(abi.encodePacked(jobHash,'status')), 5);\n    emit PaymentClaimed(jobHash, msg.sender);\n  }\n}",
  "sourcePath": "/Users/yena/Documents/tuongnguyen/digital-contracts/src/contracts/BBFreelancerPayment.sol",
  "compiler": {
    "name": "solc",
    "version": "0.4.24+commit.e67f0147.Emscripten.clang"
  },
  "schemaVersion": "2.0.1",
  "updatedAt": "2018-07-31T02:24:26.397Z"
}