{
  "contractName": "BBDispute",
  "abi": [
    {
      "constant": true,
      "inputs": [],
      "name": "bbo",
      "outputs": [
        {
          "name": "",
          "type": "address"
        }
      ],
      "payable": false,
      "stateMutability": "view",
      "type": "function"
    },
    {
      "constant": true,
      "inputs": [],
      "name": "bbs",
      "outputs": [
        {
          "name": "",
          "type": "address"
        }
      ],
      "payable": false,
      "stateMutability": "view",
      "type": "function"
    },
    {
      "constant": true,
      "inputs": [],
      "name": "payment",
      "outputs": [
        {
          "name": "",
          "type": "address"
        }
      ],
      "payable": false,
      "stateMutability": "view",
      "type": "function"
    },
    {
      "constant": false,
      "inputs": [],
      "name": "renounceOwnership",
      "outputs": [],
      "payable": false,
      "stateMutability": "nonpayable",
      "type": "function"
    },
    {
      "constant": false,
      "inputs": [
        {
          "name": "BBOAddress",
          "type": "address"
        }
      ],
      "name": "setBBO",
      "outputs": [],
      "payable": false,
      "stateMutability": "nonpayable",
      "type": "function"
    },
    {
      "constant": true,
      "inputs": [],
      "name": "owner",
      "outputs": [
        {
          "name": "",
          "type": "address"
        }
      ],
      "payable": false,
      "stateMutability": "view",
      "type": "function"
    },
    {
      "constant": false,
      "inputs": [
        {
          "name": "anyToken",
          "type": "address"
        }
      ],
      "name": "emergencyERC20Drain",
      "outputs": [],
      "payable": false,
      "stateMutability": "nonpayable",
      "type": "function"
    },
    {
      "constant": false,
      "inputs": [
        {
          "name": "storageAddress",
          "type": "address"
        }
      ],
      "name": "setStorage",
      "outputs": [],
      "payable": false,
      "stateMutability": "nonpayable",
      "type": "function"
    },
    {
      "constant": false,
      "inputs": [
        {
          "name": "_newOwner",
          "type": "address"
        }
      ],
      "name": "transferOwnership",
      "outputs": [],
      "payable": false,
      "stateMutability": "nonpayable",
      "type": "function"
    },
    {
      "anonymous": false,
      "inputs": [
        {
          "indexed": true,
          "name": "indexJobHash",
          "type": "bytes32"
        },
        {
          "indexed": false,
          "name": "proofHash",
          "type": "bytes"
        },
        {
          "indexed": true,
          "name": "creator",
          "type": "address"
        },
        {
          "indexed": false,
          "name": "jobHash",
          "type": "bytes"
        }
      ],
      "name": "PollStarted",
      "type": "event"
    },
    {
      "anonymous": false,
      "inputs": [
        {
          "indexed": true,
          "name": "indexJobHash",
          "type": "bytes32"
        },
        {
          "indexed": true,
          "name": "creator",
          "type": "address"
        },
        {
          "indexed": false,
          "name": "proofHash",
          "type": "bytes"
        },
        {
          "indexed": false,
          "name": "jobHash",
          "type": "bytes"
        }
      ],
      "name": "PollAgainsted",
      "type": "event"
    },
    {
      "anonymous": false,
      "inputs": [
        {
          "indexed": true,
          "name": "indexJobHash",
          "type": "bytes32"
        },
        {
          "indexed": false,
          "name": "jobOwnerVotes",
          "type": "uint256"
        },
        {
          "indexed": false,
          "name": "freelancerVotes",
          "type": "uint256"
        },
        {
          "indexed": false,
          "name": "jobHash",
          "type": "bytes"
        }
      ],
      "name": "PollFinalized",
      "type": "event"
    },
    {
      "anonymous": false,
      "inputs": [
        {
          "indexed": true,
          "name": "indexJobHash",
          "type": "bytes32"
        },
        {
          "indexed": true,
          "name": "creator",
          "type": "address"
        },
        {
          "indexed": false,
          "name": "jobHash",
          "type": "bytes"
        }
      ],
      "name": "PollWhiteFlaged",
      "type": "event"
    },
    {
      "anonymous": false,
      "inputs": [
        {
          "indexed": true,
          "name": "indexJobHash",
          "type": "bytes32"
        },
        {
          "indexed": false,
          "name": "jobHash",
          "type": "bytes"
        }
      ],
      "name": "PollExtended",
      "type": "event"
    },
    {
      "anonymous": false,
      "inputs": [
        {
          "indexed": true,
          "name": "previousOwner",
          "type": "address"
        }
      ],
      "name": "OwnershipRenounced",
      "type": "event"
    },
    {
      "anonymous": false,
      "inputs": [
        {
          "indexed": true,
          "name": "previousOwner",
          "type": "address"
        },
        {
          "indexed": true,
          "name": "newOwner",
          "type": "address"
        }
      ],
      "name": "OwnershipTransferred",
      "type": "event"
    },
    {
      "constant": false,
      "inputs": [
        {
          "name": "p",
          "type": "address"
        }
      ],
      "name": "setPayment",
      "outputs": [],
      "payable": false,
      "stateMutability": "nonpayable",
      "type": "function"
    },
    {
      "constant": true,
      "inputs": [
        {
          "name": "jobHash",
          "type": "bytes"
        }
      ],
      "name": "isAgaintsPoll",
      "outputs": [
        {
          "name": "r",
          "type": "bool"
        }
      ],
      "payable": false,
      "stateMutability": "view",
      "type": "function"
    },
    {
      "constant": false,
      "inputs": [
        {
          "name": "jobHash",
          "type": "bytes"
        }
      ],
      "name": "finalizePoll",
      "outputs": [],
      "payable": false,
      "stateMutability": "nonpayable",
      "type": "function"
    },
    {
      "constant": true,
      "inputs": [
        {
          "name": "jobHash",
          "type": "bytes"
        }
      ],
      "name": "getPoll",
      "outputs": [
        {
          "name": "",
          "type": "uint256"
        },
        {
          "name": "",
          "type": "uint256"
        }
      ],
      "payable": false,
      "stateMutability": "view",
      "type": "function"
    },
    {
      "constant": false,
      "inputs": [
        {
          "name": "jobHash",
          "type": "bytes"
        },
        {
          "name": "proofHash",
          "type": "bytes"
        }
      ],
      "name": "startPoll",
      "outputs": [],
      "payable": false,
      "stateMutability": "nonpayable",
      "type": "function"
    },
    {
      "constant": false,
      "inputs": [
        {
          "name": "jobHash",
          "type": "bytes"
        },
        {
          "name": "againstProofHash",
          "type": "bytes"
        }
      ],
      "name": "againstPoll",
      "outputs": [],
      "payable": false,
      "stateMutability": "nonpayable",
      "type": "function"
    },
    {
      "constant": false,
      "inputs": [
        {
          "name": "jobHash",
          "type": "bytes"
        }
      ],
      "name": "whiteflagPoll",
      "outputs": [],
      "payable": false,
      "stateMutability": "nonpayable",
      "type": "function"
    },
    {
      "constant": false,
      "inputs": [
        {
          "name": "jobHash",
          "type": "bytes"
        }
      ],
      "name": "extendPoll",
      "outputs": [],
      "payable": false,
      "stateMutability": "nonpayable",
      "type": "function"
    }
  ],
  "bytecode": "0x60806040526000600160006101000a81548173ffffffffffffffffffffffffffffffffffffffff021916908373ffffffffffffffffffffffffffffffffffffffff1602179055506000600260006101000a81548173ffffffffffffffffffffffffffffffffffffffff021916908373ffffffffffffffffffffffffffffffffffffffff1602179055506000600360006101000a81548173ffffffffffffffffffffffffffffffffffffffff021916908373ffffffffffffffffffffffffffffffffffffffff160217905550336000806101000a81548173ffffffffffffffffffffffffffffffffffffffff021916908373ffffffffffffffffffffffffffffffffffffffff160217905550615f4c806101196000396000f3006080604052600436106100f1576000357c0100000000000000000000000000000000000000000000000000000000900463ffffffff1680630e95870b146100f65780631e89bf06146101a55780631fde23a4146101fc57806342f6487a14610253578063715018a6146102aa5780637937f46d146102c1578063839bd27f146103045780638da5cb5b1461038857806390e8d82f146103df5780639137c1a7146104225780639ab06fcb14610465578063aacd61e0146104a8578063b2f481ed14610557578063b774629a146105d8578063dd76dfe714610641578063df153915146106aa578063f2fde38b14610713575b600080fd5b34801561010257600080fd5b506101a3600480360381019080803590602001908201803590602001908080601f0160208091040260200160405190810160405280939291908181526020018383808284378201915050505050509192919290803590602001908201803590602001908080601f0160208091040260200160405190810160405280939291908181526020018383808284378201915050505050509192919290505050610756565b005b3480156101b157600080fd5b506101ba610a41565b604051808273ffffffffffffffffffffffffffffffffffffffff1673ffffffffffffffffffffffffffffffffffffffff16815260200191505060405180910390f35b34801561020857600080fd5b50610211610a67565b604051808273ffffffffffffffffffffffffffffffffffffffff1673ffffffffffffffffffffffffffffffffffffffff16815260200191505060405180910390f35b34801561025f57600080fd5b50610268610a8d565b604051808273ffffffffffffffffffffffffffffffffffffffff1673ffffffffffffffffffffffffffffffffffffffff16815260200191505060405180910390f35b3480156102b657600080fd5b506102bf610ab3565b005b3480156102cd57600080fd5b50610302600480360381019080803573ffffffffffffffffffffffffffffffffffffffff169060200190929190505050610bb5565b005b34801561031057600080fd5b5061036b600480360381019080803590602001908201803590602001908080601f0160208091040260200160405190810160405280939291908181526020018383808284378201915050505050509192919290505050610c54565b604051808381526020018281526020019250505060405180910390f35b34801561039457600080fd5b5061039d611098565b604051808273ffffffffffffffffffffffffffffffffffffffff1673ffffffffffffffffffffffffffffffffffffffff16815260200191505060405180910390f35b3480156103eb57600080fd5b50610420600480360381019080803573ffffffffffffffffffffffffffffffffffffffff1690602001909291905050506110bd565b005b34801561042e57600080fd5b50610463600480360381019080803573ffffffffffffffffffffffffffffffffffffffff1690602001909291905050506113d1565b005b34801561047157600080fd5b506104a6600480360381019080803573ffffffffffffffffffffffffffffffffffffffff169060200190929190505050611470565b005b3480156104b457600080fd5b50610555600480360381019080803590602001908201803590602001908080601f0160208091040260200160405190810160405280939291908181526020018383808284378201915050505050509192919290803590602001908201803590602001908080601f016020809104026020016040519081016040528093929190818152602001838380828437820191505050505050919291929050505061150f565b005b34801561056357600080fd5b506105be600480360381019080803590602001908201803590602001908080601f016020809104026020016040519081016040528093929190818152602001838380828437820191505050505050919291929050505061169f565b604051808215151515815260200191505060405180910390f35b3480156105e457600080fd5b5061063f600480360381019080803590602001908201803590602001908080601f0160208091040260200160405190810160405280939291908181526020018383808284378201915050505050509192919290505050611844565b005b34801561064d57600080fd5b506106a8600480360381019080803590602001908201803590602001908080601f0160208091040260200160405190810160405280939291908181526020018383808284378201915050505050509192919290505050612c21565b005b3480156106b657600080fd5b50610711600480360381019080803590602001908201803590602001908080601f0160208091040260200160405190810160405280939291908181526020018383808284378201915050505050509192919290505050613519565b005b34801561071f57600080fd5b50610754600480360381019080803573ffffffffffffffffffffffffffffffffffffffff169060200190929190505050613aa1565b005b60008061076284613b60565b91506001151561077185613c7b565b151514151561077f57600080fd5b6001151561078c85613ee0565b151514151561079a57600080fd5b600160009054906101000a900473ffffffffffffffffffffffffffffffffffffffff1673ffffffffffffffffffffffffffffffffffffffff166321f8a721610817866040805190810160405280600c81526020017f504f4c4c5f535441525445440000000000000000000000000000000000000000815250614152565b6040518263ffffffff167c0100000000000000000000000000000000000000000000000000000000028152600401808260001916600019168152602001915050602060405180830381600087803b15801561087157600080fd5b505af1158015610885573d6000803e3d6000fd5b505050506040513d602081101561089b57600080fd5b8101908080519060200190929190505050905060008173ffffffffffffffffffffffffffffffffffffffff16141515156108d457600080fd5b3373ffffffffffffffffffffffffffffffffffffffff168173ffffffffffffffffffffffffffffffffffffffff161415151561090f57600080fd5b42600160009054906101000a900473ffffffffffffffffffffffffffffffffffffffff1673ffffffffffffffffffffffffffffffffffffffff1663bd02d0f561098e87866040805190810160405280601181526020017f4556454944454e43455f454e4444415445000000000000000000000000000000815250614280565b6040518263ffffffff167c0100000000000000000000000000000000000000000000000000000000028152600401808260001916600019168152602001915050602060405180830381600087803b1580156109e857600080fd5b505af11580156109fc573d6000803e3d6000fd5b505050506040513d6020811015610a1257600080fd5b8101908080519060200190929190505050111515610a2f57600080fd5b610a3b848484846143b7565b50505050565b600260009054906101000a900473ffffffffffffffffffffffffffffffffffffffff1681565b600160009054906101000a900473ffffffffffffffffffffffffffffffffffffffff1681565b600360009054906101000a900473ffffffffffffffffffffffffffffffffffffffff1681565b6000809054906101000a900473ffffffffffffffffffffffffffffffffffffffff1673ffffffffffffffffffffffffffffffffffffffff163373ffffffffffffffffffffffffffffffffffffffff16141515610b0e57600080fd5b6000809054906101000a900473ffffffffffffffffffffffffffffffffffffffff1673ffffffffffffffffffffffffffffffffffffffff167ff8df31144d9c2f0f6b59d69b8b98abd5459d07f2742c4df920b25aae33c6482060405160405180910390a260008060006101000a81548173ffffffffffffffffffffffffffffffffffffffff021916908373ffffffffffffffffffffffffffffffffffffffff160217905550565b6000809054906101000a900473ffffffffffffffffffffffffffffffffffffffff1673ffffffffffffffffffffffffffffffffffffffff163373ffffffffffffffffffffffffffffffffffffffff16141515610c1057600080fd5b80600260006101000a81548173ffffffffffffffffffffffffffffffffffffffff021916908373ffffffffffffffffffffffffffffffffffffffff16021790555050565b6000806000806000806000610c6888613b60565b9450600160009054906101000a900473ffffffffffffffffffffffffffffffffffffffff1673ffffffffffffffffffffffffffffffffffffffff166321f8a721610cb18a614998565b6040518263ffffffff167c0100000000000000000000000000000000000000000000000000000000028152600401808260001916600019168152602001915050602060405180830381600087803b158015610d0b57600080fd5b505af1158015610d1f573d6000803e3d6000fd5b505050506040513d6020811015610d3557600080fd5b81019080805190602001909291905050509350600160009054906101000a900473ffffffffffffffffffffffffffffffffffffffff1673ffffffffffffffffffffffffffffffffffffffff166321f8a721610dc58a6040805190810160405280600a81526020017f465245454c414e43455200000000000000000000000000000000000000000000815250614152565b6040518263ffffffff167c0100000000000000000000000000000000000000000000000000000000028152600401808260001916600019168152602001915050602060405180830381600087803b158015610e1f57600080fd5b505af1158015610e33573d6000803e3d6000fd5b505050506040513d6020811015610e4957600080fd5b81019080805190602001909291905050509250600160009054906101000a900473ffffffffffffffffffffffffffffffffffffffff1673ffffffffffffffffffffffffffffffffffffffff1663bd02d0f5610edb8a886040805190810160405280600881526020017f564f54455f464f5200000000000000000000000000000000000000000000000081525089614a70565b6040518263ffffffff167c0100000000000000000000000000000000000000000000000000000000028152600401808260001916600019168152602001915050602060405180830381600087803b158015610f3557600080fd5b505af1158015610f49573d6000803e3d6000fd5b505050506040513d6020811015610f5f57600080fd5b81019080805190602001909291905050509150600160009054906101000a900473ffffffffffffffffffffffffffffffffffffffff1673ffffffffffffffffffffffffffffffffffffffff1663bd02d0f5610ff18a886040805190810160405280600881526020017f564f54455f464f5200000000000000000000000000000000000000000000000081525088614a70565b6040518263ffffffff167c0100000000000000000000000000000000000000000000000000000000028152600401808260001916600019168152602001915050602060405180830381600087803b15801561104b57600080fd5b505af115801561105f573d6000803e3d6000fd5b505050506040513d602081101561107557600080fd5b810190808051906020019092919050505090508181965096505050505050915091565b6000809054906101000a900473ffffffffffffffffffffffffffffffffffffffff1681565b6000809054906101000a900473ffffffffffffffffffffffffffffffffffffffff1673ffffffffffffffffffffffffffffffffffffffff163373ffffffffffffffffffffffffffffffffffffffff1614151561111857600080fd5b60003073ffffffffffffffffffffffffffffffffffffffff163111156111b8576000809054906101000a900473ffffffffffffffffffffffffffffffffffffffff1673ffffffffffffffffffffffffffffffffffffffff166108fc3073ffffffffffffffffffffffffffffffffffffffff16319081150290604051600060405180830381858888f193505050501580156111b6573d6000803e3d6000fd5b505b600073ffffffffffffffffffffffffffffffffffffffff168173ffffffffffffffffffffffffffffffffffffffff161415156113ce578073ffffffffffffffffffffffffffffffffffffffff1663a9059cbb6000809054906101000a900473ffffffffffffffffffffffffffffffffffffffff168373ffffffffffffffffffffffffffffffffffffffff166370a08231306040518263ffffffff167c0100000000000000000000000000000000000000000000000000000000028152600401808273ffffffffffffffffffffffffffffffffffffffff1673ffffffffffffffffffffffffffffffffffffffff168152602001915050602060405180830381600087803b1580156112c757600080fd5b505af11580156112db573d6000803e3d6000fd5b505050506040513d60208110156112f157600080fd5b81019080805190602001909291905050506040518363ffffffff167c0100000000000000000000000000000000000000000000000000000000028152600401808373ffffffffffffffffffffffffffffffffffffffff1673ffffffffffffffffffffffffffffffffffffffff16815260200182815260200192505050602060405180830381600087803b15801561138757600080fd5b505af115801561139b573d6000803e3d6000fd5b505050506040513d60208110156113b157600080fd5b810190808051906020019092919050505015156113cd57600080fd5b5b50565b6000809054906101000a900473ffffffffffffffffffffffffffffffffffffffff1673ffffffffffffffffffffffffffffffffffffffff163373ffffffffffffffffffffffffffffffffffffffff1614151561142c57600080fd5b80600160006101000a81548173ffffffffffffffffffffffffffffffffffffffff021916908373ffffffffffffffffffffffffffffffffffffffff16021790555050565b6000809054906101000a900473ffffffffffffffffffffffffffffffffffffffff1673ffffffffffffffffffffffffffffffffffffffff163373ffffffffffffffffffffffffffffffffffffffff161415156114cb57600080fd5b80600360006101000a81548173ffffffffffffffffffffffffffffffffffffffff021916908373ffffffffffffffffffffffffffffffffffffffff16021790555050565b6001151561151c83614beb565b151514151561152a57600080fd5b6001151561153783613c7b565b151514151561154557600080fd5b600073ffffffffffffffffffffffffffffffffffffffff16600160009054906101000a900473ffffffffffffffffffffffffffffffffffffffff1673ffffffffffffffffffffffffffffffffffffffff166321f8a7216115da856040805190810160405280600c81526020017f504f4c4c5f535441525445440000000000000000000000000000000000000000815250614152565b6040518263ffffffff167c0100000000000000000000000000000000000000000000000000000000028152600401808260001916600019168152602001915050602060405180830381600087803b15801561163457600080fd5b505af1158015611648573d6000803e3d6000fd5b505050506040513d602081101561165e57600080fd5b810190808051906020019092919050505073ffffffffffffffffffffffffffffffffffffffff1614151561169157600080fd5b61169b8282614e5d565b5050565b60006116ba6020604051908101604052806000815250614998565b60001916611837600160009054906101000a900473ffffffffffffffffffffffffffffffffffffffff1673ffffffffffffffffffffffffffffffffffffffff1663c031a1806117478661170c88613b60565b6040805190810160405280600d81526020017f414741494e53545f50524f4f4600000000000000000000000000000000000000815250614280565b6040518263ffffffff167c0100000000000000000000000000000000000000000000000000000000028152600401808260001916600019168152602001915050600060405180830381600087803b1580156117a157600080fd5b505af11580156117b5573d6000803e3d6000fd5b505050506040513d6000823e3d601f19601f8201168201806040525060208110156117df57600080fd5b8101908080516401000000008111156117f757600080fd5b8281019050602081018481111561180d57600080fd5b815185600182028301116401000000008211171561182a57600080fd5b5050929190505050614998565b6000191614159050919050565b600080600080600080600061185888613b60565b96506001151561186789613ee0565b151514151561187557600080fd5b600160009054906101000a900473ffffffffffffffffffffffffffffffffffffffff1673ffffffffffffffffffffffffffffffffffffffff166321f8a7216118f28a6040805190810160405280600c81526020017f504f4c4c5f535441525445440000000000000000000000000000000000000000815250614152565b6040518263ffffffff167c0100000000000000000000000000000000000000000000000000000000028152600401808260001916600019168152602001915050602060405180830381600087803b15801561194c57600080fd5b505af1158015611960573d6000803e3d6000fd5b505050506040513d602081101561197657600080fd5b81019080805190602001909291905050509550600073ffffffffffffffffffffffffffffffffffffffff168673ffffffffffffffffffffffffffffffffffffffff16141515156119c557600080fd5b42600160009054906101000a900473ffffffffffffffffffffffffffffffffffffffff1673ffffffffffffffffffffffffffffffffffffffff1663bd02d0f5611a448b8b6040805190810160405280601181526020017f4556454944454e43455f454e4444415445000000000000000000000000000000815250614280565b6040518263ffffffff167c0100000000000000000000000000000000000000000000000000000000028152600401808260001916600019168152602001915050602060405180830381600087803b158015611a9e57600080fd5b505af1158015611ab2573d6000803e3d6000fd5b505050506040513d6020811015611ac857600080fd5b810190808051906020019092919050505011151515611ae657600080fd5b600160009054906101000a900473ffffffffffffffffffffffffffffffffffffffff1673ffffffffffffffffffffffffffffffffffffffff1663bd02d0f5611b658a8a6040805190810160405280600e81526020017f5354414b45445f4445504f5349540000000000000000000000000000000000008152508b614a70565b6040518263ffffffff167c0100000000000000000000000000000000000000000000000000000000028152600401808260001916600019168152602001915050602060405180830381600087803b158015611bbf57600080fd5b505af1158015611bd3573d6000803e3d6000fd5b505050506040513d6020811015611be957600080fd5b81019080805190602001909291905050509450611c058861169f565b1515611f7757600160009054906101000a900473ffffffffffffffffffffffffffffffffffffffff1673ffffffffffffffffffffffffffffffffffffffff1663ca446dd9611c888a6040805190810160405280600e81526020017f444953505554455f57494e4e4552000000000000000000000000000000000000815250614152565b886040518363ffffffff167c01000000000000000000000000000000000000000000000000000000000281526004018083600019166000191681526020018273ffffffffffffffffffffffffffffffffffffffff1673ffffffffffffffffffffffffffffffffffffffff16815260200192505050600060405180830381600087803b158015611d1657600080fd5b505af1158015611d2a573d6000803e3d6000fd5b50505050600260009054906101000a900473ffffffffffffffffffffffffffffffffffffffff1673ffffffffffffffffffffffffffffffffffffffff1663a9059cbb87876040518363ffffffff167c0100000000000000000000000000000000000000000000000000000000028152600401808373ffffffffffffffffffffffffffffffffffffffff1673ffffffffffffffffffffffffffffffffffffffff16815260200182815260200192505050602060405180830381600087803b158015611df357600080fd5b505af1158015611e07573d6000803e3d6000fd5b505050506040513d6020811015611e1d57600080fd5b81019080805190602001909291905050501515611e3957600080fd5b600360009054906101000a900473ffffffffffffffffffffffffffffffffffffffff1673ffffffffffffffffffffffffffffffffffffffff16632f6aee25896040518263ffffffff167c01000000000000000000000000000000000000000000000000000000000281526004018080602001828103825283818151815260200191508051906020019080838360005b83811015611ee3578082015181840152602081019050611ec8565b50505050905090810190601f168015611f105780820380516001836020036101000a031916815260200191505b5092505050602060405180830381600087803b158015611f2f57600080fd5b505af1158015611f43573d6000803e3d6000fd5b505050506040513d6020811015611f5957600080fd5b81019080805190602001909291905050501515611f7257fe5b612b5e565b42600160009054906101000a900473ffffffffffffffffffffffffffffffffffffffff1673ffffffffffffffffffffffffffffffffffffffff1663bd02d0f5611ff68b8b6040805190810160405280600e81526020017f52455645414c5f454e4444415445000000000000000000000000000000000000815250614280565b6040518263ffffffff167c0100000000000000000000000000000000000000000000000000000000028152600401808260001916600019168152602001915050602060405180830381600087803b15801561205057600080fd5b505af1158015612064573d6000803e3d6000fd5b505050506040513d602081101561207a57600080fd5b81019080805190602001909291905050501115151561209857600080fd5b600160009054906101000a900473ffffffffffffffffffffffffffffffffffffffff1673ffffffffffffffffffffffffffffffffffffffff166321f8a7216120df8a614998565b6040518263ffffffff167c0100000000000000000000000000000000000000000000000000000000028152600401808260001916600019168152602001915050602060405180830381600087803b15801561213957600080fd5b505af115801561214d573d6000803e3d6000fd5b505050506040513d602081101561216357600080fd5b81019080805190602001909291905050509350600160009054906101000a900473ffffffffffffffffffffffffffffffffffffffff1673ffffffffffffffffffffffffffffffffffffffff166321f8a7216121f38a6040805190810160405280600a81526020017f465245454c414e43455200000000000000000000000000000000000000000000815250614152565b6040518263ffffffff167c0100000000000000000000000000000000000000000000000000000000028152600401808260001916600019168152602001915050602060405180830381600087803b15801561224d57600080fd5b505af1158015612261573d6000803e3d6000fd5b505050506040513d602081101561227757600080fd5b8101908080519060200190929190505050925061229388610c54565b91509150808214156126d657600160009054906101000a900473ffffffffffffffffffffffffffffffffffffffff1673ffffffffffffffffffffffffffffffffffffffff1663ca446dd961231c8a6040805190810160405280600c81526020017f504f4c4c5f535441525445440000000000000000000000000000000000000000815250614152565b60006040518363ffffffff167c01000000000000000000000000000000000000000000000000000000000281526004018083600019166000191681526020018273ffffffffffffffffffffffffffffffffffffffff1673ffffffffffffffffffffffffffffffffffffffff16815260200192505050600060405180830381600087803b1580156123ab57600080fd5b505af11580156123bf573d6000803e3d6000fd5b50505050600260009054906101000a900473ffffffffffffffffffffffffffffffffffffffff1673ffffffffffffffffffffffffffffffffffffffff1663a9059cbb85876040518363ffffffff167c0100000000000000000000000000000000000000000000000000000000028152600401808373ffffffffffffffffffffffffffffffffffffffff1673ffffffffffffffffffffffffffffffffffffffff16815260200182815260200192505050602060405180830381600087803b15801561248857600080fd5b505af115801561249c573d6000803e3d6000fd5b505050506040513d60208110156124b257600080fd5b810190808051906020019092919050505015156124ce57600080fd5b600260009054906101000a900473ffffffffffffffffffffffffffffffffffffffff1673ffffffffffffffffffffffffffffffffffffffff1663a9059cbb84876040518363ffffffff167c0100000000000000000000000000000000000000000000000000000000028152600401808373ffffffffffffffffffffffffffffffffffffffff1673ffffffffffffffffffffffffffffffffffffffff16815260200182815260200192505050602060405180830381600087803b15801561259357600080fd5b505af11580156125a7573d6000803e3d6000fd5b505050506040513d60208110156125bd57600080fd5b810190808051906020019092919050505015156125d957600080fd5b600160009054906101000a900473ffffffffffffffffffffffffffffffffffffffff1673ffffffffffffffffffffffffffffffffffffffff1663e2a4853a6126568a6040805190810160405280600681526020017f5354415455530000000000000000000000000000000000000000000000000000815250614152565b60046040518363ffffffff167c010000000000000000000000000000000000000000000000000000000002815260040180836000191660001916815260200182815260200192505050600060405180830381600087803b1580156126b957600080fd5b505af11580156126cd573d6000803e3d6000fd5b50505050612b5d565b600160009054906101000a900473ffffffffffffffffffffffffffffffffffffffff1673ffffffffffffffffffffffffffffffffffffffff1663ca446dd96127538a6040805190810160405280600e81526020017f444953505554455f57494e4e4552000000000000000000000000000000000000815250614152565b8385116127605785612762565b865b6040518363ffffffff167c01000000000000000000000000000000000000000000000000000000000281526004018083600019166000191681526020018273ffffffffffffffffffffffffffffffffffffffff1673ffffffffffffffffffffffffffffffffffffffff16815260200192505050600060405180830381600087803b1580156127ef57600080fd5b505af1158015612803573d6000803e3d6000fd5b50505050600260009054906101000a900473ffffffffffffffffffffffffffffffffffffffff1673ffffffffffffffffffffffffffffffffffffffff1663a9059cbb600160009054906101000a900473ffffffffffffffffffffffffffffffffffffffff1673ffffffffffffffffffffffffffffffffffffffff166321f8a7216128c28c6040805190810160405280600e81526020017f444953505554455f57494e4e4552000000000000000000000000000000000000815250614152565b6040518263ffffffff167c0100000000000000000000000000000000000000000000000000000000028152600401808260001916600019168152602001915050602060405180830381600087803b15801561291c57600080fd5b505af1158015612930573d6000803e3d6000fd5b505050506040513d602081101561294657600080fd5b8101908080519060200190929190505050876040518363ffffffff167c0100000000000000000000000000000000000000000000000000000000028152600401808373ffffffffffffffffffffffffffffffffffffffff1673ffffffffffffffffffffffffffffffffffffffff16815260200182815260200192505050602060405180830381600087803b1580156129dd57600080fd5b505af11580156129f1573d6000803e3d6000fd5b505050506040513d6020811015612a0757600080fd5b81019080805190602001909291905050501515612a2357600080fd5b600360009054906101000a900473ffffffffffffffffffffffffffffffffffffffff1673ffffffffffffffffffffffffffffffffffffffff16632f6aee25896040518263ffffffff167c01000000000000000000000000000000000000000000000000000000000281526004018080602001828103825283818151815260200191508051906020019080838360005b83811015612acd578082015181840152602081019050612ab2565b50505050905090810190601f168015612afa5780820380516001836020036101000a031916815260200191505b5092505050602060405180830381600087803b158015612b1957600080fd5b505af1158015612b2d573d6000803e3d6000fd5b505050506040513d6020811015612b4357600080fd5b81019080805190602001909291905050501515612b5c57fe5b5b5b612b6788614998565b600019167f1bdbf7dc7c45c579e94c820f5f2d107ca885d42ec890d8cf89fe0da0ad8d9e9183838b6040518084815260200183815260200180602001828103825283818151815260200191508051906020019080838360005b83811015612bdb578082015181840152602081019050612bc0565b50505050905090810190601f168015612c085780820380516001836020036101000a031916815260200191505b5094505050505060405180910390a25050505050505050565b6000806000806000806000612c3588613b60565b965060011515612c4489613c7b565b1515141515612c5257600080fd5b60011515612c5f89613ee0565b1515141515612c6d57600080fd5b612c7688610c54565b95509550600086141515612c8957600080fd5b600085141515612c9857600080fd5b600160009054906101000a900473ffffffffffffffffffffffffffffffffffffffff1673ffffffffffffffffffffffffffffffffffffffff166321f8a721612cdf8a614998565b6040518263ffffffff167c0100000000000000000000000000000000000000000000000000000000028152600401808260001916600019168152602001915050602060405180830381600087803b158015612d3957600080fd5b505af1158015612d4d573d6000803e3d6000fd5b505050506040513d6020811015612d6357600080fd5b81019080805190602001909291905050509350600160009054906101000a900473ffffffffffffffffffffffffffffffffffffffff1673ffffffffffffffffffffffffffffffffffffffff166321f8a721612df38a6040805190810160405280600a81526020017f465245454c414e43455200000000000000000000000000000000000000000000815250614152565b6040518263ffffffff167c0100000000000000000000000000000000000000000000000000000000028152600401808260001916600019168152602001915050602060405180830381600087803b158015612e4d57600080fd5b505af1158015612e61573d6000803e3d6000fd5b505050506040513d6020811015612e7757600080fd5b810190808051906020019092919050505092508373ffffffffffffffffffffffffffffffffffffffff163373ffffffffffffffffffffffffffffffffffffffff1614612ec35783612ec5565b825b9150600160009054906101000a900473ffffffffffffffffffffffffffffffffffffffff1673ffffffffffffffffffffffffffffffffffffffff1663ca446dd9612f448a6040805190810160405280600e81526020017f444953505554455f57494e4e4552000000000000000000000000000000000000815250614152565b846040518363ffffffff167c01000000000000000000000000000000000000000000000000000000000281526004018083600019166000191681526020018273ffffffffffffffffffffffffffffffffffffffff1673ffffffffffffffffffffffffffffffffffffffff16815260200192505050600060405180830381600087803b158015612fd257600080fd5b505af1158015612fe6573d6000803e3d6000fd5b50505050600160009054906101000a900473ffffffffffffffffffffffffffffffffffffffff1673ffffffffffffffffffffffffffffffffffffffff1663bd02d0f56130698a8a6040805190810160405280600e81526020017f5354414b45445f4445504f53495400000000000000000000000000000000000081525089614a70565b6040518263ffffffff167c0100000000000000000000000000000000000000000000000000000000028152600401808260001916600019168152602001915050602060405180830381600087803b1580156130c357600080fd5b505af11580156130d7573d6000803e3d6000fd5b505050506040513d60208110156130ed57600080fd5b81019080805190602001909291905050509050600260009054906101000a900473ffffffffffffffffffffffffffffffffffffffff1673ffffffffffffffffffffffffffffffffffffffff1663a9059cbb85836040518363ffffffff167c0100000000000000000000000000000000000000000000000000000000028152600401808373ffffffffffffffffffffffffffffffffffffffff1673ffffffffffffffffffffffffffffffffffffffff16815260200182815260200192505050602060405180830381600087803b1580156131c557600080fd5b505af11580156131d9573d6000803e3d6000fd5b505050506040513d60208110156131ef57600080fd5b8101908080519060200190929190505050151561320b57600080fd5b600260009054906101000a900473ffffffffffffffffffffffffffffffffffffffff1673ffffffffffffffffffffffffffffffffffffffff1663a9059cbb84836040518363ffffffff167c0100000000000000000000000000000000000000000000000000000000028152600401808373ffffffffffffffffffffffffffffffffffffffff1673ffffffffffffffffffffffffffffffffffffffff16815260200182815260200192505050602060405180830381600087803b1580156132d057600080fd5b505af11580156132e4573d6000803e3d6000fd5b505050506040513d60208110156132fa57600080fd5b8101908080519060200190929190505050151561331657600080fd5b600360009054906101000a900473ffffffffffffffffffffffffffffffffffffffff1673ffffffffffffffffffffffffffffffffffffffff16632f6aee25896040518263ffffffff167c01000000000000000000000000000000000000000000000000000000000281526004018080602001828103825283818151815260200191508051906020019080838360005b838110156133c05780820151818401526020810190506133a5565b50505050905090810190601f1680156133ed5780820380516001836020036101000a031916815260200191505b5092505050602060405180830381600087803b15801561340c57600080fd5b505af1158015613420573d6000803e3d6000fd5b505050506040513d602081101561343657600080fd5b8101908080519060200190929190505050151561344f57fe5b3373ffffffffffffffffffffffffffffffffffffffff1661346f89614998565b600019167f398b75401011f0391f08acd882f46f795d6dc321a87e9011158d449dcd3db33f8a6040518080602001828103825283818151815260200191508051906020019080838360005b838110156134d55780820151818401526020810190506134ba565b50505050905090810190601f1680156135025780820380516001836020036101000a031916815260200191505b509250505060405180910390a35050505050505050565b60008060008060008060006001151561353189613c7b565b151514151561353f57600080fd5b6001151561354c89613ee0565b151514151561355a57600080fd5b61356388610c54565b9650965060008714151561357657600080fd5b60008614151561358557600080fd5b61358e88613b60565b9450600160009054906101000a900473ffffffffffffffffffffffffffffffffffffffff1673ffffffffffffffffffffffffffffffffffffffff1663bd02d0f561360c6040805190810160405280600f81526020017f434f4d4d49545f4455524154494f4e0000000000000000000000000000000000815250614998565b6040518263ffffffff167c0100000000000000000000000000000000000000000000000000000000028152600401808260001916600019168152602001915050602060405180830381600087803b15801561366657600080fd5b505af115801561367a573d6000803e3d6000fd5b505050506040513d602081101561369057600080fd5b810190808051906020019092919050505093506000841115156136b257600080fd5b600160009054906101000a900473ffffffffffffffffffffffffffffffffffffffff1673ffffffffffffffffffffffffffffffffffffffff1663bd02d0f561372e6040805190810160405280600f81526020017f52455645414c5f4455524154494f4e0000000000000000000000000000000000815250614998565b6040518263ffffffff167c0100000000000000000000000000000000000000000000000000000000028152600401808260001916600019168152602001915050602060405180830381600087803b15801561378857600080fd5b505af115801561379c573d6000803e3d6000fd5b505050506040513d60208110156137b257600080fd5b810190808051906020019092919050505092506000831115156137d457600080fd5b6137e78442615e0a90919063ffffffff16565b91506137fc8383615e0a90919063ffffffff16565b9050600160009054906101000a900473ffffffffffffffffffffffffffffffffffffffff1673ffffffffffffffffffffffffffffffffffffffff1663e2a4853a61387c8a886040805190810160405280600e81526020017f434f4d4d49545f454e4444415445000000000000000000000000000000000000815250614280565b846040518363ffffffff167c010000000000000000000000000000000000000000000000000000000002815260040180836000191660001916815260200182815260200192505050600060405180830381600087803b1580156138de57600080fd5b505af11580156138f2573d6000803e3d6000fd5b50505050600160009054906101000a900473ffffffffffffffffffffffffffffffffffffffff1673ffffffffffffffffffffffffffffffffffffffff1663e2a4853a6139748a886040805190810160405280600e81526020017f52455645414c5f454e4444415445000000000000000000000000000000000000815250614280565b836040518363ffffffff167c010000000000000000000000000000000000000000000000000000000002815260040180836000191660001916815260200182815260200192505050600060405180830381600087803b1580156139d657600080fd5b505af11580156139ea573d6000803e3d6000fd5b505050506139f788614998565b600019167f91ae686ae27d38f52bece81b7b8b35724ecb171af0bdf88c3f0e28249ac88370896040518080602001828103825283818151815260200191508051906020019080838360005b83811015613a5d578082015181840152602081019050613a42565b50505050905090810190601f168015613a8a5780820380516001836020036101000a031916815260200191505b509250505060405180910390a25050505050505050565b600073ffffffffffffffffffffffffffffffffffffffff166000809054906101000a900473ffffffffffffffffffffffffffffffffffffffff1673ffffffffffffffffffffffffffffffffffffffff16141515613b54576000809054906101000a900473ffffffffffffffffffffffffffffffffffffffff1673ffffffffffffffffffffffffffffffffffffffff163373ffffffffffffffffffffffffffffffffffffffff16141515613b5357600080fd5b5b613b5d81615e26565b50565b6000600160009054906101000a900473ffffffffffffffffffffffffffffffffffffffff1673ffffffffffffffffffffffffffffffffffffffff1663bd02d0f5613bdf846040805190810160405280600c81526020017f504f4c4c5f434f554e5445520000000000000000000000000000000000000000815250614152565b6040518263ffffffff167c0100000000000000000000000000000000000000000000000000000000028152600401808260001916600019168152602001915050602060405180830381600087803b158015613c3957600080fd5b505af1158015613c4d573d6000803e3d6000fd5b505050506040513d6020811015613c6357600080fd5b81019080805190602001909291905050509050919050565b6000806000600160009054906101000a900473ffffffffffffffffffffffffffffffffffffffff1673ffffffffffffffffffffffffffffffffffffffff166321f8a721613cc786614998565b6040518263ffffffff167c0100000000000000000000000000000000000000000000000000000000028152600401808260001916600019168152602001915050602060405180830381600087803b158015613d2157600080fd5b505af1158015613d35573d6000803e3d6000fd5b505050506040513d6020811015613d4b57600080fd5b81019080805190602001909291905050509150600160009054906101000a900473ffffffffffffffffffffffffffffffffffffffff1673ffffffffffffffffffffffffffffffffffffffff166321f8a721613ddb866040805190810160405280600a81526020017f465245454c414e43455200000000000000000000000000000000000000000000815250614152565b6040518263ffffffff167c0100000000000000000000000000000000000000000000000000000000028152600401808260001916600019168152602001915050602060405180830381600087803b158015613e3557600080fd5b505af1158015613e49573d6000803e3d6000fd5b505050506040513d6020811015613e5f57600080fd5b810190808051906020019092919050505090508173ffffffffffffffffffffffffffffffffffffffff163373ffffffffffffffffffffffffffffffffffffffff161480613ed757508073ffffffffffffffffffffffffffffffffffffffff163373ffffffffffffffffffffffffffffffffffffffff16145b92505050919050565b6000806000600160009054906101000a900473ffffffffffffffffffffffffffffffffffffffff1673ffffffffffffffffffffffffffffffffffffffff1663bd02d0f5613f62866040805190810160405280600681526020017f5354415455530000000000000000000000000000000000000000000000000000815250614152565b6040518263ffffffff167c0100000000000000000000000000000000000000000000000000000000028152600401808260001916600019168152602001915050602060405180830381600087803b158015613fbc57600080fd5b505af1158015613fd0573d6000803e3d6000fd5b505050506040513d6020811015613fe657600080fd5b81019080805190602001909291905050509150600160009054906101000a900473ffffffffffffffffffffffffffffffffffffffff1673ffffffffffffffffffffffffffffffffffffffff166321f8a721614076866040805190810160405280600e81526020017f444953505554455f57494e4e4552000000000000000000000000000000000000815250614152565b6040518263ffffffff167c0100000000000000000000000000000000000000000000000000000000028152600401808260001916600019168152602001915050602060405180830381600087803b1580156140d057600080fd5b505af11580156140e4573d6000803e3d6000fd5b505050506040513d60208110156140fa57600080fd5b810190808051906020019092919050505090506006821480156141495750600073ffffffffffffffffffffffffffffffffffffffff168173ffffffffffffffffffffffffffffffffffffffff16145b92505050919050565b600082826040516020018083805190602001908083835b60208310151561418e5780518252602082019150602081019050602083039250614169565b6001836020036101000a03801982511681845116808217855250505050505090500182805190602001908083835b6020831015156141e157805182526020820191506020810190506020830392506141bc565b6001836020036101000a038019825116818451168082178552505050505050905001925050506040516020818303038152906040526040518082805190602001908083835b60208310151561424b5780518252602082019150602081019050602083039250614226565b6001836020036101000a0380198251168184511680821785525050505050509050019150506040518091039020905092915050565b60008383836040516020018084805190602001908083835b6020831015156142bd5780518252602082019150602081019050602083039250614298565b6001836020036101000a03801982511681845116808217855250505050505090500183815260200182805190602001908083835b60208310151561431657805182526020820191506020810190506020830392506142f1565b6001836020036101000a03801982511681845116808217855250505050505090500193505050506040516020818303038152906040526040518082805190602001908083835b602083101515614381578051825260208201915060208101905060208303925061435c565b6001836020036101000a038019825116818451168082178552505050505050905001915050604051809103902090509392505050565b6000600160009054906101000a900473ffffffffffffffffffffffffffffffffffffffff1673ffffffffffffffffffffffffffffffffffffffff1663bd02d0f561443887866040805190810160405280600e81526020017f5354414b45445f4445504f53495400000000000000000000000000000000000081525087614a70565b6040518263ffffffff167c0100000000000000000000000000000000000000000000000000000000028152600401808260001916600019168152602001915050602060405180830381600087803b15801561449257600080fd5b505af11580156144a6573d6000803e3d6000fd5b505050506040513d60208110156144bc57600080fd5b81019080805190602001909291905050509050600260009054906101000a900473ffffffffffffffffffffffffffffffffffffffff1673ffffffffffffffffffffffffffffffffffffffff166323b872dd3330846040518463ffffffff167c0100000000000000000000000000000000000000000000000000000000028152600401808473ffffffffffffffffffffffffffffffffffffffff1673ffffffffffffffffffffffffffffffffffffffff1681526020018373ffffffffffffffffffffffffffffffffffffffff1673ffffffffffffffffffffffffffffffffffffffff1681526020018281526020019350505050602060405180830381600087803b1580156145c857600080fd5b505af11580156145dc573d6000803e3d6000fd5b505050506040513d60208110156145f257600080fd5b8101908080519060200190929190505050151561460e57600080fd5b600160009054906101000a900473ffffffffffffffffffffffffffffffffffffffff1673ffffffffffffffffffffffffffffffffffffffff1663e2a4853a61468d87866040805190810160405280600e81526020017f5354414b45445f4445504f53495400000000000000000000000000000000000081525033614a70565b836040518363ffffffff167c010000000000000000000000000000000000000000000000000000000002815260040180836000191660001916815260200182815260200192505050600060405180830381600087803b1580156146ef57600080fd5b505af1158015614703573d6000803e3d6000fd5b50505050600160009054906101000a900473ffffffffffffffffffffffffffffffffffffffff1673ffffffffffffffffffffffffffffffffffffffff16632e28d08461478587866040805190810160405280600d81526020017f414741494e53545f50524f4f4600000000000000000000000000000000000000815250614280565b866040518363ffffffff167c010000000000000000000000000000000000000000000000000000000002815260040180836000191660001916815260200180602001828103825283818151815260200191508051906020019080838360005b838110156147ff5780820151818401526020810190506147e4565b50505050905090810190601f16801561482c5780820380516001836020036101000a031916815260200191505b509350505050600060405180830381600087803b15801561484c57600080fd5b505af1158015614860573d6000803e3d6000fd5b505050503373ffffffffffffffffffffffffffffffffffffffff1661488486614998565b600019167f3446ed7eee166279523c3e4edb6d0d7090f7c9e5493edd4e263b331f3e3a402a8688604051808060200180602001838103835285818151815260200191508051906020019080838360005b838110156148ef5780820151818401526020810190506148d4565b50505050905090810190601f16801561491c5780820380516001836020036101000a031916815260200191505b50838103825284818151815260200191508051906020019080838360005b8381101561495557808201518184015260208101905061493a565b50505050905090810190601f1680156149825780820380516001836020036101000a031916815260200191505b5094505050505060405180910390a35050505050565b6000816040516020018082805190602001908083835b6020831015156149d357805182526020820191506020810190506020830392506149ae565b6001836020036101000a0380198251168184511680821785525050505050509050019150506040516020818303038152906040526040518082805190602001908083835b602083101515614a3c5780518252602082019150602081019050602083039250614a17565b6001836020036101000a03801982511681845116808217855250505050505090500191505060405180910390209050919050565b6000848484846040516020018085805190602001908083835b602083101515614aae5780518252602082019150602081019050602083039250614a89565b6001836020036101000a03801982511681845116808217855250505050505090500184815260200183805190602001908083835b602083101515614b075780518252602082019150602081019050602083039250614ae2565b6001836020036101000a0380198251168184511680821785525050505050509050018273ffffffffffffffffffffffffffffffffffffffff1673ffffffffffffffffffffffffffffffffffffffff166c010000000000000000000000000281526014019450505050506040516020818303038152906040526040518082805190602001908083835b602083101515614bb45780518252602082019150602081019050602083039250614b8f565b6001836020036101000a03801982511681845116808217855250505050505090500191505060405180910390209050949350505050565b6000806000600160009054906101000a900473ffffffffffffffffffffffffffffffffffffffff1673ffffffffffffffffffffffffffffffffffffffff1663bd02d0f5614c6d866040805190810160405280600681526020017f5354415455530000000000000000000000000000000000000000000000000000815250614152565b6040518263ffffffff167c0100000000000000000000000000000000000000000000000000000000028152600401808260001916600019168152602001915050602060405180830381600087803b158015614cc757600080fd5b505af1158015614cdb573d6000803e3d6000fd5b505050506040513d6020811015614cf157600080fd5b81019080805190602001909291905050509150600160009054906101000a900473ffffffffffffffffffffffffffffffffffffffff1673ffffffffffffffffffffffffffffffffffffffff166321f8a721614d81866040805190810160405280600e81526020017f444953505554455f57494e4e4552000000000000000000000000000000000000815250614152565b6040518263ffffffff167c0100000000000000000000000000000000000000000000000000000000028152600401808260001916600019168152602001915050602060405180830381600087803b158015614ddb57600080fd5b505af1158015614def573d6000803e3d6000fd5b505050506040513d6020811015614e0557600080fd5b81019080805190602001909291905050509050600482148015614e545750600073ffffffffffffffffffffffffffffffffffffffff168173ffffffffffffffffffffffffffffffffffffffff16145b92505050919050565b600080600080600080600080614e728a613b60565b9750600160009054906101000a900473ffffffffffffffffffffffffffffffffffffffff1673ffffffffffffffffffffffffffffffffffffffff1663bd02d0f5614ef06040805190810160405280601181526020017f45564944454e43455f4455524154494f4e000000000000000000000000000000815250614998565b6040518263ffffffff167c0100000000000000000000000000000000000000000000000000000000028152600401808260001916600019168152602001915050602060405180830381600087803b158015614f4a57600080fd5b505af1158015614f5e573d6000803e3d6000fd5b505050506040513d6020811015614f7457600080fd5b81019080805190602001909291905050509650600087111515614f9657600080fd5b600160009054906101000a900473ffffffffffffffffffffffffffffffffffffffff1673ffffffffffffffffffffffffffffffffffffffff1663bd02d0f56150126040805190810160405280600f81526020017f434f4d4d49545f4455524154494f4e0000000000000000000000000000000000815250614998565b6040518263ffffffff167c0100000000000000000000000000000000000000000000000000000000028152600401808260001916600019168152602001915050602060405180830381600087803b15801561506c57600080fd5b505af1158015615080573d6000803e3d6000fd5b505050506040513d602081101561509657600080fd5b810190808051906020019092919050505095506000861115156150b857600080fd5b600160009054906101000a900473ffffffffffffffffffffffffffffffffffffffff1673ffffffffffffffffffffffffffffffffffffffff1663bd02d0f56151346040805190810160405280600f81526020017f52455645414c5f4455524154494f4e0000000000000000000000000000000000815250614998565b6040518263ffffffff167c0100000000000000000000000000000000000000000000000000000000028152600401808260001916600019168152602001915050602060405180830381600087803b15801561518e57600080fd5b505af11580156151a2573d6000803e3d6000fd5b505050506040513d60208110156151b857600080fd5b810190808051906020019092919050505094506000851115156151da57600080fd5b6151ed8742615e0a90919063ffffffff16565b93506152028685615e0a90919063ffffffff16565b92506152178584615e0a90919063ffffffff16565b9150600160009054906101000a900473ffffffffffffffffffffffffffffffffffffffff1673ffffffffffffffffffffffffffffffffffffffff1663bd02d0f56152956040805190810160405280600e81526020017f5354414b45445f4445504f534954000000000000000000000000000000000000815250614998565b6040518263ffffffff167c0100000000000000000000000000000000000000000000000000000000028152600401808260001916600019168152602001915050602060405180830381600087803b1580156152ef57600080fd5b505af1158015615303573d6000803e3d6000fd5b505050506040513d602081101561531957600080fd5b81019080805190602001909291905050509050600260009054906101000a900473ffffffffffffffffffffffffffffffffffffffff1673ffffffffffffffffffffffffffffffffffffffff166323b872dd3330846040518463ffffffff167c0100000000000000000000000000000000000000000000000000000000028152600401808473ffffffffffffffffffffffffffffffffffffffff1673ffffffffffffffffffffffffffffffffffffffff1681526020018373ffffffffffffffffffffffffffffffffffffffff1673ffffffffffffffffffffffffffffffffffffffff1681526020018281526020019350505050602060405180830381600087803b15801561542557600080fd5b505af1158015615439573d6000803e3d6000fd5b505050506040513d602081101561544f57600080fd5b8101908080519060200190929190505050151561546b57600080fd5b600160009054906101000a900473ffffffffffffffffffffffffffffffffffffffff1673ffffffffffffffffffffffffffffffffffffffff1663e2a4853a6154e88c6040805190810160405280600681526020017f5354415455530000000000000000000000000000000000000000000000000000815250614152565b60066040518363ffffffff167c010000000000000000000000000000000000000000000000000000000002815260040180836000191660001916815260200182815260200192505050600060405180830381600087803b15801561554b57600080fd5b505af115801561555f573d6000803e3d6000fd5b50505050615577600189615e0a90919063ffffffff16565b9750600160009054906101000a900473ffffffffffffffffffffffffffffffffffffffff1673ffffffffffffffffffffffffffffffffffffffff1663e2a4853a6155f68c6040805190810160405280600c81526020017f504f4c4c5f434f554e5445520000000000000000000000000000000000000000815250614152565b8a6040518363ffffffff167c010000000000000000000000000000000000000000000000000000000002815260040180836000191660001916815260200182815260200192505050600060405180830381600087803b15801561565857600080fd5b505af115801561566c573d6000803e3d6000fd5b50505050600160009054906101000a900473ffffffffffffffffffffffffffffffffffffffff1673ffffffffffffffffffffffffffffffffffffffff1663e2a4853a6156ef8c8b6040805190810160405280600e81526020017f5354414b45445f4445504f53495400000000000000000000000000000000000081525033614a70565b836040518363ffffffff167c010000000000000000000000000000000000000000000000000000000002815260040180836000191660001916815260200182815260200192505050600060405180830381600087803b15801561575157600080fd5b505af1158015615765573d6000803e3d6000fd5b50505050600160009054906101000a900473ffffffffffffffffffffffffffffffffffffffff1673ffffffffffffffffffffffffffffffffffffffff1663ca446dd96157e68c6040805190810160405280600c81526020017f504f4c4c5f535441525445440000000000000000000000000000000000000000815250614152565b336040518363ffffffff167c01000000000000000000000000000000000000000000000000000000000281526004018083600019166000191681526020018273ffffffffffffffffffffffffffffffffffffffff1673ffffffffffffffffffffffffffffffffffffffff16815260200192505050600060405180830381600087803b15801561587457600080fd5b505af1158015615888573d6000803e3d6000fd5b50505050600160009054906101000a900473ffffffffffffffffffffffffffffffffffffffff1673ffffffffffffffffffffffffffffffffffffffff1663e2a4853a61590a8c8b6040805190810160405280601181526020017f4556454944454e43455f454e4444415445000000000000000000000000000000815250614280565b866040518363ffffffff167c010000000000000000000000000000000000000000000000000000000002815260040180836000191660001916815260200182815260200192505050600060405180830381600087803b15801561596c57600080fd5b505af1158015615980573d6000803e3d6000fd5b50505050600160009054906101000a900473ffffffffffffffffffffffffffffffffffffffff1673ffffffffffffffffffffffffffffffffffffffff1663e2a4853a615a028c8b6040805190810160405280600e81526020017f434f4d4d49545f454e4444415445000000000000000000000000000000000000815250614280565b856040518363ffffffff167c010000000000000000000000000000000000000000000000000000000002815260040180836000191660001916815260200182815260200192505050600060405180830381600087803b158015615a6457600080fd5b505af1158015615a78573d6000803e3d6000fd5b50505050600160009054906101000a900473ffffffffffffffffffffffffffffffffffffffff1673ffffffffffffffffffffffffffffffffffffffff1663e2a4853a615afa8c8b6040805190810160405280600e81526020017f52455645414c5f454e4444415445000000000000000000000000000000000000815250614280565b846040518363ffffffff167c010000000000000000000000000000000000000000000000000000000002815260040180836000191660001916815260200182815260200192505050600060405180830381600087803b158015615b5c57600080fd5b505af1158015615b70573d6000803e3d6000fd5b50505050600160009054906101000a900473ffffffffffffffffffffffffffffffffffffffff1673ffffffffffffffffffffffffffffffffffffffff16632e28d084615bf28c8b6040805190810160405280600d81526020017f43524541544f525f50524f4f4600000000000000000000000000000000000000815250614280565b8b6040518363ffffffff167c010000000000000000000000000000000000000000000000000000000002815260040180836000191660001916815260200180602001828103825283818151815260200191508051906020019080838360005b83811015615c6c578082015181840152602081019050615c51565b50505050905090810190601f168015615c995780820380516001836020036101000a031916815260200191505b509350505050600060405180830381600087803b158015615cb957600080fd5b505af1158015615ccd573d6000803e3d6000fd5b505050503373ffffffffffffffffffffffffffffffffffffffff16615cf18b614998565b600019167f55a5a1508ad6c6f9e85e20bf4ed779d73571f90ec2114d080bf8c27ae2a513368b8d604051808060200180602001838103835285818151815260200191508051906020019080838360005b83811015615d5c578082015181840152602081019050615d41565b50505050905090810190601f168015615d895780820380516001836020036101000a031916815260200191505b50838103825284818151815260200191508051906020019080838360005b83811015615dc2578082015181840152602081019050615da7565b50505050905090810190601f168015615def5780820380516001836020036101000a031916815260200191505b5094505050505060405180910390a350505050505050505050565b60008183019050828110151515615e1d57fe5b80905092915050565b600073ffffffffffffffffffffffffffffffffffffffff168173ffffffffffffffffffffffffffffffffffffffff1614151515615e6257600080fd5b8073ffffffffffffffffffffffffffffffffffffffff166000809054906101000a900473ffffffffffffffffffffffffffffffffffffffff1673ffffffffffffffffffffffffffffffffffffffff167f8be0079c531659141344cd1fd0a4f28419497f9722a3daafe3b4186f6b6457e060405160405180910390a3806000806101000a81548173ffffffffffffffffffffffffffffffffffffffff021916908373ffffffffffffffffffffffffffffffffffffffff160217905550505600a165627a7a72305820a6be18674294f400aae4a905e978b8a1ada7398bfacbc71b3a35d3e4417be37a0029",
  "source": "pragma solidity ^0.4.24;\n\nimport './BBStandard.sol';\nimport './BBLib.sol';\nimport './BBFreelancerPayment.sol';\n\ncontract BBDispute is BBStandard{\n  BBFreelancerPayment public payment = BBFreelancerPayment(0x0);\n  function setPayment(address p) onlyOwner public  {\n    payment = BBFreelancerPayment(p);\n  }\n  event PollStarted(bytes32 indexed indexJobHash, bytes proofHash, address indexed creator, bytes jobHash);\n  event PollAgainsted(bytes32 indexed indexJobHash, address indexed creator,  bytes proofHash, bytes jobHash);\n  event PollFinalized(bytes32 indexed indexJobHash, uint256 jobOwnerVotes, uint256 freelancerVotes, bytes jobHash);\n  event PollWhiteFlaged(bytes32 indexed indexJobHash, address indexed creator, bytes jobHash);\n  event PollExtended(bytes32 indexed indexJobHash, bytes jobHash);\n \n  function canCreatePoll(bytes jobHash) private constant returns (bool r){\n    address jobOwner = bbs.getAddress(BBLib.toB32(jobHash));\n    address freelancer = bbs.getAddress(BBLib.toB32(jobHash, 'FREELANCER'));\n    r = (msg.sender==jobOwner || msg.sender==freelancer);\n  }\n  function isDisputeJob(bytes jobHash) private constant returns(bool r){\n    uint256 jobStatus = bbs.getUint(BBLib.toB32(jobHash ,'STATUS'));\n    address winner = bbs.getAddress(BBLib.toB32(jobHash,'DISPUTE_WINNER'));\n    r = (jobStatus == 4 && winner==address(0x0));\n  }\n  function isDisputingJob(bytes jobHash) private constant returns(bool r){\n    uint256 jobStatus = bbs.getUint(BBLib.toB32(jobHash ,'STATUS'));\n    address winner = bbs.getAddress(BBLib.toB32(jobHash,'DISPUTE_WINNER'));\n    r = (jobStatus == 6 && winner==address(0x0));\n  }\n  function isAgaintsPoll(bytes jobHash) public constant returns(bool r){\n    r = BBLib.toB32(bbs.getBytes(BBLib.toB32(jobHash, getPollID(jobHash),'AGAINST_PROOF')))!=BBLib.toB32(\"\");\n  }\n  function getPollID(bytes jobHash) internal constant returns(uint256 r){\n    r = bbs.getUint(BBLib.toB32(jobHash,'POLL_COUNTER'));\n  }\n\t/**\n  * @dev finalizePoll for poll\n  * @param jobHash Job Hash\n  * \n  */\n  function finalizePoll(bytes jobHash) public\n  {\n    uint256 pID = getPollID(jobHash);\n    require(isDisputingJob(jobHash)==true);\n    address creator = bbs.getAddress(BBLib.toB32(jobHash, 'POLL_STARTED'));\n    require(creator!=address(0x0));\n    require(bbs.getUint(BBLib.toB32(jobHash, pID,'EVEIDENCE_ENDDATE'))<=now);\n\n    uint256 bboStake = bbs.getUint(BBLib.toB32(jobHash, pID,'STAKED_DEPOSIT',creator));\n\n    // check if not have against proof\n    if(!isAgaintsPoll(jobHash)){      \n      // set winner to creator \n      bbs.setAddress(BBLib.toB32(jobHash, 'DISPUTE_WINNER'),creator);\n      // refun staked for \n      require(bbo.transfer(creator,bboStake));\n      // cal finalizePayment\n      assert(payment.finalizeDispute(jobHash));\n    }else{\n      require(bbs.getUint(BBLib.toB32(jobHash, pID,'REVEAL_ENDDATE'))<=now);\n      address jobOwner = bbs.getAddress(BBLib.toB32(jobHash));\n      address freelancer = bbs.getAddress(BBLib.toB32(jobHash,'FREELANCER'));\n      (uint jobOwnerVotes, uint freelancerVotes) = getPoll(jobHash);\n      if(jobOwnerVotes == freelancerVotes){\n        // cancel poll\n        bbs.setAddress(BBLib.toB32(jobHash, 'POLL_STARTED'), address(0x0));\n        // refun money staked\n        require(bbo.transfer(jobOwner,bboStake));\n        require(bbo.transfer(freelancer,bboStake));\n        // status to 4\n        bbs.setUint(BBLib.toB32(jobHash, 'STATUS'), 4);\n        //TODO reset POLL\n      }else{\n        bbs.setAddress(BBLib.toB32(jobHash, 'DISPUTE_WINNER'), (jobOwnerVotes>freelancerVotes)?jobOwner:freelancer);\n        //refun money staked for winner\n        require(bbo.transfer(bbs.getAddress(BBLib.toB32(jobHash,'DISPUTE_WINNER')), bboStake));\n        // cal finalizePayment\n        assert(payment.finalizeDispute(jobHash));\n      }\n    }\n    emit PollFinalized(BBLib.toB32(jobHash), jobOwnerVotes, freelancerVotes, jobHash);\n  }\n\n  \n  /**\n  * @dev getPoll:\n  * @param jobHash Job Hash\n  * returns uint ownerVotes, uint freelancerVotes, bool isPass quorum\n  * \n  */\n  function getPoll(bytes jobHash) public constant returns (uint256, uint256) {\n    uint256 pID = getPollID(jobHash);\n    address jobOwner = bbs.getAddress(BBLib.toB32(jobHash));\n    address freelancer = bbs.getAddress(BBLib.toB32(jobHash,'FREELANCER'));\n    uint jobOwnerVotes = bbs.getUint(BBLib.toB32(jobHash, pID,'VOTE_FOR',jobOwner));\n    uint freelancerVotes = bbs.getUint(BBLib.toB32(jobHash, pID,'VOTE_FOR',freelancer));    \n    return (jobOwnerVotes, freelancerVotes);\n  }\n  /**\n  * @dev startPoll\n  * @param jobHash Job Hash\n  * @param proofHash Hash of Proof \n  * \n  */\n  function startPoll(bytes jobHash, bytes proofHash) public \n  {\n    require(isDisputeJob(jobHash)==true);\n    require(canCreatePoll(jobHash)==true);\n    require(bbs.getAddress(BBLib.toB32(jobHash, 'POLL_STARTED'))==address(0x0));\n    return doStartPoll(jobHash, proofHash);\n  }\n  function doStartPoll(bytes jobHash, bytes proofHash) internal {\n    uint256 pID = getPollID(jobHash);\n    uint evidenceDuration = bbs.getUint(BBLib.toB32('EVIDENCE_DURATION'));\n    require(evidenceDuration > 0);\n    uint commitDuration = bbs.getUint(BBLib.toB32('COMMIT_DURATION'));\n    require(commitDuration > 0);\n    uint revealDuration = bbs.getUint(BBLib.toB32('REVEAL_DURATION'));\n    require(revealDuration > 0);\n    // evidenceEndDate\n    uint evidenceEndDate = block.timestamp.add(evidenceDuration);\n    // commitEndDate\n    uint commitEndDate = evidenceEndDate.add(commitDuration);\n    // revealEndDate\n    uint revealEndDate = commitEndDate.add(revealDuration);\n    \n    // require sender must staked \n    uint256 bboStake = bbs.getUint(BBLib.toB32('STAKED_DEPOSIT'));\n    require(bbo.transferFrom(msg.sender, address(this), bboStake));\n    //set status to 6\n    bbs.setUint(BBLib.toB32(jobHash ,'STATUS'), 6);\n    // save staked tokens\n    // incres pID\n    pID = pID.add(1);\n    bbs.setUint(BBLib.toB32(jobHash, 'POLL_COUNTER'), pID);\n    bbs.setUint(BBLib.toB32(jobHash, pID,'STAKED_DEPOSIT',msg.sender), bboStake);\n    // save startPoll address\n    bbs.setAddress(BBLib.toB32(jobHash, 'POLL_STARTED'), msg.sender);\n    \n    // save evidence,commit, reveal EndDate\n    bbs.setUint(BBLib.toB32(jobHash, pID,'EVEIDENCE_ENDDATE'), evidenceEndDate);\n    bbs.setUint(BBLib.toB32(jobHash, pID,'COMMIT_ENDDATE'), commitEndDate);\n    bbs.setUint(BBLib.toB32(jobHash, pID,'REVEAL_ENDDATE'), revealEndDate);\n    // save creator proofHash\n    bbs.setBytes(BBLib.toB32(jobHash, pID,'CREATOR_PROOF'), proofHash);\n\n    emit PollStarted(BBLib.toB32(jobHash), proofHash, msg.sender, jobHash);\n  }\n  /**\n  * @dev againstPoll\n  * @param jobHash Job Hash\n  * @param againstProofHash Hash of Against Proof \n  * \n  */\n  function againstPoll(bytes jobHash, bytes againstProofHash) public \n  {\n    uint256 pID = getPollID(jobHash);\n    require(canCreatePoll(jobHash)==true);\n    require(isDisputingJob(jobHash)==true);\n\n    address creator = bbs.getAddress(BBLib.toB32(jobHash, 'POLL_STARTED'));\n    require(creator!=0x0);\n    require(creator!=msg.sender);\n    require(bbs.getUint(BBLib.toB32(jobHash, pID,'EVEIDENCE_ENDDATE')) > now);\n    return doAgainstPoll(jobHash, againstProofHash, pID, creator);\n  }\n  function doAgainstPoll(bytes jobHash, bytes againstProofHash, uint256 pID, address creator) internal \n  {\n    // require sender must staked bbo equal the creator\n    uint256 bboStake = bbs.getUint(BBLib.toB32(jobHash, pID,'STAKED_DEPOSIT',creator));\n    require(bbo.transferFrom(msg.sender, address(this), bboStake));\n    bbs.setUint(BBLib.toB32(jobHash, pID,'STAKED_DEPOSIT',msg.sender), bboStake);\n\n    bbs.setBytes(BBLib.toB32(jobHash, pID,'AGAINST_PROOF'), againstProofHash);\n\n    emit PollAgainsted(BBLib.toB32(jobHash), msg.sender, againstProofHash, jobHash);\n  } \n\n  function whiteflagPoll(bytes jobHash) public{\n    uint256 pID = getPollID(jobHash);\n    require(canCreatePoll(jobHash)==true);\n    require(isDisputingJob(jobHash)==true);\n    (uint jobOwnerVotes, uint freelancerVotes) = getPoll(jobHash);\n    require(jobOwnerVotes==0);\n    require(freelancerVotes==0);\n    address jobOwner = bbs.getAddress(BBLib.toB32(jobHash));\n    address freelancer = bbs.getAddress(BBLib.toB32(jobHash,'FREELANCER'));\n    address winner = (msg.sender==jobOwner)?freelancer:jobOwner;\n    bbs.setAddress(BBLib.toB32(jobHash, 'DISPUTE_WINNER'), winner);\n    uint256 bboStake = bbs.getUint(BBLib.toB32(jobHash, pID,'STAKED_DEPOSIT',jobOwner));\n    //refun money staked for users\n    require(bbo.transfer(jobOwner, bboStake));\n    require(bbo.transfer(freelancer, bboStake));\n    // // cal finalizePayment\n    assert(payment.finalizeDispute(jobHash));\n    emit PollWhiteFlaged(BBLib.toB32(jobHash), msg.sender, jobHash);\n  }\n\n  function extendPoll(bytes jobHash) public{\n    require(canCreatePoll(jobHash)==true);\n    require(isDisputingJob(jobHash)==true);\n    (uint jobOwnerVotes, uint freelancerVotes) = getPoll(jobHash);\n    require(jobOwnerVotes==0);\n    require(freelancerVotes==0);\n    \n    uint256 pID = getPollID(jobHash);\n    uint commitDuration = bbs.getUint(BBLib.toB32('COMMIT_DURATION'));\n    require(commitDuration > 0);\n    uint revealDuration = bbs.getUint(BBLib.toB32('REVEAL_DURATION'));\n    require(revealDuration > 0);\n    // commitEndDate\n    uint commitEndDate = block.timestamp.add(commitDuration);\n    // revealEndDate\n    uint revealEndDate = commitEndDate.add(revealDuration);\n\n    bbs.setUint(BBLib.toB32(jobHash, pID,'COMMIT_ENDDATE'), commitEndDate);\n    bbs.setUint(BBLib.toB32(jobHash, pID,'REVEAL_ENDDATE'), revealEndDate);\n\n    emit PollExtended(BBLib.toB32(jobHash), jobHash);\n  }\n\n}",
  "sourcePath": "/Users/yena/Documents/tuongnguyen/bigbom-digital-contract/src/contracts/BBDispute.sol",
  "compiler": {
    "name": "solc",
    "version": "0.4.24+commit.e67f0147.Emscripten.clang"
  },
  "schemaVersion": "2.0.1",
  "updatedAt": "2018-10-03T02:32:35.259Z"
}