{
  "contractName": "BBDispute",
  "abi": [
    {
      "constant": true,
      "inputs": [],
      "name": "bbo",
      "outputs": [
        {
          "name": "",
          "type": "address"
        }
      ],
      "payable": false,
      "stateMutability": "view",
      "type": "function"
    },
    {
      "constant": true,
      "inputs": [],
      "name": "bbs",
      "outputs": [
        {
          "name": "",
          "type": "address"
        }
      ],
      "payable": false,
      "stateMutability": "view",
      "type": "function"
    },
    {
      "constant": true,
      "inputs": [],
      "name": "payment",
      "outputs": [
        {
          "name": "",
          "type": "address"
        }
      ],
      "payable": false,
      "stateMutability": "view",
      "type": "function"
    },
    {
      "constant": false,
      "inputs": [
        {
          "name": "anyToken",
          "type": "address"
        }
      ],
      "name": "withdrawTokens",
      "outputs": [],
      "payable": false,
      "stateMutability": "nonpayable",
      "type": "function"
    },
    {
      "constant": false,
      "inputs": [],
      "name": "renounceOwnership",
      "outputs": [],
      "payable": false,
      "stateMutability": "nonpayable",
      "type": "function"
    },
    {
      "constant": false,
      "inputs": [
        {
          "name": "BBOAddress",
          "type": "address"
        }
      ],
      "name": "setBBO",
      "outputs": [],
      "payable": false,
      "stateMutability": "nonpayable",
      "type": "function"
    },
    {
      "constant": true,
      "inputs": [],
      "name": "owner",
      "outputs": [
        {
          "name": "",
          "type": "address"
        }
      ],
      "payable": false,
      "stateMutability": "view",
      "type": "function"
    },
    {
      "constant": false,
      "inputs": [
        {
          "name": "storageAddress",
          "type": "address"
        }
      ],
      "name": "setStorage",
      "outputs": [],
      "payable": false,
      "stateMutability": "nonpayable",
      "type": "function"
    },
    {
      "constant": false,
      "inputs": [
        {
          "name": "_newOwner",
          "type": "address"
        }
      ],
      "name": "transferOwnership",
      "outputs": [],
      "payable": false,
      "stateMutability": "nonpayable",
      "type": "function"
    },
    {
      "anonymous": false,
      "inputs": [
        {
          "indexed": false,
          "name": "jobHash",
          "type": "bytes"
        },
        {
          "indexed": true,
          "name": "creator",
          "type": "address"
        }
      ],
      "name": "PollStarted",
      "type": "event"
    },
    {
      "anonymous": false,
      "inputs": [
        {
          "indexed": false,
          "name": "jobHash",
          "type": "bytes"
        },
        {
          "indexed": true,
          "name": "creator",
          "type": "address"
        }
      ],
      "name": "PollAgainsted",
      "type": "event"
    },
    {
      "anonymous": false,
      "inputs": [
        {
          "indexed": false,
          "name": "jobHash",
          "type": "bytes"
        },
        {
          "indexed": false,
          "name": "jobOwnerVotes",
          "type": "uint256"
        },
        {
          "indexed": false,
          "name": "freelancerVotes",
          "type": "uint256"
        },
        {
          "indexed": false,
          "name": "isPass",
          "type": "bool"
        }
      ],
      "name": "PollFinalized",
      "type": "event"
    },
    {
      "anonymous": false,
      "inputs": [
        {
          "indexed": true,
          "name": "previousOwner",
          "type": "address"
        }
      ],
      "name": "OwnershipRenounced",
      "type": "event"
    },
    {
      "anonymous": false,
      "inputs": [
        {
          "indexed": true,
          "name": "previousOwner",
          "type": "address"
        },
        {
          "indexed": true,
          "name": "newOwner",
          "type": "address"
        }
      ],
      "name": "OwnershipTransferred",
      "type": "event"
    },
    {
      "constant": false,
      "inputs": [
        {
          "name": "p",
          "type": "address"
        }
      ],
      "name": "setPayment",
      "outputs": [],
      "payable": false,
      "stateMutability": "nonpayable",
      "type": "function"
    },
    {
      "constant": true,
      "inputs": [
        {
          "name": "jobHash",
          "type": "bytes"
        }
      ],
      "name": "isAgaintsPoll",
      "outputs": [
        {
          "name": "",
          "type": "bool"
        }
      ],
      "payable": false,
      "stateMutability": "view",
      "type": "function"
    },
    {
      "constant": false,
      "inputs": [
        {
          "name": "jobHash",
          "type": "bytes"
        }
      ],
      "name": "finalizePoll",
      "outputs": [],
      "payable": false,
      "stateMutability": "nonpayable",
      "type": "function"
    },
    {
      "constant": true,
      "inputs": [
        {
          "name": "jobHash",
          "type": "bytes"
        }
      ],
      "name": "getPoll",
      "outputs": [
        {
          "name": "",
          "type": "uint256"
        },
        {
          "name": "",
          "type": "uint256"
        },
        {
          "name": "",
          "type": "bool"
        }
      ],
      "payable": false,
      "stateMutability": "view",
      "type": "function"
    },
    {
      "constant": false,
      "inputs": [
        {
          "name": "jobHash",
          "type": "bytes"
        },
        {
          "name": "proofHash",
          "type": "bytes"
        }
      ],
      "name": "startPoll",
      "outputs": [],
      "payable": false,
      "stateMutability": "nonpayable",
      "type": "function"
    },
    {
      "constant": false,
      "inputs": [
        {
          "name": "jobHash",
          "type": "bytes"
        },
        {
          "name": "againstProofHash",
          "type": "bytes"
        }
      ],
      "name": "againstPoll",
      "outputs": [],
      "payable": false,
      "stateMutability": "nonpayable",
      "type": "function"
    }
  ],
  "bytecode": "0x60806040526000600160006101000a81548173ffffffffffffffffffffffffffffffffffffffff021916908373ffffffffffffffffffffffffffffffffffffffff1602179055506000600260006101000a81548173ffffffffffffffffffffffffffffffffffffffff021916908373ffffffffffffffffffffffffffffffffffffffff1602179055506000600360006101000a81548173ffffffffffffffffffffffffffffffffffffffff021916908373ffffffffffffffffffffffffffffffffffffffff160217905550336000806101000a81548173ffffffffffffffffffffffffffffffffffffffff021916908373ffffffffffffffffffffffffffffffffffffffff160217905550614da5806101196000396000f3006080604052600436106100db576000357c0100000000000000000000000000000000000000000000000000000000900463ffffffff1680630e95870b146100e05780631e89bf061461018f5780631fde23a4146101e657806342f6487a1461023d57806349df728c14610294578063715018a6146102d75780637937f46d146102ee578063839bd27f146103315780638da5cb5b146103c05780639137c1a7146104175780639ab06fcb1461045a578063aacd61e01461049d578063b2f481ed1461054c578063b774629a146105cd578063f2fde38b14610636575b600080fd5b3480156100ec57600080fd5b5061018d600480360381019080803590602001908201803590602001908080601f0160208091040260200160405190810160405280939291908181526020018383808284378201915050505050509192919290803590602001908201803590602001908080601f0160208091040260200160405190810160405280939291908181526020018383808284378201915050505050509192919290505050610679565b005b34801561019b57600080fd5b506101a4610eb9565b604051808273ffffffffffffffffffffffffffffffffffffffff1673ffffffffffffffffffffffffffffffffffffffff16815260200191505060405180910390f35b3480156101f257600080fd5b506101fb610edf565b604051808273ffffffffffffffffffffffffffffffffffffffff1673ffffffffffffffffffffffffffffffffffffffff16815260200191505060405180910390f35b34801561024957600080fd5b50610252610f05565b604051808273ffffffffffffffffffffffffffffffffffffffff1673ffffffffffffffffffffffffffffffffffffffff16815260200191505060405180910390f35b3480156102a057600080fd5b506102d5600480360381019080803573ffffffffffffffffffffffffffffffffffffffff169060200190929190505050610f2b565b005b3480156102e357600080fd5b506102ec61123f565b005b3480156102fa57600080fd5b5061032f600480360381019080803573ffffffffffffffffffffffffffffffffffffffff169060200190929190505050611341565b005b34801561033d57600080fd5b50610398600480360381019080803590602001908201803590602001908080601f01602080910402602001604051908101604052809392919081815260200183838082843782019150505050505091929192905050506113e0565b6040518084815260200183815260200182151515158152602001935050505060405180910390f35b3480156103cc57600080fd5b506103d561196e565b604051808273ffffffffffffffffffffffffffffffffffffffff1673ffffffffffffffffffffffffffffffffffffffff16815260200191505060405180910390f35b34801561042357600080fd5b50610458600480360381019080803573ffffffffffffffffffffffffffffffffffffffff169060200190929190505050611993565b005b34801561046657600080fd5b5061049b600480360381019080803573ffffffffffffffffffffffffffffffffffffffff169060200190929190505050611a32565b005b3480156104a957600080fd5b5061054a600480360381019080803590602001908201803590602001908080601f0160208091040260200160405190810160405280939291908181526020018383808284378201915050505050509192919290803590602001908201803590602001908080601f0160208091040260200160405190810160405280939291908181526020018383808284378201915050505050509192919290505050611ad1565b005b34801561055857600080fd5b506105b3600480360381019080803590602001908201803590602001908080601f0160208091040260200160405190810160405280939291908181526020018383808284378201915050505050509192919290505050612c6e565b604051808215151515815260200191505060405180910390f35b3480156105d957600080fd5b50610634600480360381019080803590602001908201803590602001908080601f0160208091040260200160405190810160405280939291908181526020018383808284378201915050505050509192919290505050612e13565b005b34801561064257600080fd5b50610677600480360381019080803573ffffffffffffffffffffffffffffffffffffffff1690602001909291905050506140fa565b005b6000806000610687856141b9565b925060011515610696866142d4565b15151415156106a457600080fd5b600115156106b186614539565b15151415156106bf57600080fd5b600160009054906101000a900473ffffffffffffffffffffffffffffffffffffffff1673ffffffffffffffffffffffffffffffffffffffff166321f8a72161073c876040805190810160405280600c81526020017f504f4c4c5f5354415254454400000000000000000000000000000000000000008152506147ab565b6040518263ffffffff167c0100000000000000000000000000000000000000000000000000000000028152600401808260001916600019168152602001915050602060405180830381600087803b15801561079657600080fd5b505af11580156107aa573d6000803e3d6000fd5b505050506040513d60208110156107c057600080fd5b8101908080519060200190929190505050915060008273ffffffffffffffffffffffffffffffffffffffff16141515156107f957600080fd5b3373ffffffffffffffffffffffffffffffffffffffff168273ffffffffffffffffffffffffffffffffffffffff161415151561083457600080fd5b42600160009054906101000a900473ffffffffffffffffffffffffffffffffffffffff1673ffffffffffffffffffffffffffffffffffffffff1663bd02d0f56108b388876040805190810160405280601181526020017f4556454944454e43455f454e44444154450000000000000000000000000000008152506148d9565b6040518263ffffffff167c0100000000000000000000000000000000000000000000000000000000028152600401808260001916600019168152602001915050602060405180830381600087803b15801561090d57600080fd5b505af1158015610921573d6000803e3d6000fd5b505050506040513d602081101561093757600080fd5b810190808051906020019092919050505011151561095457600080fd5b600160009054906101000a900473ffffffffffffffffffffffffffffffffffffffff1673ffffffffffffffffffffffffffffffffffffffff1663bd02d0f56109d387866040805190810160405280600e81526020017f5354414b45445f4445504f53495400000000000000000000000000000000000081525087614a10565b6040518263ffffffff167c0100000000000000000000000000000000000000000000000000000000028152600401808260001916600019168152602001915050602060405180830381600087803b158015610a2d57600080fd5b505af1158015610a41573d6000803e3d6000fd5b505050506040513d6020811015610a5757600080fd5b81019080805190602001909291905050509050600260009054906101000a900473ffffffffffffffffffffffffffffffffffffffff1673ffffffffffffffffffffffffffffffffffffffff166323b872dd3330846040518463ffffffff167c0100000000000000000000000000000000000000000000000000000000028152600401808473ffffffffffffffffffffffffffffffffffffffff1673ffffffffffffffffffffffffffffffffffffffff1681526020018373ffffffffffffffffffffffffffffffffffffffff1673ffffffffffffffffffffffffffffffffffffffff1681526020018281526020019350505050602060405180830381600087803b158015610b6357600080fd5b505af1158015610b77573d6000803e3d6000fd5b505050506040513d6020811015610b8d57600080fd5b81019080805190602001909291905050501515610ba957600080fd5b600160009054906101000a900473ffffffffffffffffffffffffffffffffffffffff1673ffffffffffffffffffffffffffffffffffffffff1663e2a4853a610c2887866040805190810160405280600e81526020017f5354414b45445f4445504f53495400000000000000000000000000000000000081525033614a10565b836040518363ffffffff167c010000000000000000000000000000000000000000000000000000000002815260040180836000191660001916815260200182815260200192505050600060405180830381600087803b158015610c8a57600080fd5b505af1158015610c9e573d6000803e3d6000fd5b50505050600160009054906101000a900473ffffffffffffffffffffffffffffffffffffffff1673ffffffffffffffffffffffffffffffffffffffff16632e28d084610d2087866040805190810160405280600d81526020017f414741494e53545f50524f4f46000000000000000000000000000000000000008152506148d9565b866040518363ffffffff167c010000000000000000000000000000000000000000000000000000000002815260040180836000191660001916815260200180602001828103825283818151815260200191508051906020019080838360005b83811015610d9a578082015181840152602081019050610d7f565b50505050905090810190601f168015610dc75780820380516001836020036101000a031916815260200191505b509350505050600060405180830381600087803b158015610de757600080fd5b505af1158015610dfb573d6000803e3d6000fd5b505050503373ffffffffffffffffffffffffffffffffffffffff167fb4d3b758d0a27b2369c754e38fa9b5e506aeff5ec22c629a0b0c2434f43d45d5866040518080602001828103825283818151815260200191508051906020019080838360005b83811015610e78578082015181840152602081019050610e5d565b50505050905090810190601f168015610ea55780820380516001836020036101000a031916815260200191505b509250505060405180910390a25050505050565b600260009054906101000a900473ffffffffffffffffffffffffffffffffffffffff1681565b600160009054906101000a900473ffffffffffffffffffffffffffffffffffffffff1681565b600360009054906101000a900473ffffffffffffffffffffffffffffffffffffffff1681565b6000809054906101000a900473ffffffffffffffffffffffffffffffffffffffff1673ffffffffffffffffffffffffffffffffffffffff163373ffffffffffffffffffffffffffffffffffffffff16141515610f8657600080fd5b60003073ffffffffffffffffffffffffffffffffffffffff16311115611026576000809054906101000a900473ffffffffffffffffffffffffffffffffffffffff1673ffffffffffffffffffffffffffffffffffffffff166108fc3073ffffffffffffffffffffffffffffffffffffffff16319081150290604051600060405180830381858888f19350505050158015611024573d6000803e3d6000fd5b505b600073ffffffffffffffffffffffffffffffffffffffff168173ffffffffffffffffffffffffffffffffffffffff1614151561123c578073ffffffffffffffffffffffffffffffffffffffff1663a9059cbb6000809054906101000a900473ffffffffffffffffffffffffffffffffffffffff168373ffffffffffffffffffffffffffffffffffffffff166370a08231306040518263ffffffff167c0100000000000000000000000000000000000000000000000000000000028152600401808273ffffffffffffffffffffffffffffffffffffffff1673ffffffffffffffffffffffffffffffffffffffff168152602001915050602060405180830381600087803b15801561113557600080fd5b505af1158015611149573d6000803e3d6000fd5b505050506040513d602081101561115f57600080fd5b81019080805190602001909291905050506040518363ffffffff167c0100000000000000000000000000000000000000000000000000000000028152600401808373ffffffffffffffffffffffffffffffffffffffff1673ffffffffffffffffffffffffffffffffffffffff16815260200182815260200192505050602060405180830381600087803b1580156111f557600080fd5b505af1158015611209573d6000803e3d6000fd5b505050506040513d602081101561121f57600080fd5b8101908080519060200190929190505050151561123b57600080fd5b5b50565b6000809054906101000a900473ffffffffffffffffffffffffffffffffffffffff1673ffffffffffffffffffffffffffffffffffffffff163373ffffffffffffffffffffffffffffffffffffffff1614151561129a57600080fd5b6000809054906101000a900473ffffffffffffffffffffffffffffffffffffffff1673ffffffffffffffffffffffffffffffffffffffff167ff8df31144d9c2f0f6b59d69b8b98abd5459d07f2742c4df920b25aae33c6482060405160405180910390a260008060006101000a81548173ffffffffffffffffffffffffffffffffffffffff021916908373ffffffffffffffffffffffffffffffffffffffff160217905550565b6000809054906101000a900473ffffffffffffffffffffffffffffffffffffffff1673ffffffffffffffffffffffffffffffffffffffff163373ffffffffffffffffffffffffffffffffffffffff1614151561139c57600080fd5b80600260006101000a81548173ffffffffffffffffffffffffffffffffffffffff021916908373ffffffffffffffffffffffffffffffffffffffff16021790555050565b6000806000806000806000806000806113f88b6141b9565b9650600160009054906101000a900473ffffffffffffffffffffffffffffffffffffffff1673ffffffffffffffffffffffffffffffffffffffff166321f8a7216114418d614b8b565b6040518263ffffffff167c0100000000000000000000000000000000000000000000000000000000028152600401808260001916600019168152602001915050602060405180830381600087803b15801561149b57600080fd5b505af11580156114af573d6000803e3d6000fd5b505050506040513d60208110156114c557600080fd5b81019080805190602001909291905050509550600160009054906101000a900473ffffffffffffffffffffffffffffffffffffffff1673ffffffffffffffffffffffffffffffffffffffff166321f8a7216115558d6040805190810160405280600a81526020017f465245454c414e434552000000000000000000000000000000000000000000008152506147ab565b6040518263ffffffff167c0100000000000000000000000000000000000000000000000000000000028152600401808260001916600019168152602001915050602060405180830381600087803b1580156115af57600080fd5b505af11580156115c3573d6000803e3d6000fd5b505050506040513d60208110156115d957600080fd5b81019080805190602001909291905050509450600160009054906101000a900473ffffffffffffffffffffffffffffffffffffffff1673ffffffffffffffffffffffffffffffffffffffff1663bd02d0f561166b8d8a6040805190810160405280600881526020017f564f54455f464f520000000000000000000000000000000000000000000000008152508b614a10565b6040518263ffffffff167c0100000000000000000000000000000000000000000000000000000000028152600401808260001916600019168152602001915050602060405180830381600087803b1580156116c557600080fd5b505af11580156116d9573d6000803e3d6000fd5b505050506040513d60208110156116ef57600080fd5b81019080805190602001909291905050509350600160009054906101000a900473ffffffffffffffffffffffffffffffffffffffff1673ffffffffffffffffffffffffffffffffffffffff1663bd02d0f56117818d8a6040805190810160405280600881526020017f564f54455f464f520000000000000000000000000000000000000000000000008152508a614a10565b6040518263ffffffff167c0100000000000000000000000000000000000000000000000000000000028152600401808260001916600019168152602001915050602060405180830381600087803b1580156117db57600080fd5b505af11580156117ef573d6000803e3d6000fd5b505050506040513d602081101561180557600080fd5b81019080805190602001909291905050509250600160009054906101000a900473ffffffffffffffffffffffffffffffffffffffff1673ffffffffffffffffffffffffffffffffffffffff1663bd02d0f56118968d8a6040805190810160405280600b81526020017f564f54455f51554f52554d0000000000000000000000000000000000000000008152506148d9565b6040518263ffffffff167c0100000000000000000000000000000000000000000000000000000000028152600401808260001916600019168152602001915050602060405180830381600087803b1580156118f057600080fd5b505af1158015611904573d6000803e3d6000fd5b505050506040513d602081101561191a57600080fd5b81019080805190602001909291905050509150600090508284111561194a57828401820260648502119050611957565b8284018202606484021190505b838382995099509950505050505050509193909250565b6000809054906101000a900473ffffffffffffffffffffffffffffffffffffffff1681565b6000809054906101000a900473ffffffffffffffffffffffffffffffffffffffff1673ffffffffffffffffffffffffffffffffffffffff163373ffffffffffffffffffffffffffffffffffffffff161415156119ee57600080fd5b80600160006101000a81548173ffffffffffffffffffffffffffffffffffffffff021916908373ffffffffffffffffffffffffffffffffffffffff16021790555050565b6000809054906101000a900473ffffffffffffffffffffffffffffffffffffffff1673ffffffffffffffffffffffffffffffffffffffff163373ffffffffffffffffffffffffffffffffffffffff16141515611a8d57600080fd5b80600360006101000a81548173ffffffffffffffffffffffffffffffffffffffff021916908373ffffffffffffffffffffffffffffffffffffffff16021790555050565b60008060008060008060008060011515611aea8b614539565b1515141515611af857600080fd5b60011515611b058b6142d4565b1515141515611b1357600080fd5b600073ffffffffffffffffffffffffffffffffffffffff16600160009054906101000a900473ffffffffffffffffffffffffffffffffffffffff1673ffffffffffffffffffffffffffffffffffffffff166321f8a721611ba88d6040805190810160405280600c81526020017f504f4c4c5f5354415254454400000000000000000000000000000000000000008152506147ab565b6040518263ffffffff167c0100000000000000000000000000000000000000000000000000000000028152600401808260001916600019168152602001915050602060405180830381600087803b158015611c0257600080fd5b505af1158015611c16573d6000803e3d6000fd5b505050506040513d6020811015611c2c57600080fd5b810190808051906020019092919050505073ffffffffffffffffffffffffffffffffffffffff16141515611c5f57600080fd5b611c688a6141b9565b9750600160009054906101000a900473ffffffffffffffffffffffffffffffffffffffff1673ffffffffffffffffffffffffffffffffffffffff1663bd02d0f560405180807f45564944454e43455f4455524154494f4e000000000000000000000000000000815250601101905060405180910390206040518263ffffffff167c0100000000000000000000000000000000000000000000000000000000028152600401808260001916600019168152602001915050602060405180830381600087803b158015611d3857600080fd5b505af1158015611d4c573d6000803e3d6000fd5b505050506040513d6020811015611d6257600080fd5b81019080805190602001909291905050509650600087111515611d8457600080fd5b600160009054906101000a900473ffffffffffffffffffffffffffffffffffffffff1673ffffffffffffffffffffffffffffffffffffffff1663bd02d0f560405180807f434f4d4d49545f4455524154494f4e0000000000000000000000000000000000815250600f01905060405180910390206040518263ffffffff167c0100000000000000000000000000000000000000000000000000000000028152600401808260001916600019168152602001915050602060405180830381600087803b158015611e5257600080fd5b505af1158015611e66573d6000803e3d6000fd5b505050506040513d6020811015611e7c57600080fd5b81019080805190602001909291905050509550600086111515611e9e57600080fd5b600160009054906101000a900473ffffffffffffffffffffffffffffffffffffffff1673ffffffffffffffffffffffffffffffffffffffff1663bd02d0f560405180807f52455645414c5f4455524154494f4e0000000000000000000000000000000000815250600f01905060405180910390206040518263ffffffff167c0100000000000000000000000000000000000000000000000000000000028152600401808260001916600019168152602001915050602060405180830381600087803b158015611f6c57600080fd5b505af1158015611f80573d6000803e3d6000fd5b505050506040513d6020811015611f9657600080fd5b81019080805190602001909291905050509450600085111515611fb857600080fd5b611fcb8742614c6390919063ffffffff16565b9350611fe08685614c6390919063ffffffff16565b9250611ff58584614c6390919063ffffffff16565b9150600160009054906101000a900473ffffffffffffffffffffffffffffffffffffffff1673ffffffffffffffffffffffffffffffffffffffff1663bd02d0f560405180807f5354414b45445f4445504f534954000000000000000000000000000000000000815250600e01905060405180910390206040518263ffffffff167c0100000000000000000000000000000000000000000000000000000000028152600401808260001916600019168152602001915050602060405180830381600087803b1580156120c557600080fd5b505af11580156120d9573d6000803e3d6000fd5b505050506040513d60208110156120ef57600080fd5b81019080805190602001909291905050509050600260009054906101000a900473ffffffffffffffffffffffffffffffffffffffff1673ffffffffffffffffffffffffffffffffffffffff166323b872dd3330846040518463ffffffff167c0100000000000000000000000000000000000000000000000000000000028152600401808473ffffffffffffffffffffffffffffffffffffffff1673ffffffffffffffffffffffffffffffffffffffff1681526020018373ffffffffffffffffffffffffffffffffffffffff1673ffffffffffffffffffffffffffffffffffffffff1681526020018281526020019350505050602060405180830381600087803b1580156121fb57600080fd5b505af115801561220f573d6000803e3d6000fd5b505050506040513d602081101561222557600080fd5b8101908080519060200190929190505050151561224157600080fd5b612255600189614c6390919063ffffffff16565b9750600160009054906101000a900473ffffffffffffffffffffffffffffffffffffffff1673ffffffffffffffffffffffffffffffffffffffff1663e2a4853a6122d48c6040805190810160405280600c81526020017f504f4c4c5f434f554e54455200000000000000000000000000000000000000008152506147ab565b8a6040518363ffffffff167c010000000000000000000000000000000000000000000000000000000002815260040180836000191660001916815260200182815260200192505050600060405180830381600087803b15801561233657600080fd5b505af115801561234a573d6000803e3d6000fd5b50505050600160009054906101000a900473ffffffffffffffffffffffffffffffffffffffff1673ffffffffffffffffffffffffffffffffffffffff1663e2a4853a6123cd8c8b6040805190810160405280600e81526020017f5354414b45445f4445504f53495400000000000000000000000000000000000081525033614a10565b836040518363ffffffff167c010000000000000000000000000000000000000000000000000000000002815260040180836000191660001916815260200182815260200192505050600060405180830381600087803b15801561242f57600080fd5b505af1158015612443573d6000803e3d6000fd5b50505050600160009054906101000a900473ffffffffffffffffffffffffffffffffffffffff1673ffffffffffffffffffffffffffffffffffffffff1663ca446dd96124c48c6040805190810160405280600c81526020017f504f4c4c5f5354415254454400000000000000000000000000000000000000008152506147ab565b336040518363ffffffff167c01000000000000000000000000000000000000000000000000000000000281526004018083600019166000191681526020018273ffffffffffffffffffffffffffffffffffffffff1673ffffffffffffffffffffffffffffffffffffffff16815260200192505050600060405180830381600087803b15801561255257600080fd5b505af1158015612566573d6000803e3d6000fd5b50505050600160009054906101000a900473ffffffffffffffffffffffffffffffffffffffff1673ffffffffffffffffffffffffffffffffffffffff1663e2a4853a6125e88c8b6040805190810160405280601181526020017f4556454944454e43455f454e44444154450000000000000000000000000000008152506148d9565b866040518363ffffffff167c010000000000000000000000000000000000000000000000000000000002815260040180836000191660001916815260200182815260200192505050600060405180830381600087803b15801561264a57600080fd5b505af115801561265e573d6000803e3d6000fd5b50505050600160009054906101000a900473ffffffffffffffffffffffffffffffffffffffff1673ffffffffffffffffffffffffffffffffffffffff1663e2a4853a6126e08c8b6040805190810160405280600e81526020017f434f4d4d49545f454e44444154450000000000000000000000000000000000008152506148d9565b856040518363ffffffff167c010000000000000000000000000000000000000000000000000000000002815260040180836000191660001916815260200182815260200192505050600060405180830381600087803b15801561274257600080fd5b505af1158015612756573d6000803e3d6000fd5b50505050600160009054906101000a900473ffffffffffffffffffffffffffffffffffffffff1673ffffffffffffffffffffffffffffffffffffffff1663e2a4853a6127d88c8b6040805190810160405280600e81526020017f52455645414c5f454e44444154450000000000000000000000000000000000008152506148d9565b846040518363ffffffff167c010000000000000000000000000000000000000000000000000000000002815260040180836000191660001916815260200182815260200192505050600060405180830381600087803b15801561283a57600080fd5b505af115801561284e573d6000803e3d6000fd5b50505050600160009054906101000a900473ffffffffffffffffffffffffffffffffffffffff1673ffffffffffffffffffffffffffffffffffffffff1663e2a4853a6128d08c8b6040805190810160405280600b81526020017f564f54455f51554f52554d0000000000000000000000000000000000000000008152506148d9565b600160009054906101000a900473ffffffffffffffffffffffffffffffffffffffff1673ffffffffffffffffffffffffffffffffffffffff1663bd02d0f560405180807f564f54455f51554f52554d000000000000000000000000000000000000000000815250600b01905060405180910390206040518263ffffffff167c0100000000000000000000000000000000000000000000000000000000028152600401808260001916600019168152602001915050602060405180830381600087803b15801561299e57600080fd5b505af11580156129b2573d6000803e3d6000fd5b505050506040513d60208110156129c857600080fd5b81019080805190602001909291905050506040518363ffffffff167c010000000000000000000000000000000000000000000000000000000002815260040180836000191660001916815260200182815260200192505050600060405180830381600087803b158015612a3a57600080fd5b505af1158015612a4e573d6000803e3d6000fd5b50505050600160009054906101000a900473ffffffffffffffffffffffffffffffffffffffff1673ffffffffffffffffffffffffffffffffffffffff16632e28d084612ad08c8b6040805190810160405280600d81526020017f43524541544f525f50524f4f46000000000000000000000000000000000000008152506148d9565b8b6040518363ffffffff167c010000000000000000000000000000000000000000000000000000000002815260040180836000191660001916815260200180602001828103825283818151815260200191508051906020019080838360005b83811015612b4a578082015181840152602081019050612b2f565b50505050905090810190601f168015612b775780820380516001836020036101000a031916815260200191505b509350505050600060405180830381600087803b158015612b9757600080fd5b505af1158015612bab573d6000803e3d6000fd5b505050503373ffffffffffffffffffffffffffffffffffffffff167fc6acfe4d3b48cb9d67edd2b4950e42b75dab919290c2d50b5095b8de275be03f8b6040518080602001828103825283818151815260200191508051906020019080838360005b83811015612c28578082015181840152602081019050612c0d565b50505050905090810190601f168015612c555780820380516001836020036101000a031916815260200191505b509250505060405180910390a250505050505050505050565b6000612c896020604051908101604052806000815250614b8b565b60001916612e06600160009054906101000a900473ffffffffffffffffffffffffffffffffffffffff1673ffffffffffffffffffffffffffffffffffffffff1663c031a180612d1686612cdb886141b9565b6040805190810160405280600d81526020017f414741494e53545f50524f4f46000000000000000000000000000000000000008152506148d9565b6040518263ffffffff167c0100000000000000000000000000000000000000000000000000000000028152600401808260001916600019168152602001915050600060405180830381600087803b158015612d7057600080fd5b505af1158015612d84573d6000803e3d6000fd5b505050506040513d6000823e3d601f19601f820116820180604052506020811015612dae57600080fd5b810190808051640100000000811115612dc657600080fd5b82810190506020810184811115612ddc57600080fd5b8151856001820283011164010000000082111715612df957600080fd5b5050929190505050614b8b565b6000191614159050919050565b600080600080600080600080612e28896141b9565b975060011515612e378a614539565b1515141515612e4557600080fd5b600160009054906101000a900473ffffffffffffffffffffffffffffffffffffffff1673ffffffffffffffffffffffffffffffffffffffff166321f8a721612ec28b6040805190810160405280600c81526020017f504f4c4c5f5354415254454400000000000000000000000000000000000000008152506147ab565b6040518263ffffffff167c0100000000000000000000000000000000000000000000000000000000028152600401808260001916600019168152602001915050602060405180830381600087803b158015612f1c57600080fd5b505af1158015612f30573d6000803e3d6000fd5b505050506040513d6020811015612f4657600080fd5b81019080805190602001909291905050509650600073ffffffffffffffffffffffffffffffffffffffff168773ffffffffffffffffffffffffffffffffffffffff1614151515612f9557600080fd5b42600160009054906101000a900473ffffffffffffffffffffffffffffffffffffffff1673ffffffffffffffffffffffffffffffffffffffff1663bd02d0f56130148c8c6040805190810160405280601181526020017f4556454944454e43455f454e44444154450000000000000000000000000000008152506148d9565b6040518263ffffffff167c0100000000000000000000000000000000000000000000000000000000028152600401808260001916600019168152602001915050602060405180830381600087803b15801561306e57600080fd5b505af1158015613082573d6000803e3d6000fd5b505050506040513d602081101561309857600080fd5b8101908080519060200190929190505050111515156130b657600080fd5b600160009054906101000a900473ffffffffffffffffffffffffffffffffffffffff1673ffffffffffffffffffffffffffffffffffffffff1663bd02d0f56131358b8b6040805190810160405280600e81526020017f5354414b45445f4445504f5349540000000000000000000000000000000000008152508c614a10565b6040518263ffffffff167c0100000000000000000000000000000000000000000000000000000000028152600401808260001916600019168152602001915050602060405180830381600087803b15801561318f57600080fd5b505af11580156131a3573d6000803e3d6000fd5b505050506040513d60208110156131b957600080fd5b810190808051906020019092919050505095506131d589612c6e565b151561354757600160009054906101000a900473ffffffffffffffffffffffffffffffffffffffff1673ffffffffffffffffffffffffffffffffffffffff1663ca446dd96132588b6040805190810160405280600e81526020017f444953505554455f57494e4e45520000000000000000000000000000000000008152506147ab565b896040518363ffffffff167c01000000000000000000000000000000000000000000000000000000000281526004018083600019166000191681526020018273ffffffffffffffffffffffffffffffffffffffff1673ffffffffffffffffffffffffffffffffffffffff16815260200192505050600060405180830381600087803b1580156132e657600080fd5b505af11580156132fa573d6000803e3d6000fd5b50505050600260009054906101000a900473ffffffffffffffffffffffffffffffffffffffff1673ffffffffffffffffffffffffffffffffffffffff1663a9059cbb88886040518363ffffffff167c0100000000000000000000000000000000000000000000000000000000028152600401808373ffffffffffffffffffffffffffffffffffffffff1673ffffffffffffffffffffffffffffffffffffffff16815260200182815260200192505050602060405180830381600087803b1580156133c357600080fd5b505af11580156133d7573d6000803e3d6000fd5b505050506040513d60208110156133ed57600080fd5b8101908080519060200190929190505050151561340957600080fd5b600360009054906101000a900473ffffffffffffffffffffffffffffffffffffffff1673ffffffffffffffffffffffffffffffffffffffff16632f6aee258a6040518263ffffffff167c01000000000000000000000000000000000000000000000000000000000281526004018080602001828103825283818151815260200191508051906020019080838360005b838110156134b3578082015181840152602081019050613498565b50505050905090810190601f1680156134e05780820380516001836020036101000a031916815260200191505b5092505050602060405180830381600087803b1580156134ff57600080fd5b505af1158015613513573d6000803e3d6000fd5b505050506040513d602081101561352957600080fd5b8101908080519060200190929190505050151561354257fe5b614037565b42600160009054906101000a900473ffffffffffffffffffffffffffffffffffffffff1673ffffffffffffffffffffffffffffffffffffffff1663bd02d0f56135c68c8c6040805190810160405280600e81526020017f52455645414c5f454e44444154450000000000000000000000000000000000008152506148d9565b6040518263ffffffff167c0100000000000000000000000000000000000000000000000000000000028152600401808260001916600019168152602001915050602060405180830381600087803b15801561362057600080fd5b505af1158015613634573d6000803e3d6000fd5b505050506040513d602081101561364a57600080fd5b81019080805190602001909291905050501115151561366857600080fd5b600160009054906101000a900473ffffffffffffffffffffffffffffffffffffffff1673ffffffffffffffffffffffffffffffffffffffff166321f8a7216136af8b614b8b565b6040518263ffffffff167c0100000000000000000000000000000000000000000000000000000000028152600401808260001916600019168152602001915050602060405180830381600087803b15801561370957600080fd5b505af115801561371d573d6000803e3d6000fd5b505050506040513d602081101561373357600080fd5b81019080805190602001909291905050509450600160009054906101000a900473ffffffffffffffffffffffffffffffffffffffff1673ffffffffffffffffffffffffffffffffffffffff166321f8a7216137c38b6040805190810160405280600a81526020017f465245454c414e434552000000000000000000000000000000000000000000008152506147ab565b6040518263ffffffff167c0100000000000000000000000000000000000000000000000000000000028152600401808260001916600019168152602001915050602060405180830381600087803b15801561381d57600080fd5b505af1158015613831573d6000803e3d6000fd5b505050506040513d602081101561384757600080fd5b81019080805190602001909291905050509350613863896113e0565b925092509250801515613baf57600160009054906101000a900473ffffffffffffffffffffffffffffffffffffffff1673ffffffffffffffffffffffffffffffffffffffff1663ca446dd96138ed8b6040805190810160405280600c81526020017f504f4c4c5f5354415254454400000000000000000000000000000000000000008152506147ab565b60006040518363ffffffff167c01000000000000000000000000000000000000000000000000000000000281526004018083600019166000191681526020018273ffffffffffffffffffffffffffffffffffffffff1673ffffffffffffffffffffffffffffffffffffffff16815260200192505050600060405180830381600087803b15801561397c57600080fd5b505af1158015613990573d6000803e3d6000fd5b50505050600260009054906101000a900473ffffffffffffffffffffffffffffffffffffffff1673ffffffffffffffffffffffffffffffffffffffff1663a9059cbb86886040518363ffffffff167c0100000000000000000000000000000000000000000000000000000000028152600401808373ffffffffffffffffffffffffffffffffffffffff1673ffffffffffffffffffffffffffffffffffffffff16815260200182815260200192505050602060405180830381600087803b158015613a5957600080fd5b505af1158015613a6d573d6000803e3d6000fd5b505050506040513d6020811015613a8357600080fd5b81019080805190602001909291905050501515613a9f57600080fd5b600260009054906101000a900473ffffffffffffffffffffffffffffffffffffffff1673ffffffffffffffffffffffffffffffffffffffff1663a9059cbb85886040518363ffffffff167c0100000000000000000000000000000000000000000000000000000000028152600401808373ffffffffffffffffffffffffffffffffffffffff1673ffffffffffffffffffffffffffffffffffffffff16815260200182815260200192505050602060405180830381600087803b158015613b6457600080fd5b505af1158015613b78573d6000803e3d6000fd5b505050506040513d6020811015613b8e57600080fd5b81019080805190602001909291905050501515613baa57600080fd5b614036565b600160009054906101000a900473ffffffffffffffffffffffffffffffffffffffff1673ffffffffffffffffffffffffffffffffffffffff1663ca446dd9613c2c8b6040805190810160405280600e81526020017f444953505554455f57494e4e45520000000000000000000000000000000000008152506147ab565b848611613c395786613c3b565b875b6040518363ffffffff167c01000000000000000000000000000000000000000000000000000000000281526004018083600019166000191681526020018273ffffffffffffffffffffffffffffffffffffffff1673ffffffffffffffffffffffffffffffffffffffff16815260200192505050600060405180830381600087803b158015613cc857600080fd5b505af1158015613cdc573d6000803e3d6000fd5b50505050600260009054906101000a900473ffffffffffffffffffffffffffffffffffffffff1673ffffffffffffffffffffffffffffffffffffffff1663a9059cbb600160009054906101000a900473ffffffffffffffffffffffffffffffffffffffff1673ffffffffffffffffffffffffffffffffffffffff166321f8a721613d9b8d6040805190810160405280600e81526020017f444953505554455f57494e4e45520000000000000000000000000000000000008152506147ab565b6040518263ffffffff167c0100000000000000000000000000000000000000000000000000000000028152600401808260001916600019168152602001915050602060405180830381600087803b158015613df557600080fd5b505af1158015613e09573d6000803e3d6000fd5b505050506040513d6020811015613e1f57600080fd5b8101908080519060200190929190505050886040518363ffffffff167c0100000000000000000000000000000000000000000000000000000000028152600401808373ffffffffffffffffffffffffffffffffffffffff1673ffffffffffffffffffffffffffffffffffffffff16815260200182815260200192505050602060405180830381600087803b158015613eb657600080fd5b505af1158015613eca573d6000803e3d6000fd5b505050506040513d6020811015613ee057600080fd5b81019080805190602001909291905050501515613efc57600080fd5b600360009054906101000a900473ffffffffffffffffffffffffffffffffffffffff1673ffffffffffffffffffffffffffffffffffffffff16632f6aee258a6040518263ffffffff167c01000000000000000000000000000000000000000000000000000000000281526004018080602001828103825283818151815260200191508051906020019080838360005b83811015613fa6578082015181840152602081019050613f8b565b50505050905090810190601f168015613fd35780820380516001836020036101000a031916815260200191505b5092505050602060405180830381600087803b158015613ff257600080fd5b505af1158015614006573d6000803e3d6000fd5b505050506040513d602081101561401c57600080fd5b8101908080519060200190929190505050151561403557fe5b5b5b7ff2ad2ce00c0abebb246f24387c68f22e175d64578a6c5f2e94ab5d17acfe515789848484604051808060200185815260200184815260200183151515158152602001828103825286818151815260200191508051906020019080838360005b838110156140b2578082015181840152602081019050614097565b50505050905090810190601f1680156140df5780820380516001836020036101000a031916815260200191505b509550505050505060405180910390a1505050505050505050565b600073ffffffffffffffffffffffffffffffffffffffff166000809054906101000a900473ffffffffffffffffffffffffffffffffffffffff1673ffffffffffffffffffffffffffffffffffffffff161415156141ad576000809054906101000a900473ffffffffffffffffffffffffffffffffffffffff1673ffffffffffffffffffffffffffffffffffffffff163373ffffffffffffffffffffffffffffffffffffffff161415156141ac57600080fd5b5b6141b681614c7f565b50565b6000600160009054906101000a900473ffffffffffffffffffffffffffffffffffffffff1673ffffffffffffffffffffffffffffffffffffffff1663bd02d0f5614238846040805190810160405280600c81526020017f504f4c4c5f434f554e54455200000000000000000000000000000000000000008152506147ab565b6040518263ffffffff167c0100000000000000000000000000000000000000000000000000000000028152600401808260001916600019168152602001915050602060405180830381600087803b15801561429257600080fd5b505af11580156142a6573d6000803e3d6000fd5b505050506040513d60208110156142bc57600080fd5b81019080805190602001909291905050509050919050565b6000806000600160009054906101000a900473ffffffffffffffffffffffffffffffffffffffff1673ffffffffffffffffffffffffffffffffffffffff166321f8a72161432086614b8b565b6040518263ffffffff167c0100000000000000000000000000000000000000000000000000000000028152600401808260001916600019168152602001915050602060405180830381600087803b15801561437a57600080fd5b505af115801561438e573d6000803e3d6000fd5b505050506040513d60208110156143a457600080fd5b81019080805190602001909291905050509150600160009054906101000a900473ffffffffffffffffffffffffffffffffffffffff1673ffffffffffffffffffffffffffffffffffffffff166321f8a721614434866040805190810160405280600a81526020017f465245454c414e434552000000000000000000000000000000000000000000008152506147ab565b6040518263ffffffff167c0100000000000000000000000000000000000000000000000000000000028152600401808260001916600019168152602001915050602060405180830381600087803b15801561448e57600080fd5b505af11580156144a2573d6000803e3d6000fd5b505050506040513d60208110156144b857600080fd5b810190808051906020019092919050505090508173ffffffffffffffffffffffffffffffffffffffff163373ffffffffffffffffffffffffffffffffffffffff16148061453057508073ffffffffffffffffffffffffffffffffffffffff163373ffffffffffffffffffffffffffffffffffffffff16145b92505050919050565b6000806000600160009054906101000a900473ffffffffffffffffffffffffffffffffffffffff1673ffffffffffffffffffffffffffffffffffffffff1663bd02d0f56145bb866040805190810160405280600681526020017f53544154555300000000000000000000000000000000000000000000000000008152506147ab565b6040518263ffffffff167c0100000000000000000000000000000000000000000000000000000000028152600401808260001916600019168152602001915050602060405180830381600087803b15801561461557600080fd5b505af1158015614629573d6000803e3d6000fd5b505050506040513d602081101561463f57600080fd5b81019080805190602001909291905050509150600160009054906101000a900473ffffffffffffffffffffffffffffffffffffffff1673ffffffffffffffffffffffffffffffffffffffff166321f8a7216146cf866040805190810160405280600e81526020017f444953505554455f57494e4e45520000000000000000000000000000000000008152506147ab565b6040518263ffffffff167c0100000000000000000000000000000000000000000000000000000000028152600401808260001916600019168152602001915050602060405180830381600087803b15801561472957600080fd5b505af115801561473d573d6000803e3d6000fd5b505050506040513d602081101561475357600080fd5b810190808051906020019092919050505090506004821480156147a25750600073ffffffffffffffffffffffffffffffffffffffff168173ffffffffffffffffffffffffffffffffffffffff16145b92505050919050565b600082826040516020018083805190602001908083835b6020831015156147e757805182526020820191506020810190506020830392506147c2565b6001836020036101000a03801982511681845116808217855250505050505090500182805190602001908083835b60208310151561483a5780518252602082019150602081019050602083039250614815565b6001836020036101000a038019825116818451168082178552505050505050905001925050506040516020818303038152906040526040518082805190602001908083835b6020831015156148a4578051825260208201915060208101905060208303925061487f565b6001836020036101000a0380198251168184511680821785525050505050509050019150506040518091039020905092915050565b60008383836040516020018084805190602001908083835b60208310151561491657805182526020820191506020810190506020830392506148f1565b6001836020036101000a03801982511681845116808217855250505050505090500183815260200182805190602001908083835b60208310151561496f578051825260208201915060208101905060208303925061494a565b6001836020036101000a03801982511681845116808217855250505050505090500193505050506040516020818303038152906040526040518082805190602001908083835b6020831015156149da57805182526020820191506020810190506020830392506149b5565b6001836020036101000a038019825116818451168082178552505050505050905001915050604051809103902090509392505050565b6000848484846040516020018085805190602001908083835b602083101515614a4e5780518252602082019150602081019050602083039250614a29565b6001836020036101000a03801982511681845116808217855250505050505090500184815260200183805190602001908083835b602083101515614aa75780518252602082019150602081019050602083039250614a82565b6001836020036101000a0380198251168184511680821785525050505050509050018273ffffffffffffffffffffffffffffffffffffffff1673ffffffffffffffffffffffffffffffffffffffff166c010000000000000000000000000281526014019450505050506040516020818303038152906040526040518082805190602001908083835b602083101515614b545780518252602082019150602081019050602083039250614b2f565b6001836020036101000a03801982511681845116808217855250505050505090500191505060405180910390209050949350505050565b6000816040516020018082805190602001908083835b602083101515614bc65780518252602082019150602081019050602083039250614ba1565b6001836020036101000a0380198251168184511680821785525050505050509050019150506040516020818303038152906040526040518082805190602001908083835b602083101515614c2f5780518252602082019150602081019050602083039250614c0a565b6001836020036101000a03801982511681845116808217855250505050505090500191505060405180910390209050919050565b60008183019050828110151515614c7657fe5b80905092915050565b600073ffffffffffffffffffffffffffffffffffffffff168173ffffffffffffffffffffffffffffffffffffffff1614151515614cbb57600080fd5b8073ffffffffffffffffffffffffffffffffffffffff166000809054906101000a900473ffffffffffffffffffffffffffffffffffffffff1673ffffffffffffffffffffffffffffffffffffffff167f8be0079c531659141344cd1fd0a4f28419497f9722a3daafe3b4186f6b6457e060405160405180910390a3806000806101000a81548173ffffffffffffffffffffffffffffffffffffffff021916908373ffffffffffffffffffffffffffffffffffffffff160217905550505600a165627a7a72305820600aad3c16a17a5ef08d1e4812a2b637e89626942b925ee79f0df6a79a295ade0029",
  "source": "pragma solidity ^0.4.24;\n\nimport './BBStandard.sol';\nimport './BBLib.sol';\nimport './BBFreelancerPayment.sol';\n\ncontract BBDispute is BBStandard{\n  BBFreelancerPayment public payment = BBFreelancerPayment(0x0);\n  function setPayment(address p) onlyOwner public  {\n    payment = BBFreelancerPayment(p);\n  }\n  event PollStarted(bytes jobHash, address indexed creator);\n  event PollAgainsted(bytes jobHash, address indexed creator);\n  event PollFinalized(bytes jobHash, uint256 jobOwnerVotes, uint256 freelancerVotes, bool isPass);\n\n \n  function canCreatePoll(bytes jobHash) private returns (bool r){\n    address jobOwner = bbs.getAddress(BBLib.toB32(jobHash));\n    address freelancer = bbs.getAddress(BBLib.toB32(jobHash, 'FREELANCER'));\n    r = (msg.sender==jobOwner || msg.sender==freelancer);\n  }\n  function isDisputeJob(bytes jobHash) private returns(bool){\n    uint256 jobStatus = bbs.getUint(BBLib.toB32(jobHash ,'STATUS'));\n    address winner = bbs.getAddress(BBLib.toB32(jobHash,'DISPUTE_WINNER'));\n    return(jobStatus == 4 && winner==address(0x0));\n  }\n  function isAgaintsPoll(bytes jobHash) public constant returns(bool){\n    return BBLib.toB32(bbs.getBytes(BBLib.toB32(jobHash, getPollID(jobHash),'AGAINST_PROOF')))!=BBLib.toB32(\"\");\n  }\n  function getPollID(bytes jobHash) internal constant returns(uint256 r){\n    r = bbs.getUint(BBLib.toB32(jobHash,'POLL_COUNTER'));\n  }\n\t/**\n  * @dev finalizePoll for poll\n  * @param jobHash Job Hash\n  * \n  */\n  function finalizePoll(bytes jobHash) public\n  {\n    uint256 pollId = getPollID(jobHash);\n    require(isDisputeJob(jobHash)==true);\n    address creator = bbs.getAddress(BBLib.toB32(jobHash, 'POLL_STARTED'));\n    require(creator!=address(0x0));\n    require(bbs.getUint(BBLib.toB32(jobHash, pollId,'EVEIDENCE_ENDDATE'))<=now);\n\n    uint256 bboStake = bbs.getUint(BBLib.toB32(jobHash, pollId,'STAKED_DEPOSIT',creator));\n\n    // check if not have against proof\n    if(!isAgaintsPoll(jobHash)){      \n      // set winner to creator \n      bbs.setAddress(BBLib.toB32(jobHash, 'DISPUTE_WINNER'),creator);\n      // refun staked for \n      require(bbo.transfer(creator,bboStake));\n      // cal finalizePayment\n      assert(payment.finalizeDispute(jobHash));\n    }else{\n      require(bbs.getUint(BBLib.toB32(jobHash, pollId,'REVEAL_ENDDATE'))<=now);\n      address jobOwner = bbs.getAddress(BBLib.toB32(jobHash));\n      address freelancer = bbs.getAddress(BBLib.toB32(jobHash,'FREELANCER'));\n      (uint jobOwnerVotes, uint freelancerVotes, bool isPass) = getPoll(jobHash);\n      if(!isPass){\n        // cancel poll\n        bbs.setAddress(BBLib.toB32(jobHash, 'POLL_STARTED'), address(0x0));\n        // refun money staked\n        require(bbo.transfer(jobOwner,bboStake));\n        require(bbo.transfer(freelancer,bboStake));\n        //TODO reset POLL\n      }else{\n        bbs.setAddress(BBLib.toB32(jobHash, 'DISPUTE_WINNER'), (jobOwnerVotes>freelancerVotes)?jobOwner:freelancer);\n        //refun money staked for winner\n        require(bbo.transfer(bbs.getAddress(BBLib.toB32(jobHash,'DISPUTE_WINNER')), bboStake));\n        // cal finalizePayment\n        assert(payment.finalizeDispute(jobHash));\n      }\n    }\n    emit PollFinalized(jobHash, jobOwnerVotes, freelancerVotes, isPass);\n  }\n\n  \n  /**\n  * @dev getPoll:\n  * @param jobHash Job Hash\n  * returns uint ownerVotes, uint freelancerVotes, bool isPass quorum\n  * \n  */\n  function getPoll(bytes jobHash) public constant returns (uint256, uint256, bool) {\n    uint256 pollId = getPollID(jobHash);\n    address jobOwner = bbs.getAddress(BBLib.toB32(jobHash));\n    address freelancer = bbs.getAddress(BBLib.toB32(jobHash,'FREELANCER'));\n    uint jobOwnerVotes = bbs.getUint(BBLib.toB32(jobHash, pollId,'VOTE_FOR',jobOwner));\n    uint freelancerVotes = bbs.getUint(BBLib.toB32(jobHash, pollId,'VOTE_FOR',freelancer));\n    uint voteQuorum = bbs.getUint(BBLib.toB32(jobHash, pollId,'VOTE_QUORUM'));\n    bool isPass = false;\n    if(jobOwnerVotes>freelancerVotes){\n      isPass = (jobOwnerVotes*100)>voteQuorum*(jobOwnerVotes+freelancerVotes);\n    }else{\n      isPass = (freelancerVotes*100)>voteQuorum*(jobOwnerVotes+freelancerVotes);\n    }\n    return (jobOwnerVotes, freelancerVotes, isPass);\n  }\n  /**\n  * @dev startPoll\n  * @param jobHash Job Hash\n  * @param proofHash Hash of Proof \n  * \n  */\n  function startPoll(bytes jobHash, bytes proofHash) public \n  {\n    require(isDisputeJob(jobHash)==true);\n    require(canCreatePoll(jobHash)==true);\n    require(bbs.getAddress(BBLib.toB32(jobHash, 'POLL_STARTED'))==address(0x0));\n    \n\n    uint256 pollId = getPollID(jobHash);\n    uint evidenceDuration = bbs.getUint(keccak256('EVIDENCE_DURATION'));\n    require(evidenceDuration > 0);\n    uint commitDuration = bbs.getUint(keccak256('COMMIT_DURATION'));\n    require(commitDuration > 0);\n    uint revealDuration = bbs.getUint(keccak256('REVEAL_DURATION'));\n    require(revealDuration > 0);\n    // evidenceEndDate\n    uint evidenceEndDate = block.timestamp.add(evidenceDuration);\n    // commitEndDate\n    uint commitEndDate = evidenceEndDate.add(commitDuration);\n    // revealEndDate\n    uint revealEndDate = commitEndDate.add(revealDuration);\n    // require sender must staked \n    uint256 bboStake = bbs.getUint(keccak256('STAKED_DEPOSIT'));\n    require(bbo.transferFrom(msg.sender, address(this), bboStake));\n    // save staked tokens\n    // incres pollId\n    pollId = pollId.add(1);\n    bbs.setUint(BBLib.toB32(jobHash, 'POLL_COUNTER'), pollId);\n    bbs.setUint(BBLib.toB32(jobHash, pollId,'STAKED_DEPOSIT',msg.sender), bboStake);\n    // save startPoll address\n    bbs.setAddress(BBLib.toB32(jobHash, 'POLL_STARTED'), msg.sender);\n    \n    // save evidence,commit, reveal EndDate\n    bbs.setUint(BBLib.toB32(jobHash, pollId,'EVEIDENCE_ENDDATE'), evidenceEndDate);\n    bbs.setUint(BBLib.toB32(jobHash, pollId,'COMMIT_ENDDATE'), commitEndDate);\n    bbs.setUint(BBLib.toB32(jobHash, pollId,'REVEAL_ENDDATE'), revealEndDate);\n    bbs.setUint(BBLib.toB32(jobHash, pollId,'VOTE_QUORUM'),bbs.getUint(keccak256('VOTE_QUORUM')) );\n    // save creator proofHash\n    bbs.setBytes(BBLib.toB32(jobHash, pollId,'CREATOR_PROOF'), proofHash);\n\n    emit PollStarted(jobHash, msg.sender);\n  }\n  /**\n  * @dev againstPoll\n  * @param jobHash Job Hash\n  * @param againstProofHash Hash of Against Proof \n  * \n  */\n  function againstPoll(bytes jobHash, bytes againstProofHash) public \n  {\n    uint256 pollId = getPollID(jobHash);\n    require(canCreatePoll(jobHash)==true);\n    require(isDisputeJob(jobHash)==true);\n\n    address creator = bbs.getAddress(BBLib.toB32(jobHash, 'POLL_STARTED'));\n    require(creator!=0x0);\n    require(creator!=msg.sender);\n    require(bbs.getUint(BBLib.toB32(jobHash, pollId,'EVEIDENCE_ENDDATE')) > now);\n    // require sender must staked bbo equal the creator\n    uint256 bboStake = bbs.getUint(BBLib.toB32(jobHash, pollId,'STAKED_DEPOSIT',creator));\n    require(bbo.transferFrom(msg.sender, address(this), bboStake));\n    bbs.setUint(BBLib.toB32(jobHash, pollId,'STAKED_DEPOSIT',msg.sender), bboStake);\n\n    bbs.setBytes(BBLib.toB32(jobHash, pollId,'AGAINST_PROOF'), againstProofHash);\n    emit PollAgainsted(jobHash, msg.sender);\n  }\n\n}",
  "sourcePath": "/Users/yena/Documents/tuongnguyen/bigbom-digital-contract/src/contracts/BBDispute.sol",
  "compiler": {
    "name": "solc",
    "version": "0.4.24+commit.e67f0147.Emscripten.clang"
  },
  "schemaVersion": "2.0.1",
  "updatedAt": "2018-09-11T09:23:45.985Z"
}