{
  "contractName": "BBFreelancerPayment",
  "abi": [
    {
      "constant": true,
      "inputs": [],
      "name": "bbo",
      "outputs": [
        {
          "name": "",
          "type": "address"
        }
      ],
      "payable": false,
      "stateMutability": "view",
      "type": "function"
    },
    {
      "constant": true,
      "inputs": [],
      "name": "bbs",
      "outputs": [
        {
          "name": "",
          "type": "address"
        }
      ],
      "payable": false,
      "stateMutability": "view",
      "type": "function"
    },
    {
      "constant": false,
      "inputs": [
        {
          "name": "anyToken",
          "type": "address"
        }
      ],
      "name": "withdrawTokens",
      "outputs": [],
      "payable": false,
      "stateMutability": "nonpayable",
      "type": "function"
    },
    {
      "constant": false,
      "inputs": [],
      "name": "renounceOwnership",
      "outputs": [],
      "payable": false,
      "stateMutability": "nonpayable",
      "type": "function"
    },
    {
      "constant": false,
      "inputs": [
        {
          "name": "BBOAddress",
          "type": "address"
        }
      ],
      "name": "setBBO",
      "outputs": [],
      "payable": false,
      "stateMutability": "nonpayable",
      "type": "function"
    },
    {
      "constant": true,
      "inputs": [],
      "name": "owner",
      "outputs": [
        {
          "name": "",
          "type": "address"
        }
      ],
      "payable": false,
      "stateMutability": "view",
      "type": "function"
    },
    {
      "constant": false,
      "inputs": [
        {
          "name": "storageAddress",
          "type": "address"
        }
      ],
      "name": "setStorage",
      "outputs": [],
      "payable": false,
      "stateMutability": "nonpayable",
      "type": "function"
    },
    {
      "constant": false,
      "inputs": [
        {
          "name": "_newOwner",
          "type": "address"
        }
      ],
      "name": "transferOwnership",
      "outputs": [],
      "payable": false,
      "stateMutability": "nonpayable",
      "type": "function"
    },
    {
      "anonymous": false,
      "inputs": [
        {
          "indexed": false,
          "name": "jobHash",
          "type": "bytes"
        },
        {
          "indexed": true,
          "name": "sender",
          "type": "address"
        }
      ],
      "name": "PaymentClaimed",
      "type": "event"
    },
    {
      "anonymous": false,
      "inputs": [
        {
          "indexed": false,
          "name": "jobHash",
          "type": "bytes"
        },
        {
          "indexed": true,
          "name": "sender",
          "type": "address"
        }
      ],
      "name": "PaymentAccepted",
      "type": "event"
    },
    {
      "anonymous": false,
      "inputs": [
        {
          "indexed": false,
          "name": "jobHash",
          "type": "bytes"
        },
        {
          "indexed": true,
          "name": "sender",
          "type": "address"
        }
      ],
      "name": "PaymentRejected",
      "type": "event"
    },
    {
      "anonymous": false,
      "inputs": [
        {
          "indexed": false,
          "name": "jobHash",
          "type": "bytes"
        },
        {
          "indexed": true,
          "name": "winner",
          "type": "address"
        }
      ],
      "name": "DisputeFinalized",
      "type": "event"
    },
    {
      "anonymous": false,
      "inputs": [
        {
          "indexed": true,
          "name": "previousOwner",
          "type": "address"
        }
      ],
      "name": "OwnershipRenounced",
      "type": "event"
    },
    {
      "anonymous": false,
      "inputs": [
        {
          "indexed": true,
          "name": "previousOwner",
          "type": "address"
        },
        {
          "indexed": true,
          "name": "newOwner",
          "type": "address"
        }
      ],
      "name": "OwnershipTransferred",
      "type": "event"
    },
    {
      "constant": false,
      "inputs": [
        {
          "name": "jobHash",
          "type": "bytes"
        }
      ],
      "name": "acceptPayment",
      "outputs": [],
      "payable": false,
      "stateMutability": "nonpayable",
      "type": "function"
    },
    {
      "constant": false,
      "inputs": [
        {
          "name": "jobHash",
          "type": "bytes"
        }
      ],
      "name": "rejectPayment",
      "outputs": [],
      "payable": false,
      "stateMutability": "nonpayable",
      "type": "function"
    },
    {
      "constant": false,
      "inputs": [
        {
          "name": "jobHash",
          "type": "bytes"
        }
      ],
      "name": "claimePayment",
      "outputs": [],
      "payable": false,
      "stateMutability": "nonpayable",
      "type": "function"
    },
    {
      "constant": true,
      "inputs": [
        {
          "name": "jobHash",
          "type": "bytes"
        }
      ],
      "name": "checkPayment",
      "outputs": [
        {
          "name": "",
          "type": "uint256"
        },
        {
          "name": "",
          "type": "uint256"
        }
      ],
      "payable": false,
      "stateMutability": "view",
      "type": "function"
    },
    {
      "constant": false,
      "inputs": [
        {
          "name": "jobHash",
          "type": "bytes"
        }
      ],
      "name": "withdrawAllBBO",
      "outputs": [
        {
          "name": "",
          "type": "bool"
        }
      ],
      "payable": false,
      "stateMutability": "nonpayable",
      "type": "function"
    },
    {
      "constant": false,
      "inputs": [
        {
          "name": "jobHash",
          "type": "bytes"
        }
      ],
      "name": "refundBBO",
      "outputs": [
        {
          "name": "",
          "type": "bool"
        }
      ],
      "payable": false,
      "stateMutability": "nonpayable",
      "type": "function"
    },
    {
      "constant": false,
      "inputs": [
        {
          "name": "jobHash",
          "type": "bytes"
        }
      ],
      "name": "finalizeDispute",
      "outputs": [
        {
          "name": "",
          "type": "bool"
        }
      ],
      "payable": false,
      "stateMutability": "nonpayable",
      "type": "function"
    }
  ],
  "bytecode": "0x60806040526000600160006101000a81548173ffffffffffffffffffffffffffffffffffffffff021916908373ffffffffffffffffffffffffffffffffffffffff1602179055506000600260006101000a81548173ffffffffffffffffffffffffffffffffffffffff021916908373ffffffffffffffffffffffffffffffffffffffff160217905550336000806101000a81548173ffffffffffffffffffffffffffffffffffffffff021916908373ffffffffffffffffffffffffffffffffffffffff160217905550614266806100d76000396000f3006080604052600436106100db576000357c0100000000000000000000000000000000000000000000000000000000900463ffffffff1680631e89bf06146100e05780631fde23a4146101375780632be76acc1461018e5780632de8385b146101f75780632f6aee251461026057806343d5f5c3146102e157806349df728c146103625780636ab0fbe3146103a5578063715018a61461040e5780637937f46d1461042557806385c51803146104685780638da5cb5b146104ec5780639137c1a714610543578063ee48959c14610586578063f2fde38b14610607575b600080fd5b3480156100ec57600080fd5b506100f561064a565b604051808273ffffffffffffffffffffffffffffffffffffffff1673ffffffffffffffffffffffffffffffffffffffff16815260200191505060405180910390f35b34801561014357600080fd5b5061014c610670565b604051808273ffffffffffffffffffffffffffffffffffffffff1673ffffffffffffffffffffffffffffffffffffffff16815260200191505060405180910390f35b34801561019a57600080fd5b506101f5600480360381019080803590602001908201803590602001908080601f0160208091040260200160405190810160405280939291908181526020018383808284378201915050505050509192919290505050610696565b005b34801561020357600080fd5b5061025e600480360381019080803590602001908201803590602001908080601f0160208091040260200160405190810160405280939291908181526020018383808284378201915050505050509192919290505050610ad5565b005b34801561026c57600080fd5b506102c7600480360381019080803590602001908201803590602001908080601f01602080910402602001604051908101604052809392919081815260200183838082843782019150505050505091929192905050506113ca565b604051808215151515815260200191505060405180910390f35b3480156102ed57600080fd5b50610348600480360381019080803590602001908201803590602001908080601f0160208091040260200160405190810160405280939291908181526020018383808284378201915050505050509192919290505050611e03565b604051808215151515815260200191505060405180910390f35b34801561036e57600080fd5b506103a3600480360381019080803573ffffffffffffffffffffffffffffffffffffffff16906020019092919050505061238a565b005b3480156103b157600080fd5b5061040c600480360381019080803590602001908201803590602001908080601f016020809104026020016040519081016040528093929190818152602001838380828437820191505050505050919291929050505061269e565b005b34801561041a57600080fd5b50610423613023565b005b34801561043157600080fd5b50610466600480360381019080803573ffffffffffffffffffffffffffffffffffffffff169060200190929190505050613125565b005b34801561047457600080fd5b506104cf600480360381019080803590602001908201803590602001908080601f01602080910402602001604051908101604052809392919081815260200183838082843782019150505050505091929192905050506131c4565b604051808381526020018281526020019250505060405180910390f35b3480156104f857600080fd5b5061050161351f565b604051808273ffffffffffffffffffffffffffffffffffffffff1673ffffffffffffffffffffffffffffffffffffffff16815260200191505060405180910390f35b34801561054f57600080fd5b50610584600480360381019080803573ffffffffffffffffffffffffffffffffffffffff169060200190929190505050613544565b005b34801561059257600080fd5b506105ed600480360381019080803590602001908201803590602001908080601f01602080910402602001604051908101604052809392919081815260200183838082843782019150505050505091929192905050506135e3565b604051808215151515815260200191505060405180910390f35b34801561061357600080fd5b50610648600480360381019080803573ffffffffffffffffffffffffffffffffffffffff169060200190929190505050613ca9565b005b600260009054906101000a900473ffffffffffffffffffffffffffffffffffffffff1681565b600160009054906101000a900473ffffffffffffffffffffffffffffffffffffffff1681565b803373ffffffffffffffffffffffffffffffffffffffff16600160009054906101000a900473ffffffffffffffffffffffffffffffffffffffff1673ffffffffffffffffffffffffffffffffffffffff166321f8a721836040518082805190602001908083835b60208310151561072257805182526020820191506020810190506020830392506106fd565b6001836020036101000a03801982511681845116808217855250505050505090500191505060405180910390206040518263ffffffff167c0100000000000000000000000000000000000000000000000000000000028152600401808260001916600019168152602001915050602060405180830381600087803b1580156107a957600080fd5b505af11580156107bd573d6000803e3d6000fd5b505050506040513d60208110156107d357600080fd5b810190808051906020019092919050505073ffffffffffffffffffffffffffffffffffffffff1614151561080657600080fd5b6002600160009054906101000a900473ffffffffffffffffffffffffffffffffffffffff1673ffffffffffffffffffffffffffffffffffffffff1663bd02d0f5610885856040805190810160405280600681526020017f5354415455530000000000000000000000000000000000000000000000000000815250613d68565b6040518263ffffffff167c0100000000000000000000000000000000000000000000000000000000028152600401808260001916600019168152602001915050602060405180830381600087803b1580156108df57600080fd5b505af11580156108f3573d6000803e3d6000fd5b505050506040513d602081101561090957600080fd5b810190808051906020019092919050505014151561092657600080fd5b600160009054906101000a900473ffffffffffffffffffffffffffffffffffffffff1673ffffffffffffffffffffffffffffffffffffffff1663e2a4853a6109a3846040805190810160405280600681526020017f5354415455530000000000000000000000000000000000000000000000000000815250613d68565b60046040518363ffffffff167c010000000000000000000000000000000000000000000000000000000002815260040180836000191660001916815260200182815260200192505050600060405180830381600087803b158015610a0657600080fd5b505af1158015610a1a573d6000803e3d6000fd5b505050503373ffffffffffffffffffffffffffffffffffffffff167fd5992f984e49c16e9082f101e62b87b3d79137cd8dcc3d62f721677ecc01afe8836040518080602001828103825283818151815260200191508051906020019080838360005b83811015610a97578082015181840152602081019050610a7c565b50505050905090810190601f168015610ac45780820380516001836020036101000a031916815260200191505b509250505060405180910390a25050565b6000806000833373ffffffffffffffffffffffffffffffffffffffff16600160009054906101000a900473ffffffffffffffffffffffffffffffffffffffff1673ffffffffffffffffffffffffffffffffffffffff166321f8a721836040516020018082805190602001908083835b602083101515610b695780518252602082019150602081019050602083039250610b44565b6001836020036101000a038019825116818451168082178552505050505050905001807f465245454c414e43455200000000000000000000000000000000000000000000815250600a019150506040516020818303038152906040526040518082805190602001908083835b602083101515610bfa5780518252602082019150602081019050602083039250610bd5565b6001836020036101000a03801982511681845116808217855250505050505090500191505060405180910390206040518263ffffffff167c0100000000000000000000000000000000000000000000000000000000028152600401808260001916600019168152602001915050602060405180830381600087803b158015610c8157600080fd5b505af1158015610c95573d6000803e3d6000fd5b505050506040513d6020811015610cab57600080fd5b810190808051906020019092919050505073ffffffffffffffffffffffffffffffffffffffff16141515610cde57600080fd5b6002600160009054906101000a900473ffffffffffffffffffffffffffffffffffffffff1673ffffffffffffffffffffffffffffffffffffffff1663bd02d0f5610d5d886040805190810160405280600681526020017f5354415455530000000000000000000000000000000000000000000000000000815250613d68565b6040518263ffffffff167c0100000000000000000000000000000000000000000000000000000000028152600401808260001916600019168152602001915050602060405180830381600087803b158015610db757600080fd5b505af1158015610dcb573d6000803e3d6000fd5b505050506040513d6020811015610de157600080fd5b8101908080519060200190929190505050141515610dfe57600080fd5b600160009054906101000a900473ffffffffffffffffffffffffffffffffffffffff1673ffffffffffffffffffffffffffffffffffffffff1663bd02d0f5610e7b876040805190810160405280601681526020017f4a4f425f46494e49534845445f54494d455354414d5000000000000000000000815250613d68565b6040518263ffffffff167c0100000000000000000000000000000000000000000000000000000000028152600401808260001916600019168152602001915050602060405180830381600087803b158015610ed557600080fd5b505af1158015610ee9573d6000803e3d6000fd5b505050506040513d6020811015610eff57600080fd5b81019080805190602001909291905050509350600160009054906101000a900473ffffffffffffffffffffffffffffffffffffffff1673ffffffffffffffffffffffffffffffffffffffff1663bd02d0f560405180807f5041594d454e545f4c494d49545f54494d455354414d50000000000000000000815250601701905060405180910390206040518263ffffffff167c0100000000000000000000000000000000000000000000000000000000028152600401808260001916600019168152602001915050602060405180830381600087803b158015610fe057600080fd5b505af1158015610ff4573d6000803e3d6000fd5b505050506040513d602081101561100a57600080fd5b81019080805190602001909291905050509250428385011115151561102e57600080fd5b600160009054906101000a900473ffffffffffffffffffffffffffffffffffffffff1673ffffffffffffffffffffffffffffffffffffffff1663e2a4853a6110ab876040805190810160405280600681526020017f5354415455530000000000000000000000000000000000000000000000000000815250613d68565b60056040518363ffffffff167c010000000000000000000000000000000000000000000000000000000002815260040180836000191660001916815260200182815260200192505050600060405180830381600087803b15801561110e57600080fd5b505af1158015611122573d6000803e3d6000fd5b50505050600160009054906101000a900473ffffffffffffffffffffffffffffffffffffffff1673ffffffffffffffffffffffffffffffffffffffff1663bd02d0f561116e8733613e96565b6040518263ffffffff167c0100000000000000000000000000000000000000000000000000000000028152600401808260001916600019168152602001915050602060405180830381600087803b1580156111c857600080fd5b505af11580156111dc573d6000803e3d6000fd5b505050506040513d60208110156111f257600080fd5b81019080805190602001909291905050509150600260009054906101000a900473ffffffffffffffffffffffffffffffffffffffff1673ffffffffffffffffffffffffffffffffffffffff1663a9059cbb33846040518363ffffffff167c0100000000000000000000000000000000000000000000000000000000028152600401808373ffffffffffffffffffffffffffffffffffffffff1673ffffffffffffffffffffffffffffffffffffffff16815260200182815260200192505050602060405180830381600087803b1580156112ca57600080fd5b505af11580156112de573d6000803e3d6000fd5b505050506040513d60208110156112f457600080fd5b8101908080519060200190929190505050151561131057600080fd5b3373ffffffffffffffffffffffffffffffffffffffff167f1b12fae60d4bf916e4b3da0e1389482769232aa8d895b8c527a948b715f2cd93866040518080602001828103825283818151815260200191508051906020019080838360005b8381101561138957808201518184015260208101905061136e565b50505050905090810190601f1680156113b65780820380516001836020036101000a031916815260200191505b509250505060405180910390a25050505050565b600080600080600080600160009054906101000a900473ffffffffffffffffffffffffffffffffffffffff1673ffffffffffffffffffffffffffffffffffffffff166321f8a721886040518082805190602001908083835b6020831015156114475780518252602082019150602081019050602083039250611422565b6001836020036101000a03801982511681845116808217855250505050505090500191505060405180910390206040518263ffffffff167c0100000000000000000000000000000000000000000000000000000000028152600401808260001916600019168152602001915050602060405180830381600087803b1580156114ce57600080fd5b505af11580156114e2573d6000803e3d6000fd5b505050506040513d60208110156114f857600080fd5b810190808051906020019092919050505073ffffffffffffffffffffffffffffffffffffffff161415151561152c57600080fd5b60011515600160009054906101000a900473ffffffffffffffffffffffffffffffffffffffff1673ffffffffffffffffffffffffffffffffffffffff16637ae1cfca6115ad896040805190810160405280601181526020017f5041594d454e545f46494e414c495a4544000000000000000000000000000000815250613d68565b6040518263ffffffff167c0100000000000000000000000000000000000000000000000000000000028152600401808260001916600019168152602001915050602060405180830381600087803b15801561160757600080fd5b505af115801561161b573d6000803e3d6000fd5b505050506040513d602081101561163157600080fd5b810190808051906020019092919050505015151415151561165157600080fd5b600160009054906101000a900473ffffffffffffffffffffffffffffffffffffffff1673ffffffffffffffffffffffffffffffffffffffff166321f8a7216116ce886040805190810160405280600e81526020017f444953505554455f57494e4e4552000000000000000000000000000000000000815250613d68565b6040518263ffffffff167c0100000000000000000000000000000000000000000000000000000000028152600401808260001916600019168152602001915050602060405180830381600087803b15801561172857600080fd5b505af115801561173c573d6000803e3d6000fd5b505050506040513d602081101561175257600080fd5b81019080805190602001909291905050509350600073ffffffffffffffffffffffffffffffffffffffff168473ffffffffffffffffffffffffffffffffffffffff16141515156117a157600080fd5b600160009054906101000a900473ffffffffffffffffffffffffffffffffffffffff1673ffffffffffffffffffffffffffffffffffffffff166321f8a72161181e886040805190810160405280600a81526020017f465245454c414e43455200000000000000000000000000000000000000000000815250613d68565b6040518263ffffffff167c0100000000000000000000000000000000000000000000000000000000028152600401808260001916600019168152602001915050602060405180830381600087803b15801561187857600080fd5b505af115801561188c573d6000803e3d6000fd5b505050506040513d60208110156118a257600080fd5b81019080805190602001909291905050509250600160009054906101000a900473ffffffffffffffffffffffffffffffffffffffff1673ffffffffffffffffffffffffffffffffffffffff166321f8a721876040518082805190602001908083835b6020831015156119295780518252602082019150602081019050602083039250611904565b6001836020036101000a03801982511681845116808217855250505050505090500191505060405180910390206040518263ffffffff167c0100000000000000000000000000000000000000000000000000000000028152600401808260001916600019168152602001915050602060405180830381600087803b1580156119b057600080fd5b505af11580156119c4573d6000803e3d6000fd5b505050506040513d60208110156119da57600080fd5b81019080805190602001909291905050509150600160009054906101000a900473ffffffffffffffffffffffffffffffffffffffff1673ffffffffffffffffffffffffffffffffffffffff1663bd02d0f5611a358886613e96565b6040518263ffffffff167c0100000000000000000000000000000000000000000000000000000000028152600401808260001916600019168152602001915050602060405180830381600087803b158015611a8f57600080fd5b505af1158015611aa3573d6000803e3d6000fd5b505050506040513d6020811015611ab957600080fd5b810190808051906020019092919050505090508273ffffffffffffffffffffffffffffffffffffffff168473ffffffffffffffffffffffffffffffffffffffff161480611b3157508173ffffffffffffffffffffffffffffffffffffffff168473ffffffffffffffffffffffffffffffffffffffff16145b1515611b3c57600080fd5b600160009054906101000a900473ffffffffffffffffffffffffffffffffffffffff1673ffffffffffffffffffffffffffffffffffffffff1663abfdcced611bb9886040805190810160405280601181526020017f5041594d454e545f46494e414c495a4544000000000000000000000000000000815250613d68565b60016040518363ffffffff167c01000000000000000000000000000000000000000000000000000000000281526004018083600019166000191681526020018215151515815260200192505050600060405180830381600087803b158015611c2057600080fd5b505af1158015611c34573d6000803e3d6000fd5b50505050600260009054906101000a900473ffffffffffffffffffffffffffffffffffffffff1673ffffffffffffffffffffffffffffffffffffffff1663a9059cbb85836040518363ffffffff167c0100000000000000000000000000000000000000000000000000000000028152600401808373ffffffffffffffffffffffffffffffffffffffff1673ffffffffffffffffffffffffffffffffffffffff16815260200182815260200192505050602060405180830381600087803b158015611cfd57600080fd5b505af1158015611d11573d6000803e3d6000fd5b505050506040513d6020811015611d2757600080fd5b81019080805190602001909291905050501515611d4357600080fd5b8373ffffffffffffffffffffffffffffffffffffffff167fcdae23650587a9b744f7f969a59f7359512b466ea69cf51df8c2ac23a4f6835a876040518080602001828103825283818151815260200191508051906020019080838360005b83811015611dbc578082015181840152602081019050611da1565b50505050905090810190601f168015611de95780820380516001836020036101000a031916815260200191505b509250505060405180910390a26001945050505050919050565b600080600060011515600160009054906101000a900473ffffffffffffffffffffffffffffffffffffffff1673ffffffffffffffffffffffffffffffffffffffff16637ae1cfca611e89876040805190810160405280600681526020017f43414e43454c0000000000000000000000000000000000000000000000000000815250613d68565b6040518263ffffffff167c0100000000000000000000000000000000000000000000000000000000028152600401808260001916600019168152602001915050602060405180830381600087803b158015611ee357600080fd5b505af1158015611ef7573d6000803e3d6000fd5b505050506040513d6020811015611f0d57600080fd5b81019080805190602001909291905050501515141515611f2c57600080fd5b600160009054906101000a900473ffffffffffffffffffffffffffffffffffffffff1673ffffffffffffffffffffffffffffffffffffffff166321f8a721856040518082805190602001908083835b602083101515611fa05780518252602082019150602081019050602083039250611f7b565b6001836020036101000a03801982511681845116808217855250505050505090500191505060405180910390206040518263ffffffff167c0100000000000000000000000000000000000000000000000000000000028152600401808260001916600019168152602001915050602060405180830381600087803b15801561202757600080fd5b505af115801561203b573d6000803e3d6000fd5b505050506040513d602081101561205157600080fd5b81019080805190602001909291905050509150600160009054906101000a900473ffffffffffffffffffffffffffffffffffffffff1673ffffffffffffffffffffffffffffffffffffffff1663bd02d0f56120e286856040805190810160405280600781526020017f4445504f53495400000000000000000000000000000000000000000000000000815250613fb2565b6040518263ffffffff167c0100000000000000000000000000000000000000000000000000000000028152600401808260001916600019168152602001915050602060405180830381600087803b15801561213c57600080fd5b505af1158015612150573d6000803e3d6000fd5b505050506040513d602081101561216657600080fd5b81019080805190602001909291905050509050600160009054906101000a900473ffffffffffffffffffffffffffffffffffffffff1673ffffffffffffffffffffffffffffffffffffffff1663e2a4853a6121f786856040805190810160405280600781526020017f4445504f53495400000000000000000000000000000000000000000000000000815250613fb2565b60006040518363ffffffff167c010000000000000000000000000000000000000000000000000000000002815260040180836000191660001916815260200182815260200192505050600060405180830381600087803b15801561225a57600080fd5b505af115801561226e573d6000803e3d6000fd5b50505050600081111561238257600260009054906101000a900473ffffffffffffffffffffffffffffffffffffffff1673ffffffffffffffffffffffffffffffffffffffff1663a9059cbb83836040518363ffffffff167c0100000000000000000000000000000000000000000000000000000000028152600401808373ffffffffffffffffffffffffffffffffffffffff1673ffffffffffffffffffffffffffffffffffffffff16815260200182815260200192505050602060405180830381600087803b15801561234057600080fd5b505af1158015612354573d6000803e3d6000fd5b505050506040513d602081101561236a57600080fd5b81019080805190602001909291905050509250612383565b5b5050919050565b6000809054906101000a900473ffffffffffffffffffffffffffffffffffffffff1673ffffffffffffffffffffffffffffffffffffffff163373ffffffffffffffffffffffffffffffffffffffff161415156123e557600080fd5b60003073ffffffffffffffffffffffffffffffffffffffff16311115612485576000809054906101000a900473ffffffffffffffffffffffffffffffffffffffff1673ffffffffffffffffffffffffffffffffffffffff166108fc3073ffffffffffffffffffffffffffffffffffffffff16319081150290604051600060405180830381858888f19350505050158015612483573d6000803e3d6000fd5b505b600073ffffffffffffffffffffffffffffffffffffffff168173ffffffffffffffffffffffffffffffffffffffff1614151561269b578073ffffffffffffffffffffffffffffffffffffffff1663a9059cbb6000809054906101000a900473ffffffffffffffffffffffffffffffffffffffff168373ffffffffffffffffffffffffffffffffffffffff166370a08231306040518263ffffffff167c0100000000000000000000000000000000000000000000000000000000028152600401808273ffffffffffffffffffffffffffffffffffffffff1673ffffffffffffffffffffffffffffffffffffffff168152602001915050602060405180830381600087803b15801561259457600080fd5b505af11580156125a8573d6000803e3d6000fd5b505050506040513d60208110156125be57600080fd5b81019080805190602001909291905050506040518363ffffffff167c0100000000000000000000000000000000000000000000000000000000028152600401808373ffffffffffffffffffffffffffffffffffffffff1673ffffffffffffffffffffffffffffffffffffffff16815260200182815260200192505050602060405180830381600087803b15801561265457600080fd5b505af1158015612668573d6000803e3d6000fd5b505050506040513d602081101561267e57600080fd5b8101908080519060200190929190505050151561269a57600080fd5b5b50565b600080823373ffffffffffffffffffffffffffffffffffffffff16600160009054906101000a900473ffffffffffffffffffffffffffffffffffffffff1673ffffffffffffffffffffffffffffffffffffffff166321f8a721836040518082805190602001908083835b60208310151561272d5780518252602082019150602081019050602083039250612708565b6001836020036101000a03801982511681845116808217855250505050505090500191505060405180910390206040518263ffffffff167c0100000000000000000000000000000000000000000000000000000000028152600401808260001916600019168152602001915050602060405180830381600087803b1580156127b457600080fd5b505af11580156127c8573d6000803e3d6000fd5b505050506040513d60208110156127de57600080fd5b810190808051906020019092919050505073ffffffffffffffffffffffffffffffffffffffff1614151561281157600080fd5b6002600160009054906101000a900473ffffffffffffffffffffffffffffffffffffffff1673ffffffffffffffffffffffffffffffffffffffff1663bd02d0f5612890876040805190810160405280600681526020017f5354415455530000000000000000000000000000000000000000000000000000815250613d68565b6040518263ffffffff167c0100000000000000000000000000000000000000000000000000000000028152600401808260001916600019168152602001915050602060405180830381600087803b1580156128ea57600080fd5b505af11580156128fe573d6000803e3d6000fd5b505050506040513d602081101561291457600080fd5b81019080805190602001909291905050501015151561293257600080fd5b6009600160009054906101000a900473ffffffffffffffffffffffffffffffffffffffff1673ffffffffffffffffffffffffffffffffffffffff1663bd02d0f56129b1876040805190810160405280600681526020017f5354415455530000000000000000000000000000000000000000000000000000815250613d68565b6040518263ffffffff167c0100000000000000000000000000000000000000000000000000000000028152600401808260001916600019168152602001915050602060405180830381600087803b158015612a0b57600080fd5b505af1158015612a1f573d6000803e3d6000fd5b505050506040513d6020811015612a3557600080fd5b810190808051906020019092919050505014151515612a5357600080fd5b6005600160009054906101000a900473ffffffffffffffffffffffffffffffffffffffff1673ffffffffffffffffffffffffffffffffffffffff1663bd02d0f5612ad2876040805190810160405280600681526020017f5354415455530000000000000000000000000000000000000000000000000000815250613d68565b6040518263ffffffff167c0100000000000000000000000000000000000000000000000000000000028152600401808260001916600019168152602001915050602060405180830381600087803b158015612b2c57600080fd5b505af1158015612b40573d6000803e3d6000fd5b505050506040513d6020811015612b5657600080fd5b810190808051906020019092919050505014151515612b7457600080fd5b600160009054906101000a900473ffffffffffffffffffffffffffffffffffffffff1673ffffffffffffffffffffffffffffffffffffffff1663e2a4853a612bf1866040805190810160405280600681526020017f5354415455530000000000000000000000000000000000000000000000000000815250613d68565b60096040518363ffffffff167c010000000000000000000000000000000000000000000000000000000002815260040180836000191660001916815260200182815260200192505050600060405180830381600087803b158015612c5457600080fd5b505af1158015612c68573d6000803e3d6000fd5b50505050600160009054906101000a900473ffffffffffffffffffffffffffffffffffffffff1673ffffffffffffffffffffffffffffffffffffffff166321f8a721612ce9866040805190810160405280600a81526020017f465245454c414e43455200000000000000000000000000000000000000000000815250613d68565b6040518263ffffffff167c0100000000000000000000000000000000000000000000000000000000028152600401808260001916600019168152602001915050602060405180830381600087803b158015612d4357600080fd5b505af1158015612d57573d6000803e3d6000fd5b505050506040513d6020811015612d6d57600080fd5b81019080805190602001909291905050509250600160009054906101000a900473ffffffffffffffffffffffffffffffffffffffff1673ffffffffffffffffffffffffffffffffffffffff1663bd02d0f5612dc88686613e96565b6040518263ffffffff167c0100000000000000000000000000000000000000000000000000000000028152600401808260001916600019168152602001915050602060405180830381600087803b158015612e2257600080fd5b505af1158015612e36573d6000803e3d6000fd5b505050506040513d6020811015612e4c57600080fd5b81019080805190602001909291905050509150600260009054906101000a900473ffffffffffffffffffffffffffffffffffffffff1673ffffffffffffffffffffffffffffffffffffffff1663a9059cbb84846040518363ffffffff167c0100000000000000000000000000000000000000000000000000000000028152600401808373ffffffffffffffffffffffffffffffffffffffff1673ffffffffffffffffffffffffffffffffffffffff16815260200182815260200192505050602060405180830381600087803b158015612f2457600080fd5b505af1158015612f38573d6000803e3d6000fd5b505050506040513d6020811015612f4e57600080fd5b81019080805190602001909291905050501515612f6a57600080fd5b3373ffffffffffffffffffffffffffffffffffffffff167f7806707268d20331fff823a86de33fefb6af822e27e30e26c12e696fee000360856040518080602001828103825283818151815260200191508051906020019080838360005b83811015612fe3578082015181840152602081019050612fc8565b50505050905090810190601f1680156130105780820380516001836020036101000a031916815260200191505b509250505060405180910390a250505050565b6000809054906101000a900473ffffffffffffffffffffffffffffffffffffffff1673ffffffffffffffffffffffffffffffffffffffff163373ffffffffffffffffffffffffffffffffffffffff1614151561307e57600080fd5b6000809054906101000a900473ffffffffffffffffffffffffffffffffffffffff1673ffffffffffffffffffffffffffffffffffffffff167ff8df31144d9c2f0f6b59d69b8b98abd5459d07f2742c4df920b25aae33c6482060405160405180910390a260008060006101000a81548173ffffffffffffffffffffffffffffffffffffffff021916908373ffffffffffffffffffffffffffffffffffffffff160217905550565b6000809054906101000a900473ffffffffffffffffffffffffffffffffffffffff1673ffffffffffffffffffffffffffffffffffffffff163373ffffffffffffffffffffffffffffffffffffffff1614151561318057600080fd5b80600260006101000a81548173ffffffffffffffffffffffffffffffffffffffff021916908373ffffffffffffffffffffffffffffffffffffffff16021790555050565b6000806000806000600160009054906101000a900473ffffffffffffffffffffffffffffffffffffffff1673ffffffffffffffffffffffffffffffffffffffff1663bd02d0f5613249886040805190810160405280601681526020017f4a4f425f46494e49534845445f54494d455354414d5000000000000000000000815250613d68565b6040518263ffffffff167c0100000000000000000000000000000000000000000000000000000000028152600401808260001916600019168152602001915050602060405180830381600087803b1580156132a357600080fd5b505af11580156132b7573d6000803e3d6000fd5b505050506040513d60208110156132cd57600080fd5b81019080805190602001909291905050509250600160009054906101000a900473ffffffffffffffffffffffffffffffffffffffff1673ffffffffffffffffffffffffffffffffffffffff1663bd02d0f560405180807f5041594d454e545f4c494d49545f54494d455354414d50000000000000000000815250601701905060405180910390206040518263ffffffff167c0100000000000000000000000000000000000000000000000000000000028152600401808260001916600019168152602001915050602060405180830381600087803b1580156133ae57600080fd5b505af11580156133c2573d6000803e3d6000fd5b505050506040513d60208110156133d857600080fd5b81019080805190602001909291905050509150600160009054906101000a900473ffffffffffffffffffffffffffffffffffffffff1673ffffffffffffffffffffffffffffffffffffffff1663bd02d0f5613468886040805190810160405280600681526020017f5354415455530000000000000000000000000000000000000000000000000000815250613d68565b6040518263ffffffff167c0100000000000000000000000000000000000000000000000000000000028152600401808260001916600019168152602001915050602060405180830381600087803b1580156134c257600080fd5b505af11580156134d6573d6000803e3d6000fd5b505050506040513d60208110156134ec57600080fd5b8101908080519060200190929190505050905080613513838561412490919063ffffffff16565b94509450505050915091565b6000809054906101000a900473ffffffffffffffffffffffffffffffffffffffff1681565b6000809054906101000a900473ffffffffffffffffffffffffffffffffffffffff1673ffffffffffffffffffffffffffffffffffffffff163373ffffffffffffffffffffffffffffffffffffffff1614151561359f57600080fd5b80600160006101000a81548173ffffffffffffffffffffffffffffffffffffffff021916908373ffffffffffffffffffffffffffffffffffffffff16021790555050565b6000806000806000600160009054906101000a900473ffffffffffffffffffffffffffffffffffffffff1673ffffffffffffffffffffffffffffffffffffffff166321f8a721876040518082805190602001908083835b60208310151561365f578051825260208201915060208101905060208303925061363a565b6001836020036101000a03801982511681845116808217855250505050505090500191505060405180910390206040518263ffffffff167c0100000000000000000000000000000000000000000000000000000000028152600401808260001916600019168152602001915050602060405180830381600087803b1580156136e657600080fd5b505af11580156136fa573d6000803e3d6000fd5b505050506040513d602081101561371057600080fd5b81019080805190602001909291905050509350600160009054906101000a900473ffffffffffffffffffffffffffffffffffffffff1673ffffffffffffffffffffffffffffffffffffffff166321f8a721876040518082805190602001908083835b6020831015156137975780518252602082019150602081019050602083039250613772565b6001836020036101000a038019825116818451168082178552505050505050905001807f465245454c414e43455200000000000000000000000000000000000000000000815250600a0191505060405180910390206040518263ffffffff167c0100000000000000000000000000000000000000000000000000000000028152600401808260001916600019168152602001915050602060405180830381600087803b15801561384657600080fd5b505af115801561385a573d6000803e3d6000fd5b505050506040513d602081101561387057600080fd5b81019080805190602001909291905050509250600160009054906101000a900473ffffffffffffffffffffffffffffffffffffffff1673ffffffffffffffffffffffffffffffffffffffff1663bd02d0f561390188876040805190810160405280600781526020017f4445504f53495400000000000000000000000000000000000000000000000000815250613fb2565b6040518263ffffffff167c0100000000000000000000000000000000000000000000000000000000028152600401808260001916600019168152602001915050602060405180830381600087803b15801561395b57600080fd5b505af115801561396f573d6000803e3d6000fd5b505050506040513d602081101561398557600080fd5b81019080805190602001909291905050509150600160009054906101000a900473ffffffffffffffffffffffffffffffffffffffff1673ffffffffffffffffffffffffffffffffffffffff1663bd02d0f587856040516020018083805190602001908083835b602083101515613a1057805182526020820191506020810190506020830392506139eb565b6001836020036101000a0380198251168184511680821785525050505050509050018273ffffffffffffffffffffffffffffffffffffffff1673ffffffffffffffffffffffffffffffffffffffff166c01000000000000000000000000028152601401925050506040516020818303038152906040526040518082805190602001908083835b602083101515613abb5780518252602082019150602081019050602083039250613a96565b6001836020036101000a03801982511681845116808217855250505050505090500191505060405180910390206040518263ffffffff167c0100000000000000000000000000000000000000000000000000000000028152600401808260001916600019168152602001915050602060405180830381600087803b158015613b4257600080fd5b505af1158015613b56573d6000803e3d6000fd5b505050506040513d6020811015613b6c57600080fd5b81019080805190602001909291905050509050600081111515613b8e57600080fd5b8082111515613b9c57600080fd5b600260009054906101000a900473ffffffffffffffffffffffffffffffffffffffff1673ffffffffffffffffffffffffffffffffffffffff1663a9059cbb858385036040518363ffffffff167c0100000000000000000000000000000000000000000000000000000000028152600401808373ffffffffffffffffffffffffffffffffffffffff1673ffffffffffffffffffffffffffffffffffffffff16815260200182815260200192505050602060405180830381600087803b158015613c6357600080fd5b505af1158015613c77573d6000803e3d6000fd5b505050506040513d6020811015613c8d57600080fd5b8101908080519060200190929190505050945050505050919050565b600073ffffffffffffffffffffffffffffffffffffffff166000809054906101000a900473ffffffffffffffffffffffffffffffffffffffff1673ffffffffffffffffffffffffffffffffffffffff16141515613d5c576000809054906101000a900473ffffffffffffffffffffffffffffffffffffffff1673ffffffffffffffffffffffffffffffffffffffff163373ffffffffffffffffffffffffffffffffffffffff16141515613d5b57600080fd5b5b613d6581614140565b50565b600082826040516020018083805190602001908083835b602083101515613da45780518252602082019150602081019050602083039250613d7f565b6001836020036101000a03801982511681845116808217855250505050505090500182805190602001908083835b602083101515613df75780518252602082019150602081019050602083039250613dd2565b6001836020036101000a038019825116818451168082178552505050505050905001925050506040516020818303038152906040526040518082805190602001908083835b602083101515613e615780518252602082019150602081019050602083039250613e3c565b6001836020036101000a0380198251168184511680821785525050505050509050019150506040518091039020905092915050565b600082826040516020018083805190602001908083835b602083101515613ed25780518252602082019150602081019050602083039250613ead565b6001836020036101000a0380198251168184511680821785525050505050509050018273ffffffffffffffffffffffffffffffffffffffff1673ffffffffffffffffffffffffffffffffffffffff166c01000000000000000000000000028152601401925050506040516020818303038152906040526040518082805190602001908083835b602083101515613f7d5780518252602082019150602081019050602083039250613f58565b6001836020036101000a0380198251168184511680821785525050505050509050019150506040518091039020905092915050565b60008383836040516020018084805190602001908083835b602083101515613fef5780518252602082019150602081019050602083039250613fca565b6001836020036101000a0380198251168184511680821785525050505050509050018373ffffffffffffffffffffffffffffffffffffffff1673ffffffffffffffffffffffffffffffffffffffff166c0100000000000000000000000002815260140182805190602001908083835b602083101515614083578051825260208201915060208101905060208303925061405e565b6001836020036101000a03801982511681845116808217855250505050505090500193505050506040516020818303038152906040526040518082805190602001908083835b6020831015156140ee57805182526020820191506020810190506020830392506140c9565b6001836020036101000a038019825116818451168082178552505050505050905001915050604051809103902090509392505050565b6000818301905082811015151561413757fe5b80905092915050565b600073ffffffffffffffffffffffffffffffffffffffff168173ffffffffffffffffffffffffffffffffffffffff161415151561417c57600080fd5b8073ffffffffffffffffffffffffffffffffffffffff166000809054906101000a900473ffffffffffffffffffffffffffffffffffffffff1673ffffffffffffffffffffffffffffffffffffffff167f8be0079c531659141344cd1fd0a4f28419497f9722a3daafe3b4186f6b6457e060405160405180910390a3806000806101000a81548173ffffffffffffffffffffffffffffffffffffffff021916908373ffffffffffffffffffffffffffffffffffffffff160217905550505600a165627a7a72305820fdc51fefd708932f869e5e718530d2f56a4d7a6b9dd22db8ba7a2761790923a60029",
  "source": "/**\n * Created on 2018-08-13 10:32\n * @summary: \n * @author: Chris Nguyen\n */\npragma solidity ^0.4.24;\nimport './BBFreelancer.sol';\nimport './BBLib.sol';\n\n/**\n * @title BBFreelancerPayment\n */\ncontract BBFreelancerPayment is BBFreelancer{\n  event PaymentClaimed(bytes jobHash, address indexed sender);\n  event PaymentAccepted(bytes jobHash, address indexed sender);\n  event PaymentRejected(bytes jobHash, address indexed sender);\n  event DisputeFinalized(bytes jobHash, address indexed winner);\n\n  // hirer ok with finish Job\n  /**\n   * @dev \n   * @param jobHash Job Hash\n   */\n  function acceptPayment(bytes jobHash)  public \n  isOwnerJob(jobHash) {\n    require(bbs.getUint(BBLib.toB32(jobHash,'STATUS')) >= 2);\n    require(bbs.getUint(BBLib.toB32(jobHash,'STATUS')) != 9);\n    require(bbs.getUint(BBLib.toB32(jobHash,'STATUS')) != 5);\n    bbs.setUint(BBLib.toB32(jobHash,'STATUS'), 9);\n    address freelancer = bbs.getAddress(BBLib.toB32(jobHash,'FREELANCER'));\n    uint256 bid = bbs.getUint(BBLib.toB32(jobHash,freelancer));\n    //TODO release funs\n    require(bbo.transfer(freelancer, bid));\n    emit PaymentAccepted(jobHash, msg.sender);\n  }\n  // hirer not ok with finish Job\n  /**\n   * @dev \n   * @param jobHash Job Hash\n   */\n  function rejectPayment(bytes jobHash) public \n  isOwnerJob(jobHash) {\n    require(bbs.getUint(BBLib.toB32(jobHash,'STATUS')) == 2);\n    bbs.setUint(BBLib.toB32(jobHash,'STATUS'), 4);\n   emit PaymentRejected(jobHash, msg.sender);\n  }\n  // freelancer claimeJob with finish Job but hirer not accept payment \n  // need proof of work\n  /**\n   * @dev \n   * @param jobHash Job Hash\n   */\n  function claimePayment(bytes jobHash) public isFreelancerOfJob(jobHash)\n  {\n    require(bbs.getUint(BBLib.toB32(jobHash,'STATUS')) == 2);\n    uint256 finishDate = bbs.getUint(BBLib.toB32(jobHash,'JOB_FINISHED_TIMESTAMP'));\n    uint256 paymentLimitTimestamp = bbs.getUint(keccak256('PAYMENT_LIMIT_TIMESTAMP'));\n    require((finishDate+paymentLimitTimestamp) <= now );\n    //require((finishDate+(14*24*3600)) < now );\n    bbs.setUint(BBLib.toB32(jobHash,'STATUS'), 5);\n    uint256 bid = bbs.getUint(BBLib.toB32(jobHash,msg.sender));\n    require(bbo.transfer(msg.sender, bid));\n    emit PaymentClaimed(jobHash, msg.sender);\n  }\n\n  /** \n  * @dev check payment status \n  **/\n  function checkPayment(bytes jobHash) public view returns(uint256, uint256){\n    uint256 finishDate = bbs.getUint(BBLib.toB32(jobHash,'JOB_FINISHED_TIMESTAMP'));\n    uint256 paymentLimitTimestamp = bbs.getUint(keccak256('PAYMENT_LIMIT_TIMESTAMP'));\n    uint256 status = bbs.getUint(BBLib.toB32(jobHash,'STATUS'));\n\n    return (status,finishDate.add(paymentLimitTimestamp));\n  }\n\n  function withdrawAllBBO(bytes jobHash) public  returns(bool) {\n      require(bbs.getBool(BBLib.toB32(jobHash,'CANCEL')) == true);\n      address owner = bbs.getAddress(keccak256(jobHash));\n      uint256  amount = bbs.getUint(BBLib.toB32(jobHash, owner,'DEPOSIT'));\n      bbs.setUint(BBLib.toB32(jobHash, owner,'DEPOSIT'), 0);\n      if(amount > 0) {\n         return bbo.transfer(owner, amount);\n      }\n\n  }\n\n  function refundBBO(bytes jobHash) public  returns(bool) {\n      address owner = bbs.getAddress(keccak256(jobHash));\n      address freelancer = bbs.getAddress(keccak256(jobHash, 'FREELANCER'));\n      uint256 lastDeposit = bbs.getUint(BBLib.toB32(jobHash, owner, 'DEPOSIT'));\n      uint256 bid = bbs.getUint(keccak256(abi.encodePacked(jobHash,freelancer)));\n      require(bid > 0);\n      require(lastDeposit > bid);\n      return bbo.transfer(owner, lastDeposit - bid);\n\n  }\n\n  /**\n   * @dev finalize Dispute\n   * @param jobHash The job Hash \n   */\n  function finalizeDispute(bytes jobHash)  public returns(bool) {\n    require(bbs.getAddress(keccak256(jobHash)) != 0x0);\n    require(bbs.getBool(BBLib.toB32(jobHash, 'PAYMENT_FINALIZED'))!=true);\n\n    address winner = bbs.getAddress(BBLib.toB32(jobHash, 'DISPUTE_WINNER'));\n    require(winner!=address(0x0));\n    address freelancer = bbs.getAddress(BBLib.toB32(jobHash,'FREELANCER'));\n    address jobOwner = bbs.getAddress(keccak256(jobHash));\n    uint256 bid = bbs.getUint(BBLib.toB32(jobHash,freelancer));\n    require(winner==freelancer||winner==jobOwner);\n    bbs.setBool(BBLib.toB32(jobHash, 'PAYMENT_FINALIZED'), true);\n    require(bbo.transfer(winner, bid));\n    emit DisputeFinalized(jobHash, winner);\n    return true;\n  } \n}\n",
  "sourcePath": "/Users/yena/Documents/tuongnguyen/bigbom-digital-contract/src/contracts/BBFreelancerPayment.sol",
  "compiler": {
    "name": "solc",
    "version": "0.4.24+commit.e67f0147.Emscripten.clang"
  },
  "schemaVersion": "2.0.1",
  "updatedAt": "2018-09-11T09:08:30.313Z"
}