{
  "contractName": "BBFreelancerBid",
  "abi": [
    {
      "constant": true,
      "inputs": [
        {
          "name": "jobHash",
          "type": "bytes"
        }
      ],
      "name": "isJobHasFreelancer",
      "outputs": [
        {
          "name": "",
          "type": "bool"
        }
      ],
      "payable": false,
      "stateMutability": "view",
      "type": "function"
    },
    {
      "constant": true,
      "inputs": [
        {
          "name": "jobHash",
          "type": "bytes"
        }
      ],
      "name": "isJobExpired",
      "outputs": [
        {
          "name": "",
          "type": "bool"
        }
      ],
      "payable": false,
      "stateMutability": "view",
      "type": "function"
    },
    {
      "constant": true,
      "inputs": [],
      "name": "bbo",
      "outputs": [
        {
          "name": "",
          "type": "address"
        }
      ],
      "payable": false,
      "stateMutability": "view",
      "type": "function"
    },
    {
      "constant": true,
      "inputs": [],
      "name": "bbs",
      "outputs": [
        {
          "name": "",
          "type": "address"
        }
      ],
      "payable": false,
      "stateMutability": "view",
      "type": "function"
    },
    {
      "constant": true,
      "inputs": [
        {
          "name": "sender",
          "type": "address"
        },
        {
          "name": "jobHash",
          "type": "bytes"
        }
      ],
      "name": "isJobCancel",
      "outputs": [
        {
          "name": "",
          "type": "bool"
        }
      ],
      "payable": false,
      "stateMutability": "view",
      "type": "function"
    },
    {
      "constant": true,
      "inputs": [],
      "name": "payment",
      "outputs": [
        {
          "name": "",
          "type": "address"
        }
      ],
      "payable": false,
      "stateMutability": "view",
      "type": "function"
    },
    {
      "constant": true,
      "inputs": [
        {
          "name": "sender",
          "type": "address"
        },
        {
          "name": "jobHash",
          "type": "bytes"
        }
      ],
      "name": "isOwnerOfJob",
      "outputs": [
        {
          "name": "",
          "type": "bool"
        }
      ],
      "payable": false,
      "stateMutability": "view",
      "type": "function"
    },
    {
      "constant": false,
      "inputs": [],
      "name": "renounceOwnership",
      "outputs": [],
      "payable": false,
      "stateMutability": "nonpayable",
      "type": "function"
    },
    {
      "constant": false,
      "inputs": [
        {
          "name": "BBOAddress",
          "type": "address"
        }
      ],
      "name": "setBBO",
      "outputs": [],
      "payable": false,
      "stateMutability": "nonpayable",
      "type": "function"
    },
    {
      "constant": true,
      "inputs": [],
      "name": "owner",
      "outputs": [
        {
          "name": "",
          "type": "address"
        }
      ],
      "payable": false,
      "stateMutability": "view",
      "type": "function"
    },
    {
      "constant": false,
      "inputs": [
        {
          "name": "anyToken",
          "type": "address"
        }
      ],
      "name": "emergencyERC20Drain",
      "outputs": [],
      "payable": false,
      "stateMutability": "nonpayable",
      "type": "function"
    },
    {
      "constant": false,
      "inputs": [
        {
          "name": "storageAddress",
          "type": "address"
        }
      ],
      "name": "setStorage",
      "outputs": [],
      "payable": false,
      "stateMutability": "nonpayable",
      "type": "function"
    },
    {
      "constant": true,
      "inputs": [
        {
          "name": "jobHash",
          "type": "bytes"
        }
      ],
      "name": "isJobStart",
      "outputs": [
        {
          "name": "",
          "type": "bool"
        }
      ],
      "payable": false,
      "stateMutability": "view",
      "type": "function"
    },
    {
      "constant": false,
      "inputs": [
        {
          "name": "_newOwner",
          "type": "address"
        }
      ],
      "name": "transferOwnership",
      "outputs": [],
      "payable": false,
      "stateMutability": "nonpayable",
      "type": "function"
    },
    {
      "anonymous": false,
      "inputs": [
        {
          "indexed": true,
          "name": "jobHash",
          "type": "bytes32"
        },
        {
          "indexed": true,
          "name": "owner",
          "type": "address"
        },
        {
          "indexed": false,
          "name": "bid",
          "type": "uint256"
        },
        {
          "indexed": false,
          "name": "bidTime",
          "type": "uint256"
        }
      ],
      "name": "BidCreated",
      "type": "event"
    },
    {
      "anonymous": false,
      "inputs": [
        {
          "indexed": true,
          "name": "jobHash",
          "type": "bytes32"
        },
        {
          "indexed": true,
          "name": "owner",
          "type": "address"
        }
      ],
      "name": "BidCanceled",
      "type": "event"
    },
    {
      "anonymous": false,
      "inputs": [
        {
          "indexed": true,
          "name": "jobHash",
          "type": "bytes32"
        },
        {
          "indexed": false,
          "name": "bid",
          "type": "uint256"
        },
        {
          "indexed": true,
          "name": "freelancer",
          "type": "address"
        }
      ],
      "name": "BidAccepted",
      "type": "event"
    },
    {
      "anonymous": false,
      "inputs": [
        {
          "indexed": true,
          "name": "previousOwner",
          "type": "address"
        }
      ],
      "name": "OwnershipRenounced",
      "type": "event"
    },
    {
      "anonymous": false,
      "inputs": [
        {
          "indexed": true,
          "name": "previousOwner",
          "type": "address"
        },
        {
          "indexed": true,
          "name": "newOwner",
          "type": "address"
        }
      ],
      "name": "OwnershipTransferred",
      "type": "event"
    },
    {
      "constant": false,
      "inputs": [
        {
          "name": "paymentAddress",
          "type": "address"
        }
      ],
      "name": "setPaymentContract",
      "outputs": [],
      "payable": false,
      "stateMutability": "nonpayable",
      "type": "function"
    },
    {
      "constant": false,
      "inputs": [
        {
          "name": "jobHash",
          "type": "bytes"
        },
        {
          "name": "bid",
          "type": "uint256"
        },
        {
          "name": "bidTime",
          "type": "uint256"
        }
      ],
      "name": "createBid",
      "outputs": [],
      "payable": false,
      "stateMutability": "nonpayable",
      "type": "function"
    },
    {
      "constant": false,
      "inputs": [
        {
          "name": "jobHash",
          "type": "bytes"
        },
        {
          "name": "bid",
          "type": "uint256"
        },
        {
          "name": "bidTime",
          "type": "uint256"
        }
      ],
      "name": "createSingleBid",
      "outputs": [],
      "payable": false,
      "stateMutability": "nonpayable",
      "type": "function"
    },
    {
      "constant": false,
      "inputs": [
        {
          "name": "jobIDs",
          "type": "uint256[]"
        },
        {
          "name": "bids",
          "type": "uint256[]"
        },
        {
          "name": "bidTimes",
          "type": "uint256[]"
        }
      ],
      "name": "createMultipleBid",
      "outputs": [],
      "payable": false,
      "stateMutability": "nonpayable",
      "type": "function"
    },
    {
      "constant": false,
      "inputs": [
        {
          "name": "jobHash",
          "type": "bytes"
        }
      ],
      "name": "cancelBid",
      "outputs": [],
      "payable": false,
      "stateMutability": "nonpayable",
      "type": "function"
    },
    {
      "constant": false,
      "inputs": [
        {
          "name": "jobHash",
          "type": "bytes"
        },
        {
          "name": "freelancer",
          "type": "address"
        }
      ],
      "name": "acceptBid",
      "outputs": [],
      "payable": false,
      "stateMutability": "nonpayable",
      "type": "function"
    }
  ],
  "bytecode": "0x60806040526000600160006101000a81548173ffffffffffffffffffffffffffffffffffffffff021916908373ffffffffffffffffffffffffffffffffffffffff1602179055506000600260006101000a81548173ffffffffffffffffffffffffffffffffffffffff021916908373ffffffffffffffffffffffffffffffffffffffff1602179055506000600360006101000a81548173ffffffffffffffffffffffffffffffffffffffff021916908373ffffffffffffffffffffffffffffffffffffffff160217905550336000806101000a81548173ffffffffffffffffffffffffffffffffffffffff021916908373ffffffffffffffffffffffffffffffffffffffff160217905550615068806101196000396000f300608060405260043610610112576000357c0100000000000000000000000000000000000000000000000000000000900463ffffffff1680631400312c1461011757806319d45925146101945780631af26fc2146102155780631e89bf06146102965780631fde23a4146102ed57806322d8c96e1461034457806324332741146103c157806329e81c791461042a57806342f6487a146104cb5780636da705f514610522578063715018a6146105c35780637937f46d146105da5780638abb20cc1461061d5780638da5cb5b1461066057806390e8d82f146106b75780639137c1a7146106fa578063c02060b01461073d578063f0cb740a146107c6578063f2fde38b14610847578063f69760501461088a575b600080fd5b34801561012357600080fd5b50610192600480360381019080803590602001908201803590602001908080601f01602080910402602001604051908101604052809392919081815260200183838082843782019150505050505091929192908035906020019092919080359060200190929190505050610976565b005b3480156101a057600080fd5b506101fb600480360381019080803590602001908201803590602001908080601f01602080910402602001604051908101604052809392919081815260200183838082843782019150505050505091929192905050506115f3565b604051808215151515815260200191505060405180910390f35b34801561022157600080fd5b5061027c600480360381019080803590602001908201803590602001908080601f01602080910402602001604051908101604052809392919081815260200183838082843782019150505050505091929192905050506117df565b604051808215151515815260200191505060405180910390f35b3480156102a257600080fd5b506102ab6119b4565b604051808273ffffffffffffffffffffffffffffffffffffffff1673ffffffffffffffffffffffffffffffffffffffff16815260200191505060405180910390f35b3480156102f957600080fd5b506103026119da565b604051808273ffffffffffffffffffffffffffffffffffffffff1673ffffffffffffffffffffffffffffffffffffffff16815260200191505060405180910390f35b34801561035057600080fd5b506103bf600480360381019080803590602001908201803590602001908080601f01602080910402602001604051908101604052809392919081815260200183838082843782019150505050505091929192908035906020019092919080359060200190929190505050611a00565b005b3480156103cd57600080fd5b50610428600480360381019080803590602001908201803590602001908080601f0160208091040260200160405190810160405280939291908181526020018383808284378201915050505050509192919290505050611e0b565b005b34801561043657600080fd5b506104b1600480360381019080803573ffffffffffffffffffffffffffffffffffffffff169060200190929190803590602001908201803590602001908080601f0160208091040260200160405190810160405280939291908181526020018383808284378201915050505050509192919290505050612aa9565b604051808215151515815260200191505060405180910390f35b3480156104d757600080fd5b506104e0612cc0565b604051808273ffffffffffffffffffffffffffffffffffffffff1673ffffffffffffffffffffffffffffffffffffffff16815260200191505060405180910390f35b34801561052e57600080fd5b506105a9600480360381019080803573ffffffffffffffffffffffffffffffffffffffff169060200190929190803590602001908201803590602001908080601f0160208091040260200160405190810160405280939291908181526020018383808284378201915050505050509192919290505050612ce6565b604051808215151515815260200191505060405180910390f35b3480156105cf57600080fd5b506105d8612e54565b005b3480156105e657600080fd5b5061061b600480360381019080803573ffffffffffffffffffffffffffffffffffffffff169060200190929190505050612f56565b005b34801561062957600080fd5b5061065e600480360381019080803573ffffffffffffffffffffffffffffffffffffffff169060200190929190505050612ff5565b005b34801561066c57600080fd5b50610675613094565b604051808273ffffffffffffffffffffffffffffffffffffffff1673ffffffffffffffffffffffffffffffffffffffff16815260200191505060405180910390f35b3480156106c357600080fd5b506106f8600480360381019080803573ffffffffffffffffffffffffffffffffffffffff1690602001909291905050506130b9565b005b34801561070657600080fd5b5061073b600480360381019080803573ffffffffffffffffffffffffffffffffffffffff1690602001909291905050506133cd565b005b34801561074957600080fd5b506107c4600480360381019080803590602001908201803590602001908080601f0160208091040260200160405190810160405280939291908181526020018383808284378201915050505050509192919290803573ffffffffffffffffffffffffffffffffffffffff16906020019092919050505061346c565b005b3480156107d257600080fd5b5061082d600480360381019080803590602001908201803590602001908080601f0160208091040260200160405190810160405280939291908181526020018383808284378201915050505050509192919290505050613cc3565b604051808215151515815260200191505060405180910390f35b34801561085357600080fd5b50610888600480360381019080803573ffffffffffffffffffffffffffffffffffffffff169060200190929190505050613e99565b005b34801561089657600080fd5b50610974600480360381019080803590602001908201803590602001908080602002602001604051908101604052809392919081815260200183836020028082843782019150505050505091929192908035906020019082018035906020019080806020026020016040519081016040528093929190818152602001838360200280828437820191505050505050919291929080359060200190820180359060200190808060200260200160405190810160405280939291908181526020018383602002808284378201915050505050509192919290505050613f58565b005b826000600160009054906101000a900473ffffffffffffffffffffffffffffffffffffffff1673ffffffffffffffffffffffffffffffffffffffff166321f8a721836040518082805190602001908083835b6020831015156109ed57805182526020820191506020810190506020830392506109c8565b6001836020036101000a03801982511681845116808217855250505050505090500191505060405180910390206040518263ffffffff167c0100000000000000000000000000000000000000000000000000000000028152600401808260001916600019168152602001915050602060405180830381600087803b158015610a7457600080fd5b505af1158015610a88573d6000803e3d6000fd5b505050506040513d6020811015610a9e57600080fd5b8101908080519060200190929190505050905060008173ffffffffffffffffffffffffffffffffffffffff1614151515610ad757600080fd5b8073ffffffffffffffffffffffffffffffffffffffff163373ffffffffffffffffffffffffffffffffffffffff1614151515610b1257600080fd5b8460011515600160009054906101000a900473ffffffffffffffffffffffffffffffffffffffff1673ffffffffffffffffffffffffffffffffffffffff16637ae1cfca836040516020018082805190602001908083835b602083101515610b8e5780518252602082019150602081019050602083039250610b69565b6001836020036101000a038019825116818451168082178552505050505050905001807f43414e43454c00000000000000000000000000000000000000000000000000008152506006019150506040516020818303038152906040526040518082805190602001908083835b602083101515610c1f5780518252602082019150602081019050602083039250610bfa565b6001836020036101000a03801982511681845116808217855250505050505090500191505060405180910390206040518263ffffffff167c0100000000000000000000000000000000000000000000000000000000028152600401808260001916600019168152602001915050602060405180830381600087803b158015610ca657600080fd5b505af1158015610cba573d6000803e3d6000fd5b505050506040513d6020811015610cd057600080fd5b8101908080519060200190929190505050151514151515610cf057600080fd5b856000600160009054906101000a900473ffffffffffffffffffffffffffffffffffffffff1673ffffffffffffffffffffffffffffffffffffffff1663bd02d0f5836040516020018082805190602001908083835b602083101515610d6a5780518252602082019150602081019050602083039250610d45565b6001836020036101000a038019825116818451168082178552505050505050905001807f53544154555300000000000000000000000000000000000000000000000000008152506006019150506040516020818303038152906040526040518082805190602001908083835b602083101515610dfb5780518252602082019150602081019050602083039250610dd6565b6001836020036101000a03801982511681845116808217855250505050505090500191505060405180910390206040518263ffffffff167c0100000000000000000000000000000000000000000000000000000000028152600401808260001916600019168152602001915050602060405180830381600087803b158015610e8257600080fd5b505af1158015610e96573d6000803e3d6000fd5b505050506040513d6020811015610eac57600080fd5b8101908080519060200190929190505050141515610ec957600080fd5b60011515600160009054906101000a900473ffffffffffffffffffffffffffffffffffffffff1673ffffffffffffffffffffffffffffffffffffffff16637ae1cfca610f4b8a336040805190810160405280600681526020017f43414e43454c0000000000000000000000000000000000000000000000000000815250614133565b6040518263ffffffff167c0100000000000000000000000000000000000000000000000000000000028152600401808260001916600019168152602001915050602060405180830381600087803b158015610fa557600080fd5b505af1158015610fb9573d6000803e3d6000fd5b505050506040513d6020811015610fcf57600080fd5b8101908080519060200190929190505050151514151515610fef57600080fd5b600160009054906101000a900473ffffffffffffffffffffffffffffffffffffffff1673ffffffffffffffffffffffffffffffffffffffff1663bd02d0f561106c896040805190810160405280600681526020017f42554447455400000000000000000000000000000000000000000000000000008152506142a5565b6040518263ffffffff167c0100000000000000000000000000000000000000000000000000000000028152600401808260001916600019168152602001915050602060405180830381600087803b1580156110c657600080fd5b505af11580156110da573d6000803e3d6000fd5b505050506040513d60208110156110f057600080fd5b8101908080519060200190929190505050861115151561110f57600080fd5b600160009054906101000a900473ffffffffffffffffffffffffffffffffffffffff1673ffffffffffffffffffffffffffffffffffffffff1663bd02d0f561118c896040805190810160405280600781526020017f45585049524544000000000000000000000000000000000000000000000000008152506142a5565b6040518263ffffffff167c0100000000000000000000000000000000000000000000000000000000028152600401808260001916600019168152602001915050602060405180830381600087803b1580156111e657600080fd5b505af11580156111fa573d6000803e3d6000fd5b505050506040513d602081101561121057600080fd5b81019080805190602001909291905050504210151561122e57600080fd5b6000600160009054906101000a900473ffffffffffffffffffffffffffffffffffffffff1673ffffffffffffffffffffffffffffffffffffffff166321f8a7216112ad8a6040805190810160405280600a81526020017f465245454c414e434552000000000000000000000000000000000000000000008152506142a5565b6040518263ffffffff167c0100000000000000000000000000000000000000000000000000000000028152600401808260001916600019168152602001915050602060405180830381600087803b15801561130757600080fd5b505af115801561131b573d6000803e3d6000fd5b505050506040513d602081101561133157600080fd5b810190808051906020019092919050505073ffffffffffffffffffffffffffffffffffffffff1614151561136457600080fd5b60008511151561137357600080fd5b600160009054906101000a900473ffffffffffffffffffffffffffffffffffffffff1673ffffffffffffffffffffffffffffffffffffffff1663e2a4853a6113bb89336143d3565b886040518363ffffffff167c010000000000000000000000000000000000000000000000000000000002815260040180836000191660001916815260200182815260200192505050600060405180830381600087803b15801561141d57600080fd5b505af1158015611431573d6000803e3d6000fd5b50505050600160009054906101000a900473ffffffffffffffffffffffffffffffffffffffff1673ffffffffffffffffffffffffffffffffffffffff1663e2a4853a6114b3896040805190810160405280600881526020017f4249445f54494d45000000000000000000000000000000000000000000000000815250336144ef565b876040518363ffffffff167c010000000000000000000000000000000000000000000000000000000002815260040180836000191660001916815260200182815260200192505050600060405180830381600087803b15801561151557600080fd5b505af1158015611529573d6000803e3d6000fd5b505050503373ffffffffffffffffffffffffffffffffffffffff16876040518082805190602001908083835b60208310151561157a5780518252602082019150602081019050602083039250611555565b6001836020036101000a0380198251168184511680821785525050505050509050019150506040518091039020600019167f72ff5510f5d894afd14c3b6c7c8e7425ea1754385e7184cc8d961829a37c773b8888604051808381526020018281526020019250505060405180910390a350505050505050565b600080600160009054906101000a900473ffffffffffffffffffffffffffffffffffffffff1673ffffffffffffffffffffffffffffffffffffffff166321f8a721846040516020018082805190602001908083835b60208310151561166d5780518252602082019150602081019050602083039250611648565b6001836020036101000a038019825116818451168082178552505050505050905001807f465245454c414e43455200000000000000000000000000000000000000000000815250600a019150506040516020818303038152906040526040518082805190602001908083835b6020831015156116fe57805182526020820191506020810190506020830392506116d9565b6001836020036101000a03801982511681845116808217855250505050505090500191505060405180910390206040518263ffffffff167c0100000000000000000000000000000000000000000000000000000000028152600401808260001916600019168152602001915050602060405180830381600087803b15801561178557600080fd5b505af1158015611799573d6000803e3d6000fd5b505050506040513d60208110156117af57600080fd5b810190808051906020019092919050505073ffffffffffffffffffffffffffffffffffffffff1614159050919050565b6000600160009054906101000a900473ffffffffffffffffffffffffffffffffffffffff1673ffffffffffffffffffffffffffffffffffffffff1663bd02d0f5836040516020018082805190602001908083835b6020831015156118585780518252602082019150602081019050602083039250611833565b6001836020036101000a038019825116818451168082178552505050505050905001807f45585049524544000000000000000000000000000000000000000000000000008152506007019150506040516020818303038152906040526040518082805190602001908083835b6020831015156118e957805182526020820191506020810190506020830392506118c4565b6001836020036101000a03801982511681845116808217855250505050505090500191505060405180910390206040518263ffffffff167c0100000000000000000000000000000000000000000000000000000000028152600401808260001916600019168152602001915050602060405180830381600087803b15801561197057600080fd5b505af1158015611984573d6000803e3d6000fd5b505050506040513d602081101561199a57600080fd5b810190808051906020019092919050505042119050919050565b600260009054906101000a900473ffffffffffffffffffffffffffffffffffffffff1681565b600160009054906101000a900473ffffffffffffffffffffffffffffffffffffffff1681565b611a0a3384612ce6565b15611a1457611e06565b611a1d83613cc3565b15611a2757611e06565b611a313384612aa9565b15611a3b57611e06565b600160009054906101000a900473ffffffffffffffffffffffffffffffffffffffff1673ffffffffffffffffffffffffffffffffffffffff1663bd02d0f5611ab8856040805190810160405280600681526020017f42554447455400000000000000000000000000000000000000000000000000008152506142a5565b6040518263ffffffff167c0100000000000000000000000000000000000000000000000000000000028152600401808260001916600019168152602001915050602060405180830381600087803b158015611b1257600080fd5b505af1158015611b26573d6000803e3d6000fd5b505050506040513d6020811015611b3c57600080fd5b8101908080519060200190929190505050821115611b5957611e06565b611b62836117df565b15611b6c57611e06565b611b75836115f3565b15611b7f57611e06565b600081111515611b8e57611e06565b600160009054906101000a900473ffffffffffffffffffffffffffffffffffffffff1673ffffffffffffffffffffffffffffffffffffffff1663e2a4853a611bd685336143d3565b846040518363ffffffff167c010000000000000000000000000000000000000000000000000000000002815260040180836000191660001916815260200182815260200192505050600060405180830381600087803b158015611c3857600080fd5b505af1158015611c4c573d6000803e3d6000fd5b50505050600160009054906101000a900473ffffffffffffffffffffffffffffffffffffffff1673ffffffffffffffffffffffffffffffffffffffff1663e2a4853a611cce856040805190810160405280600881526020017f4249445f54494d45000000000000000000000000000000000000000000000000815250336144ef565b836040518363ffffffff167c010000000000000000000000000000000000000000000000000000000002815260040180836000191660001916815260200182815260200192505050600060405180830381600087803b158015611d3057600080fd5b505af1158015611d44573d6000803e3d6000fd5b505050503373ffffffffffffffffffffffffffffffffffffffff16836040518082805190602001908083835b602083101515611d955780518252602082019150602081019050602083039250611d70565b6001836020036101000a0380198251168184511680821785525050505050509050019150506040518091039020600019167f72ff5510f5d894afd14c3b6c7c8e7425ea1754385e7184cc8d961829a37c773b8484604051808381526020018281526020019250505060405180910390a35b505050565b600080826000600160009054906101000a900473ffffffffffffffffffffffffffffffffffffffff1673ffffffffffffffffffffffffffffffffffffffff1663bd02d0f5836040516020018082805190602001908083835b602083101515611e885780518252602082019150602081019050602083039250611e63565b6001836020036101000a038019825116818451168082178552505050505050905001807f53544154555300000000000000000000000000000000000000000000000000008152506006019150506040516020818303038152906040526040518082805190602001908083835b602083101515611f195780518252602082019150602081019050602083039250611ef4565b6001836020036101000a03801982511681845116808217855250505050505090500191505060405180910390206040518263ffffffff167c0100000000000000000000000000000000000000000000000000000000028152600401808260001916600019168152602001915050602060405180830381600087803b158015611fa057600080fd5b505af1158015611fb4573d6000803e3d6000fd5b505050506040513d6020811015611fca57600080fd5b8101908080519060200190929190505050141515611fe757600080fd5b600160009054906101000a900473ffffffffffffffffffffffffffffffffffffffff1673ffffffffffffffffffffffffffffffffffffffff166321f8a721856040516020018082805190602001908083835b60208310151561205e5780518252602082019150602081019050602083039250612039565b6001836020036101000a038019825116818451168082178552505050505050905001807f465245454c414e43455200000000000000000000000000000000000000000000815250600a019150506040516020818303038152906040526040518082805190602001908083835b6020831015156120ef57805182526020820191506020810190506020830392506120ca565b6001836020036101000a03801982511681845116808217855250505050505090500191505060405180910390206040518263ffffffff167c0100000000000000000000000000000000000000000000000000000000028152600401808260001916600019168152602001915050602060405180830381600087803b15801561217657600080fd5b505af115801561218a573d6000803e3d6000fd5b505050506040513d60208110156121a057600080fd5b810190808051906020019092919050505092503373ffffffffffffffffffffffffffffffffffffffff16600160009054906101000a900473ffffffffffffffffffffffffffffffffffffffff1673ffffffffffffffffffffffffffffffffffffffff166321f8a721866040518082805190602001908083835b60208310151561223e5780518252602082019150602081019050602083039250612219565b6001836020036101000a03801982511681845116808217855250505050505090500191505060405180910390206040518263ffffffff167c0100000000000000000000000000000000000000000000000000000000028152600401808260001916600019168152602001915050602060405180830381600087803b1580156122c557600080fd5b505af11580156122d9573d6000803e3d6000fd5b505050506040513d60208110156122ef57600080fd5b810190808051906020019092919050505073ffffffffffffffffffffffffffffffffffffffff1614801561233a575060008373ffffffffffffffffffffffffffffffffffffffff1614155b1561250a57600160009054906101000a900473ffffffffffffffffffffffffffffffffffffffff1673ffffffffffffffffffffffffffffffffffffffff1663ca446dd9856040516020018082805190602001908083835b6020831015156123b65780518252602082019150602081019050602083039250612391565b6001836020036101000a038019825116818451168082178552505050505050905001807f465245454c414e43455200000000000000000000000000000000000000000000815250600a019150506040516020818303038152906040526040518082805190602001908083835b6020831015156124475780518252602082019150602081019050602083039250612422565b6001836020036101000a038019825116818451168082178552505050505050905001915050604051809103902060006040518363ffffffff167c01000000000000000000000000000000000000000000000000000000000281526004018083600019166000191681526020018273ffffffffffffffffffffffffffffffffffffffff16815260200192505050600060405180830381600087803b1580156124ed57600080fd5b505af1158015612501573d6000803e3d6000fd5b505050506129f9565b600160009054906101000a900473ffffffffffffffffffffffffffffffffffffffff1673ffffffffffffffffffffffffffffffffffffffff1663bd02d0f585336040516020018083805190602001908083835b602083101515612582578051825260208201915060208101905060208303925061255d565b6001836020036101000a0380198251168184511680821785525050505050509050018273ffffffffffffffffffffffffffffffffffffffff1673ffffffffffffffffffffffffffffffffffffffff166c01000000000000000000000000028152601401925050506040516020818303038152906040526040518082805190602001908083835b60208310151561262d5780518252602082019150602081019050602083039250612608565b6001836020036101000a03801982511681845116808217855250505050505090500191505060405180910390206040518263ffffffff167c0100000000000000000000000000000000000000000000000000000000028152600401808260001916600019168152602001915050602060405180830381600087803b1580156126b457600080fd5b505af11580156126c8573d6000803e3d6000fd5b505050506040513d60208110156126de57600080fd5b8101908080519060200190929190505050915060008211151561270057600080fd5b600160009054906101000a900473ffffffffffffffffffffffffffffffffffffffff1673ffffffffffffffffffffffffffffffffffffffff1663abfdcced61277e86336040805190810160405280600681526020017f43414e43454c0000000000000000000000000000000000000000000000000000815250614133565b60016040518363ffffffff167c01000000000000000000000000000000000000000000000000000000000281526004018083600019166000191681526020018215151515815260200192505050600060405180830381600087803b1580156127e557600080fd5b505af11580156127f9573d6000803e3d6000fd5b505050508273ffffffffffffffffffffffffffffffffffffffff163373ffffffffffffffffffffffffffffffffffffffff1614156129f857600160009054906101000a900473ffffffffffffffffffffffffffffffffffffffff1673ffffffffffffffffffffffffffffffffffffffff1663ca446dd9856040516020018082805190602001908083835b6020831015156128a85780518252602082019150602081019050602083039250612883565b6001836020036101000a038019825116818451168082178552505050505050905001807f465245454c414e43455200000000000000000000000000000000000000000000815250600a019150506040516020818303038152906040526040518082805190602001908083835b6020831015156129395780518252602082019150602081019050602083039250612914565b6001836020036101000a038019825116818451168082178552505050505050905001915050604051809103902060006040518363ffffffff167c01000000000000000000000000000000000000000000000000000000000281526004018083600019166000191681526020018273ffffffffffffffffffffffffffffffffffffffff16815260200192505050600060405180830381600087803b1580156129df57600080fd5b505af11580156129f3573d6000803e3d6000fd5b505050505b5b3373ffffffffffffffffffffffffffffffffffffffff16846040518082805190602001908083835b602083101515612a465780518252602082019150602081019050602083039250612a21565b6001836020036101000a0380198251168184511680821785525050505050509050019150506040518091039020600019167f736d442cb6892839527434f4a917e64be1f659277fdc57dbd4cb15d262940c0260405160405180910390a350505050565b6000600160009054906101000a900473ffffffffffffffffffffffffffffffffffffffff1673ffffffffffffffffffffffffffffffffffffffff16637ae1cfca83856040516020018083805190602001908083835b602083101515612b235780518252602082019150602081019050602083039250612afe565b6001836020036101000a0380198251168184511680821785525050505050509050018273ffffffffffffffffffffffffffffffffffffffff1673ffffffffffffffffffffffffffffffffffffffff166c01000000000000000000000000028152601401807f43414e43454c0000000000000000000000000000000000000000000000000000815250600601925050506040516020818303038152906040526040518082805190602001908083835b602083101515612bf65780518252602082019150602081019050602083039250612bd1565b6001836020036101000a03801982511681845116808217855250505050505090500191505060405180910390206040518263ffffffff167c0100000000000000000000000000000000000000000000000000000000028152600401808260001916600019168152602001915050602060405180830381600087803b158015612c7d57600080fd5b505af1158015612c91573d6000803e3d6000fd5b505050506040513d6020811015612ca757600080fd5b8101908080519060200190929190505050905092915050565b600360009054906101000a900473ffffffffffffffffffffffffffffffffffffffff1681565b60008273ffffffffffffffffffffffffffffffffffffffff16600160009054906101000a900473ffffffffffffffffffffffffffffffffffffffff1673ffffffffffffffffffffffffffffffffffffffff166321f8a721846040518082805190602001908083835b602083101515612d735780518252602082019150602081019050602083039250612d4e565b6001836020036101000a03801982511681845116808217855250505050505090500191505060405180910390206040518263ffffffff167c0100000000000000000000000000000000000000000000000000000000028152600401808260001916600019168152602001915050602060405180830381600087803b158015612dfa57600080fd5b505af1158015612e0e573d6000803e3d6000fd5b505050506040513d6020811015612e2457600080fd5b810190808051906020019092919050505073ffffffffffffffffffffffffffffffffffffffff1614905092915050565b6000809054906101000a900473ffffffffffffffffffffffffffffffffffffffff1673ffffffffffffffffffffffffffffffffffffffff163373ffffffffffffffffffffffffffffffffffffffff16141515612eaf57600080fd5b6000809054906101000a900473ffffffffffffffffffffffffffffffffffffffff1673ffffffffffffffffffffffffffffffffffffffff167ff8df31144d9c2f0f6b59d69b8b98abd5459d07f2742c4df920b25aae33c6482060405160405180910390a260008060006101000a81548173ffffffffffffffffffffffffffffffffffffffff021916908373ffffffffffffffffffffffffffffffffffffffff160217905550565b6000809054906101000a900473ffffffffffffffffffffffffffffffffffffffff1673ffffffffffffffffffffffffffffffffffffffff163373ffffffffffffffffffffffffffffffffffffffff16141515612fb157600080fd5b80600260006101000a81548173ffffffffffffffffffffffffffffffffffffffff021916908373ffffffffffffffffffffffffffffffffffffffff16021790555050565b6000809054906101000a900473ffffffffffffffffffffffffffffffffffffffff1673ffffffffffffffffffffffffffffffffffffffff163373ffffffffffffffffffffffffffffffffffffffff1614151561305057600080fd5b80600360006101000a81548173ffffffffffffffffffffffffffffffffffffffff021916908373ffffffffffffffffffffffffffffffffffffffff16021790555050565b6000809054906101000a900473ffffffffffffffffffffffffffffffffffffffff1681565b6000809054906101000a900473ffffffffffffffffffffffffffffffffffffffff1673ffffffffffffffffffffffffffffffffffffffff163373ffffffffffffffffffffffffffffffffffffffff1614151561311457600080fd5b60003073ffffffffffffffffffffffffffffffffffffffff163111156131b4576000809054906101000a900473ffffffffffffffffffffffffffffffffffffffff1673ffffffffffffffffffffffffffffffffffffffff166108fc3073ffffffffffffffffffffffffffffffffffffffff16319081150290604051600060405180830381858888f193505050501580156131b2573d6000803e3d6000fd5b505b600073ffffffffffffffffffffffffffffffffffffffff168173ffffffffffffffffffffffffffffffffffffffff161415156133ca578073ffffffffffffffffffffffffffffffffffffffff1663a9059cbb6000809054906101000a900473ffffffffffffffffffffffffffffffffffffffff168373ffffffffffffffffffffffffffffffffffffffff166370a08231306040518263ffffffff167c0100000000000000000000000000000000000000000000000000000000028152600401808273ffffffffffffffffffffffffffffffffffffffff1673ffffffffffffffffffffffffffffffffffffffff168152602001915050602060405180830381600087803b1580156132c357600080fd5b505af11580156132d7573d6000803e3d6000fd5b505050506040513d60208110156132ed57600080fd5b81019080805190602001909291905050506040518363ffffffff167c0100000000000000000000000000000000000000000000000000000000028152600401808373ffffffffffffffffffffffffffffffffffffffff1673ffffffffffffffffffffffffffffffffffffffff16815260200182815260200192505050602060405180830381600087803b15801561338357600080fd5b505af1158015613397573d6000803e3d6000fd5b505050506040513d60208110156133ad57600080fd5b810190808051906020019092919050505015156133c957600080fd5b5b50565b6000809054906101000a900473ffffffffffffffffffffffffffffffffffffffff1673ffffffffffffffffffffffffffffffffffffffff163373ffffffffffffffffffffffffffffffffffffffff1614151561342857600080fd5b80600160006101000a81548173ffffffffffffffffffffffffffffffffffffffff021916908373ffffffffffffffffffffffffffffffffffffffff16021790555050565b6000823373ffffffffffffffffffffffffffffffffffffffff16600160009054906101000a900473ffffffffffffffffffffffffffffffffffffffff1673ffffffffffffffffffffffffffffffffffffffff166321f8a721836040518082805190602001908083835b6020831015156134fa57805182526020820191506020810190506020830392506134d5565b6001836020036101000a03801982511681845116808217855250505050505090500191505060405180910390206040518263ffffffff167c0100000000000000000000000000000000000000000000000000000000028152600401808260001916600019168152602001915050602060405180830381600087803b15801561358157600080fd5b505af1158015613595573d6000803e3d6000fd5b505050506040513d60208110156135ab57600080fd5b810190808051906020019092919050505073ffffffffffffffffffffffffffffffffffffffff161415156135de57600080fd5b836000600160009054906101000a900473ffffffffffffffffffffffffffffffffffffffff1673ffffffffffffffffffffffffffffffffffffffff1663bd02d0f5836040516020018082805190602001908083835b6020831015156136585780518252602082019150602081019050602083039250613633565b6001836020036101000a038019825116818451168082178552505050505050905001807f53544154555300000000000000000000000000000000000000000000000000008152506006019150506040516020818303038152906040526040518082805190602001908083835b6020831015156136e957805182526020820191506020810190506020830392506136c4565b6001836020036101000a03801982511681845116808217855250505050505090500191505060405180910390206040518263ffffffff167c0100000000000000000000000000000000000000000000000000000000028152600401808260001916600019168152602001915050602060405180830381600087803b15801561377057600080fd5b505af1158015613784573d6000803e3d6000fd5b505050506040513d602081101561379a57600080fd5b81019080805190602001909291905050501415156137b757600080fd5b8460011515600160009054906101000a900473ffffffffffffffffffffffffffffffffffffffff1673ffffffffffffffffffffffffffffffffffffffff16637ae1cfca836040516020018082805190602001908083835b602083101515613833578051825260208201915060208101905060208303925061380e565b6001836020036101000a038019825116818451168082178552505050505050905001807f43414e43454c00000000000000000000000000000000000000000000000000008152506006019150506040516020818303038152906040526040518082805190602001908083835b6020831015156138c4578051825260208201915060208101905060208303925061389f565b6001836020036101000a03801982511681845116808217855250505050505090500191505060405180910390206040518263ffffffff167c0100000000000000000000000000000000000000000000000000000000028152600401808260001916600019168152602001915050602060405180830381600087803b15801561394b57600080fd5b505af115801561395f573d6000803e3d6000fd5b505050506040513d602081101561397557600080fd5b810190808051906020019092919050505015151415151561399557600080fd5b600160009054906101000a900473ffffffffffffffffffffffffffffffffffffffff1673ffffffffffffffffffffffffffffffffffffffff1663bd02d0f587876040516020018083805190602001908083835b602083101515613a0d57805182526020820191506020810190506020830392506139e8565b6001836020036101000a0380198251168184511680821785525050505050509050018273ffffffffffffffffffffffffffffffffffffffff1673ffffffffffffffffffffffffffffffffffffffff166c01000000000000000000000000028152601401925050506040516020818303038152906040526040518082805190602001908083835b602083101515613ab85780518252602082019150602081019050602083039250613a93565b6001836020036101000a03801982511681845116808217855250505050505090500191505060405180910390206040518263ffffffff167c0100000000000000000000000000000000000000000000000000000000028152600401808260001916600019168152602001915050602060405180830381600087803b158015613b3f57600080fd5b505af1158015613b53573d6000803e3d6000fd5b505050506040513d6020811015613b6957600080fd5b81019080805190602001909291905050509350600084111515613b8b57600080fd5b60011515600160009054906101000a900473ffffffffffffffffffffffffffffffffffffffff1673ffffffffffffffffffffffffffffffffffffffff16637ae1cfca613c0c896040805190810160405280600681526020017f43414e43454c00000000000000000000000000000000000000000000000000008152506142a5565b6040518263ffffffff167c0100000000000000000000000000000000000000000000000000000000028152600401808260001916600019168152602001915050602060405180830381600087803b158015613c6657600080fd5b505af1158015613c7a573d6000803e3d6000fd5b505050506040513d6020811015613c9057600080fd5b8101908080519060200190929190505050151514151515613cb057600080fd5b613cbb868686614661565b505050505050565b600080600160009054906101000a900473ffffffffffffffffffffffffffffffffffffffff1673ffffffffffffffffffffffffffffffffffffffff1663bd02d0f5846040516020018082805190602001908083835b602083101515613d3d5780518252602082019150602081019050602083039250613d18565b6001836020036101000a038019825116818451168082178552505050505050905001807f53544154555300000000000000000000000000000000000000000000000000008152506006019150506040516020818303038152906040526040518082805190602001908083835b602083101515613dce5780518252602082019150602081019050602083039250613da9565b6001836020036101000a03801982511681845116808217855250505050505090500191505060405180910390206040518263ffffffff167c0100000000000000000000000000000000000000000000000000000000028152600401808260001916600019168152602001915050602060405180830381600087803b158015613e5557600080fd5b505af1158015613e69573d6000803e3d6000fd5b505050506040513d6020811015613e7f57600080fd5b810190808051906020019092919050505014159050919050565b600073ffffffffffffffffffffffffffffffffffffffff166000809054906101000a900473ffffffffffffffffffffffffffffffffffffffff1673ffffffffffffffffffffffffffffffffffffffff16141515613f4c576000809054906101000a900473ffffffffffffffffffffffffffffffffffffffff1673ffffffffffffffffffffffffffffffffffffffff163373ffffffffffffffffffffffffffffffffffffffff16141515613f4b57600080fd5b5b613f5581614eb7565b50565b6000606083518551141515613f6c57600080fd5b83518351141515613f7c57600080fd5b600a855111151515613f8d57600080fd5b600091505b845182101561412c57600160009054906101000a900473ffffffffffffffffffffffffffffffffffffffff1673ffffffffffffffffffffffffffffffffffffffff1663c031a180613ff98785815181101515613fea57fe5b90602001906020020151614fb1565b6040518263ffffffff167c0100000000000000000000000000000000000000000000000000000000028152600401808260001916600019168152602001915050600060405180830381600087803b15801561405357600080fd5b505af1158015614067573d6000803e3d6000fd5b505050506040513d6000823e3d601f19601f82011682018060405250602081101561409157600080fd5b8101908080516401000000008111156140a957600080fd5b828101905060208101848111156140bf57600080fd5b81518560018202830111640100000000821117156140dc57600080fd5b5050929190505050905061411f8185848151811015156140f857fe5b90602001906020020151858581518110151561411057fe5b90602001906020020151611a00565b8180600101925050613f92565b5050505050565b60008383836040516020018084805190602001908083835b602083101515614170578051825260208201915060208101905060208303925061414b565b6001836020036101000a0380198251168184511680821785525050505050509050018373ffffffffffffffffffffffffffffffffffffffff1673ffffffffffffffffffffffffffffffffffffffff166c0100000000000000000000000002815260140182805190602001908083835b60208310151561420457805182526020820191506020810190506020830392506141df565b6001836020036101000a03801982511681845116808217855250505050505090500193505050506040516020818303038152906040526040518082805190602001908083835b60208310151561426f578051825260208201915060208101905060208303925061424a565b6001836020036101000a038019825116818451168082178552505050505050905001915050604051809103902090509392505050565b600082826040516020018083805190602001908083835b6020831015156142e157805182526020820191506020810190506020830392506142bc565b6001836020036101000a03801982511681845116808217855250505050505090500182805190602001908083835b602083101515614334578051825260208201915060208101905060208303925061430f565b6001836020036101000a038019825116818451168082178552505050505050905001925050506040516020818303038152906040526040518082805190602001908083835b60208310151561439e5780518252602082019150602081019050602083039250614379565b6001836020036101000a0380198251168184511680821785525050505050509050019150506040518091039020905092915050565b600082826040516020018083805190602001908083835b60208310151561440f57805182526020820191506020810190506020830392506143ea565b6001836020036101000a0380198251168184511680821785525050505050509050018273ffffffffffffffffffffffffffffffffffffffff1673ffffffffffffffffffffffffffffffffffffffff166c01000000000000000000000000028152601401925050506040516020818303038152906040526040518082805190602001908083835b6020831015156144ba5780518252602082019150602081019050602083039250614495565b6001836020036101000a0380198251168184511680821785525050505050509050019150506040518091039020905092915050565b60008383836040516020018084805190602001908083835b60208310151561452c5780518252602082019150602081019050602083039250614507565b6001836020036101000a03801982511681845116808217855250505050505090500183805190602001908083835b60208310151561457f578051825260208201915060208101905060208303925061455a565b6001836020036101000a0380198251168184511680821785525050505050509050018273ffffffffffffffffffffffffffffffffffffffff1673ffffffffffffffffffffffffffffffffffffffff166c0100000000000000000000000002815260140193505050506040516020818303038152906040526040518082805190602001908083835b60208310151561462b5780518252602082019150602081019050602083039250614606565b6001836020036101000a038019825116818451168082178552505050505050905001915050604051809103902090509392505050565b6000600160009054906101000a900473ffffffffffffffffffffffffffffffffffffffff1673ffffffffffffffffffffffffffffffffffffffff1663bd02d0f56146e186336040805190810160405280600781526020017f4445504f53495400000000000000000000000000000000000000000000000000815250614133565b6040518263ffffffff167c0100000000000000000000000000000000000000000000000000000000028152600401808260001916600019168152602001915050602060405180830381600087803b15801561473b57600080fd5b505af115801561474f573d6000803e3d6000fd5b505050506040513d602081101561476557600080fd5b81019080805190602001909291905050509050600160009054906101000a900473ffffffffffffffffffffffffffffffffffffffff1673ffffffffffffffffffffffffffffffffffffffff1663ca446dd9856040516020018082805190602001908083835b6020831015156147ef57805182526020820191506020810190506020830392506147ca565b6001836020036101000a038019825116818451168082178552505050505050905001807f465245454c414e43455200000000000000000000000000000000000000000000815250600a019150506040516020818303038152906040526040518082805190602001908083835b602083101515614880578051825260208201915060208101905060208303925061485b565b6001836020036101000a0380198251168184511680821785525050505050509050019150506040518091039020856040518363ffffffff167c01000000000000000000000000000000000000000000000000000000000281526004018083600019166000191681526020018273ffffffffffffffffffffffffffffffffffffffff1673ffffffffffffffffffffffffffffffffffffffff16815260200192505050600060405180830381600087803b15801561493b57600080fd5b505af115801561494f573d6000803e3d6000fd5b5050505081811115614b9457600360009054906101000a900473ffffffffffffffffffffffffffffffffffffffff1673ffffffffffffffffffffffffffffffffffffffff1663ee48959c856040518263ffffffff167c01000000000000000000000000000000000000000000000000000000000281526004018080602001828103825283818151815260200191508051906020019080838360005b83811015614a055780820151818401526020810190506149ea565b50505050905090810190601f168015614a325780820380516001836020036101000a031916815260200191505b5092505050602060405180830381600087803b158015614a5157600080fd5b505af1158015614a65573d6000803e3d6000fd5b505050506040513d6020811015614a7b57600080fd5b81019080805190602001909291905050501515614a9757600080fd5b600160009054906101000a900473ffffffffffffffffffffffffffffffffffffffff1673ffffffffffffffffffffffffffffffffffffffff1663e2a4853a614b1586336040805190810160405280600781526020017f4445504f53495400000000000000000000000000000000000000000000000000815250614133565b846040518363ffffffff167c010000000000000000000000000000000000000000000000000000000002815260040180836000191660001916815260200182815260200192505050600060405180830381600087803b158015614b7757600080fd5b505af1158015614b8b573d6000803e3d6000fd5b50505050614dfc565b60008183031115614dfb57600160009054906101000a900473ffffffffffffffffffffffffffffffffffffffff1673ffffffffffffffffffffffffffffffffffffffff1663e2a4853a614c1d86336040805190810160405280600781526020017f4445504f53495400000000000000000000000000000000000000000000000000815250614133565b846040518363ffffffff167c010000000000000000000000000000000000000000000000000000000002815260040180836000191660001916815260200182815260200192505050600060405180830381600087803b158015614c7f57600080fd5b505af1158015614c93573d6000803e3d6000fd5b50505050600260009054906101000a900473ffffffffffffffffffffffffffffffffffffffff1673ffffffffffffffffffffffffffffffffffffffff166323b872dd33600360009054906101000a900473ffffffffffffffffffffffffffffffffffffffff168486036040518463ffffffff167c0100000000000000000000000000000000000000000000000000000000028152600401808473ffffffffffffffffffffffffffffffffffffffff1673ffffffffffffffffffffffffffffffffffffffff1681526020018373ffffffffffffffffffffffffffffffffffffffff1673ffffffffffffffffffffffffffffffffffffffff1681526020018281526020019350505050602060405180830381600087803b158015614db457600080fd5b505af1158015614dc8573d6000803e3d6000fd5b505050506040513d6020811015614dde57600080fd5b81019080805190602001909291905050501515614dfa57600080fd5b5b5b8273ffffffffffffffffffffffffffffffffffffffff16846040518082805190602001908083835b602083101515614e495780518252602082019150602081019050602083039250614e24565b6001836020036101000a0380198251168184511680821785525050505050509050019150506040518091039020600019167f612bda2e6c3bb6eaabe295257624f63f0106de432ef53b5bde17c53f7810f39f846040518082815260200191505060405180910390a350505050565b600073ffffffffffffffffffffffffffffffffffffffff168173ffffffffffffffffffffffffffffffffffffffff1614151515614ef357600080fd5b8073ffffffffffffffffffffffffffffffffffffffff166000809054906101000a900473ffffffffffffffffffffffffffffffffffffffff1673ffffffffffffffffffffffffffffffffffffffff167f8be0079c531659141344cd1fd0a4f28419497f9722a3daafe3b4186f6b6457e060405160405180910390a3806000806101000a81548173ffffffffffffffffffffffffffffffffffffffff021916908373ffffffffffffffffffffffffffffffffffffffff16021790555050565b600081604051602001808281526020019150506040516020818303038152906040526040518082805190602001908083835b6020831015156150085780518252602082019150602081019050602083039250614fe3565b6001836020036101000a038019825116818451168082178552505050505050905001915050604051809103902090509190505600a165627a7a7230582026e00389c0108841ef34e9f434754e24e03893b95bf42a8a6765b291a6b6f1dd0029",
  "source": "/**\n * Created on 2018-08-13 10:29\n * @summary: Biding contract\n * @author: Chris Nguyen\n */\npragma solidity ^0.4.24;\nimport './BBFreelancer.sol';\nimport './BBFreelancerPayment.sol';\nimport './BBLib.sol';\n/**\n * @title BBFreelancerBid\n */\ncontract BBFreelancerBid is BBFreelancer{\n\n  BBFreelancerPayment public payment = BBFreelancerPayment(0x0);\n\n  /**\n   * @dev \n   * @param paymentAddress address of the Payment Contract\n   */\n  function setPaymentContract(address paymentAddress) onlyOwner public {\n    payment = BBFreelancerPayment(paymentAddress);\n  }\n\n\n  event BidCreated(bytes32 indexed jobHash , address indexed owner, uint256 bid, uint256 bidTime);\n  event BidCanceled(bytes32 indexed jobHash, address indexed owner);\n  event BidAccepted(bytes32 indexed jobHash, uint256 bid,address indexed freelancer);\n\n\n   // freelancer bid job\n  /** \n   * @dev \n   * @param jobHash Job Hash\n   * @param bid value of bid amount\n   * @param bidTime time to do this job\n   */\n  function createBid(bytes jobHash, uint256 bid, uint bidTime) public \n   isNotOwnerJob(jobHash)\n   isNotCanceled(jobHash)\n   jobNotStarted(jobHash) {\n    // sender should not cancel previous bid yet\n    require( bbs.getBool(BBLib.toB32(jobHash,msg.sender, 'CANCEL')) != true);\n    // bid must in range budget\n    require(bid <= bbs.getUint(BBLib.toB32(jobHash, 'BUDGET' )));\n    //check job expired\n    require(now < bbs.getUint(BBLib.toB32(jobHash, 'EXPIRED')));\n\n    require(bbs.getAddress(BBLib.toB32(jobHash,'FREELANCER')) == 0x0);\n\n    require(bidTime > 0);\n\n    // set user bid value\n    bbs.setUint(BBLib.toB32(jobHash,msg.sender), bid);\n    //set user bidTime value\n    bbs.setUint(BBLib.toB32(jobHash,'BID_TIME',msg.sender), bidTime);\n\n    emit BidCreated(keccak256(jobHash), msg.sender, bid, bidTime);\n  }\n\n   function createSingleBid(bytes jobHash, uint256 bid, uint bidTime) public {\n     //Job owner call\n     if(isOwnerOfJob(msg.sender, jobHash)) {\n       return;\n     }\n     //Job has not started\n     if(isJobStart(jobHash)) {\n       return;\n     }\n    \n    //sender should not cancel previous bid yet\n    if(isJobCancel(msg.sender, jobHash)) {\n      return;\n    }\n    //bid must in range budget\n    if(bid > bbs.getUint(BBLib.toB32(jobHash, 'BUDGET' ))) {\n       return;\n    }\n    //is job expired\n    if(isJobExpired(jobHash)) {\n      return;\n    }\n    if(isJobHasFreelancer(jobHash)) {\n      return;\n    }\n    if(bidTime <= 0) {\n      return;\n    }\n    // set user bid value\n    bbs.setUint(BBLib.toB32(jobHash,msg.sender), bid);\n    //set user bidTime value\n    bbs.setUint(BBLib.toB32(jobHash,'BID_TIME',msg.sender), bidTime);\n\n    emit BidCreated(keccak256(jobHash), msg.sender, bid, bidTime);\n\n  }\n\n  function createMultipleBid(uint256[] jobIDs, uint256[] bids, uint[] bidTimes) public {\n      require(jobIDs.length == bids.length);\n      require(bidTimes.length == bids.length);\n      require(jobIDs.length <= 10);\n\n      for(uint i = 0; i < jobIDs.length; i++) {\n        bytes memory _jobHash = bbs.getBytes(BBLib.toB32(jobIDs[i]));\n        createSingleBid(_jobHash, bids[i], bidTimes[i]);\n      }      \n  }\n  \n  // freelancer cancel bid\n  /**\n   * @dev \n   * @param jobHash Job Hash\n   */\n  function cancelBid(bytes jobHash) public jobNotStarted(jobHash){\n     address freelancer = bbs.getAddress(keccak256(abi.encodePacked(jobHash,'FREELANCER')));\n     //Job ownwer call this function\n     if(bbs.getAddress(keccak256(jobHash)) == msg.sender && freelancer != 0x0 ) {\n        bbs.setAddress(keccak256(abi.encodePacked(jobHash,'FREELANCER')), 0x0);\n     } else {\n       uint256 bid = bbs.getUint(keccak256(abi.encodePacked(jobHash,msg.sender)));\n       require(bid > 0);\n       bbs.setBool(BBLib.toB32(jobHash,msg.sender, 'CANCEL'), true);\n       if(msg.sender == freelancer) {\n         bbs.setAddress(keccak256(abi.encodePacked(jobHash,'FREELANCER')), 0x0);\n       }\n     }\n\n    emit BidCanceled(keccak256(jobHash), msg.sender);\n\n  }\n\n  // hirer accept bid\n  /**\n   * @dev \n   * @param jobHash Job Hash\n   * @param freelancer address of the freelancer\n   */\n  function acceptBid(bytes jobHash, address freelancer) public \n    isOwnerJob(jobHash) \n    jobNotStarted(jobHash)\n    isNotCanceled(jobHash){\n    uint256 bid = bbs.getUint(keccak256(abi.encodePacked(jobHash,freelancer)));\n    require(bid > 0);\n    require(bbs.getBool(BBLib.toB32(jobHash,'CANCEL')) !=true);\n    return doAcceptBid(jobHash, freelancer, bid);\n    \n  }\n\n  function doAcceptBid(bytes jobHash, address freelancer, uint256 bid) internal {\n    uint256 lastDeposit = bbs.getUint(BBLib.toB32(jobHash,msg.sender,'DEPOSIT'));\n    //update new freelancer\n    bbs.setAddress(keccak256(abi.encodePacked(jobHash,'FREELANCER')), freelancer);\n    if(lastDeposit > bid) {\n      //Refun BBO to job owner\n      require(payment.refundBBO(jobHash));\n      //Storage amount of BBO that Job owner transferred to payment address\n      bbs.setUint(BBLib.toB32(jobHash,msg.sender,'DEPOSIT'), bid);\n      \n    } else if(bid - lastDeposit > 0) {\n      //Storage amount of BBO that Job owner transferred to payment address\n      bbs.setUint(BBLib.toB32(jobHash,msg.sender,'DEPOSIT'), bid);\n      //Deposit more BBO\n      require(bbo.transferFrom(msg.sender, address(payment), bid - lastDeposit));\n    } \n    emit BidAccepted(keccak256(jobHash), bid ,freelancer);\n  }\n  \n}",
  "sourcePath": "/Users/yena/Documents/tuongnguyen/bigbom-digital-contract/src/contracts/BBFreelancerBid.sol",
  "compiler": {
    "name": "solc",
    "version": "0.4.24+commit.e67f0147.Emscripten.clang"
  },
  "schemaVersion": "2.0.1",
  "updatedAt": "2018-10-03T01:58:41.407Z"
}