{
  "contractName": "BBFreelancerJob",
  "abi": [
    {
      "constant": true,
      "inputs": [
        {
          "name": "jobHash",
          "type": "bytes"
        }
      ],
      "name": "isJobHasFreelancer",
      "outputs": [
        {
          "name": "",
          "type": "bool"
        }
      ],
      "payable": false,
      "stateMutability": "view",
      "type": "function"
    },
    {
      "constant": true,
      "inputs": [
        {
          "name": "jobHash",
          "type": "bytes"
        }
      ],
      "name": "isJobExpired",
      "outputs": [
        {
          "name": "",
          "type": "bool"
        }
      ],
      "payable": false,
      "stateMutability": "view",
      "type": "function"
    },
    {
      "constant": true,
      "inputs": [],
      "name": "bbo",
      "outputs": [
        {
          "name": "",
          "type": "address"
        }
      ],
      "payable": false,
      "stateMutability": "view",
      "type": "function"
    },
    {
      "constant": true,
      "inputs": [],
      "name": "bbs",
      "outputs": [
        {
          "name": "",
          "type": "address"
        }
      ],
      "payable": false,
      "stateMutability": "view",
      "type": "function"
    },
    {
      "constant": true,
      "inputs": [
        {
          "name": "sender",
          "type": "address"
        },
        {
          "name": "jobHash",
          "type": "bytes"
        }
      ],
      "name": "isJobCancel",
      "outputs": [
        {
          "name": "",
          "type": "bool"
        }
      ],
      "payable": false,
      "stateMutability": "view",
      "type": "function"
    },
    {
      "constant": true,
      "inputs": [],
      "name": "payment",
      "outputs": [
        {
          "name": "",
          "type": "address"
        }
      ],
      "payable": false,
      "stateMutability": "view",
      "type": "function"
    },
    {
      "constant": true,
      "inputs": [
        {
          "name": "sender",
          "type": "address"
        },
        {
          "name": "jobHash",
          "type": "bytes"
        }
      ],
      "name": "isOwnerOfJob",
      "outputs": [
        {
          "name": "",
          "type": "bool"
        }
      ],
      "payable": false,
      "stateMutability": "view",
      "type": "function"
    },
    {
      "constant": false,
      "inputs": [],
      "name": "renounceOwnership",
      "outputs": [],
      "payable": false,
      "stateMutability": "nonpayable",
      "type": "function"
    },
    {
      "constant": false,
      "inputs": [
        {
          "name": "BBOAddress",
          "type": "address"
        }
      ],
      "name": "setBBO",
      "outputs": [],
      "payable": false,
      "stateMutability": "nonpayable",
      "type": "function"
    },
    {
      "constant": true,
      "inputs": [],
      "name": "owner",
      "outputs": [
        {
          "name": "",
          "type": "address"
        }
      ],
      "payable": false,
      "stateMutability": "view",
      "type": "function"
    },
    {
      "constant": false,
      "inputs": [
        {
          "name": "anyToken",
          "type": "address"
        }
      ],
      "name": "emergencyERC20Drain",
      "outputs": [],
      "payable": false,
      "stateMutability": "nonpayable",
      "type": "function"
    },
    {
      "constant": false,
      "inputs": [
        {
          "name": "storageAddress",
          "type": "address"
        }
      ],
      "name": "setStorage",
      "outputs": [],
      "payable": false,
      "stateMutability": "nonpayable",
      "type": "function"
    },
    {
      "constant": true,
      "inputs": [
        {
          "name": "jobHash",
          "type": "bytes"
        }
      ],
      "name": "isJobStart",
      "outputs": [
        {
          "name": "",
          "type": "bool"
        }
      ],
      "payable": false,
      "stateMutability": "view",
      "type": "function"
    },
    {
      "constant": false,
      "inputs": [
        {
          "name": "_newOwner",
          "type": "address"
        }
      ],
      "name": "transferOwnership",
      "outputs": [],
      "payable": false,
      "stateMutability": "nonpayable",
      "type": "function"
    },
    {
      "anonymous": false,
      "inputs": [
        {
          "indexed": false,
          "name": "jobHash",
          "type": "bytes"
        },
        {
          "indexed": false,
          "name": "jobID",
          "type": "uint256"
        },
        {
          "indexed": true,
          "name": "owner",
          "type": "address"
        },
        {
          "indexed": false,
          "name": "expired",
          "type": "uint256"
        },
        {
          "indexed": true,
          "name": "category",
          "type": "bytes32"
        },
        {
          "indexed": false,
          "name": "budget",
          "type": "uint256"
        },
        {
          "indexed": false,
          "name": "estimateTime",
          "type": "uint256"
        }
      ],
      "name": "JobCreated",
      "type": "event"
    },
    {
      "anonymous": false,
      "inputs": [
        {
          "indexed": false,
          "name": "jobHash",
          "type": "bytes"
        },
        {
          "indexed": true,
          "name": "indexJobHash",
          "type": "bytes32"
        }
      ],
      "name": "JobCanceled",
      "type": "event"
    },
    {
      "anonymous": false,
      "inputs": [
        {
          "indexed": false,
          "name": "jobHash",
          "type": "bytes"
        },
        {
          "indexed": true,
          "name": "indexJobHash",
          "type": "bytes32"
        }
      ],
      "name": "JobStarted",
      "type": "event"
    },
    {
      "anonymous": false,
      "inputs": [
        {
          "indexed": false,
          "name": "jobHash",
          "type": "bytes"
        },
        {
          "indexed": true,
          "name": "indexJobHash",
          "type": "bytes32"
        }
      ],
      "name": "JobFinished",
      "type": "event"
    },
    {
      "anonymous": false,
      "inputs": [
        {
          "indexed": true,
          "name": "previousOwner",
          "type": "address"
        }
      ],
      "name": "OwnershipRenounced",
      "type": "event"
    },
    {
      "anonymous": false,
      "inputs": [
        {
          "indexed": true,
          "name": "previousOwner",
          "type": "address"
        },
        {
          "indexed": true,
          "name": "newOwner",
          "type": "address"
        }
      ],
      "name": "OwnershipTransferred",
      "type": "event"
    },
    {
      "constant": false,
      "inputs": [
        {
          "name": "paymentAddress",
          "type": "address"
        }
      ],
      "name": "setPaymentContract",
      "outputs": [],
      "payable": false,
      "stateMutability": "nonpayable",
      "type": "function"
    },
    {
      "constant": true,
      "inputs": [
        {
          "name": "jobHash",
          "type": "bytes"
        }
      ],
      "name": "getJob",
      "outputs": [
        {
          "name": "",
          "type": "address"
        },
        {
          "name": "",
          "type": "uint256"
        },
        {
          "name": "",
          "type": "uint256"
        },
        {
          "name": "",
          "type": "bool"
        },
        {
          "name": "",
          "type": "uint256"
        },
        {
          "name": "",
          "type": "address"
        }
      ],
      "payable": false,
      "stateMutability": "view",
      "type": "function"
    },
    {
      "constant": false,
      "inputs": [
        {
          "name": "jobHash",
          "type": "bytes"
        },
        {
          "name": "expired",
          "type": "uint256"
        },
        {
          "name": "estimateTime",
          "type": "uint256"
        },
        {
          "name": "budget",
          "type": "uint256"
        },
        {
          "name": "category",
          "type": "bytes32"
        }
      ],
      "name": "createJob",
      "outputs": [],
      "payable": false,
      "stateMutability": "nonpayable",
      "type": "function"
    },
    {
      "constant": false,
      "inputs": [
        {
          "name": "jobHash",
          "type": "bytes"
        }
      ],
      "name": "cancelJob",
      "outputs": [],
      "payable": false,
      "stateMutability": "nonpayable",
      "type": "function"
    },
    {
      "constant": false,
      "inputs": [
        {
          "name": "jobHash",
          "type": "bytes"
        }
      ],
      "name": "startJob",
      "outputs": [],
      "payable": false,
      "stateMutability": "nonpayable",
      "type": "function"
    },
    {
      "constant": false,
      "inputs": [
        {
          "name": "jobHash",
          "type": "bytes"
        }
      ],
      "name": "finishJob",
      "outputs": [],
      "payable": false,
      "stateMutability": "nonpayable",
      "type": "function"
    },
    {
      "constant": true,
      "inputs": [
        {
          "name": "sender",
          "type": "address"
        },
        {
          "name": "rateTo",
          "type": "address"
        },
        {
          "name": "jobID",
          "type": "uint256"
        }
      ],
      "name": "allowRating",
      "outputs": [
        {
          "name": "",
          "type": "bool"
        }
      ],
      "payable": false,
      "stateMutability": "view",
      "type": "function"
    }
  ],
  "bytecode": "0x60806040526000600160006101000a81548173ffffffffffffffffffffffffffffffffffffffff021916908373ffffffffffffffffffffffffffffffffffffffff1602179055506000600260006101000a81548173ffffffffffffffffffffffffffffffffffffffff021916908373ffffffffffffffffffffffffffffffffffffffff1602179055506000600360006101000a81548173ffffffffffffffffffffffffffffffffffffffff021916908373ffffffffffffffffffffffffffffffffffffffff160217905550336000806101000a81548173ffffffffffffffffffffffffffffffffffffffff021916908373ffffffffffffffffffffffffffffffffffffffff160217905550614ff1806101196000396000f30060806040526004361061011d576000357c0100000000000000000000000000000000000000000000000000000000900463ffffffff16806319d45925146101225780631af26fc2146101a35780631e89bf06146102245780631fde23a41461027b57806329e81c79146102d257806342f6487a1461037357806356fa9f6b146103ca5780636da705f51461044f578063715018a6146104f05780637937f46d146105075780638abb20cc1461054a5780638da5cb5b1461058d57806390e8d82f146105e45780639137c1a714610627578063b222e4a01461066a578063c34dbd07146106d3578063d888803b14610768578063ed059f40146107d1578063f0cb740a1461083a578063f2fde38b146108bb578063fa5382a8146108fe575b600080fd5b34801561012e57600080fd5b50610189600480360381019080803590602001908201803590602001908080601f01602080910402602001604051908101604052809392919081815260200183838082843782019150505050505091929192905050506109fa565b604051808215151515815260200191505060405180910390f35b3480156101af57600080fd5b5061020a600480360381019080803590602001908201803590602001908080601f0160208091040260200160405190810160405280939291908181526020018383808284378201915050505050509192919290505050610be6565b604051808215151515815260200191505060405180910390f35b34801561023057600080fd5b50610239610dbb565b604051808273ffffffffffffffffffffffffffffffffffffffff1673ffffffffffffffffffffffffffffffffffffffff16815260200191505060405180910390f35b34801561028757600080fd5b50610290610de1565b604051808273ffffffffffffffffffffffffffffffffffffffff1673ffffffffffffffffffffffffffffffffffffffff16815260200191505060405180910390f35b3480156102de57600080fd5b50610359600480360381019080803573ffffffffffffffffffffffffffffffffffffffff169060200190929190803590602001908201803590602001908080601f0160208091040260200160405190810160405280939291908181526020018383808284378201915050505050509192919290505050610e07565b604051808215151515815260200191505060405180910390f35b34801561037f57600080fd5b5061038861101e565b604051808273ffffffffffffffffffffffffffffffffffffffff1673ffffffffffffffffffffffffffffffffffffffff16815260200191505060405180910390f35b3480156103d657600080fd5b50610435600480360381019080803573ffffffffffffffffffffffffffffffffffffffff169060200190929190803573ffffffffffffffffffffffffffffffffffffffff16906020019092919080359060200190929190505050611044565b604051808215151515815260200191505060405180910390f35b34801561045b57600080fd5b506104d6600480360381019080803573ffffffffffffffffffffffffffffffffffffffff169060200190929190803590602001908201803590602001908080601f0160208091040260200160405190810160405280939291908181526020018383808284378201915050505050509192919290505050611659565b604051808215151515815260200191505060405180910390f35b3480156104fc57600080fd5b506105056117c7565b005b34801561051357600080fd5b50610548600480360381019080803573ffffffffffffffffffffffffffffffffffffffff1690602001909291905050506118c9565b005b34801561055657600080fd5b5061058b600480360381019080803573ffffffffffffffffffffffffffffffffffffffff169060200190929190505050611968565b005b34801561059957600080fd5b506105a2611a07565b604051808273ffffffffffffffffffffffffffffffffffffffff1673ffffffffffffffffffffffffffffffffffffffff16815260200191505060405180910390f35b3480156105f057600080fd5b50610625600480360381019080803573ffffffffffffffffffffffffffffffffffffffff169060200190929190505050611a2c565b005b34801561063357600080fd5b50610668600480360381019080803573ffffffffffffffffffffffffffffffffffffffff169060200190929190505050611d40565b005b34801561067657600080fd5b506106d1600480360381019080803590602001908201803590602001908080601f0160208091040260200160405190810160405280939291908181526020018383808284378201915050505050509192919290505050611ddf565b005b3480156106df57600080fd5b50610766600480360381019080803590602001908201803590602001908080601f01602080910402602001604051908101604052809392919081815260200183838082843782019150505050505091929192908035906020019092919080359060200190929190803590602001909291908035600019169060200190929190505050612596565b005b34801561077457600080fd5b506107cf600480360381019080803590602001908201803590602001908080601f0160208091040260200160405190810160405280939291908181526020018383808284378201915050505050509192919290505050612f73565b005b3480156107dd57600080fd5b50610838600480360381019080803590602001908201803590602001908080601f01602080910402602001604051908101604052809392919081815260200183838082843782019150505050505091929192905050506138b1565b005b34801561084657600080fd5b506108a1600480360381019080803590602001908201803590602001908080601f0160208091040260200160405190810160405280939291908181526020018383808284378201915050505050509192919290505050614164565b604051808215151515815260200191505060405180910390f35b3480156108c757600080fd5b506108fc600480360381019080803573ffffffffffffffffffffffffffffffffffffffff16906020019092919050505061433a565b005b34801561090a57600080fd5b50610965600480360381019080803590602001908201803590602001908080601f01602080910402602001604051908101604052809392919081815260200183838082843782019150505050505091929192905050506143f9565b604051808773ffffffffffffffffffffffffffffffffffffffff1673ffffffffffffffffffffffffffffffffffffffff168152602001868152602001858152602001841515151581526020018381526020018273ffffffffffffffffffffffffffffffffffffffff1673ffffffffffffffffffffffffffffffffffffffff168152602001965050505050505060405180910390f35b600080600160009054906101000a900473ffffffffffffffffffffffffffffffffffffffff1673ffffffffffffffffffffffffffffffffffffffff166321f8a721846040516020018082805190602001908083835b602083101515610a745780518252602082019150602081019050602083039250610a4f565b6001836020036101000a038019825116818451168082178552505050505050905001807f465245454c414e43455200000000000000000000000000000000000000000000815250600a019150506040516020818303038152906040526040518082805190602001908083835b602083101515610b055780518252602082019150602081019050602083039250610ae0565b6001836020036101000a03801982511681845116808217855250505050505090500191505060405180910390206040518263ffffffff167c0100000000000000000000000000000000000000000000000000000000028152600401808260001916600019168152602001915050602060405180830381600087803b158015610b8c57600080fd5b505af1158015610ba0573d6000803e3d6000fd5b505050506040513d6020811015610bb657600080fd5b810190808051906020019092919050505073ffffffffffffffffffffffffffffffffffffffff1614159050919050565b6000600160009054906101000a900473ffffffffffffffffffffffffffffffffffffffff1673ffffffffffffffffffffffffffffffffffffffff1663bd02d0f5836040516020018082805190602001908083835b602083101515610c5f5780518252602082019150602081019050602083039250610c3a565b6001836020036101000a038019825116818451168082178552505050505050905001807f45585049524544000000000000000000000000000000000000000000000000008152506007019150506040516020818303038152906040526040518082805190602001908083835b602083101515610cf05780518252602082019150602081019050602083039250610ccb565b6001836020036101000a03801982511681845116808217855250505050505090500191505060405180910390206040518263ffffffff167c0100000000000000000000000000000000000000000000000000000000028152600401808260001916600019168152602001915050602060405180830381600087803b158015610d7757600080fd5b505af1158015610d8b573d6000803e3d6000fd5b505050506040513d6020811015610da157600080fd5b810190808051906020019092919050505042119050919050565b600260009054906101000a900473ffffffffffffffffffffffffffffffffffffffff1681565b600160009054906101000a900473ffffffffffffffffffffffffffffffffffffffff1681565b6000600160009054906101000a900473ffffffffffffffffffffffffffffffffffffffff1673ffffffffffffffffffffffffffffffffffffffff16637ae1cfca83856040516020018083805190602001908083835b602083101515610e815780518252602082019150602081019050602083039250610e5c565b6001836020036101000a0380198251168184511680821785525050505050509050018273ffffffffffffffffffffffffffffffffffffffff1673ffffffffffffffffffffffffffffffffffffffff166c01000000000000000000000000028152601401807f43414e43454c0000000000000000000000000000000000000000000000000000815250600601925050506040516020818303038152906040526040518082805190602001908083835b602083101515610f545780518252602082019150602081019050602083039250610f2f565b6001836020036101000a03801982511681845116808217855250505050505090500191505060405180910390206040518263ffffffff167c0100000000000000000000000000000000000000000000000000000000028152600401808260001916600019168152602001915050602060405180830381600087803b158015610fdb57600080fd5b505af1158015610fef573d6000803e3d6000fd5b505050506040513d602081101561100557600080fd5b8101908080519060200190929190505050905092915050565b600360009054906101000a900473ffffffffffffffffffffffffffffffffffffffff1681565b600060606000806000600160009054906101000a900473ffffffffffffffffffffffffffffffffffffffff1673ffffffffffffffffffffffffffffffffffffffff1663c031a18087604051602001808281526020019150506040516020818303038152906040526040518082805190602001908083835b6020831015156110e057805182526020820191506020810190506020830392506110bb565b6001836020036101000a03801982511681845116808217855250505050505090500191505060405180910390206040518263ffffffff167c0100000000000000000000000000000000000000000000000000000000028152600401808260001916600019168152602001915050600060405180830381600087803b15801561116757600080fd5b505af115801561117b573d6000803e3d6000fd5b505050506040513d6000823e3d601f19601f8201168201806040525060208110156111a557600080fd5b8101908080516401000000008111156111bd57600080fd5b828101905060208101848111156111d357600080fd5b81518560018202830111640100000000821117156111f057600080fd5b50509291905050509350600160009054906101000a900473ffffffffffffffffffffffffffffffffffffffff1673ffffffffffffffffffffffffffffffffffffffff166321f8a72161124186614ac8565b6040518263ffffffff167c0100000000000000000000000000000000000000000000000000000000028152600401808260001916600019168152602001915050602060405180830381600087803b15801561129b57600080fd5b505af11580156112af573d6000803e3d6000fd5b505050506040513d60208110156112c557600080fd5b81019080805190602001909291905050509250600160009054906101000a900473ffffffffffffffffffffffffffffffffffffffff1673ffffffffffffffffffffffffffffffffffffffff166321f8a721611355866040805190810160405280600a81526020017f465245454c414e43455200000000000000000000000000000000000000000000815250614ba0565b6040518263ffffffff167c0100000000000000000000000000000000000000000000000000000000028152600401808260001916600019168152602001915050602060405180830381600087803b1580156113af57600080fd5b505af11580156113c3573d6000803e3d6000fd5b505050506040513d60208110156113d957600080fd5b810190808051906020019092919050505091508273ffffffffffffffffffffffffffffffffffffffff168873ffffffffffffffffffffffffffffffffffffffff161415801561145457508173ffffffffffffffffffffffffffffffffffffffff168873ffffffffffffffffffffffffffffffffffffffff1614155b15611462576000945061164e565b8273ffffffffffffffffffffffffffffffffffffffff168773ffffffffffffffffffffffffffffffffffffffff16141580156114ca57508173ffffffffffffffffffffffffffffffffffffffff168773ffffffffffffffffffffffffffffffffffffffff1614155b156114d8576000945061164e565b8673ffffffffffffffffffffffffffffffffffffffff168873ffffffffffffffffffffffffffffffffffffffff161415611515576000945061164e565b600160009054906101000a900473ffffffffffffffffffffffffffffffffffffffff1673ffffffffffffffffffffffffffffffffffffffff1663bd02d0f5611592866040805190810160405280600681526020017f5354415455530000000000000000000000000000000000000000000000000000815250614ba0565b6040518263ffffffff167c0100000000000000000000000000000000000000000000000000000000028152600401808260001916600019168152602001915050602060405180830381600087803b1580156115ec57600080fd5b505af1158015611600573d6000803e3d6000fd5b505050506040513d602081101561161657600080fd5b810190808051906020019092919050505090506005811415801561163b575060098114155b15611649576000945061164e565b600194505b505050509392505050565b60008273ffffffffffffffffffffffffffffffffffffffff16600160009054906101000a900473ffffffffffffffffffffffffffffffffffffffff1673ffffffffffffffffffffffffffffffffffffffff166321f8a721846040518082805190602001908083835b6020831015156116e657805182526020820191506020810190506020830392506116c1565b6001836020036101000a03801982511681845116808217855250505050505090500191505060405180910390206040518263ffffffff167c0100000000000000000000000000000000000000000000000000000000028152600401808260001916600019168152602001915050602060405180830381600087803b15801561176d57600080fd5b505af1158015611781573d6000803e3d6000fd5b505050506040513d602081101561179757600080fd5b810190808051906020019092919050505073ffffffffffffffffffffffffffffffffffffffff1614905092915050565b6000809054906101000a900473ffffffffffffffffffffffffffffffffffffffff1673ffffffffffffffffffffffffffffffffffffffff163373ffffffffffffffffffffffffffffffffffffffff1614151561182257600080fd5b6000809054906101000a900473ffffffffffffffffffffffffffffffffffffffff1673ffffffffffffffffffffffffffffffffffffffff167ff8df31144d9c2f0f6b59d69b8b98abd5459d07f2742c4df920b25aae33c6482060405160405180910390a260008060006101000a81548173ffffffffffffffffffffffffffffffffffffffff021916908373ffffffffffffffffffffffffffffffffffffffff160217905550565b6000809054906101000a900473ffffffffffffffffffffffffffffffffffffffff1673ffffffffffffffffffffffffffffffffffffffff163373ffffffffffffffffffffffffffffffffffffffff1614151561192457600080fd5b80600260006101000a81548173ffffffffffffffffffffffffffffffffffffffff021916908373ffffffffffffffffffffffffffffffffffffffff16021790555050565b6000809054906101000a900473ffffffffffffffffffffffffffffffffffffffff1673ffffffffffffffffffffffffffffffffffffffff163373ffffffffffffffffffffffffffffffffffffffff161415156119c357600080fd5b80600360006101000a81548173ffffffffffffffffffffffffffffffffffffffff021916908373ffffffffffffffffffffffffffffffffffffffff16021790555050565b6000809054906101000a900473ffffffffffffffffffffffffffffffffffffffff1681565b6000809054906101000a900473ffffffffffffffffffffffffffffffffffffffff1673ffffffffffffffffffffffffffffffffffffffff163373ffffffffffffffffffffffffffffffffffffffff16141515611a8757600080fd5b60003073ffffffffffffffffffffffffffffffffffffffff16311115611b27576000809054906101000a900473ffffffffffffffffffffffffffffffffffffffff1673ffffffffffffffffffffffffffffffffffffffff166108fc3073ffffffffffffffffffffffffffffffffffffffff16319081150290604051600060405180830381858888f19350505050158015611b25573d6000803e3d6000fd5b505b600073ffffffffffffffffffffffffffffffffffffffff168173ffffffffffffffffffffffffffffffffffffffff16141515611d3d578073ffffffffffffffffffffffffffffffffffffffff1663a9059cbb6000809054906101000a900473ffffffffffffffffffffffffffffffffffffffff168373ffffffffffffffffffffffffffffffffffffffff166370a08231306040518263ffffffff167c0100000000000000000000000000000000000000000000000000000000028152600401808273ffffffffffffffffffffffffffffffffffffffff1673ffffffffffffffffffffffffffffffffffffffff168152602001915050602060405180830381600087803b158015611c3657600080fd5b505af1158015611c4a573d6000803e3d6000fd5b505050506040513d6020811015611c6057600080fd5b81019080805190602001909291905050506040518363ffffffff167c0100000000000000000000000000000000000000000000000000000000028152600401808373ffffffffffffffffffffffffffffffffffffffff1673ffffffffffffffffffffffffffffffffffffffff16815260200182815260200192505050602060405180830381600087803b158015611cf657600080fd5b505af1158015611d0a573d6000803e3d6000fd5b505050506040513d6020811015611d2057600080fd5b81019080805190602001909291905050501515611d3c57600080fd5b5b50565b6000809054906101000a900473ffffffffffffffffffffffffffffffffffffffff1673ffffffffffffffffffffffffffffffffffffffff163373ffffffffffffffffffffffffffffffffffffffff16141515611d9b57600080fd5b80600160006101000a81548173ffffffffffffffffffffffffffffffffffffffff021916908373ffffffffffffffffffffffffffffffffffffffff16021790555050565b806000600160009054906101000a900473ffffffffffffffffffffffffffffffffffffffff1673ffffffffffffffffffffffffffffffffffffffff166321f8a721836040518082805190602001908083835b602083101515611e565780518252602082019150602081019050602083039250611e31565b6001836020036101000a03801982511681845116808217855250505050505090500191505060405180910390206040518263ffffffff167c0100000000000000000000000000000000000000000000000000000000028152600401808260001916600019168152602001915050602060405180830381600087803b158015611edd57600080fd5b505af1158015611ef1573d6000803e3d6000fd5b505050506040513d6020811015611f0757600080fd5b8101908080519060200190929190505050905060008173ffffffffffffffffffffffffffffffffffffffff1614151515611f4057600080fd5b8073ffffffffffffffffffffffffffffffffffffffff163373ffffffffffffffffffffffffffffffffffffffff1614151515611f7b57600080fd5b823373ffffffffffffffffffffffffffffffffffffffff16600160009054906101000a900473ffffffffffffffffffffffffffffffffffffffff1673ffffffffffffffffffffffffffffffffffffffff166321f8a721836040516020018082805190602001908083835b60208310151561200a5780518252602082019150602081019050602083039250611fe5565b6001836020036101000a038019825116818451168082178552505050505050905001807f465245454c414e43455200000000000000000000000000000000000000000000815250600a019150506040516020818303038152906040526040518082805190602001908083835b60208310151561209b5780518252602082019150602081019050602083039250612076565b6001836020036101000a03801982511681845116808217855250505050505090500191505060405180910390206040518263ffffffff167c0100000000000000000000000000000000000000000000000000000000028152600401808260001916600019168152602001915050602060405180830381600087803b15801561212257600080fd5b505af1158015612136573d6000803e3d6000fd5b505050506040513d602081101561214c57600080fd5b810190808051906020019092919050505073ffffffffffffffffffffffffffffffffffffffff1614151561217f57600080fd5b60018060009054906101000a900473ffffffffffffffffffffffffffffffffffffffff1673ffffffffffffffffffffffffffffffffffffffff1663bd02d0f56121fd876040805190810160405280600681526020017f5354415455530000000000000000000000000000000000000000000000000000815250614ba0565b6040518263ffffffff167c0100000000000000000000000000000000000000000000000000000000028152600401808260001916600019168152602001915050602060405180830381600087803b15801561225757600080fd5b505af115801561226b573d6000803e3d6000fd5b505050506040513d602081101561228157600080fd5b810190808051906020019092919050505014151561229e57600080fd5b600160009054906101000a900473ffffffffffffffffffffffffffffffffffffffff1673ffffffffffffffffffffffffffffffffffffffff1663e2a4853a61231b866040805190810160405280600681526020017f5354415455530000000000000000000000000000000000000000000000000000815250614ba0565b60026040518363ffffffff167c010000000000000000000000000000000000000000000000000000000002815260040180836000191660001916815260200182815260200192505050600060405180830381600087803b15801561237e57600080fd5b505af1158015612392573d6000803e3d6000fd5b50505050600160009054906101000a900473ffffffffffffffffffffffffffffffffffffffff1673ffffffffffffffffffffffffffffffffffffffff1663e2a4853a612413866040805190810160405280601681526020017f4a4f425f46494e49534845445f54494d455354414d5000000000000000000000815250614ba0565b426040518363ffffffff167c010000000000000000000000000000000000000000000000000000000002815260040180836000191660001916815260200182815260200192505050600060405180830381600087803b15801561247557600080fd5b505af1158015612489573d6000803e3d6000fd5b50505050836040518082805190602001908083835b6020831015156124c3578051825260208201915060208101905060208303925061249e565b6001836020036101000a0380198251168184511680821785525050505050509050019150506040518091039020600019167fa97700dfbb678191fc4bc43a9b6e3708724b0d48209b1455dff3c5adfaabf456856040518080602001828103825283818151815260200191508051906020019080838360005b8381101561255657808201518184015260208101905061253b565b50505050905090810190601f1680156125835780820380516001836020036101000a031916815260200191505b509250505060405180910390a250505050565b6000856000600160009054906101000a900473ffffffffffffffffffffffffffffffffffffffff1673ffffffffffffffffffffffffffffffffffffffff166321f8a721836040518082805190602001908083835b60208310151561260f57805182526020820191506020810190506020830392506125ea565b6001836020036101000a03801982511681845116808217855250505050505090500191505060405180910390206040518263ffffffff167c0100000000000000000000000000000000000000000000000000000000028152600401808260001916600019168152602001915050602060405180830381600087803b15801561269657600080fd5b505af11580156126aa573d6000803e3d6000fd5b505050506040513d60208110156126c057600080fd5b810190808051906020019092919050505073ffffffffffffffffffffffffffffffffffffffff161415156126f357600080fd5b6000875111151561270357600080fd5b428611151561271157600080fd5b60008411151561272057600080fd5b60008511151561272f57600080fd5b600160009054906101000a900473ffffffffffffffffffffffffffffffffffffffff1673ffffffffffffffffffffffffffffffffffffffff1663ca446dd9886040518082805190602001908083835b6020831015156127a3578051825260208201915060208101905060208303925061277e565b6001836020036101000a0380198251168184511680821785525050505050509050019150506040518091039020336040518363ffffffff167c01000000000000000000000000000000000000000000000000000000000281526004018083600019166000191681526020018273ffffffffffffffffffffffffffffffffffffffff1673ffffffffffffffffffffffffffffffffffffffff16815260200192505050600060405180830381600087803b15801561285e57600080fd5b505af1158015612872573d6000803e3d6000fd5b50505050600160009054906101000a900473ffffffffffffffffffffffffffffffffffffffff1673ffffffffffffffffffffffffffffffffffffffff1663e2a4853a6128f3896040805190810160405280600781526020017f4558504952454400000000000000000000000000000000000000000000000000815250614ba0565b886040518363ffffffff167c010000000000000000000000000000000000000000000000000000000002815260040180836000191660001916815260200182815260200192505050600060405180830381600087803b15801561295557600080fd5b505af1158015612969573d6000803e3d6000fd5b50505050600160009054906101000a900473ffffffffffffffffffffffffffffffffffffffff1673ffffffffffffffffffffffffffffffffffffffff1663bd02d0f56129e96040805190810160405280600681526020017f4a4f425f49440000000000000000000000000000000000000000000000000000815250614ac8565b6040518263ffffffff167c0100000000000000000000000000000000000000000000000000000000028152600401808260001916600019168152602001915050602060405180830381600087803b158015612a4357600080fd5b505af1158015612a57573d6000803e3d6000fd5b505050506040513d6020811015612a6d57600080fd5b810190808051906020019092919050505091508180600101925050600160009054906101000a900473ffffffffffffffffffffffffffffffffffffffff1673ffffffffffffffffffffffffffffffffffffffff1663e2a4853a612b046040805190810160405280600681526020017f4a4f425f49440000000000000000000000000000000000000000000000000000815250614ac8565b846040518363ffffffff167c010000000000000000000000000000000000000000000000000000000002815260040180836000191660001916815260200182815260200192505050600060405180830381600087803b158015612b6657600080fd5b505af1158015612b7a573d6000803e3d6000fd5b50505050600160009054906101000a900473ffffffffffffffffffffffffffffffffffffffff1673ffffffffffffffffffffffffffffffffffffffff16632e28d084612bc584614cce565b896040518363ffffffff167c010000000000000000000000000000000000000000000000000000000002815260040180836000191660001916815260200180602001828103825283818151815260200191508051906020019080838360005b83811015612c3f578082015181840152602081019050612c24565b50505050905090810190601f168015612c6c5780820380516001836020036101000a031916815260200191505b509350505050600060405180830381600087803b158015612c8c57600080fd5b505af1158015612ca0573d6000803e3d6000fd5b50505050600160009054906101000a900473ffffffffffffffffffffffffffffffffffffffff1673ffffffffffffffffffffffffffffffffffffffff1663e2a4853a612d21896040805190810160405280600d81526020017f455354494d4154455f54494d4500000000000000000000000000000000000000815250614ba0565b876040518363ffffffff167c010000000000000000000000000000000000000000000000000000000002815260040180836000191660001916815260200182815260200192505050600060405180830381600087803b158015612d8357600080fd5b505af1158015612d97573d6000803e3d6000fd5b50505050600160009054906101000a900473ffffffffffffffffffffffffffffffffffffffff1673ffffffffffffffffffffffffffffffffffffffff1663e2a4853a612e18896040805190810160405280600681526020017f4255444745540000000000000000000000000000000000000000000000000000815250614ba0565b866040518363ffffffff167c010000000000000000000000000000000000000000000000000000000002815260040180836000191660001916815260200182815260200192505050600060405180830381600087803b158015612e7a57600080fd5b505af1158015612e8e573d6000803e3d6000fd5b5050505082600019163373ffffffffffffffffffffffffffffffffffffffff167f5ad21fac73b353434bdc18fb303e9da2d53a9950e78b8273bb55e21e6a3a84c289858a898b6040518080602001868152602001858152602001848152602001838152602001828103825287818151815260200191508051906020019080838360005b83811015612f2c578082015181840152602081019050612f11565b50505050905090810190601f168015612f595780820380516001836020036101000a031916815260200191505b50965050505050505060405180910390a350505050505050565b600080600080843373ffffffffffffffffffffffffffffffffffffffff16600160009054906101000a900473ffffffffffffffffffffffffffffffffffffffff1673ffffffffffffffffffffffffffffffffffffffff166321f8a721836040518082805190602001908083835b6020831015156130055780518252602082019150602081019050602083039250612fe0565b6001836020036101000a03801982511681845116808217855250505050505090500191505060405180910390206040518263ffffffff167c0100000000000000000000000000000000000000000000000000000000028152600401808260001916600019168152602001915050602060405180830381600087803b15801561308c57600080fd5b505af11580156130a0573d6000803e3d6000fd5b505050506040513d60208110156130b657600080fd5b810190808051906020019092919050505073ffffffffffffffffffffffffffffffffffffffff161415156130e957600080fd5b600160009054906101000a900473ffffffffffffffffffffffffffffffffffffffff1673ffffffffffffffffffffffffffffffffffffffff1663bd02d0f5613166886040805190810160405280600681526020017f5354415455530000000000000000000000000000000000000000000000000000815250614ba0565b6040518263ffffffff167c0100000000000000000000000000000000000000000000000000000000028152600401808260001916600019168152602001915050602060405180830381600087803b1580156131c057600080fd5b505af11580156131d4573d6000803e3d6000fd5b505050506040513d60208110156131ea57600080fd5b81019080805190602001909291905050509450600085148061320c5750600185145b151561321757600080fd5b600185141561356e57600160009054906101000a900473ffffffffffffffffffffffffffffffffffffffff1673ffffffffffffffffffffffffffffffffffffffff166321f8a72161329d886040805190810160405280600a81526020017f465245454c414e43455200000000000000000000000000000000000000000000815250614ba0565b6040518263ffffffff167c0100000000000000000000000000000000000000000000000000000000028152600401808260001916600019168152602001915050602060405180830381600087803b1580156132f757600080fd5b505af115801561330b573d6000803e3d6000fd5b505050506040513d602081101561332157600080fd5b81019080805190602001909291905050509350600160009054906101000a900473ffffffffffffffffffffffffffffffffffffffff1673ffffffffffffffffffffffffffffffffffffffff1663bd02d0f56133b2886040805190810160405280600881526020017f4249445f54494d4500000000000000000000000000000000000000000000000081525088614d59565b6040518263ffffffff167c0100000000000000000000000000000000000000000000000000000000028152600401808260001916600019168152602001915050602060405180830381600087803b15801561340c57600080fd5b505af1158015613420573d6000803e3d6000fd5b505050506040513d602081101561343657600080fd5b81019080805190602001909291905050509250600160009054906101000a900473ffffffffffffffffffffffffffffffffffffffff1673ffffffffffffffffffffffffffffffffffffffff1663bd02d0f56134c6886040805190810160405280601581526020017f4a4f425f535441525445445f54494d455354414d500000000000000000000000815250614ba0565b6040518263ffffffff167c0100000000000000000000000000000000000000000000000000000000028152600401808260001916600019168152602001915050602060405180830381600087803b15801561352057600080fd5b505af1158015613534573d6000803e3d6000fd5b505050506040513d602081101561354a57600080fd5b810190808051906020019092919050505091508282014211151561356d57600080fd5b5b600160009054906101000a900473ffffffffffffffffffffffffffffffffffffffff1673ffffffffffffffffffffffffffffffffffffffff1663abfdcced6135eb886040805190810160405280600681526020017f43414e43454c0000000000000000000000000000000000000000000000000000815250614ba0565b60016040518363ffffffff167c01000000000000000000000000000000000000000000000000000000000281526004018083600019166000191681526020018215151515815260200192505050600060405180830381600087803b15801561365257600080fd5b505af1158015613666573d6000803e3d6000fd5b50505050600360009054906101000a900473ffffffffffffffffffffffffffffffffffffffff1673ffffffffffffffffffffffffffffffffffffffff1663ee48959c876040518263ffffffff167c01000000000000000000000000000000000000000000000000000000000281526004018080602001828103825283818151815260200191508051906020019080838360005b838110156137145780820151818401526020810190506136f9565b50505050905090810190601f1680156137415780820380516001836020036101000a031916815260200191505b5092505050602060405180830381600087803b15801561376057600080fd5b505af1158015613774573d6000803e3d6000fd5b505050506040513d602081101561378a57600080fd5b810190808051906020019092919050505015156137a657600080fd5b856040518082805190602001908083835b6020831015156137dc57805182526020820191506020810190506020830392506137b7565b6001836020036101000a0380198251168184511680821785525050505050509050019150506040518091039020600019167fbab3e2d260c5afe5e8ba1edb8d08321c22b03c1aeef5670edad77fac3821e0ee876040518080602001828103825283818151815260200191508051906020019080838360005b8381101561386f578082015181840152602081019050613854565b50505050905090810190601f16801561389c5780820380516001836020036101000a031916815260200191505b509250505060405180910390a2505050505050565b8060011515600160009054906101000a900473ffffffffffffffffffffffffffffffffffffffff1673ffffffffffffffffffffffffffffffffffffffff16637ae1cfca836040516020018082805190602001908083835b60208310151561392d5780518252602082019150602081019050602083039250613908565b6001836020036101000a038019825116818451168082178552505050505050905001807f43414e43454c00000000000000000000000000000000000000000000000000008152506006019150506040516020818303038152906040526040518082805190602001908083835b6020831015156139be5780518252602082019150602081019050602083039250613999565b6001836020036101000a03801982511681845116808217855250505050505090500191505060405180910390206040518263ffffffff167c0100000000000000000000000000000000000000000000000000000000028152600401808260001916600019168152602001915050602060405180830381600087803b158015613a4557600080fd5b505af1158015613a59573d6000803e3d6000fd5b505050506040513d6020811015613a6f57600080fd5b8101908080519060200190929190505050151514151515613a8f57600080fd5b816000600160009054906101000a900473ffffffffffffffffffffffffffffffffffffffff1673ffffffffffffffffffffffffffffffffffffffff1663bd02d0f5836040516020018082805190602001908083835b602083101515613b095780518252602082019150602081019050602083039250613ae4565b6001836020036101000a038019825116818451168082178552505050505050905001807f53544154555300000000000000000000000000000000000000000000000000008152506006019150506040516020818303038152906040526040518082805190602001908083835b602083101515613b9a5780518252602082019150602081019050602083039250613b75565b6001836020036101000a03801982511681845116808217855250505050505090500191505060405180910390206040518263ffffffff167c0100000000000000000000000000000000000000000000000000000000028152600401808260001916600019168152602001915050602060405180830381600087803b158015613c2157600080fd5b505af1158015613c35573d6000803e3d6000fd5b505050506040513d6020811015613c4b57600080fd5b8101908080519060200190929190505050141515613c6857600080fd5b823373ffffffffffffffffffffffffffffffffffffffff16600160009054906101000a900473ffffffffffffffffffffffffffffffffffffffff1673ffffffffffffffffffffffffffffffffffffffff166321f8a721836040516020018082805190602001908083835b602083101515613cf75780518252602082019150602081019050602083039250613cd2565b6001836020036101000a038019825116818451168082178552505050505050905001807f465245454c414e43455200000000000000000000000000000000000000000000815250600a019150506040516020818303038152906040526040518082805190602001908083835b602083101515613d885780518252602082019150602081019050602083039250613d63565b6001836020036101000a03801982511681845116808217855250505050505090500191505060405180910390206040518263ffffffff167c0100000000000000000000000000000000000000000000000000000000028152600401808260001916600019168152602001915050602060405180830381600087803b158015613e0f57600080fd5b505af1158015613e23573d6000803e3d6000fd5b505050506040513d6020811015613e3957600080fd5b810190808051906020019092919050505073ffffffffffffffffffffffffffffffffffffffff16141515613e6c57600080fd5b600160009054906101000a900473ffffffffffffffffffffffffffffffffffffffff1673ffffffffffffffffffffffffffffffffffffffff1663e2a4853a613ee9866040805190810160405280600681526020017f5354415455530000000000000000000000000000000000000000000000000000815250614ba0565b60016040518363ffffffff167c010000000000000000000000000000000000000000000000000000000002815260040180836000191660001916815260200182815260200192505050600060405180830381600087803b158015613f4c57600080fd5b505af1158015613f60573d6000803e3d6000fd5b50505050600160009054906101000a900473ffffffffffffffffffffffffffffffffffffffff1673ffffffffffffffffffffffffffffffffffffffff1663e2a4853a613fe1866040805190810160405280601581526020017f4a4f425f535441525445445f54494d455354414d500000000000000000000000815250614ba0565b426040518363ffffffff167c010000000000000000000000000000000000000000000000000000000002815260040180836000191660001916815260200182815260200192505050600060405180830381600087803b15801561404357600080fd5b505af1158015614057573d6000803e3d6000fd5b50505050836040518082805190602001908083835b602083101515614091578051825260208201915060208101905060208303925061406c565b6001836020036101000a0380198251168184511680821785525050505050509050019150506040518091039020600019167fd1bd0dfc71463b46787e3a27e84aa26f1ca2718b10f1308d1493a8b240112aed856040518080602001828103825283818151815260200191508051906020019080838360005b83811015614124578082015181840152602081019050614109565b50505050905090810190601f1680156141515780820380516001836020036101000a031916815260200191505b509250505060405180910390a250505050565b600080600160009054906101000a900473ffffffffffffffffffffffffffffffffffffffff1673ffffffffffffffffffffffffffffffffffffffff1663bd02d0f5846040516020018082805190602001908083835b6020831015156141de57805182526020820191506020810190506020830392506141b9565b6001836020036101000a038019825116818451168082178552505050505050905001807f53544154555300000000000000000000000000000000000000000000000000008152506006019150506040516020818303038152906040526040518082805190602001908083835b60208310151561426f578051825260208201915060208101905060208303925061424a565b6001836020036101000a03801982511681845116808217855250505050505090500191505060405180910390206040518263ffffffff167c0100000000000000000000000000000000000000000000000000000000028152600401808260001916600019168152602001915050602060405180830381600087803b1580156142f657600080fd5b505af115801561430a573d6000803e3d6000fd5b505050506040513d602081101561432057600080fd5b810190808051906020019092919050505014159050919050565b600073ffffffffffffffffffffffffffffffffffffffff166000809054906101000a900473ffffffffffffffffffffffffffffffffffffffff1673ffffffffffffffffffffffffffffffffffffffff161415156143ed576000809054906101000a900473ffffffffffffffffffffffffffffffffffffffff1673ffffffffffffffffffffffffffffffffffffffff163373ffffffffffffffffffffffffffffffffffffffff161415156143ec57600080fd5b5b6143f681614ecb565b50565b600080600080600080600080600080600080600160009054906101000a900473ffffffffffffffffffffffffffffffffffffffff1673ffffffffffffffffffffffffffffffffffffffff166321f8a7218e6040518082805190602001908083835b60208310151561447f578051825260208201915060208101905060208303925061445a565b6001836020036101000a03801982511681845116808217855250505050505090500191505060405180910390206040518263ffffffff167c0100000000000000000000000000000000000000000000000000000000028152600401808260001916600019168152602001915050602060405180830381600087803b15801561450657600080fd5b505af115801561451a573d6000803e3d6000fd5b505050506040513d602081101561453057600080fd5b81019080805190602001909291905050509550600160009054906101000a900473ffffffffffffffffffffffffffffffffffffffff1673ffffffffffffffffffffffffffffffffffffffff1663bd02d0f56145c08f6040805190810160405280600781526020017f4558504952454400000000000000000000000000000000000000000000000000815250614ba0565b6040518263ffffffff167c0100000000000000000000000000000000000000000000000000000000028152600401808260001916600019168152602001915050602060405180830381600087803b15801561461a57600080fd5b505af115801561462e573d6000803e3d6000fd5b505050506040513d602081101561464457600080fd5b81019080805190602001909291905050509450600160009054906101000a900473ffffffffffffffffffffffffffffffffffffffff1673ffffffffffffffffffffffffffffffffffffffff1663bd02d0f56146d48f6040805190810160405280600681526020017f4255444745540000000000000000000000000000000000000000000000000000815250614ba0565b6040518263ffffffff167c0100000000000000000000000000000000000000000000000000000000028152600401808260001916600019168152602001915050602060405180830381600087803b15801561472e57600080fd5b505af1158015614742573d6000803e3d6000fd5b505050506040513d602081101561475857600080fd5b81019080805190602001909291905050509350600160009054906101000a900473ffffffffffffffffffffffffffffffffffffffff1673ffffffffffffffffffffffffffffffffffffffff16637ae1cfca6147e88f6040805190810160405280600681526020017f43414e43454c0000000000000000000000000000000000000000000000000000815250614ba0565b6040518263ffffffff167c0100000000000000000000000000000000000000000000000000000000028152600401808260001916600019168152602001915050602060405180830381600087803b15801561484257600080fd5b505af1158015614856573d6000803e3d6000fd5b505050506040513d602081101561486c57600080fd5b81019080805190602001909291905050509250600160009054906101000a900473ffffffffffffffffffffffffffffffffffffffff1673ffffffffffffffffffffffffffffffffffffffff1663bd02d0f56148fc8f6040805190810160405280600681526020017f5354415455530000000000000000000000000000000000000000000000000000815250614ba0565b6040518263ffffffff167c0100000000000000000000000000000000000000000000000000000000028152600401808260001916600019168152602001915050602060405180830381600087803b15801561495657600080fd5b505af115801561496a573d6000803e3d6000fd5b505050506040513d602081101561498057600080fd5b81019080805190602001909291905050509150600160009054906101000a900473ffffffffffffffffffffffffffffffffffffffff1673ffffffffffffffffffffffffffffffffffffffff166321f8a721614a108f6040805190810160405280600a81526020017f465245454c414e43455200000000000000000000000000000000000000000000815250614ba0565b6040518263ffffffff167c0100000000000000000000000000000000000000000000000000000000028152600401808260001916600019168152602001915050602060405180830381600087803b158015614a6a57600080fd5b505af1158015614a7e573d6000803e3d6000fd5b505050506040513d6020811015614a9457600080fd5b810190808051906020019092919050505090508585858585859b509b509b509b509b509b5050505050505091939550919395565b6000816040516020018082805190602001908083835b602083101515614b035780518252602082019150602081019050602083039250614ade565b6001836020036101000a0380198251168184511680821785525050505050509050019150506040516020818303038152906040526040518082805190602001908083835b602083101515614b6c5780518252602082019150602081019050602083039250614b47565b6001836020036101000a03801982511681845116808217855250505050505090500191505060405180910390209050919050565b600082826040516020018083805190602001908083835b602083101515614bdc5780518252602082019150602081019050602083039250614bb7565b6001836020036101000a03801982511681845116808217855250505050505090500182805190602001908083835b602083101515614c2f5780518252602082019150602081019050602083039250614c0a565b6001836020036101000a038019825116818451168082178552505050505050905001925050506040516020818303038152906040526040518082805190602001908083835b602083101515614c995780518252602082019150602081019050602083039250614c74565b6001836020036101000a0380198251168184511680821785525050505050509050019150506040518091039020905092915050565b600081604051602001808281526020019150506040516020818303038152906040526040518082805190602001908083835b602083101515614d255780518252602082019150602081019050602083039250614d00565b6001836020036101000a03801982511681845116808217855250505050505090500191505060405180910390209050919050565b60008383836040516020018084805190602001908083835b602083101515614d965780518252602082019150602081019050602083039250614d71565b6001836020036101000a03801982511681845116808217855250505050505090500183805190602001908083835b602083101515614de95780518252602082019150602081019050602083039250614dc4565b6001836020036101000a0380198251168184511680821785525050505050509050018273ffffffffffffffffffffffffffffffffffffffff1673ffffffffffffffffffffffffffffffffffffffff166c0100000000000000000000000002815260140193505050506040516020818303038152906040526040518082805190602001908083835b602083101515614e955780518252602082019150602081019050602083039250614e70565b6001836020036101000a038019825116818451168082178552505050505050905001915050604051809103902090509392505050565b600073ffffffffffffffffffffffffffffffffffffffff168173ffffffffffffffffffffffffffffffffffffffff1614151515614f0757600080fd5b8073ffffffffffffffffffffffffffffffffffffffff166000809054906101000a900473ffffffffffffffffffffffffffffffffffffffff1673ffffffffffffffffffffffffffffffffffffffff167f8be0079c531659141344cd1fd0a4f28419497f9722a3daafe3b4186f6b6457e060405160405180910390a3806000806101000a81548173ffffffffffffffffffffffffffffffffffffffff021916908373ffffffffffffffffffffffffffffffffffffffff160217905550505600a165627a7a72305820e1d36777b3c552fdc24fcd0917b945a4b0c3570d9f332bade379eeb4be77ba910029",
  "source": "/**\n * Created on 2018-08-13 10:31\n * @summary: \n * @author: Chris Nguyen\n */\npragma solidity ^0.4.24;\nimport './BBFreelancer.sol';\nimport './BBFreelancerPayment.sol';\nimport './BBLib.sol';\nimport './BBRatingInterface.sol';\n\n\n/**\n * @title BBFreelancerJob\n */\ncontract BBFreelancerJob is BBFreelancer, BBRatingInterface {\n   BBFreelancerPayment public payment = BBFreelancerPayment(0x0);\n\n  /**\n   * @dev \n   * @param paymentAddress address of the Payment Contract\n   */\n  function setPaymentContract(address paymentAddress) onlyOwner public {\n    payment = BBFreelancerPayment(paymentAddress);\n  }\n\n  event JobCreated(bytes jobHash, uint256 jobID, address indexed owner, uint expired, bytes32 indexed category, uint256  budget, uint256 estimateTime);\n  event JobCanceled(bytes jobHash, bytes32 indexed indexJobHash);\n  event JobStarted(bytes jobHash, bytes32 indexed indexJobHash);\n  event JobFinished(bytes jobHash, bytes32 indexed indexJobHash);\n\n  /**\n   * @dev \n   * @param jobHash Job Hash\n   */\n  function getJob(bytes jobHash) public view returns(address, uint256, uint256, bool, uint256, address){\n    address owner = bbs.getAddress(keccak256(jobHash));\n    uint256 expired = bbs.getUint(BBLib.toB32(jobHash, 'EXPIRED'));\n    uint256 budget = bbs.getUint(BBLib.toB32(jobHash, 'BUDGET'));\n    bool cancel = bbs.getBool(BBLib.toB32(jobHash, 'CANCEL'));\n    uint256 status = bbs.getUint(BBLib.toB32(jobHash, 'STATUS'));\n    address freelancer = bbs.getAddress(BBLib.toB32(jobHash, 'FREELANCER'));\n    return (owner, expired, budget, cancel, status, freelancer);\n\n  }\n\n\n  /**\n   * @dev \n   * @param jobHash Job Hash\n   * @param expired Time\n   * @param estimateTime Time do the job\n   * @param budget Buget\n   * @param category Tag category\n   */\n  function createJob(bytes jobHash, uint expired ,uint estimateTime, uint256 budget, bytes32 category) public \n  jobNotExist(jobHash)\n  {\n    // check jobHash not null\n    require(jobHash.length > 0);\n    // expired > now\n    require(expired > now);\n    // budget\n    require(budget > 0);\n\n    require(estimateTime > 0);\n\n    // save jobHash owner\n    bbs.setAddress(keccak256(jobHash), msg.sender);\n    // save expired timestamp\n    bbs.setUint(BBLib.toB32(jobHash, 'EXPIRED'), expired);\n    //Save jobHash by jobID\n    uint256 jobID = bbs.getUint(BBLib.toB32('JOB_ID'));\n    jobID++;\n    bbs.setUint(BBLib.toB32('JOB_ID'),jobID);\n\n    bbs.setBytes(BBLib.toB32(jobID), jobHash);\n    // save time freelancer can done this job\n    bbs.setUint(BBLib.toB32(jobHash, 'ESTIMATE_TIME'), estimateTime);\n    // save budget \n    bbs.setUint(BBLib.toB32(jobHash, 'BUDGET'), budget);\n \n    emit JobCreated(jobHash, jobID, msg.sender, expired, category, budget, estimateTime);\n  }\n    // hirer  cancel job\n  /**\n   * @dev \n   * @param jobHash Job Hash\n   */\n  function cancelJob(bytes jobHash) public \n  isOwnerJob(jobHash)  {\n\n    uint status = bbs.getUint(BBLib.toB32(jobHash,'STATUS'));\n    require(status == 0 || status == 1);\n    if(status == 1) {\n      address freelancer = bbs.getAddress(BBLib.toB32(jobHash, 'FREELANCER'));\n      uint bidTime = bbs.getUint(BBLib.toB32(jobHash, 'BID_TIME', freelancer));\n      uint timeStartJob = bbs.getUint(BBLib.toB32(jobHash, 'JOB_STARTED_TIMESTAMP'));\n      require(now > timeStartJob + bidTime);\n    }\n    bbs.setBool(BBLib.toB32(jobHash,'CANCEL'), true);\n    require(payment.refundBBO(jobHash));\n    emit JobCanceled(jobHash, keccak256(jobHash));\n  }\n  // freelancer start Job\n  /**\n   * @dev \n   * @param jobHash Job Hash\n   */\n  function startJob(bytes jobHash) public \n  isNotCanceled(jobHash)\n  jobNotStarted(jobHash)\n  isFreelancerOfJob(jobHash) {\n    // set status to 1\n    bbs.setUint(BBLib.toB32(jobHash,'STATUS'), 1);\n    //Begin set time start job\n    bbs.setUint(BBLib.toB32(jobHash,'JOB_STARTED_TIMESTAMP'), now);\n    \n    emit JobStarted(jobHash, keccak256(jobHash));\n  }\n  // freelancer finish Job\n  /**\n   * @dev \n   * @param jobHash Job Hash\n   */\n  function finishJob(bytes jobHash) public \n  isNotOwnerJob(jobHash) \n  isFreelancerOfJob(jobHash) {\n    //status el 1\n    require(bbs.getUint(BBLib.toB32(jobHash,'STATUS')) ==1);\n\n    bbs.setUint(BBLib.toB32(jobHash,'STATUS'), 2);\n    bbs.setUint(BBLib.toB32(jobHash,'JOB_FINISHED_TIMESTAMP'), now);\n    emit JobFinished(jobHash, keccak256(jobHash));\n  }\n\n  function allowRating(address sender ,address  rateTo, uint256 jobID) public view returns(bool) {\n    bytes memory jobHash = bbs.getBytes(keccak256(abi.encodePacked(jobID)));\n    address jobOwner = bbs.getAddress(BBLib.toB32(jobHash));\n    address freelancer = bbs.getAddress(BBLib.toB32(jobHash, 'FREELANCER'));\n    if(sender != jobOwner && sender != freelancer) {\n      return false;\n    }\n    if(rateTo != jobOwner && rateTo != freelancer) {\n       return false;\n    }\n    if(sender == rateTo) {\n      return false;\n    }\n    uint256 jobStatus = bbs.getUint(BBLib.toB32(jobHash ,'STATUS'));\n    if(jobStatus != 5 && jobStatus != 9) {\n       return false;\n    }\n    return true;\n  }\n\n}\n",
  "sourcePath": "C:\\Users\\Tuong Nguyen\\Documents\\git\\bigbom\\digital-contracts\\src\\contracts\\BBFreelancerJob.sol",
  "compiler": {
    "name": "solc",
    "version": "0.4.24+commit.e67f0147.Emscripten.clang"
  },
  "schemaVersion": "2.0.1",
  "updatedAt": "2018-11-05T05:19:07.985Z"
}