{
  "contractName": "BBFreelancerJob",
  "abi": [
    {
      "constant": true,
      "inputs": [
        {
          "name": "jobHash",
          "type": "bytes"
        }
      ],
      "name": "isJobHasFreelancer",
      "outputs": [
        {
          "name": "",
          "type": "bool"
        }
      ],
      "payable": false,
      "stateMutability": "view",
      "type": "function"
    },
    {
      "constant": true,
      "inputs": [
        {
          "name": "jobHash",
          "type": "bytes"
        }
      ],
      "name": "isJobExpired",
      "outputs": [
        {
          "name": "",
          "type": "bool"
        }
      ],
      "payable": false,
      "stateMutability": "view",
      "type": "function"
    },
    {
      "constant": true,
      "inputs": [],
      "name": "bbo",
      "outputs": [
        {
          "name": "",
          "type": "address"
        }
      ],
      "payable": false,
      "stateMutability": "view",
      "type": "function"
    },
    {
      "constant": true,
      "inputs": [],
      "name": "bbs",
      "outputs": [
        {
          "name": "",
          "type": "address"
        }
      ],
      "payable": false,
      "stateMutability": "view",
      "type": "function"
    },
    {
      "constant": true,
      "inputs": [
        {
          "name": "sender",
          "type": "address"
        },
        {
          "name": "jobHash",
          "type": "bytes"
        }
      ],
      "name": "isJobCancel",
      "outputs": [
        {
          "name": "",
          "type": "bool"
        }
      ],
      "payable": false,
      "stateMutability": "view",
      "type": "function"
    },
    {
      "constant": true,
      "inputs": [],
      "name": "payment",
      "outputs": [
        {
          "name": "",
          "type": "address"
        }
      ],
      "payable": false,
      "stateMutability": "view",
      "type": "function"
    },
    {
      "constant": true,
      "inputs": [
        {
          "name": "sender",
          "type": "address"
        },
        {
          "name": "jobHash",
          "type": "bytes"
        }
      ],
      "name": "isOwnerOfJob",
      "outputs": [
        {
          "name": "",
          "type": "bool"
        }
      ],
      "payable": false,
      "stateMutability": "view",
      "type": "function"
    },
    {
      "constant": false,
      "inputs": [],
      "name": "renounceOwnership",
      "outputs": [],
      "payable": false,
      "stateMutability": "nonpayable",
      "type": "function"
    },
    {
      "constant": false,
      "inputs": [
        {
          "name": "BBOAddress",
          "type": "address"
        }
      ],
      "name": "setBBO",
      "outputs": [],
      "payable": false,
      "stateMutability": "nonpayable",
      "type": "function"
    },
    {
      "constant": true,
      "inputs": [],
      "name": "owner",
      "outputs": [
        {
          "name": "",
          "type": "address"
        }
      ],
      "payable": false,
      "stateMutability": "view",
      "type": "function"
    },
    {
      "constant": false,
      "inputs": [
        {
          "name": "anyToken",
          "type": "address"
        }
      ],
      "name": "emergencyERC20Drain",
      "outputs": [],
      "payable": false,
      "stateMutability": "nonpayable",
      "type": "function"
    },
    {
      "constant": false,
      "inputs": [
        {
          "name": "storageAddress",
          "type": "address"
        }
      ],
      "name": "setStorage",
      "outputs": [],
      "payable": false,
      "stateMutability": "nonpayable",
      "type": "function"
    },
    {
      "constant": true,
      "inputs": [
        {
          "name": "jobHash",
          "type": "bytes"
        }
      ],
      "name": "isJobStart",
      "outputs": [
        {
          "name": "",
          "type": "bool"
        }
      ],
      "payable": false,
      "stateMutability": "view",
      "type": "function"
    },
    {
      "constant": false,
      "inputs": [
        {
          "name": "_newOwner",
          "type": "address"
        }
      ],
      "name": "transferOwnership",
      "outputs": [],
      "payable": false,
      "stateMutability": "nonpayable",
      "type": "function"
    },
    {
      "anonymous": false,
      "inputs": [
        {
          "indexed": false,
          "name": "jobHash",
          "type": "bytes"
        },
        {
          "indexed": false,
          "name": "jobID",
          "type": "uint256"
        },
        {
          "indexed": true,
          "name": "owner",
          "type": "address"
        },
        {
          "indexed": false,
          "name": "expired",
          "type": "uint256"
        },
        {
          "indexed": true,
          "name": "category",
          "type": "bytes32"
        },
        {
          "indexed": false,
          "name": "budget",
          "type": "uint256"
        },
        {
          "indexed": false,
          "name": "estimateTime",
          "type": "uint256"
        }
      ],
      "name": "JobCreated",
      "type": "event"
    },
    {
      "anonymous": false,
      "inputs": [
        {
          "indexed": false,
          "name": "jobHash",
          "type": "bytes"
        }
      ],
      "name": "JobCanceled",
      "type": "event"
    },
    {
      "anonymous": false,
      "inputs": [
        {
          "indexed": false,
          "name": "jobHash",
          "type": "bytes"
        }
      ],
      "name": "JobStarted",
      "type": "event"
    },
    {
      "anonymous": false,
      "inputs": [
        {
          "indexed": false,
          "name": "jobHash",
          "type": "bytes"
        }
      ],
      "name": "JobFinished",
      "type": "event"
    },
    {
      "anonymous": false,
      "inputs": [
        {
          "indexed": true,
          "name": "previousOwner",
          "type": "address"
        }
      ],
      "name": "OwnershipRenounced",
      "type": "event"
    },
    {
      "anonymous": false,
      "inputs": [
        {
          "indexed": true,
          "name": "previousOwner",
          "type": "address"
        },
        {
          "indexed": true,
          "name": "newOwner",
          "type": "address"
        }
      ],
      "name": "OwnershipTransferred",
      "type": "event"
    },
    {
      "constant": false,
      "inputs": [
        {
          "name": "paymentAddress",
          "type": "address"
        }
      ],
      "name": "setPaymentContract",
      "outputs": [],
      "payable": false,
      "stateMutability": "nonpayable",
      "type": "function"
    },
    {
      "constant": true,
      "inputs": [
        {
          "name": "jobHash",
          "type": "bytes"
        }
      ],
      "name": "getJob",
      "outputs": [
        {
          "name": "",
          "type": "address"
        },
        {
          "name": "",
          "type": "uint256"
        },
        {
          "name": "",
          "type": "uint256"
        },
        {
          "name": "",
          "type": "bool"
        },
        {
          "name": "",
          "type": "uint256"
        },
        {
          "name": "",
          "type": "address"
        }
      ],
      "payable": false,
      "stateMutability": "view",
      "type": "function"
    },
    {
      "constant": false,
      "inputs": [
        {
          "name": "jobHash",
          "type": "bytes"
        },
        {
          "name": "expired",
          "type": "uint256"
        },
        {
          "name": "estimateTime",
          "type": "uint256"
        },
        {
          "name": "budget",
          "type": "uint256"
        },
        {
          "name": "category",
          "type": "bytes32"
        }
      ],
      "name": "createJob",
      "outputs": [],
      "payable": false,
      "stateMutability": "nonpayable",
      "type": "function"
    },
    {
      "constant": false,
      "inputs": [
        {
          "name": "jobHash",
          "type": "bytes"
        }
      ],
      "name": "cancelJob",
      "outputs": [],
      "payable": false,
      "stateMutability": "nonpayable",
      "type": "function"
    },
    {
      "constant": false,
      "inputs": [
        {
          "name": "jobHash",
          "type": "bytes"
        }
      ],
      "name": "startJob",
      "outputs": [],
      "payable": false,
      "stateMutability": "nonpayable",
      "type": "function"
    },
    {
      "constant": false,
      "inputs": [
        {
          "name": "jobHash",
          "type": "bytes"
        }
      ],
      "name": "finishJob",
      "outputs": [],
      "payable": false,
      "stateMutability": "nonpayable",
      "type": "function"
    }
  ],
  "bytecode": "0x60806040526000600160006101000a81548173ffffffffffffffffffffffffffffffffffffffff021916908373ffffffffffffffffffffffffffffffffffffffff1602179055506000600260006101000a81548173ffffffffffffffffffffffffffffffffffffffff021916908373ffffffffffffffffffffffffffffffffffffffff1602179055506000600360006101000a81548173ffffffffffffffffffffffffffffffffffffffff021916908373ffffffffffffffffffffffffffffffffffffffff160217905550336000806101000a81548173ffffffffffffffffffffffffffffffffffffffff021916908373ffffffffffffffffffffffffffffffffffffffff160217905550614817806101196000396000f300608060405260043610610112576000357c0100000000000000000000000000000000000000000000000000000000900463ffffffff16806319d45925146101175780631af26fc2146101985780631e89bf06146102195780631fde23a41461027057806329e81c79146102c757806342f6487a146103685780636da705f5146103bf578063715018a6146104605780637937f46d146104775780638abb20cc146104ba5780638da5cb5b146104fd57806390e8d82f146105545780639137c1a714610597578063b222e4a0146105da578063c34dbd0714610643578063d888803b146106d8578063ed059f4014610741578063f0cb740a146107aa578063f2fde38b1461082b578063fa5382a81461086e575b600080fd5b34801561012357600080fd5b5061017e600480360381019080803590602001908201803590602001908080601f016020809104026020016040519081016040528093929190818152602001838380828437820191505050505050919291929050505061096a565b604051808215151515815260200191505060405180910390f35b3480156101a457600080fd5b506101ff600480360381019080803590602001908201803590602001908080601f0160208091040260200160405190810160405280939291908181526020018383808284378201915050505050509192919290505050610b56565b604051808215151515815260200191505060405180910390f35b34801561022557600080fd5b5061022e610d2b565b604051808273ffffffffffffffffffffffffffffffffffffffff1673ffffffffffffffffffffffffffffffffffffffff16815260200191505060405180910390f35b34801561027c57600080fd5b50610285610d51565b604051808273ffffffffffffffffffffffffffffffffffffffff1673ffffffffffffffffffffffffffffffffffffffff16815260200191505060405180910390f35b3480156102d357600080fd5b5061034e600480360381019080803573ffffffffffffffffffffffffffffffffffffffff169060200190929190803590602001908201803590602001908080601f0160208091040260200160405190810160405280939291908181526020018383808284378201915050505050509192919290505050610d77565b604051808215151515815260200191505060405180910390f35b34801561037457600080fd5b5061037d610f8e565b604051808273ffffffffffffffffffffffffffffffffffffffff1673ffffffffffffffffffffffffffffffffffffffff16815260200191505060405180910390f35b3480156103cb57600080fd5b50610446600480360381019080803573ffffffffffffffffffffffffffffffffffffffff169060200190929190803590602001908201803590602001908080601f0160208091040260200160405190810160405280939291908181526020018383808284378201915050505050509192919290505050610fb4565b604051808215151515815260200191505060405180910390f35b34801561046c57600080fd5b50610475611122565b005b34801561048357600080fd5b506104b8600480360381019080803573ffffffffffffffffffffffffffffffffffffffff169060200190929190505050611224565b005b3480156104c657600080fd5b506104fb600480360381019080803573ffffffffffffffffffffffffffffffffffffffff1690602001909291905050506112c3565b005b34801561050957600080fd5b50610512611362565b604051808273ffffffffffffffffffffffffffffffffffffffff1673ffffffffffffffffffffffffffffffffffffffff16815260200191505060405180910390f35b34801561056057600080fd5b50610595600480360381019080803573ffffffffffffffffffffffffffffffffffffffff169060200190929190505050611387565b005b3480156105a357600080fd5b506105d8600480360381019080803573ffffffffffffffffffffffffffffffffffffffff16906020019092919050505061169b565b005b3480156105e657600080fd5b50610641600480360381019080803590602001908201803590602001908080601f016020809104026020016040519081016040528093929190818152602001838380828437820191505050505050919291929050505061173a565b005b34801561064f57600080fd5b506106d6600480360381019080803590602001908201803590602001908080601f01602080910402602001604051908101604052809392919081815260200183838082843782019150505050505091929192908035906020019092919080359060200190929190803590602001909291908035600019169060200190929190505050611e8a565b005b3480156106e457600080fd5b5061073f600480360381019080803590602001908201803590602001908080601f0160208091040260200160405190810160405280939291908181526020018383808284378201915050505050509192919290505050612867565b005b34801561074d57600080fd5b506107a8600480360381019080803590602001908201803590602001908080601f016020809104026020016040519081016040528093929190818152602001838380828437820191505050505050919291929050505061313e565b005b3480156107b657600080fd5b50610811600480360381019080803590602001908201803590602001908080601f016020809104026020016040519081016040528093929190818152602001838380828437820191505050505050919291929050505061398a565b604051808215151515815260200191505060405180910390f35b34801561083757600080fd5b5061086c600480360381019080803573ffffffffffffffffffffffffffffffffffffffff169060200190929190505050613b60565b005b34801561087a57600080fd5b506108d5600480360381019080803590602001908201803590602001908080601f0160208091040260200160405190810160405280939291908181526020018383808284378201915050505050509192919290505050613c1f565b604051808773ffffffffffffffffffffffffffffffffffffffff1673ffffffffffffffffffffffffffffffffffffffff168152602001868152602001858152602001841515151581526020018381526020018273ffffffffffffffffffffffffffffffffffffffff1673ffffffffffffffffffffffffffffffffffffffff168152602001965050505050505060405180910390f35b600080600160009054906101000a900473ffffffffffffffffffffffffffffffffffffffff1673ffffffffffffffffffffffffffffffffffffffff166321f8a721846040516020018082805190602001908083835b6020831015156109e457805182526020820191506020810190506020830392506109bf565b6001836020036101000a038019825116818451168082178552505050505050905001807f465245454c414e43455200000000000000000000000000000000000000000000815250600a019150506040516020818303038152906040526040518082805190602001908083835b602083101515610a755780518252602082019150602081019050602083039250610a50565b6001836020036101000a03801982511681845116808217855250505050505090500191505060405180910390206040518263ffffffff167c0100000000000000000000000000000000000000000000000000000000028152600401808260001916600019168152602001915050602060405180830381600087803b158015610afc57600080fd5b505af1158015610b10573d6000803e3d6000fd5b505050506040513d6020811015610b2657600080fd5b810190808051906020019092919050505073ffffffffffffffffffffffffffffffffffffffff1614159050919050565b6000600160009054906101000a900473ffffffffffffffffffffffffffffffffffffffff1673ffffffffffffffffffffffffffffffffffffffff1663bd02d0f5836040516020018082805190602001908083835b602083101515610bcf5780518252602082019150602081019050602083039250610baa565b6001836020036101000a038019825116818451168082178552505050505050905001807f45585049524544000000000000000000000000000000000000000000000000008152506007019150506040516020818303038152906040526040518082805190602001908083835b602083101515610c605780518252602082019150602081019050602083039250610c3b565b6001836020036101000a03801982511681845116808217855250505050505090500191505060405180910390206040518263ffffffff167c0100000000000000000000000000000000000000000000000000000000028152600401808260001916600019168152602001915050602060405180830381600087803b158015610ce757600080fd5b505af1158015610cfb573d6000803e3d6000fd5b505050506040513d6020811015610d1157600080fd5b810190808051906020019092919050505042119050919050565b600260009054906101000a900473ffffffffffffffffffffffffffffffffffffffff1681565b600160009054906101000a900473ffffffffffffffffffffffffffffffffffffffff1681565b6000600160009054906101000a900473ffffffffffffffffffffffffffffffffffffffff1673ffffffffffffffffffffffffffffffffffffffff16637ae1cfca83856040516020018083805190602001908083835b602083101515610df15780518252602082019150602081019050602083039250610dcc565b6001836020036101000a0380198251168184511680821785525050505050509050018273ffffffffffffffffffffffffffffffffffffffff1673ffffffffffffffffffffffffffffffffffffffff166c01000000000000000000000000028152601401807f43414e43454c0000000000000000000000000000000000000000000000000000815250600601925050506040516020818303038152906040526040518082805190602001908083835b602083101515610ec45780518252602082019150602081019050602083039250610e9f565b6001836020036101000a03801982511681845116808217855250505050505090500191505060405180910390206040518263ffffffff167c0100000000000000000000000000000000000000000000000000000000028152600401808260001916600019168152602001915050602060405180830381600087803b158015610f4b57600080fd5b505af1158015610f5f573d6000803e3d6000fd5b505050506040513d6020811015610f7557600080fd5b8101908080519060200190929190505050905092915050565b600360009054906101000a900473ffffffffffffffffffffffffffffffffffffffff1681565b60008273ffffffffffffffffffffffffffffffffffffffff16600160009054906101000a900473ffffffffffffffffffffffffffffffffffffffff1673ffffffffffffffffffffffffffffffffffffffff166321f8a721846040518082805190602001908083835b602083101515611041578051825260208201915060208101905060208303925061101c565b6001836020036101000a03801982511681845116808217855250505050505090500191505060405180910390206040518263ffffffff167c0100000000000000000000000000000000000000000000000000000000028152600401808260001916600019168152602001915050602060405180830381600087803b1580156110c857600080fd5b505af11580156110dc573d6000803e3d6000fd5b505050506040513d60208110156110f257600080fd5b810190808051906020019092919050505073ffffffffffffffffffffffffffffffffffffffff1614905092915050565b6000809054906101000a900473ffffffffffffffffffffffffffffffffffffffff1673ffffffffffffffffffffffffffffffffffffffff163373ffffffffffffffffffffffffffffffffffffffff1614151561117d57600080fd5b6000809054906101000a900473ffffffffffffffffffffffffffffffffffffffff1673ffffffffffffffffffffffffffffffffffffffff167ff8df31144d9c2f0f6b59d69b8b98abd5459d07f2742c4df920b25aae33c6482060405160405180910390a260008060006101000a81548173ffffffffffffffffffffffffffffffffffffffff021916908373ffffffffffffffffffffffffffffffffffffffff160217905550565b6000809054906101000a900473ffffffffffffffffffffffffffffffffffffffff1673ffffffffffffffffffffffffffffffffffffffff163373ffffffffffffffffffffffffffffffffffffffff1614151561127f57600080fd5b80600260006101000a81548173ffffffffffffffffffffffffffffffffffffffff021916908373ffffffffffffffffffffffffffffffffffffffff16021790555050565b6000809054906101000a900473ffffffffffffffffffffffffffffffffffffffff1673ffffffffffffffffffffffffffffffffffffffff163373ffffffffffffffffffffffffffffffffffffffff1614151561131e57600080fd5b80600360006101000a81548173ffffffffffffffffffffffffffffffffffffffff021916908373ffffffffffffffffffffffffffffffffffffffff16021790555050565b6000809054906101000a900473ffffffffffffffffffffffffffffffffffffffff1681565b6000809054906101000a900473ffffffffffffffffffffffffffffffffffffffff1673ffffffffffffffffffffffffffffffffffffffff163373ffffffffffffffffffffffffffffffffffffffff161415156113e257600080fd5b60003073ffffffffffffffffffffffffffffffffffffffff16311115611482576000809054906101000a900473ffffffffffffffffffffffffffffffffffffffff1673ffffffffffffffffffffffffffffffffffffffff166108fc3073ffffffffffffffffffffffffffffffffffffffff16319081150290604051600060405180830381858888f19350505050158015611480573d6000803e3d6000fd5b505b600073ffffffffffffffffffffffffffffffffffffffff168173ffffffffffffffffffffffffffffffffffffffff16141515611698578073ffffffffffffffffffffffffffffffffffffffff1663a9059cbb6000809054906101000a900473ffffffffffffffffffffffffffffffffffffffff168373ffffffffffffffffffffffffffffffffffffffff166370a08231306040518263ffffffff167c0100000000000000000000000000000000000000000000000000000000028152600401808273ffffffffffffffffffffffffffffffffffffffff1673ffffffffffffffffffffffffffffffffffffffff168152602001915050602060405180830381600087803b15801561159157600080fd5b505af11580156115a5573d6000803e3d6000fd5b505050506040513d60208110156115bb57600080fd5b81019080805190602001909291905050506040518363ffffffff167c0100000000000000000000000000000000000000000000000000000000028152600401808373ffffffffffffffffffffffffffffffffffffffff1673ffffffffffffffffffffffffffffffffffffffff16815260200182815260200192505050602060405180830381600087803b15801561165157600080fd5b505af1158015611665573d6000803e3d6000fd5b505050506040513d602081101561167b57600080fd5b8101908080519060200190929190505050151561169757600080fd5b5b50565b6000809054906101000a900473ffffffffffffffffffffffffffffffffffffffff1673ffffffffffffffffffffffffffffffffffffffff163373ffffffffffffffffffffffffffffffffffffffff161415156116f657600080fd5b80600160006101000a81548173ffffffffffffffffffffffffffffffffffffffff021916908373ffffffffffffffffffffffffffffffffffffffff16021790555050565b806000600160009054906101000a900473ffffffffffffffffffffffffffffffffffffffff1673ffffffffffffffffffffffffffffffffffffffff166321f8a721836040518082805190602001908083835b6020831015156117b1578051825260208201915060208101905060208303925061178c565b6001836020036101000a03801982511681845116808217855250505050505090500191505060405180910390206040518263ffffffff167c0100000000000000000000000000000000000000000000000000000000028152600401808260001916600019168152602001915050602060405180830381600087803b15801561183857600080fd5b505af115801561184c573d6000803e3d6000fd5b505050506040513d602081101561186257600080fd5b8101908080519060200190929190505050905060008173ffffffffffffffffffffffffffffffffffffffff161415151561189b57600080fd5b8073ffffffffffffffffffffffffffffffffffffffff163373ffffffffffffffffffffffffffffffffffffffff16141515156118d657600080fd5b823373ffffffffffffffffffffffffffffffffffffffff16600160009054906101000a900473ffffffffffffffffffffffffffffffffffffffff1673ffffffffffffffffffffffffffffffffffffffff166321f8a721836040516020018082805190602001908083835b6020831015156119655780518252602082019150602081019050602083039250611940565b6001836020036101000a038019825116818451168082178552505050505050905001807f465245454c414e43455200000000000000000000000000000000000000000000815250600a019150506040516020818303038152906040526040518082805190602001908083835b6020831015156119f657805182526020820191506020810190506020830392506119d1565b6001836020036101000a03801982511681845116808217855250505050505090500191505060405180910390206040518263ffffffff167c0100000000000000000000000000000000000000000000000000000000028152600401808260001916600019168152602001915050602060405180830381600087803b158015611a7d57600080fd5b505af1158015611a91573d6000803e3d6000fd5b505050506040513d6020811015611aa757600080fd5b810190808051906020019092919050505073ffffffffffffffffffffffffffffffffffffffff16141515611ada57600080fd5b60018060009054906101000a900473ffffffffffffffffffffffffffffffffffffffff1673ffffffffffffffffffffffffffffffffffffffff1663bd02d0f5611b58876040805190810160405280600681526020017f53544154555300000000000000000000000000000000000000000000000000008152506142ee565b6040518263ffffffff167c0100000000000000000000000000000000000000000000000000000000028152600401808260001916600019168152602001915050602060405180830381600087803b158015611bb257600080fd5b505af1158015611bc6573d6000803e3d6000fd5b505050506040513d6020811015611bdc57600080fd5b8101908080519060200190929190505050141515611bf957600080fd5b600160009054906101000a900473ffffffffffffffffffffffffffffffffffffffff1673ffffffffffffffffffffffffffffffffffffffff1663e2a4853a611c76866040805190810160405280600681526020017f53544154555300000000000000000000000000000000000000000000000000008152506142ee565b60026040518363ffffffff167c010000000000000000000000000000000000000000000000000000000002815260040180836000191660001916815260200182815260200192505050600060405180830381600087803b158015611cd957600080fd5b505af1158015611ced573d6000803e3d6000fd5b50505050600160009054906101000a900473ffffffffffffffffffffffffffffffffffffffff1673ffffffffffffffffffffffffffffffffffffffff1663e2a4853a611d6e866040805190810160405280601681526020017f4a4f425f46494e49534845445f54494d455354414d50000000000000000000008152506142ee565b426040518363ffffffff167c010000000000000000000000000000000000000000000000000000000002815260040180836000191660001916815260200182815260200192505050600060405180830381600087803b158015611dd057600080fd5b505af1158015611de4573d6000803e3d6000fd5b505050507ff02ab783dc2d3d78f3500a63d181ff3c6b91e4ebefd7b2fab039ba6c91e2ab5f846040518080602001828103825283818151815260200191508051906020019080838360005b83811015611e4a578082015181840152602081019050611e2f565b50505050905090810190601f168015611e775780820380516001836020036101000a031916815260200191505b509250505060405180910390a150505050565b6000856000600160009054906101000a900473ffffffffffffffffffffffffffffffffffffffff1673ffffffffffffffffffffffffffffffffffffffff166321f8a721836040518082805190602001908083835b602083101515611f035780518252602082019150602081019050602083039250611ede565b6001836020036101000a03801982511681845116808217855250505050505090500191505060405180910390206040518263ffffffff167c0100000000000000000000000000000000000000000000000000000000028152600401808260001916600019168152602001915050602060405180830381600087803b158015611f8a57600080fd5b505af1158015611f9e573d6000803e3d6000fd5b505050506040513d6020811015611fb457600080fd5b810190808051906020019092919050505073ffffffffffffffffffffffffffffffffffffffff16141515611fe757600080fd5b60008751111515611ff757600080fd5b428611151561200557600080fd5b60008411151561201457600080fd5b60008511151561202357600080fd5b600160009054906101000a900473ffffffffffffffffffffffffffffffffffffffff1673ffffffffffffffffffffffffffffffffffffffff1663ca446dd9886040518082805190602001908083835b6020831015156120975780518252602082019150602081019050602083039250612072565b6001836020036101000a0380198251168184511680821785525050505050509050019150506040518091039020336040518363ffffffff167c01000000000000000000000000000000000000000000000000000000000281526004018083600019166000191681526020018273ffffffffffffffffffffffffffffffffffffffff1673ffffffffffffffffffffffffffffffffffffffff16815260200192505050600060405180830381600087803b15801561215257600080fd5b505af1158015612166573d6000803e3d6000fd5b50505050600160009054906101000a900473ffffffffffffffffffffffffffffffffffffffff1673ffffffffffffffffffffffffffffffffffffffff1663e2a4853a6121e7896040805190810160405280600781526020017f45585049524544000000000000000000000000000000000000000000000000008152506142ee565b886040518363ffffffff167c010000000000000000000000000000000000000000000000000000000002815260040180836000191660001916815260200182815260200192505050600060405180830381600087803b15801561224957600080fd5b505af115801561225d573d6000803e3d6000fd5b50505050600160009054906101000a900473ffffffffffffffffffffffffffffffffffffffff1673ffffffffffffffffffffffffffffffffffffffff1663bd02d0f56122dd6040805190810160405280600681526020017f4a4f425f4944000000000000000000000000000000000000000000000000000081525061441c565b6040518263ffffffff167c0100000000000000000000000000000000000000000000000000000000028152600401808260001916600019168152602001915050602060405180830381600087803b15801561233757600080fd5b505af115801561234b573d6000803e3d6000fd5b505050506040513d602081101561236157600080fd5b810190808051906020019092919050505091508180600101925050600160009054906101000a900473ffffffffffffffffffffffffffffffffffffffff1673ffffffffffffffffffffffffffffffffffffffff1663e2a4853a6123f86040805190810160405280600681526020017f4a4f425f4944000000000000000000000000000000000000000000000000000081525061441c565b846040518363ffffffff167c010000000000000000000000000000000000000000000000000000000002815260040180836000191660001916815260200182815260200192505050600060405180830381600087803b15801561245a57600080fd5b505af115801561246e573d6000803e3d6000fd5b50505050600160009054906101000a900473ffffffffffffffffffffffffffffffffffffffff1673ffffffffffffffffffffffffffffffffffffffff16632e28d0846124b9846144f4565b896040518363ffffffff167c010000000000000000000000000000000000000000000000000000000002815260040180836000191660001916815260200180602001828103825283818151815260200191508051906020019080838360005b83811015612533578082015181840152602081019050612518565b50505050905090810190601f1680156125605780820380516001836020036101000a031916815260200191505b509350505050600060405180830381600087803b15801561258057600080fd5b505af1158015612594573d6000803e3d6000fd5b50505050600160009054906101000a900473ffffffffffffffffffffffffffffffffffffffff1673ffffffffffffffffffffffffffffffffffffffff1663e2a4853a612615896040805190810160405280600d81526020017f455354494d4154455f54494d45000000000000000000000000000000000000008152506142ee565b876040518363ffffffff167c010000000000000000000000000000000000000000000000000000000002815260040180836000191660001916815260200182815260200192505050600060405180830381600087803b15801561267757600080fd5b505af115801561268b573d6000803e3d6000fd5b50505050600160009054906101000a900473ffffffffffffffffffffffffffffffffffffffff1673ffffffffffffffffffffffffffffffffffffffff1663e2a4853a61270c896040805190810160405280600681526020017f42554447455400000000000000000000000000000000000000000000000000008152506142ee565b866040518363ffffffff167c010000000000000000000000000000000000000000000000000000000002815260040180836000191660001916815260200182815260200192505050600060405180830381600087803b15801561276e57600080fd5b505af1158015612782573d6000803e3d6000fd5b5050505082600019163373ffffffffffffffffffffffffffffffffffffffff167f5ad21fac73b353434bdc18fb303e9da2d53a9950e78b8273bb55e21e6a3a84c289858a898b6040518080602001868152602001858152602001848152602001838152602001828103825287818151815260200191508051906020019080838360005b83811015612820578082015181840152602081019050612805565b50505050905090810190601f16801561284d5780820380516001836020036101000a031916815260200191505b50965050505050505060405180910390a350505050505050565b600080600080843373ffffffffffffffffffffffffffffffffffffffff16600160009054906101000a900473ffffffffffffffffffffffffffffffffffffffff1673ffffffffffffffffffffffffffffffffffffffff166321f8a721836040518082805190602001908083835b6020831015156128f957805182526020820191506020810190506020830392506128d4565b6001836020036101000a03801982511681845116808217855250505050505090500191505060405180910390206040518263ffffffff167c0100000000000000000000000000000000000000000000000000000000028152600401808260001916600019168152602001915050602060405180830381600087803b15801561298057600080fd5b505af1158015612994573d6000803e3d6000fd5b505050506040513d60208110156129aa57600080fd5b810190808051906020019092919050505073ffffffffffffffffffffffffffffffffffffffff161415156129dd57600080fd5b600160009054906101000a900473ffffffffffffffffffffffffffffffffffffffff1673ffffffffffffffffffffffffffffffffffffffff1663bd02d0f5612a5a886040805190810160405280600681526020017f53544154555300000000000000000000000000000000000000000000000000008152506142ee565b6040518263ffffffff167c0100000000000000000000000000000000000000000000000000000000028152600401808260001916600019168152602001915050602060405180830381600087803b158015612ab457600080fd5b505af1158015612ac8573d6000803e3d6000fd5b505050506040513d6020811015612ade57600080fd5b810190808051906020019092919050505094506000851480612b005750600185145b1515612b0b57600080fd5b6001851415612e6257600160009054906101000a900473ffffffffffffffffffffffffffffffffffffffff1673ffffffffffffffffffffffffffffffffffffffff166321f8a721612b91886040805190810160405280600a81526020017f465245454c414e434552000000000000000000000000000000000000000000008152506142ee565b6040518263ffffffff167c0100000000000000000000000000000000000000000000000000000000028152600401808260001916600019168152602001915050602060405180830381600087803b158015612beb57600080fd5b505af1158015612bff573d6000803e3d6000fd5b505050506040513d6020811015612c1557600080fd5b81019080805190602001909291905050509350600160009054906101000a900473ffffffffffffffffffffffffffffffffffffffff1673ffffffffffffffffffffffffffffffffffffffff1663bd02d0f5612ca6886040805190810160405280600881526020017f4249445f54494d450000000000000000000000000000000000000000000000008152508861457f565b6040518263ffffffff167c0100000000000000000000000000000000000000000000000000000000028152600401808260001916600019168152602001915050602060405180830381600087803b158015612d0057600080fd5b505af1158015612d14573d6000803e3d6000fd5b505050506040513d6020811015612d2a57600080fd5b81019080805190602001909291905050509250600160009054906101000a900473ffffffffffffffffffffffffffffffffffffffff1673ffffffffffffffffffffffffffffffffffffffff1663bd02d0f5612dba886040805190810160405280601581526020017f4a4f425f535441525445445f54494d455354414d5000000000000000000000008152506142ee565b6040518263ffffffff167c0100000000000000000000000000000000000000000000000000000000028152600401808260001916600019168152602001915050602060405180830381600087803b158015612e1457600080fd5b505af1158015612e28573d6000803e3d6000fd5b505050506040513d6020811015612e3e57600080fd5b8101908080519060200190929190505050915082820142111515612e6157600080fd5b5b600160009054906101000a900473ffffffffffffffffffffffffffffffffffffffff1673ffffffffffffffffffffffffffffffffffffffff1663abfdcced612edf886040805190810160405280600681526020017f43414e43454c00000000000000000000000000000000000000000000000000008152506142ee565b60016040518363ffffffff167c01000000000000000000000000000000000000000000000000000000000281526004018083600019166000191681526020018215151515815260200192505050600060405180830381600087803b158015612f4657600080fd5b505af1158015612f5a573d6000803e3d6000fd5b50505050600360009054906101000a900473ffffffffffffffffffffffffffffffffffffffff1673ffffffffffffffffffffffffffffffffffffffff1663ee48959c876040518263ffffffff167c01000000000000000000000000000000000000000000000000000000000281526004018080602001828103825283818151815260200191508051906020019080838360005b83811015613008578082015181840152602081019050612fed565b50505050905090810190601f1680156130355780820380516001836020036101000a031916815260200191505b5092505050602060405180830381600087803b15801561305457600080fd5b505af1158015613068573d6000803e3d6000fd5b505050506040513d602081101561307e57600080fd5b8101908080519060200190929190505050151561309a57600080fd5b7f55b219554b0a7efa84491e54564435d92f91ad5e77422968545faab3ac213ee1866040518080602001828103825283818151815260200191508051906020019080838360005b838110156130fc5780820151818401526020810190506130e1565b50505050905090810190601f1680156131295780820380516001836020036101000a031916815260200191505b509250505060405180910390a1505050505050565b8060011515600160009054906101000a900473ffffffffffffffffffffffffffffffffffffffff1673ffffffffffffffffffffffffffffffffffffffff16637ae1cfca836040516020018082805190602001908083835b6020831015156131ba5780518252602082019150602081019050602083039250613195565b6001836020036101000a038019825116818451168082178552505050505050905001807f43414e43454c00000000000000000000000000000000000000000000000000008152506006019150506040516020818303038152906040526040518082805190602001908083835b60208310151561324b5780518252602082019150602081019050602083039250613226565b6001836020036101000a03801982511681845116808217855250505050505090500191505060405180910390206040518263ffffffff167c0100000000000000000000000000000000000000000000000000000000028152600401808260001916600019168152602001915050602060405180830381600087803b1580156132d257600080fd5b505af11580156132e6573d6000803e3d6000fd5b505050506040513d60208110156132fc57600080fd5b810190808051906020019092919050505015151415151561331c57600080fd5b816000600160009054906101000a900473ffffffffffffffffffffffffffffffffffffffff1673ffffffffffffffffffffffffffffffffffffffff1663bd02d0f5836040516020018082805190602001908083835b6020831015156133965780518252602082019150602081019050602083039250613371565b6001836020036101000a038019825116818451168082178552505050505050905001807f53544154555300000000000000000000000000000000000000000000000000008152506006019150506040516020818303038152906040526040518082805190602001908083835b6020831015156134275780518252602082019150602081019050602083039250613402565b6001836020036101000a03801982511681845116808217855250505050505090500191505060405180910390206040518263ffffffff167c0100000000000000000000000000000000000000000000000000000000028152600401808260001916600019168152602001915050602060405180830381600087803b1580156134ae57600080fd5b505af11580156134c2573d6000803e3d6000fd5b505050506040513d60208110156134d857600080fd5b81019080805190602001909291905050501415156134f557600080fd5b823373ffffffffffffffffffffffffffffffffffffffff16600160009054906101000a900473ffffffffffffffffffffffffffffffffffffffff1673ffffffffffffffffffffffffffffffffffffffff166321f8a721836040516020018082805190602001908083835b602083101515613584578051825260208201915060208101905060208303925061355f565b6001836020036101000a038019825116818451168082178552505050505050905001807f465245454c414e43455200000000000000000000000000000000000000000000815250600a019150506040516020818303038152906040526040518082805190602001908083835b60208310151561361557805182526020820191506020810190506020830392506135f0565b6001836020036101000a03801982511681845116808217855250505050505090500191505060405180910390206040518263ffffffff167c0100000000000000000000000000000000000000000000000000000000028152600401808260001916600019168152602001915050602060405180830381600087803b15801561369c57600080fd5b505af11580156136b0573d6000803e3d6000fd5b505050506040513d60208110156136c657600080fd5b810190808051906020019092919050505073ffffffffffffffffffffffffffffffffffffffff161415156136f957600080fd5b600160009054906101000a900473ffffffffffffffffffffffffffffffffffffffff1673ffffffffffffffffffffffffffffffffffffffff1663e2a4853a613776866040805190810160405280600681526020017f53544154555300000000000000000000000000000000000000000000000000008152506142ee565b60016040518363ffffffff167c010000000000000000000000000000000000000000000000000000000002815260040180836000191660001916815260200182815260200192505050600060405180830381600087803b1580156137d957600080fd5b505af11580156137ed573d6000803e3d6000fd5b50505050600160009054906101000a900473ffffffffffffffffffffffffffffffffffffffff1673ffffffffffffffffffffffffffffffffffffffff1663e2a4853a61386e866040805190810160405280601581526020017f4a4f425f535441525445445f54494d455354414d5000000000000000000000008152506142ee565b426040518363ffffffff167c010000000000000000000000000000000000000000000000000000000002815260040180836000191660001916815260200182815260200192505050600060405180830381600087803b1580156138d057600080fd5b505af11580156138e4573d6000803e3d6000fd5b505050507fcf01933c2854194289dd40b6150e662733f04a620e9c18b9de60e5ff89f18642846040518080602001828103825283818151815260200191508051906020019080838360005b8381101561394a57808201518184015260208101905061392f565b50505050905090810190601f1680156139775780820380516001836020036101000a031916815260200191505b509250505060405180910390a150505050565b600080600160009054906101000a900473ffffffffffffffffffffffffffffffffffffffff1673ffffffffffffffffffffffffffffffffffffffff1663bd02d0f5846040516020018082805190602001908083835b602083101515613a0457805182526020820191506020810190506020830392506139df565b6001836020036101000a038019825116818451168082178552505050505050905001807f53544154555300000000000000000000000000000000000000000000000000008152506006019150506040516020818303038152906040526040518082805190602001908083835b602083101515613a955780518252602082019150602081019050602083039250613a70565b6001836020036101000a03801982511681845116808217855250505050505090500191505060405180910390206040518263ffffffff167c0100000000000000000000000000000000000000000000000000000000028152600401808260001916600019168152602001915050602060405180830381600087803b158015613b1c57600080fd5b505af1158015613b30573d6000803e3d6000fd5b505050506040513d6020811015613b4657600080fd5b810190808051906020019092919050505014159050919050565b600073ffffffffffffffffffffffffffffffffffffffff166000809054906101000a900473ffffffffffffffffffffffffffffffffffffffff1673ffffffffffffffffffffffffffffffffffffffff16141515613c13576000809054906101000a900473ffffffffffffffffffffffffffffffffffffffff1673ffffffffffffffffffffffffffffffffffffffff163373ffffffffffffffffffffffffffffffffffffffff16141515613c1257600080fd5b5b613c1c816146f1565b50565b600080600080600080600080600080600080600160009054906101000a900473ffffffffffffffffffffffffffffffffffffffff1673ffffffffffffffffffffffffffffffffffffffff166321f8a7218e6040518082805190602001908083835b602083101515613ca55780518252602082019150602081019050602083039250613c80565b6001836020036101000a03801982511681845116808217855250505050505090500191505060405180910390206040518263ffffffff167c0100000000000000000000000000000000000000000000000000000000028152600401808260001916600019168152602001915050602060405180830381600087803b158015613d2c57600080fd5b505af1158015613d40573d6000803e3d6000fd5b505050506040513d6020811015613d5657600080fd5b81019080805190602001909291905050509550600160009054906101000a900473ffffffffffffffffffffffffffffffffffffffff1673ffffffffffffffffffffffffffffffffffffffff1663bd02d0f5613de68f6040805190810160405280600781526020017f45585049524544000000000000000000000000000000000000000000000000008152506142ee565b6040518263ffffffff167c0100000000000000000000000000000000000000000000000000000000028152600401808260001916600019168152602001915050602060405180830381600087803b158015613e4057600080fd5b505af1158015613e54573d6000803e3d6000fd5b505050506040513d6020811015613e6a57600080fd5b81019080805190602001909291905050509450600160009054906101000a900473ffffffffffffffffffffffffffffffffffffffff1673ffffffffffffffffffffffffffffffffffffffff1663bd02d0f5613efa8f6040805190810160405280600681526020017f42554447455400000000000000000000000000000000000000000000000000008152506142ee565b6040518263ffffffff167c0100000000000000000000000000000000000000000000000000000000028152600401808260001916600019168152602001915050602060405180830381600087803b158015613f5457600080fd5b505af1158015613f68573d6000803e3d6000fd5b505050506040513d6020811015613f7e57600080fd5b81019080805190602001909291905050509350600160009054906101000a900473ffffffffffffffffffffffffffffffffffffffff1673ffffffffffffffffffffffffffffffffffffffff16637ae1cfca61400e8f6040805190810160405280600681526020017f43414e43454c00000000000000000000000000000000000000000000000000008152506142ee565b6040518263ffffffff167c0100000000000000000000000000000000000000000000000000000000028152600401808260001916600019168152602001915050602060405180830381600087803b15801561406857600080fd5b505af115801561407c573d6000803e3d6000fd5b505050506040513d602081101561409257600080fd5b81019080805190602001909291905050509250600160009054906101000a900473ffffffffffffffffffffffffffffffffffffffff1673ffffffffffffffffffffffffffffffffffffffff1663bd02d0f56141228f6040805190810160405280600681526020017f53544154555300000000000000000000000000000000000000000000000000008152506142ee565b6040518263ffffffff167c0100000000000000000000000000000000000000000000000000000000028152600401808260001916600019168152602001915050602060405180830381600087803b15801561417c57600080fd5b505af1158015614190573d6000803e3d6000fd5b505050506040513d60208110156141a657600080fd5b81019080805190602001909291905050509150600160009054906101000a900473ffffffffffffffffffffffffffffffffffffffff1673ffffffffffffffffffffffffffffffffffffffff166321f8a7216142368f6040805190810160405280600a81526020017f465245454c414e434552000000000000000000000000000000000000000000008152506142ee565b6040518263ffffffff167c0100000000000000000000000000000000000000000000000000000000028152600401808260001916600019168152602001915050602060405180830381600087803b15801561429057600080fd5b505af11580156142a4573d6000803e3d6000fd5b505050506040513d60208110156142ba57600080fd5b810190808051906020019092919050505090508585858585859b509b509b509b509b509b5050505050505091939550919395565b600082826040516020018083805190602001908083835b60208310151561432a5780518252602082019150602081019050602083039250614305565b6001836020036101000a03801982511681845116808217855250505050505090500182805190602001908083835b60208310151561437d5780518252602082019150602081019050602083039250614358565b6001836020036101000a038019825116818451168082178552505050505050905001925050506040516020818303038152906040526040518082805190602001908083835b6020831015156143e757805182526020820191506020810190506020830392506143c2565b6001836020036101000a0380198251168184511680821785525050505050509050019150506040518091039020905092915050565b6000816040516020018082805190602001908083835b6020831015156144575780518252602082019150602081019050602083039250614432565b6001836020036101000a0380198251168184511680821785525050505050509050019150506040516020818303038152906040526040518082805190602001908083835b6020831015156144c0578051825260208201915060208101905060208303925061449b565b6001836020036101000a03801982511681845116808217855250505050505090500191505060405180910390209050919050565b600081604051602001808281526020019150506040516020818303038152906040526040518082805190602001908083835b60208310151561454b5780518252602082019150602081019050602083039250614526565b6001836020036101000a03801982511681845116808217855250505050505090500191505060405180910390209050919050565b60008383836040516020018084805190602001908083835b6020831015156145bc5780518252602082019150602081019050602083039250614597565b6001836020036101000a03801982511681845116808217855250505050505090500183805190602001908083835b60208310151561460f57805182526020820191506020810190506020830392506145ea565b6001836020036101000a0380198251168184511680821785525050505050509050018273ffffffffffffffffffffffffffffffffffffffff1673ffffffffffffffffffffffffffffffffffffffff166c0100000000000000000000000002815260140193505050506040516020818303038152906040526040518082805190602001908083835b6020831015156146bb5780518252602082019150602081019050602083039250614696565b6001836020036101000a038019825116818451168082178552505050505050905001915050604051809103902090509392505050565b600073ffffffffffffffffffffffffffffffffffffffff168173ffffffffffffffffffffffffffffffffffffffff161415151561472d57600080fd5b8073ffffffffffffffffffffffffffffffffffffffff166000809054906101000a900473ffffffffffffffffffffffffffffffffffffffff1673ffffffffffffffffffffffffffffffffffffffff167f8be0079c531659141344cd1fd0a4f28419497f9722a3daafe3b4186f6b6457e060405160405180910390a3806000806101000a81548173ffffffffffffffffffffffffffffffffffffffff021916908373ffffffffffffffffffffffffffffffffffffffff160217905550505600a165627a7a723058208231b27fcad98284b04b8e3d6f95a1b4507eb174f04e9c7096b129b4364f5dc80029",
  "source": "/**\n * Created on 2018-08-13 10:31\n * @summary: \n * @author: Chris Nguyen\n */\npragma solidity ^0.4.24;\nimport './BBFreelancer.sol';\nimport './BBFreelancerPayment.sol';\nimport './BBLib.sol';\n\n/**\n * @title BBFreelancerJob\n */\ncontract BBFreelancerJob is BBFreelancer {\n   BBFreelancerPayment public payment = BBFreelancerPayment(0x0);\n\n  /**\n   * @dev \n   * @param paymentAddress address of the Payment Contract\n   */\n  function setPaymentContract(address paymentAddress) onlyOwner public {\n    payment = BBFreelancerPayment(paymentAddress);\n  }\n\n  event JobCreated(bytes jobHash, uint256 jobID, address indexed owner, uint expired, bytes32 indexed category, uint256  budget, uint256 estimateTime);\n  event JobCanceled(bytes jobHash);\n  event JobStarted(bytes jobHash);\n  event JobFinished(bytes jobHash);\n\n  /**\n   * @dev \n   * @param jobHash Job Hash\n   */\n  function getJob(bytes jobHash) public view returns(address, uint256, uint256, bool, uint256, address){\n    address owner = bbs.getAddress(keccak256(jobHash));\n    uint256 expired = bbs.getUint(BBLib.toB32(jobHash, 'EXPIRED'));\n    uint256 budget = bbs.getUint(BBLib.toB32(jobHash, 'BUDGET'));\n    bool cancel = bbs.getBool(BBLib.toB32(jobHash, 'CANCEL'));\n    uint256 status = bbs.getUint(BBLib.toB32(jobHash, 'STATUS'));\n    address freelancer = bbs.getAddress(BBLib.toB32(jobHash, 'FREELANCER'));\n    return (owner, expired, budget, cancel, status, freelancer);\n\n  }\n\n\n  /**\n   * @dev \n   * @param jobHash Job Hash\n   * @param expired Time\n   * @param estimateTime Time do the job\n   * @param budget Buget\n   * @param category Tag category\n   */\n  function createJob(bytes jobHash, uint expired ,uint estimateTime, uint256 budget, bytes32 category) public \n  jobNotExist(jobHash)\n  {\n    // check jobHash not null\n    require(jobHash.length > 0);\n    // expired > now\n    require(expired > now);\n    // budget\n    require(budget > 0);\n\n    require(estimateTime > 0);\n\n    // save jobHash owner\n    bbs.setAddress(keccak256(jobHash), msg.sender);\n    // save expired timestamp\n    bbs.setUint(BBLib.toB32(jobHash, 'EXPIRED'), expired);\n    //Save jobHash by jobID\n    uint256 jobID = bbs.getUint(BBLib.toB32('JOB_ID'));\n    jobID++;\n    bbs.setUint(BBLib.toB32('JOB_ID'),jobID);\n\n    bbs.setBytes(BBLib.toB32(jobID), jobHash);\n    // save time freelancer can done this job\n    bbs.setUint(BBLib.toB32(jobHash, 'ESTIMATE_TIME'), estimateTime);\n    // save budget \n    bbs.setUint(BBLib.toB32(jobHash, 'BUDGET'), budget);\n \n    emit JobCreated(jobHash, jobID, msg.sender, expired, category, budget, estimateTime);\n  }\n    // hirer  cancel job\n  /**\n   * @dev \n   * @param jobHash Job Hash\n   */\n  function cancelJob(bytes jobHash) public \n  isOwnerJob(jobHash)  {\n\n    uint status = bbs.getUint(BBLib.toB32(jobHash,'STATUS'));\n    require(status == 0 || status == 1);\n    if(status == 1) {\n      address freelancer = bbs.getAddress(BBLib.toB32(jobHash, 'FREELANCER'));\n      uint bidTime = bbs.getUint(BBLib.toB32(jobHash, 'BID_TIME', freelancer));\n      uint timeStartJob = bbs.getUint(BBLib.toB32(jobHash, 'JOB_STARTED_TIMESTAMP'));\n      require(now > timeStartJob + bidTime);\n    }\n    bbs.setBool(BBLib.toB32(jobHash,'CANCEL'), true);\n    require(payment.refundBBO(jobHash));\n    emit JobCanceled(jobHash);\n  }\n  // freelancer start Job\n  /**\n   * @dev \n   * @param jobHash Job Hash\n   */\n  function startJob(bytes jobHash) public \n  isNotCanceled(jobHash)\n  jobNotStarted(jobHash)\n  isFreelancerOfJob(jobHash) {\n    // set status to 1\n    bbs.setUint(BBLib.toB32(jobHash,'STATUS'), 1);\n    //Begin set time start job\n    bbs.setUint(BBLib.toB32(jobHash,'JOB_STARTED_TIMESTAMP'), now);\n    emit JobStarted(jobHash);\n  }\n  // freelancer finish Job\n  /**\n   * @dev \n   * @param jobHash Job Hash\n   */\n  function finishJob(bytes jobHash) public \n  isNotOwnerJob(jobHash) \n  isFreelancerOfJob(jobHash) {\n    //status el 1\n    require(bbs.getUint(BBLib.toB32(jobHash,'STATUS')) ==1);\n\n    bbs.setUint(BBLib.toB32(jobHash,'STATUS'), 2);\n    bbs.setUint(BBLib.toB32(jobHash,'JOB_FINISHED_TIMESTAMP'), now);\n    emit JobFinished(jobHash);\n  }\n\n}\n",
  "sourcePath": "/Users/yena/Documents/tuongnguyen/bigbom-digital-contract/src/contracts/BBFreelancerJob.sol",
  "compiler": {
    "name": "solc",
    "version": "0.4.24+commit.e67f0147.Emscripten.clang"
  },
  "schemaVersion": "2.0.1",
  "updatedAt": "2018-10-03T01:58:41.410Z"
}