{
  "contractName": "BBFreelancerJob",
  "abi": [
    {
      "constant": true,
      "inputs": [],
      "name": "bbo",
      "outputs": [
        {
          "name": "",
          "type": "address"
        }
      ],
      "payable": false,
      "stateMutability": "view",
      "type": "function"
    },
    {
      "constant": false,
      "inputs": [],
      "name": "getStorage",
      "outputs": [
        {
          "name": "",
          "type": "address"
        }
      ],
      "payable": false,
      "stateMutability": "nonpayable",
      "type": "function"
    },
    {
      "constant": false,
      "inputs": [],
      "name": "renounceOwnership",
      "outputs": [],
      "payable": false,
      "stateMutability": "nonpayable",
      "type": "function"
    },
    {
      "constant": false,
      "inputs": [
        {
          "name": "BBOAddress",
          "type": "address"
        }
      ],
      "name": "setBBO",
      "outputs": [],
      "payable": false,
      "stateMutability": "nonpayable",
      "type": "function"
    },
    {
      "constant": true,
      "inputs": [],
      "name": "owner",
      "outputs": [
        {
          "name": "",
          "type": "address"
        }
      ],
      "payable": false,
      "stateMutability": "view",
      "type": "function"
    },
    {
      "constant": false,
      "inputs": [
        {
          "name": "storageAddress",
          "type": "address"
        }
      ],
      "name": "setStorage",
      "outputs": [],
      "payable": false,
      "stateMutability": "nonpayable",
      "type": "function"
    },
    {
      "constant": false,
      "inputs": [
        {
          "name": "_newOwner",
          "type": "address"
        }
      ],
      "name": "transferOwnership",
      "outputs": [],
      "payable": false,
      "stateMutability": "nonpayable",
      "type": "function"
    },
    {
      "anonymous": false,
      "inputs": [
        {
          "indexed": false,
          "name": "jobHash",
          "type": "bytes"
        },
        {
          "indexed": true,
          "name": "owner",
          "type": "address"
        },
        {
          "indexed": false,
          "name": "expired",
          "type": "uint256"
        },
        {
          "indexed": true,
          "name": "category",
          "type": "bytes32"
        },
        {
          "indexed": false,
          "name": "budget",
          "type": "uint256"
        }
      ],
      "name": "JobCreated",
      "type": "event"
    },
    {
      "anonymous": false,
      "inputs": [
        {
          "indexed": false,
          "name": "jobHash",
          "type": "bytes"
        }
      ],
      "name": "JobCanceled",
      "type": "event"
    },
    {
      "anonymous": false,
      "inputs": [
        {
          "indexed": false,
          "name": "jobHash",
          "type": "bytes"
        }
      ],
      "name": "JobStarted",
      "type": "event"
    },
    {
      "anonymous": false,
      "inputs": [
        {
          "indexed": false,
          "name": "jobHash",
          "type": "bytes"
        }
      ],
      "name": "JobFinished",
      "type": "event"
    },
    {
      "anonymous": false,
      "inputs": [
        {
          "indexed": true,
          "name": "previousOwner",
          "type": "address"
        }
      ],
      "name": "OwnershipRenounced",
      "type": "event"
    },
    {
      "anonymous": false,
      "inputs": [
        {
          "indexed": true,
          "name": "previousOwner",
          "type": "address"
        },
        {
          "indexed": true,
          "name": "newOwner",
          "type": "address"
        }
      ],
      "name": "OwnershipTransferred",
      "type": "event"
    },
    {
      "constant": true,
      "inputs": [
        {
          "name": "jobHash",
          "type": "bytes"
        }
      ],
      "name": "getJob",
      "outputs": [
        {
          "name": "",
          "type": "address"
        },
        {
          "name": "",
          "type": "uint256"
        },
        {
          "name": "",
          "type": "uint256"
        },
        {
          "name": "",
          "type": "bool"
        },
        {
          "name": "",
          "type": "uint256"
        },
        {
          "name": "",
          "type": "address"
        }
      ],
      "payable": false,
      "stateMutability": "view",
      "type": "function"
    },
    {
      "constant": false,
      "inputs": [
        {
          "name": "jobHash",
          "type": "bytes"
        },
        {
          "name": "expired",
          "type": "uint256"
        },
        {
          "name": "estimateTime",
          "type": "uint256"
        },
        {
          "name": "budget",
          "type": "uint256"
        },
        {
          "name": "category",
          "type": "bytes32"
        }
      ],
      "name": "createJob",
      "outputs": [],
      "payable": false,
      "stateMutability": "nonpayable",
      "type": "function"
    },
    {
      "constant": false,
      "inputs": [
        {
          "name": "jobHash",
          "type": "bytes"
        }
      ],
      "name": "cancelJob",
      "outputs": [],
      "payable": false,
      "stateMutability": "nonpayable",
      "type": "function"
    },
    {
      "constant": false,
      "inputs": [
        {
          "name": "jobHash",
          "type": "bytes"
        }
      ],
      "name": "startJob",
      "outputs": [],
      "payable": false,
      "stateMutability": "nonpayable",
      "type": "function"
    },
    {
      "constant": false,
      "inputs": [
        {
          "name": "jobHash",
          "type": "bytes"
        }
      ],
      "name": "finishJob",
      "outputs": [],
      "payable": false,
      "stateMutability": "nonpayable",
      "type": "function"
    }
  ],
  "bytecode": "0x60806040526000600160006101000a81548173ffffffffffffffffffffffffffffffffffffffff021916908373ffffffffffffffffffffffffffffffffffffffff1602179055506000600260006101000a81548173ffffffffffffffffffffffffffffffffffffffff021916908373ffffffffffffffffffffffffffffffffffffffff160217905550336000806101000a81548173ffffffffffffffffffffffffffffffffffffffff021916908373ffffffffffffffffffffffffffffffffffffffff160217905550613c30806100d76000396000f3006080604052600436106100ba576000357c0100000000000000000000000000000000000000000000000000000000900463ffffffff1680631e89bf06146100bf5780633408f73a14610116578063715018a61461016d5780637937f46d146101845780638da5cb5b146101c75780639137c1a71461021e578063b222e4a014610261578063c34dbd07146102ca578063d888803b1461035f578063ed059f40146103c8578063f2fde38b14610431578063fa5382a814610474575b600080fd5b3480156100cb57600080fd5b506100d4610570565b604051808273ffffffffffffffffffffffffffffffffffffffff1673ffffffffffffffffffffffffffffffffffffffff16815260200191505060405180910390f35b34801561012257600080fd5b5061012b610596565b604051808273ffffffffffffffffffffffffffffffffffffffff1673ffffffffffffffffffffffffffffffffffffffff16815260200191505060405180910390f35b34801561017957600080fd5b5061018261061b565b005b34801561019057600080fd5b506101c5600480360381019080803573ffffffffffffffffffffffffffffffffffffffff16906020019092919050505061071d565b005b3480156101d357600080fd5b506101dc6107bc565b604051808273ffffffffffffffffffffffffffffffffffffffff1673ffffffffffffffffffffffffffffffffffffffff16815260200191505060405180910390f35b34801561022a57600080fd5b5061025f600480360381019080803573ffffffffffffffffffffffffffffffffffffffff1690602001909291905050506107e1565b005b34801561026d57600080fd5b506102c8600480360381019080803590602001908201803590602001908080601f0160208091040260200160405190810160405280939291908181526020018383808284378201915050505050509192919290505050610880565b005b3480156102d657600080fd5b5061035d600480360381019080803590602001908201803590602001908080601f016020809104026020016040519081016040528093929190818152602001838380828437820191505050505050919291929080359060200190929190803590602001909291908035906020019092919080356000191690602001909291905050506111f8565b005b34801561036b57600080fd5b506103c6600480360381019080803590602001908201803590602001908080601f0160208091040260200160405190810160405280939291908181526020018383808284378201915050505050509192919290505050611ab3565b005b3480156103d457600080fd5b5061042f600480360381019080803590602001908201803590602001908080601f0160208091040260200160405190810160405280939291908181526020018383808284378201915050505050509192919290505050612628565b005b34801561043d57600080fd5b50610472600480360381019080803573ffffffffffffffffffffffffffffffffffffffff169060200190929190505050612fe4565b005b34801561048057600080fd5b506104db600480360381019080803590602001908201803590602001908080601f01602080910402602001604051908101604052809392919081815260200183838082843782019150505050505091929192905050506130a3565b604051808773ffffffffffffffffffffffffffffffffffffffff1673ffffffffffffffffffffffffffffffffffffffff168152602001868152602001858152602001841515151581526020018381526020018273ffffffffffffffffffffffffffffffffffffffff1673ffffffffffffffffffffffffffffffffffffffff168152602001965050505050505060405180910390f35b600260009054906101000a900473ffffffffffffffffffffffffffffffffffffffff1681565b60008060009054906101000a900473ffffffffffffffffffffffffffffffffffffffff1673ffffffffffffffffffffffffffffffffffffffff163373ffffffffffffffffffffffffffffffffffffffff161415156105f357600080fd5b600160009054906101000a900473ffffffffffffffffffffffffffffffffffffffff16905090565b6000809054906101000a900473ffffffffffffffffffffffffffffffffffffffff1673ffffffffffffffffffffffffffffffffffffffff163373ffffffffffffffffffffffffffffffffffffffff1614151561067657600080fd5b6000809054906101000a900473ffffffffffffffffffffffffffffffffffffffff1673ffffffffffffffffffffffffffffffffffffffff167ff8df31144d9c2f0f6b59d69b8b98abd5459d07f2742c4df920b25aae33c6482060405160405180910390a260008060006101000a81548173ffffffffffffffffffffffffffffffffffffffff021916908373ffffffffffffffffffffffffffffffffffffffff160217905550565b6000809054906101000a900473ffffffffffffffffffffffffffffffffffffffff1673ffffffffffffffffffffffffffffffffffffffff163373ffffffffffffffffffffffffffffffffffffffff1614151561077857600080fd5b80600260006101000a81548173ffffffffffffffffffffffffffffffffffffffff021916908373ffffffffffffffffffffffffffffffffffffffff16021790555050565b6000809054906101000a900473ffffffffffffffffffffffffffffffffffffffff1681565b6000809054906101000a900473ffffffffffffffffffffffffffffffffffffffff1673ffffffffffffffffffffffffffffffffffffffff163373ffffffffffffffffffffffffffffffffffffffff1614151561083c57600080fd5b80600160006101000a81548173ffffffffffffffffffffffffffffffffffffffff021916908373ffffffffffffffffffffffffffffffffffffffff16021790555050565b806000600160009054906101000a900473ffffffffffffffffffffffffffffffffffffffff1673ffffffffffffffffffffffffffffffffffffffff166321f8a721836040518082805190602001908083835b6020831015156108f757805182526020820191506020810190506020830392506108d2565b6001836020036101000a03801982511681845116808217855250505050505090500191505060405180910390206040518263ffffffff167c0100000000000000000000000000000000000000000000000000000000028152600401808260001916600019168152602001915050602060405180830381600087803b15801561097e57600080fd5b505af1158015610992573d6000803e3d6000fd5b505050506040513d60208110156109a857600080fd5b8101908080519060200190929190505050905060008173ffffffffffffffffffffffffffffffffffffffff16141515156109e157600080fd5b8073ffffffffffffffffffffffffffffffffffffffff163373ffffffffffffffffffffffffffffffffffffffff1614151515610a1c57600080fd5b823373ffffffffffffffffffffffffffffffffffffffff16600160009054906101000a900473ffffffffffffffffffffffffffffffffffffffff1673ffffffffffffffffffffffffffffffffffffffff166321f8a721836040516020018082805190602001908083835b602083101515610aab5780518252602082019150602081019050602083039250610a86565b6001836020036101000a038019825116818451168082178552505050505050905001807f667265656c616e63657200000000000000000000000000000000000000000000815250600a019150506040516020818303038152906040526040518082805190602001908083835b602083101515610b3c5780518252602082019150602081019050602083039250610b17565b6001836020036101000a03801982511681845116808217855250505050505090500191505060405180910390206040518263ffffffff167c0100000000000000000000000000000000000000000000000000000000028152600401808260001916600019168152602001915050602060405180830381600087803b158015610bc357600080fd5b505af1158015610bd7573d6000803e3d6000fd5b505050506040513d6020811015610bed57600080fd5b810190808051906020019092919050505073ffffffffffffffffffffffffffffffffffffffff16141515610c2057600080fd5b60018060009054906101000a900473ffffffffffffffffffffffffffffffffffffffff1673ffffffffffffffffffffffffffffffffffffffff1663bd02d0f5866040516020018082805190602001908083835b602083101515610c985780518252602082019150602081019050602083039250610c73565b6001836020036101000a038019825116818451168082178552505050505050905001807f73746174757300000000000000000000000000000000000000000000000000008152506006019150506040516020818303038152906040526040518082805190602001908083835b602083101515610d295780518252602082019150602081019050602083039250610d04565b6001836020036101000a03801982511681845116808217855250505050505090500191505060405180910390206040518263ffffffff167c0100000000000000000000000000000000000000000000000000000000028152600401808260001916600019168152602001915050602060405180830381600087803b158015610db057600080fd5b505af1158015610dc4573d6000803e3d6000fd5b505050506040513d6020811015610dda57600080fd5b8101908080519060200190929190505050141515610df757600080fd5b600160009054906101000a900473ffffffffffffffffffffffffffffffffffffffff1673ffffffffffffffffffffffffffffffffffffffff1663e2a4853a856040516020018082805190602001908083835b602083101515610e6e5780518252602082019150602081019050602083039250610e49565b6001836020036101000a038019825116818451168082178552505050505050905001807f73746174757300000000000000000000000000000000000000000000000000008152506006019150506040516020818303038152906040526040518082805190602001908083835b602083101515610eff5780518252602082019150602081019050602083039250610eda565b6001836020036101000a038019825116818451168082178552505050505050905001915050604051809103902060026040518363ffffffff167c010000000000000000000000000000000000000000000000000000000002815260040180836000191660001916815260200182815260200192505050600060405180830381600087803b158015610f8f57600080fd5b505af1158015610fa3573d6000803e3d6000fd5b50505050600160009054906101000a900473ffffffffffffffffffffffffffffffffffffffff1673ffffffffffffffffffffffffffffffffffffffff1663e2a4853a856040516020018082805190602001908083835b60208310151561101e5780518252602082019150602081019050602083039250610ff9565b6001836020036101000a038019825116818451168082178552505050505050905001807f66696e697368656454696d657374616d700000000000000000000000000000008152506011019150506040516020818303038152906040526040518082805190602001908083835b6020831015156110af578051825260208201915060208101905060208303925061108a565b6001836020036101000a0380198251168184511680821785525050505050509050019150506040518091039020426040518363ffffffff167c010000000000000000000000000000000000000000000000000000000002815260040180836000191660001916815260200182815260200192505050600060405180830381600087803b15801561113e57600080fd5b505af1158015611152573d6000803e3d6000fd5b505050507ff02ab783dc2d3d78f3500a63d181ff3c6b91e4ebefd7b2fab039ba6c91e2ab5f846040518080602001828103825283818151815260200191508051906020019080838360005b838110156111b857808201518184015260208101905061119d565b50505050905090810190601f1680156111e55780820380516001836020036101000a031916815260200191505b509250505060405180910390a150505050565b846000600160009054906101000a900473ffffffffffffffffffffffffffffffffffffffff1673ffffffffffffffffffffffffffffffffffffffff166321f8a721836040518082805190602001908083835b60208310151561126f578051825260208201915060208101905060208303925061124a565b6001836020036101000a03801982511681845116808217855250505050505090500191505060405180910390206040518263ffffffff167c0100000000000000000000000000000000000000000000000000000000028152600401808260001916600019168152602001915050602060405180830381600087803b1580156112f657600080fd5b505af115801561130a573d6000803e3d6000fd5b505050506040513d602081101561132057600080fd5b810190808051906020019092919050505073ffffffffffffffffffffffffffffffffffffffff1614151561135357600080fd5b6000865111151561136357600080fd5b428511151561137157600080fd5b60008311151561138057600080fd5b60008411151561138f57600080fd5b600160009054906101000a900473ffffffffffffffffffffffffffffffffffffffff1673ffffffffffffffffffffffffffffffffffffffff1663ca446dd9876040518082805190602001908083835b60208310151561140357805182526020820191506020810190506020830392506113de565b6001836020036101000a0380198251168184511680821785525050505050509050019150506040518091039020336040518363ffffffff167c01000000000000000000000000000000000000000000000000000000000281526004018083600019166000191681526020018273ffffffffffffffffffffffffffffffffffffffff1673ffffffffffffffffffffffffffffffffffffffff16815260200192505050600060405180830381600087803b1580156114be57600080fd5b505af11580156114d2573d6000803e3d6000fd5b50505050600160009054906101000a900473ffffffffffffffffffffffffffffffffffffffff1673ffffffffffffffffffffffffffffffffffffffff1663e2a4853a876040516020018082805190602001908083835b60208310151561154d5780518252602082019150602081019050602083039250611528565b6001836020036101000a038019825116818451168082178552505050505050905001807f65787069726564000000000000000000000000000000000000000000000000008152506007019150506040516020818303038152906040526040518082805190602001908083835b6020831015156115de57805182526020820191506020810190506020830392506115b9565b6001836020036101000a0380198251168184511680821785525050505050509050019150506040518091039020876040518363ffffffff167c010000000000000000000000000000000000000000000000000000000002815260040180836000191660001916815260200182815260200192505050600060405180830381600087803b15801561166d57600080fd5b505af1158015611681573d6000803e3d6000fd5b50505050600160009054906101000a900473ffffffffffffffffffffffffffffffffffffffff1673ffffffffffffffffffffffffffffffffffffffff1663e2a4853a876040516020018082805190602001908083835b6020831015156116fc57805182526020820191506020810190506020830392506116d7565b6001836020036101000a038019825116818451168082178552505050505050905001807f657374696d61746554696d650000000000000000000000000000000000000000815250600c019150506040516020818303038152906040526040518082805190602001908083835b60208310151561178d5780518252602082019150602081019050602083039250611768565b6001836020036101000a0380198251168184511680821785525050505050509050019150506040518091039020866040518363ffffffff167c010000000000000000000000000000000000000000000000000000000002815260040180836000191660001916815260200182815260200192505050600060405180830381600087803b15801561181c57600080fd5b505af1158015611830573d6000803e3d6000fd5b50505050600160009054906101000a900473ffffffffffffffffffffffffffffffffffffffff1673ffffffffffffffffffffffffffffffffffffffff1663e2a4853a876040516020018082805190602001908083835b6020831015156118ab5780518252602082019150602081019050602083039250611886565b6001836020036101000a038019825116818451168082178552505050505050905001807f62756467657400000000000000000000000000000000000000000000000000008152506006019150506040516020818303038152906040526040518082805190602001908083835b60208310151561193c5780518252602082019150602081019050602083039250611917565b6001836020036101000a0380198251168184511680821785525050505050509050019150506040518091039020856040518363ffffffff167c010000000000000000000000000000000000000000000000000000000002815260040180836000191660001916815260200182815260200192505050600060405180830381600087803b1580156119cb57600080fd5b505af11580156119df573d6000803e3d6000fd5b5050505081600019163373ffffffffffffffffffffffffffffffffffffffff167ffd1eeb88ed8352767fb8a2df0f96f7cef30588a6242fa787292dbb88ecc82d478888876040518080602001848152602001838152602001828103825285818151815260200191508051906020019080838360005b83811015611a6f578082015181840152602081019050611a54565b50505050905090810190601f168015611a9c5780820380516001836020036101000a031916815260200191505b5094505050505060405180910390a3505050505050565b600080600080843373ffffffffffffffffffffffffffffffffffffffff16600160009054906101000a900473ffffffffffffffffffffffffffffffffffffffff1673ffffffffffffffffffffffffffffffffffffffff166321f8a721836040518082805190602001908083835b602083101515611b455780518252602082019150602081019050602083039250611b20565b6001836020036101000a03801982511681845116808217855250505050505090500191505060405180910390206040518263ffffffff167c0100000000000000000000000000000000000000000000000000000000028152600401808260001916600019168152602001915050602060405180830381600087803b158015611bcc57600080fd5b505af1158015611be0573d6000803e3d6000fd5b505050506040513d6020811015611bf657600080fd5b810190808051906020019092919050505073ffffffffffffffffffffffffffffffffffffffff16141515611c2957600080fd5b600160009054906101000a900473ffffffffffffffffffffffffffffffffffffffff1673ffffffffffffffffffffffffffffffffffffffff1663bd02d0f5876040516020018082805190602001908083835b602083101515611ca05780518252602082019150602081019050602083039250611c7b565b6001836020036101000a038019825116818451168082178552505050505050905001807f73746174757300000000000000000000000000000000000000000000000000008152506006019150506040516020818303038152906040526040518082805190602001908083835b602083101515611d315780518252602082019150602081019050602083039250611d0c565b6001836020036101000a03801982511681845116808217855250505050505090500191505060405180910390206040518263ffffffff167c0100000000000000000000000000000000000000000000000000000000028152600401808260001916600019168152602001915050602060405180830381600087803b158015611db857600080fd5b505af1158015611dcc573d6000803e3d6000fd5b505050506040513d6020811015611de257600080fd5b810190808051906020019092919050505094506000851480611e045750600185145b1515611e0f57600080fd5b60018514156123d057600160009054906101000a900473ffffffffffffffffffffffffffffffffffffffff1673ffffffffffffffffffffffffffffffffffffffff166321f8a721876040516020018082805190602001908083835b602083101515611e8f5780518252602082019150602081019050602083039250611e6a565b6001836020036101000a038019825116818451168082178552505050505050905001807f667265656c616e63657200000000000000000000000000000000000000000000815250600a019150506040516020818303038152906040526040518082805190602001908083835b602083101515611f205780518252602082019150602081019050602083039250611efb565b6001836020036101000a03801982511681845116808217855250505050505090500191505060405180910390206040518263ffffffff167c0100000000000000000000000000000000000000000000000000000000028152600401808260001916600019168152602001915050602060405180830381600087803b158015611fa757600080fd5b505af1158015611fbb573d6000803e3d6000fd5b505050506040513d6020811015611fd157600080fd5b81019080805190602001909291905050509350600160009054906101000a900473ffffffffffffffffffffffffffffffffffffffff1673ffffffffffffffffffffffffffffffffffffffff1663bd02d0f587866040516020018083805190602001908083835b60208310151561205c5780518252602082019150602081019050602083039250612037565b6001836020036101000a038019825116818451168082178552505050505050905001807f74696d65446f6e650000000000000000000000000000000000000000000000008152506008018273ffffffffffffffffffffffffffffffffffffffff1673ffffffffffffffffffffffffffffffffffffffff166c01000000000000000000000000028152601401925050506040516020818303038152906040526040518082805190602001908083835b60208310151561212f578051825260208201915060208101905060208303925061210a565b6001836020036101000a03801982511681845116808217855250505050505090500191505060405180910390206040518263ffffffff167c0100000000000000000000000000000000000000000000000000000000028152600401808260001916600019168152602001915050602060405180830381600087803b1580156121b657600080fd5b505af11580156121ca573d6000803e3d6000fd5b505050506040513d60208110156121e057600080fd5b81019080805190602001909291905050509250600160009054906101000a900473ffffffffffffffffffffffffffffffffffffffff1673ffffffffffffffffffffffffffffffffffffffff1663bd02d0f5876040516020018082805190602001908083835b60208310151561226a5780518252602082019150602081019050602083039250612245565b6001836020036101000a038019825116818451168082178552505050505050905001807f74696d654a6f6253746172740000000000000000000000000000000000000000815250600c019150506040516020818303038152906040526040518082805190602001908083835b6020831015156122fb57805182526020820191506020810190506020830392506122d6565b6001836020036101000a03801982511681845116808217855250505050505090500191505060405180910390206040518263ffffffff167c0100000000000000000000000000000000000000000000000000000000028152600401808260001916600019168152602001915050602060405180830381600087803b15801561238257600080fd5b505af1158015612396573d6000803e3d6000fd5b505050506040513d60208110156123ac57600080fd5b81019080805190602001909291905050509150828201421115156123cf57600080fd5b5b600160009054906101000a900473ffffffffffffffffffffffffffffffffffffffff1673ffffffffffffffffffffffffffffffffffffffff1663abfdcced876040516020018082805190602001908083835b6020831015156124475780518252602082019150602081019050602083039250612422565b6001836020036101000a038019825116818451168082178552505050505050905001807f63616e63656c00000000000000000000000000000000000000000000000000008152506006019150506040516020818303038152906040526040518082805190602001908083835b6020831015156124d857805182526020820191506020810190506020830392506124b3565b6001836020036101000a038019825116818451168082178552505050505050905001915050604051809103902060016040518363ffffffff167c01000000000000000000000000000000000000000000000000000000000281526004018083600019166000191681526020018215151515815260200192505050600060405180830381600087803b15801561256c57600080fd5b505af1158015612580573d6000803e3d6000fd5b505050507f55b219554b0a7efa84491e54564435d92f91ad5e77422968545faab3ac213ee1866040518080602001828103825283818151815260200191508051906020019080838360005b838110156125e65780820151818401526020810190506125cb565b50505050905090810190601f1680156126135780820380516001836020036101000a031916815260200191505b509250505060405180910390a1505050505050565b8060011515600160009054906101000a900473ffffffffffffffffffffffffffffffffffffffff1673ffffffffffffffffffffffffffffffffffffffff16637ae1cfca836040516020018082805190602001908083835b6020831015156126a4578051825260208201915060208101905060208303925061267f565b6001836020036101000a038019825116818451168082178552505050505050905001807f63616e63656c00000000000000000000000000000000000000000000000000008152506006019150506040516020818303038152906040526040518082805190602001908083835b6020831015156127355780518252602082019150602081019050602083039250612710565b6001836020036101000a03801982511681845116808217855250505050505090500191505060405180910390206040518263ffffffff167c0100000000000000000000000000000000000000000000000000000000028152600401808260001916600019168152602001915050602060405180830381600087803b1580156127bc57600080fd5b505af11580156127d0573d6000803e3d6000fd5b505050506040513d60208110156127e657600080fd5b810190808051906020019092919050505015151415151561280657600080fd5b816000600160009054906101000a900473ffffffffffffffffffffffffffffffffffffffff1673ffffffffffffffffffffffffffffffffffffffff1663bd02d0f5836040516020018082805190602001908083835b602083101515612880578051825260208201915060208101905060208303925061285b565b6001836020036101000a038019825116818451168082178552505050505050905001807f73746174757300000000000000000000000000000000000000000000000000008152506006019150506040516020818303038152906040526040518082805190602001908083835b60208310151561291157805182526020820191506020810190506020830392506128ec565b6001836020036101000a03801982511681845116808217855250505050505090500191505060405180910390206040518263ffffffff167c0100000000000000000000000000000000000000000000000000000000028152600401808260001916600019168152602001915050602060405180830381600087803b15801561299857600080fd5b505af11580156129ac573d6000803e3d6000fd5b505050506040513d60208110156129c257600080fd5b81019080805190602001909291905050501415156129df57600080fd5b823373ffffffffffffffffffffffffffffffffffffffff16600160009054906101000a900473ffffffffffffffffffffffffffffffffffffffff1673ffffffffffffffffffffffffffffffffffffffff166321f8a721836040516020018082805190602001908083835b602083101515612a6e5780518252602082019150602081019050602083039250612a49565b6001836020036101000a038019825116818451168082178552505050505050905001807f667265656c616e63657200000000000000000000000000000000000000000000815250600a019150506040516020818303038152906040526040518082805190602001908083835b602083101515612aff5780518252602082019150602081019050602083039250612ada565b6001836020036101000a03801982511681845116808217855250505050505090500191505060405180910390206040518263ffffffff167c0100000000000000000000000000000000000000000000000000000000028152600401808260001916600019168152602001915050602060405180830381600087803b158015612b8657600080fd5b505af1158015612b9a573d6000803e3d6000fd5b505050506040513d6020811015612bb057600080fd5b810190808051906020019092919050505073ffffffffffffffffffffffffffffffffffffffff16141515612be357600080fd5b600160009054906101000a900473ffffffffffffffffffffffffffffffffffffffff1673ffffffffffffffffffffffffffffffffffffffff1663e2a4853a856040516020018082805190602001908083835b602083101515612c5a5780518252602082019150602081019050602083039250612c35565b6001836020036101000a038019825116818451168082178552505050505050905001807f73746174757300000000000000000000000000000000000000000000000000008152506006019150506040516020818303038152906040526040518082805190602001908083835b602083101515612ceb5780518252602082019150602081019050602083039250612cc6565b6001836020036101000a038019825116818451168082178552505050505050905001915050604051809103902060016040518363ffffffff167c010000000000000000000000000000000000000000000000000000000002815260040180836000191660001916815260200182815260200192505050600060405180830381600087803b158015612d7b57600080fd5b505af1158015612d8f573d6000803e3d6000fd5b50505050600160009054906101000a900473ffffffffffffffffffffffffffffffffffffffff1673ffffffffffffffffffffffffffffffffffffffff1663e2a4853a856040516020018082805190602001908083835b602083101515612e0a5780518252602082019150602081019050602083039250612de5565b6001836020036101000a038019825116818451168082178552505050505050905001807f74696d654a6f6253746172740000000000000000000000000000000000000000815250600c019150506040516020818303038152906040526040518082805190602001908083835b602083101515612e9b5780518252602082019150602081019050602083039250612e76565b6001836020036101000a0380198251168184511680821785525050505050509050019150506040518091039020426040518363ffffffff167c010000000000000000000000000000000000000000000000000000000002815260040180836000191660001916815260200182815260200192505050600060405180830381600087803b158015612f2a57600080fd5b505af1158015612f3e573d6000803e3d6000fd5b505050507fcf01933c2854194289dd40b6150e662733f04a620e9c18b9de60e5ff89f18642846040518080602001828103825283818151815260200191508051906020019080838360005b83811015612fa4578082015181840152602081019050612f89565b50505050905090810190601f168015612fd15780820380516001836020036101000a031916815260200191505b509250505060405180910390a150505050565b600073ffffffffffffffffffffffffffffffffffffffff166000809054906101000a900473ffffffffffffffffffffffffffffffffffffffff1673ffffffffffffffffffffffffffffffffffffffff16141515613097576000809054906101000a900473ffffffffffffffffffffffffffffffffffffffff1673ffffffffffffffffffffffffffffffffffffffff163373ffffffffffffffffffffffffffffffffffffffff1614151561309657600080fd5b5b6130a081613b0a565b50565b600080600080600080600080600080600080600160009054906101000a900473ffffffffffffffffffffffffffffffffffffffff1673ffffffffffffffffffffffffffffffffffffffff166321f8a7218e6040518082805190602001908083835b6020831015156131295780518252602082019150602081019050602083039250613104565b6001836020036101000a03801982511681845116808217855250505050505090500191505060405180910390206040518263ffffffff167c0100000000000000000000000000000000000000000000000000000000028152600401808260001916600019168152602001915050602060405180830381600087803b1580156131b057600080fd5b505af11580156131c4573d6000803e3d6000fd5b505050506040513d60208110156131da57600080fd5b81019080805190602001909291905050509550600160009054906101000a900473ffffffffffffffffffffffffffffffffffffffff1673ffffffffffffffffffffffffffffffffffffffff1663bd02d0f58e6040516020018082805190602001908083835b602083101515613264578051825260208201915060208101905060208303925061323f565b6001836020036101000a038019825116818451168082178552505050505050905001807f65787069726564000000000000000000000000000000000000000000000000008152506007019150506040516020818303038152906040526040518082805190602001908083835b6020831015156132f557805182526020820191506020810190506020830392506132d0565b6001836020036101000a03801982511681845116808217855250505050505090500191505060405180910390206040518263ffffffff167c0100000000000000000000000000000000000000000000000000000000028152600401808260001916600019168152602001915050602060405180830381600087803b15801561337c57600080fd5b505af1158015613390573d6000803e3d6000fd5b505050506040513d60208110156133a657600080fd5b81019080805190602001909291905050509450600160009054906101000a900473ffffffffffffffffffffffffffffffffffffffff1673ffffffffffffffffffffffffffffffffffffffff1663bd02d0f58e6040516020018082805190602001908083835b602083101515613430578051825260208201915060208101905060208303925061340b565b6001836020036101000a038019825116818451168082178552505050505050905001807f62756467657400000000000000000000000000000000000000000000000000008152506006019150506040516020818303038152906040526040518082805190602001908083835b6020831015156134c1578051825260208201915060208101905060208303925061349c565b6001836020036101000a03801982511681845116808217855250505050505090500191505060405180910390206040518263ffffffff167c0100000000000000000000000000000000000000000000000000000000028152600401808260001916600019168152602001915050602060405180830381600087803b15801561354857600080fd5b505af115801561355c573d6000803e3d6000fd5b505050506040513d602081101561357257600080fd5b81019080805190602001909291905050509350600160009054906101000a900473ffffffffffffffffffffffffffffffffffffffff1673ffffffffffffffffffffffffffffffffffffffff16637ae1cfca8e6040516020018082805190602001908083835b6020831015156135fc57805182526020820191506020810190506020830392506135d7565b6001836020036101000a038019825116818451168082178552505050505050905001807f63616e63656c00000000000000000000000000000000000000000000000000008152506006019150506040516020818303038152906040526040518082805190602001908083835b60208310151561368d5780518252602082019150602081019050602083039250613668565b6001836020036101000a03801982511681845116808217855250505050505090500191505060405180910390206040518263ffffffff167c0100000000000000000000000000000000000000000000000000000000028152600401808260001916600019168152602001915050602060405180830381600087803b15801561371457600080fd5b505af1158015613728573d6000803e3d6000fd5b505050506040513d602081101561373e57600080fd5b81019080805190602001909291905050509250600160009054906101000a900473ffffffffffffffffffffffffffffffffffffffff1673ffffffffffffffffffffffffffffffffffffffff1663bd02d0f58e6040516020018082805190602001908083835b6020831015156137c857805182526020820191506020810190506020830392506137a3565b6001836020036101000a038019825116818451168082178552505050505050905001807f73746174757300000000000000000000000000000000000000000000000000008152506006019150506040516020818303038152906040526040518082805190602001908083835b6020831015156138595780518252602082019150602081019050602083039250613834565b6001836020036101000a03801982511681845116808217855250505050505090500191505060405180910390206040518263ffffffff167c0100000000000000000000000000000000000000000000000000000000028152600401808260001916600019168152602001915050602060405180830381600087803b1580156138e057600080fd5b505af11580156138f4573d6000803e3d6000fd5b505050506040513d602081101561390a57600080fd5b81019080805190602001909291905050509150600160009054906101000a900473ffffffffffffffffffffffffffffffffffffffff1673ffffffffffffffffffffffffffffffffffffffff166321f8a7218e6040516020018082805190602001908083835b602083101515613994578051825260208201915060208101905060208303925061396f565b6001836020036101000a038019825116818451168082178552505050505050905001807f667265656c616e63657200000000000000000000000000000000000000000000815250600a019150506040516020818303038152906040526040518082805190602001908083835b602083101515613a255780518252602082019150602081019050602083039250613a00565b6001836020036101000a03801982511681845116808217855250505050505090500191505060405180910390206040518263ffffffff167c0100000000000000000000000000000000000000000000000000000000028152600401808260001916600019168152602001915050602060405180830381600087803b158015613aac57600080fd5b505af1158015613ac0573d6000803e3d6000fd5b505050506040513d6020811015613ad657600080fd5b810190808051906020019092919050505090508585858585859b509b509b509b509b509b5050505050505091939550919395565b600073ffffffffffffffffffffffffffffffffffffffff168173ffffffffffffffffffffffffffffffffffffffff1614151515613b4657600080fd5b8073ffffffffffffffffffffffffffffffffffffffff166000809054906101000a900473ffffffffffffffffffffffffffffffffffffffff1673ffffffffffffffffffffffffffffffffffffffff167f8be0079c531659141344cd1fd0a4f28419497f9722a3daafe3b4186f6b6457e060405160405180910390a3806000806101000a81548173ffffffffffffffffffffffffffffffffffffffff021916908373ffffffffffffffffffffffffffffffffffffffff160217905550505600a165627a7a723058202960558c191d2ffbc1bce79d5a41b2b746ccb0fd0488f123609e2744a31951840029",
  "source": "/**\n * Created on 2018-08-13 10:31\n * @summary: \n * @author: Chris Nguyen\n */\npragma solidity ^0.4.24;\nimport './BBFreelancer.sol';\n\n/**\n * @title BBFreelancerJob\n */\ncontract BBFreelancerJob is BBFreelancer {\n\n  event JobCreated(bytes jobHash, address indexed owner, uint expired, bytes32 indexed category, uint256  budget);\n  event JobCanceled(bytes jobHash);\n  event JobStarted(bytes jobHash);\n  event JobFinished(bytes jobHash);\n\n  /**\n   * @dev \n   * @param jobHash Job Hash\n   */\n  function getJob(bytes jobHash) public view returns(address, uint256, uint256, bool, uint256, address){\n    address owner = bbs.getAddress(keccak256(jobHash));\n    uint256 expired = bbs.getUint(keccak256(abi.encodePacked(jobHash, 'expired')));\n    uint256 budget = bbs.getUint(keccak256(abi.encodePacked(jobHash, 'budget')));\n    bool cancel = bbs.getBool(keccak256(abi.encodePacked(jobHash, 'cancel')));\n    uint256 status = bbs.getUint(keccak256(abi.encodePacked(jobHash, 'status')));\n    address freelancer = bbs.getAddress(keccak256(abi.encodePacked(jobHash, 'freelancer')));\n    return (owner, expired,budget, cancel, status, freelancer);\n  }\n\n\n  /**\n   * @dev \n   * @param jobHash Job Hash\n   * @param expired Time\n   * @param estimateTime Time do the job\n   * @param budget Buget\n   * @param category Tag category\n   */\n  function createJob(bytes jobHash, uint expired ,uint estimateTime, uint256 budget, bytes32 category) public \n  jobNotExist(jobHash)\n  {\n    // check jobHash not null\n    require(jobHash.length > 0);\n    // expired > now\n    require(expired > now);\n    // budget\n    require(budget > 0);\n\n    require(estimateTime > 0);\n\n    // save jobHash owner\n    bbs.setAddress(keccak256(jobHash), msg.sender);\n    // save expired timestamp\n    bbs.setUint(keccak256(abi.encodePacked(jobHash, 'expired')), expired);\n\n    // save time freelancer can done this job\n    bbs.setUint(keccak256(abi.encodePacked(jobHash, 'estimateTime')), estimateTime);\n\n    // save budget \n    bbs.setUint(keccak256(abi.encodePacked(jobHash, 'budget')), budget);\n \n    emit JobCreated(jobHash, msg.sender, expired, category, budget);\n  }\n    // hirer  cancel job\n  /**\n   * @dev \n   * @param jobHash Job Hash\n   */\n  function cancelJob(bytes jobHash) public \n  isOwnerJob(jobHash)  {\n\n    uint status = bbs.getUint(keccak256(abi.encodePacked(jobHash,'status')));\n    require(status == 0 || status == 1);\n    if(status == 1) {\n      address freelancer = bbs.getAddress(keccak256(abi.encodePacked(jobHash, 'freelancer')));\n      uint timeDone = bbs.getUint(keccak256(abi.encodePacked(jobHash, 'timeDone', freelancer)));\n      uint timeStartJob = bbs.getUint(keccak256(abi.encodePacked(jobHash, 'timeJobStart')));\n      require(now > timeStartJob + timeDone);\n    }\n    \n    bbs.setBool(keccak256(abi.encodePacked(jobHash,'cancel')), true);\n    emit JobCanceled(jobHash);\n  }\n  // freelancer start Job\n  /**\n   * @dev \n   * @param jobHash Job Hash\n   */\n  function startJob(bytes jobHash) public \n  isNotCanceled(jobHash)\n  jobNotStarted(jobHash)\n  isFreelancerOfJob(jobHash) {\n    // set status to 1\n    bbs.setUint(keccak256(abi.encodePacked(jobHash,'status')), 1);\n    //Begin set time start job\n    bbs.setUint(keccak256(abi.encodePacked(jobHash,'timeJobStart')), now);\n    emit JobStarted(jobHash);\n  }\n  // freelancer finish Job\n  /**\n   * @dev \n   * @param jobHash Job Hash\n   */\n  function finishJob(bytes jobHash) public \n  isNotOwnerJob(jobHash) \n  isFreelancerOfJob(jobHash) {\n    //status el 1\n    require(bbs.getUint(keccak256(abi.encodePacked(jobHash,'status'))) ==1);\n\n    bbs.setUint(keccak256(abi.encodePacked(jobHash,'status')), 2);\n    bbs.setUint(keccak256(abi.encodePacked(jobHash,'finishedTimestamp')), now);\n    emit JobFinished(jobHash);\n  }\n\n}",
  "sourcePath": "/Users/yena/Documents/tuongnguyen/digital-contracts/src/contracts/BBFreelancerJob.sol",
  "compiler": {
    "name": "solc",
    "version": "0.4.24+commit.e67f0147.Emscripten.clang"
  },
  "schemaVersion": "2.0.1",
  "updatedAt": "2018-08-24T09:47:26.981Z"
}