{
  "contractName": "BBFreelancerPayment",
  "abi": [
    {
      "constant": true,
      "inputs": [],
      "name": "bbo",
      "outputs": [
        {
          "name": "",
          "type": "address"
        }
      ],
      "payable": false,
      "stateMutability": "view",
      "type": "function"
    },
    {
      "constant": false,
      "inputs": [],
      "name": "getStorage",
      "outputs": [
        {
          "name": "",
          "type": "address"
        }
      ],
      "payable": false,
      "stateMutability": "nonpayable",
      "type": "function"
    },
    {
      "constant": false,
      "inputs": [],
      "name": "renounceOwnership",
      "outputs": [],
      "payable": false,
      "stateMutability": "nonpayable",
      "type": "function"
    },
    {
      "constant": false,
      "inputs": [
        {
          "name": "BBOAddress",
          "type": "address"
        }
      ],
      "name": "setBBO",
      "outputs": [],
      "payable": false,
      "stateMutability": "nonpayable",
      "type": "function"
    },
    {
      "constant": true,
      "inputs": [],
      "name": "owner",
      "outputs": [
        {
          "name": "",
          "type": "address"
        }
      ],
      "payable": false,
      "stateMutability": "view",
      "type": "function"
    },
    {
      "constant": false,
      "inputs": [
        {
          "name": "storageAddress",
          "type": "address"
        }
      ],
      "name": "setStorage",
      "outputs": [],
      "payable": false,
      "stateMutability": "nonpayable",
      "type": "function"
    },
    {
      "constant": false,
      "inputs": [
        {
          "name": "_newOwner",
          "type": "address"
        }
      ],
      "name": "transferOwnership",
      "outputs": [],
      "payable": false,
      "stateMutability": "nonpayable",
      "type": "function"
    },
    {
      "anonymous": false,
      "inputs": [
        {
          "indexed": false,
          "name": "jobHash",
          "type": "bytes"
        },
        {
          "indexed": true,
          "name": "sender",
          "type": "address"
        }
      ],
      "name": "PaymentClaimed",
      "type": "event"
    },
    {
      "anonymous": false,
      "inputs": [
        {
          "indexed": false,
          "name": "jobHash",
          "type": "bytes"
        },
        {
          "indexed": true,
          "name": "sender",
          "type": "address"
        }
      ],
      "name": "PaymentAccepted",
      "type": "event"
    },
    {
      "anonymous": false,
      "inputs": [
        {
          "indexed": false,
          "name": "jobHash",
          "type": "bytes"
        },
        {
          "indexed": true,
          "name": "sender",
          "type": "address"
        }
      ],
      "name": "PaymentRejected",
      "type": "event"
    },
    {
      "anonymous": false,
      "inputs": [
        {
          "indexed": false,
          "name": "jobHash",
          "type": "bytes"
        },
        {
          "indexed": true,
          "name": "winner",
          "type": "address"
        }
      ],
      "name": "DisputeFinalized",
      "type": "event"
    },
    {
      "anonymous": false,
      "inputs": [
        {
          "indexed": true,
          "name": "previousOwner",
          "type": "address"
        }
      ],
      "name": "OwnershipRenounced",
      "type": "event"
    },
    {
      "anonymous": false,
      "inputs": [
        {
          "indexed": true,
          "name": "previousOwner",
          "type": "address"
        },
        {
          "indexed": true,
          "name": "newOwner",
          "type": "address"
        }
      ],
      "name": "OwnershipTransferred",
      "type": "event"
    },
    {
      "constant": false,
      "inputs": [
        {
          "name": "jobHash",
          "type": "bytes"
        }
      ],
      "name": "acceptPayment",
      "outputs": [],
      "payable": false,
      "stateMutability": "nonpayable",
      "type": "function"
    },
    {
      "constant": false,
      "inputs": [
        {
          "name": "jobHash",
          "type": "bytes"
        }
      ],
      "name": "rejectPayment",
      "outputs": [],
      "payable": false,
      "stateMutability": "nonpayable",
      "type": "function"
    },
    {
      "constant": false,
      "inputs": [
        {
          "name": "jobHash",
          "type": "bytes"
        }
      ],
      "name": "claimePayment",
      "outputs": [],
      "payable": false,
      "stateMutability": "nonpayable",
      "type": "function"
    },
    {
      "constant": false,
      "inputs": [
        {
          "name": "timestamp",
          "type": "uint256"
        }
      ],
      "name": "setPaymentLimitTimestamp",
      "outputs": [],
      "payable": false,
      "stateMutability": "nonpayable",
      "type": "function"
    },
    {
      "constant": true,
      "inputs": [],
      "name": "getPaymentLimitTimestamp",
      "outputs": [
        {
          "name": "time",
          "type": "uint256"
        }
      ],
      "payable": false,
      "stateMutability": "view",
      "type": "function"
    },
    {
      "constant": true,
      "inputs": [
        {
          "name": "jobHash",
          "type": "bytes"
        }
      ],
      "name": "checkPayment",
      "outputs": [
        {
          "name": "",
          "type": "uint256"
        },
        {
          "name": "",
          "type": "uint256"
        }
      ],
      "payable": false,
      "stateMutability": "view",
      "type": "function"
    },
    {
      "constant": false,
      "inputs": [
        {
          "name": "jobHash",
          "type": "bytes"
        }
      ],
      "name": "finalizeDispute",
      "outputs": [],
      "payable": false,
      "stateMutability": "nonpayable",
      "type": "function"
    }
  ],
  "bytecode": "0x60806040526000600160006101000a81548173ffffffffffffffffffffffffffffffffffffffff021916908373ffffffffffffffffffffffffffffffffffffffff1602179055506000600260006101000a81548173ffffffffffffffffffffffffffffffffffffffff021916908373ffffffffffffffffffffffffffffffffffffffff160217905550336000806101000a81548173ffffffffffffffffffffffffffffffffffffffff021916908373ffffffffffffffffffffffffffffffffffffffff1602179055506141bd806100d76000396000f3006080604052600436106100d0576000357c0100000000000000000000000000000000000000000000000000000000900463ffffffff1680631e89bf06146100d55780632be76acc1461012c5780632de8385b146101955780632f6aee25146101fe5780633408f73a146102675780636ab0fbe3146102be578063715018a6146103275780637937f46d1461033e57806385c51803146103815780638da5cb5b146104055780639137c1a71461045c578063f2fde38b1461049f578063f8aa391a146104e2578063faa23f821461050d575b600080fd5b3480156100e157600080fd5b506100ea61053a565b604051808273ffffffffffffffffffffffffffffffffffffffff1673ffffffffffffffffffffffffffffffffffffffff16815260200191505060405180910390f35b34801561013857600080fd5b50610193600480360381019080803590602001908201803590602001908080601f0160208091040260200160405190810160405280939291908181526020018383808284378201915050505050509192919290505050610560565b005b3480156101a157600080fd5b506101fc600480360381019080803590602001908201803590602001908080601f0160208091040260200160405190810160405280939291908181526020018383808284378201915050505050509192919290505050610b0f565b005b34801561020a57600080fd5b50610265600480360381019080803590602001908201803590602001908080601f0160208091040260200160405190810160405280939291908181526020018383808284378201915050505050509192919290505050611902565b005b34801561027357600080fd5b5061027c61271c565b604051808273ffffffffffffffffffffffffffffffffffffffff1673ffffffffffffffffffffffffffffffffffffffff16815260200191505060405180910390f35b3480156102ca57600080fd5b50610325600480360381019080803590602001908201803590602001908080601f01602080910402602001604051908101604052809392919081815260200183838082843782019150505050505091929192905050506127a1565b005b34801561033357600080fd5b5061033c6135c6565b005b34801561034a57600080fd5b5061037f600480360381019080803573ffffffffffffffffffffffffffffffffffffffff1690602001909291905050506136c8565b005b34801561038d57600080fd5b506103e8600480360381019080803590602001908201803590602001908080601f0160208091040260200160405190810160405280939291908181526020018383808284378201915050505050509192919290505050613767565b604051808381526020018281526020019250505060405180910390f35b34801561041157600080fd5b5061041a613c32565b604051808273ffffffffffffffffffffffffffffffffffffffff1673ffffffffffffffffffffffffffffffffffffffff16815260200191505060405180910390f35b34801561046857600080fd5b5061049d600480360381019080803573ffffffffffffffffffffffffffffffffffffffff169060200190929190505050613c57565b005b3480156104ab57600080fd5b506104e0600480360381019080803573ffffffffffffffffffffffffffffffffffffffff169060200190929190505050613cf6565b005b3480156104ee57600080fd5b506104f7613db5565b6040518082815260200191505060405180910390f35b34801561051957600080fd5b5061053860048036038101908080359060200190929190505050613f20565b005b600260009054906101000a900473ffffffffffffffffffffffffffffffffffffffff1681565b803373ffffffffffffffffffffffffffffffffffffffff16600160009054906101000a900473ffffffffffffffffffffffffffffffffffffffff1673ffffffffffffffffffffffffffffffffffffffff166321f8a721836040518082805190602001908083835b6020831015156105ec57805182526020820191506020810190506020830392506105c7565b6001836020036101000a03801982511681845116808217855250505050505090500191505060405180910390206040518263ffffffff167c0100000000000000000000000000000000000000000000000000000000028152600401808260001916600019168152602001915050602060405180830381600087803b15801561067357600080fd5b505af1158015610687573d6000803e3d6000fd5b505050506040513d602081101561069d57600080fd5b810190808051906020019092919050505073ffffffffffffffffffffffffffffffffffffffff161415156106d057600080fd5b6002600160009054906101000a900473ffffffffffffffffffffffffffffffffffffffff1673ffffffffffffffffffffffffffffffffffffffff1663bd02d0f5846040516020018082805190602001908083835b6020831015156107495780518252602082019150602081019050602083039250610724565b6001836020036101000a038019825116818451168082178552505050505050905001807f73746174757300000000000000000000000000000000000000000000000000008152506006019150506040516020818303038152906040526040518082805190602001908083835b6020831015156107da57805182526020820191506020810190506020830392506107b5565b6001836020036101000a03801982511681845116808217855250505050505090500191505060405180910390206040518263ffffffff167c0100000000000000000000000000000000000000000000000000000000028152600401808260001916600019168152602001915050602060405180830381600087803b15801561086157600080fd5b505af1158015610875573d6000803e3d6000fd5b505050506040513d602081101561088b57600080fd5b81019080805190602001909291905050501415156108a857600080fd5b600160009054906101000a900473ffffffffffffffffffffffffffffffffffffffff1673ffffffffffffffffffffffffffffffffffffffff1663e2a4853a836040516020018082805190602001908083835b60208310151561091f57805182526020820191506020810190506020830392506108fa565b6001836020036101000a038019825116818451168082178552505050505050905001807f73746174757300000000000000000000000000000000000000000000000000008152506006019150506040516020818303038152906040526040518082805190602001908083835b6020831015156109b0578051825260208201915060208101905060208303925061098b565b6001836020036101000a038019825116818451168082178552505050505050905001915050604051809103902060046040518363ffffffff167c010000000000000000000000000000000000000000000000000000000002815260040180836000191660001916815260200182815260200192505050600060405180830381600087803b158015610a4057600080fd5b505af1158015610a54573d6000803e3d6000fd5b505050503373ffffffffffffffffffffffffffffffffffffffff167fd5992f984e49c16e9082f101e62b87b3d79137cd8dcc3d62f721677ecc01afe8836040518080602001828103825283818151815260200191508051906020019080838360005b83811015610ad1578082015181840152602081019050610ab6565b50505050905090810190601f168015610afe5780820380516001836020036101000a031916815260200191505b509250505060405180910390a25050565b600080600080843373ffffffffffffffffffffffffffffffffffffffff16600160009054906101000a900473ffffffffffffffffffffffffffffffffffffffff1673ffffffffffffffffffffffffffffffffffffffff166321f8a721836040516020018082805190602001908083835b602083101515610ba45780518252602082019150602081019050602083039250610b7f565b6001836020036101000a038019825116818451168082178552505050505050905001807f667265656c616e63657200000000000000000000000000000000000000000000815250600a019150506040516020818303038152906040526040518082805190602001908083835b602083101515610c355780518252602082019150602081019050602083039250610c10565b6001836020036101000a03801982511681845116808217855250505050505090500191505060405180910390206040518263ffffffff167c0100000000000000000000000000000000000000000000000000000000028152600401808260001916600019168152602001915050602060405180830381600087803b158015610cbc57600080fd5b505af1158015610cd0573d6000803e3d6000fd5b505050506040513d6020811015610ce657600080fd5b810190808051906020019092919050505073ffffffffffffffffffffffffffffffffffffffff16141515610d1957600080fd5b6002600160009054906101000a900473ffffffffffffffffffffffffffffffffffffffff1673ffffffffffffffffffffffffffffffffffffffff1663bd02d0f5886040516020018082805190602001908083835b602083101515610d925780518252602082019150602081019050602083039250610d6d565b6001836020036101000a038019825116818451168082178552505050505050905001807f73746174757300000000000000000000000000000000000000000000000000008152506006019150506040516020818303038152906040526040518082805190602001908083835b602083101515610e235780518252602082019150602081019050602083039250610dfe565b6001836020036101000a03801982511681845116808217855250505050505090500191505060405180910390206040518263ffffffff167c0100000000000000000000000000000000000000000000000000000000028152600401808260001916600019168152602001915050602060405180830381600087803b158015610eaa57600080fd5b505af1158015610ebe573d6000803e3d6000fd5b505050506040513d6020811015610ed457600080fd5b8101908080519060200190929190505050141515610ef157600080fd5b600160009054906101000a900473ffffffffffffffffffffffffffffffffffffffff1673ffffffffffffffffffffffffffffffffffffffff1663bd02d0f5876040516020018082805190602001908083835b602083101515610f685780518252602082019150602081019050602083039250610f43565b6001836020036101000a038019825116818451168082178552505050505050905001807f73746174757300000000000000000000000000000000000000000000000000008152506006019150506040516020818303038152906040526040518082805190602001908083835b602083101515610ff95780518252602082019150602081019050602083039250610fd4565b6001836020036101000a03801982511681845116808217855250505050505090500191505060405180910390206040518263ffffffff167c0100000000000000000000000000000000000000000000000000000000028152600401808260001916600019168152602001915050602060405180830381600087803b15801561108057600080fd5b505af1158015611094573d6000803e3d6000fd5b505050506040513d60208110156110aa57600080fd5b81019080805190602001909291905050509450600160009054906101000a900473ffffffffffffffffffffffffffffffffffffffff1673ffffffffffffffffffffffffffffffffffffffff1663bd02d0f5876040516020018082805190602001908083835b602083101515611134578051825260208201915060208101905060208303925061110f565b6001836020036101000a038019825116818451168082178552505050505050905001807f66696e697368656454696d657374616d700000000000000000000000000000008152506011019150506040516020818303038152906040526040518082805190602001908083835b6020831015156111c557805182526020820191506020810190506020830392506111a0565b6001836020036101000a03801982511681845116808217855250505050505090500191505060405180910390206040518263ffffffff167c0100000000000000000000000000000000000000000000000000000000028152600401808260001916600019168152602001915050602060405180830381600087803b15801561124c57600080fd5b505af1158015611260573d6000803e3d6000fd5b505050506040513d602081101561127657600080fd5b81019080805190602001909291905050509350600160009054906101000a900473ffffffffffffffffffffffffffffffffffffffff1673ffffffffffffffffffffffffffffffffffffffff1663bd02d0f560405180807f5061796d656e744c696d697454696d657374616d700000000000000000000000815250601501905060405180910390206040518263ffffffff167c0100000000000000000000000000000000000000000000000000000000028152600401808260001916600019168152602001915050602060405180830381600087803b15801561135757600080fd5b505af115801561136b573d6000803e3d6000fd5b505050506040513d602081101561138157600080fd5b8101908080519060200190929190505050925042838501111515156113a557600080fd5b600160009054906101000a900473ffffffffffffffffffffffffffffffffffffffff1673ffffffffffffffffffffffffffffffffffffffff1663e2a4853a876040516020018082805190602001908083835b60208310151561141c57805182526020820191506020810190506020830392506113f7565b6001836020036101000a038019825116818451168082178552505050505050905001807f73746174757300000000000000000000000000000000000000000000000000008152506006019150506040516020818303038152906040526040518082805190602001908083835b6020831015156114ad5780518252602082019150602081019050602083039250611488565b6001836020036101000a038019825116818451168082178552505050505050905001915050604051809103902060056040518363ffffffff167c010000000000000000000000000000000000000000000000000000000002815260040180836000191660001916815260200182815260200192505050600060405180830381600087803b15801561153d57600080fd5b505af1158015611551573d6000803e3d6000fd5b50505050600160009054906101000a900473ffffffffffffffffffffffffffffffffffffffff1673ffffffffffffffffffffffffffffffffffffffff1663bd02d0f587336040516020018083805190602001908083835b6020831015156115cd57805182526020820191506020810190506020830392506115a8565b6001836020036101000a0380198251168184511680821785525050505050509050018273ffffffffffffffffffffffffffffffffffffffff1673ffffffffffffffffffffffffffffffffffffffff166c01000000000000000000000000028152601401925050506040516020818303038152906040526040518082805190602001908083835b6020831015156116785780518252602082019150602081019050602083039250611653565b6001836020036101000a03801982511681845116808217855250505050505090500191505060405180910390206040518263ffffffff167c0100000000000000000000000000000000000000000000000000000000028152600401808260001916600019168152602001915050602060405180830381600087803b1580156116ff57600080fd5b505af1158015611713573d6000803e3d6000fd5b505050506040513d602081101561172957600080fd5b81019080805190602001909291905050509150600260009054906101000a900473ffffffffffffffffffffffffffffffffffffffff1673ffffffffffffffffffffffffffffffffffffffff1663a9059cbb33846040518363ffffffff167c0100000000000000000000000000000000000000000000000000000000028152600401808373ffffffffffffffffffffffffffffffffffffffff1673ffffffffffffffffffffffffffffffffffffffff16815260200182815260200192505050602060405180830381600087803b15801561180157600080fd5b505af1158015611815573d6000803e3d6000fd5b505050506040513d602081101561182b57600080fd5b8101908080519060200190929190505050151561184757600080fd5b3373ffffffffffffffffffffffffffffffffffffffff167f1b12fae60d4bf916e4b3da0e1389482769232aa8d895b8c527a948b715f2cd93876040518080602001828103825283818151815260200191508051906020019080838360005b838110156118c05780820151818401526020810190506118a5565b50505050905090810190601f1680156118ed5780820380516001836020036101000a031916815260200191505b509250505060405180910390a2505050505050565b6000806000806000600160009054906101000a900473ffffffffffffffffffffffffffffffffffffffff1673ffffffffffffffffffffffffffffffffffffffff166321f8a721876040518082805190602001908083835b60208310151561197e5780518252602082019150602081019050602083039250611959565b6001836020036101000a03801982511681845116808217855250505050505090500191505060405180910390206040518263ffffffff167c0100000000000000000000000000000000000000000000000000000000028152600401808260001916600019168152602001915050602060405180830381600087803b158015611a0557600080fd5b505af1158015611a19573d6000803e3d6000fd5b505050506040513d6020811015611a2f57600080fd5b810190808051906020019092919050505073ffffffffffffffffffffffffffffffffffffffff1614151515611a6357600080fd5b60011515600160009054906101000a900473ffffffffffffffffffffffffffffffffffffffff1673ffffffffffffffffffffffffffffffffffffffff16637ae1cfca876040516020018082805190602001908083835b602083101515611ade5780518252602082019150602081019050602083039250611ab9565b6001836020036101000a038019825116818451168082178552505050505050905001807f697346696e616c697a6564000000000000000000000000000000000000000000815250600b019150506040516020818303038152906040526040518082805190602001908083835b602083101515611b6f5780518252602082019150602081019050602083039250611b4a565b6001836020036101000a03801982511681845116808217855250505050505090500191505060405180910390206040518263ffffffff167c0100000000000000000000000000000000000000000000000000000000028152600401808260001916600019168152602001915050602060405180830381600087803b158015611bf657600080fd5b505af1158015611c0a573d6000803e3d6000fd5b505050506040513d6020811015611c2057600080fd5b8101908080519060200190929190505050151514151515611c4057600080fd5b600160009054906101000a900473ffffffffffffffffffffffffffffffffffffffff1673ffffffffffffffffffffffffffffffffffffffff166321f8a721866040516020018082805190602001908083835b602083101515611cb75780518252602082019150602081019050602083039250611c92565b6001836020036101000a038019825116818451168082178552505050505050905001807f646973707574656457696e6e6572000000000000000000000000000000000000815250600e019150506040516020818303038152906040526040518082805190602001908083835b602083101515611d485780518252602082019150602081019050602083039250611d23565b6001836020036101000a03801982511681845116808217855250505050505090500191505060405180910390206040518263ffffffff167c0100000000000000000000000000000000000000000000000000000000028152600401808260001916600019168152602001915050602060405180830381600087803b158015611dcf57600080fd5b505af1158015611de3573d6000803e3d6000fd5b505050506040513d6020811015611df957600080fd5b81019080805190602001909291905050509350600073ffffffffffffffffffffffffffffffffffffffff168473ffffffffffffffffffffffffffffffffffffffff1614151515611e4857600080fd5b600160009054906101000a900473ffffffffffffffffffffffffffffffffffffffff1673ffffffffffffffffffffffffffffffffffffffff166321f8a721866040516020018082805190602001908083835b602083101515611ebf5780518252602082019150602081019050602083039250611e9a565b6001836020036101000a038019825116818451168082178552505050505050905001807f667265656c616e63657200000000000000000000000000000000000000000000815250600a019150506040516020818303038152906040526040518082805190602001908083835b602083101515611f505780518252602082019150602081019050602083039250611f2b565b6001836020036101000a03801982511681845116808217855250505050505090500191505060405180910390206040518263ffffffff167c0100000000000000000000000000000000000000000000000000000000028152600401808260001916600019168152602001915050602060405180830381600087803b158015611fd757600080fd5b505af1158015611feb573d6000803e3d6000fd5b505050506040513d602081101561200157600080fd5b81019080805190602001909291905050509250600160009054906101000a900473ffffffffffffffffffffffffffffffffffffffff1673ffffffffffffffffffffffffffffffffffffffff166321f8a721866040518082805190602001908083835b6020831015156120885780518252602082019150602081019050602083039250612063565b6001836020036101000a03801982511681845116808217855250505050505090500191505060405180910390206040518263ffffffff167c0100000000000000000000000000000000000000000000000000000000028152600401808260001916600019168152602001915050602060405180830381600087803b15801561210f57600080fd5b505af1158015612123573d6000803e3d6000fd5b505050506040513d602081101561213957600080fd5b81019080805190602001909291905050509150600160009054906101000a900473ffffffffffffffffffffffffffffffffffffffff1673ffffffffffffffffffffffffffffffffffffffff1663bd02d0f586856040516020018083805190602001908083835b6020831015156121c4578051825260208201915060208101905060208303925061219f565b6001836020036101000a0380198251168184511680821785525050505050509050018273ffffffffffffffffffffffffffffffffffffffff1673ffffffffffffffffffffffffffffffffffffffff166c01000000000000000000000000028152601401925050506040516020818303038152906040526040518082805190602001908083835b60208310151561226f578051825260208201915060208101905060208303925061224a565b6001836020036101000a03801982511681845116808217855250505050505090500191505060405180910390206040518263ffffffff167c0100000000000000000000000000000000000000000000000000000000028152600401808260001916600019168152602001915050602060405180830381600087803b1580156122f657600080fd5b505af115801561230a573d6000803e3d6000fd5b505050506040513d602081101561232057600080fd5b810190808051906020019092919050505090508273ffffffffffffffffffffffffffffffffffffffff168473ffffffffffffffffffffffffffffffffffffffff16148061239857508173ffffffffffffffffffffffffffffffffffffffff168473ffffffffffffffffffffffffffffffffffffffff16145b15156123a357600080fd5b600160009054906101000a900473ffffffffffffffffffffffffffffffffffffffff1673ffffffffffffffffffffffffffffffffffffffff1663abfdcced866040516020018082805190602001908083835b60208310151561241a57805182526020820191506020810190506020830392506123f5565b6001836020036101000a038019825116818451168082178552505050505050905001807f697346696e616c697a6564000000000000000000000000000000000000000000815250600b019150506040516020818303038152906040526040518082805190602001908083835b6020831015156124ab5780518252602082019150602081019050602083039250612486565b6001836020036101000a038019825116818451168082178552505050505050905001915050604051809103902060016040518363ffffffff167c01000000000000000000000000000000000000000000000000000000000281526004018083600019166000191681526020018215151515815260200192505050600060405180830381600087803b15801561253f57600080fd5b505af1158015612553573d6000803e3d6000fd5b50505050600260009054906101000a900473ffffffffffffffffffffffffffffffffffffffff1673ffffffffffffffffffffffffffffffffffffffff1663a9059cbb85836040518363ffffffff167c0100000000000000000000000000000000000000000000000000000000028152600401808373ffffffffffffffffffffffffffffffffffffffff1673ffffffffffffffffffffffffffffffffffffffff16815260200182815260200192505050602060405180830381600087803b15801561261c57600080fd5b505af1158015612630573d6000803e3d6000fd5b505050506040513d602081101561264657600080fd5b8101908080519060200190929190505050151561266257600080fd5b8373ffffffffffffffffffffffffffffffffffffffff167fcdae23650587a9b744f7f969a59f7359512b466ea69cf51df8c2ac23a4f6835a866040518080602001828103825283818151815260200191508051906020019080838360005b838110156126db5780820151818401526020810190506126c0565b50505050905090810190601f1680156127085780820380516001836020036101000a031916815260200191505b509250505060405180910390a25050505050565b60008060009054906101000a900473ffffffffffffffffffffffffffffffffffffffff1673ffffffffffffffffffffffffffffffffffffffff163373ffffffffffffffffffffffffffffffffffffffff1614151561277957600080fd5b600160009054906101000a900473ffffffffffffffffffffffffffffffffffffffff16905090565b600080823373ffffffffffffffffffffffffffffffffffffffff16600160009054906101000a900473ffffffffffffffffffffffffffffffffffffffff1673ffffffffffffffffffffffffffffffffffffffff166321f8a721836040518082805190602001908083835b602083101515612830578051825260208201915060208101905060208303925061280b565b6001836020036101000a03801982511681845116808217855250505050505090500191505060405180910390206040518263ffffffff167c0100000000000000000000000000000000000000000000000000000000028152600401808260001916600019168152602001915050602060405180830381600087803b1580156128b757600080fd5b505af11580156128cb573d6000803e3d6000fd5b505050506040513d60208110156128e157600080fd5b810190808051906020019092919050505073ffffffffffffffffffffffffffffffffffffffff1614151561291457600080fd5b6002600160009054906101000a900473ffffffffffffffffffffffffffffffffffffffff1673ffffffffffffffffffffffffffffffffffffffff1663bd02d0f5866040516020018082805190602001908083835b60208310151561298d5780518252602082019150602081019050602083039250612968565b6001836020036101000a038019825116818451168082178552505050505050905001807f73746174757300000000000000000000000000000000000000000000000000008152506006019150506040516020818303038152906040526040518082805190602001908083835b602083101515612a1e57805182526020820191506020810190506020830392506129f9565b6001836020036101000a03801982511681845116808217855250505050505090500191505060405180910390206040518263ffffffff167c0100000000000000000000000000000000000000000000000000000000028152600401808260001916600019168152602001915050602060405180830381600087803b158015612aa557600080fd5b505af1158015612ab9573d6000803e3d6000fd5b505050506040513d6020811015612acf57600080fd5b810190808051906020019092919050505010151515612aed57600080fd5b6009600160009054906101000a900473ffffffffffffffffffffffffffffffffffffffff1673ffffffffffffffffffffffffffffffffffffffff1663bd02d0f5866040516020018082805190602001908083835b602083101515612b665780518252602082019150602081019050602083039250612b41565b6001836020036101000a038019825116818451168082178552505050505050905001807f73746174757300000000000000000000000000000000000000000000000000008152506006019150506040516020818303038152906040526040518082805190602001908083835b602083101515612bf75780518252602082019150602081019050602083039250612bd2565b6001836020036101000a03801982511681845116808217855250505050505090500191505060405180910390206040518263ffffffff167c0100000000000000000000000000000000000000000000000000000000028152600401808260001916600019168152602001915050602060405180830381600087803b158015612c7e57600080fd5b505af1158015612c92573d6000803e3d6000fd5b505050506040513d6020811015612ca857600080fd5b810190808051906020019092919050505014151515612cc657600080fd5b6005600160009054906101000a900473ffffffffffffffffffffffffffffffffffffffff1673ffffffffffffffffffffffffffffffffffffffff1663bd02d0f5866040516020018082805190602001908083835b602083101515612d3f5780518252602082019150602081019050602083039250612d1a565b6001836020036101000a038019825116818451168082178552505050505050905001807f73746174757300000000000000000000000000000000000000000000000000008152506006019150506040516020818303038152906040526040518082805190602001908083835b602083101515612dd05780518252602082019150602081019050602083039250612dab565b6001836020036101000a03801982511681845116808217855250505050505090500191505060405180910390206040518263ffffffff167c0100000000000000000000000000000000000000000000000000000000028152600401808260001916600019168152602001915050602060405180830381600087803b158015612e5757600080fd5b505af1158015612e6b573d6000803e3d6000fd5b505050506040513d6020811015612e8157600080fd5b810190808051906020019092919050505014151515612e9f57600080fd5b600160009054906101000a900473ffffffffffffffffffffffffffffffffffffffff1673ffffffffffffffffffffffffffffffffffffffff1663e2a4853a856040516020018082805190602001908083835b602083101515612f165780518252602082019150602081019050602083039250612ef1565b6001836020036101000a038019825116818451168082178552505050505050905001807f73746174757300000000000000000000000000000000000000000000000000008152506006019150506040516020818303038152906040526040518082805190602001908083835b602083101515612fa75780518252602082019150602081019050602083039250612f82565b6001836020036101000a038019825116818451168082178552505050505050905001915050604051809103902060096040518363ffffffff167c010000000000000000000000000000000000000000000000000000000002815260040180836000191660001916815260200182815260200192505050600060405180830381600087803b15801561303757600080fd5b505af115801561304b573d6000803e3d6000fd5b50505050600160009054906101000a900473ffffffffffffffffffffffffffffffffffffffff1673ffffffffffffffffffffffffffffffffffffffff166321f8a721856040516020018082805190602001908083835b6020831015156130c657805182526020820191506020810190506020830392506130a1565b6001836020036101000a038019825116818451168082178552505050505050905001807f667265656c616e63657200000000000000000000000000000000000000000000815250600a019150506040516020818303038152906040526040518082805190602001908083835b6020831015156131575780518252602082019150602081019050602083039250613132565b6001836020036101000a03801982511681845116808217855250505050505090500191505060405180910390206040518263ffffffff167c0100000000000000000000000000000000000000000000000000000000028152600401808260001916600019168152602001915050602060405180830381600087803b1580156131de57600080fd5b505af11580156131f2573d6000803e3d6000fd5b505050506040513d602081101561320857600080fd5b81019080805190602001909291905050509250600160009054906101000a900473ffffffffffffffffffffffffffffffffffffffff1673ffffffffffffffffffffffffffffffffffffffff1663bd02d0f585856040516020018083805190602001908083835b602083101515613293578051825260208201915060208101905060208303925061326e565b6001836020036101000a0380198251168184511680821785525050505050509050018273ffffffffffffffffffffffffffffffffffffffff1673ffffffffffffffffffffffffffffffffffffffff166c01000000000000000000000000028152601401925050506040516020818303038152906040526040518082805190602001908083835b60208310151561333e5780518252602082019150602081019050602083039250613319565b6001836020036101000a03801982511681845116808217855250505050505090500191505060405180910390206040518263ffffffff167c0100000000000000000000000000000000000000000000000000000000028152600401808260001916600019168152602001915050602060405180830381600087803b1580156133c557600080fd5b505af11580156133d9573d6000803e3d6000fd5b505050506040513d60208110156133ef57600080fd5b81019080805190602001909291905050509150600260009054906101000a900473ffffffffffffffffffffffffffffffffffffffff1673ffffffffffffffffffffffffffffffffffffffff1663a9059cbb84846040518363ffffffff167c0100000000000000000000000000000000000000000000000000000000028152600401808373ffffffffffffffffffffffffffffffffffffffff1673ffffffffffffffffffffffffffffffffffffffff16815260200182815260200192505050602060405180830381600087803b1580156134c757600080fd5b505af11580156134db573d6000803e3d6000fd5b505050506040513d60208110156134f157600080fd5b8101908080519060200190929190505050151561350d57600080fd5b3373ffffffffffffffffffffffffffffffffffffffff167f7806707268d20331fff823a86de33fefb6af822e27e30e26c12e696fee000360856040518080602001828103825283818151815260200191508051906020019080838360005b8381101561358657808201518184015260208101905061356b565b50505050905090810190601f1680156135b35780820380516001836020036101000a031916815260200191505b509250505060405180910390a250505050565b6000809054906101000a900473ffffffffffffffffffffffffffffffffffffffff1673ffffffffffffffffffffffffffffffffffffffff163373ffffffffffffffffffffffffffffffffffffffff1614151561362157600080fd5b6000809054906101000a900473ffffffffffffffffffffffffffffffffffffffff1673ffffffffffffffffffffffffffffffffffffffff167ff8df31144d9c2f0f6b59d69b8b98abd5459d07f2742c4df920b25aae33c6482060405160405180910390a260008060006101000a81548173ffffffffffffffffffffffffffffffffffffffff021916908373ffffffffffffffffffffffffffffffffffffffff160217905550565b6000809054906101000a900473ffffffffffffffffffffffffffffffffffffffff1673ffffffffffffffffffffffffffffffffffffffff163373ffffffffffffffffffffffffffffffffffffffff1614151561372357600080fd5b80600260006101000a81548173ffffffffffffffffffffffffffffffffffffffff021916908373ffffffffffffffffffffffffffffffffffffffff16021790555050565b6000806000806000600160009054906101000a900473ffffffffffffffffffffffffffffffffffffffff1673ffffffffffffffffffffffffffffffffffffffff1663bd02d0f5876040516020018082805190602001908083835b6020831015156137e657805182526020820191506020810190506020830392506137c1565b6001836020036101000a038019825116818451168082178552505050505050905001807f4a4f425f46494e49534845445f54494d455354414d50000000000000000000008152506016019150506040516020818303038152906040526040518082805190602001908083835b6020831015156138775780518252602082019150602081019050602083039250613852565b6001836020036101000a03801982511681845116808217855250505050505090500191505060405180910390206040518263ffffffff167c0100000000000000000000000000000000000000000000000000000000028152600401808260001916600019168152602001915050602060405180830381600087803b1580156138fe57600080fd5b505af1158015613912573d6000803e3d6000fd5b505050506040513d602081101561392857600080fd5b81019080805190602001909291905050509250600160009054906101000a900473ffffffffffffffffffffffffffffffffffffffff1673ffffffffffffffffffffffffffffffffffffffff1663bd02d0f560405180807f5041594d454e545f4c494d49545f54494d455354414d50000000000000000000815250601701905060405180910390206040518263ffffffff167c0100000000000000000000000000000000000000000000000000000000028152600401808260001916600019168152602001915050602060405180830381600087803b158015613a0957600080fd5b505af1158015613a1d573d6000803e3d6000fd5b505050506040513d6020811015613a3357600080fd5b81019080805190602001909291905050509150600160009054906101000a900473ffffffffffffffffffffffffffffffffffffffff1673ffffffffffffffffffffffffffffffffffffffff1663bd02d0f5876040516020018082805190602001908083835b602083101515613abd5780518252602082019150602081019050602083039250613a98565b6001836020036101000a038019825116818451168082178552505050505050905001807f53544154555300000000000000000000000000000000000000000000000000008152506006019150506040516020818303038152906040526040518082805190602001908083835b602083101515613b4e5780518252602082019150602081019050602083039250613b29565b6001836020036101000a03801982511681845116808217855250505050505090500191505060405180910390206040518263ffffffff167c0100000000000000000000000000000000000000000000000000000000028152600401808260001916600019168152602001915050602060405180830381600087803b158015613bd557600080fd5b505af1158015613be9573d6000803e3d6000fd5b505050506040513d6020811015613bff57600080fd5b8101908080519060200190929190505050905080613c26838561407b90919063ffffffff16565b94509450505050915091565b6000809054906101000a900473ffffffffffffffffffffffffffffffffffffffff1681565b6000809054906101000a900473ffffffffffffffffffffffffffffffffffffffff1673ffffffffffffffffffffffffffffffffffffffff163373ffffffffffffffffffffffffffffffffffffffff16141515613cb257600080fd5b80600160006101000a81548173ffffffffffffffffffffffffffffffffffffffff021916908373ffffffffffffffffffffffffffffffffffffffff16021790555050565b600073ffffffffffffffffffffffffffffffffffffffff166000809054906101000a900473ffffffffffffffffffffffffffffffffffffffff1673ffffffffffffffffffffffffffffffffffffffff16141515613da9576000809054906101000a900473ffffffffffffffffffffffffffffffffffffffff1673ffffffffffffffffffffffffffffffffffffffff163373ffffffffffffffffffffffffffffffffffffffff16141515613da857600080fd5b5b613db281614097565b50565b60008060009054906101000a900473ffffffffffffffffffffffffffffffffffffffff1673ffffffffffffffffffffffffffffffffffffffff163373ffffffffffffffffffffffffffffffffffffffff16141515613e1257600080fd5b600160009054906101000a900473ffffffffffffffffffffffffffffffffffffffff1673ffffffffffffffffffffffffffffffffffffffff1663bd02d0f560405180807f5061796d656e744c696d697454696d657374616d700000000000000000000000815250601501905060405180910390206040518263ffffffff167c0100000000000000000000000000000000000000000000000000000000028152600401808260001916600019168152602001915050602060405180830381600087803b158015613ee057600080fd5b505af1158015613ef4573d6000803e3d6000fd5b505050506040513d6020811015613f0a57600080fd5b8101908080519060200190929190505050905090565b6000809054906101000a900473ffffffffffffffffffffffffffffffffffffffff1673ffffffffffffffffffffffffffffffffffffffff163373ffffffffffffffffffffffffffffffffffffffff16141515613f7b57600080fd5b600081111515613f8a57600080fd5b600160009054906101000a900473ffffffffffffffffffffffffffffffffffffffff1673ffffffffffffffffffffffffffffffffffffffff1663e2a4853a60405180807f5061796d656e744c696d697454696d657374616d70000000000000000000000081525060150190506040518091039020836040518363ffffffff167c010000000000000000000000000000000000000000000000000000000002815260040180836000191660001916815260200182815260200192505050600060405180830381600087803b15801561406057600080fd5b505af1158015614074573d6000803e3d6000fd5b5050505050565b6000818301905082811015151561408e57fe5b80905092915050565b600073ffffffffffffffffffffffffffffffffffffffff168173ffffffffffffffffffffffffffffffffffffffff16141515156140d357600080fd5b8073ffffffffffffffffffffffffffffffffffffffff166000809054906101000a900473ffffffffffffffffffffffffffffffffffffffff1673ffffffffffffffffffffffffffffffffffffffff167f8be0079c531659141344cd1fd0a4f28419497f9722a3daafe3b4186f6b6457e060405160405180910390a3806000806101000a81548173ffffffffffffffffffffffffffffffffffffffff021916908373ffffffffffffffffffffffffffffffffffffffff160217905550505600a165627a7a72305820bdadb0cd8ac702de8259c651621b294b1087a6cadad6c54238e1af1e578896870029",
  "source": "/**\n * Created on 2018-08-13 10:32\n * @summary: \n * @author: Chris Nguyen\n */\npragma solidity ^0.4.24;\nimport './BBFreelancer.sol';\n\n/**\n * @title BBFreelancerPayment\n */\ncontract BBFreelancerPayment is BBFreelancer{\n  event PaymentClaimed(bytes jobHash, address indexed sender);\n  event PaymentAccepted(bytes jobHash, address indexed sender);\n  event PaymentRejected(bytes jobHash, address indexed sender);\n  event DisputeFinalized(bytes jobHash, address indexed winner);\n\n  // hirer ok with finish Job\n  /**\n   * @dev \n   * @param jobHash Job Hash\n   */\n  function acceptPayment(bytes jobHash)  public \n  isOwnerJob(jobHash) {\n    require(bbs.getUint(keccak256(abi.encodePacked(jobHash,'status'))) >= 2);\n    require(bbs.getUint(keccak256(abi.encodePacked(jobHash,'status'))) != 9);\n    require(bbs.getUint(keccak256(abi.encodePacked(jobHash,'status'))) != 5);\n    bbs.setUint(keccak256(abi.encodePacked(jobHash,'status')), 9);\n    address freelancer = bbs.getAddress(keccak256(abi.encodePacked(jobHash,'freelancer')));\n    uint256 bid = bbs.getUint(keccak256(abi.encodePacked(jobHash,freelancer)));\n    //TODO release funs\n    require(bbo.transfer(freelancer, bid));\n    emit PaymentAccepted(jobHash, msg.sender);\n  }\n  // hirer not ok with finish Job\n  /**\n   * @dev \n   * @param jobHash Job Hash\n   */\n  function rejectPayment(bytes jobHash) public \n  isOwnerJob(jobHash) {\n    require(bbs.getUint(keccak256(abi.encodePacked(jobHash,'status'))) == 2);\n    bbs.setUint(keccak256(abi.encodePacked(jobHash,'status')), 4);\n   emit PaymentRejected(jobHash, msg.sender);\n  }\n  // freelancer claimeJob with finish Job but hirer not accept payment \n  // need proof of work\n  /**\n   * @dev \n   * @param jobHash Job Hash\n   */\n  function claimePayment(bytes jobHash) public isFreelancerOfJob(jobHash)\n  {\n    require(bbs.getUint(keccak256(abi.encodePacked(jobHash,'status'))) == 2);\n    uint256 status = bbs.getUint(keccak256(abi.encodePacked(jobHash,'status')));\n    uint256 finishDate = bbs.getUint(keccak256(abi.encodePacked(jobHash,'finishedTimestamp')));\n    uint256 paymentLimitTimestamp = bbs.getUint(keccak256('PaymentLimitTimestamp'));\n    require((finishDate+paymentLimitTimestamp) <= now );\n    //require((finishDate+(14*24*3600)) < now );\n    bbs.setUint(keccak256(abi.encodePacked(jobHash,'status')), 5);\n    uint256 bid = bbs.getUint(keccak256(abi.encodePacked(jobHash,msg.sender)));\n    require(bbo.transfer(msg.sender, bid));\n    emit PaymentClaimed(jobHash, msg.sender);\n  }\n  /**\n   * @dev \n   * @param timestamp The time limit \n   */\n  function setPaymentLimitTimestamp(uint256 timestamp) public onlyOwner {\n    require(timestamp > 0);\n    bbs.setUint(keccak256('PaymentLimitTimestamp'), timestamp);\n  }\n  /**\n   * @dev \n   * @return time\n   */\n  function getPaymentLimitTimestamp () public view onlyOwner returns(uint256 time) {\n    time = bbs.getUint(keccak256('PaymentLimitTimestamp'));\n  }\n  /** \n  * @dev check payment status \n  **/\n  function checkPayment(bytes jobHash) public view returns(uint256, uint256){\n    uint256 finishDate = bbs.getUint(keccak256(abi.encodePacked(jobHash,'JOB_FINISHED_TIMESTAMP')));\n    uint256 paymentLimitTimestamp = bbs.getUint(keccak256('PAYMENT_LIMIT_TIMESTAMP'));\n    uint256 status = bbs.getUint(keccak256(abi.encodePacked(jobHash,'STATUS')));\n    return (status,finishDate.add(paymentLimitTimestamp));\n  }\n\n  /**\n   * @dev finalize Dispute\n   * @param jobHash The job Hash \n   */\n  function finalizeDispute(bytes jobHash)  public {\n    require(bbs.getAddress(keccak256(jobHash)) != 0x0);\n    require(bbs.getBool(keccak256(abi.encodePacked(jobHash, 'isFinalized')))!=true);\n\n    address winner = bbs.getAddress(keccak256(abi.encodePacked(jobHash, 'disputedWinner')));\n    require(winner!=address(0x0));\n    address freelancer = bbs.getAddress(keccak256(abi.encodePacked(jobHash,'freelancer')));\n    address jobOwner = bbs.getAddress(keccak256(jobHash));\n    uint256 bid = bbs.getUint(keccak256(abi.encodePacked(jobHash,freelancer)));\n    require(winner==freelancer||winner==jobOwner);\n    bbs.setBool(keccak256(abi.encodePacked(jobHash, 'isFinalized')), true);\n    require(bbo.transfer(winner, bid));\n    emit DisputeFinalized(jobHash, winner);\n  } \n}\n",
  "sourcePath": "/Users/yena/Documents/tuongnguyen/digital-contracts/src/contracts/BBFreelancerPayment.sol",
  "compiler": {
    "name": "solc",
    "version": "0.4.24+commit.e67f0147.Emscripten.clang"
  },
  "schemaVersion": "2.0.1",
  "updatedAt": "2018-08-29T06:20:11.490Z"
}