{
  "contractName": "BBFreelancerPayment",
  "abi": [
    {
      "constant": true,
      "inputs": [],
      "name": "bbo",
      "outputs": [
        {
          "name": "",
          "type": "address"
        }
      ],
      "payable": false,
      "stateMutability": "view",
      "type": "function"
    },
    {
      "constant": false,
      "inputs": [],
      "name": "getStorage",
      "outputs": [
        {
          "name": "",
          "type": "address"
        }
      ],
      "payable": false,
      "stateMutability": "nonpayable",
      "type": "function"
    },
    {
      "constant": false,
      "inputs": [],
      "name": "renounceOwnership",
      "outputs": [],
      "payable": false,
      "stateMutability": "nonpayable",
      "type": "function"
    },
    {
      "constant": false,
      "inputs": [
        {
          "name": "BBOAddress",
          "type": "address"
        }
      ],
      "name": "setBBO",
      "outputs": [],
      "payable": false,
      "stateMutability": "nonpayable",
      "type": "function"
    },
    {
      "constant": true,
      "inputs": [],
      "name": "owner",
      "outputs": [
        {
          "name": "",
          "type": "address"
        }
      ],
      "payable": false,
      "stateMutability": "view",
      "type": "function"
    },
    {
      "constant": false,
      "inputs": [
        {
          "name": "storageAddress",
          "type": "address"
        }
      ],
      "name": "setStorage",
      "outputs": [],
      "payable": false,
      "stateMutability": "nonpayable",
      "type": "function"
    },
    {
      "constant": false,
      "inputs": [
        {
          "name": "_newOwner",
          "type": "address"
        }
      ],
      "name": "transferOwnership",
      "outputs": [],
      "payable": false,
      "stateMutability": "nonpayable",
      "type": "function"
    },
    {
      "anonymous": false,
      "inputs": [
        {
          "indexed": false,
          "name": "jobHash",
          "type": "bytes"
        },
        {
          "indexed": true,
          "name": "sender",
          "type": "address"
        }
      ],
      "name": "PaymentClaimed",
      "type": "event"
    },
    {
      "anonymous": false,
      "inputs": [
        {
          "indexed": false,
          "name": "jobHash",
          "type": "bytes"
        },
        {
          "indexed": true,
          "name": "sender",
          "type": "address"
        }
      ],
      "name": "PaymentAccepted",
      "type": "event"
    },
    {
      "anonymous": false,
      "inputs": [
        {
          "indexed": false,
          "name": "jobHash",
          "type": "bytes"
        },
        {
          "indexed": true,
          "name": "sender",
          "type": "address"
        }
      ],
      "name": "PaymentRejected",
      "type": "event"
    },
    {
      "anonymous": false,
      "inputs": [
        {
          "indexed": false,
          "name": "jobHash",
          "type": "bytes"
        },
        {
          "indexed": true,
          "name": "winner",
          "type": "address"
        }
      ],
      "name": "DisputeFinalized",
      "type": "event"
    },
    {
      "anonymous": false,
      "inputs": [
        {
          "indexed": true,
          "name": "previousOwner",
          "type": "address"
        }
      ],
      "name": "OwnershipRenounced",
      "type": "event"
    },
    {
      "anonymous": false,
      "inputs": [
        {
          "indexed": true,
          "name": "previousOwner",
          "type": "address"
        },
        {
          "indexed": true,
          "name": "newOwner",
          "type": "address"
        }
      ],
      "name": "OwnershipTransferred",
      "type": "event"
    },
    {
      "constant": false,
      "inputs": [
        {
          "name": "jobHash",
          "type": "bytes"
        }
      ],
      "name": "acceptPayment",
      "outputs": [],
      "payable": false,
      "stateMutability": "nonpayable",
      "type": "function"
    },
    {
      "constant": false,
      "inputs": [
        {
          "name": "jobHash",
          "type": "bytes"
        }
      ],
      "name": "rejectPayment",
      "outputs": [],
      "payable": false,
      "stateMutability": "nonpayable",
      "type": "function"
    },
    {
      "constant": false,
      "inputs": [
        {
          "name": "jobHash",
          "type": "bytes"
        }
      ],
      "name": "claimePayment",
      "outputs": [],
      "payable": false,
      "stateMutability": "nonpayable",
      "type": "function"
    },
    {
      "constant": false,
      "inputs": [
        {
          "name": "timestamp",
          "type": "uint256"
        }
      ],
      "name": "setPaymentLimitTimestamp",
      "outputs": [],
      "payable": false,
      "stateMutability": "nonpayable",
      "type": "function"
    },
    {
      "constant": true,
      "inputs": [],
      "name": "getPaymentLimitTimestamp",
      "outputs": [
        {
          "name": "time",
          "type": "uint256"
        }
      ],
      "payable": false,
      "stateMutability": "view",
      "type": "function"
    },
    {
      "constant": false,
      "inputs": [
        {
          "name": "jobHash",
          "type": "bytes"
        }
      ],
      "name": "finalizeDispute",
      "outputs": [],
      "payable": false,
      "stateMutability": "nonpayable",
      "type": "function"
    }
  ],
  "bytecode": "0x60806040526000600160006101000a81548173ffffffffffffffffffffffffffffffffffffffff021916908373ffffffffffffffffffffffffffffffffffffffff1602179055506000600260006101000a81548173ffffffffffffffffffffffffffffffffffffffff021916908373ffffffffffffffffffffffffffffffffffffffff160217905550336000806101000a81548173ffffffffffffffffffffffffffffffffffffffff021916908373ffffffffffffffffffffffffffffffffffffffff160217905550613c47806100d76000396000f3006080604052600436106100c5576000357c0100000000000000000000000000000000000000000000000000000000900463ffffffff1680631e89bf06146100ca5780632be76acc146101215780632de8385b1461018a5780632f6aee25146101f35780633408f73a1461025c5780636ab0fbe3146102b3578063715018a61461031c5780637937f46d146103335780638da5cb5b146103765780639137c1a7146103cd578063f2fde38b14610410578063f8aa391a14610453578063faa23f821461047e575b600080fd5b3480156100d657600080fd5b506100df6104ab565b604051808273ffffffffffffffffffffffffffffffffffffffff1673ffffffffffffffffffffffffffffffffffffffff16815260200191505060405180910390f35b34801561012d57600080fd5b50610188600480360381019080803590602001908201803590602001908080601f01602080910402602001604051908101604052809392919081815260200183838082843782019150505050505091929192905050506104d1565b005b34801561019657600080fd5b506101f1600480360381019080803590602001908201803590602001908080601f0160208091040260200160405190810160405280939291908181526020018383808284378201915050505050509192919290505050610a80565b005b3480156101ff57600080fd5b5061025a600480360381019080803590602001908201803590602001908080601f0160208091040260200160405190810160405280939291908181526020018383808284378201915050505050509192919290505050611873565b005b34801561026857600080fd5b5061027161268d565b604051808273ffffffffffffffffffffffffffffffffffffffff1673ffffffffffffffffffffffffffffffffffffffff16815260200191505060405180910390f35b3480156102bf57600080fd5b5061031a600480360381019080803590602001908201803590602001908080601f0160208091040260200160405190810160405280939291908181526020018383808284378201915050505050509192919290505050612712565b005b34801561032857600080fd5b50610331613537565b005b34801561033f57600080fd5b50610374600480360381019080803573ffffffffffffffffffffffffffffffffffffffff169060200190929190505050613639565b005b34801561038257600080fd5b5061038b6136d8565b604051808273ffffffffffffffffffffffffffffffffffffffff1673ffffffffffffffffffffffffffffffffffffffff16815260200191505060405180910390f35b3480156103d957600080fd5b5061040e600480360381019080803573ffffffffffffffffffffffffffffffffffffffff1690602001909291905050506136fd565b005b34801561041c57600080fd5b50610451600480360381019080803573ffffffffffffffffffffffffffffffffffffffff16906020019092919050505061379c565b005b34801561045f57600080fd5b5061046861385b565b6040518082815260200191505060405180910390f35b34801561048a57600080fd5b506104a9600480360381019080803590602001909291905050506139c6565b005b600260009054906101000a900473ffffffffffffffffffffffffffffffffffffffff1681565b803373ffffffffffffffffffffffffffffffffffffffff16600160009054906101000a900473ffffffffffffffffffffffffffffffffffffffff1673ffffffffffffffffffffffffffffffffffffffff166321f8a721836040518082805190602001908083835b60208310151561055d5780518252602082019150602081019050602083039250610538565b6001836020036101000a03801982511681845116808217855250505050505090500191505060405180910390206040518263ffffffff167c0100000000000000000000000000000000000000000000000000000000028152600401808260001916600019168152602001915050602060405180830381600087803b1580156105e457600080fd5b505af11580156105f8573d6000803e3d6000fd5b505050506040513d602081101561060e57600080fd5b810190808051906020019092919050505073ffffffffffffffffffffffffffffffffffffffff1614151561064157600080fd5b6002600160009054906101000a900473ffffffffffffffffffffffffffffffffffffffff1673ffffffffffffffffffffffffffffffffffffffff1663bd02d0f5846040516020018082805190602001908083835b6020831015156106ba5780518252602082019150602081019050602083039250610695565b6001836020036101000a038019825116818451168082178552505050505050905001807f73746174757300000000000000000000000000000000000000000000000000008152506006019150506040516020818303038152906040526040518082805190602001908083835b60208310151561074b5780518252602082019150602081019050602083039250610726565b6001836020036101000a03801982511681845116808217855250505050505090500191505060405180910390206040518263ffffffff167c0100000000000000000000000000000000000000000000000000000000028152600401808260001916600019168152602001915050602060405180830381600087803b1580156107d257600080fd5b505af11580156107e6573d6000803e3d6000fd5b505050506040513d60208110156107fc57600080fd5b810190808051906020019092919050505014151561081957600080fd5b600160009054906101000a900473ffffffffffffffffffffffffffffffffffffffff1673ffffffffffffffffffffffffffffffffffffffff1663e2a4853a836040516020018082805190602001908083835b602083101515610890578051825260208201915060208101905060208303925061086b565b6001836020036101000a038019825116818451168082178552505050505050905001807f73746174757300000000000000000000000000000000000000000000000000008152506006019150506040516020818303038152906040526040518082805190602001908083835b60208310151561092157805182526020820191506020810190506020830392506108fc565b6001836020036101000a038019825116818451168082178552505050505050905001915050604051809103902060046040518363ffffffff167c010000000000000000000000000000000000000000000000000000000002815260040180836000191660001916815260200182815260200192505050600060405180830381600087803b1580156109b157600080fd5b505af11580156109c5573d6000803e3d6000fd5b505050503373ffffffffffffffffffffffffffffffffffffffff167fd5992f984e49c16e9082f101e62b87b3d79137cd8dcc3d62f721677ecc01afe8836040518080602001828103825283818151815260200191508051906020019080838360005b83811015610a42578082015181840152602081019050610a27565b50505050905090810190601f168015610a6f5780820380516001836020036101000a031916815260200191505b509250505060405180910390a25050565b600080600080843373ffffffffffffffffffffffffffffffffffffffff16600160009054906101000a900473ffffffffffffffffffffffffffffffffffffffff1673ffffffffffffffffffffffffffffffffffffffff166321f8a721836040516020018082805190602001908083835b602083101515610b155780518252602082019150602081019050602083039250610af0565b6001836020036101000a038019825116818451168082178552505050505050905001807f667265656c616e63657200000000000000000000000000000000000000000000815250600a019150506040516020818303038152906040526040518082805190602001908083835b602083101515610ba65780518252602082019150602081019050602083039250610b81565b6001836020036101000a03801982511681845116808217855250505050505090500191505060405180910390206040518263ffffffff167c0100000000000000000000000000000000000000000000000000000000028152600401808260001916600019168152602001915050602060405180830381600087803b158015610c2d57600080fd5b505af1158015610c41573d6000803e3d6000fd5b505050506040513d6020811015610c5757600080fd5b810190808051906020019092919050505073ffffffffffffffffffffffffffffffffffffffff16141515610c8a57600080fd5b6002600160009054906101000a900473ffffffffffffffffffffffffffffffffffffffff1673ffffffffffffffffffffffffffffffffffffffff1663bd02d0f5886040516020018082805190602001908083835b602083101515610d035780518252602082019150602081019050602083039250610cde565b6001836020036101000a038019825116818451168082178552505050505050905001807f73746174757300000000000000000000000000000000000000000000000000008152506006019150506040516020818303038152906040526040518082805190602001908083835b602083101515610d945780518252602082019150602081019050602083039250610d6f565b6001836020036101000a03801982511681845116808217855250505050505090500191505060405180910390206040518263ffffffff167c0100000000000000000000000000000000000000000000000000000000028152600401808260001916600019168152602001915050602060405180830381600087803b158015610e1b57600080fd5b505af1158015610e2f573d6000803e3d6000fd5b505050506040513d6020811015610e4557600080fd5b8101908080519060200190929190505050141515610e6257600080fd5b600160009054906101000a900473ffffffffffffffffffffffffffffffffffffffff1673ffffffffffffffffffffffffffffffffffffffff1663bd02d0f5876040516020018082805190602001908083835b602083101515610ed95780518252602082019150602081019050602083039250610eb4565b6001836020036101000a038019825116818451168082178552505050505050905001807f73746174757300000000000000000000000000000000000000000000000000008152506006019150506040516020818303038152906040526040518082805190602001908083835b602083101515610f6a5780518252602082019150602081019050602083039250610f45565b6001836020036101000a03801982511681845116808217855250505050505090500191505060405180910390206040518263ffffffff167c0100000000000000000000000000000000000000000000000000000000028152600401808260001916600019168152602001915050602060405180830381600087803b158015610ff157600080fd5b505af1158015611005573d6000803e3d6000fd5b505050506040513d602081101561101b57600080fd5b81019080805190602001909291905050509450600160009054906101000a900473ffffffffffffffffffffffffffffffffffffffff1673ffffffffffffffffffffffffffffffffffffffff1663bd02d0f5876040516020018082805190602001908083835b6020831015156110a55780518252602082019150602081019050602083039250611080565b6001836020036101000a038019825116818451168082178552505050505050905001807f66696e697368656454696d657374616d700000000000000000000000000000008152506011019150506040516020818303038152906040526040518082805190602001908083835b6020831015156111365780518252602082019150602081019050602083039250611111565b6001836020036101000a03801982511681845116808217855250505050505090500191505060405180910390206040518263ffffffff167c0100000000000000000000000000000000000000000000000000000000028152600401808260001916600019168152602001915050602060405180830381600087803b1580156111bd57600080fd5b505af11580156111d1573d6000803e3d6000fd5b505050506040513d60208110156111e757600080fd5b81019080805190602001909291905050509350600160009054906101000a900473ffffffffffffffffffffffffffffffffffffffff1673ffffffffffffffffffffffffffffffffffffffff1663bd02d0f560405180807f5061796d656e744c696d697454696d657374616d700000000000000000000000815250601501905060405180910390206040518263ffffffff167c0100000000000000000000000000000000000000000000000000000000028152600401808260001916600019168152602001915050602060405180830381600087803b1580156112c857600080fd5b505af11580156112dc573d6000803e3d6000fd5b505050506040513d60208110156112f257600080fd5b81019080805190602001909291905050509250428385011115151561131657600080fd5b600160009054906101000a900473ffffffffffffffffffffffffffffffffffffffff1673ffffffffffffffffffffffffffffffffffffffff1663e2a4853a876040516020018082805190602001908083835b60208310151561138d5780518252602082019150602081019050602083039250611368565b6001836020036101000a038019825116818451168082178552505050505050905001807f73746174757300000000000000000000000000000000000000000000000000008152506006019150506040516020818303038152906040526040518082805190602001908083835b60208310151561141e57805182526020820191506020810190506020830392506113f9565b6001836020036101000a038019825116818451168082178552505050505050905001915050604051809103902060056040518363ffffffff167c010000000000000000000000000000000000000000000000000000000002815260040180836000191660001916815260200182815260200192505050600060405180830381600087803b1580156114ae57600080fd5b505af11580156114c2573d6000803e3d6000fd5b50505050600160009054906101000a900473ffffffffffffffffffffffffffffffffffffffff1673ffffffffffffffffffffffffffffffffffffffff1663bd02d0f587336040516020018083805190602001908083835b60208310151561153e5780518252602082019150602081019050602083039250611519565b6001836020036101000a0380198251168184511680821785525050505050509050018273ffffffffffffffffffffffffffffffffffffffff1673ffffffffffffffffffffffffffffffffffffffff166c01000000000000000000000000028152601401925050506040516020818303038152906040526040518082805190602001908083835b6020831015156115e957805182526020820191506020810190506020830392506115c4565b6001836020036101000a03801982511681845116808217855250505050505090500191505060405180910390206040518263ffffffff167c0100000000000000000000000000000000000000000000000000000000028152600401808260001916600019168152602001915050602060405180830381600087803b15801561167057600080fd5b505af1158015611684573d6000803e3d6000fd5b505050506040513d602081101561169a57600080fd5b81019080805190602001909291905050509150600260009054906101000a900473ffffffffffffffffffffffffffffffffffffffff1673ffffffffffffffffffffffffffffffffffffffff1663a9059cbb33846040518363ffffffff167c0100000000000000000000000000000000000000000000000000000000028152600401808373ffffffffffffffffffffffffffffffffffffffff1673ffffffffffffffffffffffffffffffffffffffff16815260200182815260200192505050602060405180830381600087803b15801561177257600080fd5b505af1158015611786573d6000803e3d6000fd5b505050506040513d602081101561179c57600080fd5b810190808051906020019092919050505015156117b857600080fd5b3373ffffffffffffffffffffffffffffffffffffffff167f1b12fae60d4bf916e4b3da0e1389482769232aa8d895b8c527a948b715f2cd93876040518080602001828103825283818151815260200191508051906020019080838360005b83811015611831578082015181840152602081019050611816565b50505050905090810190601f16801561185e5780820380516001836020036101000a031916815260200191505b509250505060405180910390a2505050505050565b6000806000806000600160009054906101000a900473ffffffffffffffffffffffffffffffffffffffff1673ffffffffffffffffffffffffffffffffffffffff166321f8a721876040518082805190602001908083835b6020831015156118ef57805182526020820191506020810190506020830392506118ca565b6001836020036101000a03801982511681845116808217855250505050505090500191505060405180910390206040518263ffffffff167c0100000000000000000000000000000000000000000000000000000000028152600401808260001916600019168152602001915050602060405180830381600087803b15801561197657600080fd5b505af115801561198a573d6000803e3d6000fd5b505050506040513d60208110156119a057600080fd5b810190808051906020019092919050505073ffffffffffffffffffffffffffffffffffffffff16141515156119d457600080fd5b60011515600160009054906101000a900473ffffffffffffffffffffffffffffffffffffffff1673ffffffffffffffffffffffffffffffffffffffff16637ae1cfca876040516020018082805190602001908083835b602083101515611a4f5780518252602082019150602081019050602083039250611a2a565b6001836020036101000a038019825116818451168082178552505050505050905001807f697346696e616c697a6564000000000000000000000000000000000000000000815250600b019150506040516020818303038152906040526040518082805190602001908083835b602083101515611ae05780518252602082019150602081019050602083039250611abb565b6001836020036101000a03801982511681845116808217855250505050505090500191505060405180910390206040518263ffffffff167c0100000000000000000000000000000000000000000000000000000000028152600401808260001916600019168152602001915050602060405180830381600087803b158015611b6757600080fd5b505af1158015611b7b573d6000803e3d6000fd5b505050506040513d6020811015611b9157600080fd5b8101908080519060200190929190505050151514151515611bb157600080fd5b600160009054906101000a900473ffffffffffffffffffffffffffffffffffffffff1673ffffffffffffffffffffffffffffffffffffffff166321f8a721866040516020018082805190602001908083835b602083101515611c285780518252602082019150602081019050602083039250611c03565b6001836020036101000a038019825116818451168082178552505050505050905001807f646973707574656457696e6e6572000000000000000000000000000000000000815250600e019150506040516020818303038152906040526040518082805190602001908083835b602083101515611cb95780518252602082019150602081019050602083039250611c94565b6001836020036101000a03801982511681845116808217855250505050505090500191505060405180910390206040518263ffffffff167c0100000000000000000000000000000000000000000000000000000000028152600401808260001916600019168152602001915050602060405180830381600087803b158015611d4057600080fd5b505af1158015611d54573d6000803e3d6000fd5b505050506040513d6020811015611d6a57600080fd5b81019080805190602001909291905050509350600073ffffffffffffffffffffffffffffffffffffffff168473ffffffffffffffffffffffffffffffffffffffff1614151515611db957600080fd5b600160009054906101000a900473ffffffffffffffffffffffffffffffffffffffff1673ffffffffffffffffffffffffffffffffffffffff166321f8a721866040516020018082805190602001908083835b602083101515611e305780518252602082019150602081019050602083039250611e0b565b6001836020036101000a038019825116818451168082178552505050505050905001807f667265656c616e63657200000000000000000000000000000000000000000000815250600a019150506040516020818303038152906040526040518082805190602001908083835b602083101515611ec15780518252602082019150602081019050602083039250611e9c565b6001836020036101000a03801982511681845116808217855250505050505090500191505060405180910390206040518263ffffffff167c0100000000000000000000000000000000000000000000000000000000028152600401808260001916600019168152602001915050602060405180830381600087803b158015611f4857600080fd5b505af1158015611f5c573d6000803e3d6000fd5b505050506040513d6020811015611f7257600080fd5b81019080805190602001909291905050509250600160009054906101000a900473ffffffffffffffffffffffffffffffffffffffff1673ffffffffffffffffffffffffffffffffffffffff166321f8a721866040518082805190602001908083835b602083101515611ff95780518252602082019150602081019050602083039250611fd4565b6001836020036101000a03801982511681845116808217855250505050505090500191505060405180910390206040518263ffffffff167c0100000000000000000000000000000000000000000000000000000000028152600401808260001916600019168152602001915050602060405180830381600087803b15801561208057600080fd5b505af1158015612094573d6000803e3d6000fd5b505050506040513d60208110156120aa57600080fd5b81019080805190602001909291905050509150600160009054906101000a900473ffffffffffffffffffffffffffffffffffffffff1673ffffffffffffffffffffffffffffffffffffffff1663bd02d0f586856040516020018083805190602001908083835b6020831015156121355780518252602082019150602081019050602083039250612110565b6001836020036101000a0380198251168184511680821785525050505050509050018273ffffffffffffffffffffffffffffffffffffffff1673ffffffffffffffffffffffffffffffffffffffff166c01000000000000000000000000028152601401925050506040516020818303038152906040526040518082805190602001908083835b6020831015156121e057805182526020820191506020810190506020830392506121bb565b6001836020036101000a03801982511681845116808217855250505050505090500191505060405180910390206040518263ffffffff167c0100000000000000000000000000000000000000000000000000000000028152600401808260001916600019168152602001915050602060405180830381600087803b15801561226757600080fd5b505af115801561227b573d6000803e3d6000fd5b505050506040513d602081101561229157600080fd5b810190808051906020019092919050505090508273ffffffffffffffffffffffffffffffffffffffff168473ffffffffffffffffffffffffffffffffffffffff16148061230957508173ffffffffffffffffffffffffffffffffffffffff168473ffffffffffffffffffffffffffffffffffffffff16145b151561231457600080fd5b600160009054906101000a900473ffffffffffffffffffffffffffffffffffffffff1673ffffffffffffffffffffffffffffffffffffffff1663abfdcced866040516020018082805190602001908083835b60208310151561238b5780518252602082019150602081019050602083039250612366565b6001836020036101000a038019825116818451168082178552505050505050905001807f697346696e616c697a6564000000000000000000000000000000000000000000815250600b019150506040516020818303038152906040526040518082805190602001908083835b60208310151561241c57805182526020820191506020810190506020830392506123f7565b6001836020036101000a038019825116818451168082178552505050505050905001915050604051809103902060016040518363ffffffff167c01000000000000000000000000000000000000000000000000000000000281526004018083600019166000191681526020018215151515815260200192505050600060405180830381600087803b1580156124b057600080fd5b505af11580156124c4573d6000803e3d6000fd5b50505050600260009054906101000a900473ffffffffffffffffffffffffffffffffffffffff1673ffffffffffffffffffffffffffffffffffffffff1663a9059cbb85836040518363ffffffff167c0100000000000000000000000000000000000000000000000000000000028152600401808373ffffffffffffffffffffffffffffffffffffffff1673ffffffffffffffffffffffffffffffffffffffff16815260200182815260200192505050602060405180830381600087803b15801561258d57600080fd5b505af11580156125a1573d6000803e3d6000fd5b505050506040513d60208110156125b757600080fd5b810190808051906020019092919050505015156125d357600080fd5b8373ffffffffffffffffffffffffffffffffffffffff167fcdae23650587a9b744f7f969a59f7359512b466ea69cf51df8c2ac23a4f6835a866040518080602001828103825283818151815260200191508051906020019080838360005b8381101561264c578082015181840152602081019050612631565b50505050905090810190601f1680156126795780820380516001836020036101000a031916815260200191505b509250505060405180910390a25050505050565b60008060009054906101000a900473ffffffffffffffffffffffffffffffffffffffff1673ffffffffffffffffffffffffffffffffffffffff163373ffffffffffffffffffffffffffffffffffffffff161415156126ea57600080fd5b600160009054906101000a900473ffffffffffffffffffffffffffffffffffffffff16905090565b600080823373ffffffffffffffffffffffffffffffffffffffff16600160009054906101000a900473ffffffffffffffffffffffffffffffffffffffff1673ffffffffffffffffffffffffffffffffffffffff166321f8a721836040518082805190602001908083835b6020831015156127a1578051825260208201915060208101905060208303925061277c565b6001836020036101000a03801982511681845116808217855250505050505090500191505060405180910390206040518263ffffffff167c0100000000000000000000000000000000000000000000000000000000028152600401808260001916600019168152602001915050602060405180830381600087803b15801561282857600080fd5b505af115801561283c573d6000803e3d6000fd5b505050506040513d602081101561285257600080fd5b810190808051906020019092919050505073ffffffffffffffffffffffffffffffffffffffff1614151561288557600080fd5b6002600160009054906101000a900473ffffffffffffffffffffffffffffffffffffffff1673ffffffffffffffffffffffffffffffffffffffff1663bd02d0f5866040516020018082805190602001908083835b6020831015156128fe57805182526020820191506020810190506020830392506128d9565b6001836020036101000a038019825116818451168082178552505050505050905001807f73746174757300000000000000000000000000000000000000000000000000008152506006019150506040516020818303038152906040526040518082805190602001908083835b60208310151561298f578051825260208201915060208101905060208303925061296a565b6001836020036101000a03801982511681845116808217855250505050505090500191505060405180910390206040518263ffffffff167c0100000000000000000000000000000000000000000000000000000000028152600401808260001916600019168152602001915050602060405180830381600087803b158015612a1657600080fd5b505af1158015612a2a573d6000803e3d6000fd5b505050506040513d6020811015612a4057600080fd5b810190808051906020019092919050505010151515612a5e57600080fd5b6009600160009054906101000a900473ffffffffffffffffffffffffffffffffffffffff1673ffffffffffffffffffffffffffffffffffffffff1663bd02d0f5866040516020018082805190602001908083835b602083101515612ad75780518252602082019150602081019050602083039250612ab2565b6001836020036101000a038019825116818451168082178552505050505050905001807f73746174757300000000000000000000000000000000000000000000000000008152506006019150506040516020818303038152906040526040518082805190602001908083835b602083101515612b685780518252602082019150602081019050602083039250612b43565b6001836020036101000a03801982511681845116808217855250505050505090500191505060405180910390206040518263ffffffff167c0100000000000000000000000000000000000000000000000000000000028152600401808260001916600019168152602001915050602060405180830381600087803b158015612bef57600080fd5b505af1158015612c03573d6000803e3d6000fd5b505050506040513d6020811015612c1957600080fd5b810190808051906020019092919050505014151515612c3757600080fd5b6005600160009054906101000a900473ffffffffffffffffffffffffffffffffffffffff1673ffffffffffffffffffffffffffffffffffffffff1663bd02d0f5866040516020018082805190602001908083835b602083101515612cb05780518252602082019150602081019050602083039250612c8b565b6001836020036101000a038019825116818451168082178552505050505050905001807f73746174757300000000000000000000000000000000000000000000000000008152506006019150506040516020818303038152906040526040518082805190602001908083835b602083101515612d415780518252602082019150602081019050602083039250612d1c565b6001836020036101000a03801982511681845116808217855250505050505090500191505060405180910390206040518263ffffffff167c0100000000000000000000000000000000000000000000000000000000028152600401808260001916600019168152602001915050602060405180830381600087803b158015612dc857600080fd5b505af1158015612ddc573d6000803e3d6000fd5b505050506040513d6020811015612df257600080fd5b810190808051906020019092919050505014151515612e1057600080fd5b600160009054906101000a900473ffffffffffffffffffffffffffffffffffffffff1673ffffffffffffffffffffffffffffffffffffffff1663e2a4853a856040516020018082805190602001908083835b602083101515612e875780518252602082019150602081019050602083039250612e62565b6001836020036101000a038019825116818451168082178552505050505050905001807f73746174757300000000000000000000000000000000000000000000000000008152506006019150506040516020818303038152906040526040518082805190602001908083835b602083101515612f185780518252602082019150602081019050602083039250612ef3565b6001836020036101000a038019825116818451168082178552505050505050905001915050604051809103902060096040518363ffffffff167c010000000000000000000000000000000000000000000000000000000002815260040180836000191660001916815260200182815260200192505050600060405180830381600087803b158015612fa857600080fd5b505af1158015612fbc573d6000803e3d6000fd5b50505050600160009054906101000a900473ffffffffffffffffffffffffffffffffffffffff1673ffffffffffffffffffffffffffffffffffffffff166321f8a721856040516020018082805190602001908083835b6020831015156130375780518252602082019150602081019050602083039250613012565b6001836020036101000a038019825116818451168082178552505050505050905001807f667265656c616e63657200000000000000000000000000000000000000000000815250600a019150506040516020818303038152906040526040518082805190602001908083835b6020831015156130c857805182526020820191506020810190506020830392506130a3565b6001836020036101000a03801982511681845116808217855250505050505090500191505060405180910390206040518263ffffffff167c0100000000000000000000000000000000000000000000000000000000028152600401808260001916600019168152602001915050602060405180830381600087803b15801561314f57600080fd5b505af1158015613163573d6000803e3d6000fd5b505050506040513d602081101561317957600080fd5b81019080805190602001909291905050509250600160009054906101000a900473ffffffffffffffffffffffffffffffffffffffff1673ffffffffffffffffffffffffffffffffffffffff1663bd02d0f585856040516020018083805190602001908083835b60208310151561320457805182526020820191506020810190506020830392506131df565b6001836020036101000a0380198251168184511680821785525050505050509050018273ffffffffffffffffffffffffffffffffffffffff1673ffffffffffffffffffffffffffffffffffffffff166c01000000000000000000000000028152601401925050506040516020818303038152906040526040518082805190602001908083835b6020831015156132af578051825260208201915060208101905060208303925061328a565b6001836020036101000a03801982511681845116808217855250505050505090500191505060405180910390206040518263ffffffff167c0100000000000000000000000000000000000000000000000000000000028152600401808260001916600019168152602001915050602060405180830381600087803b15801561333657600080fd5b505af115801561334a573d6000803e3d6000fd5b505050506040513d602081101561336057600080fd5b81019080805190602001909291905050509150600260009054906101000a900473ffffffffffffffffffffffffffffffffffffffff1673ffffffffffffffffffffffffffffffffffffffff1663a9059cbb84846040518363ffffffff167c0100000000000000000000000000000000000000000000000000000000028152600401808373ffffffffffffffffffffffffffffffffffffffff1673ffffffffffffffffffffffffffffffffffffffff16815260200182815260200192505050602060405180830381600087803b15801561343857600080fd5b505af115801561344c573d6000803e3d6000fd5b505050506040513d602081101561346257600080fd5b8101908080519060200190929190505050151561347e57600080fd5b3373ffffffffffffffffffffffffffffffffffffffff167f7806707268d20331fff823a86de33fefb6af822e27e30e26c12e696fee000360856040518080602001828103825283818151815260200191508051906020019080838360005b838110156134f75780820151818401526020810190506134dc565b50505050905090810190601f1680156135245780820380516001836020036101000a031916815260200191505b509250505060405180910390a250505050565b6000809054906101000a900473ffffffffffffffffffffffffffffffffffffffff1673ffffffffffffffffffffffffffffffffffffffff163373ffffffffffffffffffffffffffffffffffffffff1614151561359257600080fd5b6000809054906101000a900473ffffffffffffffffffffffffffffffffffffffff1673ffffffffffffffffffffffffffffffffffffffff167ff8df31144d9c2f0f6b59d69b8b98abd5459d07f2742c4df920b25aae33c6482060405160405180910390a260008060006101000a81548173ffffffffffffffffffffffffffffffffffffffff021916908373ffffffffffffffffffffffffffffffffffffffff160217905550565b6000809054906101000a900473ffffffffffffffffffffffffffffffffffffffff1673ffffffffffffffffffffffffffffffffffffffff163373ffffffffffffffffffffffffffffffffffffffff1614151561369457600080fd5b80600260006101000a81548173ffffffffffffffffffffffffffffffffffffffff021916908373ffffffffffffffffffffffffffffffffffffffff16021790555050565b6000809054906101000a900473ffffffffffffffffffffffffffffffffffffffff1681565b6000809054906101000a900473ffffffffffffffffffffffffffffffffffffffff1673ffffffffffffffffffffffffffffffffffffffff163373ffffffffffffffffffffffffffffffffffffffff1614151561375857600080fd5b80600160006101000a81548173ffffffffffffffffffffffffffffffffffffffff021916908373ffffffffffffffffffffffffffffffffffffffff16021790555050565b600073ffffffffffffffffffffffffffffffffffffffff166000809054906101000a900473ffffffffffffffffffffffffffffffffffffffff1673ffffffffffffffffffffffffffffffffffffffff1614151561384f576000809054906101000a900473ffffffffffffffffffffffffffffffffffffffff1673ffffffffffffffffffffffffffffffffffffffff163373ffffffffffffffffffffffffffffffffffffffff1614151561384e57600080fd5b5b61385881613b21565b50565b60008060009054906101000a900473ffffffffffffffffffffffffffffffffffffffff1673ffffffffffffffffffffffffffffffffffffffff163373ffffffffffffffffffffffffffffffffffffffff161415156138b857600080fd5b600160009054906101000a900473ffffffffffffffffffffffffffffffffffffffff1673ffffffffffffffffffffffffffffffffffffffff1663bd02d0f560405180807f5061796d656e744c696d697454696d657374616d700000000000000000000000815250601501905060405180910390206040518263ffffffff167c0100000000000000000000000000000000000000000000000000000000028152600401808260001916600019168152602001915050602060405180830381600087803b15801561398657600080fd5b505af115801561399a573d6000803e3d6000fd5b505050506040513d60208110156139b057600080fd5b8101908080519060200190929190505050905090565b6000809054906101000a900473ffffffffffffffffffffffffffffffffffffffff1673ffffffffffffffffffffffffffffffffffffffff163373ffffffffffffffffffffffffffffffffffffffff16141515613a2157600080fd5b600081111515613a3057600080fd5b600160009054906101000a900473ffffffffffffffffffffffffffffffffffffffff1673ffffffffffffffffffffffffffffffffffffffff1663e2a4853a60405180807f5061796d656e744c696d697454696d657374616d70000000000000000000000081525060150190506040518091039020836040518363ffffffff167c010000000000000000000000000000000000000000000000000000000002815260040180836000191660001916815260200182815260200192505050600060405180830381600087803b158015613b0657600080fd5b505af1158015613b1a573d6000803e3d6000fd5b5050505050565b600073ffffffffffffffffffffffffffffffffffffffff168173ffffffffffffffffffffffffffffffffffffffff1614151515613b5d57600080fd5b8073ffffffffffffffffffffffffffffffffffffffff166000809054906101000a900473ffffffffffffffffffffffffffffffffffffffff1673ffffffffffffffffffffffffffffffffffffffff167f8be0079c531659141344cd1fd0a4f28419497f9722a3daafe3b4186f6b6457e060405160405180910390a3806000806101000a81548173ffffffffffffffffffffffffffffffffffffffff021916908373ffffffffffffffffffffffffffffffffffffffff160217905550505600a165627a7a723058203752b09e882a8dbf4219cc9c178fafe92669593b6f7226e8a631cd1a6f6e64190029",
  "source": "/**\n * Created on 2018-08-13 10:32\n * @summary: \n * @author: Chris Nguyen\n */\npragma solidity ^0.4.24;\nimport './BBFreelancer.sol';\n\n/**\n * @title BBFreelancerPayment\n */\ncontract BBFreelancerPayment is BBFreelancer{\n  event PaymentClaimed(bytes jobHash, address indexed sender);\n  event PaymentAccepted(bytes jobHash, address indexed sender);\n  event PaymentRejected(bytes jobHash, address indexed sender);\n  event DisputeFinalized(bytes jobHash, address indexed winner);\n\n  // hirer ok with finish Job\n  /**\n   * @dev \n   * @param jobHash Job Hash\n   */\n  function acceptPayment(bytes jobHash)  public \n  isOwnerJob(jobHash) {\n    require(bbs.getUint(keccak256(abi.encodePacked(jobHash,'status'))) >= 2);\n    require(bbs.getUint(keccak256(abi.encodePacked(jobHash,'status'))) != 9);\n    require(bbs.getUint(keccak256(abi.encodePacked(jobHash,'status'))) != 5);\n    bbs.setUint(keccak256(abi.encodePacked(jobHash,'status')), 9);\n    address freelancer = bbs.getAddress(keccak256(abi.encodePacked(jobHash,'freelancer')));\n    uint256 bid = bbs.getUint(keccak256(abi.encodePacked(jobHash,freelancer)));\n    //TODO release funs\n    require(bbo.transfer(freelancer, bid));\n    emit PaymentAccepted(jobHash, msg.sender);\n  }\n  // hirer not ok with finish Job\n  /**\n   * @dev \n   * @param jobHash Job Hash\n   */\n  function rejectPayment(bytes jobHash) public \n  isOwnerJob(jobHash) {\n    require(bbs.getUint(keccak256(abi.encodePacked(jobHash,'status'))) == 2);\n    bbs.setUint(keccak256(abi.encodePacked(jobHash,'status')), 4);\n   emit PaymentRejected(jobHash, msg.sender);\n  }\n  // freelancer claimeJob with finish Job but hirer not accept payment \n  // need proof of work\n  /**\n   * @dev \n   * @param jobHash Job Hash\n   */\n  function claimePayment(bytes jobHash) public isFreelancerOfJob(jobHash)\n  {\n    require(bbs.getUint(keccak256(abi.encodePacked(jobHash,'status'))) == 2);\n    uint256 status = bbs.getUint(keccak256(abi.encodePacked(jobHash,'status')));\n    uint256 finishDate = bbs.getUint(keccak256(abi.encodePacked(jobHash,'finishedTimestamp')));\n    uint256 paymentLimitTimestamp = bbs.getUint(keccak256('PaymentLimitTimestamp'));\n    require((finishDate+paymentLimitTimestamp) <= now );\n    //require((finishDate+(14*24*3600)) < now );\n    bbs.setUint(keccak256(abi.encodePacked(jobHash,'status')), 5);\n    uint256 bid = bbs.getUint(keccak256(abi.encodePacked(jobHash,msg.sender)));\n    require(bbo.transfer(msg.sender, bid));\n    emit PaymentClaimed(jobHash, msg.sender);\n  }\n  /**\n   * @dev \n   * @param timestamp The time limit \n   */\n  function setPaymentLimitTimestamp(uint256 timestamp) public onlyOwner {\n    require(timestamp > 0);\n    bbs.setUint(keccak256('PaymentLimitTimestamp'), timestamp);\n  }\n  /**\n   * @dev \n   * @return time\n   */\n  function getPaymentLimitTimestamp () public view onlyOwner returns(uint256 time) {\n    time = bbs.getUint(keccak256('PaymentLimitTimestamp'));\n  }\n\n  /**\n   * @dev finalize Dispute\n   * @param jobHash The job Hash \n   */\n  function finalizeDispute(bytes jobHash)  public {\n    require(bbs.getAddress(keccak256(jobHash)) != 0x0);\n    require(bbs.getBool(keccak256(abi.encodePacked(jobHash, 'isFinalized')))!=true);\n\n    address winner = bbs.getAddress(keccak256(abi.encodePacked(jobHash, 'disputedWinner')));\n    require(winner!=address(0x0));\n    address freelancer = bbs.getAddress(keccak256(abi.encodePacked(jobHash,'freelancer')));\n    address jobOwner = bbs.getAddress(keccak256(jobHash));\n    uint256 bid = bbs.getUint(keccak256(abi.encodePacked(jobHash,freelancer)));\n    require(winner==freelancer||winner==jobOwner);\n    bbs.setBool(keccak256(abi.encodePacked(jobHash, 'isFinalized')), true);\n    require(bbo.transfer(winner, bid));\n    emit DisputeFinalized(jobHash, winner);\n  } \n}",
  "sourcePath": "/Users/yena/Documents/tuongnguyen/digital-contracts/src/contracts/BBFreelancerPayment.sol",
  "compiler": {
    "name": "solc",
    "version": "0.4.24+commit.e67f0147.Emscripten.clang"
  },
  "schemaVersion": "2.0.1",
  "updatedAt": "2018-08-24T09:47:26.989Z"
}