{
  "contractName": "BBFreelancerPayment",
  "abi": [
    {
      "constant": true,
      "inputs": [
        {
          "name": "jobHash",
          "type": "bytes"
        }
      ],
      "name": "isJobHasFreelancer",
      "outputs": [
        {
          "name": "",
          "type": "bool"
        }
      ],
      "payable": false,
      "stateMutability": "view",
      "type": "function"
    },
    {
      "constant": true,
      "inputs": [
        {
          "name": "jobHash",
          "type": "bytes"
        }
      ],
      "name": "isJobExpired",
      "outputs": [
        {
          "name": "",
          "type": "bool"
        }
      ],
      "payable": false,
      "stateMutability": "view",
      "type": "function"
    },
    {
      "constant": true,
      "inputs": [],
      "name": "bbo",
      "outputs": [
        {
          "name": "",
          "type": "address"
        }
      ],
      "payable": false,
      "stateMutability": "view",
      "type": "function"
    },
    {
      "constant": true,
      "inputs": [],
      "name": "bbs",
      "outputs": [
        {
          "name": "",
          "type": "address"
        }
      ],
      "payable": false,
      "stateMutability": "view",
      "type": "function"
    },
    {
      "constant": true,
      "inputs": [
        {
          "name": "sender",
          "type": "address"
        },
        {
          "name": "jobHash",
          "type": "bytes"
        }
      ],
      "name": "isJobCancel",
      "outputs": [
        {
          "name": "",
          "type": "bool"
        }
      ],
      "payable": false,
      "stateMutability": "view",
      "type": "function"
    },
    {
      "constant": true,
      "inputs": [
        {
          "name": "sender",
          "type": "address"
        },
        {
          "name": "jobHash",
          "type": "bytes"
        }
      ],
      "name": "isOwnerOfJob",
      "outputs": [
        {
          "name": "",
          "type": "bool"
        }
      ],
      "payable": false,
      "stateMutability": "view",
      "type": "function"
    },
    {
      "constant": false,
      "inputs": [],
      "name": "renounceOwnership",
      "outputs": [],
      "payable": false,
      "stateMutability": "nonpayable",
      "type": "function"
    },
    {
      "constant": false,
      "inputs": [
        {
          "name": "BBOAddress",
          "type": "address"
        }
      ],
      "name": "setBBO",
      "outputs": [],
      "payable": false,
      "stateMutability": "nonpayable",
      "type": "function"
    },
    {
      "constant": true,
      "inputs": [],
      "name": "owner",
      "outputs": [
        {
          "name": "",
          "type": "address"
        }
      ],
      "payable": false,
      "stateMutability": "view",
      "type": "function"
    },
    {
      "constant": false,
      "inputs": [
        {
          "name": "anyToken",
          "type": "address"
        }
      ],
      "name": "emergencyERC20Drain",
      "outputs": [],
      "payable": false,
      "stateMutability": "nonpayable",
      "type": "function"
    },
    {
      "constant": false,
      "inputs": [
        {
          "name": "storageAddress",
          "type": "address"
        }
      ],
      "name": "setStorage",
      "outputs": [],
      "payable": false,
      "stateMutability": "nonpayable",
      "type": "function"
    },
    {
      "constant": true,
      "inputs": [
        {
          "name": "jobHash",
          "type": "bytes"
        }
      ],
      "name": "isJobStart",
      "outputs": [
        {
          "name": "",
          "type": "bool"
        }
      ],
      "payable": false,
      "stateMutability": "view",
      "type": "function"
    },
    {
      "constant": false,
      "inputs": [
        {
          "name": "_newOwner",
          "type": "address"
        }
      ],
      "name": "transferOwnership",
      "outputs": [],
      "payable": false,
      "stateMutability": "nonpayable",
      "type": "function"
    },
    {
      "anonymous": false,
      "inputs": [
        {
          "indexed": true,
          "name": "indexJobHash",
          "type": "bytes32"
        },
        {
          "indexed": true,
          "name": "sender",
          "type": "address"
        },
        {
          "indexed": false,
          "name": "jobHash",
          "type": "bytes"
        }
      ],
      "name": "PaymentClaimed",
      "type": "event"
    },
    {
      "anonymous": false,
      "inputs": [
        {
          "indexed": true,
          "name": "indexJobHash",
          "type": "bytes32"
        },
        {
          "indexed": true,
          "name": "sender",
          "type": "address"
        },
        {
          "indexed": false,
          "name": "jobHash",
          "type": "bytes"
        }
      ],
      "name": "PaymentAccepted",
      "type": "event"
    },
    {
      "anonymous": false,
      "inputs": [
        {
          "indexed": true,
          "name": "indexJobHash",
          "type": "bytes32"
        },
        {
          "indexed": true,
          "name": "sender",
          "type": "address"
        },
        {
          "indexed": false,
          "name": "reason",
          "type": "uint256"
        },
        {
          "indexed": false,
          "name": "rejectedTimestamp",
          "type": "uint256"
        },
        {
          "indexed": false,
          "name": "jobHash",
          "type": "bytes"
        }
      ],
      "name": "PaymentRejected",
      "type": "event"
    },
    {
      "anonymous": false,
      "inputs": [
        {
          "indexed": true,
          "name": "indexJobHash",
          "type": "bytes32"
        },
        {
          "indexed": true,
          "name": "winner",
          "type": "address"
        },
        {
          "indexed": false,
          "name": "jobHash",
          "type": "bytes"
        }
      ],
      "name": "DisputeFinalized",
      "type": "event"
    },
    {
      "anonymous": false,
      "inputs": [
        {
          "indexed": true,
          "name": "previousOwner",
          "type": "address"
        }
      ],
      "name": "OwnershipRenounced",
      "type": "event"
    },
    {
      "anonymous": false,
      "inputs": [
        {
          "indexed": true,
          "name": "previousOwner",
          "type": "address"
        },
        {
          "indexed": true,
          "name": "newOwner",
          "type": "address"
        }
      ],
      "name": "OwnershipTransferred",
      "type": "event"
    },
    {
      "constant": false,
      "inputs": [
        {
          "name": "jobHash",
          "type": "bytes"
        }
      ],
      "name": "acceptPayment",
      "outputs": [],
      "payable": false,
      "stateMutability": "nonpayable",
      "type": "function"
    },
    {
      "constant": false,
      "inputs": [
        {
          "name": "jobHash",
          "type": "bytes"
        },
        {
          "name": "reason",
          "type": "uint256"
        }
      ],
      "name": "rejectPayment",
      "outputs": [],
      "payable": false,
      "stateMutability": "nonpayable",
      "type": "function"
    },
    {
      "constant": false,
      "inputs": [
        {
          "name": "jobHash",
          "type": "bytes"
        }
      ],
      "name": "claimePayment",
      "outputs": [],
      "payable": false,
      "stateMutability": "nonpayable",
      "type": "function"
    },
    {
      "constant": true,
      "inputs": [
        {
          "name": "jobHash",
          "type": "bytes"
        }
      ],
      "name": "checkPayment",
      "outputs": [
        {
          "name": "",
          "type": "uint256"
        },
        {
          "name": "",
          "type": "uint256"
        }
      ],
      "payable": false,
      "stateMutability": "view",
      "type": "function"
    },
    {
      "constant": false,
      "inputs": [
        {
          "name": "jobHash",
          "type": "bytes"
        }
      ],
      "name": "refundBBO",
      "outputs": [
        {
          "name": "",
          "type": "bool"
        }
      ],
      "payable": false,
      "stateMutability": "nonpayable",
      "type": "function"
    },
    {
      "constant": false,
      "inputs": [
        {
          "name": "jobHash",
          "type": "bytes"
        }
      ],
      "name": "finalizeDispute",
      "outputs": [
        {
          "name": "",
          "type": "bool"
        }
      ],
      "payable": false,
      "stateMutability": "nonpayable",
      "type": "function"
    }
  ],
  "bytecode": "0x60806040526000600160006101000a81548173ffffffffffffffffffffffffffffffffffffffff021916908373ffffffffffffffffffffffffffffffffffffffff1602179055506000600260006101000a81548173ffffffffffffffffffffffffffffffffffffffff021916908373ffffffffffffffffffffffffffffffffffffffff160217905550336000806101000a81548173ffffffffffffffffffffffffffffffffffffffff021916908373ffffffffffffffffffffffffffffffffffffffff1602179055506151eb806100d76000396000f300608060405260043610610107576000357c0100000000000000000000000000000000000000000000000000000000900463ffffffff16806319d459251461010c5780631af26fc21461018d5780631e89bf061461020e5780631fde23a41461026557806329e81c79146102bc5780632de8385b1461035d5780632f6aee25146103c65780636ab0fbe3146104475780636da705f5146104b0578063715018a6146105515780637937f46d1461056857806385c51803146105ab5780638da5cb5b1461062f57806390e8d82f146106865780639137c1a7146106c95780639203b06f1461070c578063ee48959c1461077f578063f0cb740a14610800578063f2fde38b14610881575b600080fd5b34801561011857600080fd5b50610173600480360381019080803590602001908201803590602001908080601f01602080910402602001604051908101604052809392919081815260200183838082843782019150505050505091929192905050506108c4565b604051808215151515815260200191505060405180910390f35b34801561019957600080fd5b506101f4600480360381019080803590602001908201803590602001908080601f0160208091040260200160405190810160405280939291908181526020018383808284378201915050505050509192919290505050610ab0565b604051808215151515815260200191505060405180910390f35b34801561021a57600080fd5b50610223610c85565b604051808273ffffffffffffffffffffffffffffffffffffffff1673ffffffffffffffffffffffffffffffffffffffff16815260200191505060405180910390f35b34801561027157600080fd5b5061027a610cab565b604051808273ffffffffffffffffffffffffffffffffffffffff1673ffffffffffffffffffffffffffffffffffffffff16815260200191505060405180910390f35b3480156102c857600080fd5b50610343600480360381019080803573ffffffffffffffffffffffffffffffffffffffff169060200190929190803590602001908201803590602001908080601f0160208091040260200160405190810160405280939291908181526020018383808284378201915050505050509192919290505050610cd1565b604051808215151515815260200191505060405180910390f35b34801561036957600080fd5b506103c4600480360381019080803590602001908201803590602001908080601f0160208091040260200160405190810160405280939291908181526020018383808284378201915050505050509192919290505050610ee8565b005b3480156103d257600080fd5b5061042d600480360381019080803590602001908201803590602001908080601f0160208091040260200160405190810160405280939291908181526020018383808284378201915050505050509192919290505050611b7f565b604051808215151515815260200191505060405180910390f35b34801561045357600080fd5b506104ae600480360381019080803590602001908201803590602001908080601f016020809104026020016040519081016040528093929190818152602001838380828437820191505050505050919291929050505061261f565b005b3480156104bc57600080fd5b50610537600480360381019080803573ffffffffffffffffffffffffffffffffffffffff169060200190929190803590602001908201803590602001908080601f0160208091040260200160405190810160405280939291908181526020018383808284378201915050505050509192919290505050612ddf565b604051808215151515815260200191505060405180910390f35b34801561055d57600080fd5b50610566612f4d565b005b34801561057457600080fd5b506105a9600480360381019080803573ffffffffffffffffffffffffffffffffffffffff16906020019092919050505061304f565b005b3480156105b757600080fd5b50610612600480360381019080803590602001908201803590602001908080601f01602080910402602001604051908101604052809392919081815260200183838082843782019150505050505091929192905050506130ee565b604051808381526020018281526020019250505060405180910390f35b34801561063b57600080fd5b50610644613449565b604051808273ffffffffffffffffffffffffffffffffffffffff1673ffffffffffffffffffffffffffffffffffffffff16815260200191505060405180910390f35b34801561069257600080fd5b506106c7600480360381019080803573ffffffffffffffffffffffffffffffffffffffff16906020019092919050505061346e565b005b3480156106d557600080fd5b5061070a600480360381019080803573ffffffffffffffffffffffffffffffffffffffff169060200190929190505050613782565b005b34801561071857600080fd5b5061077d600480360381019080803590602001908201803590602001908080601f016020809104026020016040519081016040528093929190818152602001838380828437820191505050505050919291929080359060200190929190505050613821565b005b34801561078b57600080fd5b506107e6600480360381019080803590602001908201803590602001908080601f0160208091040260200160405190810160405280939291908181526020018383808284378201915050505050509192919290505050613ff5565b604051808215151515815260200191505060405180910390f35b34801561080c57600080fd5b50610867600480360381019080803590602001908201803590602001908080601f0160208091040260200160405190810160405280939291908181526020018383808284378201915050505050509192919290505050614a58565b604051808215151515815260200191505060405180910390f35b34801561088d57600080fd5b506108c2600480360381019080803573ffffffffffffffffffffffffffffffffffffffff169060200190929190505050614c2e565b005b600080600160009054906101000a900473ffffffffffffffffffffffffffffffffffffffff1673ffffffffffffffffffffffffffffffffffffffff166321f8a721846040516020018082805190602001908083835b60208310151561093e5780518252602082019150602081019050602083039250610919565b6001836020036101000a038019825116818451168082178552505050505050905001807f465245454c414e43455200000000000000000000000000000000000000000000815250600a019150506040516020818303038152906040526040518082805190602001908083835b6020831015156109cf57805182526020820191506020810190506020830392506109aa565b6001836020036101000a03801982511681845116808217855250505050505090500191505060405180910390206040518263ffffffff167c0100000000000000000000000000000000000000000000000000000000028152600401808260001916600019168152602001915050602060405180830381600087803b158015610a5657600080fd5b505af1158015610a6a573d6000803e3d6000fd5b505050506040513d6020811015610a8057600080fd5b810190808051906020019092919050505073ffffffffffffffffffffffffffffffffffffffff1614159050919050565b6000600160009054906101000a900473ffffffffffffffffffffffffffffffffffffffff1673ffffffffffffffffffffffffffffffffffffffff1663bd02d0f5836040516020018082805190602001908083835b602083101515610b295780518252602082019150602081019050602083039250610b04565b6001836020036101000a038019825116818451168082178552505050505050905001807f45585049524544000000000000000000000000000000000000000000000000008152506007019150506040516020818303038152906040526040518082805190602001908083835b602083101515610bba5780518252602082019150602081019050602083039250610b95565b6001836020036101000a03801982511681845116808217855250505050505090500191505060405180910390206040518263ffffffff167c0100000000000000000000000000000000000000000000000000000000028152600401808260001916600019168152602001915050602060405180830381600087803b158015610c4157600080fd5b505af1158015610c55573d6000803e3d6000fd5b505050506040513d6020811015610c6b57600080fd5b810190808051906020019092919050505042119050919050565b600260009054906101000a900473ffffffffffffffffffffffffffffffffffffffff1681565b600160009054906101000a900473ffffffffffffffffffffffffffffffffffffffff1681565b6000600160009054906101000a900473ffffffffffffffffffffffffffffffffffffffff1673ffffffffffffffffffffffffffffffffffffffff16637ae1cfca83856040516020018083805190602001908083835b602083101515610d4b5780518252602082019150602081019050602083039250610d26565b6001836020036101000a0380198251168184511680821785525050505050509050018273ffffffffffffffffffffffffffffffffffffffff1673ffffffffffffffffffffffffffffffffffffffff166c01000000000000000000000000028152601401807f43414e43454c0000000000000000000000000000000000000000000000000000815250600601925050506040516020818303038152906040526040518082805190602001908083835b602083101515610e1e5780518252602082019150602081019050602083039250610df9565b6001836020036101000a03801982511681845116808217855250505050505090500191505060405180910390206040518263ffffffff167c0100000000000000000000000000000000000000000000000000000000028152600401808260001916600019168152602001915050602060405180830381600087803b158015610ea557600080fd5b505af1158015610eb9573d6000803e3d6000fd5b505050506040513d6020811015610ecf57600080fd5b8101908080519060200190929190505050905092915050565b600080600080600080600160009054906101000a900473ffffffffffffffffffffffffffffffffffffffff1673ffffffffffffffffffffffffffffffffffffffff166321f8a721610f6e896040805190810160405280600a81526020017f465245454c414e43455200000000000000000000000000000000000000000000815250614ced565b6040518263ffffffff167c0100000000000000000000000000000000000000000000000000000000028152600401808260001916600019168152602001915050602060405180830381600087803b158015610fc857600080fd5b505af1158015610fdc573d6000803e3d6000fd5b505050506040513d6020811015610ff257600080fd5b81019080805190602001909291905050509550600160009054906101000a900473ffffffffffffffffffffffffffffffffffffffff1673ffffffffffffffffffffffffffffffffffffffff166321f8a721886040518082805190602001908083835b6020831015156110795780518252602082019150602081019050602083039250611054565b6001836020036101000a03801982511681845116808217855250505050505090500191505060405180910390206040518263ffffffff167c0100000000000000000000000000000000000000000000000000000000028152600401808260001916600019168152602001915050602060405180830381600087803b15801561110057600080fd5b505af1158015611114573d6000803e3d6000fd5b505050506040513d602081101561112a57600080fd5b810190808051906020019092919050505094508573ffffffffffffffffffffffffffffffffffffffff163373ffffffffffffffffffffffffffffffffffffffff1614806111a257508473ffffffffffffffffffffffffffffffffffffffff163373ffffffffffffffffffffffffffffffffffffffff16145b15156111ad57600080fd5b8573ffffffffffffffffffffffffffffffffffffffff163373ffffffffffffffffffffffffffffffffffffffff161415611536576002600160009054906101000a900473ffffffffffffffffffffffffffffffffffffffff1673ffffffffffffffffffffffffffffffffffffffff1663bd02d0f56112608a6040805190810160405280600681526020017f5354415455530000000000000000000000000000000000000000000000000000815250614ced565b6040518263ffffffff167c0100000000000000000000000000000000000000000000000000000000028152600401808260001916600019168152602001915050602060405180830381600087803b1580156112ba57600080fd5b505af11580156112ce573d6000803e3d6000fd5b505050506040513d60208110156112e457600080fd5b810190808051906020019092919050505014151561130157600080fd5b600160009054906101000a900473ffffffffffffffffffffffffffffffffffffffff1673ffffffffffffffffffffffffffffffffffffffff1663bd02d0f561137e896040805190810160405280601681526020017f4a4f425f46494e49534845445f54494d455354414d5000000000000000000000815250614ced565b6040518263ffffffff167c0100000000000000000000000000000000000000000000000000000000028152600401808260001916600019168152602001915050602060405180830381600087803b1580156113d857600080fd5b505af11580156113ec573d6000803e3d6000fd5b505050506040513d602081101561140257600080fd5b81019080805190602001909291905050509350600160009054906101000a900473ffffffffffffffffffffffffffffffffffffffff1673ffffffffffffffffffffffffffffffffffffffff1663bd02d0f560405180807f5041594d454e545f4c494d49545f54494d455354414d50000000000000000000815250601701905060405180910390206040518263ffffffff167c0100000000000000000000000000000000000000000000000000000000028152600401808260001916600019168152602001915050602060405180830381600087803b1580156114e357600080fd5b505af11580156114f7573d6000803e3d6000fd5b505050506040513d602081101561150d57600080fd5b81019080805190602001909291905050509250428385011115151561153157600080fd5b61177a565b6004600160009054906101000a900473ffffffffffffffffffffffffffffffffffffffff1673ffffffffffffffffffffffffffffffffffffffff1663bd02d0f56115b58a6040805190810160405280600681526020017f5354415455530000000000000000000000000000000000000000000000000000815250614ced565b6040518263ffffffff167c0100000000000000000000000000000000000000000000000000000000028152600401808260001916600019168152602001915050602060405180830381600087803b15801561160f57600080fd5b505af1158015611623573d6000803e3d6000fd5b505050506040513d602081101561163957600080fd5b810190808051906020019092919050505014151561165657600080fd5b600160009054906101000a900473ffffffffffffffffffffffffffffffffffffffff1673ffffffffffffffffffffffffffffffffffffffff1663bd02d0f56116d3896040805190810160405280602081526020017f52454a45435445445f5041594d454e545f4c494d49545f54494d455354414d50815250614ced565b6040518263ffffffff167c0100000000000000000000000000000000000000000000000000000000028152600401808260001916600019168152602001915050602060405180830381600087803b15801561172d57600080fd5b505af1158015611741573d6000803e3d6000fd5b505050506040513d602081101561175757600080fd5b8101908080519060200190929190505050915042821115151561177957600080fd5b5b600160009054906101000a900473ffffffffffffffffffffffffffffffffffffffff1673ffffffffffffffffffffffffffffffffffffffff1663e2a4853a6117f7896040805190810160405280600681526020017f5354415455530000000000000000000000000000000000000000000000000000815250614ced565b60056040518363ffffffff167c010000000000000000000000000000000000000000000000000000000002815260040180836000191660001916815260200182815260200192505050600060405180830381600087803b15801561185a57600080fd5b505af115801561186e573d6000803e3d6000fd5b50505050600160009054906101000a900473ffffffffffffffffffffffffffffffffffffffff1673ffffffffffffffffffffffffffffffffffffffff1663bd02d0f56118ba8989614e1b565b6040518263ffffffff167c0100000000000000000000000000000000000000000000000000000000028152600401808260001916600019168152602001915050602060405180830381600087803b15801561191457600080fd5b505af1158015611928573d6000803e3d6000fd5b505050506040513d602081101561193e57600080fd5b81019080805190602001909291905050509050600260009054906101000a900473ffffffffffffffffffffffffffffffffffffffff1673ffffffffffffffffffffffffffffffffffffffff1663a9059cbb33836040518363ffffffff167c0100000000000000000000000000000000000000000000000000000000028152600401808373ffffffffffffffffffffffffffffffffffffffff1673ffffffffffffffffffffffffffffffffffffffff16815260200182815260200192505050602060405180830381600087803b158015611a1657600080fd5b505af1158015611a2a573d6000803e3d6000fd5b505050506040513d6020811015611a4057600080fd5b81019080805190602001909291905050501515611a5c57600080fd5b3373ffffffffffffffffffffffffffffffffffffffff16876040518082805190602001908083835b602083101515611aa95780518252602082019150602081019050602083039250611a84565b6001836020036101000a0380198251168184511680821785525050505050509050019150506040518091039020600019167ff27126ecac6511b4cceec73a871b7e24562a5fa0116ca1b9f7a6ae6b99481536896040518080602001828103825283818151815260200191508051906020019080838360005b83811015611b3c578082015181840152602081019050611b21565b50505050905090810190601f168015611b695780820380516001836020036101000a031916815260200191505b509250505060405180910390a350505050505050565b600080600080600080600160009054906101000a900473ffffffffffffffffffffffffffffffffffffffff1673ffffffffffffffffffffffffffffffffffffffff166321f8a721886040518082805190602001908083835b602083101515611bfc5780518252602082019150602081019050602083039250611bd7565b6001836020036101000a03801982511681845116808217855250505050505090500191505060405180910390206040518263ffffffff167c0100000000000000000000000000000000000000000000000000000000028152600401808260001916600019168152602001915050602060405180830381600087803b158015611c8357600080fd5b505af1158015611c97573d6000803e3d6000fd5b505050506040513d6020811015611cad57600080fd5b810190808051906020019092919050505073ffffffffffffffffffffffffffffffffffffffff1614151515611ce157600080fd5b60011515600160009054906101000a900473ffffffffffffffffffffffffffffffffffffffff1673ffffffffffffffffffffffffffffffffffffffff16637ae1cfca611d62896040805190810160405280601181526020017f5041594d454e545f46494e414c495a4544000000000000000000000000000000815250614ced565b6040518263ffffffff167c0100000000000000000000000000000000000000000000000000000000028152600401808260001916600019168152602001915050602060405180830381600087803b158015611dbc57600080fd5b505af1158015611dd0573d6000803e3d6000fd5b505050506040513d6020811015611de657600080fd5b8101908080519060200190929190505050151514151515611e0657600080fd5b600160009054906101000a900473ffffffffffffffffffffffffffffffffffffffff1673ffffffffffffffffffffffffffffffffffffffff166321f8a721611e83886040805190810160405280600e81526020017f444953505554455f57494e4e4552000000000000000000000000000000000000815250614ced565b6040518263ffffffff167c0100000000000000000000000000000000000000000000000000000000028152600401808260001916600019168152602001915050602060405180830381600087803b158015611edd57600080fd5b505af1158015611ef1573d6000803e3d6000fd5b505050506040513d6020811015611f0757600080fd5b81019080805190602001909291905050509350600073ffffffffffffffffffffffffffffffffffffffff168473ffffffffffffffffffffffffffffffffffffffff1614151515611f5657600080fd5b600160009054906101000a900473ffffffffffffffffffffffffffffffffffffffff1673ffffffffffffffffffffffffffffffffffffffff166321f8a721611fd3886040805190810160405280600a81526020017f465245454c414e43455200000000000000000000000000000000000000000000815250614ced565b6040518263ffffffff167c0100000000000000000000000000000000000000000000000000000000028152600401808260001916600019168152602001915050602060405180830381600087803b15801561202d57600080fd5b505af1158015612041573d6000803e3d6000fd5b505050506040513d602081101561205757600080fd5b81019080805190602001909291905050509250600160009054906101000a900473ffffffffffffffffffffffffffffffffffffffff1673ffffffffffffffffffffffffffffffffffffffff166321f8a721876040518082805190602001908083835b6020831015156120de57805182526020820191506020810190506020830392506120b9565b6001836020036101000a03801982511681845116808217855250505050505090500191505060405180910390206040518263ffffffff167c0100000000000000000000000000000000000000000000000000000000028152600401808260001916600019168152602001915050602060405180830381600087803b15801561216557600080fd5b505af1158015612179573d6000803e3d6000fd5b505050506040513d602081101561218f57600080fd5b81019080805190602001909291905050509150600160009054906101000a900473ffffffffffffffffffffffffffffffffffffffff1673ffffffffffffffffffffffffffffffffffffffff1663bd02d0f56121ea8886614e1b565b6040518263ffffffff167c0100000000000000000000000000000000000000000000000000000000028152600401808260001916600019168152602001915050602060405180830381600087803b15801561224457600080fd5b505af1158015612258573d6000803e3d6000fd5b505050506040513d602081101561226e57600080fd5b810190808051906020019092919050505090508273ffffffffffffffffffffffffffffffffffffffff168473ffffffffffffffffffffffffffffffffffffffff1614806122e657508173ffffffffffffffffffffffffffffffffffffffff168473ffffffffffffffffffffffffffffffffffffffff16145b15156122f157600080fd5b600160009054906101000a900473ffffffffffffffffffffffffffffffffffffffff1673ffffffffffffffffffffffffffffffffffffffff1663abfdcced61236e886040805190810160405280601181526020017f5041594d454e545f46494e414c495a4544000000000000000000000000000000815250614ced565b60016040518363ffffffff167c01000000000000000000000000000000000000000000000000000000000281526004018083600019166000191681526020018215151515815260200192505050600060405180830381600087803b1580156123d557600080fd5b505af11580156123e9573d6000803e3d6000fd5b50505050600260009054906101000a900473ffffffffffffffffffffffffffffffffffffffff1673ffffffffffffffffffffffffffffffffffffffff1663a9059cbb85836040518363ffffffff167c0100000000000000000000000000000000000000000000000000000000028152600401808373ffffffffffffffffffffffffffffffffffffffff1673ffffffffffffffffffffffffffffffffffffffff16815260200182815260200192505050602060405180830381600087803b1580156124b257600080fd5b505af11580156124c6573d6000803e3d6000fd5b505050506040513d60208110156124dc57600080fd5b810190808051906020019092919050505015156124f857600080fd5b8373ffffffffffffffffffffffffffffffffffffffff16866040518082805190602001908083835b6020831015156125455780518252602082019150602081019050602083039250612520565b6001836020036101000a0380198251168184511680821785525050505050509050019150506040518091039020600019167f3a3a3581ee51f70558f367ea5c653339e5c4977fe01fa5cfe6fca69c30f56b42886040518080602001828103825283818151815260200191508051906020019080838360005b838110156125d85780820151818401526020810190506125bd565b50505050905090810190601f1680156126055780820380516001836020036101000a031916815260200191505b509250505060405180910390a36001945050505050919050565b6000806000833373ffffffffffffffffffffffffffffffffffffffff16600160009054906101000a900473ffffffffffffffffffffffffffffffffffffffff1673ffffffffffffffffffffffffffffffffffffffff166321f8a721836040518082805190602001908083835b6020831015156126b0578051825260208201915060208101905060208303925061268b565b6001836020036101000a03801982511681845116808217855250505050505090500191505060405180910390206040518263ffffffff167c0100000000000000000000000000000000000000000000000000000000028152600401808260001916600019168152602001915050602060405180830381600087803b15801561273757600080fd5b505af115801561274b573d6000803e3d6000fd5b505050506040513d602081101561276157600080fd5b810190808051906020019092919050505073ffffffffffffffffffffffffffffffffffffffff1614151561279457600080fd5b600160009054906101000a900473ffffffffffffffffffffffffffffffffffffffff1673ffffffffffffffffffffffffffffffffffffffff1663bd02d0f5612811876040805190810160405280600681526020017f5354415455530000000000000000000000000000000000000000000000000000815250614ced565b6040518263ffffffff167c0100000000000000000000000000000000000000000000000000000000028152600401808260001916600019168152602001915050602060405180830381600087803b15801561286b57600080fd5b505af115801561287f573d6000803e3d6000fd5b505050506040513d602081101561289557600080fd5b81019080805190602001909291905050509350600284101515156128b857600080fd5b600484111515156128c857600080fd5b600160009054906101000a900473ffffffffffffffffffffffffffffffffffffffff1673ffffffffffffffffffffffffffffffffffffffff1663e2a4853a612945876040805190810160405280600681526020017f5354415455530000000000000000000000000000000000000000000000000000815250614ced565b60096040518363ffffffff167c010000000000000000000000000000000000000000000000000000000002815260040180836000191660001916815260200182815260200192505050600060405180830381600087803b1580156129a857600080fd5b505af11580156129bc573d6000803e3d6000fd5b50505050600160009054906101000a900473ffffffffffffffffffffffffffffffffffffffff1673ffffffffffffffffffffffffffffffffffffffff166321f8a721612a3d876040805190810160405280600a81526020017f465245454c414e43455200000000000000000000000000000000000000000000815250614ced565b6040518263ffffffff167c0100000000000000000000000000000000000000000000000000000000028152600401808260001916600019168152602001915050602060405180830381600087803b158015612a9757600080fd5b505af1158015612aab573d6000803e3d6000fd5b505050506040513d6020811015612ac157600080fd5b81019080805190602001909291905050509250600160009054906101000a900473ffffffffffffffffffffffffffffffffffffffff1673ffffffffffffffffffffffffffffffffffffffff1663bd02d0f5612b1c8786614e1b565b6040518263ffffffff167c0100000000000000000000000000000000000000000000000000000000028152600401808260001916600019168152602001915050602060405180830381600087803b158015612b7657600080fd5b505af1158015612b8a573d6000803e3d6000fd5b505050506040513d6020811015612ba057600080fd5b81019080805190602001909291905050509150600260009054906101000a900473ffffffffffffffffffffffffffffffffffffffff1673ffffffffffffffffffffffffffffffffffffffff1663a9059cbb84846040518363ffffffff167c0100000000000000000000000000000000000000000000000000000000028152600401808373ffffffffffffffffffffffffffffffffffffffff1673ffffffffffffffffffffffffffffffffffffffff16815260200182815260200192505050602060405180830381600087803b158015612c7857600080fd5b505af1158015612c8c573d6000803e3d6000fd5b505050506040513d6020811015612ca257600080fd5b81019080805190602001909291905050501515612cbe57600080fd5b3373ffffffffffffffffffffffffffffffffffffffff16856040518082805190602001908083835b602083101515612d0b5780518252602082019150602081019050602083039250612ce6565b6001836020036101000a0380198251168184511680821785525050505050509050019150506040518091039020600019167faa966fc16d7cbb9c58dc367c3171270ce8752c5893b1313055e036969eae7082876040518080602001828103825283818151815260200191508051906020019080838360005b83811015612d9e578082015181840152602081019050612d83565b50505050905090810190601f168015612dcb5780820380516001836020036101000a031916815260200191505b509250505060405180910390a35050505050565b60008273ffffffffffffffffffffffffffffffffffffffff16600160009054906101000a900473ffffffffffffffffffffffffffffffffffffffff1673ffffffffffffffffffffffffffffffffffffffff166321f8a721846040518082805190602001908083835b602083101515612e6c5780518252602082019150602081019050602083039250612e47565b6001836020036101000a03801982511681845116808217855250505050505090500191505060405180910390206040518263ffffffff167c0100000000000000000000000000000000000000000000000000000000028152600401808260001916600019168152602001915050602060405180830381600087803b158015612ef357600080fd5b505af1158015612f07573d6000803e3d6000fd5b505050506040513d6020811015612f1d57600080fd5b810190808051906020019092919050505073ffffffffffffffffffffffffffffffffffffffff1614905092915050565b6000809054906101000a900473ffffffffffffffffffffffffffffffffffffffff1673ffffffffffffffffffffffffffffffffffffffff163373ffffffffffffffffffffffffffffffffffffffff16141515612fa857600080fd5b6000809054906101000a900473ffffffffffffffffffffffffffffffffffffffff1673ffffffffffffffffffffffffffffffffffffffff167ff8df31144d9c2f0f6b59d69b8b98abd5459d07f2742c4df920b25aae33c6482060405160405180910390a260008060006101000a81548173ffffffffffffffffffffffffffffffffffffffff021916908373ffffffffffffffffffffffffffffffffffffffff160217905550565b6000809054906101000a900473ffffffffffffffffffffffffffffffffffffffff1673ffffffffffffffffffffffffffffffffffffffff163373ffffffffffffffffffffffffffffffffffffffff161415156130aa57600080fd5b80600260006101000a81548173ffffffffffffffffffffffffffffffffffffffff021916908373ffffffffffffffffffffffffffffffffffffffff16021790555050565b6000806000806000600160009054906101000a900473ffffffffffffffffffffffffffffffffffffffff1673ffffffffffffffffffffffffffffffffffffffff1663bd02d0f5613173886040805190810160405280601681526020017f4a4f425f46494e49534845445f54494d455354414d5000000000000000000000815250614ced565b6040518263ffffffff167c0100000000000000000000000000000000000000000000000000000000028152600401808260001916600019168152602001915050602060405180830381600087803b1580156131cd57600080fd5b505af11580156131e1573d6000803e3d6000fd5b505050506040513d60208110156131f757600080fd5b81019080805190602001909291905050509250600160009054906101000a900473ffffffffffffffffffffffffffffffffffffffff1673ffffffffffffffffffffffffffffffffffffffff1663bd02d0f560405180807f5041594d454e545f4c494d49545f54494d455354414d50000000000000000000815250601701905060405180910390206040518263ffffffff167c0100000000000000000000000000000000000000000000000000000000028152600401808260001916600019168152602001915050602060405180830381600087803b1580156132d857600080fd5b505af11580156132ec573d6000803e3d6000fd5b505050506040513d602081101561330257600080fd5b81019080805190602001909291905050509150600160009054906101000a900473ffffffffffffffffffffffffffffffffffffffff1673ffffffffffffffffffffffffffffffffffffffff1663bd02d0f5613392886040805190810160405280600681526020017f5354415455530000000000000000000000000000000000000000000000000000815250614ced565b6040518263ffffffff167c0100000000000000000000000000000000000000000000000000000000028152600401808260001916600019168152602001915050602060405180830381600087803b1580156133ec57600080fd5b505af1158015613400573d6000803e3d6000fd5b505050506040513d602081101561341657600080fd5b810190808051906020019092919050505090508061343d8385614f3790919063ffffffff16565b94509450505050915091565b6000809054906101000a900473ffffffffffffffffffffffffffffffffffffffff1681565b6000809054906101000a900473ffffffffffffffffffffffffffffffffffffffff1673ffffffffffffffffffffffffffffffffffffffff163373ffffffffffffffffffffffffffffffffffffffff161415156134c957600080fd5b60003073ffffffffffffffffffffffffffffffffffffffff16311115613569576000809054906101000a900473ffffffffffffffffffffffffffffffffffffffff1673ffffffffffffffffffffffffffffffffffffffff166108fc3073ffffffffffffffffffffffffffffffffffffffff16319081150290604051600060405180830381858888f19350505050158015613567573d6000803e3d6000fd5b505b600073ffffffffffffffffffffffffffffffffffffffff168173ffffffffffffffffffffffffffffffffffffffff1614151561377f578073ffffffffffffffffffffffffffffffffffffffff1663a9059cbb6000809054906101000a900473ffffffffffffffffffffffffffffffffffffffff168373ffffffffffffffffffffffffffffffffffffffff166370a08231306040518263ffffffff167c0100000000000000000000000000000000000000000000000000000000028152600401808273ffffffffffffffffffffffffffffffffffffffff1673ffffffffffffffffffffffffffffffffffffffff168152602001915050602060405180830381600087803b15801561367857600080fd5b505af115801561368c573d6000803e3d6000fd5b505050506040513d60208110156136a257600080fd5b81019080805190602001909291905050506040518363ffffffff167c0100000000000000000000000000000000000000000000000000000000028152600401808373ffffffffffffffffffffffffffffffffffffffff1673ffffffffffffffffffffffffffffffffffffffff16815260200182815260200192505050602060405180830381600087803b15801561373857600080fd5b505af115801561374c573d6000803e3d6000fd5b505050506040513d602081101561376257600080fd5b8101908080519060200190929190505050151561377e57600080fd5b5b50565b6000809054906101000a900473ffffffffffffffffffffffffffffffffffffffff1673ffffffffffffffffffffffffffffffffffffffff163373ffffffffffffffffffffffffffffffffffffffff161415156137dd57600080fd5b80600160006101000a81548173ffffffffffffffffffffffffffffffffffffffff021916908373ffffffffffffffffffffffffffffffffffffffff16021790555050565b6000823373ffffffffffffffffffffffffffffffffffffffff16600160009054906101000a900473ffffffffffffffffffffffffffffffffffffffff1673ffffffffffffffffffffffffffffffffffffffff166321f8a721836040518082805190602001908083835b6020831015156138af578051825260208201915060208101905060208303925061388a565b6001836020036101000a03801982511681845116808217855250505050505090500191505060405180910390206040518263ffffffff167c0100000000000000000000000000000000000000000000000000000000028152600401808260001916600019168152602001915050602060405180830381600087803b15801561393657600080fd5b505af115801561394a573d6000803e3d6000fd5b505050506040513d602081101561396057600080fd5b810190808051906020019092919050505073ffffffffffffffffffffffffffffffffffffffff1614151561399357600080fd5b6002600160009054906101000a900473ffffffffffffffffffffffffffffffffffffffff1673ffffffffffffffffffffffffffffffffffffffff1663bd02d0f5613a12876040805190810160405280600681526020017f5354415455530000000000000000000000000000000000000000000000000000815250614ced565b6040518263ffffffff167c0100000000000000000000000000000000000000000000000000000000028152600401808260001916600019168152602001915050602060405180830381600087803b158015613a6c57600080fd5b505af1158015613a80573d6000803e3d6000fd5b505050506040513d6020811015613a9657600080fd5b8101908080519060200190929190505050141515613ab357600080fd5b600083111515613ac257600080fd5b600160009054906101000a900473ffffffffffffffffffffffffffffffffffffffff1673ffffffffffffffffffffffffffffffffffffffff1663e2a4853a613b3f866040805190810160405280600681526020017f5354415455530000000000000000000000000000000000000000000000000000815250614ced565b60046040518363ffffffff167c010000000000000000000000000000000000000000000000000000000002815260040180836000191660001916815260200182815260200192505050600060405180830381600087803b158015613ba257600080fd5b505af1158015613bb6573d6000803e3d6000fd5b50505050600160009054906101000a900473ffffffffffffffffffffffffffffffffffffffff1673ffffffffffffffffffffffffffffffffffffffff1663e2a4853a613c37866040805190810160405280600681526020017f524541534f4e0000000000000000000000000000000000000000000000000000815250614ced565b856040518363ffffffff167c010000000000000000000000000000000000000000000000000000000002815260040180836000191660001916815260200182815260200192505050600060405180830381600087803b158015613c9957600080fd5b505af1158015613cad573d6000803e3d6000fd5b50505050613dcc600160009054906101000a900473ffffffffffffffffffffffffffffffffffffffff1673ffffffffffffffffffffffffffffffffffffffff1663bd02d0f560405180807f52454a45435445445f5041594d454e545f4c494d49545f54494d455354414d50815250602001905060405180910390206040518263ffffffff167c0100000000000000000000000000000000000000000000000000000000028152600401808260001916600019168152602001915050602060405180830381600087803b158015613d8257600080fd5b505af1158015613d96573d6000803e3d6000fd5b505050506040513d6020811015613dac57600080fd5b810190808051906020019092919050505042614f3790919063ffffffff16565b9150600160009054906101000a900473ffffffffffffffffffffffffffffffffffffffff1673ffffffffffffffffffffffffffffffffffffffff1663e2a4853a613e4b866040805190810160405280602081526020017f52454a45435445445f5041594d454e545f4c494d49545f54494d455354414d50815250614ced565b846040518363ffffffff167c010000000000000000000000000000000000000000000000000000000002815260040180836000191660001916815260200182815260200192505050600060405180830381600087803b158015613ead57600080fd5b505af1158015613ec1573d6000803e3d6000fd5b505050503373ffffffffffffffffffffffffffffffffffffffff16846040518082805190602001908083835b602083101515613f125780518252602082019150602081019050602083039250613eed565b6001836020036101000a0380198251168184511680821785525050505050509050019150506040518091039020600019167f696730ec2de844585f06e4e336bc4a30f7d6eb25ed3e075272702a933713bbdf8585886040518084815260200183815260200180602001828103825283818151815260200191508051906020019080838360005b83811015613fb3578082015181840152602081019050613f98565b50505050905090810190601f168015613fe05780820380516001836020036101000a031916815260200191505b5094505050505060405180910390a350505050565b6000806000806000600160009054906101000a900473ffffffffffffffffffffffffffffffffffffffff1673ffffffffffffffffffffffffffffffffffffffff166321f8a721876040518082805190602001908083835b602083101515614071578051825260208201915060208101905060208303925061404c565b6001836020036101000a03801982511681845116808217855250505050505090500191505060405180910390206040518263ffffffff167c0100000000000000000000000000000000000000000000000000000000028152600401808260001916600019168152602001915050602060405180830381600087803b1580156140f857600080fd5b505af115801561410c573d6000803e3d6000fd5b505050506040513d602081101561412257600080fd5b81019080805190602001909291905050509350600160009054906101000a900473ffffffffffffffffffffffffffffffffffffffff1673ffffffffffffffffffffffffffffffffffffffff1663bd02d0f56141b388876040805190810160405280600781526020017f4445504f53495400000000000000000000000000000000000000000000000000815250614f53565b6040518263ffffffff167c0100000000000000000000000000000000000000000000000000000000028152600401808260001916600019168152602001915050602060405180830381600087803b15801561420d57600080fd5b505af1158015614221573d6000803e3d6000fd5b505050506040513d602081101561423757600080fd5b8101908080519060200190929190505050925060011515600160009054906101000a900473ffffffffffffffffffffffffffffffffffffffff1673ffffffffffffffffffffffffffffffffffffffff16637ae1cfca6142cb896040805190810160405280600681526020017f43414e43454c0000000000000000000000000000000000000000000000000000815250614ced565b6040518263ffffffff167c0100000000000000000000000000000000000000000000000000000000028152600401808260001916600019168152602001915050602060405180830381600087803b15801561432557600080fd5b505af1158015614339573d6000803e3d6000fd5b505050506040513d602081101561434f57600080fd5b81019080805190602001909291905050501515141561457a57600160009054906101000a900473ffffffffffffffffffffffffffffffffffffffff1673ffffffffffffffffffffffffffffffffffffffff1663e2a4853a6143e688876040805190810160405280600781526020017f4445504f53495400000000000000000000000000000000000000000000000000815250614f53565b60006040518363ffffffff167c010000000000000000000000000000000000000000000000000000000002815260040180836000191660001916815260200182815260200192505050600060405180830381600087803b15801561444957600080fd5b505af115801561445d573d6000803e3d6000fd5b50505050600083111561457157600260009054906101000a900473ffffffffffffffffffffffffffffffffffffffff1673ffffffffffffffffffffffffffffffffffffffff1663a9059cbb85856040518363ffffffff167c0100000000000000000000000000000000000000000000000000000000028152600401808373ffffffffffffffffffffffffffffffffffffffff1673ffffffffffffffffffffffffffffffffffffffff16815260200182815260200192505050602060405180830381600087803b15801561452f57600080fd5b505af1158015614543573d6000803e3d6000fd5b505050506040513d602081101561455957600080fd5b81019080805190602001909291905050509450614a4f565b60019450614a4f565b600160009054906101000a900473ffffffffffffffffffffffffffffffffffffffff1673ffffffffffffffffffffffffffffffffffffffff166321f8a721876040516020018082805190602001908083835b6020831015156145f157805182526020820191506020810190506020830392506145cc565b6001836020036101000a038019825116818451168082178552505050505050905001807f465245454c414e43455200000000000000000000000000000000000000000000815250600a019150506040516020818303038152906040526040518082805190602001908083835b602083101515614682578051825260208201915060208101905060208303925061465d565b6001836020036101000a03801982511681845116808217855250505050505090500191505060405180910390206040518263ffffffff167c0100000000000000000000000000000000000000000000000000000000028152600401808260001916600019168152602001915050602060405180830381600087803b15801561470957600080fd5b505af115801561471d573d6000803e3d6000fd5b505050506040513d602081101561473357600080fd5b81019080805190602001909291905050509150600160009054906101000a900473ffffffffffffffffffffffffffffffffffffffff1673ffffffffffffffffffffffffffffffffffffffff1663bd02d0f587846040516020018083805190602001908083835b6020831015156147be5780518252602082019150602081019050602083039250614799565b6001836020036101000a0380198251168184511680821785525050505050509050018273ffffffffffffffffffffffffffffffffffffffff1673ffffffffffffffffffffffffffffffffffffffff166c01000000000000000000000000028152601401925050506040516020818303038152906040526040518082805190602001908083835b6020831015156148695780518252602082019150602081019050602083039250614844565b6001836020036101000a03801982511681845116808217855250505050505090500191505060405180910390206040518263ffffffff167c0100000000000000000000000000000000000000000000000000000000028152600401808260001916600019168152602001915050602060405180830381600087803b1580156148f057600080fd5b505af1158015614904573d6000803e3d6000fd5b505050506040513d602081101561491a57600080fd5b8101908080519060200190929190505050905060008111151561493c57600080fd5b808311151561494a57600080fd5b600260009054906101000a900473ffffffffffffffffffffffffffffffffffffffff1673ffffffffffffffffffffffffffffffffffffffff1663a9059cbb858386036040518363ffffffff167c0100000000000000000000000000000000000000000000000000000000028152600401808373ffffffffffffffffffffffffffffffffffffffff1673ffffffffffffffffffffffffffffffffffffffff16815260200182815260200192505050602060405180830381600087803b158015614a1157600080fd5b505af1158015614a25573d6000803e3d6000fd5b505050506040513d6020811015614a3b57600080fd5b810190808051906020019092919050505094505b50505050919050565b600080600160009054906101000a900473ffffffffffffffffffffffffffffffffffffffff1673ffffffffffffffffffffffffffffffffffffffff1663bd02d0f5846040516020018082805190602001908083835b602083101515614ad25780518252602082019150602081019050602083039250614aad565b6001836020036101000a038019825116818451168082178552505050505050905001807f53544154555300000000000000000000000000000000000000000000000000008152506006019150506040516020818303038152906040526040518082805190602001908083835b602083101515614b635780518252602082019150602081019050602083039250614b3e565b6001836020036101000a03801982511681845116808217855250505050505090500191505060405180910390206040518263ffffffff167c0100000000000000000000000000000000000000000000000000000000028152600401808260001916600019168152602001915050602060405180830381600087803b158015614bea57600080fd5b505af1158015614bfe573d6000803e3d6000fd5b505050506040513d6020811015614c1457600080fd5b810190808051906020019092919050505014159050919050565b600073ffffffffffffffffffffffffffffffffffffffff166000809054906101000a900473ffffffffffffffffffffffffffffffffffffffff1673ffffffffffffffffffffffffffffffffffffffff16141515614ce1576000809054906101000a900473ffffffffffffffffffffffffffffffffffffffff1673ffffffffffffffffffffffffffffffffffffffff163373ffffffffffffffffffffffffffffffffffffffff16141515614ce057600080fd5b5b614cea816150c5565b50565b600082826040516020018083805190602001908083835b602083101515614d295780518252602082019150602081019050602083039250614d04565b6001836020036101000a03801982511681845116808217855250505050505090500182805190602001908083835b602083101515614d7c5780518252602082019150602081019050602083039250614d57565b6001836020036101000a038019825116818451168082178552505050505050905001925050506040516020818303038152906040526040518082805190602001908083835b602083101515614de65780518252602082019150602081019050602083039250614dc1565b6001836020036101000a0380198251168184511680821785525050505050509050019150506040518091039020905092915050565b600082826040516020018083805190602001908083835b602083101515614e575780518252602082019150602081019050602083039250614e32565b6001836020036101000a0380198251168184511680821785525050505050509050018273ffffffffffffffffffffffffffffffffffffffff1673ffffffffffffffffffffffffffffffffffffffff166c01000000000000000000000000028152601401925050506040516020818303038152906040526040518082805190602001908083835b602083101515614f025780518252602082019150602081019050602083039250614edd565b6001836020036101000a0380198251168184511680821785525050505050509050019150506040518091039020905092915050565b60008183019050828110151515614f4a57fe5b80905092915050565b60008383836040516020018084805190602001908083835b602083101515614f905780518252602082019150602081019050602083039250614f6b565b6001836020036101000a0380198251168184511680821785525050505050509050018373ffffffffffffffffffffffffffffffffffffffff1673ffffffffffffffffffffffffffffffffffffffff166c0100000000000000000000000002815260140182805190602001908083835b6020831015156150245780518252602082019150602081019050602083039250614fff565b6001836020036101000a03801982511681845116808217855250505050505090500193505050506040516020818303038152906040526040518082805190602001908083835b60208310151561508f578051825260208201915060208101905060208303925061506a565b6001836020036101000a038019825116818451168082178552505050505050905001915050604051809103902090509392505050565b600073ffffffffffffffffffffffffffffffffffffffff168173ffffffffffffffffffffffffffffffffffffffff161415151561510157600080fd5b8073ffffffffffffffffffffffffffffffffffffffff166000809054906101000a900473ffffffffffffffffffffffffffffffffffffffff1673ffffffffffffffffffffffffffffffffffffffff167f8be0079c531659141344cd1fd0a4f28419497f9722a3daafe3b4186f6b6457e060405160405180910390a3806000806101000a81548173ffffffffffffffffffffffffffffffffffffffff021916908373ffffffffffffffffffffffffffffffffffffffff160217905550505600a165627a7a7230582060d1d4b34b629b9d35c4da9443babee07639bec048965cdf237d24ee74eec2e60029",
  "source": "/**\n * Created on 2018-08-13 10:32\n * @summary: \n * @author: Chris Nguyen\n */\npragma solidity ^0.4.24;\nimport './BBFreelancer.sol';\nimport './BBLib.sol';\n\n/**\n * @title BBFreelancerPayment\n */\ncontract BBFreelancerPayment is BBFreelancer{\n  event PaymentClaimed(bytes32 indexed indexJobHash, address indexed sender, bytes jobHash);\n  event PaymentAccepted(bytes32 indexed indexJobHash, address indexed sender, bytes jobHash);\n  event PaymentRejected(bytes32 indexed indexJobHash, address indexed sender, uint reason, uint256 rejectedTimestamp, bytes jobHash);\n  event DisputeFinalized(bytes32 indexed indexJobHash, address indexed winner, bytes jobHash);\n\n  // hirer ok with finish Job\n  /**\n   * @dev \n   * @param jobHash Job Hash\n   */\n  function acceptPayment(bytes jobHash)  public \n  isOwnerJob(jobHash) {\n    uint256 status = bbs.getUint(BBLib.toB32(jobHash,'STATUS'));\n    require(status >= 2);\n    require(status <= 4);\n    bbs.setUint(BBLib.toB32(jobHash,'STATUS'), 9);\n    address freelancer = bbs.getAddress(BBLib.toB32(jobHash,'FREELANCER'));\n    uint256 bid = bbs.getUint(BBLib.toB32(jobHash,freelancer));\n    //TODO release funs\n    require(bbo.transfer(freelancer, bid));\n    emit PaymentAccepted(keccak256(jobHash), msg.sender, jobHash);\n  }\n  // hirer not ok with finish Job\n  /**\n   * @dev \n   * @param jobHash Job Hash\n   */\n  function rejectPayment(bytes jobHash, uint reason) public \n  isOwnerJob(jobHash) {\n    require(bbs.getUint(BBLib.toB32(jobHash,'STATUS')) == 2);\n    require(reason > 0);\n    bbs.setUint(BBLib.toB32(jobHash,'STATUS'), 4);\n    bbs.setUint(BBLib.toB32(jobHash,'REASON'), reason);\n    uint256 rejectedTimestamp = block.timestamp.add(bbs.getUint(keccak256('REJECTED_PAYMENT_LIMIT_TIMESTAMP')));\n    bbs.setUint(BBLib.toB32(jobHash,'REJECTED_PAYMENT_LIMIT_TIMESTAMP'), rejectedTimestamp);\n   emit PaymentRejected(keccak256(jobHash), msg.sender, reason, rejectedTimestamp, jobHash);\n  }\n  // freelancer claimeJob with finish Job but hirer not accept payment \n  // need proof of work\n  /**\n   * @dev \n   * @param jobHash Job Hash\n   */\n  function claimePayment(bytes jobHash) public\n  {\n    address freelancer = bbs.getAddress(BBLib.toB32(jobHash,'FREELANCER'));\n    address jobOwner = bbs.getAddress(keccak256(jobHash));\n    require(msg.sender == freelancer || msg.sender == jobOwner);\n    if(msg.sender == freelancer){\n      require(bbs.getUint(BBLib.toB32(jobHash,'STATUS')) == 2);\n      uint256 finishDate = bbs.getUint(BBLib.toB32(jobHash,'JOB_FINISHED_TIMESTAMP'));\n      uint256 paymentLimitTimestamp = bbs.getUint(keccak256('PAYMENT_LIMIT_TIMESTAMP'));\n      require((finishDate+paymentLimitTimestamp) <= now );\n    }else{\n      require(bbs.getUint(BBLib.toB32(jobHash,'STATUS')) == 4);\n      uint256 rejectedEndTimestamp = bbs.getUint(BBLib.toB32(jobHash,'REJECTED_PAYMENT_LIMIT_TIMESTAMP'));\n      require(rejectedEndTimestamp <= now );\n    }\n    bbs.setUint(BBLib.toB32(jobHash,'STATUS'), 5);\n    uint256 bid = bbs.getUint(BBLib.toB32(jobHash,freelancer));\n    require(bbo.transfer(msg.sender, bid));\n    emit PaymentClaimed(keccak256(jobHash), msg.sender, jobHash);\n  }\n\n  /** \n  * @dev check payment status \n  **/\n  function checkPayment(bytes jobHash) public view returns(uint256, uint256){\n    uint256 finishDate = bbs.getUint(BBLib.toB32(jobHash,'JOB_FINISHED_TIMESTAMP'));\n    uint256 paymentLimitTimestamp = bbs.getUint(keccak256('PAYMENT_LIMIT_TIMESTAMP'));\n    uint256 status = bbs.getUint(BBLib.toB32(jobHash,'STATUS'));\n    return (status,finishDate.add(paymentLimitTimestamp));\n  }\n\n\n  function refundBBO(bytes jobHash) public  returns(bool) {\n      address owner = bbs.getAddress(keccak256(jobHash));\n      uint256 lastDeposit = bbs.getUint(BBLib.toB32(jobHash, owner, 'DEPOSIT'));\n      if(bbs.getBool(BBLib.toB32(jobHash,'CANCEL')) == true) {\n          bbs.setUint(BBLib.toB32(jobHash, owner,'DEPOSIT'), 0);\n          if(lastDeposit > 0) {\n            return bbo.transfer(owner, lastDeposit);\n          }else\n            return true;\n      } else {\n        address freelancer = bbs.getAddress(keccak256(abi.encodePacked(jobHash, 'FREELANCER')));\n        uint256 bid = bbs.getUint(keccak256(abi.encodePacked(jobHash,freelancer)));\n        require(bid > 0);\n        require(lastDeposit > bid);\n        return bbo.transfer(owner, lastDeposit - bid);\n      }\n\n  }\n\n  /**\n   * @dev finalize Dispute\n   * @param jobHash The job Hash \n   */\n  function finalizeDispute(bytes jobHash)  public returns(bool) {\n    require(bbs.getAddress(keccak256(jobHash)) != 0x0);\n    require(bbs.getBool(BBLib.toB32(jobHash, 'PAYMENT_FINALIZED'))!=true);\n\n    address winner = bbs.getAddress(BBLib.toB32(jobHash, 'DISPUTE_WINNER'));\n    require(winner!=address(0x0));\n    address freelancer = bbs.getAddress(BBLib.toB32(jobHash,'FREELANCER'));\n    address jobOwner = bbs.getAddress(keccak256(jobHash));\n    uint256 bid = bbs.getUint(BBLib.toB32(jobHash,freelancer));\n    require(winner==freelancer||winner==jobOwner);\n    bbs.setBool(BBLib.toB32(jobHash, 'PAYMENT_FINALIZED'), true);\n    require(bbo.transfer(winner, bid));\n    emit DisputeFinalized(keccak256(jobHash), winner, jobHash);\n    return true;\n  } \n}\n",
  "sourcePath": "/Users/yena/Documents/tuongnguyen/bigbom-digital-contract/src/contracts/BBFreelancerPayment.sol",
  "compiler": {
    "name": "solc",
    "version": "0.4.24+commit.e67f0147.Emscripten.clang"
  },
  "schemaVersion": "2.0.1",
  "updatedAt": "2018-10-03T02:31:18.958Z"
}