{
  "contractName": "BBParams",
  "abi": [
    {
      "constant": true,
      "inputs": [
        {
          "name": "jobHash",
          "type": "bytes"
        }
      ],
      "name": "isJobHasFreelancer",
      "outputs": [
        {
          "name": "",
          "type": "bool"
        }
      ],
      "payable": false,
      "stateMutability": "view",
      "type": "function"
    },
    {
      "constant": true,
      "inputs": [
        {
          "name": "jobHash",
          "type": "bytes"
        }
      ],
      "name": "isJobExpired",
      "outputs": [
        {
          "name": "",
          "type": "bool"
        }
      ],
      "payable": false,
      "stateMutability": "view",
      "type": "function"
    },
    {
      "constant": true,
      "inputs": [],
      "name": "bbo",
      "outputs": [
        {
          "name": "",
          "type": "address"
        }
      ],
      "payable": false,
      "stateMutability": "view",
      "type": "function"
    },
    {
      "constant": true,
      "inputs": [],
      "name": "bbs",
      "outputs": [
        {
          "name": "",
          "type": "address"
        }
      ],
      "payable": false,
      "stateMutability": "view",
      "type": "function"
    },
    {
      "constant": true,
      "inputs": [
        {
          "name": "sender",
          "type": "address"
        },
        {
          "name": "jobHash",
          "type": "bytes"
        }
      ],
      "name": "isJobCancel",
      "outputs": [
        {
          "name": "",
          "type": "bool"
        }
      ],
      "payable": false,
      "stateMutability": "view",
      "type": "function"
    },
    {
      "constant": true,
      "inputs": [
        {
          "name": "sender",
          "type": "address"
        },
        {
          "name": "jobHash",
          "type": "bytes"
        }
      ],
      "name": "isOwnerOfJob",
      "outputs": [
        {
          "name": "",
          "type": "bool"
        }
      ],
      "payable": false,
      "stateMutability": "view",
      "type": "function"
    },
    {
      "constant": false,
      "inputs": [],
      "name": "renounceOwnership",
      "outputs": [],
      "payable": false,
      "stateMutability": "nonpayable",
      "type": "function"
    },
    {
      "constant": false,
      "inputs": [
        {
          "name": "BBOAddress",
          "type": "address"
        }
      ],
      "name": "setBBO",
      "outputs": [],
      "payable": false,
      "stateMutability": "nonpayable",
      "type": "function"
    },
    {
      "constant": true,
      "inputs": [],
      "name": "owner",
      "outputs": [
        {
          "name": "",
          "type": "address"
        }
      ],
      "payable": false,
      "stateMutability": "view",
      "type": "function"
    },
    {
      "constant": false,
      "inputs": [
        {
          "name": "anyToken",
          "type": "address"
        }
      ],
      "name": "emergencyERC20Drain",
      "outputs": [],
      "payable": false,
      "stateMutability": "nonpayable",
      "type": "function"
    },
    {
      "constant": false,
      "inputs": [
        {
          "name": "storageAddress",
          "type": "address"
        }
      ],
      "name": "setStorage",
      "outputs": [],
      "payable": false,
      "stateMutability": "nonpayable",
      "type": "function"
    },
    {
      "constant": true,
      "inputs": [
        {
          "name": "jobHash",
          "type": "bytes"
        }
      ],
      "name": "isJobStart",
      "outputs": [
        {
          "name": "",
          "type": "bool"
        }
      ],
      "payable": false,
      "stateMutability": "view",
      "type": "function"
    },
    {
      "constant": false,
      "inputs": [
        {
          "name": "_newOwner",
          "type": "address"
        }
      ],
      "name": "transferOwnership",
      "outputs": [],
      "payable": false,
      "stateMutability": "nonpayable",
      "type": "function"
    },
    {
      "anonymous": false,
      "inputs": [
        {
          "indexed": true,
          "name": "admin",
          "type": "address"
        },
        {
          "indexed": false,
          "name": "add",
          "type": "bool"
        }
      ],
      "name": "AdminAdded",
      "type": "event"
    },
    {
      "anonymous": false,
      "inputs": [
        {
          "indexed": true,
          "name": "previousOwner",
          "type": "address"
        }
      ],
      "name": "OwnershipRenounced",
      "type": "event"
    },
    {
      "anonymous": false,
      "inputs": [
        {
          "indexed": true,
          "name": "previousOwner",
          "type": "address"
        },
        {
          "indexed": true,
          "name": "newOwner",
          "type": "address"
        }
      ],
      "name": "OwnershipTransferred",
      "type": "event"
    },
    {
      "constant": false,
      "inputs": [
        {
          "name": "admin",
          "type": "address"
        },
        {
          "name": "add",
          "type": "bool"
        }
      ],
      "name": "addAdmin",
      "outputs": [],
      "payable": false,
      "stateMutability": "nonpayable",
      "type": "function"
    },
    {
      "constant": true,
      "inputs": [
        {
          "name": "admin",
          "type": "address"
        }
      ],
      "name": "isAdmin",
      "outputs": [
        {
          "name": "isAdm",
          "type": "bool"
        }
      ],
      "payable": false,
      "stateMutability": "view",
      "type": "function"
    },
    {
      "constant": false,
      "inputs": [
        {
          "name": "paymentLimitTimestamp",
          "type": "uint256"
        },
        {
          "name": "rejectedPaymentLimitTimestamp",
          "type": "uint256"
        }
      ],
      "name": "setFreelancerParams",
      "outputs": [],
      "payable": false,
      "stateMutability": "nonpayable",
      "type": "function"
    },
    {
      "constant": true,
      "inputs": [],
      "name": "getFreelancerParams",
      "outputs": [
        {
          "name": "",
          "type": "uint256"
        },
        {
          "name": "",
          "type": "uint256"
        }
      ],
      "payable": false,
      "stateMutability": "view",
      "type": "function"
    },
    {
      "constant": false,
      "inputs": [
        {
          "name": "minVotes",
          "type": "uint256"
        },
        {
          "name": "maxVotes",
          "type": "uint256"
        },
        {
          "name": "stakeDeposit",
          "type": "uint256"
        },
        {
          "name": "evidenceDuration",
          "type": "uint256"
        },
        {
          "name": "commitDuration",
          "type": "uint256"
        },
        {
          "name": "revealDuration",
          "type": "uint256"
        },
        {
          "name": "bboRewards",
          "type": "uint256"
        }
      ],
      "name": "setVotingParams",
      "outputs": [],
      "payable": false,
      "stateMutability": "nonpayable",
      "type": "function"
    },
    {
      "constant": true,
      "inputs": [],
      "name": "getVotingParams",
      "outputs": [
        {
          "name": "",
          "type": "uint256"
        },
        {
          "name": "",
          "type": "uint256"
        },
        {
          "name": "",
          "type": "uint256"
        },
        {
          "name": "",
          "type": "uint256"
        },
        {
          "name": "",
          "type": "uint256"
        },
        {
          "name": "",
          "type": "uint256"
        },
        {
          "name": "",
          "type": "uint256"
        }
      ],
      "payable": false,
      "stateMutability": "view",
      "type": "function"
    }
  ],
  "bytecode": "0x60806040526000600160006101000a81548173ffffffffffffffffffffffffffffffffffffffff021916908373ffffffffffffffffffffffffffffffffffffffff1602179055506000600260006101000a81548173ffffffffffffffffffffffffffffffffffffffff021916908373ffffffffffffffffffffffffffffffffffffffff160217905550336000806101000a81548173ffffffffffffffffffffffffffffffffffffffff021916908373ffffffffffffffffffffffffffffffffffffffff160217905550612d66806100d76000396000f300608060405260043610610107576000357c0100000000000000000000000000000000000000000000000000000000900463ffffffff16806319d459251461010c5780631af26fc21461018d5780631e89bf061461020e5780631fde23a41461026557806324d7806c146102bc57806329e81c79146103175780635a6dad3c146103b85780636da705f5146103ef578063715018a614610490578063764d1e04146104a75780637937f46d146104d95780638717ef271461051c5780638da5cb5b1461058557806390e8d82f146105dc5780639137c1a71461061f578063a4230bd514610662578063a6c8210e146106b1578063f0cb740a14610706578063f2fde38b14610787575b600080fd5b34801561011857600080fd5b50610173600480360381019080803590602001908201803590602001908080601f01602080910402602001604051908101604052809392919081815260200183838082843782019150505050505091929192905050506107ca565b604051808215151515815260200191505060405180910390f35b34801561019957600080fd5b506101f4600480360381019080803590602001908201803590602001908080601f01602080910402602001604051908101604052809392919081815260200183838082843782019150505050505091929192905050506109b6565b604051808215151515815260200191505060405180910390f35b34801561021a57600080fd5b50610223610b8b565b604051808273ffffffffffffffffffffffffffffffffffffffff1673ffffffffffffffffffffffffffffffffffffffff16815260200191505060405180910390f35b34801561027157600080fd5b5061027a610bb1565b604051808273ffffffffffffffffffffffffffffffffffffffff1673ffffffffffffffffffffffffffffffffffffffff16815260200191505060405180910390f35b3480156102c857600080fd5b506102fd600480360381019080803573ffffffffffffffffffffffffffffffffffffffff169060200190929190505050610bd7565b604051808215151515815260200191505060405180910390f35b34801561032357600080fd5b5061039e600480360381019080803573ffffffffffffffffffffffffffffffffffffffff169060200190929190803590602001908201803590602001908080601f0160208091040260200160405190810160405280939291908181526020018383808284378201915050505050509192919290505050610c2d565b604051808215151515815260200191505060405180910390f35b3480156103c457600080fd5b506103ed6004803603810190808035906020019092919080359060200190929190505050610e44565b005b3480156103fb57600080fd5b50610476600480360381019080803573ffffffffffffffffffffffffffffffffffffffff169060200190929190803590602001908201803590602001908080601f01602080910402602001604051908101604052809392919081815260200183838082843782019150505050505091929192905050506110a1565b604051808215151515815260200191505060405180910390f35b34801561049c57600080fd5b506104a561120f565b005b3480156104b357600080fd5b506104bc611311565b604051808381526020018281526020019250505060405180910390f35b3480156104e557600080fd5b5061051a600480360381019080803573ffffffffffffffffffffffffffffffffffffffff16906020019092919050505061152e565b005b34801561052857600080fd5b50610583600480360381019080803590602001909291908035906020019092919080359060200190929190803590602001909291908035906020019092919080359060200190929190803590602001909291905050506115cd565b005b34801561059157600080fd5b5061059a611d2e565b604051808273ffffffffffffffffffffffffffffffffffffffff1673ffffffffffffffffffffffffffffffffffffffff16815260200191505060405180910390f35b3480156105e857600080fd5b5061061d600480360381019080803573ffffffffffffffffffffffffffffffffffffffff169060200190929190505050611d53565b005b34801561062b57600080fd5b50610660600480360381019080803573ffffffffffffffffffffffffffffffffffffffff169060200190929190505050612067565b005b34801561066e57600080fd5b506106af600480360381019080803573ffffffffffffffffffffffffffffffffffffffff169060200190929190803515159060200190929190505050612106565b005b3480156106bd57600080fd5b506106c661224a565b6040518088815260200187815260200186815260200185815260200184815260200183815260200182815260200197505050505050505060405180910390f35b34801561071257600080fd5b5061076d600480360381019080803590602001908201803590602001908080601f01602080910402602001604051908101604052809392919081815260200183838082843782019150505050505091929192905050506129ab565b604051808215151515815260200191505060405180910390f35b34801561079357600080fd5b506107c8600480360381019080803573ffffffffffffffffffffffffffffffffffffffff169060200190929190505050612b81565b005b600080600160009054906101000a900473ffffffffffffffffffffffffffffffffffffffff1673ffffffffffffffffffffffffffffffffffffffff166321f8a721846040516020018082805190602001908083835b602083101515610844578051825260208201915060208101905060208303925061081f565b6001836020036101000a038019825116818451168082178552505050505050905001807f465245454c414e43455200000000000000000000000000000000000000000000815250600a019150506040516020818303038152906040526040518082805190602001908083835b6020831015156108d557805182526020820191506020810190506020830392506108b0565b6001836020036101000a03801982511681845116808217855250505050505090500191505060405180910390206040518263ffffffff167c0100000000000000000000000000000000000000000000000000000000028152600401808260001916600019168152602001915050602060405180830381600087803b15801561095c57600080fd5b505af1158015610970573d6000803e3d6000fd5b505050506040513d602081101561098657600080fd5b810190808051906020019092919050505073ffffffffffffffffffffffffffffffffffffffff1614159050919050565b6000600160009054906101000a900473ffffffffffffffffffffffffffffffffffffffff1673ffffffffffffffffffffffffffffffffffffffff1663bd02d0f5836040516020018082805190602001908083835b602083101515610a2f5780518252602082019150602081019050602083039250610a0a565b6001836020036101000a038019825116818451168082178552505050505050905001807f45585049524544000000000000000000000000000000000000000000000000008152506007019150506040516020818303038152906040526040518082805190602001908083835b602083101515610ac05780518252602082019150602081019050602083039250610a9b565b6001836020036101000a03801982511681845116808217855250505050505090500191505060405180910390206040518263ffffffff167c0100000000000000000000000000000000000000000000000000000000028152600401808260001916600019168152602001915050602060405180830381600087803b158015610b4757600080fd5b505af1158015610b5b573d6000803e3d6000fd5b505050506040513d6020811015610b7157600080fd5b810190808051906020019092919050505042119050919050565b600260009054906101000a900473ffffffffffffffffffffffffffffffffffffffff1681565b600160009054906101000a900473ffffffffffffffffffffffffffffffffffffffff1681565b6000600360008373ffffffffffffffffffffffffffffffffffffffff1673ffffffffffffffffffffffffffffffffffffffff16815260200190815260200160002060009054906101000a900460ff169050919050565b6000600160009054906101000a900473ffffffffffffffffffffffffffffffffffffffff1673ffffffffffffffffffffffffffffffffffffffff16637ae1cfca83856040516020018083805190602001908083835b602083101515610ca75780518252602082019150602081019050602083039250610c82565b6001836020036101000a0380198251168184511680821785525050505050509050018273ffffffffffffffffffffffffffffffffffffffff1673ffffffffffffffffffffffffffffffffffffffff166c01000000000000000000000000028152601401807f43414e43454c0000000000000000000000000000000000000000000000000000815250600601925050506040516020818303038152906040526040518082805190602001908083835b602083101515610d7a5780518252602082019150602081019050602083039250610d55565b6001836020036101000a03801982511681845116808217855250505050505090500191505060405180910390206040518263ffffffff167c0100000000000000000000000000000000000000000000000000000000028152600401808260001916600019168152602001915050602060405180830381600087803b158015610e0157600080fd5b505af1158015610e15573d6000803e3d6000fd5b505050506040513d6020811015610e2b57600080fd5b8101908080519060200190929190505050905092915050565b60011515600360003373ffffffffffffffffffffffffffffffffffffffff1673ffffffffffffffffffffffffffffffffffffffff16815260200190815260200160002060009054906101000a900460ff161515141515610ea357600080fd5b600082111515610eb257600080fd5b600081111515610ec157600080fd5b600160009054906101000a900473ffffffffffffffffffffffffffffffffffffffff1673ffffffffffffffffffffffffffffffffffffffff1663e2a4853a60405180807f5041594d454e545f4c494d49545f54494d455354414d5000000000000000000081525060170190506040518091039020846040518363ffffffff167c010000000000000000000000000000000000000000000000000000000002815260040180836000191660001916815260200182815260200192505050600060405180830381600087803b158015610f9757600080fd5b505af1158015610fab573d6000803e3d6000fd5b50505050600160009054906101000a900473ffffffffffffffffffffffffffffffffffffffff1673ffffffffffffffffffffffffffffffffffffffff1663e2a4853a60405180807f52454a45435445445f5041594d454e545f4c494d49545f54494d455354414d5081525060200190506040518091039020836040518363ffffffff167c010000000000000000000000000000000000000000000000000000000002815260040180836000191660001916815260200182815260200192505050600060405180830381600087803b15801561108557600080fd5b505af1158015611099573d6000803e3d6000fd5b505050505050565b60008273ffffffffffffffffffffffffffffffffffffffff16600160009054906101000a900473ffffffffffffffffffffffffffffffffffffffff1673ffffffffffffffffffffffffffffffffffffffff166321f8a721846040518082805190602001908083835b60208310151561112e5780518252602082019150602081019050602083039250611109565b6001836020036101000a03801982511681845116808217855250505050505090500191505060405180910390206040518263ffffffff167c0100000000000000000000000000000000000000000000000000000000028152600401808260001916600019168152602001915050602060405180830381600087803b1580156111b557600080fd5b505af11580156111c9573d6000803e3d6000fd5b505050506040513d60208110156111df57600080fd5b810190808051906020019092919050505073ffffffffffffffffffffffffffffffffffffffff1614905092915050565b6000809054906101000a900473ffffffffffffffffffffffffffffffffffffffff1673ffffffffffffffffffffffffffffffffffffffff163373ffffffffffffffffffffffffffffffffffffffff1614151561126a57600080fd5b6000809054906101000a900473ffffffffffffffffffffffffffffffffffffffff1673ffffffffffffffffffffffffffffffffffffffff167ff8df31144d9c2f0f6b59d69b8b98abd5459d07f2742c4df920b25aae33c6482060405160405180910390a260008060006101000a81548173ffffffffffffffffffffffffffffffffffffffff021916908373ffffffffffffffffffffffffffffffffffffffff160217905550565b600080600160009054906101000a900473ffffffffffffffffffffffffffffffffffffffff1673ffffffffffffffffffffffffffffffffffffffff1663bd02d0f560405180807f5041594d454e545f4c494d49545f54494d455354414d50000000000000000000815250601701905060405180910390206040518263ffffffff167c0100000000000000000000000000000000000000000000000000000000028152600401808260001916600019168152602001915050602060405180830381600087803b1580156113e257600080fd5b505af11580156113f6573d6000803e3d6000fd5b505050506040513d602081101561140c57600080fd5b8101908080519060200190929190505050600160009054906101000a900473ffffffffffffffffffffffffffffffffffffffff1673ffffffffffffffffffffffffffffffffffffffff1663bd02d0f560405180807f52454a45435445445f5041594d454e545f4c494d49545f54494d455354414d50815250602001905060405180910390206040518263ffffffff167c0100000000000000000000000000000000000000000000000000000000028152600401808260001916600019168152602001915050602060405180830381600087803b1580156114eb57600080fd5b505af11580156114ff573d6000803e3d6000fd5b505050506040513d602081101561151557600080fd5b8101908080519060200190929190505050915091509091565b6000809054906101000a900473ffffffffffffffffffffffffffffffffffffffff1673ffffffffffffffffffffffffffffffffffffffff163373ffffffffffffffffffffffffffffffffffffffff1614151561158957600080fd5b80600260006101000a81548173ffffffffffffffffffffffffffffffffffffffff021916908373ffffffffffffffffffffffffffffffffffffffff16021790555050565b60011515600360003373ffffffffffffffffffffffffffffffffffffffff1673ffffffffffffffffffffffffffffffffffffffff16815260200190815260200160002060009054906101000a900460ff16151514151561162c57600080fd5b60008711151561163b57600080fd5b60008611151561164a57600080fd5b868611151561165857600080fd5b60008511151561166757600080fd5b60008411151561167657600080fd5b60008311151561168557600080fd5b60008211151561169457600080fd5b6000811115156116a357600080fd5b600160009054906101000a900473ffffffffffffffffffffffffffffffffffffffff1673ffffffffffffffffffffffffffffffffffffffff1663e2a4853a60405180807f4d494e5f564f544553000000000000000000000000000000000000000000000081525060090190506040518091039020896040518363ffffffff167c010000000000000000000000000000000000000000000000000000000002815260040180836000191660001916815260200182815260200192505050600060405180830381600087803b15801561177957600080fd5b505af115801561178d573d6000803e3d6000fd5b50505050600160009054906101000a900473ffffffffffffffffffffffffffffffffffffffff1673ffffffffffffffffffffffffffffffffffffffff1663e2a4853a60405180807f4d41585f564f544553000000000000000000000000000000000000000000000081525060090190506040518091039020886040518363ffffffff167c010000000000000000000000000000000000000000000000000000000002815260040180836000191660001916815260200182815260200192505050600060405180830381600087803b15801561186757600080fd5b505af115801561187b573d6000803e3d6000fd5b50505050600160009054906101000a900473ffffffffffffffffffffffffffffffffffffffff1673ffffffffffffffffffffffffffffffffffffffff1663e2a4853a60405180807f5354414b45445f4445504f534954000000000000000000000000000000000000815250600e0190506040518091039020876040518363ffffffff167c010000000000000000000000000000000000000000000000000000000002815260040180836000191660001916815260200182815260200192505050600060405180830381600087803b15801561195557600080fd5b505af1158015611969573d6000803e3d6000fd5b50505050600160009054906101000a900473ffffffffffffffffffffffffffffffffffffffff1673ffffffffffffffffffffffffffffffffffffffff1663e2a4853a60405180807f45564944454e43455f4455524154494f4e00000000000000000000000000000081525060110190506040518091039020866040518363ffffffff167c010000000000000000000000000000000000000000000000000000000002815260040180836000191660001916815260200182815260200192505050600060405180830381600087803b158015611a4357600080fd5b505af1158015611a57573d6000803e3d6000fd5b50505050600160009054906101000a900473ffffffffffffffffffffffffffffffffffffffff1673ffffffffffffffffffffffffffffffffffffffff1663e2a4853a60405180807f434f4d4d49545f4455524154494f4e0000000000000000000000000000000000815250600f0190506040518091039020856040518363ffffffff167c010000000000000000000000000000000000000000000000000000000002815260040180836000191660001916815260200182815260200192505050600060405180830381600087803b158015611b3157600080fd5b505af1158015611b45573d6000803e3d6000fd5b50505050600160009054906101000a900473ffffffffffffffffffffffffffffffffffffffff1673ffffffffffffffffffffffffffffffffffffffff1663e2a4853a60405180807f52455645414c5f4455524154494f4e0000000000000000000000000000000000815250600f0190506040518091039020846040518363ffffffff167c010000000000000000000000000000000000000000000000000000000002815260040180836000191660001916815260200182815260200192505050600060405180830381600087803b158015611c1f57600080fd5b505af1158015611c33573d6000803e3d6000fd5b50505050600160009054906101000a900473ffffffffffffffffffffffffffffffffffffffff1673ffffffffffffffffffffffffffffffffffffffff1663e2a4853a60405180807f42424f5f52455741524453000000000000000000000000000000000000000000815250600b0190506040518091039020836040518363ffffffff167c010000000000000000000000000000000000000000000000000000000002815260040180836000191660001916815260200182815260200192505050600060405180830381600087803b158015611d0d57600080fd5b505af1158015611d21573d6000803e3d6000fd5b5050505050505050505050565b6000809054906101000a900473ffffffffffffffffffffffffffffffffffffffff1681565b6000809054906101000a900473ffffffffffffffffffffffffffffffffffffffff1673ffffffffffffffffffffffffffffffffffffffff163373ffffffffffffffffffffffffffffffffffffffff16141515611dae57600080fd5b60003073ffffffffffffffffffffffffffffffffffffffff16311115611e4e576000809054906101000a900473ffffffffffffffffffffffffffffffffffffffff1673ffffffffffffffffffffffffffffffffffffffff166108fc3073ffffffffffffffffffffffffffffffffffffffff16319081150290604051600060405180830381858888f19350505050158015611e4c573d6000803e3d6000fd5b505b600073ffffffffffffffffffffffffffffffffffffffff168173ffffffffffffffffffffffffffffffffffffffff16141515612064578073ffffffffffffffffffffffffffffffffffffffff1663a9059cbb6000809054906101000a900473ffffffffffffffffffffffffffffffffffffffff168373ffffffffffffffffffffffffffffffffffffffff166370a08231306040518263ffffffff167c0100000000000000000000000000000000000000000000000000000000028152600401808273ffffffffffffffffffffffffffffffffffffffff1673ffffffffffffffffffffffffffffffffffffffff168152602001915050602060405180830381600087803b158015611f5d57600080fd5b505af1158015611f71573d6000803e3d6000fd5b505050506040513d6020811015611f8757600080fd5b81019080805190602001909291905050506040518363ffffffff167c0100000000000000000000000000000000000000000000000000000000028152600401808373ffffffffffffffffffffffffffffffffffffffff1673ffffffffffffffffffffffffffffffffffffffff16815260200182815260200192505050602060405180830381600087803b15801561201d57600080fd5b505af1158015612031573d6000803e3d6000fd5b505050506040513d602081101561204757600080fd5b8101908080519060200190929190505050151561206357600080fd5b5b50565b6000809054906101000a900473ffffffffffffffffffffffffffffffffffffffff1673ffffffffffffffffffffffffffffffffffffffff163373ffffffffffffffffffffffffffffffffffffffff161415156120c257600080fd5b80600160006101000a81548173ffffffffffffffffffffffffffffffffffffffff021916908373ffffffffffffffffffffffffffffffffffffffff16021790555050565b6000809054906101000a900473ffffffffffffffffffffffffffffffffffffffff1673ffffffffffffffffffffffffffffffffffffffff163373ffffffffffffffffffffffffffffffffffffffff1614151561216157600080fd5b600073ffffffffffffffffffffffffffffffffffffffff168273ffffffffffffffffffffffffffffffffffffffff161415151561219d57600080fd5b80600360008473ffffffffffffffffffffffffffffffffffffffff1673ffffffffffffffffffffffffffffffffffffffff16815260200190815260200160002060006101000a81548160ff0219169083151502179055508173ffffffffffffffffffffffffffffffffffffffff167f8a7039f4ea6f86a6a98d9c1efb0ea9d190f6b3fa37c32627cf48f767f51e36d582604051808215151515815260200191505060405180910390a25050565b6000806000806000806000600160009054906101000a900473ffffffffffffffffffffffffffffffffffffffff1673ffffffffffffffffffffffffffffffffffffffff1663bd02d0f560405180807f4d494e5f564f5445530000000000000000000000000000000000000000000000815250600901905060405180910390206040518263ffffffff167c0100000000000000000000000000000000000000000000000000000000028152600401808260001916600019168152602001915050602060405180830381600087803b15801561232357600080fd5b505af1158015612337573d6000803e3d6000fd5b505050506040513d602081101561234d57600080fd5b8101908080519060200190929190505050600160009054906101000a900473ffffffffffffffffffffffffffffffffffffffff1673ffffffffffffffffffffffffffffffffffffffff1663bd02d0f560405180807f4d41585f564f5445530000000000000000000000000000000000000000000000815250600901905060405180910390206040518263ffffffff167c0100000000000000000000000000000000000000000000000000000000028152600401808260001916600019168152602001915050602060405180830381600087803b15801561242c57600080fd5b505af1158015612440573d6000803e3d6000fd5b505050506040513d602081101561245657600080fd5b8101908080519060200190929190505050600160009054906101000a900473ffffffffffffffffffffffffffffffffffffffff1673ffffffffffffffffffffffffffffffffffffffff1663bd02d0f560405180807f5354414b45445f4445504f534954000000000000000000000000000000000000815250600e01905060405180910390206040518263ffffffff167c0100000000000000000000000000000000000000000000000000000000028152600401808260001916600019168152602001915050602060405180830381600087803b15801561253557600080fd5b505af1158015612549573d6000803e3d6000fd5b505050506040513d602081101561255f57600080fd5b8101908080519060200190929190505050600160009054906101000a900473ffffffffffffffffffffffffffffffffffffffff1673ffffffffffffffffffffffffffffffffffffffff1663bd02d0f560405180807f45564944454e43455f4455524154494f4e000000000000000000000000000000815250601101905060405180910390206040518263ffffffff167c0100000000000000000000000000000000000000000000000000000000028152600401808260001916600019168152602001915050602060405180830381600087803b15801561263e57600080fd5b505af1158015612652573d6000803e3d6000fd5b505050506040513d602081101561266857600080fd5b8101908080519060200190929190505050600160009054906101000a900473ffffffffffffffffffffffffffffffffffffffff1673ffffffffffffffffffffffffffffffffffffffff1663bd02d0f560405180807f434f4d4d49545f4455524154494f4e0000000000000000000000000000000000815250600f01905060405180910390206040518263ffffffff167c0100000000000000000000000000000000000000000000000000000000028152600401808260001916600019168152602001915050602060405180830381600087803b15801561274757600080fd5b505af115801561275b573d6000803e3d6000fd5b505050506040513d602081101561277157600080fd5b8101908080519060200190929190505050600160009054906101000a900473ffffffffffffffffffffffffffffffffffffffff1673ffffffffffffffffffffffffffffffffffffffff1663bd02d0f560405180807f52455645414c5f4455524154494f4e0000000000000000000000000000000000815250600f01905060405180910390206040518263ffffffff167c0100000000000000000000000000000000000000000000000000000000028152600401808260001916600019168152602001915050602060405180830381600087803b15801561285057600080fd5b505af1158015612864573d6000803e3d6000fd5b505050506040513d602081101561287a57600080fd5b8101908080519060200190929190505050600160009054906101000a900473ffffffffffffffffffffffffffffffffffffffff1673ffffffffffffffffffffffffffffffffffffffff1663bd02d0f560405180807f42424f5f52455741524453000000000000000000000000000000000000000000815250600b01905060405180910390206040518263ffffffff167c0100000000000000000000000000000000000000000000000000000000028152600401808260001916600019168152602001915050602060405180830381600087803b15801561295957600080fd5b505af115801561296d573d6000803e3d6000fd5b505050506040513d602081101561298357600080fd5b8101908080519060200190929190505050965096509650965096509650965090919293949596565b600080600160009054906101000a900473ffffffffffffffffffffffffffffffffffffffff1673ffffffffffffffffffffffffffffffffffffffff1663bd02d0f5846040516020018082805190602001908083835b602083101515612a255780518252602082019150602081019050602083039250612a00565b6001836020036101000a038019825116818451168082178552505050505050905001807f53544154555300000000000000000000000000000000000000000000000000008152506006019150506040516020818303038152906040526040518082805190602001908083835b602083101515612ab65780518252602082019150602081019050602083039250612a91565b6001836020036101000a03801982511681845116808217855250505050505090500191505060405180910390206040518263ffffffff167c0100000000000000000000000000000000000000000000000000000000028152600401808260001916600019168152602001915050602060405180830381600087803b158015612b3d57600080fd5b505af1158015612b51573d6000803e3d6000fd5b505050506040513d6020811015612b6757600080fd5b810190808051906020019092919050505014159050919050565b600073ffffffffffffffffffffffffffffffffffffffff166000809054906101000a900473ffffffffffffffffffffffffffffffffffffffff1673ffffffffffffffffffffffffffffffffffffffff16141515612c34576000809054906101000a900473ffffffffffffffffffffffffffffffffffffffff1673ffffffffffffffffffffffffffffffffffffffff163373ffffffffffffffffffffffffffffffffffffffff16141515612c3357600080fd5b5b612c3d81612c40565b50565b600073ffffffffffffffffffffffffffffffffffffffff168173ffffffffffffffffffffffffffffffffffffffff1614151515612c7c57600080fd5b8073ffffffffffffffffffffffffffffffffffffffff166000809054906101000a900473ffffffffffffffffffffffffffffffffffffffff1673ffffffffffffffffffffffffffffffffffffffff167f8be0079c531659141344cd1fd0a4f28419497f9722a3daafe3b4186f6b6457e060405160405180910390a3806000806101000a81548173ffffffffffffffffffffffffffffffffffffffff021916908373ffffffffffffffffffffffffffffffffffffffff160217905550505600a165627a7a7230582042aa4dc6a4d0e8b06bded16f85b3d579159539b869aab49e947e281196df50720029",
  "source": "pragma solidity ^0.4.24;\n\nimport './BBFreelancer.sol';\n\ncontract BBParams is BBFreelancer{\n\n  mapping(address => bool) private admins;\n  event AdminAdded(address indexed admin, bool add);\n  modifier onlyAdmin() {\n    require(admins[msg.sender]==true);\n    _;\n  }\n\n  function addAdmin(address admin, bool add) onlyOwner public {\n    require(admin!=address(0x0));\n    admins[admin] = add;\n    emit AdminAdded(admin, add);\n  }\n\n  function isAdmin(address admin) public view returns (bool isAdm){\n    isAdm = admins[admin];\n  }\n\n  function setFreelancerParams(uint256 paymentLimitTimestamp, uint256 rejectedPaymentLimitTimestamp) onlyAdmin public {\n  \trequire(paymentLimitTimestamp > 0);\n    require(rejectedPaymentLimitTimestamp > 0);\n    bbs.setUint(keccak256('PAYMENT_LIMIT_TIMESTAMP'), paymentLimitTimestamp);\n    bbs.setUint(keccak256('REJECTED_PAYMENT_LIMIT_TIMESTAMP'), rejectedPaymentLimitTimestamp);\n  \n  }\n  function getFreelancerParams() public view returns(uint256, uint256){\n  \treturn (bbs.getUint(keccak256('PAYMENT_LIMIT_TIMESTAMP')), bbs.getUint(keccak256('REJECTED_PAYMENT_LIMIT_TIMESTAMP')));\n  }\n\n  function setVotingParams(uint256 minVotes, uint256 maxVotes, \n   uint256 stakeDeposit, uint256 evidenceDuration, uint256 commitDuration, \n   uint256 revealDuration, uint256 bboRewards) onlyAdmin public {\n\n  \trequire(minVotes > 0);\n  \trequire(maxVotes>0);\n    require(maxVotes > minVotes);\n  \trequire(stakeDeposit>0);\n  \trequire(evidenceDuration>0);\n  \trequire(commitDuration>0);\n  \trequire(revealDuration>0);\n  \trequire(bboRewards>0);\n\n    bbs.setUint(keccak256('MIN_VOTES'), minVotes);\n    bbs.setUint(keccak256('MAX_VOTES'), maxVotes);\n    bbs.setUint(keccak256('STAKED_DEPOSIT'), stakeDeposit);\n    bbs.setUint(keccak256('EVIDENCE_DURATION'), evidenceDuration);\n    bbs.setUint(keccak256('COMMIT_DURATION'), commitDuration);\n    bbs.setUint(keccak256('REVEAL_DURATION'), revealDuration);\n    bbs.setUint(keccak256('BBO_REWARDS'), bboRewards);\n  \n  }\n  function getVotingParams() public view returns(uint256, uint256,uint256,uint256, uint256,uint256,uint256){\n  \treturn (bbs.getUint(keccak256('MIN_VOTES')), bbs.getUint(keccak256('MAX_VOTES')),  \n  \tbbs.getUint(keccak256('STAKED_DEPOSIT')), bbs.getUint(keccak256('EVIDENCE_DURATION')), bbs.getUint(keccak256('COMMIT_DURATION')), \n  \tbbs.getUint(keccak256('REVEAL_DURATION')), bbs.getUint(keccak256('BBO_REWARDS')));\n  }\n\n}",
  "sourcePath": "/Users/yena/Documents/tuongnguyen/bigbom-digital-contract/src/contracts/BBParams.sol",
  "compiler": {
    "name": "solc",
    "version": "0.4.24+commit.e67f0147.Emscripten.clang"
  },
  "schemaVersion": "2.0.1",
  "updatedAt": "2018-09-28T15:02:40.425Z"
}