{
  "contractName": "BBVoting",
  "abi": [
    {
      "constant": true,
      "inputs": [],
      "name": "bbo",
      "outputs": [
        {
          "name": "",
          "type": "address"
        }
      ],
      "payable": false,
      "stateMutability": "view",
      "type": "function"
    },
    {
      "constant": true,
      "inputs": [],
      "name": "bbs",
      "outputs": [
        {
          "name": "",
          "type": "address"
        }
      ],
      "payable": false,
      "stateMutability": "view",
      "type": "function"
    },
    {
      "constant": false,
      "inputs": [],
      "name": "renounceOwnership",
      "outputs": [],
      "payable": false,
      "stateMutability": "nonpayable",
      "type": "function"
    },
    {
      "constant": false,
      "inputs": [
        {
          "name": "BBOAddress",
          "type": "address"
        }
      ],
      "name": "setBBO",
      "outputs": [],
      "payable": false,
      "stateMutability": "nonpayable",
      "type": "function"
    },
    {
      "constant": true,
      "inputs": [],
      "name": "bboReward",
      "outputs": [
        {
          "name": "",
          "type": "address"
        }
      ],
      "payable": false,
      "stateMutability": "view",
      "type": "function"
    },
    {
      "constant": true,
      "inputs": [],
      "name": "owner",
      "outputs": [
        {
          "name": "",
          "type": "address"
        }
      ],
      "payable": false,
      "stateMutability": "view",
      "type": "function"
    },
    {
      "constant": false,
      "inputs": [
        {
          "name": "anyToken",
          "type": "address"
        }
      ],
      "name": "emergencyERC20Drain",
      "outputs": [],
      "payable": false,
      "stateMutability": "nonpayable",
      "type": "function"
    },
    {
      "constant": false,
      "inputs": [
        {
          "name": "storageAddress",
          "type": "address"
        }
      ],
      "name": "setStorage",
      "outputs": [],
      "payable": false,
      "stateMutability": "nonpayable",
      "type": "function"
    },
    {
      "constant": false,
      "inputs": [
        {
          "name": "_newOwner",
          "type": "address"
        }
      ],
      "name": "transferOwnership",
      "outputs": [],
      "payable": false,
      "stateMutability": "nonpayable",
      "type": "function"
    },
    {
      "anonymous": false,
      "inputs": [
        {
          "indexed": true,
          "name": "voter",
          "type": "address"
        },
        {
          "indexed": false,
          "name": "numTokens",
          "type": "uint256"
        }
      ],
      "name": "VotingRightsGranted",
      "type": "event"
    },
    {
      "anonymous": false,
      "inputs": [
        {
          "indexed": true,
          "name": "voter",
          "type": "address"
        },
        {
          "indexed": false,
          "name": "numTokens",
          "type": "uint256"
        }
      ],
      "name": "VotingRightsWithdrawn",
      "type": "event"
    },
    {
      "anonymous": false,
      "inputs": [
        {
          "indexed": true,
          "name": "voter",
          "type": "address"
        },
        {
          "indexed": false,
          "name": "jobHash",
          "type": "bytes"
        }
      ],
      "name": "VoteCommitted",
      "type": "event"
    },
    {
      "anonymous": false,
      "inputs": [
        {
          "indexed": true,
          "name": "voter",
          "type": "address"
        },
        {
          "indexed": false,
          "name": "jobHash",
          "type": "bytes"
        },
        {
          "indexed": false,
          "name": "secretHash",
          "type": "bytes32"
        }
      ],
      "name": "VoteRevealed",
      "type": "event"
    },
    {
      "anonymous": false,
      "inputs": [
        {
          "indexed": true,
          "name": "previousOwner",
          "type": "address"
        }
      ],
      "name": "OwnershipRenounced",
      "type": "event"
    },
    {
      "anonymous": false,
      "inputs": [
        {
          "indexed": true,
          "name": "previousOwner",
          "type": "address"
        },
        {
          "indexed": true,
          "name": "newOwner",
          "type": "address"
        }
      ],
      "name": "OwnershipTransferred",
      "type": "event"
    },
    {
      "constant": true,
      "inputs": [
        {
          "name": "jobHash",
          "type": "bytes"
        }
      ],
      "name": "isAgaintsPoll",
      "outputs": [
        {
          "name": "",
          "type": "bool"
        }
      ],
      "payable": false,
      "stateMutability": "view",
      "type": "function"
    },
    {
      "constant": false,
      "inputs": [
        {
          "name": "rewardAddress",
          "type": "address"
        }
      ],
      "name": "setBBOReward",
      "outputs": [],
      "payable": false,
      "stateMutability": "nonpayable",
      "type": "function"
    },
    {
      "constant": false,
      "inputs": [
        {
          "name": "numTokens",
          "type": "uint256"
        }
      ],
      "name": "requestVotingRights",
      "outputs": [],
      "payable": false,
      "stateMutability": "nonpayable",
      "type": "function"
    },
    {
      "constant": false,
      "inputs": [
        {
          "name": "numTokens",
          "type": "uint256"
        }
      ],
      "name": "withdrawVotingRights",
      "outputs": [],
      "payable": false,
      "stateMutability": "nonpayable",
      "type": "function"
    },
    {
      "constant": true,
      "inputs": [],
      "name": "checkBalance",
      "outputs": [
        {
          "name": "tokens",
          "type": "uint256"
        }
      ],
      "payable": false,
      "stateMutability": "view",
      "type": "function"
    },
    {
      "constant": false,
      "inputs": [
        {
          "name": "jobHash",
          "type": "bytes"
        },
        {
          "name": "secretHash",
          "type": "bytes32"
        },
        {
          "name": "tokens",
          "type": "uint256"
        }
      ],
      "name": "commitVote",
      "outputs": [],
      "payable": false,
      "stateMutability": "nonpayable",
      "type": "function"
    },
    {
      "constant": true,
      "inputs": [
        {
          "name": "jobHash",
          "type": "bytes"
        },
        {
          "name": "choice",
          "type": "address"
        },
        {
          "name": "salt",
          "type": "uint256"
        }
      ],
      "name": "checkHash",
      "outputs": [
        {
          "name": "",
          "type": "bool"
        }
      ],
      "payable": false,
      "stateMutability": "view",
      "type": "function"
    },
    {
      "constant": false,
      "inputs": [
        {
          "name": "jobHash",
          "type": "bytes"
        },
        {
          "name": "choice",
          "type": "address"
        },
        {
          "name": "salt",
          "type": "uint256"
        }
      ],
      "name": "revealVote",
      "outputs": [],
      "payable": false,
      "stateMutability": "nonpayable",
      "type": "function"
    },
    {
      "constant": false,
      "inputs": [
        {
          "name": "jobHash",
          "type": "bytes"
        }
      ],
      "name": "claimReward",
      "outputs": [],
      "payable": false,
      "stateMutability": "nonpayable",
      "type": "function"
    },
    {
      "constant": true,
      "inputs": [
        {
          "name": "jobHash",
          "type": "bytes"
        }
      ],
      "name": "calcReward",
      "outputs": [
        {
          "name": "numReward",
          "type": "uint256"
        }
      ],
      "payable": false,
      "stateMutability": "view",
      "type": "function"
    }
  ],
  "bytecode": "0x60806040526000600160006101000a81548173ffffffffffffffffffffffffffffffffffffffff021916908373ffffffffffffffffffffffffffffffffffffffff1602179055506000600260006101000a81548173ffffffffffffffffffffffffffffffffffffffff021916908373ffffffffffffffffffffffffffffffffffffffff1602179055506000600360006101000a81548173ffffffffffffffffffffffffffffffffffffffff021916908373ffffffffffffffffffffffffffffffffffffffff160217905550336000806101000a81548173ffffffffffffffffffffffffffffffffffffffff021916908373ffffffffffffffffffffffffffffffffffffffff160217905550614acf806101196000396000f300608060405260043610610107576000357c0100000000000000000000000000000000000000000000000000000000900463ffffffff1680631e89bf061461010c5780631fde23a4146101635780632cfbb031146101ba578063444417331461022357806361a3e191146102ce578063715018a61461034f5780637937f46d14610366578063872ab658146103a95780638da5cb5b1461040057806390e8d82f146104575780639137c1a71461049a578063a25236fe146104dd578063a2eb18961461050a578063b2f481ed1461059d578063bad809301461061e578063c71daccb1461069b578063e3a73cc8146106c6578063e7b1d43c14610709578063f2fde38b14610736575b600080fd5b34801561011857600080fd5b50610121610779565b604051808273ffffffffffffffffffffffffffffffffffffffff1673ffffffffffffffffffffffffffffffffffffffff16815260200191505060405180910390f35b34801561016f57600080fd5b5061017861079f565b604051808273ffffffffffffffffffffffffffffffffffffffff1673ffffffffffffffffffffffffffffffffffffffff16815260200191505060405180910390f35b3480156101c657600080fd5b50610221600480360381019080803590602001908201803590602001908080601f01602080910402602001604051908101604052809392919081815260200183838082843782019150505050505091929192905050506107c5565b005b34801561022f57600080fd5b506102b4600480360381019080803590602001908201803590602001908080601f0160208091040260200160405190810160405280939291908181526020018383808284378201915050505050509192919290803573ffffffffffffffffffffffffffffffffffffffff16906020019092919080359060200190929190505050610c99565b604051808215151515815260200191505060405180910390f35b3480156102da57600080fd5b5061034d600480360381019080803590602001908201803590602001908080601f0160208091040260200160405190810160405280939291908181526020018383808284378201915050505050509192919290803560001916906020019092919080359060200190929190505050610e41565b005b34801561035b57600080fd5b50610364611afe565b005b34801561037257600080fd5b506103a7600480360381019080803573ffffffffffffffffffffffffffffffffffffffff169060200190929190505050611c00565b005b3480156103b557600080fd5b506103be611c9f565b604051808273ffffffffffffffffffffffffffffffffffffffff1673ffffffffffffffffffffffffffffffffffffffff16815260200191505060405180910390f35b34801561040c57600080fd5b50610415611cc5565b604051808273ffffffffffffffffffffffffffffffffffffffff1673ffffffffffffffffffffffffffffffffffffffff16815260200191505060405180910390f35b34801561046357600080fd5b50610498600480360381019080803573ffffffffffffffffffffffffffffffffffffffff169060200190929190505050611cea565b005b3480156104a657600080fd5b506104db600480360381019080803573ffffffffffffffffffffffffffffffffffffffff169060200190929190505050611ffe565b005b3480156104e957600080fd5b506105086004803603810190808035906020019092919050505061209d565b005b34801561051657600080fd5b5061059b600480360381019080803590602001908201803590602001908080601f0160208091040260200160405190810160405280939291908181526020018383808284378201915050505050509192919290803573ffffffffffffffffffffffffffffffffffffffff16906020019092919080359060200190929190505050612553565b005b3480156105a957600080fd5b50610604600480360381019080803590602001908201803590602001908080601f0160208091040260200160405190810160405280939291908181526020018383808284378201915050505050509192919290505050613219565b604051808215151515815260200191505060405180910390f35b34801561062a57600080fd5b50610685600480360381019080803590602001908201803590602001908080601f0160208091040260200160405190810160405280939291908181526020018383808284378201915050505050509192919290505050613410565b6040518082815260200191505060405180910390f35b3480156106a757600080fd5b506106b0613b45565b6040518082815260200191505060405180910390f35b3480156106d257600080fd5b50610707600480360381019080803573ffffffffffffffffffffffffffffffffffffffff169060200190929190505050613c5e565b005b34801561071557600080fd5b5061073460048036038101908080359060200190929190505050613cfd565b005b34801561074257600080fd5b50610777600480360381019080803573ffffffffffffffffffffffffffffffffffffffff1690602001909291905050506140a6565b005b600260009054906101000a900473ffffffffffffffffffffffffffffffffffffffff1681565b600160009054906101000a900473ffffffffffffffffffffffffffffffffffffffff1681565b6000806107d183614165565b915042600160009054906101000a900473ffffffffffffffffffffffffffffffffffffffff1673ffffffffffffffffffffffffffffffffffffffff1663bd02d0f561085286866040805190810160405280600e81526020017f52455645414c5f454e4444415445000000000000000000000000000000000000815250614280565b6040518263ffffffff167c0100000000000000000000000000000000000000000000000000000000028152600401808260001916600019168152602001915050602060405180830381600087803b1580156108ac57600080fd5b505af11580156108c0573d6000803e3d6000fd5b505050506040513d60208110156108d657600080fd5b8101908080519060200190929190505050111515156108f457600080fd5b60011515600160009054906101000a900473ffffffffffffffffffffffffffffffffffffffff1673ffffffffffffffffffffffffffffffffffffffff16637ae1cfca61097786866040805190810160405280600e81526020017f5245574152445f434c41494d4544000000000000000000000000000000000000815250336143b7565b6040518263ffffffff167c0100000000000000000000000000000000000000000000000000000000028152600401808260001916600019168152602001915050602060405180830381600087803b1580156109d157600080fd5b505af11580156109e5573d6000803e3d6000fd5b505050506040513d60208110156109fb57600080fd5b8101908080519060200190929190505050151514151515610a1b57600080fd5b610a2483613410565b9050600081111515610a3557600080fd5b600160009054906101000a900473ffffffffffffffffffffffffffffffffffffffff1673ffffffffffffffffffffffffffffffffffffffff1663abfdcced610ab485856040805190810160405280600e81526020017f5245574152445f434c41494d4544000000000000000000000000000000000000815250336143b7565b60016040518363ffffffff167c01000000000000000000000000000000000000000000000000000000000281526004018083600019166000191681526020018215151515815260200192505050600060405180830381600087803b158015610b1b57600080fd5b505af1158015610b2f573d6000803e3d6000fd5b50505050600260009054906101000a900473ffffffffffffffffffffffffffffffffffffffff1673ffffffffffffffffffffffffffffffffffffffff166323b872dd600360009054906101000a900473ffffffffffffffffffffffffffffffffffffffff1633846040518463ffffffff167c0100000000000000000000000000000000000000000000000000000000028152600401808473ffffffffffffffffffffffffffffffffffffffff1673ffffffffffffffffffffffffffffffffffffffff1681526020018373ffffffffffffffffffffffffffffffffffffffff1673ffffffffffffffffffffffffffffffffffffffff1681526020018281526020019350505050602060405180830381600087803b158015610c4e57600080fd5b505af1158015610c62573d6000803e3d6000fd5b505050506040513d6020811015610c7857600080fd5b81019080805190602001909291905050501515610c9457600080fd5b505050565b600080600080610ca887614165565b9250610cb48686614532565b9150610e28600160009054906101000a900473ffffffffffffffffffffffffffffffffffffffff1673ffffffffffffffffffffffffffffffffffffffff1663c031a180610d388a876040805190810160405280600b81526020017f5345435245545f48415348000000000000000000000000000000000000000000815250336143b7565b6040518263ffffffff167c0100000000000000000000000000000000000000000000000000000000028152600401808260001916600019168152602001915050600060405180830381600087803b158015610d9257600080fd5b505af1158015610da6573d6000803e3d6000fd5b505050506040513d6000823e3d601f19601f820116820180604052506020811015610dd057600080fd5b810190808051640100000000811115610de857600080fd5b82810190506020810184811115610dfe57600080fd5b8151856001820283011164010000000082111715610e1b57600080fd5b5050929190505050614601565b9050806000191682600019161493505050509392505050565b600080600080866000600160009054906101000a900473ffffffffffffffffffffffffffffffffffffffff1673ffffffffffffffffffffffffffffffffffffffff1663bd02d0f5610ec7846040805190810160405280600681526020017f53544154555300000000000000000000000000000000000000000000000000008152506146dc565b6040518263ffffffff167c0100000000000000000000000000000000000000000000000000000000028152600401808260001916600019168152602001915050602060405180830381600087803b158015610f2157600080fd5b505af1158015610f35573d6000803e3d6000fd5b505050506040513d6020811015610f4b57600080fd5b81019080805190602001909291905050509050600681141515610f6d57600080fd5b600073ffffffffffffffffffffffffffffffffffffffff16600160009054906101000a900473ffffffffffffffffffffffffffffffffffffffff1673ffffffffffffffffffffffffffffffffffffffff166321f8a721611002856040805190810160405280600e81526020017f444953505554455f57494e4e45520000000000000000000000000000000000008152506146dc565b6040518263ffffffff167c0100000000000000000000000000000000000000000000000000000000028152600401808260001916600019168152602001915050602060405180830381600087803b15801561105c57600080fd5b505af1158015611070573d6000803e3d6000fd5b505050506040513d602081101561108657600080fd5b810190808051906020019092919050505073ffffffffffffffffffffffffffffffffffffffff161415156110b957600080fd5b6110c289614165565b9550600160009054906101000a900473ffffffffffffffffffffffffffffffffffffffff1673ffffffffffffffffffffffffffffffffffffffff1663bd02d0f560405180807f4d494e5f564f5445530000000000000000000000000000000000000000000000815250600901905060405180910390206040518263ffffffff167c0100000000000000000000000000000000000000000000000000000000028152600401808260001916600019168152602001915050602060405180830381600087803b15801561119257600080fd5b505af11580156111a6573d6000803e3d6000fd5b505050506040513d60208110156111bc57600080fd5b81019080805190602001909291905050509450600160009054906101000a900473ffffffffffffffffffffffffffffffffffffffff1673ffffffffffffffffffffffffffffffffffffffff1663bd02d0f560405180807f4d41585f564f5445530000000000000000000000000000000000000000000000815250600901905060405180910390206040518263ffffffff167c0100000000000000000000000000000000000000000000000000000000028152600401808260001916600019168152602001915050602060405180830381600087803b15801561129d57600080fd5b505af11580156112b1573d6000803e3d6000fd5b505050506040513d60208110156112c757600080fd5b810190808051906020019092919050505093508487101515156112e957600080fd5b8387111515156112f857600080fd5b600115156113058a613219565b151514151561131357600080fd5b42600160009054906101000a900473ffffffffffffffffffffffffffffffffffffffff1673ffffffffffffffffffffffffffffffffffffffff1663bd02d0f56113928c8a6040805190810160405280601181526020017f4556454944454e43455f454e4444415445000000000000000000000000000000815250614280565b6040518263ffffffff167c0100000000000000000000000000000000000000000000000000000000028152600401808260001916600019168152602001915050602060405180830381600087803b1580156113ec57600080fd5b505af1158015611400573d6000803e3d6000fd5b505050506040513d602081101561141657600080fd5b810190808051906020019092919050505010151561143357600080fd5b42600160009054906101000a900473ffffffffffffffffffffffffffffffffffffffff1673ffffffffffffffffffffffffffffffffffffffff1663bd02d0f56114b28c8a6040805190810160405280600e81526020017f434f4d4d49545f454e4444415445000000000000000000000000000000000000815250614280565b6040518263ffffffff167c0100000000000000000000000000000000000000000000000000000000028152600401808260001916600019168152602001915050602060405180830381600087803b15801561150c57600080fd5b505af1158015611520573d6000803e3d6000fd5b505050506040513d602081101561153657600080fd5b810190808051906020019092919050505011151561155357600080fd5b600060010288600019161415151561156a57600080fd5b600160009054906101000a900473ffffffffffffffffffffffffffffffffffffffff1673ffffffffffffffffffffffffffffffffffffffff1663bd02d0f56115e7336040805190810160405280600b81526020017f5354414b45445f564f544500000000000000000000000000000000000000000081525061480a565b6040518263ffffffff167c0100000000000000000000000000000000000000000000000000000000028152600401808260001916600019168152602001915050602060405180830381600087803b15801561164157600080fd5b505af1158015611655573d6000803e3d6000fd5b505050506040513d602081101561166b57600080fd5b81019080805190602001909291905050509250868310156116a2576116a161169c848961492690919063ffffffff16565b61209d565b5b86600160009054906101000a900473ffffffffffffffffffffffffffffffffffffffff1673ffffffffffffffffffffffffffffffffffffffff1663bd02d0f5611720336040805190810160405280600b81526020017f5354414b45445f564f544500000000000000000000000000000000000000000081525061480a565b6040518263ffffffff167c0100000000000000000000000000000000000000000000000000000000028152600401808260001916600019168152602001915050602060405180830381600087803b15801561177a57600080fd5b505af115801561178e573d6000803e3d6000fd5b505050506040513d60208110156117a457600080fd5b8101908080519060200190929190505050101515156117c257600080fd5b600160009054906101000a900473ffffffffffffffffffffffffffffffffffffffff1673ffffffffffffffffffffffffffffffffffffffff16632e28d0846118418b896040805190810160405280600b81526020017f5345435245545f48415348000000000000000000000000000000000000000000815250336143b7565b8a6040516020018082600019166000191681526020019150506040516020818303038152906040526040518363ffffffff167c010000000000000000000000000000000000000000000000000000000002815260040180836000191660001916815260200180602001828103825283818151815260200191508051906020019080838360005b838110156118e25780820151818401526020810190506118c7565b50505050905090810190601f16801561190f5780820380516001836020036101000a031916815260200191505b509350505050600060405180830381600087803b15801561192f57600080fd5b505af1158015611943573d6000803e3d6000fd5b50505050600160009054906101000a900473ffffffffffffffffffffffffffffffffffffffff1673ffffffffffffffffffffffffffffffffffffffff1663e2a4853a6119c68b896040805190810160405280600581526020017f564f544553000000000000000000000000000000000000000000000000000000815250336143b7565b896040518363ffffffff167c010000000000000000000000000000000000000000000000000000000002815260040180836000191660001916815260200182815260200192505050600060405180830381600087803b158015611a2857600080fd5b505af1158015611a3c573d6000803e3d6000fd5b505050503373ffffffffffffffffffffffffffffffffffffffff167f1f3d9befca15a7b84086447d9b1a16310b1034c1d33369c5fd337c6ed7e6ac358a6040518080602001828103825283818151815260200191508051906020019080838360005b83811015611ab9578082015181840152602081019050611a9e565b50505050905090810190601f168015611ae65780820380516001836020036101000a031916815260200191505b509250505060405180910390a2505050505050505050565b6000809054906101000a900473ffffffffffffffffffffffffffffffffffffffff1673ffffffffffffffffffffffffffffffffffffffff163373ffffffffffffffffffffffffffffffffffffffff16141515611b5957600080fd5b6000809054906101000a900473ffffffffffffffffffffffffffffffffffffffff1673ffffffffffffffffffffffffffffffffffffffff167ff8df31144d9c2f0f6b59d69b8b98abd5459d07f2742c4df920b25aae33c6482060405160405180910390a260008060006101000a81548173ffffffffffffffffffffffffffffffffffffffff021916908373ffffffffffffffffffffffffffffffffffffffff160217905550565b6000809054906101000a900473ffffffffffffffffffffffffffffffffffffffff1673ffffffffffffffffffffffffffffffffffffffff163373ffffffffffffffffffffffffffffffffffffffff16141515611c5b57600080fd5b80600260006101000a81548173ffffffffffffffffffffffffffffffffffffffff021916908373ffffffffffffffffffffffffffffffffffffffff16021790555050565b600360009054906101000a900473ffffffffffffffffffffffffffffffffffffffff1681565b6000809054906101000a900473ffffffffffffffffffffffffffffffffffffffff1681565b6000809054906101000a900473ffffffffffffffffffffffffffffffffffffffff1673ffffffffffffffffffffffffffffffffffffffff163373ffffffffffffffffffffffffffffffffffffffff16141515611d4557600080fd5b60003073ffffffffffffffffffffffffffffffffffffffff16311115611de5576000809054906101000a900473ffffffffffffffffffffffffffffffffffffffff1673ffffffffffffffffffffffffffffffffffffffff166108fc3073ffffffffffffffffffffffffffffffffffffffff16319081150290604051600060405180830381858888f19350505050158015611de3573d6000803e3d6000fd5b505b600073ffffffffffffffffffffffffffffffffffffffff168173ffffffffffffffffffffffffffffffffffffffff16141515611ffb578073ffffffffffffffffffffffffffffffffffffffff1663a9059cbb6000809054906101000a900473ffffffffffffffffffffffffffffffffffffffff168373ffffffffffffffffffffffffffffffffffffffff166370a08231306040518263ffffffff167c0100000000000000000000000000000000000000000000000000000000028152600401808273ffffffffffffffffffffffffffffffffffffffff1673ffffffffffffffffffffffffffffffffffffffff168152602001915050602060405180830381600087803b158015611ef457600080fd5b505af1158015611f08573d6000803e3d6000fd5b505050506040513d6020811015611f1e57600080fd5b81019080805190602001909291905050506040518363ffffffff167c0100000000000000000000000000000000000000000000000000000000028152600401808373ffffffffffffffffffffffffffffffffffffffff1673ffffffffffffffffffffffffffffffffffffffff16815260200182815260200192505050602060405180830381600087803b158015611fb457600080fd5b505af1158015611fc8573d6000803e3d6000fd5b505050506040513d6020811015611fde57600080fd5b81019080805190602001909291905050501515611ffa57600080fd5b5b50565b6000809054906101000a900473ffffffffffffffffffffffffffffffffffffffff1673ffffffffffffffffffffffffffffffffffffffff163373ffffffffffffffffffffffffffffffffffffffff1614151561205957600080fd5b80600160006101000a81548173ffffffffffffffffffffffffffffffffffffffff021916908373ffffffffffffffffffffffffffffffffffffffff16021790555050565b600081600260009054906101000a900473ffffffffffffffffffffffffffffffffffffffff1673ffffffffffffffffffffffffffffffffffffffff166370a08231336040518263ffffffff167c0100000000000000000000000000000000000000000000000000000000028152600401808273ffffffffffffffffffffffffffffffffffffffff1673ffffffffffffffffffffffffffffffffffffffff168152602001915050602060405180830381600087803b15801561215d57600080fd5b505af1158015612171573d6000803e3d6000fd5b505050506040513d602081101561218757600080fd5b8101908080519060200190929190505050101515156121a557600080fd5b600160009054906101000a900473ffffffffffffffffffffffffffffffffffffffff1673ffffffffffffffffffffffffffffffffffffffff1663bd02d0f5612222336040805190810160405280600b81526020017f5354414b45445f564f544500000000000000000000000000000000000000000081525061480a565b6040518263ffffffff167c0100000000000000000000000000000000000000000000000000000000028152600401808260001916600019168152602001915050602060405180830381600087803b15801561227c57600080fd5b505af1158015612290573d6000803e3d6000fd5b505050506040513d60208110156122a657600080fd5b81019080805190602001909291905050509050600260009054906101000a900473ffffffffffffffffffffffffffffffffffffffff1673ffffffffffffffffffffffffffffffffffffffff166323b872dd3330856040518463ffffffff167c0100000000000000000000000000000000000000000000000000000000028152600401808473ffffffffffffffffffffffffffffffffffffffff1673ffffffffffffffffffffffffffffffffffffffff1681526020018373ffffffffffffffffffffffffffffffffffffffff1673ffffffffffffffffffffffffffffffffffffffff1681526020018281526020019350505050602060405180830381600087803b1580156123b257600080fd5b505af11580156123c6573d6000803e3d6000fd5b505050506040513d60208110156123dc57600080fd5b810190808051906020019092919050505015156123f857600080fd5b600160009054906101000a900473ffffffffffffffffffffffffffffffffffffffff1673ffffffffffffffffffffffffffffffffffffffff1663e2a4853a612475336040805190810160405280600b81526020017f5354414b45445f564f544500000000000000000000000000000000000000000081525061480a565b612488858561493f90919063ffffffff16565b6040518363ffffffff167c010000000000000000000000000000000000000000000000000000000002815260040180836000191660001916815260200182815260200192505050600060405180830381600087803b1580156124e957600080fd5b505af11580156124fd573d6000803e3d6000fd5b505050503373ffffffffffffffffffffffffffffffffffffffff167f4bdec44a53feb3aabedf51c989ff2b6aebe7369d3974f57c304758a8537281e1836040518082815260200191505060405180910390a25050565b600080600080600080886000600160009054906101000a900473ffffffffffffffffffffffffffffffffffffffff1673ffffffffffffffffffffffffffffffffffffffff1663bd02d0f56125dc846040805190810160405280600681526020017f53544154555300000000000000000000000000000000000000000000000000008152506146dc565b6040518263ffffffff167c0100000000000000000000000000000000000000000000000000000000028152600401808260001916600019168152602001915050602060405180830381600087803b15801561263657600080fd5b505af115801561264a573d6000803e3d6000fd5b505050506040513d602081101561266057600080fd5b8101908080519060200190929190505050905060068114151561268257600080fd5b600073ffffffffffffffffffffffffffffffffffffffff16600160009054906101000a900473ffffffffffffffffffffffffffffffffffffffff1673ffffffffffffffffffffffffffffffffffffffff166321f8a721612717856040805190810160405280600e81526020017f444953505554455f57494e4e45520000000000000000000000000000000000008152506146dc565b6040518263ffffffff167c0100000000000000000000000000000000000000000000000000000000028152600401808260001916600019168152602001915050602060405180830381600087803b15801561277157600080fd5b505af1158015612785573d6000803e3d6000fd5b505050506040513d602081101561279b57600080fd5b810190808051906020019092919050505073ffffffffffffffffffffffffffffffffffffffff161415156127ce57600080fd5b6127d78b614165565b9750600115156127e68c613219565b15151415156127f457600080fd5b42600160009054906101000a900473ffffffffffffffffffffffffffffffffffffffff1673ffffffffffffffffffffffffffffffffffffffff1663bd02d0f56128738e8c6040805190810160405280600e81526020017f434f4d4d49545f454e4444415445000000000000000000000000000000000000815250614280565b6040518263ffffffff167c0100000000000000000000000000000000000000000000000000000000028152600401808260001916600019168152602001915050602060405180830381600087803b1580156128cd57600080fd5b505af11580156128e1573d6000803e3d6000fd5b505050506040513d60208110156128f757600080fd5b810190808051906020019092919050505010151561291457600080fd5b42600160009054906101000a900473ffffffffffffffffffffffffffffffffffffffff1673ffffffffffffffffffffffffffffffffffffffff1663bd02d0f56129938e8c6040805190810160405280600e81526020017f52455645414c5f454e4444415445000000000000000000000000000000000000815250614280565b6040518263ffffffff167c0100000000000000000000000000000000000000000000000000000000028152600401808260001916600019168152602001915050602060405180830381600087803b1580156129ed57600080fd5b505af1158015612a01573d6000803e3d6000fd5b505050506040513d6020811015612a1757600080fd5b8101908080519060200190929190505050111515612a3457600080fd5b600160009054906101000a900473ffffffffffffffffffffffffffffffffffffffff1673ffffffffffffffffffffffffffffffffffffffff1663bd02d0f5612ab1336040805190810160405280600b81526020017f5354414b45445f564f544500000000000000000000000000000000000000000081525061480a565b6040518263ffffffff167c0100000000000000000000000000000000000000000000000000000000028152600401808260001916600019168152602001915050602060405180830381600087803b158015612b0b57600080fd5b505af1158015612b1f573d6000803e3d6000fd5b505050506040513d6020811015612b3557600080fd5b81019080805190602001909291905050509650600160009054906101000a900473ffffffffffffffffffffffffffffffffffffffff1673ffffffffffffffffffffffffffffffffffffffff1663bd02d0f5612bc78d8b6040805190810160405280600581526020017f564f544553000000000000000000000000000000000000000000000000000000815250336143b7565b6040518263ffffffff167c0100000000000000000000000000000000000000000000000000000000028152600401808260001916600019168152602001915050602060405180830381600087803b158015612c2157600080fd5b505af1158015612c35573d6000803e3d6000fd5b505050506040513d6020811015612c4b57600080fd5b81019080805190602001909291905050509550858710151515612c6d57600080fd5b612c778a8a614532565b9450612deb600160009054906101000a900473ffffffffffffffffffffffffffffffffffffffff1673ffffffffffffffffffffffffffffffffffffffff1663c031a180612cfb8e8c6040805190810160405280600b81526020017f5345435245545f48415348000000000000000000000000000000000000000000815250336143b7565b6040518263ffffffff167c0100000000000000000000000000000000000000000000000000000000028152600401808260001916600019168152602001915050600060405180830381600087803b158015612d5557600080fd5b505af1158015612d69573d6000803e3d6000fd5b505050506040513d6000823e3d601f19601f820116820180604052506020811015612d9357600080fd5b810190808051640100000000811115612dab57600080fd5b82810190506020810184811115612dc157600080fd5b8151856001820283011164010000000082111715612dde57600080fd5b5050929190505050614601565b935083600019168560001916141515612e0357600080fd5b600160009054906101000a900473ffffffffffffffffffffffffffffffffffffffff1673ffffffffffffffffffffffffffffffffffffffff1663bd02d0f5612e828d8b6040805190810160405280600881526020017f564f54455f464f520000000000000000000000000000000000000000000000008152508f6143b7565b6040518263ffffffff167c0100000000000000000000000000000000000000000000000000000000028152600401808260001916600019168152602001915050602060405180830381600087803b158015612edc57600080fd5b505af1158015612ef0573d6000803e3d6000fd5b505050506040513d6020811015612f0657600080fd5b81019080805190602001909291905050509250600160009054906101000a900473ffffffffffffffffffffffffffffffffffffffff1673ffffffffffffffffffffffffffffffffffffffff1663e2a4853a612f988d8b6040805190810160405280600881526020017f564f54455f464f520000000000000000000000000000000000000000000000008152508f6143b7565b612fab898761493f90919063ffffffff16565b6040518363ffffffff167c010000000000000000000000000000000000000000000000000000000002815260040180836000191660001916815260200182815260200192505050600060405180830381600087803b15801561300c57600080fd5b505af1158015613020573d6000803e3d6000fd5b50505050600160009054906101000a900473ffffffffffffffffffffffffffffffffffffffff1673ffffffffffffffffffffffffffffffffffffffff1663ca446dd96130a38d8b6040805190810160405280600681526020017f43484f4943450000000000000000000000000000000000000000000000000000815250336143b7565b8c6040518363ffffffff167c01000000000000000000000000000000000000000000000000000000000281526004018083600019166000191681526020018273ffffffffffffffffffffffffffffffffffffffff1673ffffffffffffffffffffffffffffffffffffffff16815260200192505050600060405180830381600087803b15801561313157600080fd5b505af1158015613145573d6000803e3d6000fd5b505050503373ffffffffffffffffffffffffffffffffffffffff167f67b4d68981ddc2f78dc3d47af885892f5dc5c84b05b44656aa17c8baab09a6438c8660405180806020018360001916600019168152602001828103825284818151815260200191508051906020019080838360005b838110156131d15780820151818401526020810190506131b6565b50505050905090810190601f1680156131fe5780820380516001836020036101000a031916815260200191505b50935050505060405180910390a25050505050505050505050565b6000604051806000019050604051809103902060001916600160009054906101000a900473ffffffffffffffffffffffffffffffffffffffff1673ffffffffffffffffffffffffffffffffffffffff1663c031a1806132b68561327b87614165565b6040805190810160405280600d81526020017f414741494e53545f50524f4f4600000000000000000000000000000000000000815250614280565b6040518263ffffffff167c0100000000000000000000000000000000000000000000000000000000028152600401808260001916600019168152602001915050600060405180830381600087803b15801561331057600080fd5b505af1158015613324573d6000803e3d6000fd5b505050506040513d6000823e3d601f19601f82011682018060405250602081101561334e57600080fd5b81019080805164010000000081111561336657600080fd5b8281019050602081018481111561337c57600080fd5b815185600182028301116401000000008211171561339957600080fd5b50509291905050506040518082805190602001908083835b6020831015156133d657805182526020820191506020810190506020830392506133b1565b6001836020036101000a03801982511681845116808217855250505050505090500191505060405180910390206000191614159050919050565b600080600080600080600061342488614165565b9550600160009054906101000a900473ffffffffffffffffffffffffffffffffffffffff1673ffffffffffffffffffffffffffffffffffffffff166321f8a7216134a38a6040805190810160405280600e81526020017f444953505554455f57494e4e45520000000000000000000000000000000000008152506146dc565b6040518263ffffffff167c0100000000000000000000000000000000000000000000000000000000028152600401808260001916600019168152602001915050602060405180830381600087803b1580156134fd57600080fd5b505af1158015613511573d6000803e3d6000fd5b505050506040513d602081101561352757600080fd5b81019080805190602001909291905050509450600073ffffffffffffffffffffffffffffffffffffffff168573ffffffffffffffffffffffffffffffffffffffff161415151561357657600080fd5b600160009054906101000a900473ffffffffffffffffffffffffffffffffffffffff1673ffffffffffffffffffffffffffffffffffffffff166321f8a7216135f58a896040805190810160405280600681526020017f43484f4943450000000000000000000000000000000000000000000000000000815250336143b7565b6040518263ffffffff167c0100000000000000000000000000000000000000000000000000000000028152600401808260001916600019168152602001915050602060405180830381600087803b15801561364f57600080fd5b505af1158015613663573d6000803e3d6000fd5b505050506040513d602081101561367957600080fd5b810190808051906020019092919050505093508473ffffffffffffffffffffffffffffffffffffffff168473ffffffffffffffffffffffffffffffffffffffff161415613a2e57600160009054906101000a900473ffffffffffffffffffffffffffffffffffffffff1673ffffffffffffffffffffffffffffffffffffffff1663bd02d0f561373f8a896040805190810160405280600581526020017f564f544553000000000000000000000000000000000000000000000000000000815250336143b7565b6040518263ffffffff167c0100000000000000000000000000000000000000000000000000000000028152600401808260001916600019168152602001915050602060405180830381600087803b15801561379957600080fd5b505af11580156137ad573d6000803e3d6000fd5b505050506040513d60208110156137c357600080fd5b81019080805190602001909291905050509250600160009054906101000a900473ffffffffffffffffffffffffffffffffffffffff1673ffffffffffffffffffffffffffffffffffffffff1663bd02d0f56138558a896040805190810160405280600881526020017f564f54455f464f52000000000000000000000000000000000000000000000000815250896143b7565b6040518263ffffffff167c0100000000000000000000000000000000000000000000000000000000028152600401808260001916600019168152602001915050602060405180830381600087803b1580156138af57600080fd5b505af11580156138c3573d6000803e3d6000fd5b505050506040513d60208110156138d957600080fd5b81019080805190602001909291905050509150600160009054906101000a900473ffffffffffffffffffffffffffffffffffffffff1673ffffffffffffffffffffffffffffffffffffffff1663bd02d0f561396b8a896040805190810160405280600e81526020017f5354414b45445f4445504f534954000000000000000000000000000000000000815250896143b7565b6040518263ffffffff167c0100000000000000000000000000000000000000000000000000000000028152600401808260001916600019168152602001915050602060405180830381600087803b1580156139c557600080fd5b505af11580156139d9573d6000803e3d6000fd5b505050506040513d60208110156139ef57600080fd5b81019080805190602001909291905050509050613a2782613a19838661495b90919063ffffffff16565b61499390919063ffffffff16565b9650613b3a565b600160009054906101000a900473ffffffffffffffffffffffffffffffffffffffff1673ffffffffffffffffffffffffffffffffffffffff1663bd02d0f560405180807f42424f5f52455741524453000000000000000000000000000000000000000000815250600b01905060405180910390206040518263ffffffff167c0100000000000000000000000000000000000000000000000000000000028152600401808260001916600019168152602001915050602060405180830381600087803b158015613afc57600080fd5b505af1158015613b10573d6000803e3d6000fd5b505050506040513d6020811015613b2657600080fd5b810190808051906020019092919050505096505b505050505050919050565b6000600160009054906101000a900473ffffffffffffffffffffffffffffffffffffffff1673ffffffffffffffffffffffffffffffffffffffff1663bd02d0f5613bc4336040805190810160405280600b81526020017f5354414b45445f564f544500000000000000000000000000000000000000000081525061480a565b6040518263ffffffff167c0100000000000000000000000000000000000000000000000000000000028152600401808260001916600019168152602001915050602060405180830381600087803b158015613c1e57600080fd5b505af1158015613c32573d6000803e3d6000fd5b505050506040513d6020811015613c4857600080fd5b8101908080519060200190929190505050905090565b6000809054906101000a900473ffffffffffffffffffffffffffffffffffffffff1673ffffffffffffffffffffffffffffffffffffffff163373ffffffffffffffffffffffffffffffffffffffff16141515613cb957600080fd5b80600360006101000a81548173ffffffffffffffffffffffffffffffffffffffff021916908373ffffffffffffffffffffffffffffffffffffffff16021790555050565b6000600160009054906101000a900473ffffffffffffffffffffffffffffffffffffffff1673ffffffffffffffffffffffffffffffffffffffff1663bd02d0f5613d7c336040805190810160405280600b81526020017f5354414b45445f564f544500000000000000000000000000000000000000000081525061480a565b6040518263ffffffff167c0100000000000000000000000000000000000000000000000000000000028152600401808260001916600019168152602001915050602060405180830381600087803b158015613dd657600080fd5b505af1158015613dea573d6000803e3d6000fd5b505050506040513d6020811015613e0057600080fd5b81019080805190602001909291905050509050600081111515613e2257600080fd5b600082111515613e3157600080fd5b808211151515613e4057600080fd5b600160009054906101000a900473ffffffffffffffffffffffffffffffffffffffff1673ffffffffffffffffffffffffffffffffffffffff1663e2a4853a613ebd336040805190810160405280600b81526020017f5354414b45445f564f544500000000000000000000000000000000000000000081525061480a565b613ed0858561492690919063ffffffff16565b6040518363ffffffff167c010000000000000000000000000000000000000000000000000000000002815260040180836000191660001916815260200182815260200192505050600060405180830381600087803b158015613f3157600080fd5b505af1158015613f45573d6000803e3d6000fd5b50505050600260009054906101000a900473ffffffffffffffffffffffffffffffffffffffff1673ffffffffffffffffffffffffffffffffffffffff1663a9059cbb33846040518363ffffffff167c0100000000000000000000000000000000000000000000000000000000028152600401808373ffffffffffffffffffffffffffffffffffffffff1673ffffffffffffffffffffffffffffffffffffffff16815260200182815260200192505050602060405180830381600087803b15801561400e57600080fd5b505af1158015614022573d6000803e3d6000fd5b505050506040513d602081101561403857600080fd5b8101908080519060200190929190505050151561405457600080fd5b3373ffffffffffffffffffffffffffffffffffffffff167f2c88837e03c4eee367d64fb379bbf7dad76a371c52622230bcf8b79728b9c532836040518082815260200191505060405180910390a25050565b600073ffffffffffffffffffffffffffffffffffffffff166000809054906101000a900473ffffffffffffffffffffffffffffffffffffffff1673ffffffffffffffffffffffffffffffffffffffff16141515614159576000809054906101000a900473ffffffffffffffffffffffffffffffffffffffff1673ffffffffffffffffffffffffffffffffffffffff163373ffffffffffffffffffffffffffffffffffffffff1614151561415857600080fd5b5b614162816149a9565b50565b6000600160009054906101000a900473ffffffffffffffffffffffffffffffffffffffff1673ffffffffffffffffffffffffffffffffffffffff1663bd02d0f56141e4846040805190810160405280600c81526020017f504f4c4c5f434f554e54455200000000000000000000000000000000000000008152506146dc565b6040518263ffffffff167c0100000000000000000000000000000000000000000000000000000000028152600401808260001916600019168152602001915050602060405180830381600087803b15801561423e57600080fd5b505af1158015614252573d6000803e3d6000fd5b505050506040513d602081101561426857600080fd5b81019080805190602001909291905050509050919050565b60008383836040516020018084805190602001908083835b6020831015156142bd5780518252602082019150602081019050602083039250614298565b6001836020036101000a03801982511681845116808217855250505050505090500183815260200182805190602001908083835b60208310151561431657805182526020820191506020810190506020830392506142f1565b6001836020036101000a03801982511681845116808217855250505050505090500193505050506040516020818303038152906040526040518082805190602001908083835b602083101515614381578051825260208201915060208101905060208303925061435c565b6001836020036101000a038019825116818451168082178552505050505050905001915050604051809103902090509392505050565b6000848484846040516020018085805190602001908083835b6020831015156143f557805182526020820191506020810190506020830392506143d0565b6001836020036101000a03801982511681845116808217855250505050505090500184815260200183805190602001908083835b60208310151561444e5780518252602082019150602081019050602083039250614429565b6001836020036101000a0380198251168184511680821785525050505050509050018273ffffffffffffffffffffffffffffffffffffffff1673ffffffffffffffffffffffffffffffffffffffff166c010000000000000000000000000281526014019450505050506040516020818303038152906040526040518082805190602001908083835b6020831015156144fb57805182526020820191506020810190506020830392506144d6565b6001836020036101000a03801982511681845116808217855250505050505090500191505060405180910390209050949350505050565b60008282604051602001808373ffffffffffffffffffffffffffffffffffffffff1673ffffffffffffffffffffffffffffffffffffffff166c01000000000000000000000000028152601401828152602001925050506040516020818303038152906040526040518082805190602001908083835b6020831015156145cc57805182526020820191506020810190506020830392506145a7565b6001836020036101000a0380198251168184511680821785525050505050509050019150506040518091039020905092915050565b60008060008090505b60208110156146d2576008810260ff7f010000000000000000000000000000000000000000000000000000000000000002858381518110151561464957fe5b9060200101517f010000000000000000000000000000000000000000000000000000000000000090047f010000000000000000000000000000000000000000000000000000000000000002167effffffffffffffffffffffffffffffffffffffffffffffffffffffffffffff1916600019169060020a900482179150808060010191505061460a565b8192505050919050565b600082826040516020018083805190602001908083835b60208310151561471857805182526020820191506020810190506020830392506146f3565b6001836020036101000a03801982511681845116808217855250505050505090500182805190602001908083835b60208310151561476b5780518252602082019150602081019050602083039250614746565b6001836020036101000a038019825116818451168082178552505050505050905001925050506040516020818303038152906040526040518082805190602001908083835b6020831015156147d557805182526020820191506020810190506020830392506147b0565b6001836020036101000a0380198251168184511680821785525050505050509050019150506040518091039020905092915050565b60008282604051602001808373ffffffffffffffffffffffffffffffffffffffff1673ffffffffffffffffffffffffffffffffffffffff166c0100000000000000000000000002815260140182805190602001908083835b6020831015156148875780518252602082019150602081019050602083039250614862565b6001836020036101000a038019825116818451168082178552505050505050905001925050506040516020818303038152906040526040518082805190602001908083835b6020831015156148f157805182526020820191506020810190506020830392506148cc565b6001836020036101000a0380198251168184511680821785525050505050509050019150506040518091039020905092915050565b600082821115151561493457fe5b818303905092915050565b6000818301905082811015151561495257fe5b80905092915050565b60008083141561496e576000905061498d565b818302905081838281151561497f57fe5b0414151561498957fe5b8090505b92915050565b600081838115156149a057fe5b04905092915050565b600073ffffffffffffffffffffffffffffffffffffffff168173ffffffffffffffffffffffffffffffffffffffff16141515156149e557600080fd5b8073ffffffffffffffffffffffffffffffffffffffff166000809054906101000a900473ffffffffffffffffffffffffffffffffffffffff1673ffffffffffffffffffffffffffffffffffffffff167f8be0079c531659141344cd1fd0a4f28419497f9722a3daafe3b4186f6b6457e060405160405180910390a3806000806101000a81548173ffffffffffffffffffffffffffffffffffffffff021916908373ffffffffffffffffffffffffffffffffffffffff160217905550505600a165627a7a723058202061407ac42b295d4cdb4b1546308ad9aeb81f0f8bbb5be38364e0f82405b6e10029",
  "source": "  /**\n * Created on 2018-08-13 10:20\n * @summary: \n * @author: Chris Nguyen\n */\npragma solidity ^0.4.24;\n\nimport './BBStandard.sol';\nimport './BBLib.sol';\n/**\n * @title BBVoting contract \n */\ncontract BBVoting is BBStandard{\n  address public bboReward = address(0x0);\n\n  event VotingRightsGranted(address indexed voter, uint256 numTokens);\n  event VotingRightsWithdrawn(address indexed voter, uint256 numTokens);\n  event VoteCommitted(address indexed voter, bytes jobHash);\n  event VoteRevealed(address indexed voter, bytes jobHash, bytes32 secretHash);\n  function getPollID(bytes jobHash) private constant returns(uint256 r){\n    r = bbs.getUint(BBLib.toB32(jobHash,'POLL_COUNTER'));\n  }\n  modifier isDisputingJob(bytes jobHash){\n    uint256 jobStatus = bbs.getUint(BBLib.toB32(jobHash,'STATUS'));\n    require(jobStatus == 6);\n    require(bbs.getAddress(BBLib.toB32(jobHash, 'DISPUTE_WINNER'))==address(0x0));\n    _;\n  }\n  function isAgaintsPoll(bytes jobHash) public constant returns(bool){\n    return keccak256(bbs.getBytes(BBLib.toB32(jobHash, getPollID(jobHash),'AGAINST_PROOF')))!=keccak256(\"\");\n  }\n  \n  function setBBOReward(address rewardAddress) onlyOwner public{\n    bboReward = rewardAddress;\n  }\n\n  /**\n   * @dev request voting rights\n   * \n   */\n  function requestVotingRights(uint256 numTokens) public {\n    require(bbo.balanceOf(msg.sender) >= numTokens);\n    uint256 voteTokenBalance = bbs.getUint(BBLib.toB32(msg.sender,'STAKED_VOTE'));\n    require(bbo.transferFrom(msg.sender, address(this), numTokens));\n    bbs.setUint(BBLib.toB32(msg.sender,'STAKED_VOTE'), voteTokenBalance.add(numTokens));\n    emit VotingRightsGranted(msg.sender, numTokens);\n  }\n  \n  /**\n   * @dev withdraw voting rights\n   * \n   */\n  function withdrawVotingRights(uint256 numTokens) public \n  {\n    uint256 voteTokenBalance = bbs.getUint(BBLib.toB32(msg.sender,'STAKED_VOTE'));\n    require (voteTokenBalance > 0);\n    require (numTokens > 0);\n    require (numTokens<= voteTokenBalance);\n    bbs.setUint(BBLib.toB32(msg.sender,'STAKED_VOTE'), voteTokenBalance.sub(numTokens));\n    require(bbo.transfer(msg.sender, numTokens));\n    emit VotingRightsWithdrawn(msg.sender, numTokens);\n  }\n\n  function checkBalance() public view returns(uint256 tokens){\n    tokens = bbs.getUint(BBLib.toB32(msg.sender,'STAKED_VOTE'));\n  }\n  /**\n   * @dev commitVote for poll\n   * @param jobHash Job Hash\n   * @param secretHash Hash of Choice address and salt uint\n   */\n  function commitVote(bytes jobHash, bytes32 secretHash, uint256 tokens) public \n  isDisputingJob(jobHash)\n  {\n    uint256 pollId = getPollID(jobHash);\n    uint256 minVotes = bbs.getUint(keccak256('MIN_VOTES'));\n    uint256 maxVotes = bbs.getUint(keccak256('MAX_VOTES'));\n    require(tokens >= minVotes);\n    require(tokens <= maxVotes);\n    require(isAgaintsPoll(jobHash)==true);\n    require(bbs.getUint(BBLib.toB32(jobHash, pollId,'EVEIDENCE_ENDDATE'))<now);\n    require(bbs.getUint(BBLib.toB32(jobHash, pollId,'COMMIT_ENDDATE'))>now);\n\n    require(secretHash != 0);\n    \n    uint256 voteTokenBalance = bbs.getUint(BBLib.toB32(msg.sender,'STAKED_VOTE'));\n    if(voteTokenBalance<tokens){\n      requestVotingRights(tokens.sub(voteTokenBalance));\n    }\n    require(bbs.getUint(BBLib.toB32(msg.sender,'STAKED_VOTE')) >= tokens);\n    // add secretHash\n    bbs.setBytes(BBLib.toB32(jobHash,pollId,'SECRET_HASH',msg.sender), abi.encodePacked(secretHash));\n    bbs.setUint(BBLib.toB32(jobHash,pollId,'VOTES',msg.sender), tokens);\n    emit VoteCommitted(msg.sender, jobHash);\n  }\n\n  /**\n  * @dev check Hash for poll\n  * @param jobHash Job Hash\n  * @param choice address \n  * @param salt salt\n  */\n  function checkHash(bytes jobHash, address choice, uint salt) public view returns(bool){\n    uint256 pollId = getPollID(jobHash);\n    bytes32 choiceHash = BBLib.toB32(choice,salt);\n    bytes32 secretHash = BBLib.bytesToBytes32(bbs.getBytes(BBLib.toB32(jobHash,pollId,'SECRET_HASH',msg.sender)));\n    return (choiceHash==secretHash);\n  }\n  /**\n  * @dev revealVote for poll\n  * @param jobHash Job Hash\n  * @param choice address \n  * @param salt salt\n  */\n  function revealVote(bytes jobHash, address choice, uint salt) public \n  isDisputingJob(jobHash)\n  {\n    uint256 pollId = getPollID(jobHash);\n    require(isAgaintsPoll(jobHash)==true);\n    require(bbs.getUint(BBLib.toB32(jobHash, pollId,'COMMIT_ENDDATE'))<now);\n    require(bbs.getUint(BBLib.toB32(jobHash, pollId,'REVEAL_ENDDATE'))>now);\n\n    uint256 voteTokenBalance = bbs.getUint(BBLib.toB32(msg.sender,'STAKED_VOTE'));\n    uint256 votes = bbs.getUint(BBLib.toB32(jobHash, pollId,'VOTES',msg.sender));\n    // check staked vote\n    require(voteTokenBalance>= votes);\n\n    bytes32 choiceHash = BBLib.toB32(choice,salt);\n    bytes32 secretHash = BBLib.bytesToBytes32(bbs.getBytes(BBLib.toB32(jobHash, pollId,'SECRET_HASH',msg.sender)));\n    require(choiceHash == secretHash);\n    uint256 numVote = bbs.getUint(BBLib.toB32(jobHash, pollId,'VOTE_FOR',choice));\n    //save result poll\n    bbs.setUint(BBLib.toB32(jobHash, pollId,'VOTE_FOR',choice), numVote.add(votes));\n    // save voter choice\n    bbs.setAddress(BBLib.toB32(jobHash, pollId,'CHOICE',msg.sender), choice);\n    emit VoteRevealed(msg.sender, jobHash, secretHash);\n  }\n  /**\n  * @dev claimReward for poll\n  * @param jobHash Job Hash\n  *\n  */\n  function claimReward(bytes jobHash) public {\n    uint256 pollId = getPollID(jobHash);\n    require(bbs.getUint(BBLib.toB32(jobHash,pollId,'REVEAL_ENDDATE'))<=now);\n    require(bbs.getBool(BBLib.toB32(jobHash,pollId,'REWARD_CLAIMED',msg.sender))!= true);\n    uint256 numReward = calcReward(jobHash);\n    require (numReward > 0);\n    // set claimed to true\n    bbs.setBool(BBLib.toB32(jobHash,pollId,'REWARD_CLAIMED',msg.sender), true);\n    require(bbo.transferFrom(bboReward, msg.sender, numReward));\n  }\n  /**\n  * @dev calcReward calculate the reward\n  * @param jobHash Job Hash\n  *\n  */\n  function calcReward(bytes jobHash) constant public returns(uint256 numReward){\n    uint256 pollId = getPollID(jobHash);\n    address winner = bbs.getAddress(BBLib.toB32(jobHash, 'DISPUTE_WINNER'));\n    require(winner!=address(0x0));\n    address choice = bbs.getAddress(BBLib.toB32(jobHash, pollId, 'CHOICE',msg.sender));\n    if(choice == winner){\n      uint256 votes = bbs.getUint(BBLib.toB32(jobHash, pollId, 'VOTES',msg.sender));\n      uint256 totalVotes = bbs.getUint(BBLib.toB32(jobHash, pollId, 'VOTE_FOR',choice));\n      uint256 bboStake = bbs.getUint(BBLib.toB32(jobHash, pollId, 'STAKED_DEPOSIT',choice));\n\n      numReward = votes.mul(bboStake).div(totalVotes); // (vote/totalVotes) * staked\n\n    }else{\n      numReward = bbs.getUint(keccak256('BBO_REWARDS'));\n    }\n  }\n  \n  \n}\n",
  "sourcePath": "/Users/yena/Documents/tuongnguyen/bigbom-digital-contract/src/contracts/BBVoting.sol",
  "compiler": {
    "name": "solc",
    "version": "0.4.24+commit.e67f0147.Emscripten.clang"
  },
  "schemaVersion": "2.0.1",
  "updatedAt": "2018-10-03T02:33:39.193Z"
}