{
  "contractName": "BBDispute",
  "abi": [
    {
      "constant": true,
      "inputs": [],
      "name": "bbo",
      "outputs": [
        {
          "name": "",
          "type": "address"
        }
      ],
      "payable": false,
      "stateMutability": "view",
      "type": "function"
    },
    {
      "constant": true,
      "inputs": [],
      "name": "bbs",
      "outputs": [
        {
          "name": "",
          "type": "address"
        }
      ],
      "payable": false,
      "stateMutability": "view",
      "type": "function"
    },
    {
      "constant": true,
      "inputs": [],
      "name": "payment",
      "outputs": [
        {
          "name": "",
          "type": "address"
        }
      ],
      "payable": false,
      "stateMutability": "view",
      "type": "function"
    },
    {
      "constant": true,
      "inputs": [],
      "name": "votingHelper",
      "outputs": [
        {
          "name": "",
          "type": "address"
        }
      ],
      "payable": false,
      "stateMutability": "view",
      "type": "function"
    },
    {
      "constant": false,
      "inputs": [],
      "name": "renounceOwnership",
      "outputs": [],
      "payable": false,
      "stateMutability": "nonpayable",
      "type": "function"
    },
    {
      "constant": false,
      "inputs": [
        {
          "name": "BBOAddress",
          "type": "address"
        }
      ],
      "name": "setBBO",
      "outputs": [],
      "payable": false,
      "stateMutability": "nonpayable",
      "type": "function"
    },
    {
      "constant": true,
      "inputs": [],
      "name": "owner",
      "outputs": [
        {
          "name": "",
          "type": "address"
        }
      ],
      "payable": false,
      "stateMutability": "view",
      "type": "function"
    },
    {
      "constant": false,
      "inputs": [
        {
          "name": "anyToken",
          "type": "address"
        }
      ],
      "name": "emergencyERC20Drain",
      "outputs": [],
      "payable": false,
      "stateMutability": "nonpayable",
      "type": "function"
    },
    {
      "constant": false,
      "inputs": [
        {
          "name": "storageAddress",
          "type": "address"
        }
      ],
      "name": "setStorage",
      "outputs": [],
      "payable": false,
      "stateMutability": "nonpayable",
      "type": "function"
    },
    {
      "constant": false,
      "inputs": [
        {
          "name": "_newOwner",
          "type": "address"
        }
      ],
      "name": "transferOwnership",
      "outputs": [],
      "payable": false,
      "stateMutability": "nonpayable",
      "type": "function"
    },
    {
      "constant": true,
      "inputs": [],
      "name": "voting",
      "outputs": [
        {
          "name": "",
          "type": "address"
        }
      ],
      "payable": false,
      "stateMutability": "view",
      "type": "function"
    },
    {
      "anonymous": false,
      "inputs": [
        {
          "indexed": true,
          "name": "jobID",
          "type": "uint256"
        },
        {
          "indexed": false,
          "name": "winner",
          "type": "uint256"
        }
      ],
      "name": "DisputeFinalized",
      "type": "event"
    },
    {
      "anonymous": false,
      "inputs": [
        {
          "indexed": true,
          "name": "jobID",
          "type": "uint256"
        },
        {
          "indexed": true,
          "name": "creator",
          "type": "address"
        },
        {
          "indexed": true,
          "name": "pollID",
          "type": "uint256"
        }
      ],
      "name": "DisputeStarted",
      "type": "event"
    },
    {
      "anonymous": false,
      "inputs": [
        {
          "indexed": true,
          "name": "jobID",
          "type": "uint256"
        },
        {
          "indexed": true,
          "name": "creator",
          "type": "address"
        },
        {
          "indexed": true,
          "name": "pollID",
          "type": "uint256"
        }
      ],
      "name": "DisputeAgainsted",
      "type": "event"
    },
    {
      "anonymous": false,
      "inputs": [
        {
          "indexed": true,
          "name": "jobID",
          "type": "uint256"
        },
        {
          "indexed": true,
          "name": "creator",
          "type": "address"
        },
        {
          "indexed": false,
          "name": "whiteFlag",
          "type": "bool"
        }
      ],
      "name": "DisputeUpdated",
      "type": "event"
    },
    {
      "anonymous": false,
      "inputs": [
        {
          "indexed": true,
          "name": "previousOwner",
          "type": "address"
        }
      ],
      "name": "OwnershipRenounced",
      "type": "event"
    },
    {
      "anonymous": false,
      "inputs": [
        {
          "indexed": true,
          "name": "previousOwner",
          "type": "address"
        },
        {
          "indexed": true,
          "name": "newOwner",
          "type": "address"
        }
      ],
      "name": "OwnershipTransferred",
      "type": "event"
    },
    {
      "constant": false,
      "inputs": [
        {
          "name": "p",
          "type": "address"
        }
      ],
      "name": "setPayment",
      "outputs": [],
      "payable": false,
      "stateMutability": "nonpayable",
      "type": "function"
    },
    {
      "constant": false,
      "inputs": [
        {
          "name": "p",
          "type": "address"
        }
      ],
      "name": "setVoting",
      "outputs": [],
      "payable": false,
      "stateMutability": "nonpayable",
      "type": "function"
    },
    {
      "constant": false,
      "inputs": [
        {
          "name": "p",
          "type": "address"
        }
      ],
      "name": "setVotingHelper",
      "outputs": [],
      "payable": false,
      "stateMutability": "nonpayable",
      "type": "function"
    },
    {
      "constant": true,
      "inputs": [
        {
          "name": "jobID",
          "type": "uint256"
        }
      ],
      "name": "isAgaintsDispute",
      "outputs": [
        {
          "name": "r",
          "type": "bool"
        }
      ],
      "payable": false,
      "stateMutability": "view",
      "type": "function"
    },
    {
      "constant": false,
      "inputs": [
        {
          "name": "jobID",
          "type": "uint256"
        }
      ],
      "name": "finalizeDispute",
      "outputs": [],
      "payable": false,
      "stateMutability": "nonpayable",
      "type": "function"
    },
    {
      "constant": false,
      "inputs": [
        {
          "name": "jobID",
          "type": "uint256"
        },
        {
          "name": "proofHash",
          "type": "bytes"
        }
      ],
      "name": "startDispute",
      "outputs": [],
      "payable": false,
      "stateMutability": "nonpayable",
      "type": "function"
    },
    {
      "constant": false,
      "inputs": [
        {
          "name": "jobID",
          "type": "uint256"
        },
        {
          "name": "againstProofHash",
          "type": "bytes"
        }
      ],
      "name": "againstDispute",
      "outputs": [],
      "payable": false,
      "stateMutability": "nonpayable",
      "type": "function"
    },
    {
      "constant": false,
      "inputs": [
        {
          "name": "jobID",
          "type": "uint256"
        },
        {
          "name": "whiteFlag",
          "type": "bool"
        }
      ],
      "name": "updateDispute",
      "outputs": [],
      "payable": false,
      "stateMutability": "nonpayable",
      "type": "function"
    },
    {
      "constant": false,
      "inputs": [
        {
          "name": "jobID",
          "type": "uint256"
        }
      ],
      "name": "claimReward",
      "outputs": [],
      "payable": false,
      "stateMutability": "nonpayable",
      "type": "function"
    },
    {
      "constant": true,
      "inputs": [
        {
          "name": "jobID",
          "type": "uint256"
        }
      ],
      "name": "calcReward",
      "outputs": [
        {
          "name": "numReward",
          "type": "uint256"
        },
        {
          "name": "win",
          "type": "bool"
        }
      ],
      "payable": false,
      "stateMutability": "view",
      "type": "function"
    }
  ],
  "bytecode": "0x60806040526000600160006101000a81548173ffffffffffffffffffffffffffffffffffffffff021916908373ffffffffffffffffffffffffffffffffffffffff1602179055506000600260006101000a81548173ffffffffffffffffffffffffffffffffffffffff021916908373ffffffffffffffffffffffffffffffffffffffff1602179055506000600360006101000a81548173ffffffffffffffffffffffffffffffffffffffff021916908373ffffffffffffffffffffffffffffffffffffffff1602179055506000600460006101000a81548173ffffffffffffffffffffffffffffffffffffffff021916908373ffffffffffffffffffffffffffffffffffffffff1602179055506000600560006101000a81548173ffffffffffffffffffffffffffffffffffffffff021916908373ffffffffffffffffffffffffffffffffffffffff160217905550336000806101000a81548173ffffffffffffffffffffffffffffffffffffffff021916908373ffffffffffffffffffffffffffffffffffffffff160217905550615da28061019d6000396000f30060806040526004361061011d576000357c0100000000000000000000000000000000000000000000000000000000900463ffffffff1680631e89bf06146101225780631fde23a41461017957806342f6487a146101d057806343dc798b146102275780634e508ea41461027e5780634f6fd769146102f1578063544c465c1461033657806356989a8314610382578063715018a6146103af5780637937f46d146103c65780637ecd6f76146104095780638da5cb5b1461047c57806390e8d82f146104d35780639137c1a7146105165780639ab06fcb14610559578063ae169a501461059c578063c4d07951146105c9578063e193289f1461060c578063f2fde38b1461064f578063f81b050614610692578063fce1ccca146106cb575b600080fd5b34801561012e57600080fd5b50610137610722565b604051808273ffffffffffffffffffffffffffffffffffffffff1673ffffffffffffffffffffffffffffffffffffffff16815260200191505060405180910390f35b34801561018557600080fd5b5061018e610748565b604051808273ffffffffffffffffffffffffffffffffffffffff1673ffffffffffffffffffffffffffffffffffffffff16815260200191505060405180910390f35b3480156101dc57600080fd5b506101e561076e565b604051808273ffffffffffffffffffffffffffffffffffffffff1673ffffffffffffffffffffffffffffffffffffffff16815260200191505060405180910390f35b34801561023357600080fd5b5061023c610794565b604051808273ffffffffffffffffffffffffffffffffffffffff1673ffffffffffffffffffffffffffffffffffffffff16815260200191505060405180910390f35b34801561028a57600080fd5b506102ef60048036038101908080359060200190929190803590602001908201803590602001908080601f01602080910402602001604051908101604052809392919081815260200183838082843782019150505050505091929192905050506107ba565b005b3480156102fd57600080fd5b5061031c60048036038101908080359060200190929190505050610994565b604051808215151515815260200191505060405180910390f35b34801561034257600080fd5b5061036160048036038101908080359060200190929190505050610b21565b60405180838152602001821515151581526020019250505060405180910390f35b34801561038e57600080fd5b506103ad600480360381019080803590602001909291905050506110f0565b005b3480156103bb57600080fd5b506103c4612365565b005b3480156103d257600080fd5b50610407600480360381019080803573ffffffffffffffffffffffffffffffffffffffff169060200190929190505050612467565b005b34801561041557600080fd5b5061047a60048036038101908080359060200190929190803590602001908201803590602001908080601f0160208091040260200160405190810160405280939291908181526020018383808284378201915050505050509192919290505050612506565b005b34801561048857600080fd5b5061049161266a565b604051808273ffffffffffffffffffffffffffffffffffffffff1673ffffffffffffffffffffffffffffffffffffffff16815260200191505060405180910390f35b3480156104df57600080fd5b50610514600480360381019080803573ffffffffffffffffffffffffffffffffffffffff16906020019092919050505061268f565b005b34801561052257600080fd5b50610557600480360381019080803573ffffffffffffffffffffffffffffffffffffffff1690602001909291905050506129a3565b005b34801561056557600080fd5b5061059a600480360381019080803573ffffffffffffffffffffffffffffffffffffffff169060200190929190505050612a42565b005b3480156105a857600080fd5b506105c760048036038101908080359060200190929190505050612ae1565b005b3480156105d557600080fd5b5061060a600480360381019080803573ffffffffffffffffffffffffffffffffffffffff169060200190929190505050612f6c565b005b34801561061857600080fd5b5061064d600480360381019080803573ffffffffffffffffffffffffffffffffffffffff16906020019092919050505061300b565b005b34801561065b57600080fd5b50610690600480360381019080803573ffffffffffffffffffffffffffffffffffffffff1690602001909291905050506130aa565b005b34801561069e57600080fd5b506106c960048036038101908080359060200190929190803515159060200190929190505050613169565b005b3480156106d757600080fd5b506106e0613ec0565b604051808273ffffffffffffffffffffffffffffffffffffffff1673ffffffffffffffffffffffffffffffffffffffff16815260200191505060405180910390f35b600260009054906101000a900473ffffffffffffffffffffffffffffffffffffffff1681565b600160009054906101000a900473ffffffffffffffffffffffffffffffffffffffff1681565b600360009054906101000a900473ffffffffffffffffffffffffffffffffffffffff1681565b600560009054906101000a900473ffffffffffffffffffffffffffffffffffffffff1681565b6000806107c684613ee6565b91506000821115156107d757600080fd5b600115156107e485614001565b15151415156107f257600080fd5b600115156107ff85614266565b151514151561080d57600080fd5b600160009054906101000a900473ffffffffffffffffffffffffffffffffffffffff1673ffffffffffffffffffffffffffffffffffffffff166321f8a72161088a866040805190810160405280600c81526020017f504f4c4c5f5354415254454400000000000000000000000000000000000000008152506144d8565b6040518263ffffffff167c0100000000000000000000000000000000000000000000000000000000028152600401808260001916600019168152602001915050602060405180830381600087803b1580156108e457600080fd5b505af11580156108f8573d6000803e3d6000fd5b505050506040513d602081101561090e57600080fd5b8101908080519060200190929190505050905060008173ffffffffffffffffffffffffffffffffffffffff161415151561094757600080fd5b3373ffffffffffffffffffffffffffffffffffffffff168173ffffffffffffffffffffffffffffffffffffffff161415151561098257600080fd5b61098e848484846145b9565b50505050565b60006060600560009054906101000a900473ffffffffffffffffffffffffffffffffffffffff1673ffffffffffffffffffffffffffffffffffffffff1663c888fcc36109df85613ee6565b6040518263ffffffff167c010000000000000000000000000000000000000000000000000000000002815260040180828152602001915050600060405180830381600087803b158015610a3157600080fd5b505af1158015610a45573d6000803e3d6000fd5b505050506040513d6000823e3d601f19601f820116820180604052506040811015610a6f57600080fd5b810190808051640100000000811115610a8757600080fd5b82810190506020810184811115610a9d57600080fd5b8151856020820283011164010000000082111715610aba57600080fd5b50509291906020018051640100000000811115610ad657600080fd5b82810190506020810184811115610aec57600080fd5b8151856020820283011164010000000082111715610b0957600080fd5b50509291905050505090506002815111915050919050565b600080600080600080600080600080610b398b613ee6565b9750600560009054906101000a900473ffffffffffffffffffffffffffffffffffffffff1673ffffffffffffffffffffffffffffffffffffffff16630c03fbd7338a6040518363ffffffff167c0100000000000000000000000000000000000000000000000000000000028152600401808373ffffffffffffffffffffffffffffffffffffffff1673ffffffffffffffffffffffffffffffffffffffff16815260200182815260200192505050602060405180830381600087803b158015610c0057600080fd5b505af1158015610c14573d6000803e3d6000fd5b505050506040513d6020811015610c2a57600080fd5b81019080805190602001909291905050509650600160009054906101000a900473ffffffffffffffffffffffffffffffffffffffff1673ffffffffffffffffffffffffffffffffffffffff166321f8a721610cba8d6040805190810160405280600c81526020017f504f4c4c5f5354415254454400000000000000000000000000000000000000008152506144d8565b6040518263ffffffff167c0100000000000000000000000000000000000000000000000000000000028152600401808260001916600019168152602001915050602060405180830381600087803b158015610d1457600080fd5b505af1158015610d28573d6000803e3d6000fd5b505050506040513d6020811015610d3e57600080fd5b81019080805190602001909291905050509550600560009054906101000a900473ffffffffffffffffffffffffffffffffffffffff1673ffffffffffffffffffffffffffffffffffffffff1663b6990ee1896040518263ffffffff167c01000000000000000000000000000000000000000000000000000000000281526004018082815260200191505060a060405180830381600087803b158015610de257600080fd5b505af1158015610df6573d6000803e3d6000fd5b505050506040513d60a0811015610e0c57600080fd5b81019080805190602001909291908051906020019092919080519060200190929190805190602001909291908051906020019092919050505095509550955050945060011515851515148015610e66575060011515831515145b156110df57600087118015610e7b5750603282115b15610fc657600160009054906101000a900473ffffffffffffffffffffffffffffffffffffffff1673ffffffffffffffffffffffffffffffffffffffff1663bd02d0f5610eff8d6040805190810160405280600e81526020017f5354414b45445f4445504f5349540000000000000000000000000000000000008152508c8b614a96565b6040518263ffffffff167c0100000000000000000000000000000000000000000000000000000000028152600401808260001916600019168152602001915050602060405180830381600087803b158015610f5957600080fd5b505af1158015610f6d573d6000803e3d6000fd5b505050506040513d6020811015610f8357600080fd5b81019080805190602001909291905050509050610fbb84610fad838a614bc490919063ffffffff16565b614bfc90919063ffffffff16565b9950600198506110da565b600160009054906101000a900473ffffffffffffffffffffffffffffffffffffffff1673ffffffffffffffffffffffffffffffffffffffff1663bd02d0f56110426040805190810160405280600b81526020017f42424f5f52455741524453000000000000000000000000000000000000000000815250614c12565b6040518263ffffffff167c0100000000000000000000000000000000000000000000000000000000028152600401808260001916600019168152602001915050602060405180830381600087803b15801561109c57600080fd5b505af11580156110b0573d6000803e3d6000fd5b505050506040513d60208110156110c657600080fd5b810190808051906020019092919050505099505b6110e3565b8298505b5050505050505050915091565b60008060008060008060008060006111078a613ee6565b9850600560009054906101000a900473ffffffffffffffffffffffffffffffffffffffff1673ffffffffffffffffffffffffffffffffffffffff1663b6990ee18a6040518263ffffffff167c01000000000000000000000000000000000000000000000000000000000281526004018082815260200191505060a060405180830381600087803b15801561119a57600080fd5b505af11580156111ae573d6000803e3d6000fd5b505050506040513d60a08110156111c457600080fd5b8101908080519060200190929190805190602001909291908051906020019092919080519060200190929190805190602001909291905050509950505097509750600115156112128b614266565b151514151561122057600080fd5b600160009054906101000a900473ffffffffffffffffffffffffffffffffffffffff1673ffffffffffffffffffffffffffffffffffffffff166321f8a72161129d8c6040805190810160405280600c81526020017f504f4c4c5f5354415254454400000000000000000000000000000000000000008152506144d8565b6040518263ffffffff167c0100000000000000000000000000000000000000000000000000000000028152600401808260001916600019168152602001915050602060405180830381600087803b1580156112f757600080fd5b505af115801561130b573d6000803e3d6000fd5b505050506040513d602081101561132157600080fd5b81019080805190602001909291905050509450600073ffffffffffffffffffffffffffffffffffffffff168573ffffffffffffffffffffffffffffffffffffffff161415151561137057600080fd5b600560009054906101000a900473ffffffffffffffffffffffffffffffffffffffff1673ffffffffffffffffffffffffffffffffffffffff1663b85fb20f8a6040518263ffffffff167c01000000000000000000000000000000000000000000000000000000000281526004018082815260200191505060a060405180830381600087803b15801561140157600080fd5b505af1158015611415573d6000803e3d6000fd5b505050506040513d60a081101561142b57600080fd5b81019080805190602001909291908051906020019092919080519060200190929190805190602001909291908051906020019092919050505050509550505042841115151561147957600080fd5b600160009054906101000a900473ffffffffffffffffffffffffffffffffffffffff1673ffffffffffffffffffffffffffffffffffffffff1663bd02d0f56114f88c6040805190810160405280600e81526020017f5354414b45445f4445504f5349540000000000000000000000000000000000008152508d8a614a96565b6040518263ffffffff167c0100000000000000000000000000000000000000000000000000000000028152600401808260001916600019168152602001915050602060405180830381600087803b15801561155257600080fd5b505af1158015611566573d6000803e3d6000fd5b505050506040513d602081101561157c57600080fd5b810190808051906020019092919050505092506115988a610994565b15156118a557600160009054906101000a900473ffffffffffffffffffffffffffffffffffffffff1673ffffffffffffffffffffffffffffffffffffffff1663ca446dd961161b8c6040805190810160405280600e81526020017f444953505554455f57494e4e45520000000000000000000000000000000000008152506144d8565b876040518363ffffffff167c01000000000000000000000000000000000000000000000000000000000281526004018083600019166000191681526020018273ffffffffffffffffffffffffffffffffffffffff1673ffffffffffffffffffffffffffffffffffffffff16815260200192505050600060405180830381600087803b1580156116a957600080fd5b505af11580156116bd573d6000803e3d6000fd5b50505050600260009054906101000a900473ffffffffffffffffffffffffffffffffffffffff1673ffffffffffffffffffffffffffffffffffffffff1663a9059cbb86856040518363ffffffff167c0100000000000000000000000000000000000000000000000000000000028152600401808373ffffffffffffffffffffffffffffffffffffffff1673ffffffffffffffffffffffffffffffffffffffff16815260200182815260200192505050602060405180830381600087803b15801561178657600080fd5b505af115801561179a573d6000803e3d6000fd5b505050506040513d60208110156117b057600080fd5b810190808051906020019092919050505015156117cc57600080fd5b600360009054906101000a900473ffffffffffffffffffffffffffffffffffffffff1673ffffffffffffffffffffffffffffffffffffffff166356989a838b6040518263ffffffff167c010000000000000000000000000000000000000000000000000000000002815260040180828152602001915050602060405180830381600087803b15801561185d57600080fd5b505af1158015611871573d6000803e3d6000fd5b505050506040513d602081101561188757600080fd5b810190808051906020019092919050505015156118a057fe5b612321565b600115158815151415156118b857600080fd5b600160009054906101000a900473ffffffffffffffffffffffffffffffffffffffff1673ffffffffffffffffffffffffffffffffffffffff166321f8a7216118ff8c614cea565b6040518263ffffffff167c0100000000000000000000000000000000000000000000000000000000028152600401808260001916600019168152602001915050602060405180830381600087803b15801561195957600080fd5b505af115801561196d573d6000803e3d6000fd5b505050506040513d602081101561198357600080fd5b81019080805190602001909291905050509150600160009054906101000a900473ffffffffffffffffffffffffffffffffffffffff1673ffffffffffffffffffffffffffffffffffffffff166321f8a721611a138c6040805190810160405280600a81526020017f465245454c414e434552000000000000000000000000000000000000000000008152506144d8565b6040518263ffffffff167c0100000000000000000000000000000000000000000000000000000000028152600401808260001916600019168152602001915050602060405180830381600087803b158015611a6d57600080fd5b505af1158015611a81573d6000803e3d6000fd5b505050506040513d6020811015611a9757600080fd5b810190808051906020019092919050505090506000871480611ab95750603286145b15611ec357600460009054906101000a900473ffffffffffffffffffffffffffffffffffffffff1673ffffffffffffffffffffffffffffffffffffffff1663b0cbea9f8a60016000806040518563ffffffff167c01000000000000000000000000000000000000000000000000000000000281526004018085815260200184151515158152602001838152602001828152602001945050505050602060405180830381600087803b158015611b6d57600080fd5b505af1158015611b81573d6000803e3d6000fd5b505050506040513d6020811015611b9757600080fd5b81019080805190602001909291905050501515611bb057fe5b600260009054906101000a900473ffffffffffffffffffffffffffffffffffffffff1673ffffffffffffffffffffffffffffffffffffffff1663a9059cbb83856040518363ffffffff167c0100000000000000000000000000000000000000000000000000000000028152600401808373ffffffffffffffffffffffffffffffffffffffff1673ffffffffffffffffffffffffffffffffffffffff16815260200182815260200192505050602060405180830381600087803b158015611c7557600080fd5b505af1158015611c89573d6000803e3d6000fd5b505050506040513d6020811015611c9f57600080fd5b81019080805190602001909291905050501515611cbb57600080fd5b600260009054906101000a900473ffffffffffffffffffffffffffffffffffffffff1673ffffffffffffffffffffffffffffffffffffffff1663a9059cbb82856040518363ffffffff167c0100000000000000000000000000000000000000000000000000000000028152600401808373ffffffffffffffffffffffffffffffffffffffff1673ffffffffffffffffffffffffffffffffffffffff16815260200182815260200192505050602060405180830381600087803b158015611d8057600080fd5b505af1158015611d94573d6000803e3d6000fd5b505050506040513d6020811015611daa57600080fd5b81019080805190602001909291905050501515611dc657600080fd5b600160009054906101000a900473ffffffffffffffffffffffffffffffffffffffff1673ffffffffffffffffffffffffffffffffffffffff1663e2a4853a611e438c6040805190810160405280600a81526020017f4a4f425f535441545553000000000000000000000000000000000000000000008152506144d8565b60046040518363ffffffff167c010000000000000000000000000000000000000000000000000000000002815260040180836000191660001916815260200182815260200192505050600060405180830381600087803b158015611ea657600080fd5b505af1158015611eba573d6000803e3d6000fd5b50505050612320565b600160009054906101000a900473ffffffffffffffffffffffffffffffffffffffff1673ffffffffffffffffffffffffffffffffffffffff1663ca446dd9611f408c6040805190810160405280600e81526020017f444953505554455f57494e4e45520000000000000000000000000000000000008152506144d8565b60018a14611f88578473ffffffffffffffffffffffffffffffffffffffff168873ffffffffffffffffffffffffffffffffffffffff1614611f815784611f83565b835b611f8a565b875b6040518363ffffffff167c01000000000000000000000000000000000000000000000000000000000281526004018083600019166000191681526020018273ffffffffffffffffffffffffffffffffffffffff1673ffffffffffffffffffffffffffffffffffffffff16815260200192505050600060405180830381600087803b15801561201757600080fd5b505af115801561202b573d6000803e3d6000fd5b50505050600260009054906101000a900473ffffffffffffffffffffffffffffffffffffffff1673ffffffffffffffffffffffffffffffffffffffff1663a9059cbb600160009054906101000a900473ffffffffffffffffffffffffffffffffffffffff1673ffffffffffffffffffffffffffffffffffffffff166321f8a7216120ea8e6040805190810160405280600e81526020017f444953505554455f57494e4e45520000000000000000000000000000000000008152506144d8565b6040518263ffffffff167c0100000000000000000000000000000000000000000000000000000000028152600401808260001916600019168152602001915050602060405180830381600087803b15801561214457600080fd5b505af1158015612158573d6000803e3d6000fd5b505050506040513d602081101561216e57600080fd5b8101908080519060200190929190505050856040518363ffffffff167c0100000000000000000000000000000000000000000000000000000000028152600401808373ffffffffffffffffffffffffffffffffffffffff1673ffffffffffffffffffffffffffffffffffffffff16815260200182815260200192505050602060405180830381600087803b15801561220557600080fd5b505af1158015612219573d6000803e3d6000fd5b505050506040513d602081101561222f57600080fd5b8101908080519060200190929190505050151561224b57600080fd5b600360009054906101000a900473ffffffffffffffffffffffffffffffffffffffff1673ffffffffffffffffffffffffffffffffffffffff166356989a838b6040518263ffffffff167c010000000000000000000000000000000000000000000000000000000002815260040180828152602001915050602060405180830381600087803b1580156122dc57600080fd5b505af11580156122f0573d6000803e3d6000fd5b505050506040513d602081101561230657600080fd5b8101908080519060200190929190505050151561231f57fe5b5b5b897f22628b04f751425420531455ea6f4c72908cb490253def3f4c4762c099f30ee9886040518082815260200191505060405180910390a250505050505050505050565b6000809054906101000a900473ffffffffffffffffffffffffffffffffffffffff1673ffffffffffffffffffffffffffffffffffffffff163373ffffffffffffffffffffffffffffffffffffffff161415156123c057600080fd5b6000809054906101000a900473ffffffffffffffffffffffffffffffffffffffff1673ffffffffffffffffffffffffffffffffffffffff167ff8df31144d9c2f0f6b59d69b8b98abd5459d07f2742c4df920b25aae33c6482060405160405180910390a260008060006101000a81548173ffffffffffffffffffffffffffffffffffffffff021916908373ffffffffffffffffffffffffffffffffffffffff160217905550565b6000809054906101000a900473ffffffffffffffffffffffffffffffffffffffff1673ffffffffffffffffffffffffffffffffffffffff163373ffffffffffffffffffffffffffffffffffffffff161415156124c257600080fd5b80600260006101000a81548173ffffffffffffffffffffffffffffffffffffffff021916908373ffffffffffffffffffffffffffffffffffffffff16021790555050565b6001151561251383614d75565b151514151561252157600080fd5b6001151561252e83614001565b151514151561253c57600080fd5b6000600160009054906101000a900473ffffffffffffffffffffffffffffffffffffffff1673ffffffffffffffffffffffffffffffffffffffff1663bd02d0f56125bb856040805190810160405280600781526020017f504f4c4c5f4944000000000000000000000000000000000000000000000000008152506144d8565b6040518263ffffffff167c0100000000000000000000000000000000000000000000000000000000028152600401808260001916600019168152602001915050602060405180830381600087803b15801561261557600080fd5b505af1158015612629573d6000803e3d6000fd5b505050506040513d602081101561263f57600080fd5b810190808051906020019092919050505014151561265c57600080fd5b6126668282614fe7565b5050565b6000809054906101000a900473ffffffffffffffffffffffffffffffffffffffff1681565b6000809054906101000a900473ffffffffffffffffffffffffffffffffffffffff1673ffffffffffffffffffffffffffffffffffffffff163373ffffffffffffffffffffffffffffffffffffffff161415156126ea57600080fd5b60003073ffffffffffffffffffffffffffffffffffffffff1631111561278a576000809054906101000a900473ffffffffffffffffffffffffffffffffffffffff1673ffffffffffffffffffffffffffffffffffffffff166108fc3073ffffffffffffffffffffffffffffffffffffffff16319081150290604051600060405180830381858888f19350505050158015612788573d6000803e3d6000fd5b505b600073ffffffffffffffffffffffffffffffffffffffff168173ffffffffffffffffffffffffffffffffffffffff161415156129a0578073ffffffffffffffffffffffffffffffffffffffff1663a9059cbb6000809054906101000a900473ffffffffffffffffffffffffffffffffffffffff168373ffffffffffffffffffffffffffffffffffffffff166370a08231306040518263ffffffff167c0100000000000000000000000000000000000000000000000000000000028152600401808273ffffffffffffffffffffffffffffffffffffffff1673ffffffffffffffffffffffffffffffffffffffff168152602001915050602060405180830381600087803b15801561289957600080fd5b505af11580156128ad573d6000803e3d6000fd5b505050506040513d60208110156128c357600080fd5b81019080805190602001909291905050506040518363ffffffff167c0100000000000000000000000000000000000000000000000000000000028152600401808373ffffffffffffffffffffffffffffffffffffffff1673ffffffffffffffffffffffffffffffffffffffff16815260200182815260200192505050602060405180830381600087803b15801561295957600080fd5b505af115801561296d573d6000803e3d6000fd5b505050506040513d602081101561298357600080fd5b8101908080519060200190929190505050151561299f57600080fd5b5b50565b6000809054906101000a900473ffffffffffffffffffffffffffffffffffffffff1673ffffffffffffffffffffffffffffffffffffffff163373ffffffffffffffffffffffffffffffffffffffff161415156129fe57600080fd5b80600160006101000a81548173ffffffffffffffffffffffffffffffffffffffff021916908373ffffffffffffffffffffffffffffffffffffffff16021790555050565b6000809054906101000a900473ffffffffffffffffffffffffffffffffffffffff1673ffffffffffffffffffffffffffffffffffffffff163373ffffffffffffffffffffffffffffffffffffffff16141515612a9d57600080fd5b80600360006101000a81548173ffffffffffffffffffffffffffffffffffffffff021916908373ffffffffffffffffffffffffffffffffffffffff16021790555050565b600080612aed83613ee6565b9150600082111515612afe57600080fd5b42600160009054906101000a900473ffffffffffffffffffffffffffffffffffffffff1673ffffffffffffffffffffffffffffffffffffffff1663bd02d0f5612b7c856040805190810160405280600e81526020017f52455645414c5f454e44444154450000000000000000000000000000000000008152506144d8565b6040518263ffffffff167c0100000000000000000000000000000000000000000000000000000000028152600401808260001916600019168152602001915050602060405180830381600087803b158015612bd657600080fd5b505af1158015612bea573d6000803e3d6000fd5b505050506040513d6020811015612c0057600080fd5b810190808051906020019092919050505011151515612c1e57600080fd5b60011515600160009054906101000a900473ffffffffffffffffffffffffffffffffffffffff1673ffffffffffffffffffffffffffffffffffffffff16637ae1cfca612ca0856040805190810160405280600e81526020017f5245574152445f434c41494d454400000000000000000000000000000000000081525033615b57565b6040518263ffffffff167c0100000000000000000000000000000000000000000000000000000000028152600401808260001916600019168152602001915050602060405180830381600087803b158015612cfa57600080fd5b505af1158015612d0e573d6000803e3d6000fd5b505050506040513d6020811015612d2457600080fd5b8101908080519060200190929190505050151514151515612d4457600080fd5b612d4d82610b21565b509050600081111515612d5f57600080fd5b600160009054906101000a900473ffffffffffffffffffffffffffffffffffffffff1673ffffffffffffffffffffffffffffffffffffffff1663abfdcced612ddd846040805190810160405280600e81526020017f5245574152445f434c41494d454400000000000000000000000000000000000081525033615b57565b60016040518363ffffffff167c01000000000000000000000000000000000000000000000000000000000281526004018083600019166000191681526020018215151515815260200192505050600060405180830381600087803b158015612e4457600080fd5b505af1158015612e58573d6000803e3d6000fd5b50505050600260009054906101000a900473ffffffffffffffffffffffffffffffffffffffff1673ffffffffffffffffffffffffffffffffffffffff1663a9059cbb33836040518363ffffffff167c0100000000000000000000000000000000000000000000000000000000028152600401808373ffffffffffffffffffffffffffffffffffffffff1673ffffffffffffffffffffffffffffffffffffffff16815260200182815260200192505050602060405180830381600087803b158015612f2157600080fd5b505af1158015612f35573d6000803e3d6000fd5b505050506040513d6020811015612f4b57600080fd5b81019080805190602001909291905050501515612f6757600080fd5b505050565b6000809054906101000a900473ffffffffffffffffffffffffffffffffffffffff1673ffffffffffffffffffffffffffffffffffffffff163373ffffffffffffffffffffffffffffffffffffffff16141515612fc757600080fd5b80600460006101000a81548173ffffffffffffffffffffffffffffffffffffffff021916908373ffffffffffffffffffffffffffffffffffffffff16021790555050565b6000809054906101000a900473ffffffffffffffffffffffffffffffffffffffff1673ffffffffffffffffffffffffffffffffffffffff163373ffffffffffffffffffffffffffffffffffffffff1614151561306657600080fd5b80600560006101000a81548173ffffffffffffffffffffffffffffffffffffffff021916908373ffffffffffffffffffffffffffffffffffffffff16021790555050565b600073ffffffffffffffffffffffffffffffffffffffff166000809054906101000a900473ffffffffffffffffffffffffffffffffffffffff1673ffffffffffffffffffffffffffffffffffffffff1614151561315d576000809054906101000a900473ffffffffffffffffffffffffffffffffffffffff1673ffffffffffffffffffffffffffffffffffffffff163373ffffffffffffffffffffffffffffffffffffffff1614151561315c57600080fd5b5b61316681615c7c565b50565b600080600080600080600080600115156131828b614001565b151514151561319057600080fd5b6001151561319d8b614266565b15151415156131ab57600080fd5b6131b48a613ee6565b9750600560009054906101000a900473ffffffffffffffffffffffffffffffffffffffff1673ffffffffffffffffffffffffffffffffffffffff1663b6990ee1896040518263ffffffff167c01000000000000000000000000000000000000000000000000000000000281526004018082815260200191505060a060405180830381600087803b15801561324757600080fd5b505af115801561325b573d6000803e3d6000fd5b505050506040513d60a081101561327157600080fd5b8101908080519060200190929190805190602001909291908051906020019092919080519060200190929190805190602001909291905050505098505050965060011515861515141515156132c557600080fd5b600115158715151415156132d857600080fd5b600160009054906101000a900473ffffffffffffffffffffffffffffffffffffffff1673ffffffffffffffffffffffffffffffffffffffff166321f8a72161331f8c614cea565b6040518263ffffffff167c0100000000000000000000000000000000000000000000000000000000028152600401808260001916600019168152602001915050602060405180830381600087803b15801561337957600080fd5b505af115801561338d573d6000803e3d6000fd5b505050506040513d60208110156133a357600080fd5b81019080805190602001909291905050509450600160009054906101000a900473ffffffffffffffffffffffffffffffffffffffff1673ffffffffffffffffffffffffffffffffffffffff166321f8a7216134338c6040805190810160405280600a81526020017f465245454c414e434552000000000000000000000000000000000000000000008152506144d8565b6040518263ffffffff167c0100000000000000000000000000000000000000000000000000000000028152600401808260001916600019168152602001915050602060405180830381600087803b15801561348d57600080fd5b505af11580156134a1573d6000803e3d6000fd5b505050506040513d60208110156134b757600080fd5b81019080805190602001909291905050509350600115158915151415613b2b57600160009054906101000a900473ffffffffffffffffffffffffffffffffffffffff1673ffffffffffffffffffffffffffffffffffffffff1663ca446dd96135548c6040805190810160405280600e81526020017f444953505554455f57494e4e45520000000000000000000000000000000000008152506144d8565b8773ffffffffffffffffffffffffffffffffffffffff163373ffffffffffffffffffffffffffffffffffffffff161461358d578761358f565b865b6040518363ffffffff167c01000000000000000000000000000000000000000000000000000000000281526004018083600019166000191681526020018273ffffffffffffffffffffffffffffffffffffffff1673ffffffffffffffffffffffffffffffffffffffff16815260200192505050600060405180830381600087803b15801561361c57600080fd5b505af1158015613630573d6000803e3d6000fd5b50505050600160009054906101000a900473ffffffffffffffffffffffffffffffffffffffff1673ffffffffffffffffffffffffffffffffffffffff1663bd02d0f56136b38c6040805190810160405280600e81526020017f5354414b45445f4445504f5349540000000000000000000000000000000000008152508c8a614a96565b6040518263ffffffff167c0100000000000000000000000000000000000000000000000000000000028152600401808260001916600019168152602001915050602060405180830381600087803b15801561370d57600080fd5b505af1158015613721573d6000803e3d6000fd5b505050506040513d602081101561373757600080fd5b81019080805190602001909291905050509250600260009054906101000a900473ffffffffffffffffffffffffffffffffffffffff1673ffffffffffffffffffffffffffffffffffffffff1663a9059cbb86856040518363ffffffff167c0100000000000000000000000000000000000000000000000000000000028152600401808373ffffffffffffffffffffffffffffffffffffffff1673ffffffffffffffffffffffffffffffffffffffff16815260200182815260200192505050602060405180830381600087803b15801561380f57600080fd5b505af1158015613823573d6000803e3d6000fd5b505050506040513d602081101561383957600080fd5b8101908080519060200190929190505050151561385557600080fd5b600260009054906101000a900473ffffffffffffffffffffffffffffffffffffffff1673ffffffffffffffffffffffffffffffffffffffff1663a9059cbb85856040518363ffffffff167c0100000000000000000000000000000000000000000000000000000000028152600401808373ffffffffffffffffffffffffffffffffffffffff1673ffffffffffffffffffffffffffffffffffffffff16815260200182815260200192505050602060405180830381600087803b15801561391a57600080fd5b505af115801561392e573d6000803e3d6000fd5b505050506040513d602081101561394457600080fd5b8101908080519060200190929190505050151561396057600080fd5b600460009054906101000a900473ffffffffffffffffffffffffffffffffffffffff1673ffffffffffffffffffffffffffffffffffffffff1663b0cbea9f8960016000806040518563ffffffff167c01000000000000000000000000000000000000000000000000000000000281526004018085815260200184151515158152602001838152602001828152602001945050505050602060405180830381600087803b158015613a0f57600080fd5b505af1158015613a23573d6000803e3d6000fd5b505050506040513d6020811015613a3957600080fd5b81019080805190602001909291905050501515613a5257fe5b600360009054906101000a900473ffffffffffffffffffffffffffffffffffffffff1673ffffffffffffffffffffffffffffffffffffffff166356989a838b6040518263ffffffff167c010000000000000000000000000000000000000000000000000000000002815260040180828152602001915050602060405180830381600087803b158015613ae357600080fd5b505af1158015613af7573d6000803e3d6000fd5b505050506040513d6020811015613b0d57600080fd5b81019080805190602001909291905050501515613b2657fe5b613e61565b600160009054906101000a900473ffffffffffffffffffffffffffffffffffffffff1673ffffffffffffffffffffffffffffffffffffffff1663bd02d0f5613ba76040805190810160405280600f81526020017f434f4d4d49545f4455524154494f4e0000000000000000000000000000000000815250614c12565b6040518263ffffffff167c0100000000000000000000000000000000000000000000000000000000028152600401808260001916600019168152602001915050602060405180830381600087803b158015613c0157600080fd5b505af1158015613c15573d6000803e3d6000fd5b505050506040513d6020811015613c2b57600080fd5b81019080805190602001909291905050509150600082111515613c4d57600080fd5b600160009054906101000a900473ffffffffffffffffffffffffffffffffffffffff1673ffffffffffffffffffffffffffffffffffffffff1663bd02d0f5613cc96040805190810160405280600f81526020017f52455645414c5f4455524154494f4e0000000000000000000000000000000000815250614c12565b6040518263ffffffff167c0100000000000000000000000000000000000000000000000000000000028152600401808260001916600019168152602001915050602060405180830381600087803b158015613d2357600080fd5b505af1158015613d37573d6000803e3d6000fd5b505050506040513d6020811015613d4d57600080fd5b81019080805190602001909291905050509050600081111515613d6f57600080fd5b600460009054906101000a900473ffffffffffffffffffffffffffffffffffffffff1673ffffffffffffffffffffffffffffffffffffffff1663b0cbea9f89600085856040518563ffffffff167c01000000000000000000000000000000000000000000000000000000000281526004018085815260200184151515158152602001838152602001828152602001945050505050602060405180830381600087803b158015613e1d57600080fd5b505af1158015613e31573d6000803e3d6000fd5b505050506040513d6020811015613e4757600080fd5b81019080805190602001909291905050501515613e6057fe5b5b3373ffffffffffffffffffffffffffffffffffffffff168a7f68a603f0e539410f1a050040d440940ace3ca22853ca93f5b6f034fb075e11e98b604051808215151515815260200191505060405180910390a350505050505050505050565b600460009054906101000a900473ffffffffffffffffffffffffffffffffffffffff1681565b6000600160009054906101000a900473ffffffffffffffffffffffffffffffffffffffff1673ffffffffffffffffffffffffffffffffffffffff1663bd02d0f5613f65846040805190810160405280600781526020017f504f4c4c5f4944000000000000000000000000000000000000000000000000008152506144d8565b6040518263ffffffff167c0100000000000000000000000000000000000000000000000000000000028152600401808260001916600019168152602001915050602060405180830381600087803b158015613fbf57600080fd5b505af1158015613fd3573d6000803e3d6000fd5b505050506040513d6020811015613fe957600080fd5b81019080805190602001909291905050509050919050565b6000806000600160009054906101000a900473ffffffffffffffffffffffffffffffffffffffff1673ffffffffffffffffffffffffffffffffffffffff166321f8a72161404d86614cea565b6040518263ffffffff167c0100000000000000000000000000000000000000000000000000000000028152600401808260001916600019168152602001915050602060405180830381600087803b1580156140a757600080fd5b505af11580156140bb573d6000803e3d6000fd5b505050506040513d60208110156140d157600080fd5b81019080805190602001909291905050509150600160009054906101000a900473ffffffffffffffffffffffffffffffffffffffff1673ffffffffffffffffffffffffffffffffffffffff166321f8a721614161866040805190810160405280600a81526020017f465245454c414e434552000000000000000000000000000000000000000000008152506144d8565b6040518263ffffffff167c0100000000000000000000000000000000000000000000000000000000028152600401808260001916600019168152602001915050602060405180830381600087803b1580156141bb57600080fd5b505af11580156141cf573d6000803e3d6000fd5b505050506040513d60208110156141e557600080fd5b810190808051906020019092919050505090508173ffffffffffffffffffffffffffffffffffffffff163373ffffffffffffffffffffffffffffffffffffffff16148061425d57508073ffffffffffffffffffffffffffffffffffffffff163373ffffffffffffffffffffffffffffffffffffffff16145b92505050919050565b6000806000600160009054906101000a900473ffffffffffffffffffffffffffffffffffffffff1673ffffffffffffffffffffffffffffffffffffffff1663bd02d0f56142e8866040805190810160405280600a81526020017f4a4f425f535441545553000000000000000000000000000000000000000000008152506144d8565b6040518263ffffffff167c0100000000000000000000000000000000000000000000000000000000028152600401808260001916600019168152602001915050602060405180830381600087803b15801561434257600080fd5b505af1158015614356573d6000803e3d6000fd5b505050506040513d602081101561436c57600080fd5b81019080805190602001909291905050509150600160009054906101000a900473ffffffffffffffffffffffffffffffffffffffff1673ffffffffffffffffffffffffffffffffffffffff166321f8a7216143fc866040805190810160405280600e81526020017f444953505554455f57494e4e45520000000000000000000000000000000000008152506144d8565b6040518263ffffffff167c0100000000000000000000000000000000000000000000000000000000028152600401808260001916600019168152602001915050602060405180830381600087803b15801561445657600080fd5b505af115801561446a573d6000803e3d6000fd5b505050506040513d602081101561448057600080fd5b810190808051906020019092919050505090506006821480156144cf5750600073ffffffffffffffffffffffffffffffffffffffff168173ffffffffffffffffffffffffffffffffffffffff16145b92505050919050565b600082826040516020018083815260200182805190602001908083835b60208310151561451a57805182526020820191506020810190506020830392506144f5565b6001836020036101000a038019825116818451168082178552505050505050905001925050506040516020818303038152906040526040518082805190602001908083835b602083101515614584578051825260208201915060208101905060208303925061455f565b6001836020036101000a0380198251168184511680821785525050505050509050019150506040518091039020905092915050565b6000600160009054906101000a900473ffffffffffffffffffffffffffffffffffffffff1673ffffffffffffffffffffffffffffffffffffffff1663bd02d0f561463a876040805190810160405280600e81526020017f5354414b45445f4445504f5349540000000000000000000000000000000000008152508787614a96565b6040518263ffffffff167c0100000000000000000000000000000000000000000000000000000000028152600401808260001916600019168152602001915050602060405180830381600087803b15801561469457600080fd5b505af11580156146a8573d6000803e3d6000fd5b505050506040513d60208110156146be57600080fd5b81019080805190602001909291905050509050600260009054906101000a900473ffffffffffffffffffffffffffffffffffffffff1673ffffffffffffffffffffffffffffffffffffffff166323b872dd3330846040518463ffffffff167c0100000000000000000000000000000000000000000000000000000000028152600401808473ffffffffffffffffffffffffffffffffffffffff1673ffffffffffffffffffffffffffffffffffffffff1681526020018373ffffffffffffffffffffffffffffffffffffffff1673ffffffffffffffffffffffffffffffffffffffff1681526020018281526020019350505050602060405180830381600087803b1580156147ca57600080fd5b505af11580156147de573d6000803e3d6000fd5b505050506040513d60208110156147f457600080fd5b8101908080519060200190929190505050151561481057600080fd5b600160009054906101000a900473ffffffffffffffffffffffffffffffffffffffff1673ffffffffffffffffffffffffffffffffffffffff1663e2a4853a61488f876040805190810160405280600e81526020017f5354414b45445f4445504f5349540000000000000000000000000000000000008152508733614a96565b836040518363ffffffff167c010000000000000000000000000000000000000000000000000000000002815260040180836000191660001916815260200182815260200192505050600060405180830381600087803b1580156148f157600080fd5b505af1158015614905573d6000803e3d6000fd5b50505050600460009054906101000a900473ffffffffffffffffffffffffffffffffffffffff1673ffffffffffffffffffffffffffffffffffffffff1663cbff158f84866040518363ffffffff167c01000000000000000000000000000000000000000000000000000000000281526004018083815260200180602001828103825283818151815260200191508051906020019080838360005b838110156149ba57808201518184015260208101905061499f565b50505050905090810190601f1680156149e75780820380516001836020036101000a031916815260200191505b509350505050602060405180830381600087803b158015614a0757600080fd5b505af1158015614a1b573d6000803e3d6000fd5b505050506040513d6020811015614a3157600080fd5b81019080805190602001909291905050501515614a4a57fe5b823373ffffffffffffffffffffffffffffffffffffffff16867f1ec1841355a829900349eab019b38df1850976493e967a0fbfcb435fef05470460405160405180910390a45050505050565b6000848484846040516020018085815260200184805190602001908083835b602083101515614ada5780518252602082019150602081019050602083039250614ab5565b6001836020036101000a0380198251168184511680821785525050505050509050018381526020018273ffffffffffffffffffffffffffffffffffffffff1673ffffffffffffffffffffffffffffffffffffffff166c010000000000000000000000000281526014019450505050506040516020818303038152906040526040518082805190602001908083835b602083101515614b8d5780518252602082019150602081019050602083039250614b68565b6001836020036101000a03801982511681845116808217855250505050505090500191505060405180910390209050949350505050565b600080831415614bd75760009050614bf6565b8183029050818382811515614be857fe5b04141515614bf257fe5b8090505b92915050565b60008183811515614c0957fe5b04905092915050565b6000816040516020018082805190602001908083835b602083101515614c4d5780518252602082019150602081019050602083039250614c28565b6001836020036101000a0380198251168184511680821785525050505050509050019150506040516020818303038152906040526040518082805190602001908083835b602083101515614cb65780518252602082019150602081019050602083039250614c91565b6001836020036101000a03801982511681845116808217855250505050505090500191505060405180910390209050919050565b600081604051602001808281526020019150506040516020818303038152906040526040518082805190602001908083835b602083101515614d415780518252602082019150602081019050602083039250614d1c565b6001836020036101000a03801982511681845116808217855250505050505090500191505060405180910390209050919050565b6000806000600160009054906101000a900473ffffffffffffffffffffffffffffffffffffffff1673ffffffffffffffffffffffffffffffffffffffff1663bd02d0f5614df7866040805190810160405280600a81526020017f4a4f425f535441545553000000000000000000000000000000000000000000008152506144d8565b6040518263ffffffff167c0100000000000000000000000000000000000000000000000000000000028152600401808260001916600019168152602001915050602060405180830381600087803b158015614e5157600080fd5b505af1158015614e65573d6000803e3d6000fd5b505050506040513d6020811015614e7b57600080fd5b81019080805190602001909291905050509150600160009054906101000a900473ffffffffffffffffffffffffffffffffffffffff1673ffffffffffffffffffffffffffffffffffffffff166321f8a721614f0b866040805190810160405280600e81526020017f444953505554455f57494e4e45520000000000000000000000000000000000008152506144d8565b6040518263ffffffff167c0100000000000000000000000000000000000000000000000000000000028152600401808260001916600019168152602001915050602060405180830381600087803b158015614f6557600080fd5b505af1158015614f79573d6000803e3d6000fd5b505050506040513d6020811015614f8f57600080fd5b81019080805190602001909291905050509050600482148015614fde5750600073ffffffffffffffffffffffffffffffffffffffff168173ffffffffffffffffffffffffffffffffffffffff16145b92505050919050565b6000806000806000600160009054906101000a900473ffffffffffffffffffffffffffffffffffffffff1673ffffffffffffffffffffffffffffffffffffffff1663bd02d0f561506b6040805190810160405280601181526020017f45564944454e43455f4455524154494f4e000000000000000000000000000000815250614c12565b6040518263ffffffff167c0100000000000000000000000000000000000000000000000000000000028152600401808260001916600019168152602001915050602060405180830381600087803b1580156150c557600080fd5b505af11580156150d9573d6000803e3d6000fd5b505050506040513d60208110156150ef57600080fd5b8101908080519060200190929190505050945060008511151561511157600080fd5b600160009054906101000a900473ffffffffffffffffffffffffffffffffffffffff1673ffffffffffffffffffffffffffffffffffffffff1663bd02d0f561518d6040805190810160405280600f81526020017f434f4d4d49545f4455524154494f4e0000000000000000000000000000000000815250614c12565b6040518263ffffffff167c0100000000000000000000000000000000000000000000000000000000028152600401808260001916600019168152602001915050602060405180830381600087803b1580156151e757600080fd5b505af11580156151fb573d6000803e3d6000fd5b505050506040513d602081101561521157600080fd5b8101908080519060200190929190505050935060008411151561523357600080fd5b600160009054906101000a900473ffffffffffffffffffffffffffffffffffffffff1673ffffffffffffffffffffffffffffffffffffffff1663bd02d0f56152af6040805190810160405280600f81526020017f52455645414c5f4455524154494f4e0000000000000000000000000000000000815250614c12565b6040518263ffffffff167c0100000000000000000000000000000000000000000000000000000000028152600401808260001916600019168152602001915050602060405180830381600087803b15801561530957600080fd5b505af115801561531d573d6000803e3d6000fd5b505050506040513d602081101561533357600080fd5b8101908080519060200190929190505050925060008311151561535557600080fd5b600160009054906101000a900473ffffffffffffffffffffffffffffffffffffffff1673ffffffffffffffffffffffffffffffffffffffff1663bd02d0f56153d16040805190810160405280600e81526020017f5354414b45445f4445504f534954000000000000000000000000000000000000815250614c12565b6040518263ffffffff167c0100000000000000000000000000000000000000000000000000000000028152600401808260001916600019168152602001915050602060405180830381600087803b15801561542b57600080fd5b505af115801561543f573d6000803e3d6000fd5b505050506040513d602081101561545557600080fd5b81019080805190602001909291905050509150600260009054906101000a900473ffffffffffffffffffffffffffffffffffffffff1673ffffffffffffffffffffffffffffffffffffffff166323b872dd3330856040518463ffffffff167c0100000000000000000000000000000000000000000000000000000000028152600401808473ffffffffffffffffffffffffffffffffffffffff1673ffffffffffffffffffffffffffffffffffffffff1681526020018373ffffffffffffffffffffffffffffffffffffffff1673ffffffffffffffffffffffffffffffffffffffff1681526020018281526020019350505050602060405180830381600087803b15801561556157600080fd5b505af1158015615575573d6000803e3d6000fd5b505050506040513d602081101561558b57600080fd5b810190808051906020019092919050505015156155a757600080fd5b600460009054906101000a900473ffffffffffffffffffffffffffffffffffffffff1673ffffffffffffffffffffffffffffffffffffffff1663bd002e1e878787876040518563ffffffff167c01000000000000000000000000000000000000000000000000000000000281526004018080602001858152602001848152602001838152602001828103825286818151815260200191508051906020019080838360005b8381101561566657808201518184015260208101905061564b565b50505050905090810190601f1680156156935780820380516001836020036101000a031916815260200191505b5095505050505050602060405180830381600087803b1580156156b557600080fd5b505af11580156156c9573d6000803e3d6000fd5b505050506040513d60208110156156df57600080fd5b810190808051906020019092919050505090506000811115156156fe57fe5b600160009054906101000a900473ffffffffffffffffffffffffffffffffffffffff1673ffffffffffffffffffffffffffffffffffffffff1663e2a4853a61577b896040805190810160405280600781526020017f504f4c4c5f4944000000000000000000000000000000000000000000000000008152506144d8565b836040518363ffffffff167c010000000000000000000000000000000000000000000000000000000002815260040180836000191660001916815260200182815260200192505050600060405180830381600087803b1580156157dd57600080fd5b505af11580156157f1573d6000803e3d6000fd5b50505050600160009054906101000a900473ffffffffffffffffffffffffffffffffffffffff1673ffffffffffffffffffffffffffffffffffffffff1663e2a4853a615872896040805190810160405280600a81526020017f4a4f425f535441545553000000000000000000000000000000000000000000008152506144d8565b60066040518363ffffffff167c010000000000000000000000000000000000000000000000000000000002815260040180836000191660001916815260200182815260200192505050600060405180830381600087803b1580156158d557600080fd5b505af11580156158e9573d6000803e3d6000fd5b50505050600160009054906101000a900473ffffffffffffffffffffffffffffffffffffffff1673ffffffffffffffffffffffffffffffffffffffff1663e2a4853a61596c896040805190810160405280600e81526020017f5354414b45445f4445504f5349540000000000000000000000000000000000008152508533614a96565b846040518363ffffffff167c010000000000000000000000000000000000000000000000000000000002815260040180836000191660001916815260200182815260200192505050600060405180830381600087803b1580156159ce57600080fd5b505af11580156159e2573d6000803e3d6000fd5b50505050600160009054906101000a900473ffffffffffffffffffffffffffffffffffffffff1673ffffffffffffffffffffffffffffffffffffffff1663ca446dd9615a63896040805190810160405280600c81526020017f504f4c4c5f5354415254454400000000000000000000000000000000000000008152506144d8565b336040518363ffffffff167c01000000000000000000000000000000000000000000000000000000000281526004018083600019166000191681526020018273ffffffffffffffffffffffffffffffffffffffff1673ffffffffffffffffffffffffffffffffffffffff16815260200192505050600060405180830381600087803b158015615af157600080fd5b505af1158015615b05573d6000803e3d6000fd5b50505050803373ffffffffffffffffffffffffffffffffffffffff16887f86b18b26ad4e3b30d21c7f8f4686a93c2fdb18ddbe81038db4b7e49afe078e9160405160405180910390a450505050505050565b60008383836040516020018084815260200183805190602001908083835b602083101515615b9a5780518252602082019150602081019050602083039250615b75565b6001836020036101000a0380198251168184511680821785525050505050509050018273ffffffffffffffffffffffffffffffffffffffff1673ffffffffffffffffffffffffffffffffffffffff166c0100000000000000000000000002815260140193505050506040516020818303038152906040526040518082805190602001908083835b602083101515615c465780518252602082019150602081019050602083039250615c21565b6001836020036101000a038019825116818451168082178552505050505050905001915050604051809103902090509392505050565b600073ffffffffffffffffffffffffffffffffffffffff168173ffffffffffffffffffffffffffffffffffffffff1614151515615cb857600080fd5b8073ffffffffffffffffffffffffffffffffffffffff166000809054906101000a900473ffffffffffffffffffffffffffffffffffffffff1673ffffffffffffffffffffffffffffffffffffffff167f8be0079c531659141344cd1fd0a4f28419497f9722a3daafe3b4186f6b6457e060405160405180910390a3806000806101000a81548173ffffffffffffffffffffffffffffffffffffffff021916908373ffffffffffffffffffffffffffffffffffffffff160217905550505600a165627a7a72305820d2754afd865ccf87df3840841e36185ddc1d152b477b1034aa389da4006f19720029",
  "source": "pragma solidity ^0.4.24;\n\nimport './BBStandard.sol';\nimport './BBLib.sol';\nimport './BBFreelancerPayment.sol';\nimport './BBVoting.sol';\nimport './BBVotingHelper.sol';\n\ncontract BBDispute is BBStandard{\n  BBFreelancerPayment public payment = BBFreelancerPayment(0x0);\n  BBVoting public voting = BBVoting(0x0);\n  BBVotingHelper public votingHelper = BBVotingHelper(0x0);\n  \n  function setPayment(address p) onlyOwner public  {\n    payment = BBFreelancerPayment(p);\n  }\n\n  function setVoting(address p) onlyOwner public  {\n    voting = BBVoting(p);\n  }\n  function setVotingHelper(address p) onlyOwner public  {\n    votingHelper = BBVotingHelper(p);\n  }\n  \n  event DisputeFinalized(uint256 indexed jobID, uint256 winner);\n  event DisputeStarted(uint256 indexed jobID, address indexed creator, uint256 indexed pollID);\n  event DisputeAgainsted(uint256 indexed jobID, address indexed creator, uint256 indexed pollID);\n  event DisputeUpdated(uint256 indexed jobID, address indexed creator, bool whiteFlag);\n\n  function canCreatePoll(uint256 jobID) private constant returns (bool r){\n    address jobOwner = bbs.getAddress(BBLib.toB32(jobID));\n    address freelancer = bbs.getAddress(BBLib.toB32(jobID, 'FREELANCER'));\n    r = (msg.sender==jobOwner || msg.sender==freelancer);\n  }\n  function isDisputeJob(uint256 jobID) private constant returns(bool r){\n    uint256 jobStatus = bbs.getUint(BBLib.toB32(jobID ,'JOB_STATUS'));\n    address winner = bbs.getAddress(BBLib.toB32(jobID,'DISPUTE_WINNER'));\n    r = (jobStatus == 4 && winner==address(0x0));\n  }\n  function isDisputingJob(uint256 jobID) private constant returns(bool r){\n    uint256 jobStatus = bbs.getUint(BBLib.toB32(jobID ,'JOB_STATUS'));\n    address winner = bbs.getAddress(BBLib.toB32(jobID,'DISPUTE_WINNER'));\n    r = (jobStatus == 6 && winner==address(0x0));\n  }\n  function isAgaintsDispute(uint256 jobID) public constant returns(bool r){\n    (uint256[] memory opts,) = votingHelper.getPollResult(getPollID(jobID));\n    r = opts.length>2;\n  }\n  function getPollID(uint256 jobID) internal constant returns(uint256 r){\n    r = bbs.getUint(BBLib.toB32(jobID,'POLL_ID'));\n  }\n  /**\n  * @dev finalizeDispute for poll\n  * @param jobID Job ID\n  * \n  */\n  function finalizeDispute(uint256 jobID) public\n  {\n    uint256 pID = getPollID(jobID);\n    (bool isFinished, uint256 winner,,, uint256 quorum) = votingHelper.getPollWinner(pID);\n    require(isDisputingJob(jobID)==true);\n    address creator = bbs.getAddress(BBLib.toB32(jobID, 'POLL_STARTED'));\n    require(creator!=address(0x0));\n    (,,uint256 addPollOptionEndDate,,) = votingHelper.getPollStage(pID);\n    require(addPollOptionEndDate <= now);\n    //TODO\n    uint256 bboStake = bbs.getUint(BBLib.toB32(jobID, 'STAKED_DEPOSIT', pID,creator));\n    // check if not have against proof\n    if(!isAgaintsDispute(jobID)){      \n      // set winner to creator \n      bbs.setAddress(BBLib.toB32(jobID, 'DISPUTE_WINNER'),creator);\n      // refun staked for \n      require(bbo.transfer(creator,bboStake));\n      // cal finalizePayment\n      assert(payment.finalizeDispute(jobID));\n    }else{\n      require(isFinished == true);\n      address jobOwner = bbs.getAddress(BBLib.toB32(jobID));\n      address freelancer = bbs.getAddress(BBLib.toB32(jobID,'FREELANCER'));\n      if(winner == 0 || quorum == 50){\n        // cancel poll\n        assert(voting.updatePoll(pID, true, 0, 0));\n        // refun money staked\n        require(bbo.transfer(jobOwner,bboStake));\n        require(bbo.transfer(freelancer,bboStake));\n        // status to 4\n        bbs.setUint(BBLib.toB32(jobID, 'JOB_STATUS'), 4);\n        //TODO reset POLL\n      }else{\n\n        bbs.setAddress(BBLib.toB32(jobID, 'DISPUTE_WINNER'), (winner==1)?creator:(creator==jobOwner)?freelancer:jobOwner);\n        //refun money staked for winner\n        require(bbo.transfer(bbs.getAddress(BBLib.toB32(jobID,'DISPUTE_WINNER')), bboStake));\n        // cal finalizePayment\n        assert(payment.finalizeDispute(jobID));\n      }\n    }\n    emit DisputeFinalized(jobID, winner);\n\n  }\n\n  /**\n  * @dev startDispute\n  * @param jobID Job ID\n  * @param proofHash Hash of Proof \n  * \n  */\n  function startDispute(uint256 jobID, bytes proofHash) public \n  {\n    require(isDisputeJob(jobID)==true);\n    require(canCreatePoll(jobID)==true);\n    require(bbs.getUint(BBLib.toB32(jobID, 'POLL_ID'))==0);\n    return doStartPoll(jobID, proofHash);\n  }\n  function doStartPoll(uint256 jobID, bytes proofHash) private {\n\n    uint evidenceDuration = bbs.getUint(BBLib.toB32('EVIDENCE_DURATION'));\n    require(evidenceDuration > 0);\n    uint commitDuration = bbs.getUint(BBLib.toB32('COMMIT_DURATION'));\n    require(commitDuration > 0);\n    uint revealDuration = bbs.getUint(BBLib.toB32('REVEAL_DURATION'));\n    require(revealDuration > 0);\n    // require sender must staked \n    uint256 bboStake = bbs.getUint(BBLib.toB32('STAKED_DEPOSIT'));\n    require(bbo.transferFrom(msg.sender, address(this), bboStake));\n    // startPoll\n    uint256 pollID = voting.startPoll(proofHash, evidenceDuration, commitDuration, revealDuration);\n    assert(pollID>0);\n    // save poll\n    bbs.setUint(BBLib.toB32(jobID, 'POLL_ID'), pollID);\n    //set status to 6\n    bbs.setUint(BBLib.toB32(jobID ,'JOB_STATUS'), 6);\n    // save staked tokens\n    bbs.setUint(BBLib.toB32(jobID, 'STAKED_DEPOSIT', pollID, msg.sender), bboStake);\n    // save startPoll address\n    bbs.setAddress(BBLib.toB32(jobID, 'POLL_STARTED'), msg.sender);\n    emit DisputeStarted(jobID, msg.sender, pollID);\n  }\n  /**\n  * @dev againstDispute\n  * @param jobID Job ID\n  * @param againstProofHash Hash of Against Proof \n  * \n  */\n  function againstDispute(uint256 jobID, bytes againstProofHash) public \n  {\n    uint256 pID = getPollID(jobID);\n    require(pID > 0);\n    require(canCreatePoll(jobID)==true);\n    require(isDisputingJob(jobID)==true);\n\n    address creator = bbs.getAddress(BBLib.toB32(jobID, 'POLL_STARTED'));\n    require(creator!=0x0);\n    require(creator!=msg.sender);\n    return doAgainstPoll(jobID, againstProofHash, pID, creator);\n  }\n  function doAgainstPoll(uint256 jobID, bytes againstProofHash, uint256 pID, address creator) internal \n  {\n    // require sender must staked bbo equal the creator\n    uint256 bboStake = bbs.getUint(BBLib.toB32(jobID, 'STAKED_DEPOSIT', pID, creator));\n    require(bbo.transferFrom(msg.sender, address(this), bboStake));\n    bbs.setUint(BBLib.toB32(jobID, 'STAKED_DEPOSIT',pID,msg.sender), bboStake);\n    assert(voting.addPollOption(pID,againstProofHash));\n    emit DisputeAgainsted(jobID, msg.sender, pID);\n  } \n\n  function updateDispute(uint256 jobID,bool whiteFlag) public {\n    require(canCreatePoll(jobID)==true);\n    require(isDisputingJob(jobID)==true);\n    uint256 pollID = getPollID(jobID);\n    (bool isFinished,,, bool hasVote,) = votingHelper.getPollWinner(pollID);\n    require(hasVote!=true);\n    require(isFinished==true);\n    address jobOwner = bbs.getAddress(BBLib.toB32(jobID));\n    address freelancer = bbs.getAddress(BBLib.toB32(jobID,'FREELANCER'));\n    if(whiteFlag == true){\n      bbs.setAddress(BBLib.toB32(jobID, 'DISPUTE_WINNER'), (msg.sender==jobOwner)?freelancer:jobOwner);\n      uint256 bboStake = bbs.getUint(BBLib.toB32(jobID, 'STAKED_DEPOSIT', pollID,jobOwner));\n      //refun money staked for users\n      require(bbo.transfer(jobOwner, bboStake));\n      require(bbo.transfer(freelancer, bboStake));\n      // cal finalizePayment\n      assert(voting.updatePoll(pollID, true, 0, 0));\n      assert(payment.finalizeDispute(jobID));\n      \n    }else{\n      uint commitDuration = bbs.getUint(BBLib.toB32('COMMIT_DURATION'));\n      require(commitDuration > 0);\n      uint revealDuration = bbs.getUint(BBLib.toB32('REVEAL_DURATION'));\n      require(revealDuration > 0);\n      assert(voting.updatePoll(pollID, false, commitDuration, revealDuration));\n\n    }\n    emit DisputeUpdated(jobID, msg.sender, whiteFlag);\n  }\n\n  /**\n  * @dev claimReward for poll\n  * @param jobID Job Hash\n  *\n  */\n  function claimReward(uint256 jobID) public {\n    uint256 pollID = getPollID(jobID);\n    require(pollID > 0);\n    require(bbs.getUint(BBLib.toB32(pollID ,'REVEAL_ENDDATE'))<=now);\n    require(bbs.getBool(BBLib.toB32(pollID ,'REWARD_CLAIMED', msg.sender))!= true);\n    (uint256 numReward,) = calcReward(pollID);\n    require (numReward > 0);\n    // set claimed to true\n    bbs.setBool(BBLib.toB32(pollID ,'REWARD_CLAIMED',msg.sender), true);\n    // todo senBBO\n    require(bbo.transfer(msg.sender, numReward));\n  }\n  /**\n  * @dev calcReward calculate the reward\n  * @param jobID Job Hash\n  *\n  */\n  function calcReward(uint256 jobID) constant public returns(uint256 numReward, bool win){\n    //if(bbs.getBool(BBLib.toB32(pollID ,'REWARD_CLAIMED', msg.sender))== false){\n      uint256 pollID = getPollID(jobID);\n      uint256 userVotes =  votingHelper.getNumPassingTokens(msg.sender, pollID);\n      address creator = bbs.getAddress(BBLib.toB32(jobID, 'POLL_STARTED'));\n      (bool isFinished,, uint256 winnerVotes, bool hasVote, uint256 quorum) = votingHelper.getPollWinner(pollID);\n      if(isFinished==true && hasVote == true){\n        if(userVotes>0 && quorum > 50){\n          uint256 bboStake = bbs.getUint(BBLib.toB32(jobID, 'STAKED_DEPOSIT', pollID,creator));\n          numReward = userVotes.mul(bboStake).div(winnerVotes); // (vote/totalVotes) * staked\n          win = true;\n        }else{\n          numReward = bbs.getUint(BBLib.toB32('BBO_REWARDS'));\n        }\n      }else\n        win = hasVote;\n    //}\n  }\n}\n",
  "sourcePath": "/Users/yena/Documents/tuongnguyen/bigbom-digital-contract/src/contracts/BBDispute.sol",
  "compiler": {
    "name": "solc",
    "version": "0.4.24+commit.e67f0147.Emscripten.clang"
  },
  "schemaVersion": "2.0.1",
  "updatedAt": "2018-11-22T03:06:10.660Z"
}