{
  "contractName": "BBDispute",
  "abi": [
    {
      "constant": true,
      "inputs": [],
      "name": "bbo",
      "outputs": [
        {
          "name": "",
          "type": "address"
        }
      ],
      "payable": false,
      "stateMutability": "view",
      "type": "function"
    },
    {
      "constant": true,
      "inputs": [],
      "name": "bbs",
      "outputs": [
        {
          "name": "",
          "type": "address"
        }
      ],
      "payable": false,
      "stateMutability": "view",
      "type": "function"
    },
    {
      "constant": true,
      "inputs": [],
      "name": "payment",
      "outputs": [
        {
          "name": "",
          "type": "address"
        }
      ],
      "payable": false,
      "stateMutability": "view",
      "type": "function"
    },
    {
      "constant": true,
      "inputs": [],
      "name": "votingHelper",
      "outputs": [
        {
          "name": "",
          "type": "address"
        }
      ],
      "payable": false,
      "stateMutability": "view",
      "type": "function"
    },
    {
      "constant": false,
      "inputs": [],
      "name": "renounceOwnership",
      "outputs": [],
      "payable": false,
      "stateMutability": "nonpayable",
      "type": "function"
    },
    {
      "constant": false,
      "inputs": [
        {
          "name": "BBOAddress",
          "type": "address"
        }
      ],
      "name": "setBBO",
      "outputs": [],
      "payable": false,
      "stateMutability": "nonpayable",
      "type": "function"
    },
    {
      "constant": true,
      "inputs": [],
      "name": "owner",
      "outputs": [
        {
          "name": "",
          "type": "address"
        }
      ],
      "payable": false,
      "stateMutability": "view",
      "type": "function"
    },
    {
      "constant": false,
      "inputs": [
        {
          "name": "anyToken",
          "type": "address"
        }
      ],
      "name": "emergencyERC20Drain",
      "outputs": [],
      "payable": false,
      "stateMutability": "nonpayable",
      "type": "function"
    },
    {
      "constant": false,
      "inputs": [
        {
          "name": "storageAddress",
          "type": "address"
        }
      ],
      "name": "setStorage",
      "outputs": [],
      "payable": false,
      "stateMutability": "nonpayable",
      "type": "function"
    },
    {
      "constant": false,
      "inputs": [
        {
          "name": "_newOwner",
          "type": "address"
        }
      ],
      "name": "transferOwnership",
      "outputs": [],
      "payable": false,
      "stateMutability": "nonpayable",
      "type": "function"
    },
    {
      "constant": true,
      "inputs": [],
      "name": "voting",
      "outputs": [
        {
          "name": "",
          "type": "address"
        }
      ],
      "payable": false,
      "stateMutability": "view",
      "type": "function"
    },
    {
      "anonymous": false,
      "inputs": [
        {
          "indexed": true,
          "name": "jobID",
          "type": "uint256"
        },
        {
          "indexed": false,
          "name": "winner",
          "type": "uint256"
        }
      ],
      "name": "DisputeFinalized",
      "type": "event"
    },
    {
      "anonymous": false,
      "inputs": [
        {
          "indexed": true,
          "name": "jobID",
          "type": "uint256"
        },
        {
          "indexed": true,
          "name": "creator",
          "type": "address"
        },
        {
          "indexed": true,
          "name": "pollID",
          "type": "uint256"
        }
      ],
      "name": "DisputeStarted",
      "type": "event"
    },
    {
      "anonymous": false,
      "inputs": [
        {
          "indexed": true,
          "name": "jobID",
          "type": "uint256"
        },
        {
          "indexed": true,
          "name": "creator",
          "type": "address"
        },
        {
          "indexed": true,
          "name": "pollID",
          "type": "uint256"
        }
      ],
      "name": "DisputeAgainsted",
      "type": "event"
    },
    {
      "anonymous": false,
      "inputs": [
        {
          "indexed": true,
          "name": "jobID",
          "type": "uint256"
        },
        {
          "indexed": true,
          "name": "creator",
          "type": "address"
        },
        {
          "indexed": false,
          "name": "whiteFlag",
          "type": "bool"
        }
      ],
      "name": "DisputeUpdated",
      "type": "event"
    },
    {
      "anonymous": false,
      "inputs": [
        {
          "indexed": true,
          "name": "previousOwner",
          "type": "address"
        }
      ],
      "name": "OwnershipRenounced",
      "type": "event"
    },
    {
      "anonymous": false,
      "inputs": [
        {
          "indexed": true,
          "name": "previousOwner",
          "type": "address"
        },
        {
          "indexed": true,
          "name": "newOwner",
          "type": "address"
        }
      ],
      "name": "OwnershipTransferred",
      "type": "event"
    },
    {
      "constant": false,
      "inputs": [
        {
          "name": "p",
          "type": "address"
        }
      ],
      "name": "setPayment",
      "outputs": [],
      "payable": false,
      "stateMutability": "nonpayable",
      "type": "function"
    },
    {
      "constant": false,
      "inputs": [
        {
          "name": "p",
          "type": "address"
        }
      ],
      "name": "setVoting",
      "outputs": [],
      "payable": false,
      "stateMutability": "nonpayable",
      "type": "function"
    },
    {
      "constant": false,
      "inputs": [
        {
          "name": "p",
          "type": "address"
        }
      ],
      "name": "setVotingHelper",
      "outputs": [],
      "payable": false,
      "stateMutability": "nonpayable",
      "type": "function"
    },
    {
      "constant": true,
      "inputs": [
        {
          "name": "jobID",
          "type": "uint256"
        }
      ],
      "name": "isAgaintsPoll",
      "outputs": [
        {
          "name": "r",
          "type": "bool"
        }
      ],
      "payable": false,
      "stateMutability": "view",
      "type": "function"
    },
    {
      "constant": false,
      "inputs": [
        {
          "name": "jobID",
          "type": "uint256"
        }
      ],
      "name": "finalizeDispute",
      "outputs": [],
      "payable": false,
      "stateMutability": "nonpayable",
      "type": "function"
    },
    {
      "constant": false,
      "inputs": [
        {
          "name": "jobID",
          "type": "uint256"
        },
        {
          "name": "proofHash",
          "type": "bytes"
        }
      ],
      "name": "startDispute",
      "outputs": [],
      "payable": false,
      "stateMutability": "nonpayable",
      "type": "function"
    },
    {
      "constant": false,
      "inputs": [
        {
          "name": "jobID",
          "type": "uint256"
        },
        {
          "name": "againstProofHash",
          "type": "bytes"
        }
      ],
      "name": "againstDispute",
      "outputs": [],
      "payable": false,
      "stateMutability": "nonpayable",
      "type": "function"
    },
    {
      "constant": false,
      "inputs": [
        {
          "name": "jobID",
          "type": "uint256"
        },
        {
          "name": "whiteFlag",
          "type": "bool"
        }
      ],
      "name": "updateDispute",
      "outputs": [],
      "payable": false,
      "stateMutability": "nonpayable",
      "type": "function"
    },
    {
      "constant": false,
      "inputs": [
        {
          "name": "jobID",
          "type": "uint256"
        }
      ],
      "name": "claimReward",
      "outputs": [],
      "payable": false,
      "stateMutability": "nonpayable",
      "type": "function"
    },
    {
      "constant": true,
      "inputs": [
        {
          "name": "jobID",
          "type": "uint256"
        }
      ],
      "name": "calcReward",
      "outputs": [
        {
          "name": "numReward",
          "type": "uint256"
        },
        {
          "name": "win",
          "type": "bool"
        }
      ],
      "payable": false,
      "stateMutability": "view",
      "type": "function"
    }
  ],
  "bytecode": "0x60806040526000600160006101000a81548173ffffffffffffffffffffffffffffffffffffffff021916908373ffffffffffffffffffffffffffffffffffffffff1602179055506000600260006101000a81548173ffffffffffffffffffffffffffffffffffffffff021916908373ffffffffffffffffffffffffffffffffffffffff1602179055506000600360006101000a81548173ffffffffffffffffffffffffffffffffffffffff021916908373ffffffffffffffffffffffffffffffffffffffff1602179055506000600460006101000a81548173ffffffffffffffffffffffffffffffffffffffff021916908373ffffffffffffffffffffffffffffffffffffffff1602179055506000600560006101000a81548173ffffffffffffffffffffffffffffffffffffffff021916908373ffffffffffffffffffffffffffffffffffffffff160217905550336000806101000a81548173ffffffffffffffffffffffffffffffffffffffff021916908373ffffffffffffffffffffffffffffffffffffffff160217905550615eb68061019d6000396000f30060806040526004361061011d576000357c0100000000000000000000000000000000000000000000000000000000900463ffffffff1680631e89bf06146101225780631fde23a41461017957806342f6487a146101d057806343dc798b146102275780634e508ea41461027e578063544c465c146102f157806356989a831461033d578063715018a61461036a5780637937f46d146103815780637ecd6f76146103c457806386579c18146104375780638da5cb5b1461047c57806390e8d82f146104d35780639137c1a7146105165780639ab06fcb14610559578063ae169a501461059c578063c4d07951146105c9578063e193289f1461060c578063f2fde38b1461064f578063f81b050614610692578063fce1ccca146106cb575b600080fd5b34801561012e57600080fd5b50610137610722565b604051808273ffffffffffffffffffffffffffffffffffffffff1673ffffffffffffffffffffffffffffffffffffffff16815260200191505060405180910390f35b34801561018557600080fd5b5061018e610748565b604051808273ffffffffffffffffffffffffffffffffffffffff1673ffffffffffffffffffffffffffffffffffffffff16815260200191505060405180910390f35b3480156101dc57600080fd5b506101e561076e565b604051808273ffffffffffffffffffffffffffffffffffffffff1673ffffffffffffffffffffffffffffffffffffffff16815260200191505060405180910390f35b34801561023357600080fd5b5061023c610794565b604051808273ffffffffffffffffffffffffffffffffffffffff1673ffffffffffffffffffffffffffffffffffffffff16815260200191505060405180910390f35b34801561028a57600080fd5b506102ef60048036038101908080359060200190929190803590602001908201803590602001908080601f01602080910402602001604051908101604052809392919081815260200183838082843782019150505050505091929192905050506107ba565b005b3480156102fd57600080fd5b5061031c60048036038101908080359060200190929190505050610994565b60405180838152602001821515151581526020019250505060405180910390f35b34801561034957600080fd5b5061036860048036038101908080359060200190929190505050610f63565b005b34801561037657600080fd5b5061037f6121db565b005b34801561038d57600080fd5b506103c2600480360381019080803573ffffffffffffffffffffffffffffffffffffffff1690602001909291905050506122dd565b005b3480156103d057600080fd5b5061043560048036038101908080359060200190929190803590602001908201803590602001908080601f016020809104026020016040519081016040528093929190818152602001838380828437820191505050505050919291929050505061237c565b005b34801561044357600080fd5b50610462600480360381019080803590602001909291905050506124e0565b604051808215151515815260200191505060405180910390f35b34801561048857600080fd5b50610491612690565b604051808273ffffffffffffffffffffffffffffffffffffffff1673ffffffffffffffffffffffffffffffffffffffff16815260200191505060405180910390f35b3480156104df57600080fd5b50610514600480360381019080803573ffffffffffffffffffffffffffffffffffffffff1690602001909291905050506126b5565b005b34801561052257600080fd5b50610557600480360381019080803573ffffffffffffffffffffffffffffffffffffffff1690602001909291905050506129c9565b005b34801561056557600080fd5b5061059a600480360381019080803573ffffffffffffffffffffffffffffffffffffffff169060200190929190505050612a68565b005b3480156105a857600080fd5b506105c760048036038101908080359060200190929190505050612b07565b005b3480156105d557600080fd5b5061060a600480360381019080803573ffffffffffffffffffffffffffffffffffffffff169060200190929190505050612f96565b005b34801561061857600080fd5b5061064d600480360381019080803573ffffffffffffffffffffffffffffffffffffffff169060200190929190505050613035565b005b34801561065b57600080fd5b50610690600480360381019080803573ffffffffffffffffffffffffffffffffffffffff1690602001909291905050506130d4565b005b34801561069e57600080fd5b506106c960048036038101908080359060200190929190803515159060200190929190505050613193565b005b3480156106d757600080fd5b506106e0613eea565b604051808273ffffffffffffffffffffffffffffffffffffffff1673ffffffffffffffffffffffffffffffffffffffff16815260200191505060405180910390f35b600260009054906101000a900473ffffffffffffffffffffffffffffffffffffffff1681565b600160009054906101000a900473ffffffffffffffffffffffffffffffffffffffff1681565b600360009054906101000a900473ffffffffffffffffffffffffffffffffffffffff1681565b600560009054906101000a900473ffffffffffffffffffffffffffffffffffffffff1681565b6000806107c684613f10565b91506000821115156107d757600080fd5b600115156107e48561402b565b15151415156107f257600080fd5b600115156107ff85614290565b151514151561080d57600080fd5b600160009054906101000a900473ffffffffffffffffffffffffffffffffffffffff1673ffffffffffffffffffffffffffffffffffffffff166321f8a72161088a866040805190810160405280600c81526020017f504f4c4c5f535441525445440000000000000000000000000000000000000000815250614502565b6040518263ffffffff167c0100000000000000000000000000000000000000000000000000000000028152600401808260001916600019168152602001915050602060405180830381600087803b1580156108e457600080fd5b505af11580156108f8573d6000803e3d6000fd5b505050506040513d602081101561090e57600080fd5b8101908080519060200190929190505050905060008173ffffffffffffffffffffffffffffffffffffffff161415151561094757600080fd5b3373ffffffffffffffffffffffffffffffffffffffff168173ffffffffffffffffffffffffffffffffffffffff161415151561098257600080fd5b61098e848484846145e3565b50505050565b6000806000806000806000806000806109ac8b613f10565b9750600560009054906101000a900473ffffffffffffffffffffffffffffffffffffffff1673ffffffffffffffffffffffffffffffffffffffff16630c03fbd7338a6040518363ffffffff167c0100000000000000000000000000000000000000000000000000000000028152600401808373ffffffffffffffffffffffffffffffffffffffff1673ffffffffffffffffffffffffffffffffffffffff16815260200182815260200192505050602060405180830381600087803b158015610a7357600080fd5b505af1158015610a87573d6000803e3d6000fd5b505050506040513d6020811015610a9d57600080fd5b81019080805190602001909291905050509650600160009054906101000a900473ffffffffffffffffffffffffffffffffffffffff1673ffffffffffffffffffffffffffffffffffffffff166321f8a721610b2d8d6040805190810160405280600c81526020017f504f4c4c5f535441525445440000000000000000000000000000000000000000815250614502565b6040518263ffffffff167c0100000000000000000000000000000000000000000000000000000000028152600401808260001916600019168152602001915050602060405180830381600087803b158015610b8757600080fd5b505af1158015610b9b573d6000803e3d6000fd5b505050506040513d6020811015610bb157600080fd5b81019080805190602001909291905050509550600560009054906101000a900473ffffffffffffffffffffffffffffffffffffffff1673ffffffffffffffffffffffffffffffffffffffff1663b6990ee1896040518263ffffffff167c01000000000000000000000000000000000000000000000000000000000281526004018082815260200191505060a060405180830381600087803b158015610c5557600080fd5b505af1158015610c69573d6000803e3d6000fd5b505050506040513d60a0811015610c7f57600080fd5b81019080805190602001909291908051906020019092919080519060200190929190805190602001909291908051906020019092919050505095509550955050945060011515851515148015610cd9575060011515831515145b15610f5257600087118015610cee5750603282115b15610e3957600160009054906101000a900473ffffffffffffffffffffffffffffffffffffffff1673ffffffffffffffffffffffffffffffffffffffff1663bd02d0f5610d728d6040805190810160405280600e81526020017f5354414b45445f4445504f5349540000000000000000000000000000000000008152508c8b614ac0565b6040518263ffffffff167c0100000000000000000000000000000000000000000000000000000000028152600401808260001916600019168152602001915050602060405180830381600087803b158015610dcc57600080fd5b505af1158015610de0573d6000803e3d6000fd5b505050506040513d6020811015610df657600080fd5b81019080805190602001909291905050509050610e2e84610e20838a614bee90919063ffffffff16565b614c2690919063ffffffff16565b995060019850610f4d565b600160009054906101000a900473ffffffffffffffffffffffffffffffffffffffff1673ffffffffffffffffffffffffffffffffffffffff1663bd02d0f5610eb56040805190810160405280600b81526020017f42424f5f52455741524453000000000000000000000000000000000000000000815250614c3c565b6040518263ffffffff167c0100000000000000000000000000000000000000000000000000000000028152600401808260001916600019168152602001915050602060405180830381600087803b158015610f0f57600080fd5b505af1158015610f23573d6000803e3d6000fd5b505050506040513d6020811015610f3957600080fd5b810190808051906020019092919050505099505b610f56565b8298505b5050505050505050915091565b600080600080600080600080600080610f7b8b613f10565b9950600560009054906101000a900473ffffffffffffffffffffffffffffffffffffffff1673ffffffffffffffffffffffffffffffffffffffff1663b6990ee18b6040518263ffffffff167c01000000000000000000000000000000000000000000000000000000000281526004018082815260200191505060a060405180830381600087803b15801561100e57600080fd5b505af1158015611022573d6000803e3d6000fd5b505050506040513d60a081101561103857600080fd5b810190808051906020019092919080519060200190929190805190602001909291908051906020019092919080519060200190929190505050995099505098509850600115156110878c614290565b151514151561109557600080fd5b600160009054906101000a900473ffffffffffffffffffffffffffffffffffffffff1673ffffffffffffffffffffffffffffffffffffffff166321f8a7216111128d6040805190810160405280600c81526020017f504f4c4c5f535441525445440000000000000000000000000000000000000000815250614502565b6040518263ffffffff167c0100000000000000000000000000000000000000000000000000000000028152600401808260001916600019168152602001915050602060405180830381600087803b15801561116c57600080fd5b505af1158015611180573d6000803e3d6000fd5b505050506040513d602081101561119657600080fd5b81019080805190602001909291905050509450600073ffffffffffffffffffffffffffffffffffffffff168573ffffffffffffffffffffffffffffffffffffffff16141515156111e557600080fd5b600560009054906101000a900473ffffffffffffffffffffffffffffffffffffffff1673ffffffffffffffffffffffffffffffffffffffff1663b85fb20f8b6040518263ffffffff167c01000000000000000000000000000000000000000000000000000000000281526004018082815260200191505060a060405180830381600087803b15801561127657600080fd5b505af115801561128a573d6000803e3d6000fd5b505050506040513d60a08110156112a057600080fd5b8101908080519060200190929190805190602001909291908051906020019092919080519060200190929190805190602001909291905050505050955050504284111515156112ee57600080fd5b600160009054906101000a900473ffffffffffffffffffffffffffffffffffffffff1673ffffffffffffffffffffffffffffffffffffffff1663bd02d0f561136d8d6040805190810160405280600e81526020017f5354414b45445f4445504f5349540000000000000000000000000000000000008152508e8a614ac0565b6040518263ffffffff167c0100000000000000000000000000000000000000000000000000000000028152600401808260001916600019168152602001915050602060405180830381600087803b1580156113c757600080fd5b505af11580156113db573d6000803e3d6000fd5b505050506040513d60208110156113f157600080fd5b8101908080519060200190929190505050925061140d8b6124e0565b151561171a57600160009054906101000a900473ffffffffffffffffffffffffffffffffffffffff1673ffffffffffffffffffffffffffffffffffffffff1663ca446dd96114908d6040805190810160405280600e81526020017f444953505554455f57494e4e4552000000000000000000000000000000000000815250614502565b876040518363ffffffff167c01000000000000000000000000000000000000000000000000000000000281526004018083600019166000191681526020018273ffffffffffffffffffffffffffffffffffffffff1673ffffffffffffffffffffffffffffffffffffffff16815260200192505050600060405180830381600087803b15801561151e57600080fd5b505af1158015611532573d6000803e3d6000fd5b50505050600260009054906101000a900473ffffffffffffffffffffffffffffffffffffffff1673ffffffffffffffffffffffffffffffffffffffff1663a9059cbb86856040518363ffffffff167c0100000000000000000000000000000000000000000000000000000000028152600401808373ffffffffffffffffffffffffffffffffffffffff1673ffffffffffffffffffffffffffffffffffffffff16815260200182815260200192505050602060405180830381600087803b1580156115fb57600080fd5b505af115801561160f573d6000803e3d6000fd5b505050506040513d602081101561162557600080fd5b8101908080519060200190929190505050151561164157600080fd5b600360009054906101000a900473ffffffffffffffffffffffffffffffffffffffff1673ffffffffffffffffffffffffffffffffffffffff166356989a838c6040518263ffffffff167c010000000000000000000000000000000000000000000000000000000002815260040180828152602001915050602060405180830381600087803b1580156116d257600080fd5b505af11580156116e6573d6000803e3d6000fd5b505050506040513d60208110156116fc57600080fd5b8101908080519060200190929190505050151561171557fe5b612196565b6001151589151514151561172d57600080fd5b600160009054906101000a900473ffffffffffffffffffffffffffffffffffffffff1673ffffffffffffffffffffffffffffffffffffffff166321f8a7216117748d614d14565b6040518263ffffffff167c0100000000000000000000000000000000000000000000000000000000028152600401808260001916600019168152602001915050602060405180830381600087803b1580156117ce57600080fd5b505af11580156117e2573d6000803e3d6000fd5b505050506040513d60208110156117f857600080fd5b81019080805190602001909291905050509150600160009054906101000a900473ffffffffffffffffffffffffffffffffffffffff1673ffffffffffffffffffffffffffffffffffffffff166321f8a7216118888d6040805190810160405280600a81526020017f465245454c414e43455200000000000000000000000000000000000000000000815250614502565b6040518263ffffffff167c0100000000000000000000000000000000000000000000000000000000028152600401808260001916600019168152602001915050602060405180830381600087803b1580156118e257600080fd5b505af11580156118f6573d6000803e3d6000fd5b505050506040513d602081101561190c57600080fd5b81019080805190602001909291905050509050600088148061192e5750603286145b15611d3857600460009054906101000a900473ffffffffffffffffffffffffffffffffffffffff1673ffffffffffffffffffffffffffffffffffffffff1663b0cbea9f8b60016000806040518563ffffffff167c01000000000000000000000000000000000000000000000000000000000281526004018085815260200184151515158152602001838152602001828152602001945050505050602060405180830381600087803b1580156119e257600080fd5b505af11580156119f6573d6000803e3d6000fd5b505050506040513d6020811015611a0c57600080fd5b81019080805190602001909291905050501515611a2557fe5b600260009054906101000a900473ffffffffffffffffffffffffffffffffffffffff1673ffffffffffffffffffffffffffffffffffffffff1663a9059cbb83856040518363ffffffff167c0100000000000000000000000000000000000000000000000000000000028152600401808373ffffffffffffffffffffffffffffffffffffffff1673ffffffffffffffffffffffffffffffffffffffff16815260200182815260200192505050602060405180830381600087803b158015611aea57600080fd5b505af1158015611afe573d6000803e3d6000fd5b505050506040513d6020811015611b1457600080fd5b81019080805190602001909291905050501515611b3057600080fd5b600260009054906101000a900473ffffffffffffffffffffffffffffffffffffffff1673ffffffffffffffffffffffffffffffffffffffff1663a9059cbb82856040518363ffffffff167c0100000000000000000000000000000000000000000000000000000000028152600401808373ffffffffffffffffffffffffffffffffffffffff1673ffffffffffffffffffffffffffffffffffffffff16815260200182815260200192505050602060405180830381600087803b158015611bf557600080fd5b505af1158015611c09573d6000803e3d6000fd5b505050506040513d6020811015611c1f57600080fd5b81019080805190602001909291905050501515611c3b57600080fd5b600160009054906101000a900473ffffffffffffffffffffffffffffffffffffffff1673ffffffffffffffffffffffffffffffffffffffff1663e2a4853a611cb88d6040805190810160405280600a81526020017f4a4f425f53544154555300000000000000000000000000000000000000000000815250614502565b60046040518363ffffffff167c010000000000000000000000000000000000000000000000000000000002815260040180836000191660001916815260200182815260200192505050600060405180830381600087803b158015611d1b57600080fd5b505af1158015611d2f573d6000803e3d6000fd5b50505050612195565b600160009054906101000a900473ffffffffffffffffffffffffffffffffffffffff1673ffffffffffffffffffffffffffffffffffffffff1663ca446dd9611db58d6040805190810160405280600e81526020017f444953505554455f57494e4e4552000000000000000000000000000000000000815250614502565b60018b14611dfd578473ffffffffffffffffffffffffffffffffffffffff168873ffffffffffffffffffffffffffffffffffffffff1614611df65784611df8565b835b611dff565b875b6040518363ffffffff167c01000000000000000000000000000000000000000000000000000000000281526004018083600019166000191681526020018273ffffffffffffffffffffffffffffffffffffffff1673ffffffffffffffffffffffffffffffffffffffff16815260200192505050600060405180830381600087803b158015611e8c57600080fd5b505af1158015611ea0573d6000803e3d6000fd5b50505050600260009054906101000a900473ffffffffffffffffffffffffffffffffffffffff1673ffffffffffffffffffffffffffffffffffffffff1663a9059cbb600160009054906101000a900473ffffffffffffffffffffffffffffffffffffffff1673ffffffffffffffffffffffffffffffffffffffff166321f8a721611f5f8f6040805190810160405280600e81526020017f444953505554455f57494e4e4552000000000000000000000000000000000000815250614502565b6040518263ffffffff167c0100000000000000000000000000000000000000000000000000000000028152600401808260001916600019168152602001915050602060405180830381600087803b158015611fb957600080fd5b505af1158015611fcd573d6000803e3d6000fd5b505050506040513d6020811015611fe357600080fd5b8101908080519060200190929190505050856040518363ffffffff167c0100000000000000000000000000000000000000000000000000000000028152600401808373ffffffffffffffffffffffffffffffffffffffff1673ffffffffffffffffffffffffffffffffffffffff16815260200182815260200192505050602060405180830381600087803b15801561207a57600080fd5b505af115801561208e573d6000803e3d6000fd5b505050506040513d60208110156120a457600080fd5b810190808051906020019092919050505015156120c057600080fd5b600360009054906101000a900473ffffffffffffffffffffffffffffffffffffffff1673ffffffffffffffffffffffffffffffffffffffff166356989a838c6040518263ffffffff167c010000000000000000000000000000000000000000000000000000000002815260040180828152602001915050602060405180830381600087803b15801561215157600080fd5b505af1158015612165573d6000803e3d6000fd5b505050506040513d602081101561217b57600080fd5b8101908080519060200190929190505050151561219457fe5b5b5b8a7f22628b04f751425420531455ea6f4c72908cb490253def3f4c4762c099f30ee9896040518082815260200191505060405180910390a25050505050505050505050565b6000809054906101000a900473ffffffffffffffffffffffffffffffffffffffff1673ffffffffffffffffffffffffffffffffffffffff163373ffffffffffffffffffffffffffffffffffffffff1614151561223657600080fd5b6000809054906101000a900473ffffffffffffffffffffffffffffffffffffffff1673ffffffffffffffffffffffffffffffffffffffff167ff8df31144d9c2f0f6b59d69b8b98abd5459d07f2742c4df920b25aae33c6482060405160405180910390a260008060006101000a81548173ffffffffffffffffffffffffffffffffffffffff021916908373ffffffffffffffffffffffffffffffffffffffff160217905550565b6000809054906101000a900473ffffffffffffffffffffffffffffffffffffffff1673ffffffffffffffffffffffffffffffffffffffff163373ffffffffffffffffffffffffffffffffffffffff1614151561233857600080fd5b80600260006101000a81548173ffffffffffffffffffffffffffffffffffffffff021916908373ffffffffffffffffffffffffffffffffffffffff16021790555050565b6001151561238983614d9f565b151514151561239757600080fd5b600115156123a48361402b565b15151415156123b257600080fd5b6000600160009054906101000a900473ffffffffffffffffffffffffffffffffffffffff1673ffffffffffffffffffffffffffffffffffffffff1663bd02d0f5612431856040805190810160405280600781526020017f504f4c4c5f494400000000000000000000000000000000000000000000000000815250614502565b6040518263ffffffff167c0100000000000000000000000000000000000000000000000000000000028152600401808260001916600019168152602001915050602060405180830381600087803b15801561248b57600080fd5b505af115801561249f573d6000803e3d6000fd5b505050506040513d60208110156124b557600080fd5b81019080805190602001909291905050501415156124d257600080fd5b6124dc8282615011565b5050565b60008060006124ee84613f10565b9150612530846040805190810160405280600d81526020017f414741494e53545f50524f4f460000000000000000000000000000000000000081525084615b81565b905061254b6020604051908101604052806000815250614c3c565b60001916612681600160009054906101000a900473ffffffffffffffffffffffffffffffffffffffff1673ffffffffffffffffffffffffffffffffffffffff1663c031a180846040518263ffffffff167c0100000000000000000000000000000000000000000000000000000000028152600401808260001916600019168152602001915050600060405180830381600087803b1580156125eb57600080fd5b505af11580156125ff573d6000803e3d6000fd5b505050506040513d6000823e3d601f19601f82011682018060405250602081101561262957600080fd5b81019080805164010000000081111561264157600080fd5b8281019050602081018481111561265757600080fd5b815185600182028301116401000000008211171561267457600080fd5b5050929190505050614c3c565b60001916141592505050919050565b6000809054906101000a900473ffffffffffffffffffffffffffffffffffffffff1681565b6000809054906101000a900473ffffffffffffffffffffffffffffffffffffffff1673ffffffffffffffffffffffffffffffffffffffff163373ffffffffffffffffffffffffffffffffffffffff1614151561271057600080fd5b60003073ffffffffffffffffffffffffffffffffffffffff163111156127b0576000809054906101000a900473ffffffffffffffffffffffffffffffffffffffff1673ffffffffffffffffffffffffffffffffffffffff166108fc3073ffffffffffffffffffffffffffffffffffffffff16319081150290604051600060405180830381858888f193505050501580156127ae573d6000803e3d6000fd5b505b600073ffffffffffffffffffffffffffffffffffffffff168173ffffffffffffffffffffffffffffffffffffffff161415156129c6578073ffffffffffffffffffffffffffffffffffffffff1663a9059cbb6000809054906101000a900473ffffffffffffffffffffffffffffffffffffffff168373ffffffffffffffffffffffffffffffffffffffff166370a08231306040518263ffffffff167c0100000000000000000000000000000000000000000000000000000000028152600401808273ffffffffffffffffffffffffffffffffffffffff1673ffffffffffffffffffffffffffffffffffffffff168152602001915050602060405180830381600087803b1580156128bf57600080fd5b505af11580156128d3573d6000803e3d6000fd5b505050506040513d60208110156128e957600080fd5b81019080805190602001909291905050506040518363ffffffff167c0100000000000000000000000000000000000000000000000000000000028152600401808373ffffffffffffffffffffffffffffffffffffffff1673ffffffffffffffffffffffffffffffffffffffff16815260200182815260200192505050602060405180830381600087803b15801561297f57600080fd5b505af1158015612993573d6000803e3d6000fd5b505050506040513d60208110156129a957600080fd5b810190808051906020019092919050505015156129c557600080fd5b5b50565b6000809054906101000a900473ffffffffffffffffffffffffffffffffffffffff1673ffffffffffffffffffffffffffffffffffffffff163373ffffffffffffffffffffffffffffffffffffffff16141515612a2457600080fd5b80600160006101000a81548173ffffffffffffffffffffffffffffffffffffffff021916908373ffffffffffffffffffffffffffffffffffffffff16021790555050565b6000809054906101000a900473ffffffffffffffffffffffffffffffffffffffff1673ffffffffffffffffffffffffffffffffffffffff163373ffffffffffffffffffffffffffffffffffffffff16141515612ac357600080fd5b80600360006101000a81548173ffffffffffffffffffffffffffffffffffffffff021916908373ffffffffffffffffffffffffffffffffffffffff16021790555050565b6000806000612b1584613f10565b9250600083111515612b2657600080fd5b42600160009054906101000a900473ffffffffffffffffffffffffffffffffffffffff1673ffffffffffffffffffffffffffffffffffffffff1663bd02d0f5612ba4866040805190810160405280600e81526020017f52455645414c5f454e4444415445000000000000000000000000000000000000815250614502565b6040518263ffffffff167c0100000000000000000000000000000000000000000000000000000000028152600401808260001916600019168152602001915050602060405180830381600087803b158015612bfe57600080fd5b505af1158015612c12573d6000803e3d6000fd5b505050506040513d6020811015612c2857600080fd5b810190808051906020019092919050505011151515612c4657600080fd5b60011515600160009054906101000a900473ffffffffffffffffffffffffffffffffffffffff1673ffffffffffffffffffffffffffffffffffffffff16637ae1cfca612cc8866040805190810160405280600e81526020017f5245574152445f434c41494d454400000000000000000000000000000000000081525033615c6b565b6040518263ffffffff167c0100000000000000000000000000000000000000000000000000000000028152600401808260001916600019168152602001915050602060405180830381600087803b158015612d2257600080fd5b505af1158015612d36573d6000803e3d6000fd5b505050506040513d6020811015612d4c57600080fd5b8101908080519060200190929190505050151514151515612d6c57600080fd5b612d7583610994565b91509150600082111515612d8857600080fd5b600160009054906101000a900473ffffffffffffffffffffffffffffffffffffffff1673ffffffffffffffffffffffffffffffffffffffff1663abfdcced612e06856040805190810160405280600e81526020017f5245574152445f434c41494d454400000000000000000000000000000000000081525033615c6b565b60016040518363ffffffff167c01000000000000000000000000000000000000000000000000000000000281526004018083600019166000191681526020018215151515815260200192505050600060405180830381600087803b158015612e6d57600080fd5b505af1158015612e81573d6000803e3d6000fd5b50505050600260009054906101000a900473ffffffffffffffffffffffffffffffffffffffff1673ffffffffffffffffffffffffffffffffffffffff1663a9059cbb33846040518363ffffffff167c0100000000000000000000000000000000000000000000000000000000028152600401808373ffffffffffffffffffffffffffffffffffffffff1673ffffffffffffffffffffffffffffffffffffffff16815260200182815260200192505050602060405180830381600087803b158015612f4a57600080fd5b505af1158015612f5e573d6000803e3d6000fd5b505050506040513d6020811015612f7457600080fd5b81019080805190602001909291905050501515612f9057600080fd5b50505050565b6000809054906101000a900473ffffffffffffffffffffffffffffffffffffffff1673ffffffffffffffffffffffffffffffffffffffff163373ffffffffffffffffffffffffffffffffffffffff16141515612ff157600080fd5b80600460006101000a81548173ffffffffffffffffffffffffffffffffffffffff021916908373ffffffffffffffffffffffffffffffffffffffff16021790555050565b6000809054906101000a900473ffffffffffffffffffffffffffffffffffffffff1673ffffffffffffffffffffffffffffffffffffffff163373ffffffffffffffffffffffffffffffffffffffff1614151561309057600080fd5b80600560006101000a81548173ffffffffffffffffffffffffffffffffffffffff021916908373ffffffffffffffffffffffffffffffffffffffff16021790555050565b600073ffffffffffffffffffffffffffffffffffffffff166000809054906101000a900473ffffffffffffffffffffffffffffffffffffffff1673ffffffffffffffffffffffffffffffffffffffff16141515613187576000809054906101000a900473ffffffffffffffffffffffffffffffffffffffff1673ffffffffffffffffffffffffffffffffffffffff163373ffffffffffffffffffffffffffffffffffffffff1614151561318657600080fd5b5b61319081615d90565b50565b600080600080600080600080600115156131ac8b61402b565b15151415156131ba57600080fd5b600115156131c78b614290565b15151415156131d557600080fd5b6131de8a613f10565b9750600560009054906101000a900473ffffffffffffffffffffffffffffffffffffffff1673ffffffffffffffffffffffffffffffffffffffff1663b6990ee1896040518263ffffffff167c01000000000000000000000000000000000000000000000000000000000281526004018082815260200191505060a060405180830381600087803b15801561327157600080fd5b505af1158015613285573d6000803e3d6000fd5b505050506040513d60a081101561329b57600080fd5b8101908080519060200190929190805190602001909291908051906020019092919080519060200190929190805190602001909291905050505098505050965060011515861515141515156132ef57600080fd5b6001151587151514151561330257600080fd5b600160009054906101000a900473ffffffffffffffffffffffffffffffffffffffff1673ffffffffffffffffffffffffffffffffffffffff166321f8a7216133498c614d14565b6040518263ffffffff167c0100000000000000000000000000000000000000000000000000000000028152600401808260001916600019168152602001915050602060405180830381600087803b1580156133a357600080fd5b505af11580156133b7573d6000803e3d6000fd5b505050506040513d60208110156133cd57600080fd5b81019080805190602001909291905050509450600160009054906101000a900473ffffffffffffffffffffffffffffffffffffffff1673ffffffffffffffffffffffffffffffffffffffff166321f8a72161345d8c6040805190810160405280600a81526020017f465245454c414e43455200000000000000000000000000000000000000000000815250614502565b6040518263ffffffff167c0100000000000000000000000000000000000000000000000000000000028152600401808260001916600019168152602001915050602060405180830381600087803b1580156134b757600080fd5b505af11580156134cb573d6000803e3d6000fd5b505050506040513d60208110156134e157600080fd5b81019080805190602001909291905050509350600115158915151415613b5557600160009054906101000a900473ffffffffffffffffffffffffffffffffffffffff1673ffffffffffffffffffffffffffffffffffffffff1663ca446dd961357e8c6040805190810160405280600e81526020017f444953505554455f57494e4e4552000000000000000000000000000000000000815250614502565b8773ffffffffffffffffffffffffffffffffffffffff163373ffffffffffffffffffffffffffffffffffffffff16146135b757876135b9565b865b6040518363ffffffff167c01000000000000000000000000000000000000000000000000000000000281526004018083600019166000191681526020018273ffffffffffffffffffffffffffffffffffffffff1673ffffffffffffffffffffffffffffffffffffffff16815260200192505050600060405180830381600087803b15801561364657600080fd5b505af115801561365a573d6000803e3d6000fd5b50505050600160009054906101000a900473ffffffffffffffffffffffffffffffffffffffff1673ffffffffffffffffffffffffffffffffffffffff1663bd02d0f56136dd8c6040805190810160405280600e81526020017f5354414b45445f4445504f5349540000000000000000000000000000000000008152508c8a614ac0565b6040518263ffffffff167c0100000000000000000000000000000000000000000000000000000000028152600401808260001916600019168152602001915050602060405180830381600087803b15801561373757600080fd5b505af115801561374b573d6000803e3d6000fd5b505050506040513d602081101561376157600080fd5b81019080805190602001909291905050509250600260009054906101000a900473ffffffffffffffffffffffffffffffffffffffff1673ffffffffffffffffffffffffffffffffffffffff1663a9059cbb86856040518363ffffffff167c0100000000000000000000000000000000000000000000000000000000028152600401808373ffffffffffffffffffffffffffffffffffffffff1673ffffffffffffffffffffffffffffffffffffffff16815260200182815260200192505050602060405180830381600087803b15801561383957600080fd5b505af115801561384d573d6000803e3d6000fd5b505050506040513d602081101561386357600080fd5b8101908080519060200190929190505050151561387f57600080fd5b600260009054906101000a900473ffffffffffffffffffffffffffffffffffffffff1673ffffffffffffffffffffffffffffffffffffffff1663a9059cbb85856040518363ffffffff167c0100000000000000000000000000000000000000000000000000000000028152600401808373ffffffffffffffffffffffffffffffffffffffff1673ffffffffffffffffffffffffffffffffffffffff16815260200182815260200192505050602060405180830381600087803b15801561394457600080fd5b505af1158015613958573d6000803e3d6000fd5b505050506040513d602081101561396e57600080fd5b8101908080519060200190929190505050151561398a57600080fd5b600460009054906101000a900473ffffffffffffffffffffffffffffffffffffffff1673ffffffffffffffffffffffffffffffffffffffff1663b0cbea9f8960016000806040518563ffffffff167c01000000000000000000000000000000000000000000000000000000000281526004018085815260200184151515158152602001838152602001828152602001945050505050602060405180830381600087803b158015613a3957600080fd5b505af1158015613a4d573d6000803e3d6000fd5b505050506040513d6020811015613a6357600080fd5b81019080805190602001909291905050501515613a7c57fe5b600360009054906101000a900473ffffffffffffffffffffffffffffffffffffffff1673ffffffffffffffffffffffffffffffffffffffff166356989a838b6040518263ffffffff167c010000000000000000000000000000000000000000000000000000000002815260040180828152602001915050602060405180830381600087803b158015613b0d57600080fd5b505af1158015613b21573d6000803e3d6000fd5b505050506040513d6020811015613b3757600080fd5b81019080805190602001909291905050501515613b5057fe5b613e8b565b600160009054906101000a900473ffffffffffffffffffffffffffffffffffffffff1673ffffffffffffffffffffffffffffffffffffffff1663bd02d0f5613bd16040805190810160405280600f81526020017f434f4d4d49545f4455524154494f4e0000000000000000000000000000000000815250614c3c565b6040518263ffffffff167c0100000000000000000000000000000000000000000000000000000000028152600401808260001916600019168152602001915050602060405180830381600087803b158015613c2b57600080fd5b505af1158015613c3f573d6000803e3d6000fd5b505050506040513d6020811015613c5557600080fd5b81019080805190602001909291905050509150600082111515613c7757600080fd5b600160009054906101000a900473ffffffffffffffffffffffffffffffffffffffff1673ffffffffffffffffffffffffffffffffffffffff1663bd02d0f5613cf36040805190810160405280600f81526020017f52455645414c5f4455524154494f4e0000000000000000000000000000000000815250614c3c565b6040518263ffffffff167c0100000000000000000000000000000000000000000000000000000000028152600401808260001916600019168152602001915050602060405180830381600087803b158015613d4d57600080fd5b505af1158015613d61573d6000803e3d6000fd5b505050506040513d6020811015613d7757600080fd5b81019080805190602001909291905050509050600081111515613d9957600080fd5b600460009054906101000a900473ffffffffffffffffffffffffffffffffffffffff1673ffffffffffffffffffffffffffffffffffffffff1663b0cbea9f89600085856040518563ffffffff167c01000000000000000000000000000000000000000000000000000000000281526004018085815260200184151515158152602001838152602001828152602001945050505050602060405180830381600087803b158015613e4757600080fd5b505af1158015613e5b573d6000803e3d6000fd5b505050506040513d6020811015613e7157600080fd5b81019080805190602001909291905050501515613e8a57fe5b5b3373ffffffffffffffffffffffffffffffffffffffff168a7f68a603f0e539410f1a050040d440940ace3ca22853ca93f5b6f034fb075e11e98b604051808215151515815260200191505060405180910390a350505050505050505050565b600460009054906101000a900473ffffffffffffffffffffffffffffffffffffffff1681565b6000600160009054906101000a900473ffffffffffffffffffffffffffffffffffffffff1673ffffffffffffffffffffffffffffffffffffffff1663bd02d0f5613f8f846040805190810160405280600781526020017f504f4c4c5f494400000000000000000000000000000000000000000000000000815250614502565b6040518263ffffffff167c0100000000000000000000000000000000000000000000000000000000028152600401808260001916600019168152602001915050602060405180830381600087803b158015613fe957600080fd5b505af1158015613ffd573d6000803e3d6000fd5b505050506040513d602081101561401357600080fd5b81019080805190602001909291905050509050919050565b6000806000600160009054906101000a900473ffffffffffffffffffffffffffffffffffffffff1673ffffffffffffffffffffffffffffffffffffffff166321f8a72161407786614d14565b6040518263ffffffff167c0100000000000000000000000000000000000000000000000000000000028152600401808260001916600019168152602001915050602060405180830381600087803b1580156140d157600080fd5b505af11580156140e5573d6000803e3d6000fd5b505050506040513d60208110156140fb57600080fd5b81019080805190602001909291905050509150600160009054906101000a900473ffffffffffffffffffffffffffffffffffffffff1673ffffffffffffffffffffffffffffffffffffffff166321f8a72161418b866040805190810160405280600a81526020017f465245454c414e43455200000000000000000000000000000000000000000000815250614502565b6040518263ffffffff167c0100000000000000000000000000000000000000000000000000000000028152600401808260001916600019168152602001915050602060405180830381600087803b1580156141e557600080fd5b505af11580156141f9573d6000803e3d6000fd5b505050506040513d602081101561420f57600080fd5b810190808051906020019092919050505090508173ffffffffffffffffffffffffffffffffffffffff163373ffffffffffffffffffffffffffffffffffffffff16148061428757508073ffffffffffffffffffffffffffffffffffffffff163373ffffffffffffffffffffffffffffffffffffffff16145b92505050919050565b6000806000600160009054906101000a900473ffffffffffffffffffffffffffffffffffffffff1673ffffffffffffffffffffffffffffffffffffffff1663bd02d0f5614312866040805190810160405280600a81526020017f4a4f425f53544154555300000000000000000000000000000000000000000000815250614502565b6040518263ffffffff167c0100000000000000000000000000000000000000000000000000000000028152600401808260001916600019168152602001915050602060405180830381600087803b15801561436c57600080fd5b505af1158015614380573d6000803e3d6000fd5b505050506040513d602081101561439657600080fd5b81019080805190602001909291905050509150600160009054906101000a900473ffffffffffffffffffffffffffffffffffffffff1673ffffffffffffffffffffffffffffffffffffffff166321f8a721614426866040805190810160405280600e81526020017f444953505554455f57494e4e4552000000000000000000000000000000000000815250614502565b6040518263ffffffff167c0100000000000000000000000000000000000000000000000000000000028152600401808260001916600019168152602001915050602060405180830381600087803b15801561448057600080fd5b505af1158015614494573d6000803e3d6000fd5b505050506040513d60208110156144aa57600080fd5b810190808051906020019092919050505090506006821480156144f95750600073ffffffffffffffffffffffffffffffffffffffff168173ffffffffffffffffffffffffffffffffffffffff16145b92505050919050565b600082826040516020018083815260200182805190602001908083835b602083101515614544578051825260208201915060208101905060208303925061451f565b6001836020036101000a038019825116818451168082178552505050505050905001925050506040516020818303038152906040526040518082805190602001908083835b6020831015156145ae5780518252602082019150602081019050602083039250614589565b6001836020036101000a0380198251168184511680821785525050505050509050019150506040518091039020905092915050565b6000600160009054906101000a900473ffffffffffffffffffffffffffffffffffffffff1673ffffffffffffffffffffffffffffffffffffffff1663bd02d0f5614664876040805190810160405280600e81526020017f5354414b45445f4445504f5349540000000000000000000000000000000000008152508787614ac0565b6040518263ffffffff167c0100000000000000000000000000000000000000000000000000000000028152600401808260001916600019168152602001915050602060405180830381600087803b1580156146be57600080fd5b505af11580156146d2573d6000803e3d6000fd5b505050506040513d60208110156146e857600080fd5b81019080805190602001909291905050509050600260009054906101000a900473ffffffffffffffffffffffffffffffffffffffff1673ffffffffffffffffffffffffffffffffffffffff166323b872dd3330846040518463ffffffff167c0100000000000000000000000000000000000000000000000000000000028152600401808473ffffffffffffffffffffffffffffffffffffffff1673ffffffffffffffffffffffffffffffffffffffff1681526020018373ffffffffffffffffffffffffffffffffffffffff1673ffffffffffffffffffffffffffffffffffffffff1681526020018281526020019350505050602060405180830381600087803b1580156147f457600080fd5b505af1158015614808573d6000803e3d6000fd5b505050506040513d602081101561481e57600080fd5b8101908080519060200190929190505050151561483a57600080fd5b600160009054906101000a900473ffffffffffffffffffffffffffffffffffffffff1673ffffffffffffffffffffffffffffffffffffffff1663e2a4853a6148b9876040805190810160405280600e81526020017f5354414b45445f4445504f5349540000000000000000000000000000000000008152508733614ac0565b836040518363ffffffff167c010000000000000000000000000000000000000000000000000000000002815260040180836000191660001916815260200182815260200192505050600060405180830381600087803b15801561491b57600080fd5b505af115801561492f573d6000803e3d6000fd5b50505050600460009054906101000a900473ffffffffffffffffffffffffffffffffffffffff1673ffffffffffffffffffffffffffffffffffffffff1663cbff158f84866040518363ffffffff167c01000000000000000000000000000000000000000000000000000000000281526004018083815260200180602001828103825283818151815260200191508051906020019080838360005b838110156149e45780820151818401526020810190506149c9565b50505050905090810190601f168015614a115780820380516001836020036101000a031916815260200191505b509350505050602060405180830381600087803b158015614a3157600080fd5b505af1158015614a45573d6000803e3d6000fd5b505050506040513d6020811015614a5b57600080fd5b81019080805190602001909291905050501515614a7457fe5b823373ffffffffffffffffffffffffffffffffffffffff16867f1ec1841355a829900349eab019b38df1850976493e967a0fbfcb435fef05470460405160405180910390a45050505050565b6000848484846040516020018085815260200184805190602001908083835b602083101515614b045780518252602082019150602081019050602083039250614adf565b6001836020036101000a0380198251168184511680821785525050505050509050018381526020018273ffffffffffffffffffffffffffffffffffffffff1673ffffffffffffffffffffffffffffffffffffffff166c010000000000000000000000000281526014019450505050506040516020818303038152906040526040518082805190602001908083835b602083101515614bb75780518252602082019150602081019050602083039250614b92565b6001836020036101000a03801982511681845116808217855250505050505090500191505060405180910390209050949350505050565b600080831415614c015760009050614c20565b8183029050818382811515614c1257fe5b04141515614c1c57fe5b8090505b92915050565b60008183811515614c3357fe5b04905092915050565b6000816040516020018082805190602001908083835b602083101515614c775780518252602082019150602081019050602083039250614c52565b6001836020036101000a0380198251168184511680821785525050505050509050019150506040516020818303038152906040526040518082805190602001908083835b602083101515614ce05780518252602082019150602081019050602083039250614cbb565b6001836020036101000a03801982511681845116808217855250505050505090500191505060405180910390209050919050565b600081604051602001808281526020019150506040516020818303038152906040526040518082805190602001908083835b602083101515614d6b5780518252602082019150602081019050602083039250614d46565b6001836020036101000a03801982511681845116808217855250505050505090500191505060405180910390209050919050565b6000806000600160009054906101000a900473ffffffffffffffffffffffffffffffffffffffff1673ffffffffffffffffffffffffffffffffffffffff1663bd02d0f5614e21866040805190810160405280600a81526020017f4a4f425f53544154555300000000000000000000000000000000000000000000815250614502565b6040518263ffffffff167c0100000000000000000000000000000000000000000000000000000000028152600401808260001916600019168152602001915050602060405180830381600087803b158015614e7b57600080fd5b505af1158015614e8f573d6000803e3d6000fd5b505050506040513d6020811015614ea557600080fd5b81019080805190602001909291905050509150600160009054906101000a900473ffffffffffffffffffffffffffffffffffffffff1673ffffffffffffffffffffffffffffffffffffffff166321f8a721614f35866040805190810160405280600e81526020017f444953505554455f57494e4e4552000000000000000000000000000000000000815250614502565b6040518263ffffffff167c0100000000000000000000000000000000000000000000000000000000028152600401808260001916600019168152602001915050602060405180830381600087803b158015614f8f57600080fd5b505af1158015614fa3573d6000803e3d6000fd5b505050506040513d6020811015614fb957600080fd5b810190808051906020019092919050505090506004821480156150085750600073ffffffffffffffffffffffffffffffffffffffff168173ffffffffffffffffffffffffffffffffffffffff16145b92505050919050565b6000806000806000600160009054906101000a900473ffffffffffffffffffffffffffffffffffffffff1673ffffffffffffffffffffffffffffffffffffffff1663bd02d0f56150956040805190810160405280601181526020017f45564944454e43455f4455524154494f4e000000000000000000000000000000815250614c3c565b6040518263ffffffff167c0100000000000000000000000000000000000000000000000000000000028152600401808260001916600019168152602001915050602060405180830381600087803b1580156150ef57600080fd5b505af1158015615103573d6000803e3d6000fd5b505050506040513d602081101561511957600080fd5b8101908080519060200190929190505050945060008511151561513b57600080fd5b600160009054906101000a900473ffffffffffffffffffffffffffffffffffffffff1673ffffffffffffffffffffffffffffffffffffffff1663bd02d0f56151b76040805190810160405280600f81526020017f434f4d4d49545f4455524154494f4e0000000000000000000000000000000000815250614c3c565b6040518263ffffffff167c0100000000000000000000000000000000000000000000000000000000028152600401808260001916600019168152602001915050602060405180830381600087803b15801561521157600080fd5b505af1158015615225573d6000803e3d6000fd5b505050506040513d602081101561523b57600080fd5b8101908080519060200190929190505050935060008411151561525d57600080fd5b600160009054906101000a900473ffffffffffffffffffffffffffffffffffffffff1673ffffffffffffffffffffffffffffffffffffffff1663bd02d0f56152d96040805190810160405280600f81526020017f52455645414c5f4455524154494f4e0000000000000000000000000000000000815250614c3c565b6040518263ffffffff167c0100000000000000000000000000000000000000000000000000000000028152600401808260001916600019168152602001915050602060405180830381600087803b15801561533357600080fd5b505af1158015615347573d6000803e3d6000fd5b505050506040513d602081101561535d57600080fd5b8101908080519060200190929190505050925060008311151561537f57600080fd5b600160009054906101000a900473ffffffffffffffffffffffffffffffffffffffff1673ffffffffffffffffffffffffffffffffffffffff1663bd02d0f56153fb6040805190810160405280600e81526020017f5354414b45445f4445504f534954000000000000000000000000000000000000815250614c3c565b6040518263ffffffff167c0100000000000000000000000000000000000000000000000000000000028152600401808260001916600019168152602001915050602060405180830381600087803b15801561545557600080fd5b505af1158015615469573d6000803e3d6000fd5b505050506040513d602081101561547f57600080fd5b81019080805190602001909291905050509150600260009054906101000a900473ffffffffffffffffffffffffffffffffffffffff1673ffffffffffffffffffffffffffffffffffffffff166323b872dd3330856040518463ffffffff167c0100000000000000000000000000000000000000000000000000000000028152600401808473ffffffffffffffffffffffffffffffffffffffff1673ffffffffffffffffffffffffffffffffffffffff1681526020018373ffffffffffffffffffffffffffffffffffffffff1673ffffffffffffffffffffffffffffffffffffffff1681526020018281526020019350505050602060405180830381600087803b15801561558b57600080fd5b505af115801561559f573d6000803e3d6000fd5b505050506040513d60208110156155b557600080fd5b810190808051906020019092919050505015156155d157600080fd5b600460009054906101000a900473ffffffffffffffffffffffffffffffffffffffff1673ffffffffffffffffffffffffffffffffffffffff1663bd002e1e878787876040518563ffffffff167c01000000000000000000000000000000000000000000000000000000000281526004018080602001858152602001848152602001838152602001828103825286818151815260200191508051906020019080838360005b83811015615690578082015181840152602081019050615675565b50505050905090810190601f1680156156bd5780820380516001836020036101000a031916815260200191505b5095505050505050602060405180830381600087803b1580156156df57600080fd5b505af11580156156f3573d6000803e3d6000fd5b505050506040513d602081101561570957600080fd5b8101908080519060200190929190505050905060008111151561572857fe5b600160009054906101000a900473ffffffffffffffffffffffffffffffffffffffff1673ffffffffffffffffffffffffffffffffffffffff1663e2a4853a6157a5896040805190810160405280600781526020017f504f4c4c5f494400000000000000000000000000000000000000000000000000815250614502565b836040518363ffffffff167c010000000000000000000000000000000000000000000000000000000002815260040180836000191660001916815260200182815260200192505050600060405180830381600087803b15801561580757600080fd5b505af115801561581b573d6000803e3d6000fd5b50505050600160009054906101000a900473ffffffffffffffffffffffffffffffffffffffff1673ffffffffffffffffffffffffffffffffffffffff1663e2a4853a61589c896040805190810160405280600a81526020017f4a4f425f53544154555300000000000000000000000000000000000000000000815250614502565b60066040518363ffffffff167c010000000000000000000000000000000000000000000000000000000002815260040180836000191660001916815260200182815260200192505050600060405180830381600087803b1580156158ff57600080fd5b505af1158015615913573d6000803e3d6000fd5b50505050600160009054906101000a900473ffffffffffffffffffffffffffffffffffffffff1673ffffffffffffffffffffffffffffffffffffffff1663e2a4853a615996896040805190810160405280600e81526020017f5354414b45445f4445504f5349540000000000000000000000000000000000008152508533614ac0565b846040518363ffffffff167c010000000000000000000000000000000000000000000000000000000002815260040180836000191660001916815260200182815260200192505050600060405180830381600087803b1580156159f857600080fd5b505af1158015615a0c573d6000803e3d6000fd5b50505050600160009054906101000a900473ffffffffffffffffffffffffffffffffffffffff1673ffffffffffffffffffffffffffffffffffffffff1663ca446dd9615a8d896040805190810160405280600c81526020017f504f4c4c5f535441525445440000000000000000000000000000000000000000815250614502565b336040518363ffffffff167c01000000000000000000000000000000000000000000000000000000000281526004018083600019166000191681526020018273ffffffffffffffffffffffffffffffffffffffff1673ffffffffffffffffffffffffffffffffffffffff16815260200192505050600060405180830381600087803b158015615b1b57600080fd5b505af1158015615b2f573d6000803e3d6000fd5b50505050803373ffffffffffffffffffffffffffffffffffffffff16887f86b18b26ad4e3b30d21c7f8f4686a93c2fdb18ddbe81038db4b7e49afe078e9160405160405180910390a450505050505050565b60008383836040516020018084815260200183805190602001908083835b602083101515615bc45780518252602082019150602081019050602083039250615b9f565b6001836020036101000a03801982511681845116808217855250505050505090500182815260200193505050506040516020818303038152906040526040518082805190602001908083835b602083101515615c355780518252602082019150602081019050602083039250615c10565b6001836020036101000a038019825116818451168082178552505050505050905001915050604051809103902090509392505050565b60008383836040516020018084815260200183805190602001908083835b602083101515615cae5780518252602082019150602081019050602083039250615c89565b6001836020036101000a0380198251168184511680821785525050505050509050018273ffffffffffffffffffffffffffffffffffffffff1673ffffffffffffffffffffffffffffffffffffffff166c0100000000000000000000000002815260140193505050506040516020818303038152906040526040518082805190602001908083835b602083101515615d5a5780518252602082019150602081019050602083039250615d35565b6001836020036101000a038019825116818451168082178552505050505050905001915050604051809103902090509392505050565b600073ffffffffffffffffffffffffffffffffffffffff168173ffffffffffffffffffffffffffffffffffffffff1614151515615dcc57600080fd5b8073ffffffffffffffffffffffffffffffffffffffff166000809054906101000a900473ffffffffffffffffffffffffffffffffffffffff1673ffffffffffffffffffffffffffffffffffffffff167f8be0079c531659141344cd1fd0a4f28419497f9722a3daafe3b4186f6b6457e060405160405180910390a3806000806101000a81548173ffffffffffffffffffffffffffffffffffffffff021916908373ffffffffffffffffffffffffffffffffffffffff160217905550505600a165627a7a72305820d314ccfe68d4141b7a68271e9d508478de9a3df363650f936861eabb72ad15c80029",
  "source": "pragma solidity ^0.4.24;\n\nimport './BBStandard.sol';\nimport './BBLib.sol';\nimport './BBFreelancerPayment.sol';\nimport './BBVoting.sol';\nimport './BBVotingHelper.sol';\n\ncontract BBDispute is BBStandard{\n  BBFreelancerPayment public payment = BBFreelancerPayment(0x0);\n  BBVoting public voting = BBVoting(0x0);\n  BBVotingHelper public votingHelper = BBVotingHelper(0x0);\n  \n  function setPayment(address p) onlyOwner public  {\n    payment = BBFreelancerPayment(p);\n  }\n\n  function setVoting(address p) onlyOwner public  {\n    voting = BBVoting(p);\n  }\n  function setVotingHelper(address p) onlyOwner public  {\n    votingHelper = BBVotingHelper(p);\n  }\n  \n  event DisputeFinalized(uint256 indexed jobID, uint256 winner);\n  event DisputeStarted(uint256 indexed jobID, address indexed creator, uint256 indexed pollID);\n  event DisputeAgainsted(uint256 indexed jobID, address indexed creator, uint256 indexed pollID);\n  event DisputeUpdated(uint256 indexed jobID, address indexed creator, bool whiteFlag);\n\n  function canCreatePoll(uint256 jobID) private constant returns (bool r){\n    address jobOwner = bbs.getAddress(BBLib.toB32(jobID));\n    address freelancer = bbs.getAddress(BBLib.toB32(jobID, 'FREELANCER'));\n    r = (msg.sender==jobOwner || msg.sender==freelancer);\n  }\n  function isDisputeJob(uint256 jobID) private constant returns(bool r){\n    uint256 jobStatus = bbs.getUint(BBLib.toB32(jobID ,'JOB_STATUS'));\n    address winner = bbs.getAddress(BBLib.toB32(jobID,'DISPUTE_WINNER'));\n    r = (jobStatus == 4 && winner==address(0x0));\n  }\n  function isDisputingJob(uint256 jobID) private constant returns(bool r){\n    uint256 jobStatus = bbs.getUint(BBLib.toB32(jobID ,'JOB_STATUS'));\n    address winner = bbs.getAddress(BBLib.toB32(jobID,'DISPUTE_WINNER'));\n    r = (jobStatus == 6 && winner==address(0x0));\n  }\n  function isAgaintsPoll(uint256 jobID) public constant returns(bool r){\n    uint256 pID = getPollID(jobID);\n    bytes32 proofHash = BBLib.toB32(jobID,'AGAINST_PROOF',pID);\n    r = (BBLib.toB32(bbs.getBytes(proofHash)) != BBLib.toB32(\"\"));\n  }\n  function getPollID(uint256 jobID) internal constant returns(uint256 r){\n    r = bbs.getUint(BBLib.toB32(jobID,'POLL_ID'));\n  }\n  /**\n  * @dev finalizeDispute for poll\n  * @param jobID Job ID\n  * \n  */\n  function finalizeDispute(uint256 jobID) public\n  {\n    uint256 pID = getPollID(jobID);\n    (bool isFinished, uint256 winner,, bool hasVote, uint256 quorum) = votingHelper.getPollWinner(pID);\n    require(isDisputingJob(jobID)==true);\n    address creator = bbs.getAddress(BBLib.toB32(jobID, 'POLL_STARTED'));\n    require(creator!=address(0x0));\n    (,,uint256 addPollOptionEndDate,,) = votingHelper.getPollStage(pID);\n    require(addPollOptionEndDate <= now);\n    //TODO\n    uint256 bboStake = bbs.getUint(BBLib.toB32(jobID, 'STAKED_DEPOSIT', pID,creator));\n    // check if not have against proof\n    if(!isAgaintsPoll(jobID)){      \n      // set winner to creator \n      bbs.setAddress(BBLib.toB32(jobID, 'DISPUTE_WINNER'),creator);\n      // refun staked for \n      require(bbo.transfer(creator,bboStake));\n      // cal finalizePayment\n      assert(payment.finalizeDispute(jobID));\n    }else{\n      require(isFinished == true);\n      address jobOwner = bbs.getAddress(BBLib.toB32(jobID));\n      address freelancer = bbs.getAddress(BBLib.toB32(jobID,'FREELANCER'));\n      if(winner == 0 || quorum == 50){\n        // cancel poll\n        assert(voting.updatePoll(pID, true, 0, 0));\n        // refun money staked\n        require(bbo.transfer(jobOwner,bboStake));\n        require(bbo.transfer(freelancer,bboStake));\n        // status to 4\n        bbs.setUint(BBLib.toB32(jobID, 'JOB_STATUS'), 4);\n        //TODO reset POLL\n      }else{\n\n        bbs.setAddress(BBLib.toB32(jobID, 'DISPUTE_WINNER'), (winner==1)?creator:(creator==jobOwner)?freelancer:jobOwner);\n        //refun money staked for winner\n        require(bbo.transfer(bbs.getAddress(BBLib.toB32(jobID,'DISPUTE_WINNER')), bboStake));\n        // cal finalizePayment\n        assert(payment.finalizeDispute(jobID));\n      }\n    }\n    emit DisputeFinalized(jobID, winner);\n\n  }\n\n  /**\n  * @dev startDispute\n  * @param jobID Job ID\n  * @param proofHash Hash of Proof \n  * \n  */\n  function startDispute(uint256 jobID, bytes proofHash) public \n  {\n    require(isDisputeJob(jobID)==true);\n    require(canCreatePoll(jobID)==true);\n    require(bbs.getUint(BBLib.toB32(jobID, 'POLL_ID'))==0);\n    return doStartPoll(jobID, proofHash);\n  }\n  function doStartPoll(uint256 jobID, bytes proofHash) private {\n\n    uint evidenceDuration = bbs.getUint(BBLib.toB32('EVIDENCE_DURATION'));\n    require(evidenceDuration > 0);\n    uint commitDuration = bbs.getUint(BBLib.toB32('COMMIT_DURATION'));\n    require(commitDuration > 0);\n    uint revealDuration = bbs.getUint(BBLib.toB32('REVEAL_DURATION'));\n    require(revealDuration > 0);\n    // require sender must staked \n    uint256 bboStake = bbs.getUint(BBLib.toB32('STAKED_DEPOSIT'));\n    require(bbo.transferFrom(msg.sender, address(this), bboStake));\n    // startPoll\n    uint256 pollID = voting.startPoll(proofHash, evidenceDuration, commitDuration, revealDuration);\n    assert(pollID>0);\n    // save poll\n    bbs.setUint(BBLib.toB32(jobID, 'POLL_ID'), pollID);\n    //set status to 6\n    bbs.setUint(BBLib.toB32(jobID ,'JOB_STATUS'), 6);\n    // save staked tokens\n    bbs.setUint(BBLib.toB32(jobID, 'STAKED_DEPOSIT', pollID, msg.sender), bboStake);\n    // save startPoll address\n    bbs.setAddress(BBLib.toB32(jobID, 'POLL_STARTED'), msg.sender);\n    emit DisputeStarted(jobID, msg.sender, pollID);\n  }\n  /**\n  * @dev againstDispute\n  * @param jobID Job ID\n  * @param againstProofHash Hash of Against Proof \n  * \n  */\n  function againstDispute(uint256 jobID, bytes againstProofHash) public \n  {\n    uint256 pID = getPollID(jobID);\n    require(pID > 0);\n    require(canCreatePoll(jobID)==true);\n    require(isDisputingJob(jobID)==true);\n\n    address creator = bbs.getAddress(BBLib.toB32(jobID, 'POLL_STARTED'));\n    require(creator!=0x0);\n    require(creator!=msg.sender);\n    return doAgainstPoll(jobID, againstProofHash, pID, creator);\n  }\n  function doAgainstPoll(uint256 jobID, bytes againstProofHash, uint256 pID, address creator) internal \n  {\n    // require sender must staked bbo equal the creator\n    uint256 bboStake = bbs.getUint(BBLib.toB32(jobID, 'STAKED_DEPOSIT', pID, creator));\n    require(bbo.transferFrom(msg.sender, address(this), bboStake));\n    bbs.setUint(BBLib.toB32(jobID, 'STAKED_DEPOSIT',pID,msg.sender), bboStake);\n    assert(voting.addPollOption(pID,againstProofHash));\n    emit DisputeAgainsted(jobID, msg.sender, pID);\n  } \n\n  function updateDispute(uint256 jobID,bool whiteFlag) public {\n    require(canCreatePoll(jobID)==true);\n    require(isDisputingJob(jobID)==true);\n    uint256 pollID = getPollID(jobID);\n    (bool isFinished,,, bool hasVote,) = votingHelper.getPollWinner(pollID);\n    require(hasVote!=true);\n    require(isFinished==true);\n    address jobOwner = bbs.getAddress(BBLib.toB32(jobID));\n    address freelancer = bbs.getAddress(BBLib.toB32(jobID,'FREELANCER'));\n    if(whiteFlag == true){\n      bbs.setAddress(BBLib.toB32(jobID, 'DISPUTE_WINNER'), (msg.sender==jobOwner)?freelancer:jobOwner);\n      uint256 bboStake = bbs.getUint(BBLib.toB32(jobID, 'STAKED_DEPOSIT', pollID,jobOwner));\n      //refun money staked for users\n      require(bbo.transfer(jobOwner, bboStake));\n      require(bbo.transfer(freelancer, bboStake));\n      // cal finalizePayment\n      assert(voting.updatePoll(pollID, true, 0, 0));\n      assert(payment.finalizeDispute(jobID));\n      \n    }else{\n      uint commitDuration = bbs.getUint(BBLib.toB32('COMMIT_DURATION'));\n      require(commitDuration > 0);\n      uint revealDuration = bbs.getUint(BBLib.toB32('REVEAL_DURATION'));\n      require(revealDuration > 0);\n      assert(voting.updatePoll(pollID, false, commitDuration, revealDuration));\n\n    }\n    emit DisputeUpdated(jobID, msg.sender, whiteFlag);\n  }\n\n  /**\n  * @dev claimReward for poll\n  * @param jobID Job Hash\n  *\n  */\n  function claimReward(uint256 jobID) public {\n    uint256 pollID = getPollID(jobID);\n    require(pollID > 0);\n    require(bbs.getUint(BBLib.toB32(pollID ,'REVEAL_ENDDATE'))<=now);\n    require(bbs.getBool(BBLib.toB32(pollID ,'REWARD_CLAIMED', msg.sender))!= true);\n    (uint256 numReward, bool win) = calcReward(pollID);\n    require (numReward > 0);\n    // set claimed to true\n    bbs.setBool(BBLib.toB32(pollID ,'REWARD_CLAIMED',msg.sender), true);\n    // todo senBBO\n    require(bbo.transfer(msg.sender, numReward));\n  }\n  /**\n  * @dev calcReward calculate the reward\n  * @param jobID Job Hash\n  *\n  */\n  function calcReward(uint256 jobID) constant public returns(uint256 numReward, bool win){\n    //if(bbs.getBool(BBLib.toB32(pollID ,'REWARD_CLAIMED', msg.sender))== false){\n      uint256 pollID = getPollID(jobID);\n      uint256 userVotes =  votingHelper.getNumPassingTokens(msg.sender, pollID);\n      address creator = bbs.getAddress(BBLib.toB32(jobID, 'POLL_STARTED'));\n      (bool isFinished,, uint256 winnerVotes, bool hasVote, uint256 quorum) = votingHelper.getPollWinner(pollID);\n      if(isFinished==true && hasVote == true){\n        if(userVotes>0 && quorum > 50){\n          uint256 bboStake = bbs.getUint(BBLib.toB32(jobID, 'STAKED_DEPOSIT', pollID,creator));\n          numReward = userVotes.mul(bboStake).div(winnerVotes); // (vote/totalVotes) * staked\n          win = true;\n        }else{\n          numReward = bbs.getUint(BBLib.toB32('BBO_REWARDS'));\n        }\n      }else\n        win = hasVote;\n    //}\n  }\n}\n",
  "sourcePath": "/Users/yena/Documents/tuongnguyen/bigbom-digital-contract/src/contracts/BBDispute.sol",
  "compiler": {
    "name": "solc",
    "version": "0.4.24+commit.e67f0147.Emscripten.clang"
  },
  "schemaVersion": "2.0.1",
  "updatedAt": "2018-11-19T01:54:31.438Z"
}