{
  "contractName": "BBFreelancerJob",
  "abi": [
    {
      "constant": true,
      "inputs": [],
      "name": "bbo",
      "outputs": [
        {
          "name": "",
          "type": "address"
        }
      ],
      "payable": false,
      "stateMutability": "view",
      "type": "function"
    },
    {
      "constant": true,
      "inputs": [],
      "name": "bbs",
      "outputs": [
        {
          "name": "",
          "type": "address"
        }
      ],
      "payable": false,
      "stateMutability": "view",
      "type": "function"
    },
    {
      "constant": true,
      "inputs": [],
      "name": "payment",
      "outputs": [
        {
          "name": "",
          "type": "address"
        }
      ],
      "payable": false,
      "stateMutability": "view",
      "type": "function"
    },
    {
      "constant": false,
      "inputs": [],
      "name": "renounceOwnership",
      "outputs": [],
      "payable": false,
      "stateMutability": "nonpayable",
      "type": "function"
    },
    {
      "constant": false,
      "inputs": [
        {
          "name": "BBOAddress",
          "type": "address"
        }
      ],
      "name": "setBBO",
      "outputs": [],
      "payable": false,
      "stateMutability": "nonpayable",
      "type": "function"
    },
    {
      "constant": true,
      "inputs": [
        {
          "name": "jobID",
          "type": "uint256"
        }
      ],
      "name": "isJobCancel",
      "outputs": [
        {
          "name": "",
          "type": "bool"
        }
      ],
      "payable": false,
      "stateMutability": "view",
      "type": "function"
    },
    {
      "constant": true,
      "inputs": [],
      "name": "owner",
      "outputs": [
        {
          "name": "",
          "type": "address"
        }
      ],
      "payable": false,
      "stateMutability": "view",
      "type": "function"
    },
    {
      "constant": false,
      "inputs": [
        {
          "name": "anyToken",
          "type": "address"
        }
      ],
      "name": "emergencyERC20Drain",
      "outputs": [],
      "payable": false,
      "stateMutability": "nonpayable",
      "type": "function"
    },
    {
      "constant": false,
      "inputs": [
        {
          "name": "storageAddress",
          "type": "address"
        }
      ],
      "name": "setStorage",
      "outputs": [],
      "payable": false,
      "stateMutability": "nonpayable",
      "type": "function"
    },
    {
      "constant": true,
      "inputs": [
        {
          "name": "jobID",
          "type": "uint256"
        }
      ],
      "name": "isJobStart",
      "outputs": [
        {
          "name": "",
          "type": "bool"
        }
      ],
      "payable": false,
      "stateMutability": "view",
      "type": "function"
    },
    {
      "constant": true,
      "inputs": [
        {
          "name": "sender",
          "type": "address"
        },
        {
          "name": "jobID",
          "type": "uint256"
        }
      ],
      "name": "isOwnerOfJob",
      "outputs": [
        {
          "name": "",
          "type": "bool"
        }
      ],
      "payable": false,
      "stateMutability": "view",
      "type": "function"
    },
    {
      "constant": true,
      "inputs": [
        {
          "name": "jobID",
          "type": "uint256"
        }
      ],
      "name": "isJobExpired",
      "outputs": [
        {
          "name": "",
          "type": "bool"
        }
      ],
      "payable": false,
      "stateMutability": "view",
      "type": "function"
    },
    {
      "constant": true,
      "inputs": [
        {
          "name": "jobID",
          "type": "uint256"
        }
      ],
      "name": "isJobHasFreelancer",
      "outputs": [
        {
          "name": "",
          "type": "bool"
        }
      ],
      "payable": false,
      "stateMutability": "view",
      "type": "function"
    },
    {
      "constant": false,
      "inputs": [
        {
          "name": "_newOwner",
          "type": "address"
        }
      ],
      "name": "transferOwnership",
      "outputs": [],
      "payable": false,
      "stateMutability": "nonpayable",
      "type": "function"
    },
    {
      "anonymous": false,
      "inputs": [
        {
          "indexed": false,
          "name": "jobHash",
          "type": "bytes"
        },
        {
          "indexed": true,
          "name": "jobID",
          "type": "uint256"
        },
        {
          "indexed": true,
          "name": "owner",
          "type": "address"
        },
        {
          "indexed": false,
          "name": "expired",
          "type": "uint256"
        },
        {
          "indexed": true,
          "name": "category",
          "type": "bytes32"
        },
        {
          "indexed": false,
          "name": "budget",
          "type": "uint256"
        },
        {
          "indexed": false,
          "name": "estimateTime",
          "type": "uint256"
        }
      ],
      "name": "JobCreated",
      "type": "event"
    },
    {
      "anonymous": false,
      "inputs": [
        {
          "indexed": true,
          "name": "jobID",
          "type": "uint256"
        }
      ],
      "name": "JobCanceled",
      "type": "event"
    },
    {
      "anonymous": false,
      "inputs": [
        {
          "indexed": true,
          "name": "jobID",
          "type": "uint256"
        }
      ],
      "name": "JobStarted",
      "type": "event"
    },
    {
      "anonymous": false,
      "inputs": [
        {
          "indexed": true,
          "name": "jobID",
          "type": "uint256"
        }
      ],
      "name": "JobFinished",
      "type": "event"
    },
    {
      "anonymous": false,
      "inputs": [
        {
          "indexed": true,
          "name": "previousOwner",
          "type": "address"
        }
      ],
      "name": "OwnershipRenounced",
      "type": "event"
    },
    {
      "anonymous": false,
      "inputs": [
        {
          "indexed": true,
          "name": "previousOwner",
          "type": "address"
        },
        {
          "indexed": true,
          "name": "newOwner",
          "type": "address"
        }
      ],
      "name": "OwnershipTransferred",
      "type": "event"
    },
    {
      "constant": false,
      "inputs": [
        {
          "name": "paymentAddress",
          "type": "address"
        }
      ],
      "name": "setPaymentContract",
      "outputs": [],
      "payable": false,
      "stateMutability": "nonpayable",
      "type": "function"
    },
    {
      "constant": true,
      "inputs": [
        {
          "name": "jobID",
          "type": "uint256"
        }
      ],
      "name": "getJob",
      "outputs": [
        {
          "name": "",
          "type": "address"
        },
        {
          "name": "",
          "type": "uint256"
        },
        {
          "name": "",
          "type": "uint256"
        },
        {
          "name": "",
          "type": "bool"
        },
        {
          "name": "",
          "type": "uint256"
        },
        {
          "name": "",
          "type": "address"
        }
      ],
      "payable": false,
      "stateMutability": "view",
      "type": "function"
    },
    {
      "constant": false,
      "inputs": [
        {
          "name": "jobHash",
          "type": "bytes"
        },
        {
          "name": "expired",
          "type": "uint256"
        },
        {
          "name": "estimateTime",
          "type": "uint256"
        },
        {
          "name": "budget",
          "type": "uint256"
        },
        {
          "name": "category",
          "type": "bytes32"
        }
      ],
      "name": "createJob",
      "outputs": [],
      "payable": false,
      "stateMutability": "nonpayable",
      "type": "function"
    },
    {
      "constant": false,
      "inputs": [
        {
          "name": "jobID",
          "type": "uint256"
        }
      ],
      "name": "cancelJob",
      "outputs": [],
      "payable": false,
      "stateMutability": "nonpayable",
      "type": "function"
    },
    {
      "constant": false,
      "inputs": [
        {
          "name": "jobID",
          "type": "uint256"
        }
      ],
      "name": "startJob",
      "outputs": [],
      "payable": false,
      "stateMutability": "nonpayable",
      "type": "function"
    },
    {
      "constant": false,
      "inputs": [
        {
          "name": "jobID",
          "type": "uint256"
        }
      ],
      "name": "finishJob",
      "outputs": [],
      "payable": false,
      "stateMutability": "nonpayable",
      "type": "function"
    },
    {
      "constant": true,
      "inputs": [
        {
          "name": "jobHash",
          "type": "bytes"
        }
      ],
      "name": "getJobID",
      "outputs": [
        {
          "name": "",
          "type": "uint256"
        }
      ],
      "payable": false,
      "stateMutability": "view",
      "type": "function"
    },
    {
      "constant": true,
      "inputs": [
        {
          "name": "sender",
          "type": "address"
        },
        {
          "name": "rateTo",
          "type": "address"
        },
        {
          "name": "jobID",
          "type": "uint256"
        }
      ],
      "name": "allowRating",
      "outputs": [
        {
          "name": "",
          "type": "bool"
        }
      ],
      "payable": false,
      "stateMutability": "view",
      "type": "function"
    }
  ],
  "bytecode": "0x60806040526000600160006101000a81548173ffffffffffffffffffffffffffffffffffffffff021916908373ffffffffffffffffffffffffffffffffffffffff1602179055506000600260006101000a81548173ffffffffffffffffffffffffffffffffffffffff021916908373ffffffffffffffffffffffffffffffffffffffff1602179055506000600360006101000a81548173ffffffffffffffffffffffffffffffffffffffff021916908373ffffffffffffffffffffffffffffffffffffffff160217905550336000806101000a81548173ffffffffffffffffffffffffffffffffffffffff021916908373ffffffffffffffffffffffffffffffffffffffff1602179055506146b0806101196000396000f300608060405260043610610128576000357c0100000000000000000000000000000000000000000000000000000000900463ffffffff1680631dffa3dc1461012d5780631e89bf061461015a5780631fde23a4146101b157806334dcc0781461020857806342f6487a1461028557806356fa9f6b146102dc5780636e3589a214610361578063715018a61461038e5780637937f46d146103a55780638abb20cc146103e85780638b01bcc31461042b5780638da5cb5b1461047057806390e8d82f146104c75780639137c1a71461050a578063b191f79d1461054d578063b8edcd1f14610592578063bf22c457146105f7578063c34dbd07146106b7578063dad788d91461074c578063e125529414610791578063ebe5f590146107be578063f2fde38b14610803575b600080fd5b34801561013957600080fd5b5061015860048036038101908080359060200190929190505050610846565b005b34801561016657600080fd5b5061016f610fef565b604051808273ffffffffffffffffffffffffffffffffffffffff1673ffffffffffffffffffffffffffffffffffffffff16815260200191505060405180910390f35b3480156101bd57600080fd5b506101c6611015565b604051808273ffffffffffffffffffffffffffffffffffffffff1673ffffffffffffffffffffffffffffffffffffffff16815260200191505060405180910390f35b34801561021457600080fd5b5061026f600480360381019080803590602001908201803590602001908080601f016020809104026020016040519081016040528093929190818152602001838380828437820191505050505050919291929050505061103b565b6040518082815260200191505060405180910390f35b34801561029157600080fd5b5061029a611156565b604051808273ffffffffffffffffffffffffffffffffffffffff1673ffffffffffffffffffffffffffffffffffffffff16815260200191505060405180910390f35b3480156102e857600080fd5b50610347600480360381019080803573ffffffffffffffffffffffffffffffffffffffff169060200190929190803573ffffffffffffffffffffffffffffffffffffffff1690602001909291908035906020019092919050505061117c565b604051808215151515815260200191505060405180910390f35b34801561036d57600080fd5b5061038c600480360381019080803590602001909291905050506115e0565b005b34801561039a57600080fd5b506103a3611c1a565b005b3480156103b157600080fd5b506103e6600480360381019080803573ffffffffffffffffffffffffffffffffffffffff169060200190929190505050611d1c565b005b3480156103f457600080fd5b50610429600480360381019080803573ffffffffffffffffffffffffffffffffffffffff169060200190929190505050611dbb565b005b34801561043757600080fd5b5061045660048036038101908080359060200190929190505050611e5a565b604051808215151515815260200191505060405180910390f35b34801561047c57600080fd5b50610485611fe0565b604051808273ffffffffffffffffffffffffffffffffffffffff1673ffffffffffffffffffffffffffffffffffffffff16815260200191505060405180910390f35b3480156104d357600080fd5b50610508600480360381019080803573ffffffffffffffffffffffffffffffffffffffff169060200190929190505050612005565b005b34801561051657600080fd5b5061054b600480360381019080803573ffffffffffffffffffffffffffffffffffffffff169060200190929190505050612319565b005b34801561055957600080fd5b50610578600480360381019080803590602001909291905050506123b8565b604051808215151515815260200191505060405180910390f35b34801561059e57600080fd5b506105dd600480360381019080803573ffffffffffffffffffffffffffffffffffffffff16906020019092919080359060200190929190505050612541565b604051808215151515815260200191505060405180910390f35b34801561060357600080fd5b5061062260048036038101908080359060200190929190505050612655565b604051808773ffffffffffffffffffffffffffffffffffffffff1673ffffffffffffffffffffffffffffffffffffffff168152602001868152602001858152602001841515151581526020018381526020018273ffffffffffffffffffffffffffffffffffffffff1673ffffffffffffffffffffffffffffffffffffffff168152602001965050505050505060405180910390f35b3480156106c357600080fd5b5061074a600480360381019080803590602001908201803590602001908080601f01602080910402602001604051908101604052809392919081815260200183838082843782019150505050505091929192908035906020019092919080359060200190929190803590602001909291908035600019169060200190929190505050612cca565b005b34801561075857600080fd5b5061077760048036038101908080359060200190929190505050613617565b604051808215151515815260200191505060405180910390f35b34801561079d57600080fd5b506107bc6004803603810190808035906020019092919050505061379f565b005b3480156107ca57600080fd5b506107e960048036038101908080359060200190929190505050613e95565b604051808215151515815260200191505060405180910390f35b34801561080f57600080fd5b50610844600480360381019080803573ffffffffffffffffffffffffffffffffffffffff169060200190929190505050614034565b005b600080600080843373ffffffffffffffffffffffffffffffffffffffff16600160009054906101000a900473ffffffffffffffffffffffffffffffffffffffff1673ffffffffffffffffffffffffffffffffffffffff166321f8a7216108ab846140f3565b6040518263ffffffff167c0100000000000000000000000000000000000000000000000000000000028152600401808260001916600019168152602001915050602060405180830381600087803b15801561090557600080fd5b505af1158015610919573d6000803e3d6000fd5b505050506040513d602081101561092f57600080fd5b810190808051906020019092919050505073ffffffffffffffffffffffffffffffffffffffff1614151561096257600080fd5b600160009054906101000a900473ffffffffffffffffffffffffffffffffffffffff1673ffffffffffffffffffffffffffffffffffffffff1663bd02d0f56109df886040805190810160405280600a81526020017f4a4f425f5354415455530000000000000000000000000000000000000000000081525061417e565b6040518263ffffffff167c0100000000000000000000000000000000000000000000000000000000028152600401808260001916600019168152602001915050602060405180830381600087803b158015610a3957600080fd5b505af1158015610a4d573d6000803e3d6000fd5b505050506040513d6020811015610a6357600080fd5b810190808051906020019092919050505094506000851480610a855750600185145b1515610a9057600080fd5b6001851415610de757600160009054906101000a900473ffffffffffffffffffffffffffffffffffffffff1673ffffffffffffffffffffffffffffffffffffffff166321f8a721610b16886040805190810160405280600a81526020017f465245454c414e4345520000000000000000000000000000000000000000000081525061417e565b6040518263ffffffff167c0100000000000000000000000000000000000000000000000000000000028152600401808260001916600019168152602001915050602060405180830381600087803b158015610b7057600080fd5b505af1158015610b84573d6000803e3d6000fd5b505050506040513d6020811015610b9a57600080fd5b81019080805190602001909291905050509350600160009054906101000a900473ffffffffffffffffffffffffffffffffffffffff1673ffffffffffffffffffffffffffffffffffffffff1663bd02d0f5610c2b886040805190810160405280600881526020017f4249445f54494d450000000000000000000000000000000000000000000000008152508861425f565b6040518263ffffffff167c0100000000000000000000000000000000000000000000000000000000028152600401808260001916600019168152602001915050602060405180830381600087803b158015610c8557600080fd5b505af1158015610c99573d6000803e3d6000fd5b505050506040513d6020811015610caf57600080fd5b81019080805190602001909291905050509250600160009054906101000a900473ffffffffffffffffffffffffffffffffffffffff1673ffffffffffffffffffffffffffffffffffffffff1663bd02d0f5610d3f886040805190810160405280601581526020017f4a4f425f535441525445445f54494d455354414d50000000000000000000000081525061417e565b6040518263ffffffff167c0100000000000000000000000000000000000000000000000000000000028152600401808260001916600019168152602001915050602060405180830381600087803b158015610d9957600080fd5b505af1158015610dad573d6000803e3d6000fd5b505050506040513d6020811015610dc357600080fd5b8101908080519060200190929190505050915082820142111515610de657600080fd5b5b600160009054906101000a900473ffffffffffffffffffffffffffffffffffffffff1673ffffffffffffffffffffffffffffffffffffffff1663abfdcced610e64886040805190810160405280600a81526020017f4a4f425f43414e43454c0000000000000000000000000000000000000000000081525061417e565b60016040518363ffffffff167c01000000000000000000000000000000000000000000000000000000000281526004018083600019166000191681526020018215151515815260200192505050600060405180830381600087803b158015610ecb57600080fd5b505af1158015610edf573d6000803e3d6000fd5b50505050600360009054906101000a900473ffffffffffffffffffffffffffffffffffffffff1673ffffffffffffffffffffffffffffffffffffffff16637d716f1d876040518263ffffffff167c010000000000000000000000000000000000000000000000000000000002815260040180828152602001915050602060405180830381600087803b158015610f7457600080fd5b505af1158015610f88573d6000803e3d6000fd5b505050506040513d6020811015610f9e57600080fd5b81019080805190602001909291905050501515610fba57600080fd5b857f68a66a704ceacc38da3f12c63779e47866d9d72e875ec5d43237777adc666d6560405160405180910390a2505050505050565b600260009054906101000a900473ffffffffffffffffffffffffffffffffffffffff1681565b600160009054906101000a900473ffffffffffffffffffffffffffffffffffffffff1681565b6000600160009054906101000a900473ffffffffffffffffffffffffffffffffffffffff1673ffffffffffffffffffffffffffffffffffffffff1663bd02d0f56110ba846040805190810160405280600881526020017f4a4f425f48415348000000000000000000000000000000000000000000000000815250614384565b6040518263ffffffff167c0100000000000000000000000000000000000000000000000000000000028152600401808260001916600019168152602001915050602060405180830381600087803b15801561111457600080fd5b505af1158015611128573d6000803e3d6000fd5b505050506040513d602081101561113e57600080fd5b81019080805190602001909291905050509050919050565b600360009054906101000a900473ffffffffffffffffffffffffffffffffffffffff1681565b600080600080600160009054906101000a900473ffffffffffffffffffffffffffffffffffffffff1673ffffffffffffffffffffffffffffffffffffffff166321f8a7216111c9876140f3565b6040518263ffffffff167c0100000000000000000000000000000000000000000000000000000000028152600401808260001916600019168152602001915050602060405180830381600087803b15801561122357600080fd5b505af1158015611237573d6000803e3d6000fd5b505050506040513d602081101561124d57600080fd5b81019080805190602001909291905050509250600160009054906101000a900473ffffffffffffffffffffffffffffffffffffffff1673ffffffffffffffffffffffffffffffffffffffff166321f8a7216112dd876040805190810160405280600a81526020017f465245454c414e4345520000000000000000000000000000000000000000000081525061417e565b6040518263ffffffff167c0100000000000000000000000000000000000000000000000000000000028152600401808260001916600019168152602001915050602060405180830381600087803b15801561133757600080fd5b505af115801561134b573d6000803e3d6000fd5b505050506040513d602081101561136157600080fd5b810190808051906020019092919050505091508273ffffffffffffffffffffffffffffffffffffffff168773ffffffffffffffffffffffffffffffffffffffff16141580156113dc57508173ffffffffffffffffffffffffffffffffffffffff168773ffffffffffffffffffffffffffffffffffffffff1614155b156113ea57600093506115d6565b8273ffffffffffffffffffffffffffffffffffffffff168673ffffffffffffffffffffffffffffffffffffffff161415801561145257508173ffffffffffffffffffffffffffffffffffffffff168673ffffffffffffffffffffffffffffffffffffffff1614155b1561146057600093506115d6565b8573ffffffffffffffffffffffffffffffffffffffff168773ffffffffffffffffffffffffffffffffffffffff16141561149d57600093506115d6565b600160009054906101000a900473ffffffffffffffffffffffffffffffffffffffff1673ffffffffffffffffffffffffffffffffffffffff1663bd02d0f561151a876040805190810160405280600a81526020017f4a4f425f5354415455530000000000000000000000000000000000000000000081525061417e565b6040518263ffffffff167c0100000000000000000000000000000000000000000000000000000000028152600401808260001916600019168152602001915050602060405180830381600087803b15801561157457600080fd5b505af1158015611588573d6000803e3d6000fd5b505050506040513d602081101561159e57600080fd5b81019080805190602001909291905050509050600581141580156115c3575060098114155b156115d157600093506115d6565b600193505b5050509392505050565b806000600160009054906101000a900473ffffffffffffffffffffffffffffffffffffffff1673ffffffffffffffffffffffffffffffffffffffff166321f8a72161162a846140f3565b6040518263ffffffff167c0100000000000000000000000000000000000000000000000000000000028152600401808260001916600019168152602001915050602060405180830381600087803b15801561168457600080fd5b505af1158015611698573d6000803e3d6000fd5b505050506040513d60208110156116ae57600080fd5b8101908080519060200190929190505050905060008173ffffffffffffffffffffffffffffffffffffffff16141515156116e757600080fd5b8073ffffffffffffffffffffffffffffffffffffffff163373ffffffffffffffffffffffffffffffffffffffff161415151561172257600080fd5b823373ffffffffffffffffffffffffffffffffffffffff16600160009054906101000a900473ffffffffffffffffffffffffffffffffffffffff1673ffffffffffffffffffffffffffffffffffffffff166321f8a7218360405160200180828152602001807f465245454c414e43455200000000000000000000000000000000000000000000815250600a019150506040516020818303038152906040526040518082805190602001908083835b6020831015156117f557805182526020820191506020810190506020830392506117d0565b6001836020036101000a03801982511681845116808217855250505050505090500191505060405180910390206040518263ffffffff167c0100000000000000000000000000000000000000000000000000000000028152600401808260001916600019168152602001915050602060405180830381600087803b15801561187c57600080fd5b505af1158015611890573d6000803e3d6000fd5b505050506040513d60208110156118a657600080fd5b810190808051906020019092919050505073ffffffffffffffffffffffffffffffffffffffff161415156118d957600080fd5b60018060009054906101000a900473ffffffffffffffffffffffffffffffffffffffff1673ffffffffffffffffffffffffffffffffffffffff1663bd02d0f5611957876040805190810160405280600a81526020017f4a4f425f5354415455530000000000000000000000000000000000000000000081525061417e565b6040518263ffffffff167c0100000000000000000000000000000000000000000000000000000000028152600401808260001916600019168152602001915050602060405180830381600087803b1580156119b157600080fd5b505af11580156119c5573d6000803e3d6000fd5b505050506040513d60208110156119db57600080fd5b81019080805190602001909291905050501415156119f857600080fd5b600160009054906101000a900473ffffffffffffffffffffffffffffffffffffffff1673ffffffffffffffffffffffffffffffffffffffff1663e2a4853a611a75866040805190810160405280600a81526020017f4a4f425f5354415455530000000000000000000000000000000000000000000081525061417e565b60026040518363ffffffff167c010000000000000000000000000000000000000000000000000000000002815260040180836000191660001916815260200182815260200192505050600060405180830381600087803b158015611ad857600080fd5b505af1158015611aec573d6000803e3d6000fd5b50505050600160009054906101000a900473ffffffffffffffffffffffffffffffffffffffff1673ffffffffffffffffffffffffffffffffffffffff1663e2a4853a611b6d866040805190810160405280601681526020017f4a4f425f46494e49534845445f54494d455354414d500000000000000000000081525061417e565b426040518363ffffffff167c010000000000000000000000000000000000000000000000000000000002815260040180836000191660001916815260200182815260200192505050600060405180830381600087803b158015611bcf57600080fd5b505af1158015611be3573d6000803e3d6000fd5b50505050837f8f1310e982bd87a5289e7af5f41ea36ca58931c4adee6eac334292cee7a2812b60405160405180910390a250505050565b6000809054906101000a900473ffffffffffffffffffffffffffffffffffffffff1673ffffffffffffffffffffffffffffffffffffffff163373ffffffffffffffffffffffffffffffffffffffff16141515611c7557600080fd5b6000809054906101000a900473ffffffffffffffffffffffffffffffffffffffff1673ffffffffffffffffffffffffffffffffffffffff167ff8df31144d9c2f0f6b59d69b8b98abd5459d07f2742c4df920b25aae33c6482060405160405180910390a260008060006101000a81548173ffffffffffffffffffffffffffffffffffffffff021916908373ffffffffffffffffffffffffffffffffffffffff160217905550565b6000809054906101000a900473ffffffffffffffffffffffffffffffffffffffff1673ffffffffffffffffffffffffffffffffffffffff163373ffffffffffffffffffffffffffffffffffffffff16141515611d7757600080fd5b80600260006101000a81548173ffffffffffffffffffffffffffffffffffffffff021916908373ffffffffffffffffffffffffffffffffffffffff16021790555050565b6000809054906101000a900473ffffffffffffffffffffffffffffffffffffffff1673ffffffffffffffffffffffffffffffffffffffff163373ffffffffffffffffffffffffffffffffffffffff16141515611e1657600080fd5b80600360006101000a81548173ffffffffffffffffffffffffffffffffffffffff021916908373ffffffffffffffffffffffffffffffffffffffff16021790555050565b6000600160009054906101000a900473ffffffffffffffffffffffffffffffffffffffff1673ffffffffffffffffffffffffffffffffffffffff16637ae1cfca8360405160200180828152602001807f4a4f425f43414e43454c00000000000000000000000000000000000000000000815250600a019150506040516020818303038152906040526040518082805190602001908083835b602083101515611f175780518252602082019150602081019050602083039250611ef2565b6001836020036101000a03801982511681845116808217855250505050505090500191505060405180910390206040518263ffffffff167c0100000000000000000000000000000000000000000000000000000000028152600401808260001916600019168152602001915050602060405180830381600087803b158015611f9e57600080fd5b505af1158015611fb2573d6000803e3d6000fd5b505050506040513d6020811015611fc857600080fd5b81019080805190602001909291905050509050919050565b6000809054906101000a900473ffffffffffffffffffffffffffffffffffffffff1681565b6000809054906101000a900473ffffffffffffffffffffffffffffffffffffffff1673ffffffffffffffffffffffffffffffffffffffff163373ffffffffffffffffffffffffffffffffffffffff1614151561206057600080fd5b60003073ffffffffffffffffffffffffffffffffffffffff16311115612100576000809054906101000a900473ffffffffffffffffffffffffffffffffffffffff1673ffffffffffffffffffffffffffffffffffffffff166108fc3073ffffffffffffffffffffffffffffffffffffffff16319081150290604051600060405180830381858888f193505050501580156120fe573d6000803e3d6000fd5b505b600073ffffffffffffffffffffffffffffffffffffffff168173ffffffffffffffffffffffffffffffffffffffff16141515612316578073ffffffffffffffffffffffffffffffffffffffff1663a9059cbb6000809054906101000a900473ffffffffffffffffffffffffffffffffffffffff168373ffffffffffffffffffffffffffffffffffffffff166370a08231306040518263ffffffff167c0100000000000000000000000000000000000000000000000000000000028152600401808273ffffffffffffffffffffffffffffffffffffffff1673ffffffffffffffffffffffffffffffffffffffff168152602001915050602060405180830381600087803b15801561220f57600080fd5b505af1158015612223573d6000803e3d6000fd5b505050506040513d602081101561223957600080fd5b81019080805190602001909291905050506040518363ffffffff167c0100000000000000000000000000000000000000000000000000000000028152600401808373ffffffffffffffffffffffffffffffffffffffff1673ffffffffffffffffffffffffffffffffffffffff16815260200182815260200192505050602060405180830381600087803b1580156122cf57600080fd5b505af11580156122e3573d6000803e3d6000fd5b505050506040513d60208110156122f957600080fd5b8101908080519060200190929190505050151561231557600080fd5b5b50565b6000809054906101000a900473ffffffffffffffffffffffffffffffffffffffff1673ffffffffffffffffffffffffffffffffffffffff163373ffffffffffffffffffffffffffffffffffffffff1614151561237457600080fd5b80600160006101000a81548173ffffffffffffffffffffffffffffffffffffffff021916908373ffffffffffffffffffffffffffffffffffffffff16021790555050565b600080600160009054906101000a900473ffffffffffffffffffffffffffffffffffffffff1673ffffffffffffffffffffffffffffffffffffffff1663bd02d0f58460405160200180828152602001807f4a4f425f53544154555300000000000000000000000000000000000000000000815250600a019150506040516020818303038152906040526040518082805190602001908083835b6020831015156124765780518252602082019150602081019050602083039250612451565b6001836020036101000a03801982511681845116808217855250505050505090500191505060405180910390206040518263ffffffff167c0100000000000000000000000000000000000000000000000000000000028152600401808260001916600019168152602001915050602060405180830381600087803b1580156124fd57600080fd5b505af1158015612511573d6000803e3d6000fd5b505050506040513d602081101561252757600080fd5b810190808051906020019092919050505014159050919050565b60008273ffffffffffffffffffffffffffffffffffffffff16600160009054906101000a900473ffffffffffffffffffffffffffffffffffffffff1673ffffffffffffffffffffffffffffffffffffffff166321f8a7216125a1856140f3565b6040518263ffffffff167c0100000000000000000000000000000000000000000000000000000000028152600401808260001916600019168152602001915050602060405180830381600087803b1580156125fb57600080fd5b505af115801561260f573d6000803e3d6000fd5b505050506040513d602081101561262557600080fd5b810190808051906020019092919050505073ffffffffffffffffffffffffffffffffffffffff1614905092915050565b600080600080600080600080600080600080600160009054906101000a900473ffffffffffffffffffffffffffffffffffffffff1673ffffffffffffffffffffffffffffffffffffffff166321f8a7216126ae8f6140f3565b6040518263ffffffff167c0100000000000000000000000000000000000000000000000000000000028152600401808260001916600019168152602001915050602060405180830381600087803b15801561270857600080fd5b505af115801561271c573d6000803e3d6000fd5b505050506040513d602081101561273257600080fd5b81019080805190602001909291905050509550600160009054906101000a900473ffffffffffffffffffffffffffffffffffffffff1673ffffffffffffffffffffffffffffffffffffffff1663bd02d0f56127c28f6040805190810160405280600b81526020017f4a4f425f4558504952454400000000000000000000000000000000000000000081525061417e565b6040518263ffffffff167c0100000000000000000000000000000000000000000000000000000000028152600401808260001916600019168152602001915050602060405180830381600087803b15801561281c57600080fd5b505af1158015612830573d6000803e3d6000fd5b505050506040513d602081101561284657600080fd5b81019080805190602001909291905050509450600160009054906101000a900473ffffffffffffffffffffffffffffffffffffffff1673ffffffffffffffffffffffffffffffffffffffff1663bd02d0f56128d68f6040805190810160405280600a81526020017f4a4f425f4255444745540000000000000000000000000000000000000000000081525061417e565b6040518263ffffffff167c0100000000000000000000000000000000000000000000000000000000028152600401808260001916600019168152602001915050602060405180830381600087803b15801561293057600080fd5b505af1158015612944573d6000803e3d6000fd5b505050506040513d602081101561295a57600080fd5b81019080805190602001909291905050509350600160009054906101000a900473ffffffffffffffffffffffffffffffffffffffff1673ffffffffffffffffffffffffffffffffffffffff16637ae1cfca6129ea8f6040805190810160405280600a81526020017f4a4f425f43414e43454c0000000000000000000000000000000000000000000081525061417e565b6040518263ffffffff167c0100000000000000000000000000000000000000000000000000000000028152600401808260001916600019168152602001915050602060405180830381600087803b158015612a4457600080fd5b505af1158015612a58573d6000803e3d6000fd5b505050506040513d6020811015612a6e57600080fd5b81019080805190602001909291905050509250600160009054906101000a900473ffffffffffffffffffffffffffffffffffffffff1673ffffffffffffffffffffffffffffffffffffffff1663bd02d0f5612afe8f6040805190810160405280600a81526020017f4a4f425f5354415455530000000000000000000000000000000000000000000081525061417e565b6040518263ffffffff167c0100000000000000000000000000000000000000000000000000000000028152600401808260001916600019168152602001915050602060405180830381600087803b158015612b5857600080fd5b505af1158015612b6c573d6000803e3d6000fd5b505050506040513d6020811015612b8257600080fd5b81019080805190602001909291905050509150600160009054906101000a900473ffffffffffffffffffffffffffffffffffffffff1673ffffffffffffffffffffffffffffffffffffffff166321f8a721612c128f6040805190810160405280600a81526020017f465245454c414e4345520000000000000000000000000000000000000000000081525061417e565b6040518263ffffffff167c0100000000000000000000000000000000000000000000000000000000028152600401808260001916600019168152602001915050602060405180830381600087803b158015612c6c57600080fd5b505af1158015612c80573d6000803e3d6000fd5b505050506040513d6020811015612c9657600080fd5b810190808051906020019092919050505090508585858585859b509b509b509b509b509b5050505050505091939550919395565b6000856000600160009054906101000a900473ffffffffffffffffffffffffffffffffffffffff1673ffffffffffffffffffffffffffffffffffffffff166321f8a721836040518082805190602001908083835b602083101515612d435780518252602082019150602081019050602083039250612d1e565b6001836020036101000a03801982511681845116808217855250505050505090500191505060405180910390206040518263ffffffff167c0100000000000000000000000000000000000000000000000000000000028152600401808260001916600019168152602001915050602060405180830381600087803b158015612dca57600080fd5b505af1158015612dde573d6000803e3d6000fd5b505050506040513d6020811015612df457600080fd5b810190808051906020019092919050505073ffffffffffffffffffffffffffffffffffffffff16141515612e2757600080fd5b60008751111515612e3757600080fd5b4286111515612e4557600080fd5b600084111515612e5457600080fd5b600085111515612e6357600080fd5b600160009054906101000a900473ffffffffffffffffffffffffffffffffffffffff1673ffffffffffffffffffffffffffffffffffffffff1663bd02d0f5612edf6040805190810160405280600681526020017f4a4f425f494400000000000000000000000000000000000000000000000000008152506144b2565b6040518263ffffffff167c0100000000000000000000000000000000000000000000000000000000028152600401808260001916600019168152602001915050602060405180830381600087803b158015612f3957600080fd5b505af1158015612f4d573d6000803e3d6000fd5b505050506040513d6020811015612f6357600080fd5b810190808051906020019092919050505091508180600101925050600160009054906101000a900473ffffffffffffffffffffffffffffffffffffffff1673ffffffffffffffffffffffffffffffffffffffff1663ca446dd9612fc5846140f3565b336040518363ffffffff167c01000000000000000000000000000000000000000000000000000000000281526004018083600019166000191681526020018273ffffffffffffffffffffffffffffffffffffffff1673ffffffffffffffffffffffffffffffffffffffff16815260200192505050600060405180830381600087803b15801561305357600080fd5b505af1158015613067573d6000803e3d6000fd5b50505050600160009054906101000a900473ffffffffffffffffffffffffffffffffffffffff1673ffffffffffffffffffffffffffffffffffffffff1663e2a4853a6130e8846040805190810160405280600b81526020017f4a4f425f4558504952454400000000000000000000000000000000000000000081525061417e565b886040518363ffffffff167c010000000000000000000000000000000000000000000000000000000002815260040180836000191660001916815260200182815260200192505050600060405180830381600087803b15801561314a57600080fd5b505af115801561315e573d6000803e3d6000fd5b50505050600160009054906101000a900473ffffffffffffffffffffffffffffffffffffffff1673ffffffffffffffffffffffffffffffffffffffff1663e2a4853a6131de6040805190810160405280600681526020017f4a4f425f494400000000000000000000000000000000000000000000000000008152506144b2565b846040518363ffffffff167c010000000000000000000000000000000000000000000000000000000002815260040180836000191660001916815260200182815260200192505050600060405180830381600087803b15801561324057600080fd5b505af1158015613254573d6000803e3d6000fd5b50505050600160009054906101000a900473ffffffffffffffffffffffffffffffffffffffff1673ffffffffffffffffffffffffffffffffffffffff1663e2a4853a6132d5896040805190810160405280600881526020017f4a4f425f48415348000000000000000000000000000000000000000000000000815250614384565b846040518363ffffffff167c010000000000000000000000000000000000000000000000000000000002815260040180836000191660001916815260200182815260200192505050600060405180830381600087803b15801561333757600080fd5b505af115801561334b573d6000803e3d6000fd5b50505050600160009054906101000a900473ffffffffffffffffffffffffffffffffffffffff1673ffffffffffffffffffffffffffffffffffffffff1663e2a4853a6133cc846040805190810160405280601181526020017f4a4f425f455354494d4154455f54494d4500000000000000000000000000000081525061417e565b876040518363ffffffff167c010000000000000000000000000000000000000000000000000000000002815260040180836000191660001916815260200182815260200192505050600060405180830381600087803b15801561342e57600080fd5b505af1158015613442573d6000803e3d6000fd5b50505050600160009054906101000a900473ffffffffffffffffffffffffffffffffffffffff1673ffffffffffffffffffffffffffffffffffffffff1663e2a4853a6134c3846040805190810160405280600a81526020017f4a4f425f4255444745540000000000000000000000000000000000000000000081525061417e565b866040518363ffffffff167c010000000000000000000000000000000000000000000000000000000002815260040180836000191660001916815260200182815260200192505050600060405180830381600087803b15801561352557600080fd5b505af1158015613539573d6000803e3d6000fd5b5050505082600019163373ffffffffffffffffffffffffffffffffffffffff16837f5ad21fac73b353434bdc18fb303e9da2d53a9950e78b8273bb55e21e6a3a84c28a8a898b6040518080602001858152602001848152602001838152602001828103825286818151815260200191508051906020019080838360005b838110156135d15780820151818401526020810190506135b6565b50505050905090810190601f1680156135fe5780820380516001836020036101000a031916815260200191505b509550505050505060405180910390a450505050505050565b6000600160009054906101000a900473ffffffffffffffffffffffffffffffffffffffff1673ffffffffffffffffffffffffffffffffffffffff1663bd02d0f58360405160200180828152602001807f4a4f425f45585049524544000000000000000000000000000000000000000000815250600b019150506040516020818303038152906040526040518082805190602001908083835b6020831015156136d457805182526020820191506020810190506020830392506136af565b6001836020036101000a03801982511681845116808217855250505050505090500191505060405180910390206040518263ffffffff167c0100000000000000000000000000000000000000000000000000000000028152600401808260001916600019168152602001915050602060405180830381600087803b15801561375b57600080fd5b505af115801561376f573d6000803e3d6000fd5b505050506040513d602081101561378557600080fd5b810190808051906020019092919050505042119050919050565b8060011515600160009054906101000a900473ffffffffffffffffffffffffffffffffffffffff1673ffffffffffffffffffffffffffffffffffffffff16637ae1cfca8360405160200180828152602001807f4a4f425f43414e43454c00000000000000000000000000000000000000000000815250600a019150506040516020818303038152906040526040518082805190602001908083835b60208310151561385f578051825260208201915060208101905060208303925061383a565b6001836020036101000a03801982511681845116808217855250505050505090500191505060405180910390206040518263ffffffff167c0100000000000000000000000000000000000000000000000000000000028152600401808260001916600019168152602001915050602060405180830381600087803b1580156138e657600080fd5b505af11580156138fa573d6000803e3d6000fd5b505050506040513d602081101561391057600080fd5b810190808051906020019092919050505015151415151561393057600080fd5b816000600160009054906101000a900473ffffffffffffffffffffffffffffffffffffffff1673ffffffffffffffffffffffffffffffffffffffff1663bd02d0f58360405160200180828152602001807f4a4f425f53544154555300000000000000000000000000000000000000000000815250600a019150506040516020818303038152906040526040518082805190602001908083835b6020831015156139ee57805182526020820191506020810190506020830392506139c9565b6001836020036101000a03801982511681845116808217855250505050505090500191505060405180910390206040518263ffffffff167c0100000000000000000000000000000000000000000000000000000000028152600401808260001916600019168152602001915050602060405180830381600087803b158015613a7557600080fd5b505af1158015613a89573d6000803e3d6000fd5b505050506040513d6020811015613a9f57600080fd5b8101908080519060200190929190505050141515613abc57600080fd5b823373ffffffffffffffffffffffffffffffffffffffff16600160009054906101000a900473ffffffffffffffffffffffffffffffffffffffff1673ffffffffffffffffffffffffffffffffffffffff166321f8a7218360405160200180828152602001807f465245454c414e43455200000000000000000000000000000000000000000000815250600a019150506040516020818303038152906040526040518082805190602001908083835b602083101515613b8f5780518252602082019150602081019050602083039250613b6a565b6001836020036101000a03801982511681845116808217855250505050505090500191505060405180910390206040518263ffffffff167c0100000000000000000000000000000000000000000000000000000000028152600401808260001916600019168152602001915050602060405180830381600087803b158015613c1657600080fd5b505af1158015613c2a573d6000803e3d6000fd5b505050506040513d6020811015613c4057600080fd5b810190808051906020019092919050505073ffffffffffffffffffffffffffffffffffffffff16141515613c7357600080fd5b600160009054906101000a900473ffffffffffffffffffffffffffffffffffffffff1673ffffffffffffffffffffffffffffffffffffffff1663e2a4853a613cf0866040805190810160405280600a81526020017f4a4f425f5354415455530000000000000000000000000000000000000000000081525061417e565b60016040518363ffffffff167c010000000000000000000000000000000000000000000000000000000002815260040180836000191660001916815260200182815260200192505050600060405180830381600087803b158015613d5357600080fd5b505af1158015613d67573d6000803e3d6000fd5b50505050600160009054906101000a900473ffffffffffffffffffffffffffffffffffffffff1673ffffffffffffffffffffffffffffffffffffffff1663e2a4853a613de8866040805190810160405280601581526020017f4a4f425f535441525445445f54494d455354414d50000000000000000000000081525061417e565b426040518363ffffffff167c010000000000000000000000000000000000000000000000000000000002815260040180836000191660001916815260200182815260200192505050600060405180830381600087803b158015613e4a57600080fd5b505af1158015613e5e573d6000803e3d6000fd5b50505050837f7e2409eb03fe1e2ea93add34ad736f8cddc41ffdc3c5875587b3e40ab490996a60405160405180910390a250505050565b600080600160009054906101000a900473ffffffffffffffffffffffffffffffffffffffff1673ffffffffffffffffffffffffffffffffffffffff166321f8a7218460405160200180828152602001807f465245454c414e43455200000000000000000000000000000000000000000000815250600a019150506040516020818303038152906040526040518082805190602001908083835b602083101515613f535780518252602082019150602081019050602083039250613f2e565b6001836020036101000a03801982511681845116808217855250505050505090500191505060405180910390206040518263ffffffff167c0100000000000000000000000000000000000000000000000000000000028152600401808260001916600019168152602001915050602060405180830381600087803b158015613fda57600080fd5b505af1158015613fee573d6000803e3d6000fd5b505050506040513d602081101561400457600080fd5b810190808051906020019092919050505073ffffffffffffffffffffffffffffffffffffffff1614159050919050565b600073ffffffffffffffffffffffffffffffffffffffff166000809054906101000a900473ffffffffffffffffffffffffffffffffffffffff1673ffffffffffffffffffffffffffffffffffffffff161415156140e7576000809054906101000a900473ffffffffffffffffffffffffffffffffffffffff1673ffffffffffffffffffffffffffffffffffffffff163373ffffffffffffffffffffffffffffffffffffffff161415156140e657600080fd5b5b6140f08161458a565b50565b600081604051602001808281526020019150506040516020818303038152906040526040518082805190602001908083835b60208310151561414a5780518252602082019150602081019050602083039250614125565b6001836020036101000a03801982511681845116808217855250505050505090500191505060405180910390209050919050565b600082826040516020018083815260200182805190602001908083835b6020831015156141c0578051825260208201915060208101905060208303925061419b565b6001836020036101000a038019825116818451168082178552505050505050905001925050506040516020818303038152906040526040518082805190602001908083835b60208310151561422a5780518252602082019150602081019050602083039250614205565b6001836020036101000a0380198251168184511680821785525050505050509050019150506040518091039020905092915050565b60008383836040516020018084815260200183805190602001908083835b6020831015156142a2578051825260208201915060208101905060208303925061427d565b6001836020036101000a0380198251168184511680821785525050505050509050018273ffffffffffffffffffffffffffffffffffffffff1673ffffffffffffffffffffffffffffffffffffffff166c0100000000000000000000000002815260140193505050506040516020818303038152906040526040518082805190602001908083835b60208310151561434e5780518252602082019150602081019050602083039250614329565b6001836020036101000a038019825116818451168082178552505050505050905001915050604051809103902090509392505050565b600082826040516020018083805190602001908083835b6020831015156143c0578051825260208201915060208101905060208303925061439b565b6001836020036101000a03801982511681845116808217855250505050505090500182805190602001908083835b60208310151561441357805182526020820191506020810190506020830392506143ee565b6001836020036101000a038019825116818451168082178552505050505050905001925050506040516020818303038152906040526040518082805190602001908083835b60208310151561447d5780518252602082019150602081019050602083039250614458565b6001836020036101000a0380198251168184511680821785525050505050509050019150506040518091039020905092915050565b6000816040516020018082805190602001908083835b6020831015156144ed57805182526020820191506020810190506020830392506144c8565b6001836020036101000a0380198251168184511680821785525050505050509050019150506040516020818303038152906040526040518082805190602001908083835b6020831015156145565780518252602082019150602081019050602083039250614531565b6001836020036101000a03801982511681845116808217855250505050505090500191505060405180910390209050919050565b600073ffffffffffffffffffffffffffffffffffffffff168173ffffffffffffffffffffffffffffffffffffffff16141515156145c657600080fd5b8073ffffffffffffffffffffffffffffffffffffffff166000809054906101000a900473ffffffffffffffffffffffffffffffffffffffff1673ffffffffffffffffffffffffffffffffffffffff167f8be0079c531659141344cd1fd0a4f28419497f9722a3daafe3b4186f6b6457e060405160405180910390a3806000806101000a81548173ffffffffffffffffffffffffffffffffffffffff021916908373ffffffffffffffffffffffffffffffffffffffff160217905550505600a165627a7a7230582068150190a24fc05de5664b0a079cf2cf9fa87c95199623d6011f62c1a940e6550029",
  "source": "/**\n * Created on 2018-08-13 10:31\n * @summary: \n * @author: Chris Nguyen\n */\npragma solidity ^0.4.24;\nimport './BBFreelancer.sol';\nimport './BBFreelancerPayment.sol';\nimport './BBLib.sol';\n\n\n/**\n * @title BBFreelancerJob\n */\ncontract BBFreelancerJob is BBFreelancer {\n   BBFreelancerPayment public payment = BBFreelancerPayment(0x0);\n\n  /**\n   * @dev \n   * @param paymentAddress address of the Payment Contract\n   */\n  function setPaymentContract(address paymentAddress) onlyOwner public {\n    payment = BBFreelancerPayment(paymentAddress);\n  }\n\n  event JobCreated(bytes jobHash, uint256 indexed jobID, address indexed owner, uint expired, bytes32 indexed category, uint256  budget, uint256 estimateTime);\n  event JobCanceled(uint256 indexed jobID);\n  event JobStarted(uint256 indexed jobID);\n  event JobFinished(uint256 indexed jobID);\n\n  /**\n   * @dev \n   * @param jobID Job ID\n   */\n  function getJob(uint256 jobID) public view returns(address, uint256, uint256, bool, uint256, address){\n    address owner = bbs.getAddress(BBLib.toB32(jobID));\n    uint256 expired = bbs.getUint(BBLib.toB32(jobID, 'JOB_EXPIRED'));\n    uint256 budget = bbs.getUint(BBLib.toB32(jobID, 'JOB_BUDGET'));\n    bool cancel = bbs.getBool(BBLib.toB32(jobID, 'JOB_CANCEL'));\n    uint256 status = bbs.getUint(BBLib.toB32(jobID, 'JOB_STATUS'));\n    address freelancer = bbs.getAddress(BBLib.toB32(jobID, 'FREELANCER'));\n    return (owner, expired, budget, cancel, status, freelancer);\n\n  }\n\n\n  /**\n   * @dev \n   * @param jobHash Job Hash\n   * @param expired Time\n   * @param estimateTime Time do the job\n   * @param budget Buget\n   * @param category Tag category\n   */\n  function createJob(bytes jobHash, uint expired ,uint estimateTime, uint256 budget, bytes32 category) public \n  jobNotExist(jobHash)\n  {\n    // check jobHash not null\n    require(jobHash.length > 0);\n    // expired > now\n    require(expired > now);\n    // budget\n    require(budget > 0);\n\n    require(estimateTime > 0);\n\n    //Save jobHash by jobID\n    uint256 jobID = bbs.getUint(BBLib.toB32('JOB_ID'));\n    jobID++;\n    // save jobHash owner\n    bbs.setAddress(BBLib.toB32(jobID), msg.sender);\n\n    // save expired timestamp\n    bbs.setUint(BBLib.toB32(jobID, 'JOB_EXPIRED'), expired);\n    \n    bbs.setUint(BBLib.toB32('JOB_ID'),jobID);\n    //mapping jobHash with jobID\n    bbs.setUint(BBLib.toB32(jobHash,'JOB_HASH'), jobID);\n    // save time freelancer can done this job\n    bbs.setUint(BBLib.toB32(jobID, 'JOB_ESTIMATE_TIME'), estimateTime);\n    // save budget \n    bbs.setUint(BBLib.toB32(jobID, 'JOB_BUDGET'), budget);\n \n    emit JobCreated(jobHash, jobID, msg.sender, expired, category, budget, estimateTime);\n  }\n    // hirer  cancel job\n  /**\n   * @dev \n   * @param jobID Job ID\n   */\n  function cancelJob(uint256 jobID) public \n  isOwnerJob(jobID)  {\n\n    uint status = bbs.getUint(BBLib.toB32(jobID,'JOB_STATUS'));\n    require(status == 0 || status == 1);\n    if(status == 1) {\n      address freelancer = bbs.getAddress(BBLib.toB32(jobID, 'FREELANCER'));\n      uint bidTime = bbs.getUint(BBLib.toB32(jobID, 'BID_TIME', freelancer));\n      uint timeStartJob = bbs.getUint(BBLib.toB32(jobID, 'JOB_STARTED_TIMESTAMP'));\n      require(now > timeStartJob + bidTime);\n    }\n    bbs.setBool(BBLib.toB32(jobID,'JOB_CANCEL'), true);\n    require(payment.refundBBO(jobID));\n    emit JobCanceled(jobID);\n  }\n  // freelancer start Job\n  /**\n   * @dev \n   * @param jobID Job ID\n   */\n  function startJob(uint256 jobID) public \n  isNotCanceled(jobID)\n  jobNotStarted(jobID)\n  isFreelancerOfJob(jobID) {\n    // set status to 1\n    bbs.setUint(BBLib.toB32(jobID,'JOB_STATUS'), 1);\n    //Begin set time start job\n    bbs.setUint(BBLib.toB32(jobID,'JOB_STARTED_TIMESTAMP'), now);\n    \n    emit JobStarted(jobID);\n  }\n  // freelancer finish Job\n  /**\n   * @dev \n   * @param jobID Job ID\n   */\n  function finishJob(uint256 jobID) public \n  isNotOwnerJob(jobID) \n  isFreelancerOfJob(jobID) {\n    //status el 1\n    require(bbs.getUint(BBLib.toB32(jobID,'JOB_STATUS')) ==1);\n\n    bbs.setUint(BBLib.toB32(jobID,'JOB_STATUS'), 2);\n    bbs.setUint(BBLib.toB32(jobID,'JOB_FINISHED_TIMESTAMP'), now);\n    emit JobFinished(jobID);\n  }\n\n  function getJobID(bytes jobHash) public view returns(uint256){\n      return bbs.getUint(BBLib.toB32(jobHash,'JOB_HASH'));\n  }\n\n\n  function allowRating(address sender ,address  rateTo, uint256 jobID) public view returns(bool) {\n    address jobOwner = bbs.getAddress(BBLib.toB32(jobID));\n    address freelancer = bbs.getAddress(BBLib.toB32(jobID, 'FREELANCER'));\n    if(sender != jobOwner && sender != freelancer) {\n      return false;\n    }\n    if(rateTo != jobOwner && rateTo != freelancer) {\n       return false;\n    }\n    if(sender == rateTo) {\n      return false;\n    }\n    uint256 jobStatus = bbs.getUint(BBLib.toB32(jobID ,'JOB_STATUS'));\n    if(jobStatus != 5 && jobStatus != 9) {\n       return false;\n    }\n    return true;\n  }\n\n}\n",
  "sourcePath": "/Users/yena/Documents/tuongnguyen/bigbom-digital-contract/src/contracts/BBFreelancerJob.sol",
  "compiler": {
    "name": "solc",
    "version": "0.4.24+commit.e67f0147.Emscripten.clang"
  },
  "schemaVersion": "2.0.1",
  "updatedAt": "2018-11-22T03:07:52.513Z"
}