{
  "contractName": "BBFreelancerPayment",
  "abi": [
    {
      "constant": true,
      "inputs": [],
      "name": "bbo",
      "outputs": [
        {
          "name": "",
          "type": "address"
        }
      ],
      "payable": false,
      "stateMutability": "view",
      "type": "function"
    },
    {
      "constant": true,
      "inputs": [],
      "name": "bbs",
      "outputs": [
        {
          "name": "",
          "type": "address"
        }
      ],
      "payable": false,
      "stateMutability": "view",
      "type": "function"
    },
    {
      "constant": false,
      "inputs": [],
      "name": "renounceOwnership",
      "outputs": [],
      "payable": false,
      "stateMutability": "nonpayable",
      "type": "function"
    },
    {
      "constant": false,
      "inputs": [
        {
          "name": "BBOAddress",
          "type": "address"
        }
      ],
      "name": "setBBO",
      "outputs": [],
      "payable": false,
      "stateMutability": "nonpayable",
      "type": "function"
    },
    {
      "constant": true,
      "inputs": [
        {
          "name": "jobID",
          "type": "uint256"
        }
      ],
      "name": "isJobCancel",
      "outputs": [
        {
          "name": "",
          "type": "bool"
        }
      ],
      "payable": false,
      "stateMutability": "view",
      "type": "function"
    },
    {
      "constant": true,
      "inputs": [],
      "name": "owner",
      "outputs": [
        {
          "name": "",
          "type": "address"
        }
      ],
      "payable": false,
      "stateMutability": "view",
      "type": "function"
    },
    {
      "constant": false,
      "inputs": [
        {
          "name": "anyToken",
          "type": "address"
        }
      ],
      "name": "emergencyERC20Drain",
      "outputs": [],
      "payable": false,
      "stateMutability": "nonpayable",
      "type": "function"
    },
    {
      "constant": false,
      "inputs": [
        {
          "name": "storageAddress",
          "type": "address"
        }
      ],
      "name": "setStorage",
      "outputs": [],
      "payable": false,
      "stateMutability": "nonpayable",
      "type": "function"
    },
    {
      "constant": true,
      "inputs": [
        {
          "name": "jobID",
          "type": "uint256"
        }
      ],
      "name": "isJobStart",
      "outputs": [
        {
          "name": "",
          "type": "bool"
        }
      ],
      "payable": false,
      "stateMutability": "view",
      "type": "function"
    },
    {
      "constant": true,
      "inputs": [
        {
          "name": "sender",
          "type": "address"
        },
        {
          "name": "jobID",
          "type": "uint256"
        }
      ],
      "name": "isOwnerOfJob",
      "outputs": [
        {
          "name": "",
          "type": "bool"
        }
      ],
      "payable": false,
      "stateMutability": "view",
      "type": "function"
    },
    {
      "constant": true,
      "inputs": [
        {
          "name": "jobID",
          "type": "uint256"
        }
      ],
      "name": "isJobExpired",
      "outputs": [
        {
          "name": "",
          "type": "bool"
        }
      ],
      "payable": false,
      "stateMutability": "view",
      "type": "function"
    },
    {
      "constant": true,
      "inputs": [
        {
          "name": "jobID",
          "type": "uint256"
        }
      ],
      "name": "isJobHasFreelancer",
      "outputs": [
        {
          "name": "",
          "type": "bool"
        }
      ],
      "payable": false,
      "stateMutability": "view",
      "type": "function"
    },
    {
      "constant": false,
      "inputs": [
        {
          "name": "_newOwner",
          "type": "address"
        }
      ],
      "name": "transferOwnership",
      "outputs": [],
      "payable": false,
      "stateMutability": "nonpayable",
      "type": "function"
    },
    {
      "anonymous": false,
      "inputs": [
        {
          "indexed": false,
          "name": "jobID",
          "type": "uint256"
        },
        {
          "indexed": true,
          "name": "sender",
          "type": "address"
        }
      ],
      "name": "PaymentClaimed",
      "type": "event"
    },
    {
      "anonymous": false,
      "inputs": [
        {
          "indexed": false,
          "name": "jobID",
          "type": "uint256"
        },
        {
          "indexed": true,
          "name": "sender",
          "type": "address"
        }
      ],
      "name": "PaymentAccepted",
      "type": "event"
    },
    {
      "anonymous": false,
      "inputs": [
        {
          "indexed": false,
          "name": "jobID",
          "type": "uint256"
        },
        {
          "indexed": true,
          "name": "sender",
          "type": "address"
        },
        {
          "indexed": false,
          "name": "reason",
          "type": "uint256"
        },
        {
          "indexed": false,
          "name": "rejectedTimestamp",
          "type": "uint256"
        }
      ],
      "name": "PaymentRejected",
      "type": "event"
    },
    {
      "anonymous": false,
      "inputs": [
        {
          "indexed": false,
          "name": "jobID",
          "type": "uint256"
        },
        {
          "indexed": true,
          "name": "winner",
          "type": "address"
        }
      ],
      "name": "DisputeFinalized",
      "type": "event"
    },
    {
      "anonymous": false,
      "inputs": [
        {
          "indexed": true,
          "name": "previousOwner",
          "type": "address"
        }
      ],
      "name": "OwnershipRenounced",
      "type": "event"
    },
    {
      "anonymous": false,
      "inputs": [
        {
          "indexed": true,
          "name": "previousOwner",
          "type": "address"
        },
        {
          "indexed": true,
          "name": "newOwner",
          "type": "address"
        }
      ],
      "name": "OwnershipTransferred",
      "type": "event"
    },
    {
      "constant": false,
      "inputs": [
        {
          "name": "jobID",
          "type": "uint256"
        }
      ],
      "name": "acceptPayment",
      "outputs": [],
      "payable": false,
      "stateMutability": "nonpayable",
      "type": "function"
    },
    {
      "constant": false,
      "inputs": [
        {
          "name": "jobID",
          "type": "uint256"
        },
        {
          "name": "reason",
          "type": "uint256"
        }
      ],
      "name": "rejectPayment",
      "outputs": [],
      "payable": false,
      "stateMutability": "nonpayable",
      "type": "function"
    },
    {
      "constant": false,
      "inputs": [
        {
          "name": "jobID",
          "type": "uint256"
        }
      ],
      "name": "claimePayment",
      "outputs": [],
      "payable": false,
      "stateMutability": "nonpayable",
      "type": "function"
    },
    {
      "constant": true,
      "inputs": [
        {
          "name": "jobID",
          "type": "uint256"
        }
      ],
      "name": "checkPayment",
      "outputs": [
        {
          "name": "",
          "type": "uint256"
        },
        {
          "name": "",
          "type": "uint256"
        }
      ],
      "payable": false,
      "stateMutability": "view",
      "type": "function"
    },
    {
      "constant": false,
      "inputs": [
        {
          "name": "jobID",
          "type": "uint256"
        }
      ],
      "name": "refundBBO",
      "outputs": [
        {
          "name": "",
          "type": "bool"
        }
      ],
      "payable": false,
      "stateMutability": "nonpayable",
      "type": "function"
    },
    {
      "constant": false,
      "inputs": [
        {
          "name": "jobID",
          "type": "uint256"
        }
      ],
      "name": "finalizeDispute",
      "outputs": [
        {
          "name": "",
          "type": "bool"
        }
      ],
      "payable": false,
      "stateMutability": "nonpayable",
      "type": "function"
    }
  ],
  "bytecode": "0x60806040526000600160006101000a81548173ffffffffffffffffffffffffffffffffffffffff021916908373ffffffffffffffffffffffffffffffffffffffff1602179055506000600260006101000a81548173ffffffffffffffffffffffffffffffffffffffff021916908373ffffffffffffffffffffffffffffffffffffffff160217905550336000806101000a81548173ffffffffffffffffffffffffffffffffffffffff021916908373ffffffffffffffffffffffffffffffffffffffff160217905550614723806100d76000396000f300608060405260043610610107576000357c0100000000000000000000000000000000000000000000000000000000900463ffffffff1680631e89bf061461010c5780631fde23a41461016357806356989a83146101ba578063715018a6146101ff5780637937f46d146102165780637d716f1d146102595780638b01bcc31461029e5780638da5cb5b146102e357806390e8d82f1461033a5780639137c1a71461037d578063a110f23a146103c0578063b191f79d146103f7578063b8edcd1f1461043c578063bf846e04146104a1578063c710e18c146104ce578063cbf3ff67146104fb578063dad788d914610543578063ebe5f59014610588578063f2fde38b146105cd575b600080fd5b34801561011857600080fd5b50610121610610565b604051808273ffffffffffffffffffffffffffffffffffffffff1673ffffffffffffffffffffffffffffffffffffffff16815260200191505060405180910390f35b34801561016f57600080fd5b50610178610636565b604051808273ffffffffffffffffffffffffffffffffffffffff1673ffffffffffffffffffffffffffffffffffffffff16815260200191505060405180910390f35b3480156101c657600080fd5b506101e56004803603810190808035906020019092919050505061065c565b604051808215151515815260200191505060405180910390f35b34801561020b57600080fd5b50610214610f7c565b005b34801561022257600080fd5b50610257600480360381019080803573ffffffffffffffffffffffffffffffffffffffff16906020019092919050505061107e565b005b34801561026557600080fd5b506102846004803603810190808035906020019092919050505061111d565b604051808215151515815260200191505060405180910390f35b3480156102aa57600080fd5b506102c960048036038101908080359060200190929190505050611a8c565b604051808215151515815260200191505060405180910390f35b3480156102ef57600080fd5b506102f8611c12565b604051808273ffffffffffffffffffffffffffffffffffffffff1673ffffffffffffffffffffffffffffffffffffffff16815260200191505060405180910390f35b34801561034657600080fd5b5061037b600480360381019080803573ffffffffffffffffffffffffffffffffffffffff169060200190929190505050611c37565b005b34801561038957600080fd5b506103be600480360381019080803573ffffffffffffffffffffffffffffffffffffffff169060200190929190505050611f4b565b005b3480156103cc57600080fd5b506103f56004803603810190808035906020019092919080359060200190929190505050611fea565b005b34801561040357600080fd5b5061042260048036038101908080359060200190929190505050612698565b604051808215151515815260200191505060405180910390f35b34801561044857600080fd5b50610487600480360381019080803573ffffffffffffffffffffffffffffffffffffffff16906020019092919080359060200190929190505050612821565b604051808215151515815260200191505060405180910390f35b3480156104ad57600080fd5b506104cc60048036038101908080359060200190929190505050612935565b005b3480156104da57600080fd5b506104f960048036038101908080359060200190929190505050612fcf565b005b34801561050757600080fd5b5061052660048036038101908080359060200190929190505050613b40565b604051808381526020018281526020019250505060405180910390f35b34801561054f57600080fd5b5061056e60048036038101908080359060200190929190505050613e9b565b604051808215151515815260200191505060405180910390f35b34801561059457600080fd5b506105b360048036038101908080359060200190929190505050614023565b604051808215151515815260200191505060405180910390f35b3480156105d957600080fd5b5061060e600480360381019080803573ffffffffffffffffffffffffffffffffffffffff1690602001909291905050506141c2565b005b600260009054906101000a900473ffffffffffffffffffffffffffffffffffffffff1681565b600160009054906101000a900473ffffffffffffffffffffffffffffffffffffffff1681565b600080600080600080600160009054906101000a900473ffffffffffffffffffffffffffffffffffffffff1673ffffffffffffffffffffffffffffffffffffffff166321f8a7216106ac89614281565b6040518263ffffffff167c0100000000000000000000000000000000000000000000000000000000028152600401808260001916600019168152602001915050602060405180830381600087803b15801561070657600080fd5b505af115801561071a573d6000803e3d6000fd5b505050506040513d602081101561073057600080fd5b810190808051906020019092919050505073ffffffffffffffffffffffffffffffffffffffff161415151561076457600080fd5b60011515600160009054906101000a900473ffffffffffffffffffffffffffffffffffffffff1673ffffffffffffffffffffffffffffffffffffffff16637ae1cfca6107e5896040805190810160405280601181526020017f5041594d454e545f46494e414c495a454400000000000000000000000000000081525061430c565b6040518263ffffffff167c0100000000000000000000000000000000000000000000000000000000028152600401808260001916600019168152602001915050602060405180830381600087803b15801561083f57600080fd5b505af1158015610853573d6000803e3d6000fd5b505050506040513d602081101561086957600080fd5b810190808051906020019092919050505015151415151561088957600080fd5b600160009054906101000a900473ffffffffffffffffffffffffffffffffffffffff1673ffffffffffffffffffffffffffffffffffffffff166321f8a721610906886040805190810160405280600e81526020017f444953505554455f57494e4e455200000000000000000000000000000000000081525061430c565b6040518263ffffffff167c0100000000000000000000000000000000000000000000000000000000028152600401808260001916600019168152602001915050602060405180830381600087803b15801561096057600080fd5b505af1158015610974573d6000803e3d6000fd5b505050506040513d602081101561098a57600080fd5b81019080805190602001909291905050509350600073ffffffffffffffffffffffffffffffffffffffff168473ffffffffffffffffffffffffffffffffffffffff16141515156109d957600080fd5b600160009054906101000a900473ffffffffffffffffffffffffffffffffffffffff1673ffffffffffffffffffffffffffffffffffffffff166321f8a721610a56886040805190810160405280600a81526020017f465245454c414e4345520000000000000000000000000000000000000000000081525061430c565b6040518263ffffffff167c0100000000000000000000000000000000000000000000000000000000028152600401808260001916600019168152602001915050602060405180830381600087803b158015610ab057600080fd5b505af1158015610ac4573d6000803e3d6000fd5b505050506040513d6020811015610ada57600080fd5b81019080805190602001909291905050509250600160009054906101000a900473ffffffffffffffffffffffffffffffffffffffff1673ffffffffffffffffffffffffffffffffffffffff166321f8a721610b3488614281565b6040518263ffffffff167c0100000000000000000000000000000000000000000000000000000000028152600401808260001916600019168152602001915050602060405180830381600087803b158015610b8e57600080fd5b505af1158015610ba2573d6000803e3d6000fd5b505050506040513d6020811015610bb857600080fd5b81019080805190602001909291905050509150600160009054906101000a900473ffffffffffffffffffffffffffffffffffffffff1673ffffffffffffffffffffffffffffffffffffffff1663bd02d0f5610c1388866143ed565b6040518263ffffffff167c0100000000000000000000000000000000000000000000000000000000028152600401808260001916600019168152602001915050602060405180830381600087803b158015610c6d57600080fd5b505af1158015610c81573d6000803e3d6000fd5b505050506040513d6020811015610c9757600080fd5b810190808051906020019092919050505090508273ffffffffffffffffffffffffffffffffffffffff168473ffffffffffffffffffffffffffffffffffffffff161480610d0f57508173ffffffffffffffffffffffffffffffffffffffff168473ffffffffffffffffffffffffffffffffffffffff16145b1515610d1a57600080fd5b600160009054906101000a900473ffffffffffffffffffffffffffffffffffffffff1673ffffffffffffffffffffffffffffffffffffffff1663abfdcced610d97886040805190810160405280601181526020017f5041594d454e545f46494e414c495a454400000000000000000000000000000081525061430c565b60016040518363ffffffff167c01000000000000000000000000000000000000000000000000000000000281526004018083600019166000191681526020018215151515815260200192505050600060405180830381600087803b158015610dfe57600080fd5b505af1158015610e12573d6000803e3d6000fd5b50505050600260009054906101000a900473ffffffffffffffffffffffffffffffffffffffff1673ffffffffffffffffffffffffffffffffffffffff1663a9059cbb85836040518363ffffffff167c0100000000000000000000000000000000000000000000000000000000028152600401808373ffffffffffffffffffffffffffffffffffffffff1673ffffffffffffffffffffffffffffffffffffffff16815260200182815260200192505050602060405180830381600087803b158015610edb57600080fd5b505af1158015610eef573d6000803e3d6000fd5b505050506040513d6020811015610f0557600080fd5b81019080805190602001909291905050501515610f2157600080fd5b8373ffffffffffffffffffffffffffffffffffffffff167f70e3ada1a8aec0b45bbf7baaaf1e34dd886c3eeb7df90b6fc4557fb0e4822b17876040518082815260200191505060405180910390a26001945050505050919050565b6000809054906101000a900473ffffffffffffffffffffffffffffffffffffffff1673ffffffffffffffffffffffffffffffffffffffff163373ffffffffffffffffffffffffffffffffffffffff16141515610fd757600080fd5b6000809054906101000a900473ffffffffffffffffffffffffffffffffffffffff1673ffffffffffffffffffffffffffffffffffffffff167ff8df31144d9c2f0f6b59d69b8b98abd5459d07f2742c4df920b25aae33c6482060405160405180910390a260008060006101000a81548173ffffffffffffffffffffffffffffffffffffffff021916908373ffffffffffffffffffffffffffffffffffffffff160217905550565b6000809054906101000a900473ffffffffffffffffffffffffffffffffffffffff1673ffffffffffffffffffffffffffffffffffffffff163373ffffffffffffffffffffffffffffffffffffffff161415156110d957600080fd5b80600260006101000a81548173ffffffffffffffffffffffffffffffffffffffff021916908373ffffffffffffffffffffffffffffffffffffffff16021790555050565b6000806000806000600160009054906101000a900473ffffffffffffffffffffffffffffffffffffffff1673ffffffffffffffffffffffffffffffffffffffff166321f8a72161116c88614281565b6040518263ffffffff167c0100000000000000000000000000000000000000000000000000000000028152600401808260001916600019168152602001915050602060405180830381600087803b1580156111c657600080fd5b505af11580156111da573d6000803e3d6000fd5b505050506040513d60208110156111f057600080fd5b81019080805190602001909291905050509350600160009054906101000a900473ffffffffffffffffffffffffffffffffffffffff1673ffffffffffffffffffffffffffffffffffffffff1663bd02d0f561128188876040805190810160405280600781526020017f4445504f534954000000000000000000000000000000000000000000000000008152506144bc565b6040518263ffffffff167c0100000000000000000000000000000000000000000000000000000000028152600401808260001916600019168152602001915050602060405180830381600087803b1580156112db57600080fd5b505af11580156112ef573d6000803e3d6000fd5b505050506040513d602081101561130557600080fd5b8101908080519060200190929190505050925060011515600160009054906101000a900473ffffffffffffffffffffffffffffffffffffffff1673ffffffffffffffffffffffffffffffffffffffff16637ae1cfca611399896040805190810160405280600a81526020017f4a4f425f43414e43454c0000000000000000000000000000000000000000000081525061430c565b6040518263ffffffff167c0100000000000000000000000000000000000000000000000000000000028152600401808260001916600019168152602001915050602060405180830381600087803b1580156113f357600080fd5b505af1158015611407573d6000803e3d6000fd5b505050506040513d602081101561141d57600080fd5b81019080805190602001909291905050501515141561164857600160009054906101000a900473ffffffffffffffffffffffffffffffffffffffff1673ffffffffffffffffffffffffffffffffffffffff1663e2a4853a6114b488876040805190810160405280600781526020017f4445504f534954000000000000000000000000000000000000000000000000008152506144bc565b60006040518363ffffffff167c010000000000000000000000000000000000000000000000000000000002815260040180836000191660001916815260200182815260200192505050600060405180830381600087803b15801561151757600080fd5b505af115801561152b573d6000803e3d6000fd5b50505050600083111561163f57600260009054906101000a900473ffffffffffffffffffffffffffffffffffffffff1673ffffffffffffffffffffffffffffffffffffffff1663a9059cbb85856040518363ffffffff167c0100000000000000000000000000000000000000000000000000000000028152600401808373ffffffffffffffffffffffffffffffffffffffff1673ffffffffffffffffffffffffffffffffffffffff16815260200182815260200192505050602060405180830381600087803b1580156115fd57600080fd5b505af1158015611611573d6000803e3d6000fd5b505050506040513d602081101561162757600080fd5b81019080805190602001909291905050509450611a83565b60019450611a83565b600160009054906101000a900473ffffffffffffffffffffffffffffffffffffffff1673ffffffffffffffffffffffffffffffffffffffff166321f8a7218760405160200180828152602001807f465245454c414e43455200000000000000000000000000000000000000000000815250600a019150506040516020818303038152906040526040518082805190602001908083835b60208310151561170357805182526020820191506020810190506020830392506116de565b6001836020036101000a03801982511681845116808217855250505050505090500191505060405180910390206040518263ffffffff167c0100000000000000000000000000000000000000000000000000000000028152600401808260001916600019168152602001915050602060405180830381600087803b15801561178a57600080fd5b505af115801561179e573d6000803e3d6000fd5b505050506040513d60208110156117b457600080fd5b81019080805190602001909291905050509150600160009054906101000a900473ffffffffffffffffffffffffffffffffffffffff1673ffffffffffffffffffffffffffffffffffffffff1663bd02d0f58784604051602001808381526020018273ffffffffffffffffffffffffffffffffffffffff1673ffffffffffffffffffffffffffffffffffffffff166c01000000000000000000000000028152601401925050506040516020818303038152906040526040518082805190602001908083835b60208310151561189d5780518252602082019150602081019050602083039250611878565b6001836020036101000a03801982511681845116808217855250505050505090500191505060405180910390206040518263ffffffff167c0100000000000000000000000000000000000000000000000000000000028152600401808260001916600019168152602001915050602060405180830381600087803b15801561192457600080fd5b505af1158015611938573d6000803e3d6000fd5b505050506040513d602081101561194e57600080fd5b8101908080519060200190929190505050905060008111151561197057600080fd5b808311151561197e57600080fd5b600260009054906101000a900473ffffffffffffffffffffffffffffffffffffffff1673ffffffffffffffffffffffffffffffffffffffff1663a9059cbb858386036040518363ffffffff167c0100000000000000000000000000000000000000000000000000000000028152600401808373ffffffffffffffffffffffffffffffffffffffff1673ffffffffffffffffffffffffffffffffffffffff16815260200182815260200192505050602060405180830381600087803b158015611a4557600080fd5b505af1158015611a59573d6000803e3d6000fd5b505050506040513d6020811015611a6f57600080fd5b810190808051906020019092919050505094505b50505050919050565b6000600160009054906101000a900473ffffffffffffffffffffffffffffffffffffffff1673ffffffffffffffffffffffffffffffffffffffff16637ae1cfca8360405160200180828152602001807f4a4f425f43414e43454c00000000000000000000000000000000000000000000815250600a019150506040516020818303038152906040526040518082805190602001908083835b602083101515611b495780518252602082019150602081019050602083039250611b24565b6001836020036101000a03801982511681845116808217855250505050505090500191505060405180910390206040518263ffffffff167c0100000000000000000000000000000000000000000000000000000000028152600401808260001916600019168152602001915050602060405180830381600087803b158015611bd057600080fd5b505af1158015611be4573d6000803e3d6000fd5b505050506040513d6020811015611bfa57600080fd5b81019080805190602001909291905050509050919050565b6000809054906101000a900473ffffffffffffffffffffffffffffffffffffffff1681565b6000809054906101000a900473ffffffffffffffffffffffffffffffffffffffff1673ffffffffffffffffffffffffffffffffffffffff163373ffffffffffffffffffffffffffffffffffffffff16141515611c9257600080fd5b60003073ffffffffffffffffffffffffffffffffffffffff16311115611d32576000809054906101000a900473ffffffffffffffffffffffffffffffffffffffff1673ffffffffffffffffffffffffffffffffffffffff166108fc3073ffffffffffffffffffffffffffffffffffffffff16319081150290604051600060405180830381858888f19350505050158015611d30573d6000803e3d6000fd5b505b600073ffffffffffffffffffffffffffffffffffffffff168173ffffffffffffffffffffffffffffffffffffffff16141515611f48578073ffffffffffffffffffffffffffffffffffffffff1663a9059cbb6000809054906101000a900473ffffffffffffffffffffffffffffffffffffffff168373ffffffffffffffffffffffffffffffffffffffff166370a08231306040518263ffffffff167c0100000000000000000000000000000000000000000000000000000000028152600401808273ffffffffffffffffffffffffffffffffffffffff1673ffffffffffffffffffffffffffffffffffffffff168152602001915050602060405180830381600087803b158015611e4157600080fd5b505af1158015611e55573d6000803e3d6000fd5b505050506040513d6020811015611e6b57600080fd5b81019080805190602001909291905050506040518363ffffffff167c0100000000000000000000000000000000000000000000000000000000028152600401808373ffffffffffffffffffffffffffffffffffffffff1673ffffffffffffffffffffffffffffffffffffffff16815260200182815260200192505050602060405180830381600087803b158015611f0157600080fd5b505af1158015611f15573d6000803e3d6000fd5b505050506040513d6020811015611f2b57600080fd5b81019080805190602001909291905050501515611f4757600080fd5b5b50565b6000809054906101000a900473ffffffffffffffffffffffffffffffffffffffff1673ffffffffffffffffffffffffffffffffffffffff163373ffffffffffffffffffffffffffffffffffffffff16141515611fa657600080fd5b80600160006101000a81548173ffffffffffffffffffffffffffffffffffffffff021916908373ffffffffffffffffffffffffffffffffffffffff16021790555050565b6000823373ffffffffffffffffffffffffffffffffffffffff16600160009054906101000a900473ffffffffffffffffffffffffffffffffffffffff1673ffffffffffffffffffffffffffffffffffffffff166321f8a72161204b84614281565b6040518263ffffffff167c0100000000000000000000000000000000000000000000000000000000028152600401808260001916600019168152602001915050602060405180830381600087803b1580156120a557600080fd5b505af11580156120b9573d6000803e3d6000fd5b505050506040513d60208110156120cf57600080fd5b810190808051906020019092919050505073ffffffffffffffffffffffffffffffffffffffff1614151561210257600080fd5b6002600160009054906101000a900473ffffffffffffffffffffffffffffffffffffffff1673ffffffffffffffffffffffffffffffffffffffff1663bd02d0f5612181876040805190810160405280600a81526020017f4a4f425f5354415455530000000000000000000000000000000000000000000081525061430c565b6040518263ffffffff167c0100000000000000000000000000000000000000000000000000000000028152600401808260001916600019168152602001915050602060405180830381600087803b1580156121db57600080fd5b505af11580156121ef573d6000803e3d6000fd5b505050506040513d602081101561220557600080fd5b810190808051906020019092919050505014151561222257600080fd5b60008311151561223157600080fd5b600160009054906101000a900473ffffffffffffffffffffffffffffffffffffffff1673ffffffffffffffffffffffffffffffffffffffff1663e2a4853a6122ae866040805190810160405280600a81526020017f4a4f425f5354415455530000000000000000000000000000000000000000000081525061430c565b60046040518363ffffffff167c010000000000000000000000000000000000000000000000000000000002815260040180836000191660001916815260200182815260200192505050600060405180830381600087803b15801561231157600080fd5b505af1158015612325573d6000803e3d6000fd5b50505050600160009054906101000a900473ffffffffffffffffffffffffffffffffffffffff1673ffffffffffffffffffffffffffffffffffffffff1663e2a4853a6123a6866040805190810160405280600a81526020017f4a4f425f524541534f4e0000000000000000000000000000000000000000000081525061430c565b856040518363ffffffff167c010000000000000000000000000000000000000000000000000000000002815260040180836000191660001916815260200182815260200192505050600060405180830381600087803b15801561240857600080fd5b505af115801561241c573d6000803e3d6000fd5b5050505061253b600160009054906101000a900473ffffffffffffffffffffffffffffffffffffffff1673ffffffffffffffffffffffffffffffffffffffff1663bd02d0f560405180807f52454a45435445445f5041594d454e545f4c494d49545f54494d455354414d50815250602001905060405180910390206040518263ffffffff167c0100000000000000000000000000000000000000000000000000000000028152600401808260001916600019168152602001915050602060405180830381600087803b1580156124f157600080fd5b505af1158015612505573d6000803e3d6000fd5b505050506040513d602081101561251b57600080fd5b8101908080519060200190929190505050426145e190919063ffffffff16565b9150600160009054906101000a900473ffffffffffffffffffffffffffffffffffffffff1673ffffffffffffffffffffffffffffffffffffffff1663e2a4853a6125ba866040805190810160405280602081526020017f52454a45435445445f5041594d454e545f4c494d49545f54494d455354414d5081525061430c565b846040518363ffffffff167c010000000000000000000000000000000000000000000000000000000002815260040180836000191660001916815260200182815260200192505050600060405180830381600087803b15801561261c57600080fd5b505af1158015612630573d6000803e3d6000fd5b505050503373ffffffffffffffffffffffffffffffffffffffff167f71fc9bb22a5ef5db1169a5474a47c80961e2efb8b79e4f797fee422b64a2a46985858560405180848152602001838152602001828152602001935050505060405180910390a250505050565b600080600160009054906101000a900473ffffffffffffffffffffffffffffffffffffffff1673ffffffffffffffffffffffffffffffffffffffff1663bd02d0f58460405160200180828152602001807f4a4f425f53544154555300000000000000000000000000000000000000000000815250600a019150506040516020818303038152906040526040518082805190602001908083835b6020831015156127565780518252602082019150602081019050602083039250612731565b6001836020036101000a03801982511681845116808217855250505050505090500191505060405180910390206040518263ffffffff167c0100000000000000000000000000000000000000000000000000000000028152600401808260001916600019168152602001915050602060405180830381600087803b1580156127dd57600080fd5b505af11580156127f1573d6000803e3d6000fd5b505050506040513d602081101561280757600080fd5b810190808051906020019092919050505014159050919050565b60008273ffffffffffffffffffffffffffffffffffffffff16600160009054906101000a900473ffffffffffffffffffffffffffffffffffffffff1673ffffffffffffffffffffffffffffffffffffffff166321f8a72161288185614281565b6040518263ffffffff167c0100000000000000000000000000000000000000000000000000000000028152600401808260001916600019168152602001915050602060405180830381600087803b1580156128db57600080fd5b505af11580156128ef573d6000803e3d6000fd5b505050506040513d602081101561290557600080fd5b810190808051906020019092919050505073ffffffffffffffffffffffffffffffffffffffff1614905092915050565b6000806000833373ffffffffffffffffffffffffffffffffffffffff16600160009054906101000a900473ffffffffffffffffffffffffffffffffffffffff1673ffffffffffffffffffffffffffffffffffffffff166321f8a72161299984614281565b6040518263ffffffff167c0100000000000000000000000000000000000000000000000000000000028152600401808260001916600019168152602001915050602060405180830381600087803b1580156129f357600080fd5b505af1158015612a07573d6000803e3d6000fd5b505050506040513d6020811015612a1d57600080fd5b810190808051906020019092919050505073ffffffffffffffffffffffffffffffffffffffff16141515612a5057600080fd5b600160009054906101000a900473ffffffffffffffffffffffffffffffffffffffff1673ffffffffffffffffffffffffffffffffffffffff1663bd02d0f5612acd876040805190810160405280600a81526020017f4a4f425f5354415455530000000000000000000000000000000000000000000081525061430c565b6040518263ffffffff167c0100000000000000000000000000000000000000000000000000000000028152600401808260001916600019168152602001915050602060405180830381600087803b158015612b2757600080fd5b505af1158015612b3b573d6000803e3d6000fd5b505050506040513d6020811015612b5157600080fd5b8101908080519060200190929190505050935060028410151515612b7457600080fd5b60048411151515612b8457600080fd5b600160009054906101000a900473ffffffffffffffffffffffffffffffffffffffff1673ffffffffffffffffffffffffffffffffffffffff1663e2a4853a612c01876040805190810160405280600a81526020017f4a4f425f5354415455530000000000000000000000000000000000000000000081525061430c565b60096040518363ffffffff167c010000000000000000000000000000000000000000000000000000000002815260040180836000191660001916815260200182815260200192505050600060405180830381600087803b158015612c6457600080fd5b505af1158015612c78573d6000803e3d6000fd5b50505050600160009054906101000a900473ffffffffffffffffffffffffffffffffffffffff1673ffffffffffffffffffffffffffffffffffffffff166321f8a721612cf9876040805190810160405280600a81526020017f465245454c414e4345520000000000000000000000000000000000000000000081525061430c565b6040518263ffffffff167c0100000000000000000000000000000000000000000000000000000000028152600401808260001916600019168152602001915050602060405180830381600087803b158015612d5357600080fd5b505af1158015612d67573d6000803e3d6000fd5b505050506040513d6020811015612d7d57600080fd5b81019080805190602001909291905050509250600160009054906101000a900473ffffffffffffffffffffffffffffffffffffffff1673ffffffffffffffffffffffffffffffffffffffff1663bd02d0f5612dd887866143ed565b6040518263ffffffff167c0100000000000000000000000000000000000000000000000000000000028152600401808260001916600019168152602001915050602060405180830381600087803b158015612e3257600080fd5b505af1158015612e46573d6000803e3d6000fd5b505050506040513d6020811015612e5c57600080fd5b81019080805190602001909291905050509150600260009054906101000a900473ffffffffffffffffffffffffffffffffffffffff1673ffffffffffffffffffffffffffffffffffffffff1663a9059cbb84846040518363ffffffff167c0100000000000000000000000000000000000000000000000000000000028152600401808373ffffffffffffffffffffffffffffffffffffffff1673ffffffffffffffffffffffffffffffffffffffff16815260200182815260200192505050602060405180830381600087803b158015612f3457600080fd5b505af1158015612f48573d6000803e3d6000fd5b505050506040513d6020811015612f5e57600080fd5b81019080805190602001909291905050501515612f7a57600080fd5b3373ffffffffffffffffffffffffffffffffffffffff167fa9fd4e402d8a89b7b1fb812d03c71e1e167336b982cb798bd6db80b1ea94c5b5866040518082815260200191505060405180910390a25050505050565b600080600080600080600160009054906101000a900473ffffffffffffffffffffffffffffffffffffffff1673ffffffffffffffffffffffffffffffffffffffff166321f8a721613055896040805190810160405280600a81526020017f465245454c414e4345520000000000000000000000000000000000000000000081525061430c565b6040518263ffffffff167c0100000000000000000000000000000000000000000000000000000000028152600401808260001916600019168152602001915050602060405180830381600087803b1580156130af57600080fd5b505af11580156130c3573d6000803e3d6000fd5b505050506040513d60208110156130d957600080fd5b81019080805190602001909291905050509550600160009054906101000a900473ffffffffffffffffffffffffffffffffffffffff1673ffffffffffffffffffffffffffffffffffffffff166321f8a72161313389614281565b6040518263ffffffff167c0100000000000000000000000000000000000000000000000000000000028152600401808260001916600019168152602001915050602060405180830381600087803b15801561318d57600080fd5b505af11580156131a1573d6000803e3d6000fd5b505050506040513d60208110156131b757600080fd5b810190808051906020019092919050505094508573ffffffffffffffffffffffffffffffffffffffff163373ffffffffffffffffffffffffffffffffffffffff16148061322f57508473ffffffffffffffffffffffffffffffffffffffff163373ffffffffffffffffffffffffffffffffffffffff16145b151561323a57600080fd5b8573ffffffffffffffffffffffffffffffffffffffff163373ffffffffffffffffffffffffffffffffffffffff1614156135c3576002600160009054906101000a900473ffffffffffffffffffffffffffffffffffffffff1673ffffffffffffffffffffffffffffffffffffffff1663bd02d0f56132ed8a6040805190810160405280600a81526020017f4a4f425f5354415455530000000000000000000000000000000000000000000081525061430c565b6040518263ffffffff167c0100000000000000000000000000000000000000000000000000000000028152600401808260001916600019168152602001915050602060405180830381600087803b15801561334757600080fd5b505af115801561335b573d6000803e3d6000fd5b505050506040513d602081101561337157600080fd5b810190808051906020019092919050505014151561338e57600080fd5b600160009054906101000a900473ffffffffffffffffffffffffffffffffffffffff1673ffffffffffffffffffffffffffffffffffffffff1663bd02d0f561340b896040805190810160405280601681526020017f4a4f425f46494e49534845445f54494d455354414d500000000000000000000081525061430c565b6040518263ffffffff167c0100000000000000000000000000000000000000000000000000000000028152600401808260001916600019168152602001915050602060405180830381600087803b15801561346557600080fd5b505af1158015613479573d6000803e3d6000fd5b505050506040513d602081101561348f57600080fd5b81019080805190602001909291905050509350600160009054906101000a900473ffffffffffffffffffffffffffffffffffffffff1673ffffffffffffffffffffffffffffffffffffffff1663bd02d0f560405180807f5041594d454e545f4c494d49545f54494d455354414d50000000000000000000815250601701905060405180910390206040518263ffffffff167c0100000000000000000000000000000000000000000000000000000000028152600401808260001916600019168152602001915050602060405180830381600087803b15801561357057600080fd5b505af1158015613584573d6000803e3d6000fd5b505050506040513d602081101561359a57600080fd5b8101908080519060200190929190505050925042838501111515156135be57600080fd5b613807565b6004600160009054906101000a900473ffffffffffffffffffffffffffffffffffffffff1673ffffffffffffffffffffffffffffffffffffffff1663bd02d0f56136428a6040805190810160405280600a81526020017f4a4f425f5354415455530000000000000000000000000000000000000000000081525061430c565b6040518263ffffffff167c0100000000000000000000000000000000000000000000000000000000028152600401808260001916600019168152602001915050602060405180830381600087803b15801561369c57600080fd5b505af11580156136b0573d6000803e3d6000fd5b505050506040513d60208110156136c657600080fd5b81019080805190602001909291905050501415156136e357600080fd5b600160009054906101000a900473ffffffffffffffffffffffffffffffffffffffff1673ffffffffffffffffffffffffffffffffffffffff1663bd02d0f5613760896040805190810160405280602081526020017f52454a45435445445f5041594d454e545f4c494d49545f54494d455354414d5081525061430c565b6040518263ffffffff167c0100000000000000000000000000000000000000000000000000000000028152600401808260001916600019168152602001915050602060405180830381600087803b1580156137ba57600080fd5b505af11580156137ce573d6000803e3d6000fd5b505050506040513d60208110156137e457600080fd5b8101908080519060200190929190505050915042821115151561380657600080fd5b5b600160009054906101000a900473ffffffffffffffffffffffffffffffffffffffff1673ffffffffffffffffffffffffffffffffffffffff1663e2a4853a613884896040805190810160405280600a81526020017f4a4f425f5354415455530000000000000000000000000000000000000000000081525061430c565b60056040518363ffffffff167c010000000000000000000000000000000000000000000000000000000002815260040180836000191660001916815260200182815260200192505050600060405180830381600087803b1580156138e757600080fd5b505af11580156138fb573d6000803e3d6000fd5b50505050600160009054906101000a900473ffffffffffffffffffffffffffffffffffffffff1673ffffffffffffffffffffffffffffffffffffffff1663bd02d0f561394789896143ed565b6040518263ffffffff167c0100000000000000000000000000000000000000000000000000000000028152600401808260001916600019168152602001915050602060405180830381600087803b1580156139a157600080fd5b505af11580156139b5573d6000803e3d6000fd5b505050506040513d60208110156139cb57600080fd5b81019080805190602001909291905050509050600260009054906101000a900473ffffffffffffffffffffffffffffffffffffffff1673ffffffffffffffffffffffffffffffffffffffff1663a9059cbb33836040518363ffffffff167c0100000000000000000000000000000000000000000000000000000000028152600401808373ffffffffffffffffffffffffffffffffffffffff1673ffffffffffffffffffffffffffffffffffffffff16815260200182815260200192505050602060405180830381600087803b158015613aa357600080fd5b505af1158015613ab7573d6000803e3d6000fd5b505050506040513d6020811015613acd57600080fd5b81019080805190602001909291905050501515613ae957600080fd5b3373ffffffffffffffffffffffffffffffffffffffff167f68e025580f9927563397b7ace79c220c87b74dc551093ed5064fff4049990b75886040518082815260200191505060405180910390a250505050505050565b6000806000806000600160009054906101000a900473ffffffffffffffffffffffffffffffffffffffff1673ffffffffffffffffffffffffffffffffffffffff1663bd02d0f5613bc5886040805190810160405280601681526020017f4a4f425f46494e49534845445f54494d455354414d500000000000000000000081525061430c565b6040518263ffffffff167c0100000000000000000000000000000000000000000000000000000000028152600401808260001916600019168152602001915050602060405180830381600087803b158015613c1f57600080fd5b505af1158015613c33573d6000803e3d6000fd5b505050506040513d6020811015613c4957600080fd5b81019080805190602001909291905050509250600160009054906101000a900473ffffffffffffffffffffffffffffffffffffffff1673ffffffffffffffffffffffffffffffffffffffff1663bd02d0f560405180807f5041594d454e545f4c494d49545f54494d455354414d50000000000000000000815250601701905060405180910390206040518263ffffffff167c0100000000000000000000000000000000000000000000000000000000028152600401808260001916600019168152602001915050602060405180830381600087803b158015613d2a57600080fd5b505af1158015613d3e573d6000803e3d6000fd5b505050506040513d6020811015613d5457600080fd5b81019080805190602001909291905050509150600160009054906101000a900473ffffffffffffffffffffffffffffffffffffffff1673ffffffffffffffffffffffffffffffffffffffff1663bd02d0f5613de4886040805190810160405280600a81526020017f4a4f425f5354415455530000000000000000000000000000000000000000000081525061430c565b6040518263ffffffff167c0100000000000000000000000000000000000000000000000000000000028152600401808260001916600019168152602001915050602060405180830381600087803b158015613e3e57600080fd5b505af1158015613e52573d6000803e3d6000fd5b505050506040513d6020811015613e6857600080fd5b8101908080519060200190929190505050905080613e8f83856145e190919063ffffffff16565b94509450505050915091565b6000600160009054906101000a900473ffffffffffffffffffffffffffffffffffffffff1673ffffffffffffffffffffffffffffffffffffffff1663bd02d0f58360405160200180828152602001807f4a4f425f45585049524544000000000000000000000000000000000000000000815250600b019150506040516020818303038152906040526040518082805190602001908083835b602083101515613f585780518252602082019150602081019050602083039250613f33565b6001836020036101000a03801982511681845116808217855250505050505090500191505060405180910390206040518263ffffffff167c0100000000000000000000000000000000000000000000000000000000028152600401808260001916600019168152602001915050602060405180830381600087803b158015613fdf57600080fd5b505af1158015613ff3573d6000803e3d6000fd5b505050506040513d602081101561400957600080fd5b810190808051906020019092919050505042119050919050565b600080600160009054906101000a900473ffffffffffffffffffffffffffffffffffffffff1673ffffffffffffffffffffffffffffffffffffffff166321f8a7218460405160200180828152602001807f465245454c414e43455200000000000000000000000000000000000000000000815250600a019150506040516020818303038152906040526040518082805190602001908083835b6020831015156140e157805182526020820191506020810190506020830392506140bc565b6001836020036101000a03801982511681845116808217855250505050505090500191505060405180910390206040518263ffffffff167c0100000000000000000000000000000000000000000000000000000000028152600401808260001916600019168152602001915050602060405180830381600087803b15801561416857600080fd5b505af115801561417c573d6000803e3d6000fd5b505050506040513d602081101561419257600080fd5b810190808051906020019092919050505073ffffffffffffffffffffffffffffffffffffffff1614159050919050565b600073ffffffffffffffffffffffffffffffffffffffff166000809054906101000a900473ffffffffffffffffffffffffffffffffffffffff1673ffffffffffffffffffffffffffffffffffffffff16141515614275576000809054906101000a900473ffffffffffffffffffffffffffffffffffffffff1673ffffffffffffffffffffffffffffffffffffffff163373ffffffffffffffffffffffffffffffffffffffff1614151561427457600080fd5b5b61427e816145fd565b50565b600081604051602001808281526020019150506040516020818303038152906040526040518082805190602001908083835b6020831015156142d857805182526020820191506020810190506020830392506142b3565b6001836020036101000a03801982511681845116808217855250505050505090500191505060405180910390209050919050565b600082826040516020018083815260200182805190602001908083835b60208310151561434e5780518252602082019150602081019050602083039250614329565b6001836020036101000a038019825116818451168082178552505050505050905001925050506040516020818303038152906040526040518082805190602001908083835b6020831015156143b85780518252602082019150602081019050602083039250614393565b6001836020036101000a0380198251168184511680821785525050505050509050019150506040518091039020905092915050565b60008282604051602001808381526020018273ffffffffffffffffffffffffffffffffffffffff1673ffffffffffffffffffffffffffffffffffffffff166c01000000000000000000000000028152601401925050506040516020818303038152906040526040518082805190602001908083835b6020831015156144875780518252602082019150602081019050602083039250614462565b6001836020036101000a0380198251168184511680821785525050505050509050019150506040518091039020905092915050565b6000838383604051602001808481526020018373ffffffffffffffffffffffffffffffffffffffff1673ffffffffffffffffffffffffffffffffffffffff166c0100000000000000000000000002815260140182805190602001908083835b602083101515614540578051825260208201915060208101905060208303925061451b565b6001836020036101000a03801982511681845116808217855250505050505090500193505050506040516020818303038152906040526040518082805190602001908083835b6020831015156145ab5780518252602082019150602081019050602083039250614586565b6001836020036101000a038019825116818451168082178552505050505050905001915050604051809103902090509392505050565b600081830190508281101515156145f457fe5b80905092915050565b600073ffffffffffffffffffffffffffffffffffffffff168173ffffffffffffffffffffffffffffffffffffffff161415151561463957600080fd5b8073ffffffffffffffffffffffffffffffffffffffff166000809054906101000a900473ffffffffffffffffffffffffffffffffffffffff1673ffffffffffffffffffffffffffffffffffffffff167f8be0079c531659141344cd1fd0a4f28419497f9722a3daafe3b4186f6b6457e060405160405180910390a3806000806101000a81548173ffffffffffffffffffffffffffffffffffffffff021916908373ffffffffffffffffffffffffffffffffffffffff160217905550505600a165627a7a723058200f8156349641deb101366e50e5d2692fad6a961eb2322a4c273f6f5cfd4eb01a0029",
  "source": "/**\n * Created on 2018-08-13 10:32\n * @summary: \n * @author: Chris Nguyen\n */\npragma solidity ^0.4.24;\nimport './BBFreelancer.sol';\nimport './BBLib.sol';\n\n/**\n * @title BBFreelancerPayment\n */\ncontract BBFreelancerPayment is BBFreelancer{\n\n  event PaymentClaimed(uint256 jobID, address indexed sender);\n  event PaymentAccepted(uint256 jobID, address indexed sender);\n  event PaymentRejected(uint256 jobID, address indexed sender, uint reason, uint256 rejectedTimestamp);\n  event DisputeFinalized(uint256 jobID, address indexed winner);\n\n\n  // hirer ok with finish Job\n  /**\n   * @dev \n   * @param jobID Job ID\n   */\n  function acceptPayment(uint256 jobID)  public \n  isOwnerJob(jobID) {\n    uint256 status = bbs.getUint(BBLib.toB32(jobID,'JOB_STATUS'));\n    require(status >= 2);\n    require(status <= 4);\n    bbs.setUint(BBLib.toB32(jobID,'JOB_STATUS'), 9);\n    address freelancer = bbs.getAddress(BBLib.toB32(jobID,'FREELANCER'));\n    uint256 bid = bbs.getUint(BBLib.toB32(jobID,freelancer));\n    //TODO release funs\n    require(bbo.transfer(freelancer, bid));\n\n    emit PaymentAccepted(jobID, msg.sender);\n\n  }\n  // hirer not ok with finish Job\n  /**\n   * @dev \n   * @param jobID Job ID\n   */\n  function rejectPayment(uint256 jobID, uint reason) public \n  isOwnerJob(jobID) {\n    require(bbs.getUint(BBLib.toB32(jobID,'JOB_STATUS')) == 2);\n    require(reason > 0);\n    bbs.setUint(BBLib.toB32(jobID,'JOB_STATUS'), 4);\n    bbs.setUint(BBLib.toB32(jobID,'JOB_REASON'), reason);\n    uint256 rejectedTimestamp = block.timestamp.add(bbs.getUint(keccak256('REJECTED_PAYMENT_LIMIT_TIMESTAMP')));\n    bbs.setUint(BBLib.toB32(jobID,'REJECTED_PAYMENT_LIMIT_TIMESTAMP'), rejectedTimestamp);\n   emit PaymentRejected(jobID, msg.sender, reason, rejectedTimestamp);\n\n  }\n  // freelancer claimeJob with finish Job but hirer not accept payment \n  // need proof of work\n  /**\n   * @dev \n   * @param jobID Job ID\n   */\n  function claimePayment(uint256 jobID) public\n  {\n    address freelancer = bbs.getAddress(BBLib.toB32(jobID,'FREELANCER'));\n    address jobOwner = bbs.getAddress(BBLib.toB32(jobID));\n    require(msg.sender == freelancer || msg.sender == jobOwner);\n    if(msg.sender == freelancer){\n      require(bbs.getUint(BBLib.toB32(jobID,'JOB_STATUS')) == 2);\n      uint256 finishDate = bbs.getUint(BBLib.toB32(jobID,'JOB_FINISHED_TIMESTAMP'));\n      uint256 paymentLimitTimestamp = bbs.getUint(keccak256('PAYMENT_LIMIT_TIMESTAMP'));\n      require((finishDate+paymentLimitTimestamp) <= now );\n    }else{\n      require(bbs.getUint(BBLib.toB32(jobID,'JOB_STATUS')) == 4);\n      uint256 rejectedEndTimestamp = bbs.getUint(BBLib.toB32(jobID,'REJECTED_PAYMENT_LIMIT_TIMESTAMP'));\n      require(rejectedEndTimestamp <= now );\n    }\n    bbs.setUint(BBLib.toB32(jobID,'JOB_STATUS'), 5);\n    uint256 bid = bbs.getUint(BBLib.toB32(jobID,freelancer));\n    require(bbo.transfer(msg.sender, bid));\n\n    emit PaymentClaimed(jobID, msg.sender);\n\n  }\n\n  /** \n  * @dev check payment status \n  **/\n  function checkPayment(uint256 jobID) public view returns(uint256, uint256){\n    uint256 finishDate = bbs.getUint(BBLib.toB32(jobID,'JOB_FINISHED_TIMESTAMP'));\n    uint256 paymentLimitTimestamp = bbs.getUint(keccak256('PAYMENT_LIMIT_TIMESTAMP'));\n    uint256 status = bbs.getUint(BBLib.toB32(jobID,'JOB_STATUS'));\n    return (status,finishDate.add(paymentLimitTimestamp));\n  }\n\n\n  function refundBBO(uint256 jobID) public  returns(bool) {\n      address owner = bbs.getAddress(BBLib.toB32(jobID));\n      uint256 lastDeposit = bbs.getUint(BBLib.toB32(jobID, owner, 'DEPOSIT'));\n      if(bbs.getBool(BBLib.toB32(jobID,'JOB_CANCEL')) == true) {\n          bbs.setUint(BBLib.toB32(jobID, owner,'DEPOSIT'), 0);\n          if(lastDeposit > 0) {\n            return bbo.transfer(owner, lastDeposit);\n          }else\n            return true;\n      } else {\n        address freelancer = bbs.getAddress(keccak256(abi.encodePacked(jobID, 'FREELANCER')));\n        uint256 bid = bbs.getUint(keccak256(abi.encodePacked(jobID,freelancer)));\n        require(bid > 0);\n        require(lastDeposit > bid);\n        return bbo.transfer(owner, lastDeposit - bid);\n      }\n\n  }\n\n  /**\n   * @dev finalize Dispute\n   * @param jobID The job ID \n   */\n  function finalizeDispute(uint256 jobID)  public returns(bool) {\n    require(bbs.getAddress(BBLib.toB32(jobID)) != 0x0);\n    require(bbs.getBool(BBLib.toB32(jobID, 'PAYMENT_FINALIZED'))!=true);\n\n    address winner = bbs.getAddress(BBLib.toB32(jobID, 'DISPUTE_WINNER'));\n    require(winner!=address(0x0));\n    address freelancer = bbs.getAddress(BBLib.toB32(jobID,'FREELANCER'));\n    address jobOwner = bbs.getAddress(BBLib.toB32(jobID));\n    uint256 bid = bbs.getUint(BBLib.toB32(jobID,freelancer));\n    require(winner==freelancer||winner==jobOwner);\n    bbs.setBool(BBLib.toB32(jobID, 'PAYMENT_FINALIZED'), true);\n    require(bbo.transfer(winner, bid));\n    emit DisputeFinalized(jobID, winner);\n\n    return true;\n  } \n}\n",
  "sourcePath": "/Users/yena/Documents/tuongnguyen/bigbom-digital-contract/src/contracts/BBFreelancerPayment.sol",
  "compiler": {
    "name": "solc",
    "version": "0.4.24+commit.e67f0147.Emscripten.clang"
  },
  "schemaVersion": "2.0.1",
  "updatedAt": "2018-11-19T01:27:18.348Z"
}