{
  "contractName": "BBTCRHelper",
  "abi": [
    {
      "constant": true,
      "inputs": [],
      "name": "bbo",
      "outputs": [
        {
          "name": "",
          "type": "address"
        }
      ],
      "payable": false,
      "stateMutability": "view",
      "type": "function"
    },
    {
      "constant": true,
      "inputs": [],
      "name": "bbs",
      "outputs": [
        {
          "name": "",
          "type": "address"
        }
      ],
      "payable": false,
      "stateMutability": "view",
      "type": "function"
    },
    {
      "constant": false,
      "inputs": [],
      "name": "renounceOwnership",
      "outputs": [],
      "payable": false,
      "stateMutability": "nonpayable",
      "type": "function"
    },
    {
      "constant": false,
      "inputs": [
        {
          "name": "BBOAddress",
          "type": "address"
        }
      ],
      "name": "setBBO",
      "outputs": [],
      "payable": false,
      "stateMutability": "nonpayable",
      "type": "function"
    },
    {
      "constant": true,
      "inputs": [],
      "name": "owner",
      "outputs": [
        {
          "name": "",
          "type": "address"
        }
      ],
      "payable": false,
      "stateMutability": "view",
      "type": "function"
    },
    {
      "constant": false,
      "inputs": [
        {
          "name": "anyToken",
          "type": "address"
        }
      ],
      "name": "emergencyERC20Drain",
      "outputs": [],
      "payable": false,
      "stateMutability": "nonpayable",
      "type": "function"
    },
    {
      "constant": false,
      "inputs": [
        {
          "name": "storageAddress",
          "type": "address"
        }
      ],
      "name": "setStorage",
      "outputs": [],
      "payable": false,
      "stateMutability": "nonpayable",
      "type": "function"
    },
    {
      "constant": false,
      "inputs": [
        {
          "name": "_newOwner",
          "type": "address"
        }
      ],
      "name": "transferOwnership",
      "outputs": [],
      "payable": false,
      "stateMutability": "nonpayable",
      "type": "function"
    },
    {
      "anonymous": false,
      "inputs": [
        {
          "indexed": true,
          "name": "owner",
          "type": "address"
        },
        {
          "indexed": true,
          "name": "listID",
          "type": "uint256"
        },
        {
          "indexed": true,
          "name": "tokenAddress",
          "type": "address"
        },
        {
          "indexed": false,
          "name": "nameHash",
          "type": "bytes"
        }
      ],
      "name": "CreateListID",
      "type": "event"
    },
    {
      "anonymous": false,
      "inputs": [
        {
          "indexed": true,
          "name": "previousOwner",
          "type": "address"
        }
      ],
      "name": "OwnershipRenounced",
      "type": "event"
    },
    {
      "anonymous": false,
      "inputs": [
        {
          "indexed": true,
          "name": "previousOwner",
          "type": "address"
        },
        {
          "indexed": true,
          "name": "newOwner",
          "type": "address"
        }
      ],
      "name": "OwnershipTransferred",
      "type": "event"
    },
    {
      "constant": false,
      "inputs": [
        {
          "name": "nameHash",
          "type": "bytes"
        },
        {
          "name": "tokenAddress",
          "type": "address"
        }
      ],
      "name": "createListID",
      "outputs": [],
      "payable": false,
      "stateMutability": "nonpayable",
      "type": "function"
    },
    {
      "constant": false,
      "inputs": [
        {
          "name": "listID",
          "type": "uint256"
        },
        {
          "name": "tokenAddress",
          "type": "address"
        }
      ],
      "name": "updateToken",
      "outputs": [],
      "payable": false,
      "stateMutability": "nonpayable",
      "type": "function"
    },
    {
      "constant": true,
      "inputs": [
        {
          "name": "listID",
          "type": "uint256"
        }
      ],
      "name": "getToken",
      "outputs": [
        {
          "name": "",
          "type": "address"
        }
      ],
      "payable": false,
      "stateMutability": "view",
      "type": "function"
    },
    {
      "constant": false,
      "inputs": [
        {
          "name": "listID",
          "type": "uint256"
        },
        {
          "name": "applicationDuration",
          "type": "uint256"
        },
        {
          "name": "commitDuration",
          "type": "uint256"
        },
        {
          "name": "revealDuration",
          "type": "uint256"
        },
        {
          "name": "minStake",
          "type": "uint256"
        },
        {
          "name": "initQuorum",
          "type": "uint256"
        },
        {
          "name": "exitDuration",
          "type": "uint256"
        }
      ],
      "name": "setParams",
      "outputs": [],
      "payable": false,
      "stateMutability": "nonpayable",
      "type": "function"
    },
    {
      "constant": true,
      "inputs": [
        {
          "name": "listID",
          "type": "uint256"
        }
      ],
      "name": "getListParams",
      "outputs": [
        {
          "name": "applicationDuration",
          "type": "uint256"
        },
        {
          "name": "commitDuration",
          "type": "uint256"
        },
        {
          "name": "revealDuration",
          "type": "uint256"
        },
        {
          "name": "minStake",
          "type": "uint256"
        }
      ],
      "payable": false,
      "stateMutability": "view",
      "type": "function"
    },
    {
      "constant": true,
      "inputs": [
        {
          "name": "listID",
          "type": "uint256"
        },
        {
          "name": "itemHash",
          "type": "bytes32"
        }
      ],
      "name": "getStakedBalance",
      "outputs": [
        {
          "name": "",
          "type": "uint256"
        }
      ],
      "payable": false,
      "stateMutability": "view",
      "type": "function"
    },
    {
      "constant": true,
      "inputs": [
        {
          "name": "listID",
          "type": "uint256"
        },
        {
          "name": "itemHash",
          "type": "bytes32"
        }
      ],
      "name": "getItemStage",
      "outputs": [
        {
          "name": "",
          "type": "uint256"
        }
      ],
      "payable": false,
      "stateMutability": "view",
      "type": "function"
    }
  ],
  "bytecode": "0x60806040526000600160006101000a81548173ffffffffffffffffffffffffffffffffffffffff021916908373ffffffffffffffffffffffffffffffffffffffff1602179055506000600260006101000a81548173ffffffffffffffffffffffffffffffffffffffff021916908373ffffffffffffffffffffffffffffffffffffffff160217905550336000806101000a81548173ffffffffffffffffffffffffffffffffffffffff021916908373ffffffffffffffffffffffffffffffffffffffff16021790555061266d806100d76000396000f3006080604052600436106100db576000357c0100000000000000000000000000000000000000000000000000000000900463ffffffff1680631e89bf06146100e05780631fde23a414610137578063385d5c2e1461018e57806353dfb1be14610217578063715018a6146102645780637937f46d1461027b5780637dd16521146102be5780638da5cb5b1461030d57806390e8d82f146103645780639137c1a7146103a7578063ce1c4556146103ea578063e4b50cb814610453578063e996ee88146104c0578063f2fde38b1461050f578063f489d46b14610552575b600080fd5b3480156100ec57600080fd5b506100f56105a8565b604051808273ffffffffffffffffffffffffffffffffffffffff1673ffffffffffffffffffffffffffffffffffffffff16815260200191505060405180910390f35b34801561014357600080fd5b5061014c6105ce565b604051808273ffffffffffffffffffffffffffffffffffffffff1673ffffffffffffffffffffffffffffffffffffffff16815260200191505060405180910390f35b34801561019a57600080fd5b50610215600480360381019080803590602001908201803590602001908080601f0160208091040260200160405190810160405280939291908181526020018383808284378201915050505050509192919290803573ffffffffffffffffffffffffffffffffffffffff1690602001909291905050506105f4565b005b34801561022357600080fd5b5061026260048036038101908080359060200190929190803573ffffffffffffffffffffffffffffffffffffffff16906020019092919050505061093c565b005b34801561027057600080fd5b50610279610b1a565b005b34801561028757600080fd5b506102bc600480360381019080803573ffffffffffffffffffffffffffffffffffffffff169060200190929190505050610c1c565b005b3480156102ca57600080fd5b506102f7600480360381019080803590602001909291908035600019169060200190929190505050610cbb565b6040518082815260200191505060405180910390f35b34801561031957600080fd5b50610322610e0e565b604051808273ffffffffffffffffffffffffffffffffffffffff1673ffffffffffffffffffffffffffffffffffffffff16815260200191505060405180910390f35b34801561037057600080fd5b506103a5600480360381019080803573ffffffffffffffffffffffffffffffffffffffff169060200190929190505050610e33565b005b3480156103b357600080fd5b506103e8600480360381019080803573ffffffffffffffffffffffffffffffffffffffff169060200190929190505050611147565b005b3480156103f657600080fd5b50610451600480360381019080803590602001909291908035906020019092919080359060200190929190803590602001909291908035906020019092919080359060200190929190803590602001909291905050506111e6565b005b34801561045f57600080fd5b5061047e60048036038101908080359060200190929190505050611958565b604051808273ffffffffffffffffffffffffffffffffffffffff1673ffffffffffffffffffffffffffffffffffffffff16815260200191505060405180910390f35b3480156104cc57600080fd5b506104f9600480360381019080803590602001909291908035600019169060200190929190505050611aa9565b6040518082815260200191505060405180910390f35b34801561051b57600080fd5b50610550600480360381019080803573ffffffffffffffffffffffffffffffffffffffff169060200190929190505050611bfc565b005b34801561055e57600080fd5b5061057d60048036038101908080359060200190929190505050611cbb565b6040518085815260200184815260200183815260200182815260200194505050505060405180910390f35b600260009054906101000a900473ffffffffffffffffffffffffffffffffffffffff1681565b600160009054906101000a900473ffffffffffffffffffffffffffffffffffffffff1681565b60008060009054906101000a900473ffffffffffffffffffffffffffffffffffffffff1673ffffffffffffffffffffffffffffffffffffffff163373ffffffffffffffffffffffffffffffffffffffff1614151561065157600080fd5b600160009054906101000a900473ffffffffffffffffffffffffffffffffffffffff1673ffffffffffffffffffffffffffffffffffffffff1663bd02d0f56106cd6040805190810160405280600b81526020017f5443525f4c4953545f49440000000000000000000000000000000000000000008152506121f0565b6040518263ffffffff167c0100000000000000000000000000000000000000000000000000000000028152600401808260001916600019168152602001915050602060405180830381600087803b15801561072757600080fd5b505af115801561073b573d6000803e3d6000fd5b505050506040513d602081101561075157600080fd5b810190808051906020019092919050505090508080600101915050600160009054906101000a900473ffffffffffffffffffffffffffffffffffffffff1673ffffffffffffffffffffffffffffffffffffffff1663e2a4853a6107e86040805190810160405280600b81526020017f5443525f4c4953545f49440000000000000000000000000000000000000000008152506121f0565b836040518363ffffffff167c010000000000000000000000000000000000000000000000000000000002815260040180836000191660001916815260200182815260200192505050600060405180830381600087803b15801561084a57600080fd5b505af115801561085e573d6000803e3d6000fd5b5050505061086c818361093c565b8173ffffffffffffffffffffffffffffffffffffffff16813373ffffffffffffffffffffffffffffffffffffffff167ffa3aba74ddbb8a0596a89ada2d707e08209725877767f34ce93595c65d9b53e8866040518080602001828103825283818151815260200191508051906020019080838360005b838110156108fd5780820151818401526020810190506108e2565b50505050905090810190601f16801561092a5780820380516001836020036101000a031916815260200191505b509250505060405180910390a4505050565b6000809054906101000a900473ffffffffffffffffffffffffffffffffffffffff1673ffffffffffffffffffffffffffffffffffffffff163373ffffffffffffffffffffffffffffffffffffffff1614151561099757600080fd5b60008173ffffffffffffffffffffffffffffffffffffffff16141515156109bd57600080fd5b600160009054906101000a900473ffffffffffffffffffffffffffffffffffffffff1673ffffffffffffffffffffffffffffffffffffffff1663ca446dd9610a706040805190810160405280600381526020017f5443520000000000000000000000000000000000000000000000000000000000815250856040805190810160405280600581526020017f544f4b454e0000000000000000000000000000000000000000000000000000008152506122c8565b836040518363ffffffff167c01000000000000000000000000000000000000000000000000000000000281526004018083600019166000191681526020018273ffffffffffffffffffffffffffffffffffffffff1673ffffffffffffffffffffffffffffffffffffffff16815260200192505050600060405180830381600087803b158015610afe57600080fd5b505af1158015610b12573d6000803e3d6000fd5b505050505050565b6000809054906101000a900473ffffffffffffffffffffffffffffffffffffffff1673ffffffffffffffffffffffffffffffffffffffff163373ffffffffffffffffffffffffffffffffffffffff16141515610b7557600080fd5b6000809054906101000a900473ffffffffffffffffffffffffffffffffffffffff1673ffffffffffffffffffffffffffffffffffffffff167ff8df31144d9c2f0f6b59d69b8b98abd5459d07f2742c4df920b25aae33c6482060405160405180910390a260008060006101000a81548173ffffffffffffffffffffffffffffffffffffffff021916908373ffffffffffffffffffffffffffffffffffffffff160217905550565b6000809054906101000a900473ffffffffffffffffffffffffffffffffffffffff1673ffffffffffffffffffffffffffffffffffffffff163373ffffffffffffffffffffffffffffffffffffffff16141515610c7757600080fd5b80600260006101000a81548173ffffffffffffffffffffffffffffffffffffffff021916908373ffffffffffffffffffffffffffffffffffffffff16021790555050565b6000600160009054906101000a900473ffffffffffffffffffffffffffffffffffffffff1673ffffffffffffffffffffffffffffffffffffffff1663bd02d0f5610d716040805190810160405280600381526020017f544352000000000000000000000000000000000000000000000000000000000081525086866040805190810160405280600681526020017f5354414b454400000000000000000000000000000000000000000000000000008152506123ff565b6040518263ffffffff167c0100000000000000000000000000000000000000000000000000000000028152600401808260001916600019168152602001915050602060405180830381600087803b158015610dcb57600080fd5b505af1158015610ddf573d6000803e3d6000fd5b505050506040513d6020811015610df557600080fd5b8101908080519060200190929190505050905092915050565b6000809054906101000a900473ffffffffffffffffffffffffffffffffffffffff1681565b6000809054906101000a900473ffffffffffffffffffffffffffffffffffffffff1673ffffffffffffffffffffffffffffffffffffffff163373ffffffffffffffffffffffffffffffffffffffff16141515610e8e57600080fd5b60003073ffffffffffffffffffffffffffffffffffffffff16311115610f2e576000809054906101000a900473ffffffffffffffffffffffffffffffffffffffff1673ffffffffffffffffffffffffffffffffffffffff166108fc3073ffffffffffffffffffffffffffffffffffffffff16319081150290604051600060405180830381858888f19350505050158015610f2c573d6000803e3d6000fd5b505b600073ffffffffffffffffffffffffffffffffffffffff168173ffffffffffffffffffffffffffffffffffffffff16141515611144578073ffffffffffffffffffffffffffffffffffffffff1663a9059cbb6000809054906101000a900473ffffffffffffffffffffffffffffffffffffffff168373ffffffffffffffffffffffffffffffffffffffff166370a08231306040518263ffffffff167c0100000000000000000000000000000000000000000000000000000000028152600401808273ffffffffffffffffffffffffffffffffffffffff1673ffffffffffffffffffffffffffffffffffffffff168152602001915050602060405180830381600087803b15801561103d57600080fd5b505af1158015611051573d6000803e3d6000fd5b505050506040513d602081101561106757600080fd5b81019080805190602001909291905050506040518363ffffffff167c0100000000000000000000000000000000000000000000000000000000028152600401808373ffffffffffffffffffffffffffffffffffffffff1673ffffffffffffffffffffffffffffffffffffffff16815260200182815260200192505050602060405180830381600087803b1580156110fd57600080fd5b505af1158015611111573d6000803e3d6000fd5b505050506040513d602081101561112757600080fd5b8101908080519060200190929190505050151561114357600080fd5b5b50565b6000809054906101000a900473ffffffffffffffffffffffffffffffffffffffff1673ffffffffffffffffffffffffffffffffffffffff163373ffffffffffffffffffffffffffffffffffffffff161415156111a257600080fd5b80600160006101000a81548173ffffffffffffffffffffffffffffffffffffffff021916908373ffffffffffffffffffffffffffffffffffffffff16021790555050565b6000809054906101000a900473ffffffffffffffffffffffffffffffffffffffff1673ffffffffffffffffffffffffffffffffffffffff163373ffffffffffffffffffffffffffffffffffffffff1614151561124157600080fd5b600160009054906101000a900473ffffffffffffffffffffffffffffffffffffffff1673ffffffffffffffffffffffffffffffffffffffff1663e2a4853a6112f46040805190810160405280600381526020017f54435200000000000000000000000000000000000000000000000000000000008152508a6040805190810160405280601481526020017f4150504c49434154494f4e5f4455524154494f4e0000000000000000000000008152506122c8565b886040518363ffffffff167c010000000000000000000000000000000000000000000000000000000002815260040180836000191660001916815260200182815260200192505050600060405180830381600087803b15801561135657600080fd5b505af115801561136a573d6000803e3d6000fd5b50505050600160009054906101000a900473ffffffffffffffffffffffffffffffffffffffff1673ffffffffffffffffffffffffffffffffffffffff1663e2a4853a6114216040805190810160405280600381526020017f54435200000000000000000000000000000000000000000000000000000000008152508a6040805190810160405280600f81526020017f434f4d4d49545f4455524154494f4e00000000000000000000000000000000008152506122c8565b876040518363ffffffff167c010000000000000000000000000000000000000000000000000000000002815260040180836000191660001916815260200182815260200192505050600060405180830381600087803b15801561148357600080fd5b505af1158015611497573d6000803e3d6000fd5b50505050600160009054906101000a900473ffffffffffffffffffffffffffffffffffffffff1673ffffffffffffffffffffffffffffffffffffffff1663e2a4853a61154e6040805190810160405280600381526020017f54435200000000000000000000000000000000000000000000000000000000008152508a6040805190810160405280600f81526020017f52455645414c5f4455524154494f4e00000000000000000000000000000000008152506122c8565b866040518363ffffffff167c010000000000000000000000000000000000000000000000000000000002815260040180836000191660001916815260200182815260200192505050600060405180830381600087803b1580156115b057600080fd5b505af11580156115c4573d6000803e3d6000fd5b50505050600160009054906101000a900473ffffffffffffffffffffffffffffffffffffffff1673ffffffffffffffffffffffffffffffffffffffff1663e2a4853a61167b6040805190810160405280600381526020017f54435200000000000000000000000000000000000000000000000000000000008152508a6040805190810160405280600981526020017f4d494e5f5354414b4500000000000000000000000000000000000000000000008152506122c8565b856040518363ffffffff167c010000000000000000000000000000000000000000000000000000000002815260040180836000191660001916815260200182815260200192505050600060405180830381600087803b1580156116dd57600080fd5b505af11580156116f1573d6000803e3d6000fd5b50505050600160009054906101000a900473ffffffffffffffffffffffffffffffffffffffff1673ffffffffffffffffffffffffffffffffffffffff1663e2a4853a6117a86040805190810160405280600381526020017f54435200000000000000000000000000000000000000000000000000000000008152508a6040805190810160405280600681526020017f51554f52554d00000000000000000000000000000000000000000000000000008152506122c8565b846040518363ffffffff167c010000000000000000000000000000000000000000000000000000000002815260040180836000191660001916815260200182815260200192505050600060405180830381600087803b15801561180a57600080fd5b505af115801561181e573d6000803e3d6000fd5b50505050600160009054906101000a900473ffffffffffffffffffffffffffffffffffffffff1673ffffffffffffffffffffffffffffffffffffffff1663e2a4853a6118d56040805190810160405280600381526020017f54435200000000000000000000000000000000000000000000000000000000008152508a6040805190810160405280600c81526020017f455849544455524154494f4e00000000000000000000000000000000000000008152506122c8565b836040518363ffffffff167c010000000000000000000000000000000000000000000000000000000002815260040180836000191660001916815260200182815260200192505050600060405180830381600087803b15801561193757600080fd5b505af115801561194b573d6000803e3d6000fd5b5050505050505050505050565b6000600160009054906101000a900473ffffffffffffffffffffffffffffffffffffffff1673ffffffffffffffffffffffffffffffffffffffff166321f8a721611a0d6040805190810160405280600381526020017f5443520000000000000000000000000000000000000000000000000000000000815250856040805190810160405280600581526020017f544f4b454e0000000000000000000000000000000000000000000000000000008152506122c8565b6040518263ffffffff167c0100000000000000000000000000000000000000000000000000000000028152600401808260001916600019168152602001915050602060405180830381600087803b158015611a6757600080fd5b505af1158015611a7b573d6000803e3d6000fd5b505050506040513d6020811015611a9157600080fd5b81019080805190602001909291905050509050919050565b6000600160009054906101000a900473ffffffffffffffffffffffffffffffffffffffff1673ffffffffffffffffffffffffffffffffffffffff1663bd02d0f5611b5f6040805190810160405280600381526020017f544352000000000000000000000000000000000000000000000000000000000081525086866040805190810160405280600581526020017f53544147450000000000000000000000000000000000000000000000000000008152506123ff565b6040518263ffffffff167c0100000000000000000000000000000000000000000000000000000000028152600401808260001916600019168152602001915050602060405180830381600087803b158015611bb957600080fd5b505af1158015611bcd573d6000803e3d6000fd5b505050506040513d6020811015611be357600080fd5b8101908080519060200190929190505050905092915050565b600073ffffffffffffffffffffffffffffffffffffffff166000809054906101000a900473ffffffffffffffffffffffffffffffffffffffff1673ffffffffffffffffffffffffffffffffffffffff16141515611caf576000809054906101000a900473ffffffffffffffffffffffffffffffffffffffff1673ffffffffffffffffffffffffffffffffffffffff163373ffffffffffffffffffffffffffffffffffffffff16141515611cae57600080fd5b5b611cb881612547565b50565b600080600080600160009054906101000a900473ffffffffffffffffffffffffffffffffffffffff1673ffffffffffffffffffffffffffffffffffffffff1663bd02d0f5611d746040805190810160405280600381526020017f5443520000000000000000000000000000000000000000000000000000000000815250886040805190810160405280601481526020017f4150504c49434154494f4e5f4455524154494f4e0000000000000000000000008152506122c8565b6040518263ffffffff167c0100000000000000000000000000000000000000000000000000000000028152600401808260001916600019168152602001915050602060405180830381600087803b158015611dce57600080fd5b505af1158015611de2573d6000803e3d6000fd5b505050506040513d6020811015611df857600080fd5b81019080805190602001909291905050509350600160009054906101000a900473ffffffffffffffffffffffffffffffffffffffff1673ffffffffffffffffffffffffffffffffffffffff1663bd02d0f5611ebe6040805190810160405280600381526020017f5443520000000000000000000000000000000000000000000000000000000000815250886040805190810160405280600f81526020017f434f4d4d49545f4455524154494f4e00000000000000000000000000000000008152506122c8565b6040518263ffffffff167c0100000000000000000000000000000000000000000000000000000000028152600401808260001916600019168152602001915050602060405180830381600087803b158015611f1857600080fd5b505af1158015611f2c573d6000803e3d6000fd5b505050506040513d6020811015611f4257600080fd5b81019080805190602001909291905050509250600160009054906101000a900473ffffffffffffffffffffffffffffffffffffffff1673ffffffffffffffffffffffffffffffffffffffff1663bd02d0f56120086040805190810160405280600381526020017f5443520000000000000000000000000000000000000000000000000000000000815250886040805190810160405280600f81526020017f52455645414c5f4455524154494f4e00000000000000000000000000000000008152506122c8565b6040518263ffffffff167c0100000000000000000000000000000000000000000000000000000000028152600401808260001916600019168152602001915050602060405180830381600087803b15801561206257600080fd5b505af1158015612076573d6000803e3d6000fd5b505050506040513d602081101561208c57600080fd5b81019080805190602001909291905050509150600160009054906101000a900473ffffffffffffffffffffffffffffffffffffffff1673ffffffffffffffffffffffffffffffffffffffff1663bd02d0f56121526040805190810160405280600381526020017f5443520000000000000000000000000000000000000000000000000000000000815250886040805190810160405280600981526020017f4d494e5f5354414b4500000000000000000000000000000000000000000000008152506122c8565b6040518263ffffffff167c0100000000000000000000000000000000000000000000000000000000028152600401808260001916600019168152602001915050602060405180830381600087803b1580156121ac57600080fd5b505af11580156121c0573d6000803e3d6000fd5b505050506040513d60208110156121d657600080fd5b810190808051906020019092919050505090509193509193565b6000816040516020018082805190602001908083835b60208310151561222b5780518252602082019150602081019050602083039250612206565b6001836020036101000a0380198251168184511680821785525050505050509050019150506040516020818303038152906040526040518082805190602001908083835b602083101515612294578051825260208201915060208101905060208303925061226f565b6001836020036101000a03801982511681845116808217855250505050505090500191505060405180910390209050919050565b60008383836040516020018084805190602001908083835b60208310151561230557805182526020820191506020810190506020830392506122e0565b6001836020036101000a03801982511681845116808217855250505050505090500183815260200182805190602001908083835b60208310151561235e5780518252602082019150602081019050602083039250612339565b6001836020036101000a03801982511681845116808217855250505050505090500193505050506040516020818303038152906040526040518082805190602001908083835b6020831015156123c957805182526020820191506020810190506020830392506123a4565b6001836020036101000a038019825116818451168082178552505050505050905001915050604051809103902090509392505050565b6000848484846040516020018085805190602001908083835b60208310151561243d5780518252602082019150602081019050602083039250612418565b6001836020036101000a038019825116818451168082178552505050505050905001848152602001836000191660001916815260200182805190602001908083835b6020831015156124a4578051825260208201915060208101905060208303925061247f565b6001836020036101000a0380198251168184511680821785525050505050509050019450505050506040516020818303038152906040526040518082805190602001908083835b60208310151561251057805182526020820191506020810190506020830392506124eb565b6001836020036101000a03801982511681845116808217855250505050505090500191505060405180910390209050949350505050565b600073ffffffffffffffffffffffffffffffffffffffff168173ffffffffffffffffffffffffffffffffffffffff161415151561258357600080fd5b8073ffffffffffffffffffffffffffffffffffffffff166000809054906101000a900473ffffffffffffffffffffffffffffffffffffffff1673ffffffffffffffffffffffffffffffffffffffff167f8be0079c531659141344cd1fd0a4f28419497f9722a3daafe3b4186f6b6457e060405160405180910390a3806000806101000a81548173ffffffffffffffffffffffffffffffffffffffff021916908373ffffffffffffffffffffffffffffffffffffffff160217905550505600a165627a7a723058204c9c2977b8e04b04438224c6222c39c059b1a78c69acf696f70388a8c94cf3ec0029",
  "source": "pragma solidity ^0.4.24;\n\nimport './BBStandard.sol';\nimport './BBLib.sol';\n\n\n\ncontract BBTCRHelper is BBStandard {\n\n    event CreateListID(address indexed owner, uint256 indexed listID, address indexed tokenAddress, bytes nameHash);\n\n    function createListID(bytes nameHash, address tokenAddress) onlyOwner public {\n        uint256 listID = bbs.getUint(BBLib.toB32('TCR_LIST_ID'));\n        listID++;\n        bbs.setUint(BBLib.toB32('TCR_LIST_ID'), listID);\n        updateToken(listID,tokenAddress);\n\n        emit CreateListID(msg.sender, listID, tokenAddress, nameHash);\n    }\n\n    function updateToken(uint256 listID, address tokenAddress)  onlyOwner public { \n        require(tokenAddress != 0x0);\n        bbs.setAddress(BBLib.toB32('TCR', listID, 'TOKEN'),tokenAddress);\n    }\n\n    function getToken(uint256 listID) public constant returns (address) {\n        return bbs.getAddress(BBLib.toB32('TCR', listID, 'TOKEN'));\n    } \n\n\n    function setParams(uint256 listID, uint256 applicationDuration, uint256 commitDuration, uint256 revealDuration, uint256 minStake, uint256 initQuorum, uint256 exitDuration) onlyOwner public  {\n        bbs.setUint(BBLib.toB32('TCR', listID, 'APPLICATION_DURATION'), applicationDuration);\n        bbs.setUint(BBLib.toB32('TCR', listID, 'COMMIT_DURATION'), commitDuration);\n        bbs.setUint(BBLib.toB32('TCR', listID, 'REVEAL_DURATION'), revealDuration);\n        bbs.setUint(BBLib.toB32('TCR', listID, 'MIN_STAKE'), minStake);\n        bbs.setUint(BBLib.toB32('TCR', listID, 'QUORUM'), initQuorum);\n        bbs.setUint(BBLib.toB32('TCR', listID, 'EXITDURATION'), exitDuration);\n    }\n\n\n    function getListParams(uint256 listID) public view returns(uint256 applicationDuration, uint256 commitDuration, uint256 revealDuration, uint256 minStake){\n        applicationDuration = bbs.getUint(BBLib.toB32('TCR', listID, 'APPLICATION_DURATION'));\n        commitDuration = bbs.getUint(BBLib.toB32('TCR', listID, 'COMMIT_DURATION'));\n        revealDuration = bbs.getUint(BBLib.toB32('TCR', listID, 'REVEAL_DURATION'));\n        minStake = bbs.getUint(BBLib.toB32('TCR', listID, 'MIN_STAKE'));\n    }\n\n    function getStakedBalance(uint256 listID, bytes32 itemHash) public constant returns (uint256) {\n        return  bbs.getUint(BBLib.toB32('TCR', listID, itemHash, 'STAKED'));\n    }\n\n    function getItemStage(uint256 listID, bytes32 itemHash) public constant returns (uint256) {\n        return  bbs.getUint(BBLib.toB32('TCR',listID, itemHash,'STAGE'));\n    }\n\n}\n",
  "sourcePath": "/Users/yena/Documents/tuongnguyen/bigbom-digital-contract/src/contracts/BBTCRHelper.sol",
  "compiler": {
    "name": "solc",
    "version": "0.4.24+commit.e67f0147.Emscripten.clang"
  },
  "schemaVersion": "2.0.1",
  "updatedAt": "2018-11-22T03:06:10.682Z"
}